:10000000587200200D51010000000000155D010034
:1000100000000000000000000000000000000000E0
:1000200000000000000000000000000000000000D0
:10003000000000000000000071C30000B9C3000010
:100040000552010005520100055201000552010050
:1000500035EE0000ADF70000055201000552010029
:100060000552010005520100055201000552010030
:100070000552010005520100055201000552010020
:100080000552010005520100055201000552010010
:1000900005520100000000000000000005520100B0
:1000A00005520100055201000552010005520100F0
:1000B0000000000010B5064C2378002B07D1054B3B
:1000C000002B02D0044800E000BF0123237010BDC4
:1000D000B00800200000000098CA0200084B10B5CC
:1000E000002B03D00749084800E000BF0748036819
:1000F000002B00D110BD064B002BFBD09847F9E731
:1001000000000000B408002098CA020098CA02004B
:100110000000000080B586B000AF786039603B68B1
:100120007B61134A7B6801211800124B98477B6959
:100130005B689B69002B07D17B691A687B695B68E8
:10014000190010000C4B98477B695A680C23FB1868
:1001500011001800094B98470C23FB1878681968A0
:100160005A68074B9847C046BD4606B080BDC0469A
:1001700024740200D5590000B90A000049080000A3
:10018000895D000080B584B000AF786039603B685D
:10019000FB607B681A6AFB6811001800054B9847E2
:1001A000031E02DA01235B4200E000231800BD4673
:1001B00004B080BD010A000090B587B000AF786040
:1001C00039600C23FB187A681A600C23FB183A6814
:1001D0005A603B68064A0C2179180648064CA0472D
:1001E00003007B617B691800BD4607B090BDC04627
:1001F0008501000015010000295F000090B5AFB037
:1002000002AF786039603B68AC22BA181360AC2347
:10021000FB181B681B6A1249124A0C2038180093FD
:100220000B009B21104CA0470300A822BA181360B2
:10023000A823FB181B68002B07DD0C23FA18A82342
:10024000FB181B68D31800221A700C23FA187B685D
:1002500000211800054B9847C046BD462DB090BD03
:10026000A0740200D874020009320200D5590000BF
:1002700080B590B000AF7860396001235B42FB63CA
:100280003B68BB63BB6B1800404B98477B681B887F
:10029000C82B02D001235B4274E07B681B6A180004
:1002A0003B4B984703007B637B6B002B62D008239A
:1002B000FB18384A03CA03C30823FB18786B196874
:1002C0005A68354B984703003B633B6B002B54D077
:1002D0003B6B1B7D022B50D13B6B9B692F4A11005E
:1002E00018002F4B9847031E02D1BB6B01221A60E6
:1002F0001023FB182B4A03CA03C31023FB18786B87
:1003000019685A68244B98470300FB62FB6A002B6C
:1003100032D00023BB621823FB18234A03CA03C34D
:100320001823FB18F86A19685A681B4B9847030092
:10033000BB62BB6A002B04D0BB6A9B6918001B4BD5
:1003400098472023FB181A4A03CA03C32023FB182B
:10035000F86A19685A68104B98470300BB62BB6A79
:10036000002B04D0BB6A9B691800124B98470023EE
:10037000FB6302E0C04600E0C0467B6B18000E4BFA
:100380009847FB6B1800BD4610B080BDFD160000FD
:10039000896600000475020085680000E8740200A8
:1003A0008F33020010750200207502004D1D000001
:1003B000347502007D1D0000E967000090B585B02E
:1003C00000AF786039603B68054A79680548064C9B
:1003D000A0470300FB60FB681800BD4605B090BD58
:1003E00071020000FD010000295F000080B586B0A9
:1003F00000AF786039603B687B61104A7B680121FF
:1004000018000F4B98477B699B68002B03D17B69D1
:1004100018000C4B98470C23FB187A691100180040
:10042000094B98470C23FB18786819685A68074BE2
:100430009847C046BD4606B080BDC046A0740200C5
:10044000D55900002517000031140000895D000017
:1004500080B584B000AF786039603B68FB607B6832
:100460001B88C82B0BD17B681A6AFB681100180027
:10047000074B9847031E05DA01235B4203E0012383
:100480005B4200E000231800BD4604B080BDC046BA
:10049000D115000090B585B000AF78607B68064A42
:1004A00079680648064CA0470300FB60FB6818000B
:1004B000BD4605B090BDC04651040000ED030000EC
:1004C000295F000090B5AFB002AF786039603B683B
:1004D000AC22BA181360AC23FB181B681B6A1249C4
:1004E000124A0C20381800930B009B21104CA04797
:1004F0000300A822BA181360A823FB181B68002B5E
:1005000007DD0C23FA18A823FB181B68D318002258
:100510001A700C23FA187B6802211800054B9847C3
:10052000C046BD462DB090BDA07402004C750200BF
:1005300009320200D559000090B585B000AF78604F
:100540007968064800230022054CA0470300FB60A1
:10055000FB681800BD4605B090BDC046C50400004C
:10056000295F000080B584B000AF7860396008234F
:10057000FA186C493B6818006B4B98470300FB6006
:10058000FB68002B02D101235B42C7E0BB685B0222
:100590005A0A7B6852025968C905C90D0A435A6054
:1005A0000823FA185F49FB6818005F4B984703005F
:1005B000FB60FB68002B02D101235B42AEE0BB680D
:1005C000DBB21A1C0F231340DAB27B68111C0F2216
:1005D0000A4050019A8855490A40111C021C0A43DE
:1005E0009A800823FA185249FB6818004E4B984726
:1005F0000300FB60FB68002B02D101235B428DE00E
:10060000BB68DBB21A1C1F231340DAB27B681F21C0
:100610000A4010001A791F218A43111C021C0A4348
:100620001A710823FA184349FB6818003E4B984793
:100630000300FB60FB68002B02D101235B426DE0ED
:10064000BB68DBB21A1C1F231340DAB27B68D000F0
:10065000DA7807210A40111C021C0A43DA700823C9
:10066000FA183449FB6818002F4B98470300FB60C9
:10067000FB68002B02D101235B424FE0BB68DBB279
:100680001A1C3F231340DAB27B68111C3F220A4038
:1006900050015A8828490A40111C021C0A435A80FA
:1006A0000823FA182549FB6818001F4B98470300D8
:1006B000FB60FB68002B02D101235B422EE0BB688C
:1006C000DBB21A1C3F231340DAB27B683F210A4099
:1006D000D20319681A4801400A431A600823FA181D
:1006E0001849FB681800104B98470300FB60FB6833
:1006F000002B02D101235B4210E0BB689BB29B053B
:100700009B0D9AB27B689205920D50011A880E4992
:100710000A40111C021C0A431A8000231800BD461F
:1007200004B080BD64760200313600001FFEFFFF7A
:10073000687602006C7602001FF8FFFF70760200F8
:10074000FF7FE0FF747602001F80FFFF80B582B05C
:1007500000AF78607B6800221A637B6800225A63CE
:100760007B68082200211800154B98477B680833E6
:10077000082200211800124B98477B68103308228A
:10078000002118000E4B98477B681833082200217F
:1007900018000B4B98477B6838330822002118005B
:1007A000074B98477B6820331800064B98477B68B7
:1007B00028331800034B9847C046BD4602B080BDA1
:1007C0006D2F0200C538000080B582B000AF7860A0
:1007D0007B6818001A4B98477B6808331800184B41
:1007E00098477B6810331800154B98477B6818337F
:1007F0001800134B98477B6838331800104B984704
:100800007B68203318000E4B98477B68283318000C
:100810000B4B98477B681B6B002B04D07B681B6BD2
:100820001800084B98477B685B6B002B04D07B68F3
:100830005B6B1800034B9847C046BD4602B080BDB5
:10084000BD3B0000E967000090B597B000AF78604D
:1008500039605D4B984703007B651423FB185B4AA6
:1008600003CA03C33B681B681800594B9847030031
:100870001422BA18786D11685268564CA0471C2390
:10088000FB18554A03CA03C33B689B681800504BCA
:10089000984703001C22BA18786D116852684D4CB5
:1008A000A0472423FB184D4A03CA03C33B681B69B6
:1008B0001800474B984703002422BA18786D116836
:1008C0005268444CA0472C23FB18454A03CA03C373
:1008D0003B689B6918003E4B984703002C22BA18CE
:1008E000786D116852683B4CA0473423FB183D4A91
:1008F00003CA03C33B681B6A1800354B98470300C3
:100900003422BA18786D11685268324CA0473C23E3
:10091000FB18354A03CA03C33B689B6A18002C4B7B
:10092000984703003C22BA18786D11685268294C28
:10093000A0473B681B6B002B0DD04423FB182B4AB0
:1009400003CA03C33B681B6B4422BA18786D116855
:100950005268204CA0473B685B6B002B0DD04C23AA
:10096000FB18234A03CA03C33B685B6B4C22BA18CB
:10097000786D11685268174CA0470C23FB187A6DEC
:10098000110018001B4B98473B681B6B002B04D0D1
:100990003B681B6B1800184B98473B685B6B002B40
:1009A00004D03B685B6B1800134B98477B6D1800B5
:1009B000124B98477B680C22BA1803CA03C37868A5
:1009C000BD4617B090BDC046396A0000807602006F
:1009D000C1690000396B0000907602009C7602002D
:1009E000B0760200C8760200E0760200F0760200DF
:1009F00004770200F5660000A96B0000E9670000BB
:100A000090B589B000AF786039603B681800244B1E
:100A100098470300FB61FB69002B02D101235B4275
:100A200039E00823FB181F4A03CA03C30823FB1835
:100A3000F86919685A681C4B98470300BB61BB6989
:100A4000002B03D0BB691B7D022B02D001235B422C
:100A500021E07B6838331C00BB699A691023FB18BE
:100A60001A601023FB1883221A71BB699B69180056
:100A70000E4B984703009AB21023FB18DA8010231C
:100A8000FB1819685A682000094B9847FB69180041
:100A9000084B984700231800BD4609B090BDC046DA
:100AA000896600001077020085680000EF330200BD
:100AB00095390000E967000090B58FB000AF78600D
:100AC00039603B6818003E4B98473B681833180064
:100AD0007B68196A5A6A3B4B984738681423FB189D
:100AE000394A12CA12C31423FB1819685A68374BC3
:100AF00098473B68083318001C23FB18324A12CA77
:100B000012C31C23FB1819685A68304B98473B687E
:100B1000203318002423FB182B4A12CA12C32423A3
:100B2000FB1819685A68294B98473B682833180006
:100B30002C23FB18244A12CA12C32C23FB18196851
:100B40005A68224B98477B689B68002B02D101238F
:100B50005B4231E01E4B7B637B689A687B6B1100C4
:100B600018001C4B98477B6B18001B4B98470300E1
:100B70001A007B6B9A18194B1000190002231A00F7
:100B8000174B98470C23FB187A6B1A600C23FB1841
:100B900081221A717B6B18000F4B984703009AB2A1
:100BA0000C23FB18DA803B6810330C22BA181100B2
:100BB00018000C4B984700231800BD460FB090BD9D
:100BC0004D070000E9390000207702009539000048
:100BD000CC080020A3330200EF3302001877020094
:100BE000372F02003D3A000080B584B000AF0023EB
:100BF000FB600023BB6000237B60194B1B68002B4C
:100C000003D0174B1B680C3300E00023BB60144B70
:100C10001B68FB60BB68002B1BD0BB681B687B603C
:100C200017E0FB6818000F4B9847FB6818000E4B45
:100C300098477B68BB60BB68002B02D0BB680C3B4D
:100C400000E00023FB60BB68002B02D0BB681B6880
:100C50007B60BB68002BE4D1C046BD4604B080BDBC
:100C6000E0080020BD3B0000E12E020090B585B0F9
:100C700000AF08243C19206061603B60FB1D1A70C6
:100C80003A682D4B1000190033231A002B4B98475C
:100C90003B6818002A4B984703001A003B689A18D3
:100CA000284B1000190002231A00244B98470823F0
:100CB000FB181A683B6811001800234B9847FB1D6E
:100CC0001B78012B14D0022B22D0002B00D02FE058
:100CD0003B6818001A4B984703001A003B689A18A3
:100CE0001A4B1000190008231A00144B98471FE0F4
:100CF0003B681800124B984703001A003B689A188B
:100D0000134B100019000A231A000C4B98470FE0F0
:100D10003B6818000A4B984703001A003B689A1872
:100D20000C4B100019000B231A00044B9847C046C7
:100D3000C046BD4605B090BD28770200372F02009F
:100D4000EF3302005C770200593302006077020043
:100D5000687702007477020090B5ABB000AF78609E
:100D600039603B68A422BA181360A423FB181B68DF
:100D70001A7A0C23FB18A4217918096808684968B5
:100D80000D4CA0470C23FA187B68022118000B4B6E
:100D90009847A423FB181B68DB68002B07D0A4230B
:100DA000FB181B687868D9681A69054B9847C046D4
:100DB000BD462BB090BDC0466D0C0000D55900005B
:100DC000895D000082B090B58BB000AF08243C195B
:100DD000206061601100042238208446BC446244D3
:100DE0001360FB1D0A1C1A701023FB1800221A60E6
:100DF0001023FB1800221A711023FB180022DA803E
:100E00001023FB18FA1D12781A721023FB18002207
:100E1000DA601023FB1800221A741023FB1800223A
:100E20005A820823FB181022B81819685A68104B08
:100E30009847042338229446BC4463441022BA18CD
:100E40000C32100019685A68094B98471023F9189A
:100E5000084800230022084CA04703007B627B6AFD
:100E60001800BD460BB090BC08BC02B01847C04685
:100E7000E9390000590D0000295F000080B584B0F9
:100E800000AFF8603B1D19605A60FB683A1D110005
:100E90001800064B9847031E01D1002301E00123EF
:100EA0005B421800BD4604B080BDC046193C00003E
:100EB00090B5ABB002AF7860396001235B42842209
:100EC000BA18136000239C22BA1813607B68802232
:100ED000BA18136000239822BA181360E14B9847A0
:100EE000030000211800E04B984717E09823FB18F7
:100EF0001B68002B0EDB9823FB181B68013398221C
:100F0000BA1813609823FB181B68002B02DB02231E
:100F10005B4247E2D54B1800D54B98471423FB188A
:100F200000221A601423FB1800221A711423FB18E4
:100F30000022DA801423FB188022BA1811686A464E
:100F4000586810601B6801228868C968C94CA047AE
:100F5000031ECBDB1C23FB18C74A03CA03C31C2395
:100F6000FB18386819685A68C44B98470300FB6738
:100F7000FB6F002B03D0FB6F1B7D022B19D0C04BE6
:100F8000984703009C22BA1813602423FB18BD4A1B
:100F900003CA03C3BC4B1800BC4B98470300242270
:100FA000BA189C217918086811685268B84CA04793
:100FB0003CE12C23FB18B74A03CA03C32C23FB18BC
:100FC000386819685A68AD4B984703009422BA18DC
:100FD00013609423FB181B68002B0FD13423FB18DC
:100FE000AD4A03CA03C33423FB18386819685A682A
:100FF000A24B984703009422BA1813609423FB185D
:101000001B68002B05D09423FB181B681B7D022B4B
:1010100019D09B4B984703009C22BA1813603C23BD
:10102000FB18984A03CA03C39C4B1800974B984778
:1010300003003C22BA189C2179180868116852688C
:10104000934CA047F2E04423FB18954A03CA03C31C
:101050004423FB18386819685A68884B984703007E
:101060009022BA1813609023FB181B68002B0FD135
:101070004C23FB188B4A03CA03C34C23FB18386864
:1010800019685A687D4B984703009022BA1813607C
:101090009023FB181B68002B05D09023FB181B68BE
:1010A0001B7D022B19D0764B984703009C22BA185F
:1010B00013605423FB18734A03CA03C37A4B180006
:1010C000724B984703005422BA189C21791808687B
:1010D000116852686E4CA047A8E000238C22BA1811
:1010E000136000238822BA181360704B1B68002B12
:1010F00003D06E4B1B680C3300E000238822BA1823
:1011000013606A4B1B688C22BA1813603CE094236E
:10111000FB181B689A695C23FB181A605C23FB1898
:1011200083221A719423FB181B689B691800604B7B
:10113000984703009AB25C23FB18DA805C23FB1803
:101140008C22BA18106819685A685A4B9847031EBF
:1011500020D000238C22BA1813608823FB181B6848
:101160001B688822BA1813608823FB181B68002BA1
:1011700004D08823FB181B680C3B02E08C23FB186F
:101180001B688C22BA1813608823FB181B68002B7D
:10119000BDD100E0C0468C23FB181B68002B2CD06F
:1011A0008C23FB181B689A689023FB181B689B69AB
:1011B0001800904703008422BA1813608423FB1898
:1011C0001B68002B32DA2E4B984703009C22BA187A
:1011D00013606423FB182B4A03CA03C3364B180061
:1011E0002A4B984703006422BA189C217918086892
:1011F00011685268264CA04718E0214B984703001D
:101200009C22BA1813606C23FB181E4A03CA03C33E
:101210002A4B18001D4B984703006C22BA189C21DA
:101220007918086811685268194CA0470D4B984707
:101230000300012118000C4B984700239822BA188C
:1012400013609C23FB181B68002B00D186E00C2345
:10125000FB189C22BA18126811001800184B984706
:1012600048E0C046FD5E000027490000B80B0000C2
:101270002D980000C50D000004780200856800006C
:10128000396A00001478020080770200C16900000A
:10129000396B00002478020034780200987702004D
:1012A0004478020054780200AC770200E008002085
:1012B000EF3302007D0E0000C0770200D8770200F5
:1012C000F56600009823FB181B68002B0EDB9823A3
:1012D000FB181B6801339822BA1813609823FB1877
:1012E0001B68002B02DB02235B425BE02F4B1800E4
:1012F0002F4B98470C23FB188022BA1811686A46B6
:10130000586810601B6800228868C968294CA0478B
:10131000031ED7DB0C23FB181800274B98479C2390
:10132000FB181B681800254B984733E09823FB18DF
:101330001B68002B0EDB9823FB181B6801339822D7
:10134000BA1813609823FB181B68002B02DB0223DA
:101350005B4227E0154B1800154B98477423FB1888
:1013600000221A607423FB1800221A717423FB18E0
:101370000022DA807423FB188022BA1811686A46AA
:10138000586810601B6802228868C968094CA04729
:10139000031ECBDB0A4B9847030000211800094BC2
:1013A000984700231800BD4629B090BDB80B000037
:1013B0002D980000C50D0000BD3B0000E96700004E
:1013C000FD5E00004549000080B582B000AF0023FB
:1013D0007B6000237B6011E00C4A7B681B01D31803
:1013E00008331B68002B06D0084A7B681B01D31802
:1013F00008331B6898477B6801337B607B68062B4A
:10140000EADDC046BD4602B080BDC04600000020F7
:1014100080B582B000AF78607B6840220021180060
:10142000024B9847C046BD4602B080BD6D2F0200FA
:1014300090B595B000AF78603960594B984703007C
:10144000FB643B681B68002B11D01423FB18554A22
:1014500003CA03C33B681B681800534B984703003B
:101460001422BA18F86C11685268504CA0473B68B7
:101470009B68002B11D01C23FB184D4A03CA03C3E1
:101480003B689B681800484B984703001C22BA1819
:10149000F86C11685268454CA0473B681B69002BEB
:1014A00011D02423FB18434A03CA03C33B681B69BA
:1014B00018003D4B984703002422BA18F86C1168B5
:1014C00052683A4CA0473B689B69002B11D02C23F3
:1014D000FB18394A03CA03C33B689B691800324BA7
:1014E000984703002C22BA18F86C116852682F4CE8
:1014F000A0473B689B6A002B11D03423FB182F4A6E
:1015000003CA03C33B689B6A1800274B9847030034
:101510003422BA18F86C11685268244CA0473B6812
:101520001B6B002B11D03C23FB18254A03CA03C3B5
:101530003B681B6B18001C4B984703003C22BA18F1
:10154000F86C11685268194CA0473B689B6B002BE4
:1015500011D04423FB181B4A03CA03C33B689B6B8F
:101560001800114B984703004422BA18F86C116810
:1015700052680E4CA0470C23FB18FA6C110018009F
:10158000114B9847FB6C1800104B98477B680C2256
:10159000BA1803CA03C37868BD4615B090BDC046EB
:1015A000396A0000F0790200C1690000396B00005F
:1015B000FC7902000C7A02001C7A0200347A0200E4
:1015C0004C7A0200607A0200F5660000E9670000CC
:1015D00090B589B000AF786039603B68002B02D1CC
:1015E00001235B4248E03B681800254B9847030005
:1015F000FB61FB69002B02D101235B423CE0082325
:10160000FB18204A03CA03C30823FB18F8691968AA
:101610005A681D4B98470300BB61BB69002B02D180
:1016200001235B4228E0BB691B7D022B02D0012312
:101630005B4221E07B6820331C00BB699A69102360
:10164000FB181A601023FB1883221A71BB699B696F
:1016500018000E4B984703009AB21023FB18DA804B
:101660001023FB1819685A682000094B9847FB693A
:101670001800084B984700231800BD4609B090BDDC
:10168000896600006C7A020085680000EF33020072
:1016900095390000E967000080B582B000AF78603E
:1016A0007B681800144B98477B6808331800124B6E
:1016B00098477B68103318000F4B98477B681833A6
:1016C00018000D4B98477B68203318000A4B984749
:1016D0007B6828331800084B98477B683033180024
:1016E000054B98477B6838331800034B9847C04632
:1016F000BD4602B080BDC046BD3B000080B582B093
:1017000000AF78607B68042200211800044B9847E2
:101710007B6800221A60C046BD4602B080BDC0464C
:101720006D2F020090B597B000AF78607B6818000D
:10173000584B984778681C23FB18574A12CA12C3A3
:101740001C23FB1819685A68544B98477B68103360
:1017500018002423FB18504A12CA12C32423FB1872
:1017600019685A684D4B98477B68283318002C231A
:10177000FB18494A12CA12C32C23FB1819685A686D
:10178000464B98477B68303318003423FB18424A95
:1017900012CA12C33423FB1819685A683F4B984782
:1017A0007B68183318003C23FB183D4A12CA12C349
:1017B0003C23FB1819685A68384B98477B683833C4
:1017C00018004423FB18374A12CA12C34423FB18DB
:1017D00019685A68314B9847334B3B653B6D002283
:1017E0001A703B6D1800314B984703001A003B6D8F
:1017F0009A182F4B1000190002231A002D4B9847FE
:101800000123FB641423FB1818002B4B984700237B
:101810007B6500237B6513E07B6D5B001A00FB6C2E
:10182000D3183A6DD0181423FA187B6DD3181B788F
:101830001A00224B1900224B98477B6D01337B65C0
:101840007B6D052BE8DDFB6C0C33FB643A6DFB6CA8
:10185000D31800221A700C23FB183A6D1A600C235F
:10186000FB1881221A713B6D1800104B984703003A
:101870009AB20C23FB18DA807B6808330C22BA1862
:10188000110018000F4B984700231800BD4617B0F1
:1018900090BDC04611140000847A02009539000002
:1018A000947A0200A47A0200E4080020EF330200D8
:1018B000747A0200372F0200D18E0000787A02007D
:1018C000917B01003D3A000080B500AF094B98477D
:1018D000094B984703001800084B9847084B984756
:1018E000031E01DA074B02E0074B9847002318005C
:1018F000BD4680BD85380000893F00003D380000AE
:101900000D5F0000D4FEFFFFC913000090B587B043
:1019100002AF786036486D2301933523009333235B
:101920005B221B21334CA047334B1800334B9847A5
:101930002F486D2301933723009333235B221B2110
:101940002C4CA0477B6818002D4B98477B681800EB
:101950002C4B98470300FB60FB68002B26DA2448D9
:101960006D2301933523009333235B221B21214CEC
:10197000A047254B1800214B98471D486D23019324
:101980003723009333235B221B211A4CA0477B682B
:1019900018001E4B9847031E02DA01235B4222E027
:1019A0007B6818001A4B984700231CE010486D23F1
:1019B00001933523009333235B221B210D4CA04759
:1019C000144B18000D4B984709486D23019337239A
:1019D000009333235B221B21064CA0477B68180031
:1019E0000D4B984703001800BD4605B090BDC0469A
:1019F000AC7A0200997C0100B87A0200D131020071
:101A00002517000089910000CC7A0200950400009F
:101A10002D930000E47A02003905000090B585B0EE
:101A200002AF786039603A687B68110018001A4B81
:101A300098473B681800194B9847031E26DA184848
:101A40006D2301933523009333235B221B21154C17
:101A5000A047154B1800154B984711486D2301936B
:101A60003723009333235B221B210E4CA0473A6897
:101A70007B68110018000E4B9847031E02DA012301
:101A80005B4204E03B6818000A4B984700231800AB
:101A9000BD4603B090BDC046B90A00007593000072
:101AA000AC7A0200997C0100F47A0200D131020084
:101AB000B90100001D95000080B582B000AF344B25
:101AC0009847344B9847030000211800324B984741
:101AD00000237B600EE07B68002B07DB7B68013313
:101AE0007B607B68002B01DB2C4B4CE02C4B1800FF
:101AF0002C4B98472C4B18002C4B9847031EEADBC5
:101B0000234B984700237B600EE07B68002B07DBAC
:101B10007B6801337B607B68002B01DB1F4B32E06D
:101B20001F4B18001F4B9847214A1F4B11001800EC
:101B3000204B9847031EE8DB154B984700237B603A
:101B4000144B9847030001211800134B98470EE0EF
:101B50007B68002B07DB7B6801337B607B68002B95
:101B600001DB0E4B0FE00E4B18000E4B9847124A4C
:101B70000D4B11001800114B9847031EE8DB104B6A
:101B800001221A6000231800BD4602B080BDC04685
:101B9000CD870000FD5E000027490000D4FEFFFF56
:101BA000B80B00002D980000F40800200D1900006B
:101BB00034090020BD030000380900201D1A000070
:101BC0007809002080B584B000AF7860134B1B68A3
:101BD000002B01D1124B1CE0124B98470023FB60F5
:101BE0000EE0FB68002B07DBFB680133FB60FB6842
:101BF000002B01DB0C4B0CE00C4B18000C4B9847F6
:101C00007A680C4B110018000B4B9847031EE8DB59
:101C100000231800BD4604B080BDC04678090020EE
:101C2000D3FEFFFFCD870000D4FEFFFFB80B0000FE
:101C30002D980000380900207D35000080B500AFE8
:101C40000D4B1B68002B02D00B4B1B6810E00B4B9D
:101C50001B68002B02D0094B1B6809E0084B0021D0
:101C60001800084B9847031E01DA002300E0044BDC
:101C70001800BD4680BDC046FC0900207000002051
:101C8000840900206595000080B500AF0D4B1B68EE
:101C9000002B02D00B4B1B6810E00B4B1B68002B7A
:101CA00002D0094B1B6809E0084B19000020084BC3
:101CB0009847031E01DA002300E0044B1800BD46DC
:101CC00080BDC046000A002074000020C809002022
:101CD0006595000080B500AF084B1B78002B01D044
:101CE000064B08E0054B1800054B9847031E01DA28
:101CF000002300E0014B1800BD4680BD7C09002098
:101D0000F995000090B583B000AF786039607B68CA
:101D10001C683B6818000B4B984702003B68190091
:101D20002000094B98477B681C683B681800054BEE
:101D300098470300E31800221A70C046BD4603B05E
:101D400090BDC046EF330200372F020080B582B04D
:101D500000AF7860064B074A1A607A68044B11009E
:101D60001800054B9847C046BD4602B080BDC0462E
:101D7000FC09002084090020051D000080B582B008
:101D800000AF7860064B074A1A607A68044B11006E
:101D90001800054B9847C046BD4602B080BDC046FE
:101DA000000A0020C8090020051D0000B0B5E0B001
:101DB00002AFF860B9607A603B60D64B98477B68A9
:101DC0001C687B681800D44B98470300190020005A
:101DD000D24B9847D24B01211800D04B98473B6813
:101DE0001800D04B984703001A003B6811001800F8
:101DF000CA4B9847CA4B01211800C84B9847C423C7
:101E00005B00FB181B68002B10D0C4235B00FB1881
:101E10001B681800C34B984703001A00C4235B00DB
:101E2000FB181B6811001800BC4B9847C6235B00C9
:101E3000FB181B68002B23D0C6235B00FB181B6814
:101E40001800B84B984703001A00C6235B00FB1824
:101E5000196888235B00FB181800B34B9847882348
:101E60005B00F9189A235B00FB1820221800AF4B87
:101E700098479A235B00FB1840220021995409E0FF
:101E80009A235B00FA18AA4B1000190041231A008C
:101E9000A84B98479A235B00FB18402118009F4BE2
:101EA000984788235B00FB181800A34B98478823AA
:101EB0005B00F9189A235B00FB18202218009B4B4B
:101EC00098479A235B00FB18402200219954C823AD
:101ED0005B00FB181B681A78984B1B789A4264D1F8
:101EE000974B984702001023FB1811001800954BE0
:101EF0009847954B98470400934B98470300180068
:101F0000884B984703001D001023FB181800854BD1
:101F1000984703001A001023FB18902178180092AC
:101F20002A002100894CA0479023F9181023FB18A0
:101F3000202218007D4B9847BB681800794B9847C2
:101F400003001C001023FA18B9689023F8184023E6
:101F50000093130022007D4CA0479023F918102312
:101F6000FB1820221800714B9847C8235B00FB1810
:101F70001B6818006B4B984703001C001023FA18CD
:101F8000C8235B00FB1819689023F81840230093BE
:101F9000130022006D4CA0479023F9181023FB1862
:101FA00020221800614B98475DE0C8235B00FB18B6
:101FB0001B681A78664B1B789A424DD1624B984742
:101FC0000400614B984703001800564B98470300E4
:101FD0001A009023FB18210018005E4B98479023AD
:101FE000F9181023FB1820221800504B9847BB68A3
:101FF00018004C4B984703001A00BB681021791851
:102000009020381800924022504CA0479023F91895
:102010001023FB1820221800444B9847C8235B006C
:10202000FB181B6818003F4B984703001A00C82391
:102030005B00FB181B68102179189020381800925B
:102040004022424CA0479023F9181023FB1820226D
:102050001800364B984706E01023FB188022002119
:1020600018003D4B98471023FB18402118003B4BAC
:1020700098479A235B00FB1840211800384B98477B
:10208000274B01211800364B98472F4B98470400E7
:102090002D4B984703001800224B98470300190066
:1020A00020002F4B98471E4B012118002C4B9847BE
:1020B000BB6818001B4B984703001A00BB6811004F
:1020C0001800274B9847164B01211800244B9847BE
:1020D000C8235B00FB181B681800124B98470300CD
:1020E0001A00C8235B00FB181B68110018001C4B6A
:1020F00098479023FB1818001A4B98479023F9181B
:10210000FB6820221800094B9847C046BD465EB0C8
:10211000B0BDC046558C0000853A0000718C0000AF
:10212000087B0200EF3302002D8C0000F536000022
:102130000C7B0200372F0200998C0000507B0200BC
:10214000891C0000A33302003D1C0000BD8C000070
:10215000547B0200098C00006D2F0200018D0000ED
:10216000BD8D0000E58D000080B584B000AF7860C3
:1021700039603B681B6CFB607B6800221A7000238F
:10218000BB603B681B6C002B03D03B681B6C10339F
:1021900000E00023BB603B681B6CFB6036E0FB6823
:1021A0001A687B68110018001C4B98477B68180060
:1021B0001B4B984703001A007B689A18194B1000B4
:1021C000190002231A00184B9847FB689A687B682D
:1021D00011001800114B98477B681800104B984766
:1021E00003001A007B689A18104B10001900032393
:1021F0001A000D4B9847BB681B68BB60BB68002B7F
:1022000002D0BB68103B00E0FB68FB60BB68002BA2
:10221000C5D1C046BD4604B080BDC046593302009A
:10222000EF330200587B0200372F02005C7B020074
:10223000F0B5AFB004AF78600023A422BA181360E1
:102240007B681B6C002B10D080239B001800A84BD0
:1022500098470300A422BA1813607A68A423FB18D5
:102260001B6811001800A34B98470C23FB1818009B
:10227000A14B9847A14A0C23FB1811001800A04B52
:1022800098471423FB189F4A03CA03C31423FA1860
:1022900078680023116852689B4CA047031E27DA18
:1022A0001C23FB18974A03CA03C3984B98470200A4
:1022B0002423FB181A602423FB1881221A71934BE4
:1022C000984703001800924B984703009AB22423C2
:1022D000FB18DA802423FB181C22BA187C68694694
:1022E000586808601B68116852682000894CA04734
:1022F0002C23FB18884A03CA03C33423FB187F4AE4
:102300001A603423FB1881221A717C4B1800804B11
:10231000984703009AB23423FB18DA803423FB1861
:102320002C22BA187C686946586808601B681168D6
:1023300052682000774CA0473C23FB18774A03CA19
:1023400003C3774B984702004423FB181A604423C9
:10235000FB1881221A71724B9847030018006C4BCE
:10236000984703009AB24423FB18DA804423FB18F1
:102370003C22BA187C686946586808601B68116876
:1023800052682000634CA0477D687B689E697B682B
:102390005C6C634B98470300584962480293019470
:1023A000A423FB181B68009333002A005E4CA0474F
:1023B000A423FB181B68002B05D0A423FB181B6863
:1023C00018005A4B98474C23FB18594A03CA03C3B9
:1023D0005423FB18534A1A605423FB1881221A71A4
:1023E000504B18004A4B984703009AB25423FB18ED
:1023F000DA805423FB184C22BA187C686946586866
:1024000008601B68116852682000424CA0475C239A
:10241000FB18484A03CA03C35C23FB187868196891
:102420005A68454B98476423FB18444A03CA03C3C0
:102430006C23FB183F4A03CA03C36C23FB186422B6
:10244000BA187C686946586808601B681168526849
:102450002000304CA0477423FB18394A03CA03C339
:102460007C23FB18374A03CA03C37C23FB1874225E
:10247000BA187C686946586808601B681168526819
:102480002000244CA0478423FB182F4A03CA03C30F
:102490008C23FB182D4A03CA03C38C23FB18842208
:1024A000BA187C686946586808601B6811685268E9
:1024B0002000184CA0479423FB18254A03CA03C3E5
:1024C0009C23FB18234A03CA03C39C23FB189422B2
:1024D000BA187C686946586808601B6811685268B9
:1024E00020000C4CA047C046BD462BB0F0BDC046F6
:1024F000CD2E02006921000041980000040A00204E
:102500002D880000707B0200055D00003D1C00006E
:10251000EF330200B15C0000887B0200A07B020068
:10252000D51C0000200A0020AD1D0000E12E020095
:10253000BC7B0200D87B0200595D0000E87B0200F2
:10254000FC7B0200107C0200287C0200407C020020
:10255000547C0200607C020090B5D1B000AF78607E
:1025600039603B689C225200BA18136000239E22F7
:102570005200BA1813609C235B00FB181B681B7881
:10258000012B17D0022B29D0002B3BD19C235B00C1
:10259000FB181B685C684F4A1623FF3319000C2395
:1025A000F81823004C4CA04703009E225200BA1892
:1025B000136027E09C235B00FB181B685C68474A9C
:1025C0001623FF3319000C23F8182300424CA047B0
:1025D00003009E225200BA18136013E09C235B0094
:1025E000FB181B685C683E4A1623FF3319000C2356
:1025F000F8182300384CA04703009E225200BA1856
:102600001360C0469E235B00FB181B68002B5CDB3D
:10261000344BA0225200BA18D2189E235B00FB183C
:102620001B68D31800221A700C23FA187B68022149
:1026300018002D4B98479C235B00FB181B681B78E8
:10264000022B43D19C235B00FB181B689B68002B6B
:102650003CD0264B984703009A225200BA181360C8
:1026600092235B00FB18224A03CA03C39C235B002E
:10267000FB181B689B6818001E4B984703009222AA
:102680005200BA189A2149007918086811685268EE
:10269000194CA04796235B00FB189A225200BA18E7
:1026A000126811001800154B984796235B00FB1821
:1026B000786819685A68124B98479A235B00FB1890
:1026C0001B6818000F4B984700E0C046BD4651B04C
:1026D00090BDC046447D020009320200A07D020088
:1026E000FC7D0200CCFEFFFFD5590000396A0000D6
:1026F0005C7E0200C1690000396B0000F5660000D5
:10270000895D0000E967000090B587B000AF786090
:1027100039600823FB1802221A700823FB187A6814
:102720005A600823FB183A689A600823F91806488B
:1027300000230022054CA04703007B617B69180041
:10274000BD4607B090BDC04659250000295F000076
:1027500090B587B000AF78600823FB1800221A708C
:102760000823FB187A685A600823FB1800229A6035
:102770000823F918054800230022054CA047030050
:102780007B617B691800BD4607B090BD59250000EC
:10279000295F000090B587B000AF78600823FB1870
:1027A00001221A700823FB187A685A600823FB1864
:1027B00000229A600823F918054800230022054CDE
:1027C000A04703007B617B691800BD4607B090BD40
:1027D00059250000295F000080B596B000AF7860F1
:1027E000396001235B427B650823FB18894A03CAD1
:1027F00003C30823FB18386819685A68864B984742
:1028000003007B647B6C002B03D07B6C1B7D022B55
:1028100002D001235B42F9E07B6C9B693B647F4BF8
:1028200098477F4B98470300002118007D4B98473D
:1028300000233B650FE03B6D002B08DB3B6D013354
:102840003B653B6D002B02DB02235B42DEE0764BF7
:102850001800764B98473B6C1800754B9847031E41
:10286000E9DB6E4B98471023FB18724A03CA03C377
:102870001023FB18386819685A68674B984703009B
:102880007B647B6C002B00D171E07B6C1B7D022B89
:102890006DD17B6C9B69FB631823FB18664A03CAE6
:1028A00003C31823FB18386819685A685A4B9847AD
:1028B00003007B647B6C002B59D07B6C1B7D022B4F
:1028C00055D17B6C9B69BB632023FB185B4A03CA11
:1028D00003C32023FB18386819685A684E4B984781
:1028E00003007B647B6C002B41D07B6C1B7D022B37
:1028F0003DD17B6C9B697B632823FB18504A03CA3C
:1029000003C32823FB18386819685A68424B984754
:1029100003007B647B6C002B29D07B6C1B7D022B1E
:1029200025D17B6C9B693B633C4B9847454B1B68AF
:10293000002B09D0434B1B683A6B100098470300EB
:102940007B657B6D002B11DB354B98470300002125
:1029500018003D4B98473A6B396CFB6B18003B4BAA
:10296000984703007B652D4B984700E0C0462C4BF1
:1029700098470300012118002A4B98477B6D002BD4
:102980001FDA0023FB64254B98470FE0FB6C002BFC
:1029900008DBFB6C0133FB64FB6C002B02DB0223C6
:1029A0005B4233E0204B1800204B9847284A3B6C91
:1029B00011001800274B9847031EE7DB174B984779
:1029C0001CE00023BB64154B98470FE0BB6C002B49
:1029D00008DBBB6C0133BB64BB6C002B02DB022346
:1029E0005B4213E0104B1800104B98473B6C1800EB
:1029F000194B9847031EE9DB184B9847084B98473B
:102A0000030000211800104B98477B6D1800BD464D
:102A100016B080BD907E020085680000CD87000062
:102A2000FD5E000027490000B80B00002D98000053
:102A300051270000A47E0200C07E0200DC7E02005E
:102A4000F07E0200680A002045490000392C000091
:102A5000707E02000927000095270000B187000062
:102A6000B0B586B000AFF8603B1D19605A60FB68D6
:102A70003B6100237B61194B1B68002B27D0184B4F
:102A800098473B691B6B002B02D1164B984703E01C
:102A90007B69012213437B613B1D1C683B1D1800B1
:102AA000114B9847030019002000104B98470B4B1F
:102AB0001C683B1D1D683B1D18000B4B984703000D
:102AC00019007B691A002800A047030001E00123D8
:102AD0005B421800BD4606B0B0BDC0466C0A00207F
:102AE000CD870000A38E0000853A0000AD8E000067
:102AF000B0B5CCB002AF786039603B68922252002A
:102B0000BA18136092235B00FB181B685D68922360
:102B10005B00FB181B681B68194C1622FF32110062
:102B20000822B81800932B002200164CA04703007F
:102B300090225200BA18136090235B00FB181B68A8
:102B4000002B18DB104B94225200BA18D218902395
:102B50005B00FB181B68D31800221A700823FA18B0
:102B60007B6800211800094B98477B68084A1A6562
:102B7000084B984700E0C046BD464AB0B0BDC046CD
:102B8000F87E020009320200E0FEFFFFD559000086
:102B9000612A0000CD87000080B592B000AF786058
:102BA00039603B687B641F4B98477B681B88C82B48
:102BB00002D001235B4231E01B4B1B68002B2BD062
:102BC0002C23FB181800194B984703003B643A6C00
:102BD0002C23F9180823FB181800154B98473B6C59
:102BE0005B000822BA180021D1543B6C5B001A002C
:102BF000796C0823FB1818000E4B9847031E05D16B
:102C0000094B1B6800209847030007E0064B1B6830
:102C100001209847030001E001235B421800BD46F4
:102C200012B080BDCD870000700A0020BF8E00006A
:102C3000F5360000FD33020090B589B000AFF860B2
:102C4000B9607A601423FB18FA681A601423FB1821
:102C5000BA685A607B68064A142179180548064C00
:102C6000A0470300FB61FB691800BD4609B090BD99
:102C7000992B0000F12A0000295F000080B586B082
:102C800000AF786039600C23FB18134A03CA03C3F2
:102C90000C23FB18386819685A68104B98470300D2
:102CA0007B617B69002B03D07B691B7D022B02D0EB
:102CB00001235B420CE07B699B691800084B984735
:102CC000031E02DA01235B4202E0064B9847002311
:102CD0001800BD4606B080BD38800200856800003F
:102CE000E92C0000B187000080B582B000AF7860A9
:102CF000084B1B68002B06D0064B1B687A68100037
:102D00009847030001E001235B421800BD4602B072
:102D100080BDC046740A002080B584B000AFF86062
:102D20003B1D19605A60FB683A1D11001800064BE4
:102D30009847031E01D1002301E001235B421800E4
:102D4000BD4604B080BDC046193C000080B584B0CB
:102D500000AF786039600F23FB1800221A703B68BF
:102D6000002B04D00F23FB183A6812781A707B6886
:102D70000F22BA1812781A74C046BD4604B080BD3E
:102D800080B584B000AF78607B681B7C1800044B72
:102D900098470300FB60FB681800BD4604B080BD87
:102DA0006169000080B582B000AF786039600A4A7E
:102DB0003B6811001800094B9847031E03D17B683C
:102DC00001221A7402E07B6800221A7400231800A2
:102DD000BD4602B080BDC046408002008F33020075
:102DE00090B585B000AF7860396000230024BB60E7
:102DF000FC603B68002B04D03B685C681B68BB60D0
:102E0000FC607A68BB68FC6813615461C046BD46CB
:102E100005B090BD90B585B000AF78607B685C6907
:102E20001B6918002100044B98470300FB60FB68F6
:102E30001800BD4605B090BDED69000090B583B0A7
:102E400000AF786039603B681800064B9847030074
:102E50000C007A681361546100231800BD4603B06A
:102E600090BDC046592C020080B584B000AF786098
:102E700039603B68002B09D17B6800221A617B68AE
:102E800000221A757B680022DA8208E03B68FB604A
:102E90007B681033FA6811001800034B9847C0464E
:102EA000BD4604B080BDC0463D3A000080B584B048
:102EB00000AF78607B681B691800044B98470300DB
:102EC000FB60FB681800BD4604B080BDC16900000E
:102ED00090B585B000AF786039607B68103318001A
:102EE000104B98477B6810331C000823FB183A6886
:102EF0001A600823FB1883221A713B6818000A4BDA
:102F0000984703009AB20823FB18DA800823FB18BD
:102F100019685A682000054B984700231800BD46E1
:102F200005B090BDBD3B0000EF33020095390000B5
:102F300080B582B000AF78607B681B69002B04D03D
:102F40007B6810331800034B9847C046BD4602B05B
:102F500080BDC046BD3B000080B58EB000AF78603C
:102F600000237B637B681800584B984703007B6302
:102F70009BE000233B630023FB62554B1B68002B47
:102F800003D0534B1B68203300E00023FB62504BFF
:102F90001B683B6314E07B6B386BD9681A694D4B37
:102FA0009847031E10D000233B63FB6A1B68FB623B
:102FB000FB6A002B02D0FB6A203B00E03B6B3B63CB
:102FC000FB6A002BE7D100E0C0463B6B002B66D0CC
:102FD0001423FB18404A03CA03C31423FB18786B5D
:102FE00019685A683D4B98470300BB62BB6A002BC7
:102FF00057D01C23FB183A4A03CA03C31C23FB18EF
:10300000786B19685A68354B984703007B620C232C
:10301000FB18180008231A000021324B98477B6ADE
:103020009A690C23FB18110018002F4B98473B6B33
:1030300018330C22BA18110018002C4B9847031EA5
:1030400030D03B6B0C22BA18183303CA03C33B6B56
:103050001B7A1A00012313400BD13B6B1B7A1A0019
:103060000223134005D13B6B1B7A1A000323134044
:1030700018D03B6B1B7A1E4A1B01D31808331B6800
:10308000002B0FD03B6B1B7A194A1B01D318083356
:103090001A68BB6A99693B6B1800904702E0C0460A
:1030A00000E0C0467B6B9B687B637B6B002B00D092
:1030B0005FE7104B1800104B98477B6818000F4BC8
:1030C000984700231800BD460EB080BDE968000097
:1030D000780A0020192D0000E480020085680000B5
:1030E000D48002006D2F020065050000D987000022
:1030F00078000020840A002041980000E967000061
:10310000F0B593B000AF786239626B467B613B6A81
:103110003B6400237B643B6C18006D4B98470600B2
:103120003B6C9B6818006B4B98470300F31868339F
:103130001A00013AFA63BB600022FA60B868F968C5
:103140000200520F0E00F600FE61FE691643FE619A
:103150000200D200BA613B6000227A603868796868
:103160000200520F0E00F50015430200D400073391
:10317000DB08DB006A46D31A9D466B460033BB630F
:10318000BA6B554B1000190036231A00534B984761
:10319000BC6B20004F4B98470300E218504B1000C7
:1031A000190002231A004D4B9847BA6B3B6C1B6801
:1031B000190010004B4B9847BC6B2000454B9847BB
:1031C0000300E218484B100019000E231A00434B6D
:1031D0009847BA6B3B6C9B6819001000414B9847AD
:1031E0003B6CDB68012B15D0022B21D0002B03D0C8
:1031F000C0467B699D4667E0BC6B2000354B984715
:103200000300E218394B100019000A231A00334B4F
:10321000984736E0BC6B20002E4B98470300E2181D
:10322000334B100019000B231A002C4B984728E051
:10323000BC6B2000274B98470300E2182D4B100071
:10324000190007231A00254B98472B4B984703007A
:103250007B64082320229446BC446344274A03CA63
:1032600003C3274B1800274B98470300082220214F
:103270008C46BC446244786C11685268224CA0476A
:10328000C046BA6B7B6A02211800204B98477B6CC2
:10329000002B17D0102320229446BC4463447A6C40
:1032A000110018001A4B9847102320229446BC4462
:1032B0006344786A19685A68164B98477B6C180003
:1032C000154B98477B699D46BD4613B0F0BDC0467F
:1032D000853A0000EF33020048800200372F0200D9
:1032E0008080020059330200EC800200FC80020062
:1032F0000881020014810200396A00002C8102005A
:103300001C810200C1690000396B0000D559000022
:10331000F5660000895D0000E967000090B58BB09C
:1033200000AF08243C19206061603B60FB1D1A70EF
:103330001423FB180822BA1803CA03C31423FB186A
:103340003A689A60FB1D1A781423FB18DA6014237C
:10335000F918064800230022054CA04703007B62B1
:103360007B6A1800BD460BB090BDC046013100001D
:10337000295F000090B591B000AF786039607B683C
:10338000BB63554B1B68002B02D101235B429FE0BE
:103390000C23FB18514A03CA03C30C23FB183868DB
:1033A00019685A684E4B984703007B637B6B002B70
:1033B00002D101235B428BE01423FB18494A03CA64
:1033C00003C31423FB18386819685A68444B98479C
:1033D00003003B633B6B002B02D101235B4277E090
:1033E0001C23FB18404A03CA03C31C23FB1838687C
:1033F00019685A683A4B98470300FB62FB6A002B36
:1034000002D101235B4263E00023FB630FE0FB6B0F
:10341000002B08DBFB6B0133FB63FB6B002B02DB38
:1034200002235B4254E0314B1800314B98473B6B11
:103430009B6929490022086849682E4CA047031E51
:10344000E5DBFB6A9B6918002B4B98470300BB62C6
:10345000BB6A1800294B984703007B627B6A002BEC
:103460002BDA0FE0FB6B002B08DBFB6B0133FB63FC
:10347000FB6B002B02DB02235B4229E01B4B180095
:103480001B4B98473B6B9B691349022208684968AC
:10349000184CA047031EE5DB19E0FB6B002B08DB93
:1034A000FB6B0133FB63FB6B002B02DB02235B42F4
:1034B0000EE00E4B18000E4B98473B6B9B6906497C
:1034C0000122086849680B4CA047031EE5DB002376
:1034D0001800BD4611B090BD7C0A00209880020003
:1034E000856800004081020050810200B80B000096
:1034F0002D9800001D33000089660000592F000040
:1035000090B5A3B002AF786039603B68FB67FB6F92
:103510001B689B6B1349144A0820381800930B0052
:103520006C21124CA0470823FA187B68012118006F
:103530000F4B98477B68242201219954FB6F19682F
:10354000FB6F5A687423FB1818000A4B98477423C2
:10355000FB18786819685A68074B9847C046BD46FB
:1035600021B090BD5881020094810200093202000E
:10357000D559000029960000895D000090B587B0FC
:1035800000AF786039600823FB187A681A60082356
:10359000FB183A685A600823FB1801229A60082336
:1035A000F918064800230022054CA04703007B6160
:1035B0007B691800BD4607B090BDC04601350000CC
:1035C000295F000080B588B000AFF860B9607A600C
:1035D000BB681800134B98470300FB61BA68FB688F
:1035E00011001800104B98470300BB61BB69002B0A
:1035F00001D1002311E0BA69FB68D31A7B617A69B3
:10360000F9687B681800094B98477B697A68D3187A
:1036100000221A70FB69BA69D3181800BD4608B0B9
:1036200080BDC046EF33020091340200372F020004
:1036300080B588B000AFF860B9607A601423FB18D9
:10364000180008231A0000210E4B98471423FA187B
:10365000B968FB6818000C4B98470300FB61FB69D5
:10366000002B01D1002308E01423FB181800074B9E
:10367000984702007B681A60FB691800BD4608B0D5
:1036800080BDC0466D2F0200C5350000632C0200CE
:1036900080B588B000AFF860B9607A601423FB1879
:1036A000180008231A0000210F4B98471423FA181A
:1036B000B968FB6818000D4B98470300FB61FB6974
:1036C000002B01D100230AE01423FB181022002153
:1036D0001800074B984702007B681A60FB691800C6
:1036E000BD4608B080BDC0466D2F0200C535000044
:1036F0005142020080B586B000AFF860B9607A60D0
:1037000000237B6110E07B695B001A00FB6898185E
:103710007B69BA68D3181B781A00074B1900074B4E
:1037200098477B6901337B617A697B689A42EADB5F
:10373000C046BD4606B080BDB0820200917B01004C
:1037400080B582B000AF0200BB1D1A80BB1D1B8874
:103750005BBA9BB21800BD4602B080BD80B582B096
:1037600000AF78607B681A067B681902FF231B0490
:103770000B401A437B68190AFF231B020B401A43B4
:103780007B681B0E13431800BD4602B080BD0000CD
:1037900080B582B000AF0200BB1D1A80BB1D1B8824
:1037A0001800034B984703001800BD4602B080BDC7
:1037B0004137000080B582B000AF78607B681800A8
:1037C000034B984703001800BD4602B080BDC046B9
:1037D0005D37000080B582B000AF78607B6818006C
:1037E000034B984703001800BD4602B080BDC04699
:1037F000B537000080B584B000AF786039607B6871
:10380000FB603B6800221A6002E0FB681B68FB60FB
:10381000FB68002B03D0FB681B68002BF5D1FB680D
:10382000002B03D0FB683A681A6001E03B687B60BC
:103830007B681800BD4604B080BD000080B584B030
:1038400000AF78600D4B1B68002B04D00B4B1B683E
:1038500014331A0000E000227B68143319001000B2
:10386000074B98470300FB60FB68143B1A00034BAF
:103870001A60C046BD4604B080BDC0468C0A002018
:10388000F537000080B500AF0A4B984703001800D9
:10389000094B9847094B984703001800064B984777
:1038A000074B984703001800034B9847C046BD4696
:1038B00080BDC046D93C00003D380000AD3E000050
:1038C000F53F000080B582B000AF78607B680822C9
:1038D00000211800024B9847C046BD4602B080BD8B
:1038E0006D2F020080B582B000AF78600A00FB1C2B
:1038F0001A707B681A78FB1C1B783F210B40DBB2E7
:103900009A4201D1002301E001235B421800BD4629
:1039100002B080BD80B584B000AF78600023FB604A
:103920000023BB60194B1B68002B03D0174B1B688F
:10393000143300E00023BB60144B1B68FB6015E0F0
:103940007B681A79FB6811001800114B9847031E19
:1039500010D00023FB60BB681B68BB60BB68002BFA
:1039600002D0BB68143B00E0FB68FB60BB68002B27
:10397000E6D100E0C046FB68002B02D0FB680433B0
:1039800000E000231800BD4604B080BD8C0A002072
:10399000E538000080B586B000AFF8603B1D1960C7
:1039A0005A60FB68002B17D0FB6818000C4B984737
:1039B0003B1D18000B4B984703007B617B69002B74
:1039C0000BD07B691B68002B07D07B691B68391DF6
:1039D000FA681000984700E0C046BD4606B080BDBA
:1039E000C53800001539000080B586B000AFF8601A
:1039F0003B1D19605A60FB68002B17D0FB6818004C
:103A00000C4B98473B1D18000B4B984703007B61FC
:103A10007B69002B0BD07B695B68002B07D07B692F
:103A20005B68391DFA681000984700E0C046BD4643
:103A300006B080BDC53800001539000080B584B0DF
:103A400000AF786039603B6818000C4B9847030062
:103A5000FB60FB68002B0DD0FB689B68002B09D036
:103A6000FB689B6839687A68100098473B681800C3
:103A7000034B9847C046BD4604B080BD15390000D1
:103A8000BD3B000080B582B000AF78607B68DB880A
:103A9000002B02D07B68DB880BE07B681B68002B67
:103AA00006D07B681B681800044B9847030000E0B1
:103AB00000231800BD4602B080BDC046EF330200AF
:103AC00080B584B000AF786039600823FB18180017
:103AD000224B98473B681B791A00402313402DD096
:103AE0003B68DA880823FB18DA803B68DB880133FF
:103AF00018001B4B984703001A000823FB181A6094
:103B00000823FB1818683B6819683B68DB881A00B3
:103B1000144B98470823FB181B680822BA18D28850
:103B20009B1800221A700823FB181B797E22524230
:103B30001343DAB20823FB181A7106E03B68082227
:103B4000B81819685A68084B98477B680822BA1851
:103B500003CA03C37868BD4604B080BDC538000001
:103B6000CD2E0200372F0200E939000080B582B067
:103B700000AF786039603B681B68002B02D10123DD
:103B80005B4212E07B681B68002B07D13B687868BA
:103B900019685A68074B9847002306E03A687B6823
:103BA00011001800044B984700231800BD4602B0CE
:103BB00080BDC04695390000013E000080B584B04C
:103BC00000AF78607B68002B1DD07B681B795BB2EF
:103BD000002B11DA7B6818000D4B98470300FB603F
:103BE000FB68002B08D0FB68DB68002B04D0FB6867
:103BF000DB687A68100098477B680822002118006B
:103C0000044B984700E0C046BD4604B080BDC046A6
:103C1000153900006D2F020080B582B000AF7860CA
:103C200039607B681B791A004023134015D07B68EC
:103C3000DA883B68DB889A420CD17B6818683B685D
:103C400019687B68DB881A000D4B9847031E01D169
:103C5000002310E001235B420DE07B681A683B689B
:103C60001B6819001000074B9847031E01D1002361
:103C700001E001235B421800BD4602B080BDC04692
:103C8000FD3302008F33020080B582B000AF786050
:103C900039603B681A687B681A607B6881221A71F8
:103CA0003B68DA887B68DA80C046BD4602B080BDDA
:103CB00080B582B000AF786039603B681A687B6875
:103CC0001A603B68DA887B68DA807B6801221A71A7
:103CD000C046BD4602B080BD80B500AF014B1800A4
:103CE000BD4680BDB800002080B582B000AF7860CE
:103CF00039603B68DA887B68DA803B681B795BB2A5
:103D0000002B08DB3B681A687B681A603B681A79ED
:103D10007B681A711CE03B681B791A004023134032
:103D20000BD03B681A683B68DB88190010000A4B0F
:103D3000984702007B681A6007E03B681B68180020
:103D4000064B984702007B681A607B6882221A71D2
:103D5000BD4602B080BDC04649340200B533020002
:103D600080B582B000AF786039603B681A687B68C4
:103D70001A603B68DA887B68DA807B6802221A71F5
:103D8000C046BD4602B080BD80B582B000AF78604D
:103D900039603B681A687B681A603B68DA887B6820
:103DA000DA807B6802221A713B681B795BB2002BB8
:103DB0000EDA7B681B79802252421343DAB27B68A9
:103DC0001A713B681B797F221340DAB23B681A7183
:103DD000C046BD4602B080BD80B582B000AF7860FD
:103DE0007B681B795BB2002B04DA7B681B681800C8
:103DF000024B9847C046BD4602B080BDE12E02008E
:103E000080B584B000AF786039600023FB60002388
:103E1000BB607B681B795BB2002B3FDA7B681B7948
:103E20001A004023134006D07B68DB881A00FB6829
:103E30009B18FB6008E07B681B681800194B9847CB
:103E40000200FB68D318FB603B681B791A00402313
:103E5000134006D03B68DB881A00BB689B18BB6028
:103E600008E03B681B6818000E4B98470200BB68CF
:103E7000D318BB607B681A68FB68D0183B681B6866
:103E8000BA681900084B98477B681A68F968BB68DC
:103E9000CB180133D31800221A7000E0C046BD468B
:103EA00004B080BDEF330200372F020080B500AFB1
:103EB000014B1800BD4680BDD000002080B582B007
:103EC00000AF786039603B681B681800074B984763
:103ED00002007B681A607B6884221A713B68DA886A
:103EE0007B68DA80C046BD4602B080BD1561000027
:103EF00080B582B000AF786039603B681A687B6833
:103F00001A603B68DA887B68DA807B6804221A7161
:103F1000C046BD4602B080BD80B582B000AF7860BB
:103F200039603B681A687B681A603B68DA887B688E
:103F3000DA807B6804221A713B681B795BB2002B24
:103F40000EDA7B681B79802252421343DAB27B6817
:103F50001A713B681B797F221340DAB23B681A71F1
:103F6000C046BD4602B080BD80B582B000AF78606B
:103F70007B681B681800034B9847C046BD4602B0DB
:103F800080BDC0465D68000080B500AF014B1800E1
:103F9000BD4680BDE800002080B582B000AF7860EB
:103FA00039603B681B79802252421343DAB23B6886
:103FB0001A713A687B6811001800034B9847C04695
:103FC000BD4602B080BDC046E93C000080B582B06D
:103FD00000AF786039603B681A687B681A603B689C
:103FE000DA887B68DA807B6803221A71C046BD4696
:103FF00002B080BD80B500AF014B1800BD4680BD4A
:104000000001002080B582B000AF00237B60002358
:104010007B6029E018497A6813005B009B18DB007D
:104020005B58002B1DD114497A6813005B009B1864
:10403000DB0001225A507A6813005B009B18DB00FA
:104040000D4A9B1804331422002118000B4B98478B
:104050007A6813005B009B18DB00074A9B18043347
:1040600006E07B6801337B607B68082BD2DD002390
:104070001800BD4602B080BD900A00206D2F0200DE
:1040800080B584B000AF78607B68043BFB60FB6860
:1040900000221A60C046BD4604B080BD80B584B021
:1040A00000AFF8603B1D19605A60FB683A1D1100B3
:1040B0001800064B9847031E01D1002301E001239D
:1040C0005B421800BD4604B080BDC046193C0000EC
:1040D00080B582B000AF78607B681800094B9847C4
:1040E0007B6808331800074B98477B68103304221D
:1040F00000211800044B984700231800BD4602B069
:1041000080BDC046C53800006D2F020082B080B56A
:1041100086B000AFF860381D0160426004222021A3
:104120008C46BC4462441360214B984703007B617A
:104130007B69002B02D101235B4232E07B691800CE
:104140001C4B98477B69083318001A4B98477869CD
:104150003B1D19685A68184B98477B69083318004B
:10416000042320229446BC44634419685A68124BC5
:104170009847FB681B68002B04D0FB681B68103352
:104180001A0000E000227B691033190010000B4B6D
:10419000984703003B613B69103B1A00FB681A60BB
:1041A00000231800BD4606B080BC08BC02B018470A
:1041B00005400000C538000095390000F5370000C3
:1041C00080B586B000AFF8603B1D19605A600023CF
:1041D0007B6100233B61FB68002B02D0FB6810333E
:1041E00000E000233B61FB687B6114E03B1D7869C4
:1041F00019685A680D4B9847031E10D000237B6145
:104200003B691B683B613B69002B02D03B69103B5B
:1042100000E07B697B613B69002BE7D100E0C04691
:104220007B691800BD4606B080BDC0469D400000B9
:1042300080B586B000AF78607B68002B03D07B68C8
:104240001B68002B02D101235B423DE000237B6110
:1042500000233B610023FB607B681B68002B03D0BD
:104260007B681B68103300E000233B617B681B68A0
:104270007B613B69002B20D03B691B68FB601CE025
:104280007B691800124B98477B6908331800104B64
:1042900098477B6918000F4B9847FB683B613B6967
:1042A000002B02D03B69103B00E000237B613B699F
:1042B000002B02D03B691B68FB603B69002BDFD100
:1042C0007B6800221A6000231800BD4606B080BD3E
:1042D000BD3B00008140000080B582B000AF786037
:1042E00039603A688023DB009A4202DD01235B4299
:1042F0001AE03B68002B02D18023DB003B607B6827
:104300000B4A002199527B680A4A002199523B6866
:1043100099B27A688023DB00D1527B68002B01D0F0
:10432000002301E001235B421800BD4602B080BDBE
:10433000040400000204000080B582B000AF786081
:104340007A688023DB00D25A7B6805495B5AD31A0E
:104350009BB2013B9BB21800BD4602B080BDC04677
:104360000204000080B582B000AF78607B68034A29
:104370009B5A1800BD4602B080BDC0460204000032
:1043800080B582B000AF78607B6800221A707B68CD
:10439000054A002199527B68044A00219952002362
:1043A0001800BD4602B080BD0204000004040000F5
:1043B00080B586B000AFF860B9607A607B68002B8A
:1043C00005D1BB6818002C4B984703007B60FB6845
:1043D00018002A4B984703001A007B689A4202DAB9
:1043E00001235B4243E0FB68254A9B5A1900FB68A6
:1043F000244A9B5AC818FA688023DB00D35A1A0053
:10440000214B110098470B007B61FA688023DB0089
:10441000D35A1A007B69D31A3B613A697B689A4286
:1044200012DAFA687B69D3183A69B9681800174B31
:104430009847F8683B69BA68D1187A683B69D31A1B
:104440001A00124B984707E0FA687B69D3187A681C
:10445000B96818000D4B9847FB680A4A9A5A7B685E
:104460009BB2D31899B2FB68064A995200231800F0
:10447000BD4606B080BDC046EF33020039430000A0
:1044800004040000020400002D160200372F020071
:1044900080B586B000AFF860B9607A60FB6818003C
:1044A0002C4B984703001A007B689A4202DA0123DA
:1044B0005B424AE0FA688023DB00D35A1900FB68AC
:1044C000254A9B5ACB1A7B617A697B689A4214DA37
:1044D000FB68FA682049525A99187A69BB68180033
:1044E0001E4B98477B69BA68D018F9687A687B696F
:1044F000D31A1A00194B984709E0FB68FA68164965
:10450000525A99187A68BB681800144B9847FB6890
:10451000114A9B5A1A007B68D018FA688023DB0086
:10452000D35A1A000E4B110098470B0099B2FB6842
:10453000094A9952FB680B4A9A5A7B689BB2D31A74
:1045400099B2FB68074A995200231800BD4606B08D
:1045500080BDC0466543000004040000372F020000
:104560002D1602000204000080B582B000AF786012
:1045700039603B68DB087A68D3181B7819003B6800
:104580000722134001229A4013000B401800BD4639
:1045900002B080BD80B582B000AF786039603B6802
:1045A000DB087A68D3183A68D20879688A181278D2
:1045B00051B23A680720024001209040020052B2F6
:1045C0000A4352B2D2B21A70C046BD4602B080BD94
:1045D00080B582B000AF786039603B68DB087A68EC
:1045E000D3183A68D20879688A18127852B23968B2
:1045F0000720014001208840010049B2C94349B267
:104600000A4052B2D2B21A70C046BD4602B080BD56
:1046100090B589B000AFF860B9607A603B603B6BE1
:10462000002B01DC002366E03A6B354B796B100000
:10463000984703001C003A6B324B796B1000984787
:104640000B1E01D0012300E00023E3183B6100238F
:10465000FB610023BB6101235B427B610023FB61A3
:1046600019E0FA69BB6811001800274B9847031E30
:1046700009D1BB690133BB61BA693B699A4207D171
:10468000FB697B610BE001235B427B610023BB6123
:10469000FB690133FB613B68FA699A42E1DB7B69A4
:1046A000002B01DA002326E07B695A1C3B69D31AF0
:1046B0001A00FB6811001800144B98477B695A1CBC
:1046C0003B69D31AFB6108E0FA69BB681100180066
:1046D0000E4B9847FB690133FB617B695A1CFB69F0
:1046E0009A42F1DC7B695A1C3B69D31A1A007B6B36
:1046F00053437A68D3181800BD4609B090BDC04630
:104700004D13020059140200694500009545000050
:1047100080B586B000AFF860B9607A603B603A68F7
:104720007B68D31A3B613B69002B33DB3A691C4B36
:10473000396A1000984703003B613A69FB68110031
:104740001800184B9847031E26D03A69FB681100E1
:104750001800154B984700237B613B697B6108E09B
:104760007A69BB68110018000F4B98477B690133C9
:104770007B617A69FB68110018000A4B9847031E99
:104780000BD17A69BB6811001800064B9847031ECD
:10479000E6D102E0C04600E0C046BD4606B080BD9E
:1047A0004D13020069450000D145000080B588B076
:1047B00000AFF860B9607A603B60BA6A7B68D31A70
:1047C0007B617B69002B01DA00233AE07A691F4B99
:1047D000F96A1000984703007B617A69FB68110051
:1047E00018001B4B9847031E01D1002329E000232A
:1047F000FB611A23FB1800221A807B69FB6109E028
:104800001A23FB181A881A23FB1801321A80FB6935
:104810000133FB61FA697B699A4207D0FA69FB6848
:10482000110018000A4B9847031E07D1FA69BB68AC
:1048300011001800064B9847031EE1D11A23FB18FC
:104840001B881800BD4608B080BDC0464D1302004D
:104850006945000090B589B002AFF860B9607A6030
:104860003B603C687A68B968F8683B6B0193FB6A07
:1048700000932300204CA04703007B617B69002B41
:1048800001D1002333E03C687A68B968F8683B6B73
:104890000193BB6A00932300184CA04703001A0041
:1048A0003B6B5A43FB6A9A420FDC3C687A68B968F2
:1048B000F8683B6B0193BB6A009323000F4CA04741
:1048C00003001A003B6B534300E0FB6A3B613A690B
:1048D000B96A7B6918000A4B9847BC6A7A68B9685C
:1048E000F8683B6B00932300064CA0477B691800D7
:1048F000BD4607B090BDC04611460000AD47000060
:10490000372F02001147000080B582B000AF7860F9
:104910007B681B68002B01DA002300E001231800EC
:10492000BD4602B080BD80B582B000AF78600A009D
:10493000FB1C1A70FB1C1A787B681A73C046BD46B4
:1049400002B080BD80B582B000AF786039603A684F
:104950007B6803495A50C046BD4602B080BDC04680
:104960001C04000090B585B000AF78600A00BB1C45
:104970001A807B68BB60BB68224A9B581800224B98
:10498000984703001A00BB1C1B88934208D9BB68D8
:104990001C4A9B58BC1C18001B4B984703002380E3
:1049A00001235B42FB60BB685B7B002B0AD0BB68CA
:1049B0001868BB1C1A88154B1900154B9847030043
:1049C000FB6009E0BB681868BB1C1A880F4900230C
:1049D000104CA0470300FB60FB68002B0CDDBB689C
:1049E000084A9B58FA68094918000B4B9847031E60
:1049F00002DA01235B4200E0FB681800BD4605B007
:104A000090BDC0461404000039430000680B00202C
:104A10002191000051900000B143000090B587B093
:104A200000AFF860B960BB1D1A80FB683B61BB68D2
:104A3000002B1DD1BB1D1B88002B08D13B69224ACE
:104A40009B58BC1D1800214B9847030023803B69ED
:104A50001D4A9858BB1D1A881D4B19001D4B9847BD
:104A6000031E02DA01235B422AE0194BBB600AE015
:104A7000BB1D1B88002B06D1BB681800164B98473E
:104A80000200BB1D1A8001235B427B613B695B7B9B
:104A9000002B0AD03B691868BB1D1A88BB68190037
:104AA0000E4B984703007B6109E03B691868BB1D0A
:104AB0001A88B96800230A4CA04703007B617B6910
:104AC0001800BD4607B090BD140400006543000007
:104AD000680D002091440000EF3302004D9100006A
:104AE000C58F000080B584B000AF78607B680E335E
:104AF0001A007B6817495A507B68164A9B58002B4E
:104B000002D101235B4221E07B68124A9A5880233C
:104B1000DB0019001000104B98470300FB60FB6896
:104B2000002B01DAFB6811E07B68012252421A6017
:104B30007B6801221A737B6800225A737B68074ADC
:104B40005A607B68064A0021995000231800BD4630
:104B500004B080BD14040000D942000010270000FA
:104B60001C04000080B582B000AF786039603A68FC
:104B70007B6811001800034B984703001800BD46DE
:104B800002B080BD894B000090B58FB002AF786055
:104B900039607B6800229A607A688323DB00396879
:104BA000D1507B68654A9B58002B02D001235B42A1
:104BB000BFE07B68624A9B58002B02D101235B4215
:104BC000B7E07B685E4A9B5818005E4B98477B684D
:104BD0001B68002B00DBABE00622012102205A4BB0
:104BE00098470300FB62FB6A002B01DAFB6AA0E036
:104BF0007B68FA6A1A603B6810331A001023FB18AE
:104C000011001800514B98471023FB181B6818001F
:104C10004F4B98470300BB621023FB1818004D4B05
:104C20009847BB6A002B02D101235B4281E0182325
:104C3000FB18102200211800474B98471823FB1837
:104C400002225A70BB6A5B691A681823FB185A6003
:104C50003B681B8C1800414B984703001A0018232F
:104C6000FB185A807B6858683D4BFA2291009847A0
:104C700003001A000823FB181A607B685868394B38
:104C8000FA22910098470B001A00FA239B00534325
:104C90001A000823FB185A607B6818680823FA1862
:104CA000314C32490823009313002200304CA047B6
:104CB0007B681B681822B918102218002D4B9847E2
:104CC0000300FB62FB6A002B0BDA7B681B68180091
:104CD000294B98477B68012252421A6001235B42AC
:104CE00027E03B6823229B56002B13D07B680122D0
:104CF0005A737B681B681800204B9847031E09DA1B
:104D00007B6801221A737B6818001D4B98470123AA
:104D10005B420EE07B681B6818001A4B9847031E25
:104D200006DA7B681800164B984701235B4200E0C7
:104D300000231800BD460DB090BDC0461C04000005
:104D40001404000081430000618F0000C13A00009C
:104D5000258F0000BD3B00006D2F02009137000041
:104D60004D1302005914020006100000FF0F00004E
:104D7000F5900000A5900000A98F00000D910000A3
:104D8000894D0000BB87000080B582B000AF78601D
:104D90007B681800034B984703001800BD4602B01B
:104DA00080BDC046A94D000080B582B000AF7860DC
:104DB0007A688323DB000021D1507B68164A9B5818
:104DC000002B02D001235B4222E07B681B68002B92
:104DD00002DA01235B421BE07B681B7B002B01D1C5
:104DE000012315E07B685B7B002B07D07B681B6889
:104DF00018000A4B98477B6800225A737B681B682F
:104E00001800074B98477B68012252421A60002322
:104E10001800BD4602B080BD1C0400007591000062
:104E2000A98F000090B58BB002AFF860B9607A60CE
:104E30007B6818007A4B9847BB681968BB689B6908
:104E4000784A794C794800930B002100784CA047B0
:104E500003007B617B69002B01DA7B69DCE0FB6886
:104E6000744A9B587A6971491800734B9847031E1E
:104E700002DA01235B42CFE0BB681B6C002B00D140
:104E800082E06A4B3B613A696C4B100019000223C7
:104E90001A006B4B98470023FB610023BB61BB6882
:104EA0001B6C002B03D0BB681B6C103300E000238D
:104EB000BB61BB681B6CFB615DE0FB691B68180094
:104EC000604B984703001C00FB699B6818005D4B12
:104ED00098470300E318DC1CFB68564A9B581800EF
:104EE000594B984703009C4249DCFB691A683B69AF
:104EF00011001800554B98473B691800514B9847D3
:104F000003001A003B699A18514B10001900022344
:104F10001A004B4B9847FB699A683B6911001800CF
:104F20004A4B98477B681800474B984703000D3B56
:104F30001C003B691800434B984703009C4220D358
:104F400039697B68002218003B4B9847031E1ADB27
:104F50003A69404B1000190002231A00384B984759
:104F6000BB691B68BB61BB69002B02D0BB69103BEE
:104F700000E0FB69FB61BB69002B9ED104E0C046E9
:104F800002E0C04600E0C04633497B6800221800BA
:104F9000294B984703007B617B69002B01DA7B6911
:104FA0003AE0FB680022002118002C4B98470300D0
:104FB0007B617B69002B01DA7B692DE0BB68196995
:104FC000BB681B8C264A184C184800930B00210024
:104FD000174CA04703007B617B69002B01DA7B69DA
:104FE0001AE0FB68134A9B587A6910491800124B63
:104FF0009847031E02DA01235B420DE0FB680022A2
:1050000000211800154B984703007B617B69002B3A
:1050100001DA7B6900E000231800BD4609B090BDAD
:1050200081430000B8820200FF01000014600020EC
:105030000932020014040000B1430000C0820200E3
:10504000372F0200EF3302003943000059330200CA
:10505000C4820200C8820200CC8202001D4A000005
:10506000D882020090B58BB002AFF860B9607A6068
:105070007B681800734B9847BB685B6C002B00D1B2
:105080007CE0BB68443318006F4B9847031E00D187
:1050900074E0BB6824229B56002B08D06B49FB6848
:1050A000002218006A4B98470300FB612EE0FB6862
:1050B000684A9B581800684B984703001C00BB685F
:1050C00044331800604B98470300644A6448210049
:1050D000644CA0470300FB61FB69002B01DAFB690C
:1050E000ABE0FB685B4A9B58FA695D4918005E4B70
:1050F0009847031E02DA01235B429EE0FB68002210
:1051000000211800524B98470300FB617B68180090
:105110004C4B9847FB69002B01DAFB698DE0FB687B
:105120004C4A9B5818004C4B984703001900BB6829
:105130005B6B4E4A4A484B4CA0470300FB61FB683F
:10514000444A9B58FA6946491800474B9847031E42
:1051500002DA01235B4270E0FB69002B01DAFB6994
:105160006BE0FB68002200211800394B98470300D0
:10517000FB61FB69002B01DAFB695EE00023BB6188
:1051800000237B61BB689B6A002B03D0BB689B6AD2
:10519000103300E000237B61BB689B6ABB6142E087
:1051A0007B681800274B9847FB682A4A9B581800D1
:1051B000294B984703001C00BB691968BB699B68B1
:1051C0002B4A274800930B002100264CA0470300E0
:1051D000FB61FB69002B01DAFB692EE0FB681D4ACD
:1051E0009B58FA691E4918001F4B9847031E02DAA4
:1051F00001235B4221E0FB68002200211800144BD0
:1052000098470300FB61FB69002B01DAFB6914E09E
:105210007B691B687B617B69002B02D07B69103B3B
:1052200000E0BB69BB617B69002BB9D11149FB6808
:1052300002221800064B984703001800BD4609B02B
:1052400090BDC04681430000853A0000E88202001C
:105250001D4A0000140400003943000008830200C6
:105260001460002009320200B143000020830200D4
:10527000348302004083020090B58BB000AF7860A9
:1052800039603B685B6C002B67D03B684433180087
:10529000354B9847031E60D03B6824229B56002B59
:1052A00049D03B685B6CFB613B68443318002E4B74
:1052B000984703007B6200233B6235E07B6A8022D3
:1052C0009200934201DD80239B00BB61BA692749AC
:1052D0000823FB181800264B984703007B617B6965
:1052E0009AB20823F9187B681800224B9847BB69CB
:1052F000002B08D03B6AFA69D118BB699AB27B6867
:1053000018001C4B98473A6ABB69D3183B627A6A0B
:10531000BB69D31A7B6218497B6802221800154BBF
:105320009847BB69002B03D07B6A002BC6DA00E0EC
:10533000C046002313E03B685C6C3B6844331800B4
:10534000094B984703009AB27B6821001800094B6B
:10535000984703003B613B6901E001235B42180071
:10536000BD460BB090BDC046853A000044830200A4
:10537000917B01001D4A00004083020080B586B089
:1053800000AFF860B9607A6000237B6130E0FB68B1
:10539000224A98587B69BA68D31801221900204B19
:1053A0009847031E0DD17B6901337B617B69BA6825
:1053B000D31800221A707A697B689A4218D10023A8
:1053C00028E0FB68154A9B581800164B98470300C5
:1053D000282B0BD9FB6828211800134B9847030092
:1053E0003B613B69002B03DA002313E0002311E04B
:1053F0007B69012BCBDD7B69023BBA68D3180B4973
:10540000022218000A4B9847031EC0D17B69023B59
:10541000BA68D3181800BD4606B080BD1404000059
:1054200091440000394300006549000040830200B8
:10543000FD33020080B584B000AF786039607B68CE
:10544000264A9B581800264B98470023FB60802370
:10545000DA0024497B681800234B98470300FB605F
:10546000FB68002B02D101235B4232E0FA681D4B3E
:10547000D31A092B04DCFB6800221A700023FB609E
:10548000FB68002BE3D0FB6800221A70174A154B0B
:1054900011001800164B98470300BB60BB68002B37
:1054A00002D101235B4214E0BB6809333A68114919
:1054B0001800114B98470300BB60BB68002B02D15A
:1054C00001235B4205E03B681B881A007B689A60F9
:1054D00000231800BD4604B080BDC046140400007F
:1054E00081430000680F00207D5300004C830200C0
:1054F00091340200588302003136000080B586B036
:1055000000AF7860396000233B6100237B6150E08D
:105510003A69304B9A4202D100237B6155E02E4A12
:105520002E492C4B18002E4B98470300FB60FB685C
:10553000002B03D101235B427B6146E0294A2A49C3
:10554000FB681800264B98470300FB60FB68002BA4
:1055500003D101235B427B6137E0244A1E4B1100DB
:105560001800234B9847031E08D11E4B1800214BEF
:10557000984703001A003B685A601AE01E4A164B0F
:10558000110018001A4B9847031E12D11B4A154BE5
:1055900011001800164B9847031E07D0184A114BEC
:1055A00011001800124B9847031E02D13B680122DC
:1055B0005A808023DA0007497B681800114B98470E
:1055C00003003B613B69002BA2D17B691800BD46FB
:1055D00006B080BD68130020681700205C830200BD
:1055E000C5350000E81700204083020060830200F8
:1055F0008F330200632C0200708302008483020058
:105600008C8302007D53000080B586B000AF7860C7
:1056100039600023FB608023DA0011497B681800A1
:10562000104B984703007B617B69002B02D101235B
:105630005B4211E00C23FA180B49094B18000B4B85
:10564000984703003B613B69002B04D10023FB60BA
:1056500001235B4200E0FB681800BD4606B080BD38
:10566000E81900207D5300004083020091360000BD
:1056700090B58BB000AF7860396000237B62002367
:105680003B623B685B88002B08D03A687B6811005E
:105690001800444B984703007B6202E03B685B685C
:1056A0007B627B6A002B00D177E07B6A002B00DAFB
:1056B00073E060E07B6A80229200934201DD8023E8
:1056C0009B00BB611CE0BB699CB27B68364A9B585F
:1056D0001800364B98470300E31A9AB27B68110012
:1056E0001800334B984703007B617B69002B07DA76
:1056F0003B6A5A1C3A62022B02DD01235B424DE0F9
:105700007B68294A9B581800284B984703001A00C9
:10571000BB699A42D7DB7B68234A9B58BA69254903
:105720001800254B9847031E02DA01235B4235E03F
:105730000C23FB181F4A1A600C23FB18C3221A7192
:10574000BB699AB20C23FB18DA800C23FB1838686B
:1057500019685A68194B9847031E08DA7B68124A81
:105760009B581800164B984701235B4216E07A6A53
:10577000BB69D31A7B627B6A002B9BD13B685B8839
:10578000002B09D080239A000A497B6818000D4B32
:1057900098470300FB6174E7C04600231800BD462C
:1057A0000BB090BD095600001404000065430000D2
:1057B000654900001460002091440000B95E0000BB
:1057C000814300007D53000080B582B000AF786057
:1057D00039603A687B6811001800034B9847030052
:1057E0001800BD4602B080BDED57000080B584B002
:1057F00000AF786039607A688323DB00D358FB60A0
:10580000FB68002B02D101235B4278E0FB684C333C
:105810001A003B68110018003B4B98477B683B4AD5
:105820009A58F9687B681800394B9847031E02DACA
:1058300001235B4263E07B68344A9A58F9687B68CD
:105840001800344B9847031E02DA01235B4256E0EE
:10585000FB685B6C002B0AD0FA687B6811001800AB
:105860002D4B9847031E02DA01235B4247E07B6819
:10587000264A9B581800294B98473A687B681100C4
:105880001800274B98470300BB60BB68002B02DA67
:1058900001235B4233E03B6800229A603B680C3393
:1058A0001422002118001F4B98473B682033082220
:1058B000002118001B4B98473B6800225A803B6828
:1058C00000221A633A687B6811001800164B98474B
:1058D0000300BB60BB68002B02DA01235B420EE0D1
:1058E0003A687B6811001800104B98470300BB60B2
:1058F000BB68002B02DA01235B4200E000231800A2
:10590000BD4604B080BDC0462D5E000014040000FA
:10591000254E0000655000007952000081430000D0
:10592000355400006D2F0200FD5400007156000038
:1059300080B582B000AF78607B68002B07DB7B68A6
:10594000042B04DC044B7A689200D35800E0002357
:105950001800BD4602B080BD1801002080B584B09B
:1059600000AF786039600023FB600FE00C4BFA68F1
:105970009200D1583A687B6818000A4B9847031E7A
:1059800001D1FB6807E0FB680133FB60FB68012B7A
:10599000ECDD01235B421800BD4604B080BDC0466B
:1059A0002C010020FD33020080B582B000AF78608A
:1059B0007B68002B07DB7B68012B04DC044B7A68D7
:1059C0009200D35800E000231800BD4602B080BD0D
:1059D0002C01002090B58FB000AFF860B9607A60FC
:1059E000FB68222200219954FB6818007B4B9847E2
:1059F000FB6808331800794B9847FB681033180090
:105A0000764B9847FB6818331800744B9847FB682F
:105A100044331800714B9847FC68BB681800704B02
:105A2000984702001423FB181A601423FB188122E4
:105A30001A71BB6818006A4B984703001800694B3D
:105A4000984703009AB21423FB18DA801423FB183A
:105A500019685A682000644B9847644A7B681100B3
:105A60001800634B984703007B637B6B002B04D1CA
:105A7000FB68222201219954ADE07A6B7B68D21A2F
:105A80007B68110018005B4B984703003B63FB6881
:105A900008331C003B6B1800574B984702001C232F
:105AA000FB181A601C23FB1881221A713B6B18002B
:105AB000514B9847030018004A4B984703009AB28D
:105AC0001C23FB18DA801C23FB1819685A68200075
:105AD000454B98473B6B59B2FB68232299547B6B2B
