:020000040010EA
:1020000000D8FF3F494B1200854B1200874B12004E
:10201000894B12008B4B12008D4B12000000000008
:10202000000000000000000000000000E91812009D
:10203000914B120000000000531912008919120080
:102040001D37120089381200974B1200B13112006F
:10205000974B1200974B1200B5231200974B1200BA
:10206000974B1200974B1200974B1200974B1200A0
:10207000974B1200974B1200974B1200974B120090
:10208000974B1200974B1200974B1200974B120080
:1020900000D8FF3F494B1200854B1200874B1200BE
:1020A000894B12008B4B12008D4B12000000000078
:1020B000000000000000000000000000E91812000D
:1020C000914B1200000000005319120089191200F0
:1020D0001D37120089381200974B1200B1311200DF
:1020E000974B1200974B1200B5231200974B12002A
:1020F000974B1200974B1200974B1200974B120010
:10210000974B1200974B1200974B1200974B1200FF
:10211000974B1200974B1200974B1200974B1200EF
:1021200010B5054C237833B9044B13B10448AFF311
:1021300000800123237010BD5443FF3F00000000C6
:1021400024041300084B10B51BB108490848AFF32D
:1021500000800848036803B910BD074B002BFBD073
:10216000BDE81040184700BF000000005843FF3F83
:10217000240413005443FF3F0000000000B583B067
:102180000190019802F02EF80346184603B05DF85E
:1021900004FB00BF00B583B001F0A4FE0190012351
:1021A000184603B05DF804FB00B585B001901848EF
:1021B00002F098FBFFF7EEFF0346002B21D001F061
:1021C00091FE0390039B03F5807318460AF02EFCE2
:1021D0000346002B15D0039B03F580731B78002B5F
:1021E0000FD0039B03F5807319460A4802F07AFB6F
:1021F000039B03F580731946019809F09FFE0023A5
:1022000001E04FF0FF33184605B05DF804FB00BF56
:1022100020CC120038CC120000B5ADF5057D01AB25
:102220001860134802F05EFB01F05CFE014603AB50
:102230004FF40072184624F02EFD01AB1B681A699A
:1022400003AB03F580731146184626F085FB03ABFC
:102250004FF40071184601F04FFE839083990548B2
:1022600002F040FB00BF0DF5057D5DF804FB00BFEB
:1022700050CC120064CC120000B585B001901E480D
:1022800002F030FBFFF786FF0346002B2DD001F054
:1022900029FE0390039B002B05D1184802F022FB76
:1022A0004FF0FF3323E0039B03F5A07318460AF0B9
:1022B000BDFB0346002B05D0039B03F5A0731B78E1
:1022C000002B02D14FF0FF3311E0039B03F5A07305
:1022D00019460B4802F006FB039B03F5A073194651
:1022E000019809F079FA002301E04FF0FF33184616
:1022F00005B05DF804FB00BF74CC120088CC12005E
:102300009CCC120000B5ADF5037D01AB186001F067
:10231000E9FD014602AB4FF40072184624F0BBFC05
:1023200001AB1B68DA6802AB03F5A07311461846CF
:1023300026F012FB02AB4FF40071184601F0DCFDF1
:1023400000BF0DF5037D5DF804FB00BF00B585B04F
:1023500001900023039303AB1946019801F092FF0B
:102360000346002B01DA00231DE0039B104A136093
:10237000104B0F4A1A600F4B00225A600E4A019B05
:1023800013600D4B0D4A5A600B4B02229A600A4BA8
:102390000422DA60084B074A1A61074B1B691B6865
:1023A000054A5361044B184605B05DF804FB00BFB5
:1023B0007043FF3F7443FF3F7C43FF3F9443FF3F25
:1023C00000B585B0039002910192019A0299039899
:1023D00001F070FF0346184605B05DF804FB00BF2E
:1023E00000B583B00190019801F0D6FF00BF03B0A3
:1023F0005DF804FB00B585B0039002910192009353
:10240000019A0299039801F0F9FF0346184605B0B6
:102410005DF804FB00B587B0059004910392029328
:10242000099B0093089B039A0499059802F03EF8D3
:102430000346184607B05DF804FB00BF00B585B041
:102440000390029101920093019A0299039802F07D
:1024500001F80346184605B05DF804FB00B587B0E7
:102460000590049103920293099B0093089B039AA1
:102470000499059802F06CF80346184607B05DF819
:1024800004FB00BF00B585B0039002910192019A50
:102490000299039802F0BEF80346184605B05DF8AD
:1024A00004FB00BF00B587B005900491039202932E
:1024B000089B0093029B039A0499059802F0EAF89E
:1024C0000346184607B05DF804FB00BF10B586B0A0
:1024D000019000910CF058F90590009B0493019B2A
:1024E000DB6818460CF026F903461A46224905987F
:1024F0000CF0ACF9049B1B68184622F0EDFE034675
:102500000C46184621460CF025F903461A461B498D
:1025100005980CF09BF9049B5B68184622F0EEFED0
:1025200003460C46184621460CF014F903461A4699
:10253000134905980CF08AF9049B9B68184622F011
:10254000CBFE03460C46184621460CF003F9034621
:102550001A460C4905980CF079F905980CF002F828
:1025600003900399084802F0BDF905980CF026F88D
:10257000039B184606B010BDC8CC1200D4CC120084
:10258000DCCC1200E4CC1200ECCC120000B583B01D
:102590000190074A019B1A600023002B02D001988A
:1025A00022F001FB019B184603B05DF804FB00BF5D
:1025B00070D0120000B583B001900198FFF7E6FFDC
:1025C000019822F0F0FA019B184603B05DF804FB75
:1025D00000B583B00190074A019B1A600023002BCD
:1025E00002D0019822F0DFFA019B184603B05DF893
:1025F00004FB00BFA8FA120000B583B00190019857
:10260000FFF7E6FF019822F0CEFA019B184603B0CF
:102610005DF804FB00B583B00190019B14331846AC
:1026200008F030FC019B1846FFF7D2FF019B1846CB
:1026300003B05DF804FB00BF10B582B00190094AF9
:10264000019B1A60019B1C1D0021204603F01EFC0B
:1026500004F184030121184603F018FC019B18467D
:1026600002B010BD60D0120000B585B001900B46DD
:102670008DF803309DF8032013465B0113449B0043
:10268000019A13440433184603F080FC0390039B23
:10269000002B06D00399244802F024F94FF0FF33B1
:1026A0003DE0224802F01EF99DF8032013465B012D
:1026B00013449B00019A13440433184603F0F2FFBD
:1026C00003460393039B012B03D1194802F00AF937
:1026D00002E0184802F006F99DF8032013465B015A
:1026E00013449B00019A134404330921184603F054
:1026F000F1FC0390039B002B06D003990E4802F0D7
:10270000F1F84FF0FF330AE00C4802F0EBF89DF8C7
:10271000033003221946019800F062F80346184678
:1027200005B05DF804FB00BFFCCC120044CD1200E4
:1027300080CD1200C8CD1200E8CD120044CE1200A8
:1027400010B582B00190134A019B1A6000210198D4
:1027500000F030F80121019800F02CF8019B0433BF
:10276000002B0CD0019B043303F58474019B0433CC
:102770009C4204D0843C2046FFF74CFFF6E7002340
:10278000002B02D0019822F00EFA019B184602B0ED
:1027900010BD00BF60D0120000B583B00190019859
:1027A000FFF7CEFF019822F0FEF9019B184603B017
:1027B0005DF804FB00B583B001900B468DF8033043
:1027C0009DF8032013465B0113449B00019A1344B8
:1027D0000433184603F020FE00BF03B05DF804FB8D
:1027E00000B585B001900B468DF8033013468DF887
:1027F00002309DF8032013465B0113449B00019AAD
:10280000134404339DF802201146184603F09CFC43
:102810000390039B002B06D00399074802F062F84F
:102820004FF0FF3303E0054802F05CF80023184640
:1028300005B05DF804FB00BF94CE1200E4CE120098
:1028400010B586B003900B4601928DF80B309DF8C1
:102850000B2013465B0113449B00039A13441C1D79
:10286000019823F08BF903461946204603F06CFDCE
:102870000590059B002B07D0059A0199064802F0A8
:1028800031F84FF0FF3304E00199044802F02AF8D0
:102890000023184606B010BDACCF1200F0CF1200D6
:1028A00010B582B00190054C054B9C4204D0183CF9
:1028B000204622F0CCF9F7E702B010BD3045FF3FCB
:1028C000B043FF3FF0B589B003900291039B012B09
:1028D00040F08D80029B4FF6FF72934240F087805C
:1028E00004AB184622F074F904AB1A464149424839
:1028F00022F0D8F904AB184622F06BF93F4A404960
:102900003D4822F04BF93F4B07241E46B4F1FF3FF0
:102910000ED0334601251F46B5F1FF3F05D038469E
:1029200022F08EF91837013DF6E73036013CEDE72D
:10293000324A3549002022F031F905AB184622F021
:1029400047F905AB1A462B49304822F0ABF905ABE5
:10295000184622F03EF9294A29492C4822F01EF94E
:1029600006AB184622F034F906AB1A46214928482E
:1029700022F098F906AB184622F02BF91F4A20499D
:10298000234822F00BF907AB184622F021F907ABD8
:102990001A4618491F4822F085F907AB184622F05D
:1029A00018F9164A16491B4822F0F8F84FF0FF3381
:1029B0000093102340222021174821F0F7FD0F4AF1
:1029C0001649154822F0EAF8002302220121144892
:1029D00021F036FD094A1349114822F0DFF8124868
:1029E0001CF002FD054A11490F4822F0D7F800BF3C
:1029F00009B0F0BD54D012009843FF3F0040FF3FA4
:102A00004F4C1200B043FF3FA12810003045FF3F5C
:102A10004845FF3F6045FF3F7C45FF3FD125100003
:102A20009045FF3F312A1000E845FF3F71F4110047
:102A300000B583B001900E4A019B1A600D4A019BBC
:102A40001A640D4A019B5A64019B4033184621F0D9
:102A500077FE019B1846FFF799FD0023002B02D05B
:102A6000019822F0A0F8019B184603B05DF804FB22
:102A70004CFA120064FA120098FA1200A0F1400019
:102A8000D6E700BFA0F14400D2E700BF00B583B095
:102A900001900198FFF7CCFF019822F084F8019B88
:102AA000184603B05DF804FBA0F14000EEE700BF5C
:102AB000A0F14400EAE700BF08B54FF6FF7101201E
:102AC000FFF700FF08BD00BF00B583B00190019B78
:102AD000184621F0CFFF074A019B1A60019B18336B
:102AE0000021184600F00AF9019B184603B05DF872
:102AF00004FB00BF08FB120000B583B001900A4A36
:102B0000019B1A60019821F0CDFE019B184621F02F
:102B1000E5FF0023002B02D0019822F044F8019B2E
:102B2000184603B05DF804FB08FB120000B583B043
:102B300001900198FFF7E0FF019822F034F8019B23
:102B4000184603B05DF804FB00B585B00390039808
:102B50004FF0FF33009310234022202121F026FD67
:102B6000039B14331846FFF7AFFF039B443318460B
:102B7000FFF7AAFF039B184605B05DF804FB00BFF2
:102B800000B583B000238DF80730174801F0AAFE86
:102B90000DF107031946154804F0E2FA9DF80730D5
:102BA0001946134801F09EFE00238DF807300DF101
:102BB000070319460D4804F0E1FA9DF8073019465D
:102BC0000C4801F08FFE00238DF80730074804F011
:102BD000A5FC14201FF04EFA044804F08FFC00BF3F
:102BE00003B05DF804FB00BF78D01200FC45FF3F46
:102BF00094D01200A4D0120082B00190034A019B2D
:102C00001A60019B184602B0704700BFE4D0120062
:102C100000B583B00190074A019B1A600023002B86
:102C200002D0019821F0BFFF019B184603B05DF868
:102C300004FB00BFE4D0120000B583B001900198FE
:102C4000FFF7E6FF019821F0AEFF019B184603B0A5
:102C50005DF804FB00B583B001900D490D4804F008
:102C600039FE0346002B14BF01230023DBB2002BE7
:102C700005D0094801F036FE4FF0FF3303E0054868
:102C800004F050FD0023184603B05DF804FB00BFBC
:102C9000812B1000FC45FF3FB4D0120000B585B079
:102CA0000190009101210C4804F048FC009B19465A
:102CB000094804F0DBFC084804F020FC064804F056
:102CC0004BFD034603930399044801F00BFE0023D8
:102CD000184605B05DF804FBFC45FF3FCCD0120060
:102CE00000B583B00190044804F018FC0023184696
:102CF00003B05DF804FB00BFFC45FF3F00B583B0A7
:102D0000019000910099019800F006F8019B184687
:102D100003B05DF804FB00BF82B001900091019BFD
:102D2000009A1A60019B00225A6100BF02B07047EE
:102D300010B582B00190054C054B9C4204D0183C64
:102D4000204621F084FFF7E702B010BD3045FF3F79
:102D5000B043FF3F00B583B00190019B4433184658
:102D6000FFF7CAFE019B14331846FFF7C5FE019B0F
:102D70001846FFF72DFC019B184603B05DF804FBD5
:102D8000F0B589B003900291039B012B40F0958030
:102D9000029B4FF6FF72934240F08F8004AB1846BF
:102DA00021F016FF04AB1A464549464821F07AFF48
:102DB00004AB184621F00DFF434A4449414821F035
:102DC000EDFE434B07241E46B4F1FF3F0ED03346C1
:102DD00001251F46B5F1FF3F05D0384621F030FFF1
:102DE0001837013DF6E73036013CEDE7364A394900
:102DF000002021F0D3FE05AB184621F0E9FE05AB1B
:102E00001A462F49344821F04DFF05AB184621F0F2
:102E1000E0FE2D4A2D49304821F0C0FE06AB184691
:102E200021F0D6FE06AB1A4625492C4821F03AFF80
:102E300006AB184621F0CDFE234A2449274821F04D
:102E4000ADFE07AB184621F0C3FE07AB1A461C497E
:102E5000234821F027FF07AB184621F0BAFE1A4A93
:102E60001A491F4821F09AFE4FF0FF3300931023B8
:102E7000402220211B4821F099FB134A1A49194886
:102E800021F08CFE002302220121184821F0D8FAFB
:102E90000D4A1749154821F081FE16481CF0A4FA86
:102EA000094A1549134821F079FE1448FFF74CFEF2
:102EB000054A1349114821F071FE00BF09B0F0BD69
:102EC000D8D012009843FF3F0040FF3F4F4C120004
:102ED000B043FF3F312D10003045FF3F4845FF3FD5
:102EE0006045FF3F7C45FF3FD12510009045FF3FE7
:102EF000312A1000E845FF3F71F41100FC45FF3F07
:102F0000552D100008B54FF6FF710120FFF738FF6F
:102F100008BD00BF00B585B0039003984FF0FF33A4
:102F2000009310234022202121F040FB039B03F15A
:102F300014004FF0FF3300932A230422082107F0E6
:102F4000F1FD039B184605B05DF804FB00B583B0A6
:102F50000190019B1433184607F094FF019B18461B
:102F6000FFF736FB019B184603B05DF804FB00BF7A
:102F700000B583B00190064A019B1A60019B04339F
:102F80001846FFF7C7FF019B184603B05DF804FB26
:102F90006CD6120000B583B001900D4A019B1A60F7
:102FA0000121019800F0CEF80221019800F0CAF842
:102FB000019B04331846FFF7C9FF0023002B02D002
:102FC000019821F0F0FD019B184603B05DF804FB69
:102FD0006CD6120000B583B001900198FFF7DAFFBC
:102FE000019821F0E0FD019B184603B05DF804FB59
:102FF00000B585B00190019B002283F87C20019BE5
:103000000433184601F09AFE0390039B002B06D070
:1030100003991B4801F066FC4FF0FF332CE0194880
:1030200001F060FC019B0433174A1849184602F06E
:103030001BF80390039B002B06D00399144801F062
:1030400051FC4FF0FF3317E0124801F04BFC019B9D
:1030500004330121184601F00DFF0390039B002B60
:1030600006D003990C4801F03DFC4FF0FF3303E01C
:103070000A4801F037FC0023184605B05DF804FB50
:10308000ECD0120020D112000000C04000003442F9
:1030900048D1120088D11200BCD1120010D2120007
:1030A00000B585B001900B468DF80330019B0433C9
:1030B0009DF803201146184602F076FB0390039B0F
:1030C000002B06D003991B4801F00CFC4FF0FF3396
:1030D0002CE0194801F006FC019B93F87C30002B92
:1030E00012D1019B0433184602F002F90390039BAE
:1030F000002B06D00399114801F0F4FB4FF0FF3389
:1031000014E00F4801F0EEFB019B93F87C305AB2BB
:103110009DF80330012B01D1012300E0022313436A
:103120005BB2DAB2019B83F87C200023184605B01D
:103130005DF804FB08D4120050D412008CD41200A5
:10314000C4D4120000B585B001900B468DF8033051
:10315000019B04339DF803201146184602F092FBB0
:103160000390039B002B06D003991C4801F0BAFB87
:103170004FF0FF332EE01A4801F0B4FB019B93F8A7
:103180007C305AB29DF80330012B02D16FF001035D
:1031900001E06FF0020313405BB2DAB2019B83F8E7
:1031A0007C20019B93F87C30002B12D1019B0433CF
:1031B000184602F0D1F80390039B002B06D0039928
:1031C000084801F08FFB4FF0FF3303E0064801F0A1
:1031D00089FB0023184605B05DF804FBF0D412000B
:1031E00038D5120074D51200ACD5120000B587B0E6
:1031F00003900B4601928DF80B30039B0433019A28
:1032000092B29DF80B10184601F0DAFE0590059B6E
:10321000002B06D0059A0199074801F063FB0023B3
:1032200005E00199054801F05DFB4FF0FF331846BA
:1032300007B05DF804FB00BFD8D5120020D61200FD
:1032400010B582B00190054C054B9C4204D0183C4F
:10325000204621F0FCFCF7E702B010BD3045FF3FEF
:10326000B043FF3FF0B589B003900291039B012B5F
:1032700040F08D80029B4FF6FF72934240F08780B2
:1032800004AB184621F0A4FC04AB1A46414942485D
:1032900021F008FD04AB184621F09BFC3F4A404951
:1032A0003D4821F07BFC3F4B07241E46B4F1FF3F15
:1032B0000ED0334601251F46B5F1FF3F05D03846F5
:1032C00021F0BEFC1837013DF6E73036013CEDE752
:1032D000324A3549002021F061FC05AB184621F047
:1032E00077FC05AB1A462B49304821F0DBFC05ABD7
:1032F000184621F06EFC294A29492C4821F04EFC41
:1033000006AB184621F064FC06AB1A462149284852
:1033100021F0C8FC06AB184621F05BFC1F4A20498F
:10332000234821F03BFC07AB184621F051FC07ABCA
:103330001A4618491F4821F0B5FC07AB184621F082
:1033400048FC164A16491B4821F028FC4FF0FF3371
:103350000093102340222021174821F027F90F4A1B
:103360001649154821F01AFC0023022201211448B5
:1033700021F066F8094A1349114821F00FFC124860
:103380001CF032F8054A11490F4821F007FC00BF34
:1033900009B0F0BD60D612009843FF3F0040FF3FE8
:1033A0004F4C1200B043FF3F413210003045FF3F09
:1033B0004845FF3F6045FF3F7C45FF3FD12510005A
:1033C0009045FF3F312A1000E845FF3F71F411009E
:1033D00008B54FF6FF710120FFF744FF08BD00BF9D
:1033E00000B583B001900091019B1A460023136041
:1033F00053609360D36013615361019B0099184639
:103400001EF020FD019B184603B05DF804FB00BFD1
:1034100082B00190019B184602B0704700B585B09C
:10342000039003984FF0FF33009310234022202194
:1034300021F0BCF8039B14334FF0FF311846FFF71F
:10344000CFFF039B03F134004FF0FF3300932023A1
:103450000422082107F066FB039B184605B05DF8BF
:1034600004FB00BF0000000010B584B0019001997A
:103470002B4801F037FA01980BF04AF803902949DC
:1034800003980BF0CBF80290029B002B02D14FF077
:10349000FF333AE0029BD3E906014FF000024FF000
:1034A000000322F0E7F90346002B03D01E48FFF784
:1034B00017FC26E0029BD3E9060115A3D3E90023FC
:1034C00022F0E2F90346002B0AD1029BD3E9060160
:1034D00011A3D3E9002322F0F5F90346002B02D013
:1034E0004FF0FF3311E0029B03F11804D4E90034DC
:1034F0001846214622F0F0F9034619460A48FFF71C
:10350000CDFB03980BF05AF80023184604B010BD09
:10351000000000000030B14000000000002CCA4054
:1035200074D6120080D61200EC47FF3F10B586B06B
:1035300001900199354801F0D5F901980AF0E8FFAA
:103540000590334905980BF069F80490049B002B13
:1035500002D14FF0FF3356E02E4905980BF05EF88C
:103560000390039B002B02D14FF0FF334BE0039BF2
:10357000D3E906014FF00002274B22F085F90346FC
:10358000002B0BD1039BD3E906014FF000024FF053
:10359000804322F097F90346002B02D04FF0FF330F
:1035A00031E0039BD3E9060101231C464FF00002E2
:1035B000194B22F05FF90346002B01D000231C4673
:1035C000E3B28DF80B309DF80B3019461348FFF726
:1035D0004BF8049B03F11804D4E900341846214643
:1035E00022F07AF902469DF80B3019460B48FFF796
:1035F00027F99DF80B3019460848FFF7DBF80598C6
:103600000AF0DCFF0023184606B010BD74D6120085
:1036100084D612008CD612000000F03FF047FF3F26
:1036200010B586B0019001993B4801F05BF9019813
:103630000AF06EFF0590394905980AF0EFFF0490F3
:10364000049B002B02D14FF0FF3361E0049BD3E9D0
:1036500006014FF00002324B22F016F90346002B10
:103660000BD1049BD3E906014FF000024FF08043D9
:1036700022F028F90346002B02D04FF0FF3347E039
:10368000049BD3E906014FF00002254B22F0F2F82B
:103690000346002B01D0012300E002238DF80F30F8
:1036A000204905980AF0BAFF0290029B002B02D134
:1036B0004FF0FF332CE0029BD3E906014FF00002EC
:1036C0004FF0000322F0FEF80346002B16D09DF8C1
:1036D0000F3019461448FFF7E3FC029B03F118046E
:1036E000D4E900341846214622F0F6F802469DF847
:1036F0000F3019460C48FFF779FD05E09DF80F30B3
:1037000019460948FFF71EFD05980AF057FF0023E8
:10371000184606B010BD00BF74D612008CD6120039
:103720000000F03F94D61200FC48FF3F30B599B03E
:10373000AE4804F07BFBAE49AC4804F0B1FB4FF05F
:103740007E501EF081FCAB4801F0CCF898238DF838
:1037500048304F238DF84930EE238DF84A3000234E
:103760008DF84B30A1238DF84C3003238DF84D306C
:1037700012AB1946A04804F0DBFD1590159B002BF9
:1037800013D19D4804F09EFE034619469B4801F064
:10379000A9F89B49954804F083FB974804F0FCFD89
:1037A0001590159B002B3BD10AE01599954801F027
:1037B00099F895498D4804F073FB4FF0FF338DE184
:1037C0008D4804F00DFE04468B4804F02FFE05469C
:1037D000894804F051FE03462A4621468B4801F0F1
:1037E00081F8824804F050FB0123012288497F4878
:1037F00004F068FB804804F0F3FD01460123022237
:103800007A4804F05FFB0221824803F0A5F90346E1
:10381000002B14BF01230023DBB2002B12D00AE0DF
:1038200015997D4801F05EF87C49704804F038FB3A
:103830004FF0FF3352E17A496C4804F031FB4FF00E
:10384000FF334BE17749694804F02AFB754801F0E2
:1038500049F84FF07E501EF0F7FB7348FFF7C8FBA6
:103860007248FFF7F7F9002001F092F9034611932F
:10387000119B19466E4801F035F807F011FB002046
:1038800001F086F90346119311AB184622F014FC9F
:1038900003461946674801F025F86749534804F084
:1038A000FFFA09AB184607F0C7FE0346DB0FDBB291
:1038B000002B07D0614801F015F84FF47A701EF024
:1038C000D9FBEEE75E49494804F0EAFA08AA09ABD9
:1038D0001146184607F08AFD0346DB0FDBB2002BCA
:1038E00007D0584800F0FEFF4FF47A701EF0C2FB7C
:1038F000ECE7554800F0F6FF54493C4804F0D0FA94
:1039000003AA09AB1146184607F0C2FE0346DB0FB7
:10391000DBB2002B07D04E4800F0E4FF4FF47A7082
:103920001EF0A8FBECE76B4619463A4803F01CFA78
:103930004849384803F064FA0346019346492B4846
:1039400004F0AEFA6A4603AB1146184607F02CFEA7
:103950000346DB0FDBB2002B03D0404800F0C2FF70
:10396000F0E708AA03A909AB184608F0D1FC034602
:10397000DB0FDBB2002B07D0394800F0B3FF4FF468
:103980007A701EF077FBECE73649374807F0AEFF58
:103990003649374807F0AAFF3649374807F0A6FFEF
:1039A00008F0D2FC002317930A231493334803F042
:1039B00013FB16906B461946164803F0D5F92549B6
:1039C000144803F01DFA034601932C4803F004FB4E
:1039D00003460293029A169B9A4204D1179B5A1CE3
:1039E0001792092B4CDD01234BE000BF7046FF3FCF
:1039F00098D61200A8D612000847FF3FBCD6120086
:103A0000D4D61200DCD61200F8D6120010D712005D
:103A10002CD71200E447FF3F34D7120054D71200CE
:103A20006CD7120088D71200FC48FF3FEC47FF3FDD
:103A3000A8D71200B8D71200C4D71200D8D71200E6
:103A4000F8D7120010D812002CD812003CD812005F
:103A50004CD812006666F6406CD8120080D812006E
:103A600094D812002D351000A8D81200213610006D
:103A7000B0D8120069341000B4D81200E847FF3FF4
:103A80000023002B25D000231793029B16936A4630
:103A900003AB1146184608F085FC0346DB0FDBB28A
:103AA000002B16D00F4800F01DFF08F03FFC08AABD
:103AB00003A909AB184608F02BFC0346DB0FDBB269
:103AC000002B04D04FF47A701EF0D4FAEFE708F020
:103AD0003BFC4FF4FA7008F057FC6BE7184619B03E
:103AE00030BD00BFBCD8120010B582B00190054CAB
:103AF000054B9C4204D0183C204621F0A8F8F7E77B
:103B000002B010BD3045FF3FB043FF3F00B583B06A
:103B10000190019B3433184607F0B4F9019B184615
:103B2000FEF756FD019B184603B05DF804FB00BF8D
:103B300000B583B00190019B2433184607F0A2F929
:103B4000019B184603B05DF804FB00BF00B583B0CD
:103B50000190019B1846FFF7EBFF019B184603B04D
:103B60005DF804FBF0B589B003900291039B012B33
:103B700040F0B880029B4FF6FF72934240F0B28053
:103B800004AB184621F024F804AB1A4657495848AC
:103B900021F088F804AB184621F01BF8554A564925
:103BA000534820F0FBFF554B07241E46B4F1FF3F5E
:103BB0000ED0334601251F46B5F1FF3F05D03846EC
:103BC00021F03EF81837013DF6E73036013CEDE7CD
:103BD000484A4B49002020F0E1FF05AB184620F091
:103BE000F7FF05AB1A464149464821F05BF805ABA3
:103BF000184620F0EEFF3F4A3F49424820F0CEFFF2
:103C000006AB184620F0E4FF06AB1A4637493E489B
:103C100021F048F806AB184620F0DBFF354A36495C
:103C2000394820F0BBFF07AB184620F0D1FF07ABA7
:103C30001A462E49354821F035F807AB184620F0D2
:103C4000C8FF2C4A2C49314820F0A8FF4FF0FF3321
:103C500000931023402220212D4820F0A7FC254A64
:103C60002C492B4820F09AFF0023022201212A48E8
:103C700020F0E6FB1F4A2949274820F08FFF2848FB
:103C80001BF0B2FB1B4A2749254820F087FF264836
:103C9000FFF7C4FB174A2549234820F07FFF24483B
:103CA00004F036FB134A2349214820F077FF2248CD
:103CB000FFF7AEFB2148FEF79FFF0E4A20491F4841
:103CC00020F06CFF1F48FEF7B7FC0A4A1E491D484A
:103CD00020F064FF1D48FFF74BF9064A1C491B48BA
:103CE00020F05CFF00BF09B0F0BD00BFD4D81200C7
:103CF0009843FF3F0040FF3F4F4C1200B043FF3F4F
:103D0000E93A10003045FF3F4845FF3F6045FF3F1F
:103D10007C45FF3FD12510009045FF3F312A100020
:103D2000E845FF3F71F411007046FF3F0D3B100066
:103D30000847FF3F4D3B1000E847FF3FEC47FF3F80
:103D4000112C1000F047FF3F41271000FC48FF3FB7
:103D5000952F100008B54FF6FF710120FFF702FF05
:103D600008BD00BF00B583B0019000910E4A019BD1
:103D70001A60019B009A5A60002208210B4820F02B
:103D80004DFC0B49094820F061FC019B5B6818461B
:103D900020F01CFF03461A46019B9A60019B1846BF
:103DA00003B05DF804FB00BF0CD912007C49FF3F53
:103DB00040420F0000B583B001900D4A019B1A608C
:103DC000019B9B68002B08D0019B9B68002B04D0B3
:103DD000019B9B68184620F0DFFE0023002B02D0D9
:103DE000019820F0E0FE019B184603B05DF804FB4B
:103DF0000CD9120000B583B001900198FFF7DAFFEB
:103E0000019820F0D0FE019B184603B05DF804FB3A
:103E100010B586B0019003A84FF480734FF4802250
:103E2000094903F0F5FD019B5A68019B9B6803A8B3
:103E3000022103F01BFE044603AB184603F010FEFC
:103E40002346184606B010BD7C49FF3F10B588B028
:103E5000039002910192029B002B02D14FF0FF349C
:103E600036E004A84FF480734FF480221A4903F01F
:103E7000CFFD039B9B68019A0299184622F00BFF25
:103E8000039B5968039B9B6804AA144800F02AFD11
:103E9000039B5A68039B9B6804A8022103F05CFE05
:103EA00003468DF81F309DF81F3019460C4800F06E
:103EB00019FD9DF81F3083F00103DBB2002B02D007
:103EC0004FF0FF3400E0002404AB184603F0C8FDB7
:103ED0002346184608B010BD7C49FF3FD8D81200D1
:103EE000F0D8120008B50348FFF792FF03461846C2
:103EF00008BD00BF9049FF3F00B583B0019000911D
:103F0000009A01990348FFF7A1FF0346184603B042
:103F10005DF804FB9049FF3F10B582B00190054C5D
:103F2000054B9C4204D0183C204620F090FEF7E759
:103F300002B010BD3045FF3FB043FF3FF0B589B040
:103F400003900291039B012B40F0A580029B4FF64A
:103F5000FF72934240F09F8004AB184620F038FE79
:103F600004AB1A464D494E4820F09CFE04AB18465F
:103F700020F02FFE4B4A4C49494820F00FFE4B4B96
:103F800007241E46B4F1FF3F0ED0334601251F46DD
:103F9000B5F1FF3F05D0384620F052FE1837013DFD
:103FA000F6E73036013CEDE73E4A4149002020F07B
:103FB000F5FD05AB184620F00BFE05AB1A46374958
:103FC0003C4820F06FFE05AB184620F002FE354A53
:103FD0003549384820F0E2FD06AB184620F0F8FDE0
:103FE00006AB1A462D49344820F05CFE06AB184655
:103FF00020F0EFFD2B4A2C492F4820F0CFFD07ABD6
:10400000184620F0E5FD07AB1A4624492B4820F05E
:1040100049FE07AB184620F0DCFD224A224927481A
:1040200020F0BCFD4FF0FF330093102340222021ED
:10403000234820F0BBFA1B4A2249214820F0AEFD5C
:10404000002302220121204820F0FAF9154A1F49D5
:104050001D4820F0A3FD1E481BF0C6F9114A1D495A
:104060001B4820F09BFD4FF0FF33009310234022AC
:104070002021194820F09AFA0A4A1249164820F0DD
:104080008DFD4FF480611548FFF76CFE054A144919
:10409000124820F083FD00BF09B0F0BD00D9120026
:1040A0009843FF3F0040FF3F4F4C1200B043FF3F9B
:1040B000193F10003045FF3F4845FF3F6045FF3F37
:1040C0007C45FF3FD12510009045FF3F312A10006D
:1040D000E845FF3F71F411007C49FF3F9049FF3FE5
:1040E000B53D100008B54FF6FF710120FFF726FF20
:1040F00008BD00BF84B0019000230393039B072BEE
:1041000009DC074A039B1B01134400221A60039B2E
:1041100001330393F2E7019B184604B0704700BFD8
:104120009C49FF3F82B000230193019B072B0CDCCD
:10413000084A019B1B0113441B68002B01D1019B02
:1041400005E0019B01330193EFE74FF0FF33184681
:1041500002B070479C49FF3F00B587B003900291C1
:10416000039B0593059B1B781946059B01331B7820
:104170001846059B02331B781A46059B03331B78B0
:104180000193009203460A460449029824F02AFB50
:104190000023184607B05DF804FB00BF14D91200D5
:1041A00000B587B003900291029B0593059B591CB3
:1041B000059B0233059A0332019200930B46059A40
:1041C0000749039824F032FB0490049B042B02D08F
:1041D0004FF0FF3300E00023184607B05DF804FB02
:1041E00014D9120070B596B005900023149323489B
:1041F00004F068F902460DAB1146184624F0ACFBFA
:10420000149B002B01DA149B35E007AC043407AB98
:10421000083307AA0C3207A9103107A8143007AEDB
:104220000DAD03900291019200932346324614494A
:10423000284624F0FBFA1490149B062B02D04FF072
:10424000FF3318E000231593159B052B0EDC159BFF
:10425000059A1A44159B9B0016A90B4453F83C3C45
:10426000DBB21370159B01331593EDE7059B063305
:1042700000221A700023184616B070BD0847FF3F91
:1042800020D9120000B589B00190009103AB102233
:104290000021184622F025FD009A0199044804F0F7
:1042A00009FC03460793079B184609B05DF804FB19
:1042B0000847FF3F10B588B0039002910192039B1D
:1042C000022B02D04FF0FF3360E0019B002B08D09F
:1042D000019B062B05D0019B112B02D04FF0FF3321
:1042E00054E04FF0FF330793FFF71CFF0790079B45
:1042F000002B01DA079B49E0264A079B1B01134468
:104300000C3300221A60029B012B24D0022B39D1DE
:10431000102020F04AFC03461C46204606F0AAFA6C
:1043200006941C4A079B1B011344069A1A60194AFB
:10433000079B1B0113440833029A1A60069806F083
:10434000A5FA24F0E5F80346C3F30E0319460698D0
:1043500006F0C2FA19E0282020F027FC03461C468C
:10436000204606F095F905940A4A079B1B01134461
:10437000059A1A60074A079B1B0113440833029AE7
:104380001A6002E04FF0FF3300E0079B184608B0C8
:1043900010BD00BF9C49FF3F10B582B00190019B4A
:1043A000002B02DB019B082B02DD4FF0FF3320E0E6
:1043B000114A019B1B0113441B68002B02D14FF0D3
:1043C000FF3316E00C4A019B1B0113441C68002CB0
:1043D00005D0204606F050F9204620F0E4FB019B72
:1043E0001B01054A134410220021184622F079FCD3
:1043F0000023184602B010BD9C49FF3F00B587B0AE
:10440000039002910192039B002B02DB039B082B7C
:1044100002DD4FF0FF3316E00D4A039B1B011344EE
:104420001B68002B02D14FF0FF330CE0084A039BBE
:104430001B0113441B680593019B1A4602990598BA
:1044400006F090F90346184607B05DF804FB00BF7C
:104450009C49FF3F00B587B0039002910192039BF6
:10446000002B02DB039B082B02DD4FF0FF3317E02C
:104470000D4A039B1B0113441B68002B02D14FF014
:10448000FF330DE0084A039B1B0113441B6805938F
:10449000019B1A460299059806F0A8F90490049B1E
:1044A000184607B05DF804FB9C49FF3F10B594B077
:1044B0000390029101920093039B002B02DB039B6C
:1044C000082B02DD4FF0FF343BE0204A039B1B0129
:1044D00013441B68002B02D14FF0FF3431E0009BE6
:1044E0001393139B5B681293129B1BBA0D9309AA3B
:1044F0000DAB11461846FFF72FFE04AB184606F029
:1045000003F8139B5B880F930F9B5BBA0E930E9B74
:104510001A4609A904AB184606F014F811900B4A84
:10452000039B1B0113441B681093019B04A9029A6F
:10453000109806F01DFA1190119C04AB184605F076
:10454000EFFF2346184614B010BD00BF9C49FF3F43
:1045500010B58EB00390029101920093039B002B43
:1045600002DB039B082B02DD4FF0FF344AE0274AB1
:10457000039B1B0113441B68002B02D14FF0FF3437
:1045800040E0019A0399224800F0ACF906AB1846C6
:1045900005F0BAFF1D4A039B1B0113441B680D93D2
:1045A000019B06A9029A0D9806F012FA0C900C9A3B
:1045B0000399174800F096F90C9B002B02DA4FF094
:1045C000FF341BE0009B0B9306AB184605F0F8FF89
:1045D000024605AB19461046FFF7E2FD0B9B04337C
:1045E00005A90422184622F056FB06AB184605F032
:1045F000EDFF03469AB20B9B5A800C9C06AB184603
:1046000005F08EFF234618460EB010BD9C49FF3FB3
:1046100040D9120000B58FB0039002910192039B24
:10462000002B02DB039B082B02DD4FF0FF332BE056
:10463000174A039B1B0113441B68002B02D14FF048
:10464000FF3321E0029B0D930D9B5B680B930B9B4B
:104650001BBA08930E4A039B1B0113441B680C935F
:1046600004AA08AB11461846FFF776FD0D9B5B8840
:104670000A930A9B5BBA0993099B1A4604AB194635
:104680000C9806F01BF8034618460FB05DF804FBC3
:104690009C49FF3F00B587B00390029101920093BF
:1046A000039B002B02DB039B082B02DD4FF0FF3343
:1046B00039E0029B40F6FF72934232D1019BA3F591
:1046C0008053053B012B29D8089B082B23D1009B45
:1046D000002B1ED0009B0593059B1B684FF47A723C
:1046E00002FB03F2059B5B68114981FB0301891101
:1046F000DB17CB1A13440493049B002B09DD0D4AEE
:10470000039B1B0113441B68049A0021184605F003
:1047100087FF002307E06FF0020304E06FF001035E
:1047200001E04FF0FF33184607B05DF804FB00BF0F
:10473000D34D62109C49FF3F10B582B00190054CEB
:10474000054B9C4204D0183C204620F080FAF7E745
:1047500002B010BD3045FF3FB043FF3FF0B589B018
:1047600003900291039B012B40F09080029B4FF637
:10477000FF72934240F08A8004AB184620F028FA7A
:1047800004AB1A464349444820F08CFA04AB18465F
:1047900020F01FFA414A42493F4820F0FFF9414BBF
:1047A00007241E46B4F1FF3F0ED0334601251F46B5
:1047B000B5F1FF3F05D0384620F042FA1837013DE9
:1047C000F6E73036013CEDE7344A3749002020F067
:1047D000E5F905AB184620F0FBF905AB1A462D4963
:1047E000324820F05FFA05AB184620F0F2F92B4A68
:1047F0002B492E4820F0D2F906AB184620F0E8F9F4
:1048000006AB1A4623492A4820F04CFA06AB184654
:1048100020F0DFF9214A2249254820F0BFF907ABF3
:10482000184620F0D5F907AB1A461A49214820F05E
:1048300039FA07AB184620F0CCF9184A18491D4838
:1048400020F0ACF94FF0FF330093102340222021D9
:1048500019481FF0ABFE114A1849174820F09EF97D
:1048600000230222012116481FF0EAFD0B4A1549D8
:10487000134820F093F914481AF0B6FD074A13497B
:10488000114820F08BF91248FFF734FC00BF09B043
:10489000F0BD00BF54D912009843FF3F0040FF3FD6
:1048A0004F4C1200B043FF3F394710003045FF3FE7
:1048B0004845FF3F6045FF3F7C45FF3FD125100045
:1048C0009045FF3F312A1000E845FF3F71F4110089
:1048D0001C4AFF3F08B54FF6FF710120FFF73EFF6E
:1048E00008BD00BF0FB400B583B005AB01930F4BFB
:1048F00000221A70019B049A76210C4825F0EEFDE7
:104900000A4824F031F803461A46084B1344084A73
:104910001188927819809A70044906481FF0A8FF00
:1049200000BF03B05DF804EB04B07047784AFF3F66
:1049300058D91200604AFF3F10B582B00190054C73
:10494000054B9C4204D0183C204620F080F9F7E744
:1049500002B010BD3045FF3FB043FF3FF0B589B016
:1049600003900291039B012B40F09A80029B4FF62B
:10497000FF72934240F0948004AB184620F028F96F
:1049800004AB1A464849494820F08CF904AB184654
:1049900020F01FF9464A4749444820F0FFF8464BAB
:1049A00007241E46B4F1FF3F0ED0334601251F46B3
:1049B000B5F1FF3F05D0384620F042F91837013DE8
:1049C000F6E73036013CEDE7394A3C49002020F05B
:1049D000E5F805AB184620F0FBF805AB1A4632495E
:1049E000374820F05FF905AB184620F0F2F8304A5E
:1049F0003049334820F0D2F806AB184620F0E8F8EA
:104A000006AB1A4628492F4820F04CF906AB184649
:104A100020F0DFF8264A27492A4820F0BFF807ABE4
:104A2000184620F0D5F807AB1A461F49264820F053
:104A300039F907AB184620F0CCF81D4A1D49224829
:104A400020F0ACF84FF0FF330093102340222021D8
:104A50001E481FF0ABFD164A1D491C4820F09EF869
:104A60000023022201211B481FF0EAFC104A1A49C8
:104A7000184820F093F819481AF0B6FC0C4A184967
:104A8000164820F08BF800234FF400724FF4807129
:104A900014481FF0D5FC064A0F49124820F07EF852
:104AA00000BF09B0F0BD00BF5CD912009843FF3FC2
:104AB0000040FF3F4F4C1200B043FF3F3949100008
:104AC0003045FF3F4845FF3F6045FF3F7C45FF3F86
:104AD000D12510009045FF3F312A1000E845FF3FE7
:104AE00071F41100204AFF3F08B54FF6FF71012015
:104AF000FFF734FF08BD00BF70B58CB007900020F1
:104B000000F046F80346099309AB184621F044FE2D
:104B10000B9011481FF072FF0A900B9B5B6903F228
:104B20006C750B9B1B695E1C0B9BDB680B9A926878
:104B30000B9949680B9800680A9C049403900291B1
:104B40000192009333462A460449079823F04AFE0F
:104B500000BF0CB070BD00BFF04AFF3F60D912002B
:104B600000B583B001900091002000F011F80246DA
:104B7000019B1A6005481FF01DFF0246019B5A6009
:104B80000023184603B05DF804FB00BFF04AFF3F66
:104B900010B584B001900F4B1B68184620F0EEFF53
:104BA00004460D481FF014FF03461946204620F026
:104BB00031FF0346184621F0FBF903460393019B9E
:104BC000002B02D0019B039A1A60039B184604B085
:104BD00010BD00BF004BFF3FF04AFF3F00B583B060
:104BE0000190019B1B6819460748FFF77BFE019B5C
:104BF0001B68064A136006481FF02AFF0023184668
:104C000003B05DF804FB00BF84D91200004BFF3FE6
:104C1000F04AFF3F00B583B0019001981DF02AFAD9
:104C20000023184603B05DF804FB00BF00B583B055
:104C300001900091019B012B07D1009B4FF6FF7261
:104C4000934202D103481FF071FE00BF03B05DF82C
:104C500004FB00BFF04AFF3F08B54FF6FF7101208B
:104C6000FFF7E4FF08BD00BF00B583B00A4A0B4B55
:104C7000D31A0193019B1A460021084822F031F80B
:104C80001CF0E8FD21F030FE1DF05EFF1FF08EFBF2
:104C90000090009821F02CFA0C66FF3F5443FF3F30
:104CA00000B583B00190019B022B01DC012303E0DE
:104CB00001981FF011FB0346184603B05DF804FB92
:104CC00082B0EFF305830193019B002B00D000BE5F
:104CD00000BF02B0704700BF00B583B00190FFF77E
:104CE000EFFF019821F098FF0346184603B05DF8E6
:104CF00004FB00BF00B583B001900091FFF7E0FF17
:104D00000099019823F03EFC0346184603B05DF875
:104D100004FB00BF00B583B00190FFF7D1FF0198FD
:104D200021F082FF00BF03B05DF804FB08B501204D
:104D300021F0DEF908B5FFF7F9FF00BF00B585B037
:104D40000190019800F08AFF019800F0E5FF0198BA
:104D500001F06EF80DF10A031A461821019800F0CF
:104D60000FFE0390039B13F1020F02D16FF00103BA
:104D70007AE00DF10A031A461721019800F000FEAF
:104D80000390039B13F1020F02D16FF001036BE05C
:104D9000019801F023F80390039B002B01D0039BA3
:104DA00062E00221019800F019FC0390039B002BA4
:104DB00001D0039B58E00221019800F04FFB039BB8
:104DC000002B01D0039B4FE00021019800F086FBEF
:104DD0000390039B002B01D0039B45E00021019829
:104DE00000F0BCFB0390039B002B01D0039B3BE036
:104DF0000321019800F072FC0390039B002B01D06B
:104E0000039B31E00121019800F028FC0390039BF3
:104E1000002B01D0039B27E01549019800F0D0FA40
:104E20000390039B002B01D0039B1DE04FF0000279
:104E30000121019800F05CF80390039B002B01D046
:104E4000039B11E04FF000020221019800F050F89E
:104E50000390039B002B01D0039B05E05821019890
:104E600000F07CFC0390039B184605B05DF804FB42
:104E7000ECB1040000B585B001900B468DF803300D
:104E80000DF10A031A460821019800F065FD03465A
:104E900013F1020F0CBF01230023DBB2002B02D061
:104EA0006FF001031FE0BDF80A3023F003039BB24B
:104EB000ADF80A309DF803309AB2BDF80A301343BA
:104EC0009BB2ADF80A30BDF80A301A4608210198A5
:104ED00000F024FE0390039B13F1020F02D16FF048
:104EE000010300E00023184605B05DF804FB00BF95
:104EF00000B58BB003900B4601928DF80B30002368
:104F0000ADF826302C4B08934FF000030793089917
:104F1000019821F043F80346002B06D10799019828
:104F200021F01EF80346002B02D06FF002033FE091
:104F30002249019820F076FE03461F49184620F0CA
:104F400025FF0346184621F059F80346ADF81A30FC
:104F5000BDF81A30ADF826309DF80B30012B02D089
:104F6000022B0FD01DE0BDF826301A460921039808
:104F700000F0D4FD0590059B13F1020F14D16FF0E2
:104F8000010315E0BDF826301A460A21039800F007
:104F9000C5FD0590059B13F1020F07D16FF00103CA
:104FA00006E06FF0020303E000BF00E000BF002353
:104FB00018460BB05DF804FB0000C84200C07F44F7
:104FC00000B587B001900B468DF803301346ADF85D
:104FD00000300023ADF8163040F2FF33ADF8143046
:104FE000BDF80020BDF814309A4202D96FF00203D8
:104FF00033E0BDF80030ADF81230BDF81230ADF836
:1050000016309DF80330012B02D0022B0FD01DE08B
:10501000BDF816301A460921019800F07FFD039073
:10502000039B13F1020F14D16FF0010315E0BDF8DB
:1050300016301A460A21019800F070FD0390039B78
:1050400013F1020F07D16FF0010306E06FF00203C6
:1050500003E000BF00E000BF0023184607B05DF882
:1050600004FB00BF0000000000B589B0039002916E
:1050700001920199029820F0CDFC0346964918460A
:1050800020F08CFF0346002B02D06FF0020306E1F4
:10509000029820F033F984A3D3E9002320F012FC16
:1050A0000346002B02D08D4B029308E08C490298F6
:1050B00020F056FF0346002B01D08A4B029389490A
:1050C000029820F043FF0346002B03D000238DF805
:1050D0001F3014E08249029820F09AFC034682496E
:1050E000184620F09FFD03468049184620F04EFEEA
:1050F0000346184620F082FF03468DF81F300DF15D
:1051000016031A460321039800F026FC034613F108
:10511000020F0CBF01230023DBB2002B02D06FF083
:105120000103BCE0BDF8163023F07F039BB2ADF85D
:1051300016309DF81F309AB2BDF8163013439BB25B
:10514000ADF81630BDF816301A460321039800F06A
:10515000E5FC0690019820F0D1F855A3D3E900238F
:1051600020F0B0FB0346002B03D007238DF81E3040
:1051700062E0019820F0C2F84FA3D3E9002320F0A9
:10518000A1FB0346002B03D007238DF81E3053E00C
:10519000019820F0B3F84AA3D3E9002320F092FB52
:1051A0000346002B03D006238DF81E3044E00198FF
:1051B00020F0A4F844A3D3E9002320F083FB0346A6
:1051C000002B03D005238DF81E3035E0019820F028
:1051D00095F83FA3D3E9002320F074FB0346002B8E
:1051E00003D004238DF81E3026E04FF08041019853
:1051F00020F0D4FE0346002B03D003238DF81E308D
:105200001AE04FF07F51019820F0C8FE0346002BB2
:1052100003D002238DF81E300EE04FF07E5101982E
:1052200020F0BCFE0346002B03D001238DF81E3076
:1052300002E000238DF81E300DF116031A460221FC
:10524000039800F089FB034613F1020F0CBF012302
:105250000023DBB2002B02D06FF001031FE0BDF88A
:10526000163023F007039BB2ADF816309DF81E30C0
:105270009AB2BDF8163013439BB2ADF81630BDF8A4
:1052800016301A460221039800F048FC0690069B4F
:1052900013F1020F02D16FF0010300E00023184662
:1052A00009B05DF804FB00BF66666666660650409E
:1052B00033333333333317406666666666661340AE
:1052C0003333333333330F403333333333330740E4
:1052D0003333333333330340000088423333804267
:1052E00000007041000030410000FE42666644420A
:1052F00000B585B001900DF10E031A460221019808
:1053000000F02AFB034613F1020F0CBF0123002318
:10531000DBB2002B02D06FF0010319E0BDF80E30B4
:1053200043F020039BB2ADF80E30BDF80E301A46A4
:105330000221019800F0F2FB0346002B0CBF012371
:105340000023DBB2002B01D0002301E06FF001034A
:10535000184605B05DF804FB00B585B001900DF16D
:105360000E031A460221019800F0F6FA034613F1E3
:10537000020F0CBF01230023DBB2002B02D06FF021
:10538000010319E0BDF80E3023F020039BB2ADF805
:105390000E30BDF80E301A460221019800F0BEFB17
:1053A0000346002B0CBF01230023DBB2002B01D0EE
:1053B000002301E06FF00103184605B05DF804FB1F
:1053C00000B587B001900091234A009BB2FBF3F334
:1053D0000593059B072B02D9059B262B02D96FF05D
:1053E000020335E00DF10E031A460121019800F089
:1053F000B3FA034613F1020F0CBF01230023DBB203
:10540000002B02D06FF0010322E0BDF80E3023F034
:10541000F8039BB2ADF80E30059B9BB2073B9BB2E5
:10542000DB009AB2BDF80E3013439BB2ADF80E30DC
:10543000BDF80E301A460121019800F06FFB049070
:10544000049B13F1020F02D16FF0010300E000236F
:10545000184607B05DF804FB00127A0000B585B06D
:1054600001900B468DF803300DF10A031A46022114
:10547000019800F071FA034613F1020F0CBF0123EB
:105480000023DBB2002B02D06FF0010322E0BDF855
:105490000A3023F018039BB2ADF80A309DF80330B0
:1054A000DB009AB2BDF80A309BB213439BB29BB2A9
:1054B000ADF80A30BDF80A301A460221019800F012
:1054C0002DFB0390039B13F1020F02D16FF0010338
:1054D00000E00023184605B05DF804FB00B585B078
:1054E00001900B468DF803300DF10A031A46022194
:1054F000019800F031FA034613F1020F0CBF0123AB
:105500000023DBB2002B02D06FF0010322E0BDF8D4
:105510000A3023F4C0739BB2ADF80A309DF8033013
:10552000DB009AB2BDF80A309BB213439BB29BB228
:10553000ADF80A30BDF80A301A460221019800F091
:10554000EDFA0390039B13F1020F02D16FF00103F8
:1055500000E00023184605B05DF804FB00B585B0F7
:1055600001900B468DF803300DF10A031A46052110
:10557000019800F0F1F9034613F1020F0CBF01236B
:105580000023DBB2002B02D06FF0010322E0BDF854
:105590000A3023F4C0739BB2ADF80A309DF8033093
:1055A0001B029AB2BDF80A309BB213439BB29BB266
:1055B000ADF80A30BDF80A301A460521019800F00E
:1055C000ADFA0390039B13F1020F02D16FF00103B8
:1055D00000E00023184605B05DF804FB00B585B077
:1055E00001900B468DF803300DF10A031A46012194
:1055F000019800F0B1F9034613F1020F0CBF01232B
:105600000023DBB2002B02D06FF0010322E0BDF8D3
:105610000A3023F006039BB2ADF80A309DF8033040
:105620005B009AB2BDF80A309BB213439BB29BB2A7
:10563000ADF80A30BDF80A301A460121019800F091
:105640006DFA0390039B13F1020F02D16FF0010377
:1056500000E00023184605B05DF804FB00B585B0F6
:1056600001900B468DF803300DF10A031A46012113
:10567000019800F071F9034613F1020F0CBF0123EA
:105680000023DBB2002B02D06FF0010322E0BDF853
:105690000A3023F440739BB2ADF80A309DF8033012
:1056A0001B029AB2BDF80A309BB213439BB29BB265
:1056B000ADF80A30BDF80A301A460121019800F011
:1056C0002DFA0390039B13F1020F02D16FF0010337
:1056D00000E00023184605B05DF804FB00B585B076
:1056E00001900B468DF803300DF10A031A46032191
:1056F000019800F031F9034613F1020F0CBF0123AA
:105700000023DBB2002B02D06FF0010322E0BDF8D2
:105710000A3023F4C0739BB2ADF80A309DF8033011
:10572000DB019AB2BDF80A309BB213439BB29BB225
:10573000ADF80A30BDF80A301A460321019800F08E
:10574000EDF90390039B13F1020F02D16FF00103F7
:1057500000E00023184605B05DF804FB00B585B0F5
:1057600001900B46ADF80230BDF80230B3F5007F72
:1057700002D36FF0020313E0BDF80230ADF80E3033
:10578000BDF80E301A460D21019800F0C7F90290BD
:10579000029B13F1020F02D16FF0010300E000231E
:1057A000184605B05DF804FB00B585B001900B46C6
:1057B0008DF803309DF80330012B02D0022B2AD044
:1057C00053E00DF10A031A460621019800F0C4F8CF
:1057D000034613F1020F0CBF01230023DBB2002BA1
:1057E00003D06FF00103039343E0BDF80A3043F0A8
:1057F00002039BB2ADF80A30BDF80A301A46062102
:10580000019800F08BF90390039B13F1020F30D144
:105810006FF0010331E00DF10A031A4606210198E9
:1058200000F09AF8034613F1020F0CBF0123002386
:10583000DBB2002B03D06FF0010303931BE0BDF834
:105840000A3043F001039BB2ADF80A30BDF80A30CC
:105850001A460621019800F061F90390039B13F1A9
:10586000020F08D16FF0010307E06FF0010303930B
:1058700002E000BF00E000BF0023184605B05DF85D
:1058800004FB00BF00B585B001900B468DF80330D6
:105890009DF80330012B02D0022B2AD056E00DF1E7
:1058A0000A031A460621019800F056F8034613F140
:1058B000020F0CBF01230023DBB2002B03D06FF0DB
:1058C000010303933FE0BDF80A3023F002039BB2CB
:1058D000ADF80A30BDF80A301A460621019800F0EA
:1058E0001DF90390039B13F1020F2CD16FF00103FC
:1058F0002DE00DF10A031A460621019800F02CF85C
:10590000034613F1020F0CBF01230023DBB2002B6F
:1059100003D06FF00103039317E0BDF80A3023F0C2
:1059200001039BB2ADF80A30BDF80A301A460621D1
:10593000019800F0F3F80390039B13F1020F04D1D8
:105940006FF0010303E000BF00E000BF0023184632
:1059500005B05DF804FB00BF00B587B003900B46AF
:1059600001928DF80B309DF80B30019A194603987F
:1059700000F02EF80590059B184607B05DF804FB73
:1059800000B587B003900B4601928DF80B309DF85F
:105990000B30019A1946039800F01AF80590059B00
:1059A000184607B05DF804FB00B587B003900B46BE
:1059B00001928DF80B309DF80B30019A194603982F
:1059C00000F006F80590059B184607B05DF804FB4B
:1059D00000B587B003900B4601928DF80B30002381
:1059E000ADF816300023ADF81430019B002B02D126
:1059F0006FF002038BE04FF0FF31474819F01AFDBA
:105A0000039800F015FA039800F062F99DF80B3046
:105A10009B029AB2BDF8163013439BB2ADF8163014
:105A2000BDF81620BDF814301343ADF81630BDF89C
:105A300016301946039800F087F903468DF81330A5
:105A40009DF813305B029AB2BDF8163013439BB237
:105A5000ADF81630039BBDF81620114618461EF00F
:105A60002BFE0346ADF81030019BBDF810201A80C4
:105A7000039800F051F9039800F02AF90023ADF8DB
:105A800016300023ADF81430BDF8163043F4C0438F
:105A9000ADF81630BDF81620BDF814301343ADF83C
:105AA0001630BDF816301946039800F04DF903463C
:105AB0008DF813309DF813305B029AB2BDF81630A2
:105AC00013439BB2ADF81630039BBDF81620114668
:105AD00018461EF0F1FD0346ADF81030039800F0B3
:105AE0001BF9039800F0B8F90B4819F0B3FCBDF8A6
:105AF00010301BB2002B02DA6FF0010307E0019BAC
:105B00001B88C3F309039AB2019B1A80002318462D
:105B100007B05DF804FB00BFE845FF3F00B585B066
:105B200001900B468DF803301346ADF8003000238A
:105B3000ADF80E304FF0FF31474819F07BFC01986B
:105B400000F076F9019800F0E7F8019800F0C0F84D
:105B5000BDF80E306FEA43436FEA5343ADF80E30A1
:105B60009DF80330DB029AB2BDF80E3013439BB2AE
:105B7000ADF80E30BDF80E20BDF800301343ADF87F
:105B80000E30BDF80E301946019800F0DDF80346DE
:105B90008DF80D309DF80D309B029AB2BDF80E3095
:105BA00013439BB2ADF80E30019BBDF80E20114699
:105BB00018461EF081FD0346ADF80A30019800F04A
:105BC000ABF8019800F084F80023ADF80030002312
:105BD000ADF80E30BDF80E306FEA43436FEA534321
:105BE000ADF80E30BDF80E20BDF800301343ADF80F
:105BF0000E30BDF80E301946019800F0A5F80346A6
:105C00008DF80D309DF80D305B029AB2BDF80E3064
:105C100013439BB2ADF80E30019BBDF80E20114628
:105C200018461EF049FD0346ADF80A30019800F011
:105C300073F8019800F010F9074819F00BFCBDF853
:105C40000A301BB2002B02DA6FF0010300E00023E0
:105C5000184605B05DF804FBE845FF3F00B583B08A
:105C60000190019B14331949184604F07FFF019BF2
:105C700003F1140000230022012105F04FF8019BDD
:105C800003F1140000230122012105F047F8019BD4
:105C900003F1140000230222012105F03FF8019BCB
:105CA00003F1140001230122012104F0CFFF019B25
:105CB00003F1140001230222012104F0C7FF142084
:105CC0001CF0E8F900BF03B05DF804FB40420F0090
:105CD00000B583B00190019B03F114000123002261
:105CE000012104F0B3FF14201CF0D4F907201CF0AC
:105CF000D1F9019B03F1140000230022012104F0DB
:105D0000A5FF14201CF0C6F907201CF0C3F900BF42
:105D100003B05DF804FB00BF00B583B0019007201D
:105D20001CF0B8F9019B03F11400012300220121AA
:105D300004F08CFF14201CF0ADF907201CF0AAF928
:105D400000BF03B05DF804FB86B001900B46ADF8D0
:105D5000023000238DF8153000230493BDF8023083
:105D6000ADF8163000230493049B0F2BCCBF012306
:105D70000023DAB2BDF81630002B0CBF012300233C
:105D8000DBB21343DBB2002B14D1BDF81630DBB20B
:105D900003F00103DAB29DF815305340DBB28DF801
:105DA0001530BDF816305B10ADF81630049B01338A
:105DB0000493D9E79DF81530002B0CBF0123002375
:105DC000DBB28DF80F309DF80F30002B01D001238E
:105DD00000E00023184606B0704700BF00B585B04C
:105DE0000190002303930DF10A031A461A2101982A
:105DF000FFF7DAFD034613F1020F0CBF0123002366
:105E0000DBB2002B02D06FF001030DE0BDF80A30C9
:105E1000DBB29BB2ADF80A30BDF80A30582B02D085
:105E20004FF0FF330393039B184605B05DF804FB66
:105E300000B583B00190019B0022102118461EF08E
:105E4000EDFB019B034918461EF000FC00BF03B0A8
:105E50005DF804FB400D030000B587B001900823F6
:105E6000059300230493084B0393019B049A05991F
:105E700018461EF0D3FB019B039918461EF0E6FB63
:105E800000BF07B05DF804FB40420F0000B585B0CD
:105E900003900B468DF80B3003984FF0FF330093BF
:105EA0001023402220211EF081FB039B03F11400EC
:105EB0004FF40033009328230422082104F032FE1B
:105EC000039B002283F87820039B9DF80B2083F826
:105ED0008320039B93F88330012B28D1039B03225B
:105EE00083F87920039B012283F87A20039B042204
:105EF00083F87B20039B012283F87C20039B0622EE
:105F000083F87D20039B012283F87E20039B0522DA
:105F100083F87F20039B012283F88020039B0622C5
:105F200083F88120039B002283F8822028E0039BD2
:105F3000072283F87920039B002283F87A20039BB1
:105F4000002283F87B20039B012283F87C20039BA3
:105F5000022283F87D20039B012283F87E20039B8D
:105F6000012283F87F20039B012283F88020039B7A
:105F7000062283F88120039B002283F8822000BF41
:105F8000039B184605B05DF804FB00BF00B587B061
:105F90000190019800F0D6FB019800F059FC019B9C
:105FA00014330321184604F045FF0590059A00219B
:105FB000019800F09FFC0021019800F067FC019B14
:105FC00003F11400019B93F88210019B93F8813038
:105FD000DBB25AB2012304F039FE019800F084FBD1
:105FE0000221019800F0D0FA03468DF80F309DF899
:105FF0000F3043F04003DBB28DF80F309DF80F30C7
:106000001A460221019800F0FDFA0490049B002B2F
:1060100002D06FF0010359E00221019800F0B4FAB8
:1060200003468DF80F309DF80F3023F04003DBB2AC
:106030008DF80F309DF80F301A460221019800F0BC
:10604000E1FA0490049B002B02D06FF001033DE0C5
:106050000DF10E030DF10F020521019800F004FA75
:106060000490049B002B02D06FF001032EE00DF191
:106070000E030DF10F020621019800F0F5F90490CE
:10608000049B002B02D06FF001031FE0019800F089
:1060900009FB0321019800F077FA03468DF80F30D1
:1060A0009DF80F3063F07F03DBB28DF80F309DF861
:1060B0000F301A460321019800F0A4FA0490049BC3
:1060C000002B02D06FF0010300E00023184607B058
:1060D0005DF804FB00B585B001900B468DF80330E8
:1060E0001F238DF80F309DF803209DF80F309A4242
:1060F00002D96FF0020322E00121019800F044FA76
:1061000003468DF80E309DF80E3023F01F038DF8F6
:106110000E309DF80E209DF8033013438DF80E309D
:106120009DF80E301A460121019800F06BFA02909A
:10613000029B002B02D06FF0010300E00023184601
:1061400005B05DF804FB00BF00B585B001900B46BB
:106150008DF803309DF803300B2B6FD801A252F855
:1061600023F000BF95611000A3611000B161100021
:10617000BF611000CD611000DB611000E96110000B
:10618000F761100005621000136210002162100018
:106190002F62100000238DF80F3000238DF80E3091
:1061A00053E000238DF80F3001238DF80E304CE0C2
:1061B00000238DF80F3002238DF80E3045E00023C8
:1061C0008DF80F3003238DF80E303EE000238DF85C
:1061D0000F3004238DF80E3037E000238DF80F3098
:1061E00005238DF80E3030E000238DF80F300023AA
:1061F0008DF80E3029E000238DF80F3006238DF83E
:106200000E3022E001238DF80F3000238DF80E3080
:106210001BE002238DF80F3000238DF80E3014E0C0
:1062200003238DF80F3000238DF80E300DE004238A
:106230008DF80F3000238DF80E3006E000238DF826
:106240000F3000238DF80E3000BF0921019800F0B7
:106250009BF903468DF80D309DF80D3023F00703B0
:10626000DAB29DF80F301343DBB28DF80D309DF894
:106270000D301A460921019800F0C4F90290029BE2
:10628000002B02D06FF0010327E00121019800F0FC
:106290007BF903468DF80D309DF80D3003F01F0398
:1062A000DAB29DF80E305B01DBB21343DBB28DF83E
:1062B0000D309DF80D301A460121019800F0A2F929
:1062C0000290029B002B02D06FF0010305E0019BBE
:1062D0009DF8032083F878200023184605B05DF868
:1062E00004FB00BF00B585B001900B468DF803306C
:1062F0000221019800F048F903468DF80F309DF80F
:106300000F3003F07F038DF80F309DF80330DB0171
:10631000DAB29DF80F301343DBB28DF80F309DF8E1
:106320000F301A460221019800F06CF90290029B8E
:10633000002B02D06FF0010300E00023184605B0E7
:106340005DF804FB0000000010B588B001900091DA
:106350004FF0000100981FF017FE0346002B01D0FC
:10636000009B02E0009B83F000430693019800F03D
:1063700007FB059005981EF09FFF03460C461A4642
:10638000234623A1D1E900011FF036F903460C464C
:10639000184621461FF0E8FA03460493049906982C
:1063A0001FF0DEFD0346002B02D06FF002032AE04F
:1063B0004FF0000100981FF0F1FD0346002B05D0BF
:1063C00000210198FFF78EFF079008E00121019856
:1063D000FFF788FF0790009B83F000430093079B23
:1063E000002B01D0079B0EE0049900981FF0CEFC13
:1063F000034618461FF002FE0346039303990198D3
:1064000000F084FB0023184608B010BDAFF30080F5
:10641000CDCCCCCCCCCCFC3F00B585B001900321D9
:10642000019800F0B1F803468DF80F309DF80F3059
:1064300003F07F038DF80F309DF80F301A460321CB
:10644000019800F0DFF80346002B14BF012300235E
:10645000DBB2002B02D06FF0010300E000231846EE
:1064600005B05DF804FB00BF00B589B00390019250
:1064700000930B468DF80B3000238DF81E3000235F
:1064800006934FF0FF313F4818F0D4FF039800F017
:106490002BF9039800F0DCF9039800F0A9F99DF8B6
:1064A0000B308DF81730039B9DF8172011461846C6
:1064B0001EF002F904238DF81730039B9DF8172076
:1064C000114618461EF0F8F80346DAB2019B1A701E
:1064D000019B1B788DF81F30039B03F11400039B75
:1064E00093F87C10039B93F87B30DBB25BB21A46C7
:1064F00004F06EFB0346002B0CBF01230023DBB22C
:10650000002B03D0009B01221A7002E0009B0022A6
:106510001A70039800F09CF9039800F0F9F89DF8C0
:106520001F30002B15D0069B072B12D09DF81F2083
:106530009DF81E305340DBB203F001038DF81E308E
:106540009DF81F305B108DF81F30069B01330693BA
:10655000E5E7019B1B78DB098DF816309DF81620C6
:106560009DF81E309A4204D1064818F073FF0023AC
:1065700004E0044818F06EFF6FF00103184609B0FC
:106580005DF804FBE845FF3F00B585B001900B4680
:106590008DF803304FF0FF31194818F04BFF019888
:1065A00000F0A2F8019800F053F9019800F020F9EA
:1065B0009DF803308DF80F30019B9DF80F20114698
:1065C00018461EF079F804238DF80F30019B9DF8D2
:1065D0000F20114618461EF06FF803468DF80E3056
:1065E000019800F035F9019800F092F8044818F08D
:1065F00031FF9DF80E30184605B05DF804FB00BF72
:10660000E845FF3F00B585B001900B468DF803309B
:1066100013468DF802304FF0FF31214818F00AFF81
:10662000019800F061F8019800F012F9019800F06B
:10663000DFF89DF8033063F07F038DF80F30019B86
:106640009DF80F20114618461EF036F8019B9DF864
:106650000220114618461EF02FF8019800F0F8F8B5
:10666000019800F055F89DF8033019460198FFF79E
:106670008BFF03468DF80E309DF80E209DF80230FA
:106680009A4204D1064818F0E5FE002304E00448CD
:1066900018F0E0FE6FF00103184605B05DF804FB4A
:1066A000E845FF3F00B585B00190019B03F1140060
:1066B000019B93F87C10019B93F87B30DBB25BB2BB
:1066C0001A4604F085FA0290029B012B03D10023A5
:1066D0008DF80F3002E001238DF80F309DF80F3058
:1066E000184605B05DF804FB00B583B00190019B2E
:1066F0000022082118461DF091FF019B034918460E
:106700001DF0A4FF00BF03B05DF804FB20A107004B
:1067100000B587B001900823059300230493084B2C
:106720000393019B049A059918461DF077FF019B7E
:10673000039918461DF08AFF00BF07B05DF804FBFF
:1067400040420F0000B583B00190019B14332749EC
:10675000184604F00BFA019B03F11400019B93F817
:106760007A10019B93F87930DBB25AB2002304F01F
:10677000D5FA019B03F11400019B93F88210019B51
:1067800093F88130DBB25AB2002304F0C7FA019BC0
:1067900003F11400019B93F87C10019B93F87B306C
:1067A000DBB25AB2012304F0B9FA019B03F11400E1
:1067B000019B93F87E10019B93F87D30DBB25AB2B7
:1067C000002304F0ABFA019B03F11400019B93F842
:1067D0008010019B93F87F30DBB25AB2002304F0A3
:1067E0009DFA00BF03B05DF804FB00BF40420F00FC
:1067F00000B583B00190019B03F11400019B93F855
:106800007A10019B93F87930DBB25AB2012304F07D
:106810001DFA14201BF03EFC06201BF03BFC019BE4
:1068200003F11400019B93F87A10019B93F87930DF
:10683000DBB25AB2002304F009FA14201BF02AFC40
:1068400002201BF027FC00BF03B05DF804FB00BF73
:1068500000B583B0019001201BF01CFC019B03F1EB
:106860001400019B93F87A10019B93F87930DBB206
:106870005AB2012304F0EAF914201BF00BFC0620A5
:106880001BF008FC00BF03B05DF804FB00B583B04B
:1068900001900B468DF8033001201BF0FBFB9DF8A7
:1068A0000330002B0ED1019B03F11400019B93F8E0
:1068B0008010019B93F87F30DBB25AB2002304F0C2
:1068C000C5F90DE0019B03F11400019B93F88010C2
:1068D000019B93F87F30DBB25AB2012304F0B6F982
:1068E00014201BF0D7FB01201BF0D4FB00BF03B02A
:1068F0005DF804FB00B587B003900B4601928DF85C
:106900000B3005AB00210A461A800A469A709DF8A2
:106910000B30002B0CD0012B00D014E0039B93F81C
:106920007D301A4601239340019A134301930AE0F4
:10693000039B93F87D301A4601239340DB43019A71
:106940001340019300BF28238DF8143003238DF8E2
:106950001530019BDBB28DF81630084B15229A607A
:1069600005AB03221946039800F062F8034B14228A
:106970009A6000BF07B05DF804FB00BF00700040E4
:1069800084B00190019B93F878300B2B32D801A290
:1069900052F823F0C5691000CB691000D1691000CE
:1069A000D7691000E9691000E9691000EF6910006B
:1069B000EF691000DD691000E3691000EF69100055
:1069C000EF6910002023039315E01023039312E0D6
:1069D000082303930FE0042303930CE08023039325
:1069E00009E04023039306E00223039303E001231D
:1069F000039300E000BF039B184604B0704700BF3C
:106A000084B00190009100230393009B0393039BA8
:106A1000002B14BF01230023DBB2002B04D000BFE6
:106A2000039B013B0393F2E700BF04B0704700BF34
:106A300000B587B003900291019200238DF81730C2
:106A400000230493049A019B9A4256D22E4B1222A1
:106A50009A6014210398FFF7D3FF029A049B134412
:106A60001B78132B18D1284B10229A60264B10222A
:106A70009A60254B10229A60234B11229A60224B78
:106A800010229A60204B10229A601F4B11229A60AC
:106A90001D4B11229A6007E01B49049B5A1C04926B
:106AA000029A13441B788B600A210398FFF7A8FF12
:106AB000154B16229A6005210398FFF7A1FF124B90
:106AC0001B6803F01003002B14BF01230023DBB26B
:106AD000002B00D0F3E705210398FFF791FF0A4B45
:106AE0001B6803F00403002B14BF01230023DBB257
:106AF000002BA7D002238DF817309DF817301846C9
:106B000007B05DF804FB00BF0070004000B585B021
:106B100001900091019B14330321184604F08AF977
:106B2000029072B600230393039A009B9A420DD2FF
:106B3000029A01210198FFF7DDFE029A00210198D7
:106B4000FFF7D8FE039B01330393EDE762B600BF66
:106B500005B05DF804FB00BF00B587B003900B469D
:106B60008DF80B30464947481DF0DAF801201BF03C
:106B700081FA08238DF8143005AA0023009301231D
:106B8000722140481DF0FCF805AA0023009302235F
:106B900072213C481DF01AF908238DF8143005AA1B
:106BA000002300930123722136481DF0E9F80346C3
:106BB000002B14BF01230023DBB2002B02D06FF0A7
:106BC000010358E005AA00230093022372212D48F7
:106BD0001DF0FCF80346002B14BF01230023DBB299
:106BE000002B02D06FF0010345E09DF81430192B03
:106BF00003D19DF81530052B02D04FF0FF333AE05A
:106C000002238DF814309DF80B308DF8153005AA4D
:106C100000230093022372211A481DF0B1F80346A5
:106C2000002B14BF01230023DBB2002B02D06FF036
:106C3000010320E00021039800F02EF812481BF019
:106C400003FA0821039800F027F810490D481DF0B9
:106C500067F89DF80B300E4A52F823300D4918465C
:106C60001EF0E0FF034618461FF0A2F9034618463F
:106C70001BF000FA0023184607B05DF804FB00BFC4
:106C8000A0860100044BFF3F9A99193E40420F0035
:106C90000440FF3F0000404000B587B003900B4622
:106CA0008DF80B3000238DF814309DF80B308DF8E3
:106CB000153072B629492A481DF032F805AA00237A
:106CC00000930223722126481DF05AF80346002B38
:106CD00014BF01230023DBB2002B02D06FF00103AD
:106CE00037E000238DF8143005AA00230093012318
:106CF00072211B481DF044F80346002B14BF0123EA
:106D00000023DBB2002B02D06FF0010321E005AAC3
:106D1000002300930123722111481DF057F8034608
:106D2000002B14BF01230023DBB2002B02D06FF035
:106D300001030EE00B490A481CF0F2FF62B69DF811
:106D400014309DF80B209A4201D1002301E04FF04E
:106D5000FF33184607B05DF804FB00BFA0860100B2
:106D6000044BFF3F40420F0000B587B003900291F3
:106D700006238DF8143072B61D491E481CF0D0FF52
:106D800005AA00230093012372211A481CF0F8FF82
:106D90000346002B14BF01230023DBB2002B02D0DB
:106DA0006FF0010320E005AA002300930223722163
:106DB00010481DF00BF80346002B14BF01230023DD
:106DC000DBB2002B02D06FF001030DE00A49094845
:106DD0001CF0A6FF62B69DF815301B029DF814202A
:106DE0001A43029B1A600023184607B05DF804FBA3
:106DF000A0860100044BFF3F40420F00000000004E
:106E0000F0B587B0019000910023049302238DF820
:106E1000173000238DF80F300DF10F029DF8173059
:106E20001946019800F054F80346002B0CBF0123CB
:106E30000023DBB2002B3DD004AB19460198FFF7CD
:106E400093FF0346002B0CBF01230023DBB2002B72
:106E50002ED0049B18461EF03FFA04460D469DF8BE
:106E60000F301A46184B53F8223018461EF046FAD7
:106E700013A3D3E900231EF095FA02460B461646EB
:106E80001F4600981EF03AFA02460B463046394635
:106E90001EF088FA02460B46204629461EF0ACFB3F
:106EA00003460C46184621461EF05EFD034602E0EE
:106EB000064B00E0054B184607B0F0BDAFF300806D
:106EC000FCA9F1D24D62503F0440FF3F000080BF5B
:106ED00000B589B005900B4603928DF813309DF8EC
:106EE0001330092B37D89DF813308DF81C3072B64B
:106EF0001C491D481CF014FF07AA0023009301231E
:106F0000722119481CF03CFF0346002B14BF0123DB
:106F10000023DBB2002B03D062B66FF001031DE04B
:106F2000002300930123039A72210F481CF04EFFA7
:106F30000346002B14BF01230023DBB2002B03D038
:106F400062B66FF0010309E0084907481CF0E8FE4B
:106F500062B6002302E062B66FF00203184609B081
:106F60005DF804FBA0860100044BFF3F40420F0088
:106F700000B585B003900291039B012B17D1029BB2
:106F80004FF6FF72934212D1042208210A481CF0E6
:106F9000A9FE4FF40033009322230422082107485E
:106FA00003F0C0FD064A074904481DF0F7FD00BF85
:106FB00005B05DF804FB00BF044BFF3F0C4BFF3FE7
:106FC0000040FF3F85AE100008B54FF6FF7101206D
:106FD000FFF7CEFF08BD00BF00B583B001900222CD
:106FE0000021094803F0F4FD0346012B0CBF0123E7
:106FF0000023DBB2002B01D0012300E00023184660
:1070000003B05DF804FB00BF704BFF3F00B585B0D7
:1070100003900291039B012B12D1029B4FF6FF724A
:1070200093420DD14FF4003300932423042208210E
:10703000054803F077FD054A054903481DF0AEFDFC
:1070400000BF05B05DF804FB704BFF3F0040FF3F01
:1070500085AE100008B54FF6FF710120FFF7D6FF8F
:1070600008BD00BF00B583B001900091019B00995D
:1070700018461BF031FE019B184603B05DF804FB77
:1070800000B583B001900091019B009918461BF058
:1070900049FE00BF03B05DF804FB00BF00B583B03C
:1070A0000190019B18461BF065FE0346184603B08D
:1070B0005DF804FB00B583B0019000910099019840
:1070C000FFF7DEFF019B184603B05DF804FB00BF2D
:1070D00000B583B001900198FFF7E0FF0346184622
:1070E00003B05DF804FB00BF00B585B003900291CA
:1070F0000192094901981EF095FD034618461EF0BD
:107100007DFF03461A460299039800F007F800BF76
:1071100005B05DF804FB00BF0024744900B585B0DC
:10712000039002910192039B183302991846FBF7D2
:10713000F3FD019903981DF0C7FB00BF05B05DF892
:1071400004FB00BF00B583B00190019A0121034800
:1071500003F01AFD00BF03B05DF804FBD84BFF3FFE
:1071600000B583B001900091009A3421019800F09D
:10717000B5F80346184603B05DF804FB00B583B0CC
:1071800001900091009A3521019800F0A7F803467C
:10719000184603B05DF804FB00B583B001900022EF
:1071A0000021044803F014FD0346184603B05DF8BF
:1071B00004FB00BFD84BFF3F00B583B00190019B9B
:1071C0000022102118461DF029FA019B0549184696
:1071D0001DF03CFAC8201AF05DFF00BF03B05DF857
:1071E00004FB00BF90D0030000B583B00190019B69
:1071F0000022082118461DF011FA019B0549184686
:107200001DF024FAC8201AF045FF00BF03B05DF856
:1072100004FB00BF40420F0000B583B00190144949
:10722000144803F0A3FC002307220021114803F0B7
:1072300075FD0123072200210E4803F007FD0023FE
:10724000002200210B4803F069FD002300220021E9
:10725000084803F0FBFC012301220121054803F04B
:107260005DFDC8201AF016FF00BF03B05DF804FBF7
:1072700040420F00D84BFF3F00B583B0019064201F
:107280001AF008FF012307220021054803F0DEFC65
:10729000C8201AF0FFFE00BF03B05DF804FB00BF7A
:1072A000D84BFF3F00B583B0019001230722002196
:1072B000094803F0CBFC64201AF0ECFE00230722FF
:1072C0000021054803F0C2FCC8201AF0E3FE00BF0D
:1072D00003B05DF804FB00BFD84BFF3F00B587B09B
:1072E00003900B4601928DF80B300023ADF8163059
:1072F00000238DF815304FF0FF31234818F09AF82D
:107300000398FFF759FF0398FFF7CCFF9DF80B3068
:107310001B029AB2BDF8163013439BB2ADF816307B
:107320009DF815309AB2BDF816301343ADF81630FB
:10733000039BBDF81620114618461DF0BDF9034603
:10734000ADF81230C8201AF0A5FE0398FFF794FF9D
:107350000398FFF749FFBDF8123003F40053002BE8
:1073600005D0094818F076F84FF0FF3308E0BDF873
:107370001230DAB2019B1A70034818F06BF8002340
:10738000184607B05DF804FBE845FF3F00B585B03F
:1073900001900B468DF8033013468DF80230002320
:1073A000ADF80E304FF0FF31244818F043F8019843
:1073B000FFF702FF0198FFF775FFBDF80E306FEA87
:1073C00043436FEA5343ADF80E309DF803301B0280
:1073D0009AB2BDF80E3013439BB2ADF80E309DF853
:1073E00002309AB2BDF80E301343ADF80E30019B57
:1073F000BDF80E20114618461DF05EF90346ADF8A3
:107400000C30C8201AF046FE0198FFF735FF0198AE
:10741000FFF7EAFEBDF80C3003F40053002B05D053
:10742000064818F017F84FF0FF3303E0034818F050
:1074300011F80023184605B05DF804FBE845FF3F4E
:1074400000B585B00190084611461A4603468DF8EE
:1074500003300B468DF8023013468DF801300023BF
:107460008DF80F309DF80130072B02D96FF0010322
:1074700040E00DF10F031A4600210198FFF72EFF9F
:107480000346002B0CBF01230023DBB2002B02D0EC
:107490004FF0FF332EE09DF8023083F00103DBB2A2
:1074A000002B10D09DF80130012202FA03F3DBB269
:1074B000DB43DAB29DF80F30DBB21340DBB2DBB254
:1074C0008DF80F300DE09DF80130012202FA03F330
:1074D000DAB29DF80F30DBB21343DBB2DBB28DF8CA
:1074E0000F309DF80F209DF8033019460198FFF7E3
:1074F0004DFF0346184605B05DF804FB00B583B0A8
:107500000190012300220021034803F09FFB00BFEC
:1075100003B05DF804FB00BFD84BFF3F00B583B05C
:107520000190002300220021034803F08FFB00BFDD
:1075300003B05DF804FB00BFD84BFF3F00B585B03A
:1075400001900B468DF80330002303930198FFF759
:1075500023FE0346002B0CBF01230023DBB2002BCC
:1075600008D09DF80320072300210198FFF768FF4A
:1075700003460EE00198FFF7D1FF9DF80320072393
:1075800000210198FFF75CFF03900198FFF7B6FF19
:10759000039B184605B05DF804FB00BF84B0019062
:1075A000009100238DF80F30009BB3F5C87F10D3F6
:1075B000009B43F2903293420BD8009BA3F5C87313
:1075C000284AA2FB03239B09DBB204338DF80F305A
:1075D00043E0009B43F29032934211D9009B44F266
:1075E000C04293420CD8009BA3F54E53103B1D4A5A
:1075F000A2FB0323DB09DBB244338DF80F302CE010
:10760000009B44F2C042934211D9009B45F6C05200
:1076100093420CD8009BA3F58943403B114AA2FB3F
:1076200003231B0ADBB24F338DF80F3015E0009BAC
:1076300045F6C052934210D9009B49F6404293420E
:107640000BD8009BA3F5BB43403B074AA2FB032397
:10765000DB09DBB257338DF80F309DF80F30184639
:1076600004B070471F85EB51D34D621000B585B053
:107670000190009100238DF80F30009BB3F5C87F77
:1076800004D3009B49F64042934202D94FF0FF33A6
:107690000EE000990198FFF781FF03468DF80F3047
:1076A0009DF80F301A4616210198FFF76FFE03462A
:1076B000184605B05DF804FB08B50B48FFF708FD58
:1076C00003464FF0000118461EF040FC0346002B15
:1076D00002D04FF07E5301E04FF0000319460248FC
:1076E000FFF7E8FC00BF08BD3C4CFF3F034B1B68A5
:1076F0000133024A136000BF704700BF9C4CFF3F3C
:10770000064B1A6813461B019B1A9B001A46044B32
:107710001A60024B00221A6000BF70479C4CFF3F6A
:10772000A04CFF3F00B583B00190084908481CF009
:10773000FBFB019B44334FF07E5206491846FFF78E
:10774000D3FC00BF03B05DF804FB00BFED76100072
:10775000444CFF3F0177100082B00190024B1B6840
:10776000184602B0704700BFA04CFF3F00B583B081
:107770000190092200210198FFF708FEA7220221AB
:107780000198FFF703FE0B2204210198FFF7FEFD8D
:10779000182207210198FFF7F9FD0F220B2101980C
:1077A000FFF7F4FD302210210198FFF7EFFD1422BE
:1077B00011210198FFF7EAFD1E2212210198FFF71F
:1077C000E5FD282213210198FFF7E0FD3222142164
:1077D0000198FFF7DBFD3C2215210198FFF7D6FD4C
:1077E000462216210198FFF7D1FD54221721019856
:1077F000FFF7CCFD572218210198FFF7C7FD5A2249
:1078000019210198FFF7C2FD5F221A210198FFF7A5
:10781000BDFD00BF03B05DF804FB00BF08B5012249
:107820000121034803F0D4F90346184608BD00BF00
:10783000D84BFF3F08B5FFF7F1FF0346002B0CBF05
:1078400001230023DBB2002B05D0044B1B68012170
:10785000184617F09DFE00BF08BD00BFD44BFF3F88
:1078600000B58BB005901748FFF76CFC6B464FF0E6
:10787000FF320121184617F09BFE07AB6A4607CA84
:1078800083E80700089B03F00103002B16D04FF09C
:10789000FF310D4817F0CEFD0C4B1B680321184635
:1078A00017F062FE0A4B1B689847084B1B680021C3
:1078B000184617F059FE044817F0CCFD142017F0B5
:1078C00087FED3E735781000E845FF3FD44BFF3FF4
:1078D0007845FF3F10B586B00390029100238DF8E4
:1078E00017300398FFF798FC0398FFF765FC03989F
:1078F000FFF7C2FC0398FFF777FC0398FFF736FF0A
:107900000DF117031A4600210398FFF7E7FC9DF8D5
:107910001730092B02D04FF0FF3329E0164B072216
:107920009A63039B1433154A15491846FFF7DCFB8D
:10793000029B002B1AD050201DF037F903461C463D
:10794000002301934FF400630093002300220D49AC
:10795000204617F09BFD0C4B1C600B4B1B68002B4B
:1079600004D00A4A029B1360002301E04FF0FF336A
:10797000184606B010BD00BF00C00140CDCC4C3D44
:10798000B976100061781000D44BFF3F7845FF3F77
:1079900000B585B003900291039B012B20D1029B7F
:1079A0004FF6FF7293421BD14FF4003300933623FE
:1079B000042208210C4803F0B5F80C4A0C490A4887
:1079C0001DF0ECF880210B48FFF74CFB4FF4804191
:1079D00009481CF021FA054A084907481DF0DEF85D
:1079E00000BF05B05DF804FBD84BFF3F0040FF3FF0
:1079F00085AE10003C4CFF3F444CFF3F913E1200CF
:107A000008B54FF6FF710120FFF7C2FF08BD00BFA8
:107A100000B585B00390029101920093039B029AF6
:107A20001A60019A039B5A60009A039B9A600A4964
:107A30000A4803F09BF8002301220021074803F0C5
:107A40006DF9012301220021044803F0FFF8039B94
:107A5000184605B05DF804FB40420F00A44CFF3F00
:107A600082B00190019B184602B0704710B586B0F5
:107A70000390029101920093029A019B1A44039B86
:107A80005B689A4202D8009B002B01D100235BE087
:107A90004FF0FF312E4817F0CDFC002301220021CA
:107AA0002C4803F0D3F814201AF0F4FA039B1B6857
:107AB0001B681B68039A1268032110469847039BB2
:107AC0001B681B681B68039A1068029A120C114607
:107AD0009847039B1B681B681B68039A1068029AEF
