:020000040010EA
:1020000000D8FF3F2DD8110069D811006BD81100FE
:102010006DD811006FD8110071D8110000000000B8
:102020000000000000000000000000000DA81100EA
:1020300075D811000000000077A81100ADA81100AC
:10204000A1C311000DC511007BD8110035BE1100D0
:102050007BD811007BD8110039B011007BD811005A
:102060007BD811007BD811007BD811007BD81100E0
:102070007BD811007BD811007BD811007BD81100D0
:102080007BD811007BD811007BD811007BD81100C0
:1020900000D8FF3F2DD8110069D811006BD811006E
:1020A0006DD811006FD8110071D811000000000028
:1020B0000000000000000000000000000DA811005A
:1020C00075D811000000000077A81100ADA811001C
:1020D000A1C311000DC511007BD8110035BE110040
:1020E0007BD811007BD8110039B011007BD81100CA
:1020F0007BD811007BD811007BD811007BD8110050
:102100007BD811007BD811007BD811007BD811003F
:102110007BD811007BD811007BD811007BD811002F
:1021200010B5054C237833B9044B13B10448AFF311
:1021300000800123237010BD4043FF3F00000000DA
:1021400044B112000C4B43B10C4810B50C49AFF32D
:1021500000800C48036823B910BD0A48036833B9EE
:102160007047094B002BF7D0BDE810401847064BCD
:10217000002BF5D0184700BF0000000044B112004A
:102180004443FF3F4043FF3F0000000001F040B9DF
:1021900008B5034801F06AFB4FF0FF3008BD00BFEF
:1021A0008C5B120030B50546ADF5017D114801F09C
:1021B0005DFB01F015F801460F4801F057FB4FF4A5
:1021C000007401F00DF82246014668461DF067FBD9
:1021D000696940A81FF026FB084B2146684600931A
:1021E00001F01AF80146064801F040FB0DF5017DAB
:1021F00030BD00BFA15B1200B25B1200AFBEADDE0E
:10220000BE5B120008B5034801F030FB4FF0FF3011
:1022100008BD00BF785B120030B5ADF5017D054605
:102220004FF4007400F0DCFF2246014668461DF0C2
:1022300036FBE96850A81FF0F5FA2146684600F021
:10224000EBFF0DF5017D30BD37B5002402A941F843
:10225000044D054601F008F9A04211DB09480A497E
:102260000A4B4160022181600421019A05601A60D5
:10227000074AC16082E818000261436103B030BDC3
:102280002046FBE76043FF3F5C43FF3F7843FF3F4F
:102290007C43FF3F01F0F2B801F036B901F04EB9CE
:1022A00010B4029C019B019410BC01F063B901F0D1
:1022B00053B910B4029C019B019410BC01F096B973
:1022C00001F0E0B901F006BA70B50D46064608F017
:1022D000F8FE0446F06808F0DFFE16490246204684
:1022E00008F016FF28681BF003FE08F0DEFE124916
:1022F0000246204608F00CFF68681BF00BFE08F051
:10230000D4FE0E490246204608F002FFA8681BF0E2
:10231000EFFD08F0CAFE0A490246204608F0F8FE22
:10232000204608F095FE0546204608F033FF284673
:1023300070BD00BFCD5B1200D95B1200DF5B1200E5
:10234000E55B12007047000038B5054CA4F5C07578
:10235000183C20461BF0BAFAAC42F9D138BD00BF98
:102360006445FF3FF8B5054606460C4B06F1880468
:1023700045F8043B284603F02FF8204603F02CF8DC
:102380004DB1AC4207D0A4F17000A4F1840706F06F
:102390000FFF3C46F5E73046F8BD00BF905E1200E7
:1023A00010B50446FFF7DEFF20461BF089FA2046F1
:1023B00010BD000010B50446064B403003F1180272
:1023C00040F8403C4C33026043601BF02BF8204641
:1023D00010BD00BF54A91200A0F14000EAE7A0F12F
:1023E0004400E7E710B50446054A0830206011466E
:1023F0001BF07DFA0023226863601370204610BD35
:102400005175120010B504461BF05AFA204610BD53
:1024100010B50446034B002140F8043B02F016FDC2
:10242000204610BD905E1200842303FB010004309F
:1024300002F0D2BF842303FB010010B51146043023
:1024400002F062FE044638B10146054801F00EFA7A
:102450004FF0FF34204610BD024801F007FAF9E7BB
:10246000F25D1200415E120070B5842404FB010489
:102470000434054620460E4602F068FD014628B1A8
:10248000114801F0F3F94FF0FF3070BD0F4801F033
:10249000EDF9204603F0E6F850B10D4801F0E6F9F9
:1024A0000921204602F0F6FD014618B10948E8E787
:1024B0000948F3E7094801F0D9F931462846BDE853
:1024C00070400322FFF7B6BFEB5B1200305C1200D6
:1024D0006A5C1200D05C1200B05C12002A5D12002F
:1024E00070B5064610460C4615461CF069F9842165
:1024F00001FB04640146201D02F006FF044640B1C2
:1025000002462946054801F0B1F94FF0FF34204654
:1025100070BD2946024801F0A9F9F8E7795D12007B
:10252000BB5D120010B50446FFF744FF20461BF0C8
:10253000C7F9204610BDA0F14000F3E7A0F1440028
:10254000F0E7000007B52D48FFF74CFF2C4A2D4956
:102550002A481BF0A4F900222B4B03F5C070194642
:1025600043F8042C43F8083C01F8182B19615A6110
:102570001A7630339842F2D1214A244900201BF0C8
:102580008EF92348FFF72EFF1D4A1E4920481BF0F5
:1025900086F92048FFF726FF194A1A491D481BF003
:1025A0007EF91D48FFF71EFF154A16491A481BF011
:1025B00076F94FF0FF334022009320211023174873
:1025C0001AF066FE0E4A164914481BF068F90023FB
:1025D0000222012113481AF0A5FD094A12491148A7
:1025E0001BF05DF9114815F091FE054A10490F489E
:1025F00003B05DF804EB1BF052B900BFCC43FF3FC2
:102600000040FF3FF9D81100EC43FF3F4923100081
:102610008443FF3FB443FF3F9C43FF3F6445FF3F7C
:10262000452310009045FF3FB52310007C45FF3F38
:10263000958311007047000038B5054CA4F5C075AE
:10264000183C20461BF042F9AC42F9D138BD00BF1E
:10265000C847FF3F73B50026134C02AD05F8016D66
:10266000124801F003F92946204603F059FD9DF870
:1026700007100F4801F0FAF8294620468DF8076048
:1026800003F05CFD9DF807100A4801F0EFF82046C2
:102690008DF8076003F022FF142018F02DFB204670
:1026A00003F00CFF02B070BDC847FF3FBA5E1200D6
:1026B000D35E1200E05E120010B504461BF000F974
:1026C000204610BD10B50446054A0830206011466A
:1026D0001BF00DF90023226863601370204610BDC3
:1026E0005175120010B50446044B03601AF04CFFFC
:1026F00020461BF065F8204610BD00BF10AA12004E
:1027000010B504464430FFF7EDFF04F11400FFF765
:10271000E9FF204610BD10B50446FFF7E3FF204651
:102720001BF0CEF8204610BD014B0360704700BF80
:10273000F85E120010B50849084804F0ABF80446EA
:1027400030B1074801F092F84FF0FF34204610BD39
:10275000024803F0C7FFF9E755261000C847FF3FBE
:10276000985E120038B50D460A4C0121204603F050
:10277000C5FE2946204603F059FF204603F09EFE81
:10278000204603F0C9FF0146034801F06FF800201E
:1027900038BD00BFC847FF3FB05E120008B5024811
:1027A00003F09CFE002008BDC847FF3F73B500251D
:1027B0003948FFF787FF3949394A37481BF06FF826
:1027C000384B03F5C0711A4603E9280002F8185B7C
:1027D0001A615D611D7630339942F4D14FF0FF36B6
:1027E0002F4A314900201BF05AF83048FFF76AFFA2
:1027F0002B4A2A492D481BF052F82D48FFF762FF5B
:10280000274A26492A481BF04AF82A48FFF75AFF68
:10281000234A224927481BF042F800961023402201
:10282000202125481AF034FD1D4A244922481BF076
:1028300036F800230222012121481AF073FC184ABD
:1028400020491F48204C1BF02AF8204815F05EFD57
:10285000134A1F491D481BF022F810234022202153
:10286000009620461AF014FD1A4E04F114001AF0D6
:1028700073FF04F144006661E56225641AF06CFFA1
:102880002046074A14496664E565256702B0BDE83D
:1028900070401BF004B800BF3046FF3FF9D811006C
:1028A0000040FF3F5046FF3F39261000E845FF3FFC
:1028B0001846FF3F0046FF3F3C48FF3F45231000BE
:1028C0006448FF3FB5231000C847FF3F5048FF3F13
:1028D0009583110010AA12000127100038B5054C8D
:1028E000A4F5C075183C20461AF0F0FFAC42F9D1AF
:1028F00038BD00BF9C4AFF3F10B50446054A08306A
:10290000206011461AF0F3FF002322686360137001
:10291000204610BD5175120037B54FF0FF35044603
:10292000094B402240F8043B2021009510231AF067
:10293000AFFC00952A230422082104F1180006F0B8
:1029400087FA204603B030BDB4621200002310B5F0
:10295000041D80F87C30204601F0D2F9014630B1E8
:10296000114800F083FF4FF0FF34204610BD0F48A0
:1029700000F07CFF0E490F4A204601F055FB01464E
:1029800008B10D48EDE70D4800F070FF2046012129
:1029900001F052FA044610B101460948E1E709483E
:1029A00000F064FFE1E700BF005F1200335F120038
:1029B000000034420000C0405B5F1200985F1200CC
:1029C000CA5F12001B601200F8B5061D05463046AE
:1029D0000F4601F0C9FE044638B10146104800F028
:1029E00045FF4FF0FF342046F8BD0E4800F03EFF93
:1029F00095F87C304BB9304601F05AFC014608B1DD
:102A00000948ECE7094800F031FF012F0CBF012312
:102A1000022395F97C20134385F87C30E3E700BF5F
:102A2000E56012002B611200666112009B611200CA
:102A3000F8B5061D054630460F4601F003FF044673
:102A400038B10146114800F011FF4FF0FF34204625
:102A5000F8BD0F4800F00AFF012F0CBF6FF0010313
:102A60006FF0020395F87C20134085F87C30002B32
:102A7000EDD1304601F050FC044610B10146054846
:102A8000E1E7054800F0F2FEE1E700BFC561120092
:102A90000C621200486212007E62120010B50446F9
:102AA000074B01210360FFF7C3FF02212046FFF718
:102AB000BFFF04F1180006F07BFB204610BD00BFED
:102AC000B462120010B50446FFF7E8FF20461AF082
:102AD000F7FE204610BD000010B50430144692B237
:102AE00001F050FA2146024620B1054800F0BEFE32
:102AF000002010BD034800F0B9FE4FF0FF3010BDBC
:102B000061601200A860120007B52D48FFF7F4FEBF
:102B10002C4A2D492A481AF0C2FE00222B4B03F5FD
:102B2000C070194643F8042C43F8083C01F8182BF0
:102B300019615A611A7630339842F2D1214A2449F8
:102B400000201AF0ACFE2348FFF7D6FE1D4A1E49AE
:102B500020481AF0A4FE2048FFF7CEFE194A1A4971
:102B60001D481AF09CFE1D48FFF7C6FE154A16497F
:102B70001A481AF094FE4FF0FF33402200932021B0
:102B8000102317481AF084FB0E4A164914481AF00D
:102B900086FE00230222012113481AF0C3FA094AD3
:102BA000124911481AF07BFE114815F0AFFB054A97
:102BB00010490F4803B05DF804EB1AF070BE00BF77
:102BC0000449FF3F0040FF3FF9D811002449FF3F6F
:102BD000DD281000BC48FF3FEC48FF3FD448FF3FD2
:102BE0009C4AFF3F45231000C44AFF3FB523100015
:102BF000B04AFF3F9583110038B5054CA4F5C07568
:102C0000183C20461AF062FEAC42F9D138BD00BF34
:102C1000FC4CFF3F0000000070B504460146204810
:102C200000F024FE204608F0D7FB1E49064608F0B7
:102C300012FA48B3D0E9064500220023204629466F
:102C40001BF024FC38B11848FFF7A8FD304608F007
:102C5000A1FA002070BD0EA3D3E900232046294627
:102C60001BF01EFC80B90CA3D3E9002320462946A3
:102C70001BF034FC40B9294620461BF04FFC0146AE
:102C80000948FFF76FFDE1E74FF0FF3070BD00BF6F
:102C9000000000000030B14000000000002CCA40DD
:102CA000E9621200F3621200044EFF3F70B5044661
:102CB0000146284800F0DAFD204608F08DFB264941
:102CC000064608F0C8F910B94FF0FF3070BDD0E9E2
:102CD00006450022214B204629461BF0E1FB002837
:102CE000F2D100224FF08043204629461BF0F6FB2C
:102CF0000028E9D1204629460022184B1BF0C6FBCC
:102D000017490028304614BF0124022408F0A3F913
:102D100005460028D8D000F11801D1E900010022B1
:102D200000231BF0DBFB214680B10E48FFF74CFE71
:102D3000D5E906011BF0F2FB214602460948FFF7E0
:102D4000CBFE304608F026FA002070BD0548FFF79C
:102D50006FFEF6E7E9621200DE6212000000F03F4B
:102D6000E6621200FC4CFF3F2DE9F84304460146A1
:102D7000254800F07BFD204608F02EFB2349054640
:102D800008F069F9804618B94FF0FF30BDE8F883C4
:102D90001F49284608F05FF90028F5D0D0E90667FA
:102DA00000221C4B304639461BF07AFB0028EBD141
:102DB00000224FF08043304639461BF08FFB81469E
:102DC0000028E1D10022134B304639464FF0010470
:102DD0001BF05CFB00B14C46E4B221460E48FFF705
:102DE00043FBD8E906011BF099FB214602460A483D
:102DF000FFF776FB21460848FFF716FB284608F048
:102E0000C9F90020BDE8F883E9621200BC62120033
:102E1000DE6212000000F03F7C4DFF3F73B50446B8
:102E20000146144802F080FF1349124802F0C8FF1F
:102E300060601248A56803F0AFF885420646A060BE
:102E40000F4B08D11A68511C092A196003DC4FF096
:102E5000FF3002B070BD002560681D601BF05AF89D
:102E60002268CDE900010748314600F0FFFC284602
:102E7000EFE700BF204EFF3F6666F640004FFF3F82
:102E8000084EFF3FC262120010B50446243006F01F
:102E90008FF9204610BD000010B50446054A0830E1
:102EA000206011461AF023FD00232268636013702E
:102EB000204610BD5175120030B54FF07E5087B0DE
:102EC00017F004FF454800F0D1FC98238DF804303A
:102ED0004F238DF80530EE238DF8063000238DF852
:102EE0000730A1238DF80830032301A93C488DF851
:102EF000093003F0A9FF014668B9394804F06EF8BB
:102F00000146384800F0B2FC354803F0D1FF0146D5
:102F100028B1354800E0354800F0A8FC16E03048FC
:102F200003F0EAFF04462E4804F00CF805462C484E
:102F300004F02EF8214603462A462D4800F096FC60
:102F400002212C4802F0E8FD044610B14FF0FF3496
:102F500041E0294800F08AFC4FF07E5017F0B6FEA1
:102F60002648FFF7F3FC2648FFF7E4FB204600F075
:102F70001BFE01460090234800F078FC06F062F941
:102F8000204600F011FE06AB43F8180D18461BF062
:102F9000A4FE01461C4800F069FC1C491C4806F0D0
:102FA000CFF91C491C4806F0CBF91C491C4806F017
:102FB000C7F906F0A5FA03A8FFF730FF0028FADBEF
:102FC00003A806F0F9FA06F019FB03A9154806F064
:102FD0004DFB06F099FB204607B030BDF7621200AA
:102FE000244EFF3F08631200526312001D6312005B
:102FF00039631200204EFF3F71631200FC4CFF3F0B
:10300000044EFF3F8F6312009C631200692D100075
:10301000A6631200AD2C1000AC5E1200192C10003B
:10302000AC6312001D2E100007B53D48FFF734FFBA
:103030003C4A3D493A481AF032FC00223B4B03F52A
:10304000C070194643F8042C43F8083C01F8182BCB
:1030500019615A611A7630339842F2D1314A3449B3
:1030600000201AF01CFC3348FFF716FF2D4A2E49AA
:1030700030481AF014FC3048FFF70EFF294A2A495D
:103080002D481AF00CFC2D48FFF706FF254A26496B
:103090002A481AF004FC4FF0FF334022009320210D
:1030A000102327481AF0F4F81E4A264924481AF03B
:1030B000F6FB00230222012123481AF033F8194AB3
:1030C000224921481AF0EBFB214815F01FF9154A57
:1030D00020491F481AF0E3FB1F4803F0A5FE114AE0
:1030E0001E491D481AF0DBFB1D48FFF71DFB0D4A6A
:1030F0001C491B481AF0D3FB1B48FFF789F9094A02
:103100001A4919481AF0CBFB1948FFF705FC054A84
:103110001849174803B05DF804EB1AF0C0BB00BFB4
:10312000644BFF3F0040FF3FF9D81100844BFF3F45
:10313000F92B10001C4BFF3F4C4BFF3F344BFF3F24
:103140000C4EFF3F45231000184FFF3FB5231000E2
:10315000044FFF3F95831100244EFF3F892E10003E
:10316000044EFF3F352610007C4DFF3F65231000C5
:10317000FC4CFF3F9D2A100038B5054CA4F5C075E6
:10318000183C20461AF0A2FBAC42F9D138BD00BF72
:103190005051FF3F044B10B504460360806808B1EE
:1031A0001AF084FB204610BDBC63120010B5044623
:1031B000FFF7F0FF20461AF083FB204610BD000009
:1031C00010B50446054A0830206011461AF08FFBFE
:1031D0000023226863601370204610BD51751200F1
:1031E0001FB54FF480734FF48022094901A803F002
:1031F000FBFB084B01A85A689B68110A03F022FCEC
:10320000044601A803F018FC204604B010BD00BF1E
:103210005C51FF3F5051FF3F7FB50E46054640B31E
:10322000154C4FF480734FF48022144901A803F029
:10323000DBFB32462946A0681CF031FBA3686168BD
:1032400001AA0F4800F012FB6268A368110A01A8E6
:1032500003F06EFC0446014684F00104094800F0C6
:1032600005FBE4B201A8644203F0E6FB204604B08B
:1032700070BD4FF0FF34F9E75051FF3F5C51FF3F05
:10328000C4631200D963120013B53F48FFF798FFDB
:103290003E4A3F493C481AF002FB00223D4B03F5F1
:1032A000C070194643F8042C43F8083C01F8182B69
:1032B00019615A611A7630339842F2D14FF0FF34D7
:1032C000324A354900201AF0EAFA3448FFF778FF0D
:1032D0002E4A2F4931481AF0E2FA3148FFF770FFC1
:1032E0002A4A2B492E481AF0DAFA2E48FFF768FFCF
:1032F000264A27492B481AF0D2FA0094102340227C
:103300002021294819F0C4FF204A284926481AF0EC
:10331000C6FA002302220121254819F003FF1B4AA7
:10332000244923481AF0BBFA234814F0EFFF174A48
:10333000224921481AF0B3FA009410234022202198
:103340001F4819F0A5FF114A18491D481AF0A7FA9D
:103350001C4C1D4B002223604FF4007308211848B9
:10336000636019F0CDFF1949154819F0E1FF606855
:103370001AF09AFAA0602046044A154902B0BDE846
:1033800010401AF08CBA00BFB84FFF3F0040FF3F1B
:10339000F9D81100D84FFF3F79311000704FFF3F2F
:1033A000A04FFF3F884FFF3F7051FF3F4523100064
:1033B0009851FF3FB52310008451FF3F95831100C2
:1033C0005C51FF3F5051FF3FBC63120040420F0071
:1033D0009531100038B5054CA4F5C075183C204651
:1033E0001AF074FAAC42F9D138BD00BFD053FF3F98
:1033F00010B50446054A0830206011461AF077FAE5
:103400000023226863601370204610BD51751200BE
:1034100030B5054693B0124803F0E0FD01460BA815
:103420001EF000FA0AAB039309AB029308AB0193B9
:1034300005AC07AB0093224606AB0A490BA81EF069
:103440005BF9062809D1002354F82320EA540133FC
:10345000062BF9D1002013B030BD4FF0FF30FAE752
:10346000244EFF3FE663120008B50A4601460248B3
:1034700004F038FB08BD00BF244EFF3F02282DE9B1
:10348000F8430D460ED1112A0CD81D4CD440E4430C
:1034900014F0010406D11B4E2701BB5983B101343E
:1034A000082CF9D14FF0FF3426E028201AF0E6F975
:1034B000814605F03FFB46F80790C8F808501BE02E
:1034C00006EB0708012DC8F80C30EED0022DE9D12B
:1034D00010201AF0D3F9814605F0C3FB46F8079097
:1034E000C8F80850484605F0C2FB1DF071FFC0F354
:1034F0000E01484605F07AFC2046BDE8F88300BF7F
:1035000041000200D053FF3F082838B511D80A4BBC
:1035100000011C581D1864B1204605F0FFFA204632
:103520001AF0CEF91022002128461CF0DDF9002007
:1035300038BD4FF0FF3038BDD053FF3F082805D8C5
:10354000044B0001185808B105F03BBB4FF0FF30A9
:10355000704700BFD053FF3F082805D8044B000137
:10356000185808B105F057BB4FF0FF30704700BF47
:10357000D053FF3F2DE9F04108288CB00E46174686
:1035800098462BD8174D04012B593BB3D8F804208B
:10359000154912BA130E0193C2F307430292009326
:1035A00003A8C2F30723D2B21EF082F807A805F0E1
:1035B000FDF9B8F8022052BA03A907A805F014FAD9
:1035C00028593B46324607A905F0ECFB044607A8FC
:1035D00005F0F8F920460CB0BDE8F0814FF0FF345B
:1035E000F8E700BFD053FF3F166412002DE9F04307
:1035F000082889B00546884691461E4638D81E4F91
:1036000004013B59002B33D001461C4800F02EF931
:1036100003A805F0CBF94B46424603A9385905F0FB
:1036200055FB044602462946144800F01FF9002CB9
:103630001BDB03A805F016FA0DF10B0301930DF146
:103640000A03009302AA0DF109030D491EF054F874
:10365000029B03A8736005F00BFA708003A805F0C5
:10366000B1F9204609B0BDE8F0834FF0FF34F5E72B
:103670004FF0FF34F5E700BFD053FF3F0464120062
:103680001664120030B5082889B00D461AD80F4BC1
:1036900000011C58B4B14A6804A812BA130E019371
:1036A000C2F30743039200930949C2F30723D2B23E
:1036B0001DF0FEFF6A8852BA04A9204605F047FAB9
:1036C00009B030BD4FF0FF30FAE700BFD053FF3FE5
:1036D00016641200082810B51ED840F6FF74A142E7
:1036E0001AD1A2F58052053A012A18D8029A082A5E
:1036F00018D17BB14FF47A711A685B6893FBF1F3D0
:1037000001FB0232002A05DD084B00010021185898
:1037100005F0D8F9002010BD4FF0FF3010BD6FF05C
:10372000010010BD6FF0020010BD00BFD053FF3F7D
:1037300007B53048FFF75CFE2F4A30492D481AF094
:10374000AEF800222E4B03F5C070194643F8042C46
:1037500043F8083C01F8182B19615A611A76303386
:103760008342F2D1244A274900201AF098F82648CB
:10377000FFF73EFE204A214923481AF090F82348DB
:10378000FFF736FE1C4A1D4920481AF088F82048E9
:10379000FFF72EFE184A19491D481AF080F84FF01D
:1037A000FF3340220093202110231A4819F070FDA6
:1037B000114A194917481AF072F800230222012110
:1037C000164819F0AFFC0C4A154914481AF067F86E
:1037D000144814F09BFD084A134912481AF05FF888
:1037E00000231946114A99501033802BFBD103B0A6
:1037F0005DF804FB3852FF3F0040FF3FF9D811004D
:103800005852FF3FD5331000F051FF3F2052FF3F89
:103810000852FF3F5054FF3F452310007854FF3FAC
:10382000B52310006454FF3F95831100D053FF3F30
:1038300038B5054CA4F5C075183C20461AF046F87A
:10384000AC42F9D138BD00BFB056FF3F10B50446B9
:10385000054A0830206011461AF049F80023226812
:1038600063601370204610BD517512000FB4F7B598
:10387000114E08AD4FF0FF31304655F8047B14F07F
:103880006BFD00230D4C3A46237075212B462046D4
:1038900001951FF09BFD0A4920461DF09CFF214623
:1038A000084819F057FE304614F066FD03B0BDE835
:1038B000F04004B0704700BF9457FF3F1C57FF3FD4
:1038C000156A1200F056FF3F07B53748FFF7BEFFF5
:1038D000364A3749344819F0E2FF0022354B03F5E8
:1038E000C070194643F8042C43F8083C01F8182B23
:1038F00019615A611A7630339842F2D12B4A2E4917
:10390000002019F0CCFF2D48FFF7A0FF274A2849D7
:103910002A4819F0C4FF2A48FFF798FF234A244990
:10392000274819F0BCFF2748FFF790FF1F4A20499E
:10393000244819F0B4FF4FF0FF33402200932021B8
:103940001023214819F0A4FC184A20491E4819F0F8
:10395000A6FF0023022201211D4819F0E3FB134AB0
:103960001C491B4819F09BFF1B4814F0CFFC0F4A61
:103970001A49194819F093FF00234FF400724FF4CD
:103980008071174819F0CEFB084A1249144819F003
:1039900086FF144814F0BAFC044A1049114803B0D9
:1039A0005DF804EB19F07BBF1855FF3F0040FF3F67
:1039B000F9D811003855FF3F31381000D054FF3F7F
:1039C0000055FF3FE854FF3F0857FF3F45231000D5
:1039D000BC57FF3FB5231000A857FF3F9583110048
:1039E000B056FF3F9457FF3F38B5141E0FDB094810
:1039F00000230068FEF752FC0546224601460648B1
:103A0000FFF734FF002D14BF2C466FF00104204651
:103A100038BD00BF2440FF3F3364120038B5141E88
:103A20000FDB094800230068FEF741FC05462246EB
:103A300001460648FFF71AFF002D14BF2C466FF011
:103A40000104204638BD00BF2440FF3F226412001D
:103A500038B501FB00F4204600F036F90546224651
:103A600000211BF041FF284638BD000010B5044678
:103A700007F090FE1F4B21461F481C60FFF7F6FE23
:103A800008F05CFA1D4B1E4C186007F0A7FE206082
:103A900010B91C48FFF7EAFE00222068114607F023
:103AA000BFFE2068184907F0AFFC2068174907F0EF
:103AB000ADFC206807F0BFFC154C206010B915481C
:103AC000FFF7D4FE0B49206807F0A2FC09492068E3
:103AD00007F0A0FC206807F0C3FE012805D00E48BF
:103AE000FFF7C4FE4FF0FF3010BD0C48FFF7BEFEDD
:103AF000002010BD2440FF3F596412001858FF3FBA
:103B00001458FF3F6D6412001D3A1000E93910008F
:103B10001C58FF3F7F64120091641200A2641200DF
:103B200038B50D46144611460548FFF79FFE054B74
:103B3000224629461868BDE8384007F0A3BC00BFFC
:103B4000B36412001C58FF3F38B50D4614461146A9
:103B50000548FFF78BFE054B224629461868BDE84D
:103B6000384007F082BC00BFBD6412001C58FF3F04
:103B700008B50948FFF77AFE084B186807F071FC92
:103B8000074B186807F053FC07F02EFF0548FFF7B6
:103B90006DFE002008BD00BF446412001C58FF3FAA
:103BA0001458FF3F4E64120038B5094B044618689C
:103BB0001AF006FE0546074819F07CFD0146284626
:103BC0001AF04AFD1BF016F804B1206038BD00BFA2
:103BD0003058FF3F2058FF3F30B5054689B00020E0
:103BE000FFF7E2FF08AB43F8040D18461BF0DEFBBD
:103BF00004460B4819F074FD23696269049021683A
:103C000001330391616802F26C720291A168284647
:103C10000191E168009103491DF04AFD09B030BDF2
:103C20002058FF3FC764120010B504460020FFF77C
:103C3000BBFF2060024819F02FFD6060002010BD1E
:103C40002058FF3F10B5044601680548FFF70EFEF7
:103C50002268044B04481A6019F06CFD002010BD66
:103C6000EB6412003058FF3F2058FF3F08B517F0B3
:103C700043F8002008BD0000014819F0C9BC00BF8E
:103C80002058FF3FEFF3058303B100BE70470000EB
:103C90000848094A08B5121A00211BF025FE16F043
:103CA0006BFD1BF02DFC17F091FD19F0F1F91BF0E5
:103CB0002FF800BF4043FF3F0877FF3F022801DD98
:103CC00019F07CB90120704708B5FFF7DBFFBDE8AC
:103CD00008401BF0A5BD08B5FFF7D4FFBDE80840BC
:103CE0001DF0B0BB08B5FFF7CDFFBDE808401BF0E5
:103CF0009FBD08B501201BF00BF808B5FFF7F9FFD1
:103D000000B585B00190019800F088FF019800F09F
:103D1000E3FF019801F06CF80DF10A031A4618212F
:103D2000019800F00DFE0390039B13F1020F02D1E6
:103D30006FF001037AE00DF10A031A46172101988A
:103D400000F0FEFD0390039B13F1020F02D16FF010
:103D500001036BE0019801F021F80390039B002B15
:103D600001D0039B62E00221019800F017FC039050
:103D7000039B002B01D0039B58E00221019800F027
:103D80004DFB039B002B01D0039B4FE000210198CA
:103D900000F084FB0390039B002B01D0039B45E0C4
:103DA0000021019800F0BAFB0390039B002B01D087
:103DB000039B3BE00321019800F070FC0390039B00
:103DC000002B01D0039B31E00121019800F026FC7B
:103DD0000390039B002B01D0039B27E0154901981A
:103DE00000F0CEFA0390039B002B01D0039B1DE053
:103DF0004FF000020121019800F05CF80390039B52
:103E0000002B01D0039B11E04FF00002022101982A
:103E100000F050F80390039B002B01D0039B05E0BA
:103E20005821019800F07AFC0390039B184605B0D6
:103E30005DF804FBECB1040000B585B001900B46C1
:103E40008DF803300DF10A031A460821019800F09D
:103E500063FD034613F1020F0CBF01230023DBB205
:103E6000002B02D06FF001031FE0BDF80A3023F0F1
:103E700003039BB2ADF80A309DF803309AB2BDF847
:103E80000A3013439BB2ADF80A30BDF80A301A4627
:103E90000821019800F022FE0390039B13F1020F0A
:103EA00002D16FF0010300E00023184605B05DF871
:103EB00004FB00BF00B58BB003900B4601928DF858
:103EC0000B300023ADF826302C4B08934FF0000345
:103ED0000793089901981AF083FE0346002B06D138
:103EE000079901981AF05EFE0346002B02D06FF08E
:103EF00002033FE0224901981AF0B6FC03461F492D
:103F000018461AF065FD034618461AF099FE034656
:103F1000ADF81A30BDF81A30ADF826309DF80B30E8
:103F2000012B02D0022B0FD01DE0BDF826301A461F
:103F30000921039800F0D2FD0590059B13F1020FB3
:103F400014D16FF0010315E0BDF826301A460A219E
:103F5000039800F0C3FD0590059B13F1020F07D1F4
:103F60006FF0010306E06FF0020303E000BF00E022
:103F700000BF002318460BB05DF804FB0000C842E8
:103F800000C07F4400B587B001900B468DF8033028
:103F90001346ADF800300023ADF8163040F2FF3381
:103FA000ADF81430BDF80020BDF814309A4202D9A3
:103FB0006FF0020333E0BDF80030ADF81230BDF809
:103FC0001230ADF816309DF80330012B02D0022BD1
:103FD0000FD01DE0BDF816301A460921019800F0F7
:103FE0007DFD0390039B13F1020F14D16FF00103C9
:103FF00015E0BDF816301A460A21019800F06EFD52
:104000000390039B13F1020F07D16FF0010306E049
:104010006FF0020303E000BF00E000BF002318467A
:1040200007B05DF804FB00BF00B589B003900291B2
:104030000192019902981AF00FFB0346964918461F
:104040001AF0CEFD0346002B02D06FF0020306E10A
:10405000029819F05FFF84A3D3E900231AF03EFA17
:104060000346002B02D08D4B029308E08C49029846
:104070001AF098FD0346002B01D08A4B0293894920
:1040800002981AF085FD0346002B03D000238DF81B
:104090001F3014E0824902981AF0DCFA0346824984
:1040A00018461AF0E1FB0346804918461AF090FCC6
:1040B000034618461AF0C4FD03468DF81F300DF173
:1040C00016031A460321039800F026FC034613F159
:1040D000020F0CBF01230023DBB2002B02D06FF0D4
:1040E0000103BCE0BDF8163023F07F039BB2ADF8AE
:1040F00016309DF81F309AB2BDF8163013439BB2AC
:10410000ADF81630BDF816301A460321039800F0BA
:10411000E5FC0690019819F0FDFE55A3D3E90023B4
:104120001AF0DCF90346002B03D007238DF81E306C
:1041300062E0019819F0EEFE4FA3D3E900231AF0D4
:10414000CDF90346002B03D007238DF81E3053E032
:10415000019819F0DFFE4AA3D3E900231AF0BEF953
:104160000346002B03D006238DF81E3044E001984F
:1041700019F0D0FE44A3D3E900231AF0AFF90346A7
:10418000002B03D005238DF81E3035E0019819F07F
:10419000C1FE3FA3D3E900231AF0A0F90346002B88
:1041A00003D004238DF81E3026E04FF080410198A3
:1041B0001AF016FD0346002B03D003238DF81E30A2
:1041C0001AE04FF07F5101981AF00AFD0346002BC8
:1041D00003D002238DF81E300EE04FF07E5101987F
:1041E0001AF0FEFC0346002B03D001238DF81E308D
:1041F00002E000238DF81E300DF116031A4602214D
:10420000039800F089FB034613F1020F0CBF012352
:104210000023DBB2002B02D06FF001031FE0BDF8DA
:10422000163023F007039BB2ADF816309DF81E3010
:104230009AB2BDF8163013439BB2ADF81630BDF8F4
:1042400016301A460221039800F048FC0690069B9F
:1042500013F1020F02D16FF0010300E000231846B2
:1042600009B05DF804FB00BF6666666666065040EE
:1042700033333333333317406666666666661340FE
:104280003333333333330F40333333333333074034
:1042900033333333333303400000884233338042B7
:1042A00000007041000030410000FE42666644425A
:1042B00000B585B001900DF10E031A460221019858
:1042C00000F02AFB034613F1020F0CBF0123002369
:1042D000DBB2002B02D06FF0010319E0BDF80E3005
:1042E00043F020039BB2ADF80E30BDF80E301A46F5
:1042F0000221019800F0F2FB0346002B0CBF0123C2
:104300000023DBB2002B01D0002301E06FF001039A
:10431000184605B05DF804FB00B585B001900DF1BD
:104320000E031A460221019800F0F6FA034613F133
:10433000020F0CBF01230023DBB2002B02D06FF071
:10434000010319E0BDF80E3023F020039BB2ADF855
:104350000E30BDF80E301A460221019800F0BEFB67
:104360000346002B0CBF01230023DBB2002B01D03E
:10437000002301E06FF00103184605B05DF804FB6F
:1043800000B587B001900091234A009BB2FBF3F384
:104390000593059B072B02D9059B262B02D96FF0AD
:1043A000020335E00DF10E031A460121019800F0D9
:1043B000B3FA034613F1020F0CBF01230023DBB253
:1043C000002B02D06FF0010322E0BDF80E3023F085
:1043D000F8039BB2ADF80E30059B9BB2073B9BB236
:1043E000DB009AB2BDF80E3013439BB2ADF80E302D
:1043F000BDF80E301A460121019800F06FFB0490C1
:10440000049B13F1020F02D16FF0010300E00023BF
:10441000184607B05DF804FB00127A0000B585B0BD
:1044200001900B468DF803300DF10A031A46022164
:10443000019800F071FA034613F1020F0CBF01233B
:104440000023DBB2002B02D06FF0010322E0BDF8A5
:104450000A3023F018039BB2ADF80A309DF8033000
:10446000DB009AB2BDF80A309BB213439BB29BB2F9
:10447000ADF80A30BDF80A301A460221019800F062
:104480002DFB0390039B13F1020F02D16FF0010388
:1044900000E00023184605B05DF804FB00B585B0C8
:1044A00001900B468DF803300DF10A031A460221E4
:1044B000019800F031FA034613F1020F0CBF0123FB
:1044C0000023DBB2002B02D06FF0010322E0BDF825
:1044D0000A3023F4C0739BB2ADF80A309DF8033064
:1044E000DB009AB2BDF80A309BB213439BB29BB279
:1044F000ADF80A30BDF80A301A460221019800F0E2
:10450000EDFA0390039B13F1020F02D16FF0010348
:1045100000E00023184605B05DF804FB00B585B047
:1045200001900B468DF803300DF10A031A46052160
:10453000019800F0F1F9034613F1020F0CBF0123BB
:104540000023DBB2002B02D06FF0010322E0BDF8A4
:104550000A3023F4C0739BB2ADF80A309DF80330E3
:104560001B029AB2BDF80A309BB213439BB29BB2B6
:10457000ADF80A30BDF80A301A460521019800F05E
:10458000ADFA0390039B13F1020F02D16FF0010308
:1045900000E00023184605B05DF804FB00B585B0C7
:1045A00001900B468DF803300DF10A031A460121E4
:1045B000019800F0B1F9034613F1020F0CBF01237B
:1045C0000023DBB2002B02D06FF0010322E0BDF824
:1045D0000A3023F006039BB2ADF80A309DF8033091
:1045E0005B009AB2BDF80A309BB213439BB29BB2F8
:1045F000ADF80A30BDF80A301A460121019800F0E2
:104600006DFA0390039B13F1020F02D16FF00103C7
:1046100000E00023184605B05DF804FB00B585B046
:1046200001900B468DF803300DF10A031A46012163
:10463000019800F071F9034613F1020F0CBF01233A
:104640000023DBB2002B02D06FF0010322E0BDF8A3
:104650000A3023F440739BB2ADF80A309DF8033062
:104660001B029AB2BDF80A309BB213439BB29BB2B5
:10467000ADF80A30BDF80A301A460121019800F061
:104680002DFA0390039B13F1020F02D16FF0010387
:1046900000E00023184605B05DF804FB00B585B0C6
:1046A00001900B468DF803300DF10A031A460321E1
:1046B000019800F031F9034613F1020F0CBF0123FA
:1046C0000023DBB2002B02D06FF0010322E0BDF823
:1046D0000A3023F4C0739BB2ADF80A309DF8033062
:1046E000DB019AB2BDF80A309BB213439BB29BB276
:1046F000ADF80A30BDF80A301A460321019800F0DF
:10470000EDF90390039B13F1020F02D16FF0010347
:1047100000E00023184605B05DF804FB00B585B045
:1047200001900B46ADF80230BDF80230B3F5007FC2
:1047300002D36FF0020313E0BDF80230ADF80E3083
:10474000BDF80E301A460D21019800F0C7F902900D
:10475000029B13F1020F02D16FF0010300E000236E
:10476000184605B05DF804FB00B585B001900B4616
:104770008DF803309DF80330012B02D0022B2AD094
:1047800053E00DF10A031A460621019800F0C4F81F
:10479000034613F1020F0CBF01230023DBB2002BF1
:1047A00003D06FF00103039343E0BDF80A3043F0F8
:1047B00002039BB2ADF80A30BDF80A301A46062152
:1047C000019800F08BF90390039B13F1020F30D195
:1047D0006FF0010331E00DF10A031A46062101983A
:1047E00000F09AF8034613F1020F0CBF01230023D7
:1047F000DBB2002B03D06FF0010303931BE0BDF885
:104800000A3043F001039BB2ADF80A30BDF80A301C
:104810001A460621019800F061F90390039B13F1F9
:10482000020F08D16FF0010307E06FF0010303935B
:1048300002E000BF00E000BF0023184605B05DF8AD
:1048400004FB00BF00B585B001900B468DF8033026
:104850009DF80330012B02D0022B2AD056E00DF137
:104860000A031A460621019800F056F8034613F190
:10487000020F0CBF01230023DBB2002B03D06FF02B
:10488000010303933FE0BDF80A3023F002039BB21B
:10489000ADF80A30BDF80A301A460621019800F03A
:1048A0001DF90390039B13F1020F2CD16FF001034C
:1048B0002DE00DF10A031A460621019800F02CF8AC
:1048C000034613F1020F0CBF01230023DBB2002BC0
:1048D00003D06FF00103039317E0BDF80A3023F013
:1048E00001039BB2ADF80A30BDF80A301A46062122
:1048F000019800F0F3F80390039B13F1020F04D129
:104900006FF0010303E000BF00E000BF0023184682
:1049100005B05DF804FB00BF00B587B003900B46FF
:1049200001928DF80B309DF80B30019A19460398CF
:1049300000F02EF80590059B184607B05DF804FBC3
:1049400000B587B003900B4601928DF80B309DF8AF
:104950000B30019A1946039800F01AF80590059B50
:10496000184607B05DF804FB00B587B003900B460E
:1049700001928DF80B309DF80B30019A194603987F
:1049800000F006F80590059B184607B05DF804FB9B
:1049900000B587B003900B4601928DF80B300023D1
:1049A000ADF816300023ADF81430019B002B02D176
:1049B0006FF002038BE04FF0FF31474813F0CCFC5F
:1049C000039800F015FA039800F062F99DF80B3097
:1049D0009B029AB2BDF8163013439BB2ADF8163065
:1049E000BDF81620BDF814301343ADF81630BDF8ED
:1049F00016301946039800F087F903468DF81330F6
:104A00009DF813305B029AB2BDF8163013439BB287
:104A1000ADF81630039BBDF816201146184618F065
:104A2000BDFC0346ADF81030019BBDF810201A8084
:104A3000039800F051F9039800F02AF90023ADF82B
:104A400016300023ADF81430BDF8163043F4C043DF
:104A5000ADF81630BDF81620BDF814301343ADF88C
:104A60001630BDF816301946039800F04DF903468C
:104A70008DF813309DF813305B029AB2BDF81630F2
:104A800013439BB2ADF81630039BBDF816201146B8
:104A9000184618F083FC0346ADF81030039800F078
:104AA0001BF9039800F0B8F90B4813F065FCBDF84A
:104AB00010301BB2002B02DA6FF0010307E0019BFC
:104AC0001B88C3F309039AB2019B1A80002318467E
:104AD00007B05DF804FB00BF7C45FF3F00B585B023
:104AE00001900B468DF803301346ADF800300023DB
:104AF000ADF80E304FF0FF31474813F02DFC019810
:104B000000F076F9019800F0E7F8019800F0C0F89D
:104B1000BDF80E306FEA43436FEA5343ADF80E30F1
:104B20009DF80330DB029AB2BDF80E3013439BB2FE
:104B3000ADF80E30BDF80E20BDF800301343ADF8CF
:104B40000E30BDF80E301946019800F0DDF803462E
:104B50008DF80D309DF80D309B029AB2BDF80E30E5
:104B600013439BB2ADF80E30019BBDF80E201146E9
:104B7000184618F013FC0346ADF80A30019800F00F
:104B8000ABF8019800F084F80023ADF80030002362
:104B9000ADF80E30BDF80E306FEA43436FEA534371
:104BA000ADF80E30BDF80E20BDF800301343ADF85F
:104BB0000E30BDF80E301946019800F0A5F80346F6
:104BC0008DF80D309DF80D305B029AB2BDF80E30B5
:104BD00013439BB2ADF80E30019BBDF80E20114679
:104BE000184618F0DBFB0346ADF80A30019800F0D8
:104BF00073F8019800F010F9074813F0BDFBBDF8F9
:104C00000A301BB2002B02DA6FF0010300E0002330
:104C1000184605B05DF804FB7C45FF3F00B583B046
:104C20000190019B14331949184604F035F9019B92
:104C300003F1140000230022012104F005FA019B76
:104C400003F1140000230122012104F0FDF9019B6E
:104C500003F1140000230222012104F0F5F9019B65
:104C600003F1140001230122012104F085F9019BC5
:104C700003F1140001230222012104F07DF9142024
:104C800016F04AF800BF03B05DF804FB40420F0085
:104C900000B583B00190019B03F1140001230022B1
:104CA000012104F069F9142016F036F8072016F0F7
:104CB00033F8019B03F1140000230022012104F0CA
:104CC0005BF9142016F028F8072016F025F800BF2D
:104CD00003B05DF804FB00BF00B583B0019007206E
:104CE00016F01AF8019B03F11400012300220121A0
:104CF00004F042F9142016F00FF8072016F00CF813
:104D000000BF03B05DF804FB86B001900B46ADF820
:104D1000023000238DF8153000230493BDF80230D3
:104D2000ADF8163000230493049B0F2BCCBF012356
:104D30000023DAB2BDF81630002B0CBF012300238C
:104D4000DBB21343DBB2002B14D1BDF81630DBB25B
:104D500003F00103DAB29DF815305340DBB28DF851
:104D60001530BDF816305B10ADF81630049B0133DA
:104D70000493D9E79DF81530002B0CBF01230023C5
:104D8000DBB28DF80F309DF80F30002B01D00123DE
:104D900000E00023184606B0704700BF00B585B09C
:104DA0000190002303930DF10A031A461A2101987A
:104DB000FFF7DAFD034613F1020F0CBF01230023B6
:104DC000DBB2002B02D06FF001030DE0BDF80A301A
:104DD000DBB29BB2ADF80A30BDF80A30582B02D0D6
:104DE0004FF0FF330393039B184605B05DF804FBB7
:104DF00000B583B00190019B00221021184618F0E5
:104E00007FFA019B0349184618F092FA00BF03B0DD
:104E10005DF804FB400D030000B587B00190082346
:104E2000059300230493084B0393019B049A05996F
:104E3000184618F065FA019B0399184618F078FA9D
:104E400000BF07B05DF804FB40420F0000B585B01D
:104E500003900B468DF80B3003984FF0FF3300930F
:104E600010234022202118F013FA039B03F11400B1
:104E70004FF40033009328230422082103F0E8FFB5
:104E8000039B002283F87820039B9DF80B2083F876
:104E90008320039B93F88330012B28D1039B0322AB
:104EA00083F87920039B012283F87A20039B042254
:104EB00083F87B20039B012283F87C20039B06223E
:104EC00083F87D20039B012283F87E20039B05222B
:104ED00083F87F20039B012283F88020039B062216
:104EE00083F88120039B002283F8822028E0039B23
:104EF000072283F87920039B002283F87A20039B02
:104F0000002283F87B20039B012283F87C20039BF3
:104F1000022283F87D20039B012283F87E20039BDD
:104F2000012283F87F20039B012283F88020039BCA
:104F3000062283F88120039B002283F8822000BF91
:104F4000039B184605B05DF804FB00BF00B587B0B1
:104F50000190019800F0D6FB019800F059FC019BEC
:104F600014330321184604F0FBF80590059A00213C
:104F7000019800F09FFC0021019800F067FC019B64
:104F800003F11400019B93F88210019B93F8813088
:104F9000DBB25AB2012303F0EFFF019800F084FB6B
:104FA0000221019800F0D0FA03468DF80F309DF8E9
:104FB0000F3043F04003DBB28DF80F309DF80F3017
:104FC0001A460221019800F0FDFA0490049B002B80
:104FD00002D06FF0010359E00221019800F0B4FA09
:104FE00003468DF80F309DF80F3023F04003DBB2FD
:104FF0008DF80F309DF80F301A460221019800F00D
:10500000E1FA0490049B002B02D06FF001033DE015
:105010000DF10E030DF10F020521019800F004FAC5
:105020000490049B002B02D06FF001032EE00DF1E1
:105030000E030DF10F020621019800F0F5F904901E
:10504000049B002B02D06FF001031FE0019800F0D9
:1050500009FB0321019800F077FA03468DF80F3021
:105060009DF80F3063F07F03DBB28DF80F309DF8B1
:105070000F301A460321019800F0A4FA0490049B13
:10508000002B02D06FF0010300E00023184607B0A8
:105090005DF804FB00B585B001900B468DF8033038
:1050A0001F238DF80F309DF803209DF80F309A4292
:1050B00002D96FF0020322E00121019800F044FAC6
:1050C00003468DF80E309DF80E3023F01F038DF847
:1050D0000E309DF80E209DF8033013438DF80E30EE
:1050E0009DF80E301A460121019800F06BFA0290EB
:1050F000029B002B02D06FF0010300E00023184652
:1051000005B05DF804FB00BF00B585B001900B460B
:105110008DF803309DF803300B2B6FD801A252F8A5
:1051200023F000BF55511000635110007151100061
:105130007F5110008D5110009B511000A95110009B
:10514000B7511000C5511000D3511000E1511000AB
:10515000EF51100000238DF80F3000238DF80E3032
:1051600053E000238DF80F3001238DF80E304CE012
:1051700000238DF80F3002238DF80E3045E0002318
:105180008DF80F3003238DF80E303EE000238DF8AC
:105190000F3004238DF80E3037E000238DF80F30E8
:1051A00005238DF80E3030E000238DF80F300023FA
:1051B0008DF80E3029E000238DF80F3006238DF88E
:1051C0000E3022E001238DF80F3000238DF80E30D1
:1051D0001BE002238DF80F3000238DF80E3014E011
:1051E00003238DF80F3000238DF80E300DE00423DB
:1051F0008DF80F3000238DF80E3006E000238DF877
:105200000F3000238DF80E3000BF0921019800F007
:105210009BF903468DF80D309DF80D3023F0070300
:10522000DAB29DF80F301343DBB28DF80D309DF8E4
:105230000D301A460921019800F0C4F90290029B32
:10524000002B02D06FF0010327E00121019800F04C
:105250007BF903468DF80D309DF80D3003F01F03E8
:10526000DAB29DF80E305B01DBB21343DBB28DF88E
:105270000D309DF80D301A460121019800F0A2F979
:105280000290029B002B02D06FF0010305E0019B0E
:105290009DF8032083F878200023184605B05DF8B8
:1052A00004FB00BF00B585B001900B468DF80330BC
:1052B0000221019800F048F903468DF80F309DF85F
:1052C0000F3003F07F038DF80F309DF80330DB01C2
:1052D000DAB29DF80F301343DBB28DF80F309DF832
:1052E0000F301A460221019800F06CF90290029BDF
:1052F000002B02D06FF0010300E00023184605B038
:105300005DF804FB0000000010B588B0019000912A
:105310004FF00001009819F059FC0346002B01D012
:10532000009B02E0009B83F000430693019800F08D
:1053300007FB0590059818F0CBFD03460C461A466E
:10534000234623A1D1E9000118F062FF03460C4671
:105350001846214619F02AF9034604930499069841
:1053600019F020FC0346002B02D06FF002032AE064
:105370004FF00001009819F033FC0346002B05D0D4
:1053800000210198FFF78EFF079008E001210198A6
:10539000FFF788FF0790009B83F000430093079B73
:1053A000002B01D0079B0EE00499009819F010FB28
:1053B0000346184619F044FC0346039303990198E9
:1053C00000F084FB0023184608B010BDAFF3008046
:1053D000CDCCCCCCCCCCFC3F00B585B0019003212A
:1053E000019800F0B1F803468DF80F309DF80F30AA
:1053F00003F07F038DF80F309DF80F301A4603211C
:10540000019800F0DFF80346002B14BF01230023AE
:10541000DBB2002B02D06FF0010300E0002318463E
:1054200005B05DF804FB00BF00B589B003900192A0
:1054300000930B468DF80B3000238DF81E300023AF
:1054400006934FF0FF313F4812F086FF039800F0BB
:105450002BF9039800F0DCF9039800F0A9F99DF806
:105460000B308DF81730039B9DF817201146184616
:1054700017F094FF04238DF81730039B9DF8172035
:105480001146184617F08AFF0346DAB2019B1A70DC
:10549000019B1B788DF81F30039B03F11400039BC5
:1054A00093F87C10039B93F87B30DBB25BB21A4617
:1054B00003F024FD0346002B0CBF01230023DBB2C5
:1054C000002B03D0009B01221A7002E0009B0022F7
:1054D0001A70039800F09CF9039800F0F9F89DF811
:1054E0001F30002B15D0069B072B12D09DF81F20D4
:1054F0009DF81E305340DBB203F001038DF81E30DF
:105500009DF81F305B108DF81F30069B013306930A
:10551000E5E7019B1B78DB098DF816309DF8162016
:105520009DF81E309A4204D1064812F025FF002350
:1055300004E0044812F020FF6FF00103184609B0A0
:105540005DF804FB7C45FF3F00B585B001900B463C
:105550008DF803304FF0FF31194812F0FDFE01982D
:1055600000F0A2F8019800F053F9019800F020F93A
:105570009DF803308DF80F30019B9DF80F201146E8
:10558000184617F00BFF04238DF80F30019B9DF890
:105590000F201146184617F001FF03468DF80E3014
:1055A000019800F035F9019800F092F8044812F0E3
:1055B000E3FE9DF80E30184605B05DF804FB00BF11
:1055C0007C45FF3F00B585B001900B468DF8033058
:1055D00013468DF802304FF0FF31214812F0BCFE27
:1055E000019800F061F8019800F012F9019800F0BC
:1055F000DFF89DF8033063F07F038DF80F30019BD7
:105600009DF80F201146184617F0C8FE019B9DF823
:1056100002201146184617F0C1FE019800F0F8F874
:10562000019800F055F89DF8033019460198FFF7EE
:105630008BFF03468DF80E309DF80E209DF802304A
:105640009A4204D1064812F097FE002304E0044871
:1056500012F092FE6FF00103184605B05DF804FBEE
:105660007C45FF3F00B585B00190019B03F114001C
:10567000019B93F87C10019B93F87B30DBB25BB20B
:105680001A4603F03BFC0290029B012B03D100233E
:105690008DF80F3002E001238DF80F309DF80F30A8
:1056A000184605B05DF804FB00B583B00190019B7E
:1056B00000220821184617F023FE019B03491846D3
:1056C00017F036FE00BF03B05DF804FB20A1070011
:1056D00000B587B001900823059300230493084B7D
:1056E0000393019B049A0599184617F009FE019B44
:1056F0000399184617F01CFE00BF07B05DF804FBC5
:1057000040420F0000B583B00190019B143327493C
:10571000184603F0C1FB019B03F11400019B93F8B1
:105720007A10019B93F87930DBB25AB2002303F070
:105730008BFC019B03F11400019B93F88210019BE9
:1057400093F88130DBB25AB2002303F07DFC019B59
:1057500003F11400019B93F87C10019B93F87B30BC
:10576000DBB25AB2012303F06FFC019B03F114007A
:10577000019B93F87E10019B93F87D30DBB25AB207
:10578000002303F061FC019B03F11400019B93F8DB
:105790008010019B93F87F30DBB25AB2002303F0F4
:1057A00053FC00BF03B05DF804FB00BF40420F0094
:1057B00000B583B00190019B03F11400019B93F8A5
:1057C0007A10019B93F87930DBB25AB2012303F0CF
:1057D000D3FB142015F0A0FA062015F09DFA019BCA
:1057E00003F11400019B93F87A10019B93F8793030
:1057F000DBB25AB2002303F0BFFB142015F08CFA81
:10580000022015F089FA00BF03B05DF804FB00BF69
:1058100000B583B00190012015F07EFA019B03F1E1
:105820001400019B93F87A10019B93F87930DBB256
:105830005AB2012303F0A0FB142015F06DFA0620E4
:1058400015F06AFA00BF03B05DF804FB00B583B041
:1058500001900B468DF80330012015F05DFA9DF89C
:105860000330002B0ED1019B03F11400019B93F830
:105870008010019B93F87F30DBB25AB2002303F013
:105880007BFB0DE0019B03F11400019B93F880105A
:10589000019B93F87F30DBB25AB2012303F06CFB1B
:1058A000142015F039FA012015F036FA00BF03B0C4
:1058B0005DF804FB00B587B003900B4601928DF8AC
:1058C0000B3005AB00210A461A800A469A709DF8F3
:1058D0000B30002B0CD0012B00D014E0039B93F86D
:1058E0007D301A4601239340019A134301930AE045
:1058F000039B93F87D301A4601239340DB43019AC2
:105900001340019300BF28238DF8143003238DF832
:105910001530019BDBB28DF81630084B15229A60CA
:1059200005AB03221946039800F062F8034B1422DA
:105930009A6000BF07B05DF804FB00BF0070004034
:1059400084B00190019B93F878300B2B32D801A2E0
:1059500052F823F0855910008B591000915910000E
:1059600097591000A9591000A9591000AF591000FB
:10597000AF5910009D591000A3591000AF591000E5
:10598000AF5910002023039315E01023039312E076
:10599000082303930FE0042303930CE08023039375
:1059A00009E04023039306E00223039303E001236D
:1059B000039300E000BF039B184604B0704700BF8C
:1059C00084B00190009100230393009B0393039BF9
:1059D000002B14BF01230023DBB2002B04D000BF37
:1059E000039B013B0393F2E700BF04B0704700BF85
:1059F00000B587B003900291019200238DF8173013
:105A000000230493049A019B9A4256D22E4B1222F1
:105A10009A6014210398FFF7D3FF029A049B134462
:105A20001B78132B18D1284B10229A60264B10227A
:105A30009A60254B10229A60234B11229A60224BC8
:105A400010229A60204B10229A601F4B11229A60FC
:105A50001D4B11229A6007E01B49049B5A1C0492BB
:105A6000029A13441B788B600A210398FFF7A8FF62
:105A7000154B16229A6005210398FFF7A1FF124BE0
:105A80001B6803F01003002B14BF01230023DBB2BB
:105A9000002B00D0F3E705210398FFF791FF0A4B95
:105AA0001B6803F00403002B14BF01230023DBB2A7
:105AB000002BA7D002238DF817309DF81730184619
:105AC00007B05DF804FB00BF0070004000B585B072
:105AD00001900091019B14330321184603F040FB11
:105AE000029072B600230393039A009B9A420DD250
:105AF000029A01210198FFF7DDFE029A0021019828
:105B0000FFF7D8FE039B01330393EDE762B600BFB6
:105B100005B05DF804FB00BF00B587B003900B46ED
:105B20008DF80B304649474816F04AFF012015F022
:105B3000E3F808238DF8143005AA0023009301230D
:105B40007221404816F06CFF05AA0023009302233F
:105B500072213C4816F08AFF08238DF8143005AAFC
:105B60000023009301237221364816F059FF0346A3
:105B7000002B14BF01230023DBB2002B02D06FF0F7
:105B8000010358E005AA00230093022372212D4847
:105B900016F06CFF0346002B14BF01230023DBB279
:105BA000002B02D06FF0010345E09DF81430192B53
:105BB00003D19DF81530052B02D04FF0FF333AE0AA
:105BC00002238DF814309DF80B308DF8153005AA9E
:105BD00000230093022372211A4816F021FF034686
:105BE000002B14BF01230023DBB2002B02D06FF087
:105BF000010320E00021039800F02EF8124815F070
:105C000065F80821039800F027F810490D4816F0B0
:105C1000D7FE9DF80B300E4A52F823300D49184636
:105C200018F022FE0346184618F0E4FF0346184613
:105C300015F062F80023184607B05DF804FB00BFBA
:105C4000A08601003458FF3F9A99193E40420F0048
:105C50000440FF3F0000404000B587B003900B4672
:105C60008DF80B3000238DF814309DF80B308DF833
:105C7000153072B629492A4816F0A2FE05AA00235B
:105C8000009302237221264816F0CAFE0346002B19
:105C900014BF01230023DBB2002B02D06FF00103FD
:105CA00037E000238DF8143005AA00230093012368
:105CB00072211B4816F0B4FE0346002B14BF0123CB
:105CC0000023DBB2002B02D06FF0010321E005AA14
:105CD0000023009301237221114816F0C7FE0346EA
:105CE000002B14BF01230023DBB2002B02D06FF086
:105CF00001030EE00B490A4816F062FE62B69DF8F9
:105D000014309DF80B209A4201D1002301E04FF09E
:105D1000FF33184607B05DF804FB00BFA086010002
:105D20003458FF3F40420F0000B587B00390029106
:105D300006238DF8143072B61D491E4816F040FE39
:105D400005AA00230093012372211A4816F068FE69
:105D50000346002B14BF01230023DBB2002B02D02B
:105D60006FF0010320E005AA0023009302237221B3
:105D7000104816F07BFE0346002B14BF01230023BE
:105D8000DBB2002B02D06FF001030DE00A49094895
:105D900016F016FE62B69DF815301B029DF8142011
:105DA0001A43029B1A600023184607B05DF804FBF3
:105DB000A08601003458FF3F40420F000000000061
:105DC000F0B587B0019000910023049302238DF871
:105DD000173000238DF80F300DF10F029DF81730AA
:105DE0001946019800F054F80346002B0CBF01231C
:105DF0000023DBB2002B3DD004AB19460198FFF71E
:105E000093FF0346002B0CBF01230023DBB2002BC2
:105E10002ED0049B184618F06BF804460D469DF8EA
:105E20000F301A46184B53F82230184618F072F803
:105E300013A3D3E9002318F0C1F802460B46164617
:105E40001F46009818F066F802460B463046394661
:105E500018F0B4F802460B462046294618F0D8F947
:105E600003460C461846214618F0A0FB034602E004
:105E7000064B00E0054B184607B0F0BDAFF30080BD
:105E8000FCA9F1D24D62503F0440FF3F000080BFAB
:105E900000B589B005900B4603928DF813309DF83C
:105EA0001330092B37D89DF813308DF81C3072B69B
:105EB0001C491D4816F084FD07AA00230093012306
:105EC0007221194816F0ACFD0346002B14BF0123C4
:105ED0000023DBB2002B03D062B66FF001031DE09C
:105EE000002300930123039A72210F4816F0BEFD90
:105EF0000346002B14BF01230023DBB2002B03D089
:105F000062B66FF0010309E00849074816F058FD32
:105F100062B6002302E062B66FF00203184609B0D1
:105F20005DF804FBA08601003458FF3F40420F009B
:105F300000B585B003900291039B012B17D1029B02
:105F40004FF6FF72934212D1042208210A4816F03C
:105F500019FD4FF40033009322230422082107483F
:105F600002F076FF064A0749044817F098FC00BF84
:105F700005B05DF804FB00BF3458FF3F3C58FF3FBD
:105F80000040FF3FB191100008B54FF6FF710120AE
:105F9000FFF7CEFF08BD00BF00B583B0019002221D
:105FA0000021094802F0AAFF0346012B0CBF012380
:105FB0000023DBB2002B01D0012300E000231846B0
:105FC00003B05DF804FB00BFA058FF3F00B585B0EB
:105FD00003900291039B012B12D1029B4FF6FF729B
:105FE00093420DD14FF4003300932423042208215F
:105FF000054802F02DFF054A0549034817F04FFCFC
:1060000000BF05B05DF804FBA058FF3F0040FF3F14
:10601000B191100008B54FF6FF710120FFF7D6FFD0
:1060200008BD00BF00B583B001900091019B0099AD
:10603000184615F093FC019B184603B05DF804FB6D
:1060400000B583B001900091019B0099184615F0AE
:10605000ABFC00BF03B05DF804FB00BF00B583B02C
:106060000190019B184615F0C7FC0346184603B083
:106070005DF804FB00B583B0019000910099019890
:10608000FFF7DEFF019B184603B05DF804FB00BF7D
:1060900000B583B001900198FFF7E0FF0346184672
:1060A00003B05DF804FB00BF00B585B0039002911A
:1060B00001920949019818F0D7FB0346184618F0D9
:1060C000BFFD03461A460299039800F007F800BF87
:1060D00005B05DF804FB00BF0024744900B585B02D
:1060E000039002910192039B18330299184600F025
:1060F0002FFC0199039817F059FA00BF05B05DF81D
:1061000004FB00BF00B583B00190019A0121034850
:1061100002F0D0FE00BF03B05DF804FB0859FF3F5A
:1061200000B583B001900091009A3421019800F0ED
:10613000B5F80346184603B05DF804FB00B583B01C
:1061400001900091009A3521019800F0A7F80346CC
:10615000184603B05DF804FB00B583B0019000223F
:106160000021044802F0CAFE0346184603B05DF859
:1061700004FB00BF0859FF3F00B583B00190019BAD
:1061800000221021184617F0BBF8019B054918465C
:1061900017F0CEF8C82014F0BFFD00BF03B05DF8C3
:1061A00004FB00BF90D0030000B583B00190019BB9
:1061B00000220821184617F0A3F8019B054918464C
:1061C00017F0B6F8C82014F0A7FD00BF03B05DF8C3
:1061D00004FB00BF40420F0000B583B0019014499A
:1061E000144802F059FE002307220021114802F052
:1061F0002BFF0123072200210E4802F0BDFE0023E1
:10620000002200210B4802F01FFF00230022002182
:10621000084802F0B1FE012301220121054802F0E5
:1062200013FFC82014F078FD00BF03B05DF804FB35
:1062300040420F000859FF3F00B583B00190642031
:1062400014F06AFD012307220021054802F094FEA4
:10625000C82014F061FD00BF03B05DF804FB00BF6F
:106260000859FF3F00B583B00190012307220021A8
:10627000094802F081FE642014F04EFD002307223D
:106280000021054802F078FEC82014F045FD00BF4B
:1062900003B05DF804FB00BF0859FF3F00B587B0AD
:1062A00003900B4601928DF80B300023ADF81630A9
:1062B00000238DF815304FF0FF31234812F04CF8D1
:1062C0000398FFF759FF0398FFF7CCFF9DF80B30B9
:1062D0001B029AB2BDF8163013439BB2ADF81630CC
:1062E0009DF815309AB2BDF816301343ADF816304C
:1062F000039BBDF816201146184617F04FF80346C9
:10630000ADF81230C82014F007FD0398FFF794FF92
:106310000398FFF749FFBDF8123003F40053002B38
:1063200005D0094812F028F84FF0FF3308E0BDF817
:106330001230DAB2019B1A70034812F01DF80023E4
:10634000184607B05DF804FB7C45FF3F00B585B0FB
:1063500001900B468DF8033013468DF80230002370
:10636000ADF80E304FF0FF31244811F0F5FF0198E1
:10637000FFF702FF0198FFF775FFBDF80E306FEAD7
:1063800043436FEA5343ADF80E309DF803301B02D0
:106390009AB2BDF80E3013439BB2ADF80E309DF8A3
:1063A00002309AB2BDF80E301343ADF80E30019BA7
:1063B000BDF80E201146184616F0F0FF0346ADF862
:1063C0000C30C82014F0A8FC0198FFF735FF0198A5
:1063D000FFF7EAFEBDF80C3003F40053002B05D0A4
:1063E000064811F0C9FF4FF0FF3303E0034811F0F6
:1063F000C3FF0023184605B05DF804FB7C45FF3F52
:1064000000B585B00190084611461A4603468DF83E
:1064100003300B468DF8023013468DF8013000230F
:106420008DF80F309DF80130072B02D96FF0010372
:1064300040E00DF10F031A4600210198FFF72EFFEF
:106440000346002B0CBF01230023DBB2002B02D03C
:106450004FF0FF332EE09DF8023083F00103DBB2F2
:10646000002B10D09DF80130012202FA03F3DBB2B9
:10647000DB43DAB29DF80F30DBB21340DBB2DBB2A4
:106480008DF80F300DE09DF80130012202FA03F380
:10649000DAB29DF80F30DBB21343DBB2DBB28DF81A
:1064A0000F309DF80F209DF8033019460198FFF733
:1064B0004DFF0346184605B05DF804FB00B583B0F8
:1064C0000190012300220021034802F055FD00BF86
:1064D00003B05DF804FB00BF0859FF3F00B583B06F
:1064E0000190002300220021034802F045FD00BF77
:1064F00003B05DF804FB00BF0859FF3F00B585B04D
:1065000001900B468DF80330002303930198FFF7A9
:1065100023FE0346002B0CBF01230023DBB2002B1C
:1065200008D09DF80320072300210198FFF768FF9A
:1065300003460EE00198FFF7D1FF9DF803200723E3
:1065400000210198FFF75CFF03900198FFF7B6FF69
:10655000039B184605B05DF804FB00BF84B00190B2
:10656000009100238DF80F30009BB3F5C87F10D346
:10657000009B43F2903293420BD8009BA3F5C87363
:10658000284AA2FB03239B09DBB204338DF80F30AA
:1065900043E0009B43F29032934211D9009B44F2B6
:1065A000C04293420CD8009BA3F54E53103B1D4AAA
:1065B000A2FB0323DB09DBB244338DF80F302CE060
:1065C000009B44F2C042934211D9009B45F6C05251
:1065D00093420CD8009BA3F58943403B114AA2FB90
:1065E00003231B0ADBB24F338DF80F3015E0009BFD
:1065F00045F6C052934210D9009B49F6404293425F
:106600000BD8009BA3F5BB43403B074AA2FB0323E7
:10661000DB09DBB257338DF80F309DF80F30184689
:1066200004B070471F85EB51D34D621000B585B0A3
:106630000190009100238DF80F30009BB3F5C87FC7
:1066400004D3009B49F64042934202D94FF0FF33F6
:106650000EE000990198FFF781FF03468DF80F3097
:106660009DF80F301A4616210198FFF76FFE03467A
:10667000184605B05DF804FB08B50B48FFF708FDA8
:1066800003464FF00001184618F082FA0346002B2B
:1066900002D04FF07E5301E04FF00003194602484C
:1066A000FFF7E8FC00BF08BD6C59FF3F034B1B68B8
:1066B0000133024A136000BF704700BFCC59FF3F4F
:1066C000064B1A6813461B019B1A9B001A46044B83
:1066D0001A60024B00221A6000BF7047CC59FF3F7E
:1066E000D059FF3F00B583B001900849084816F023
:1066F0006BFA019B44334FF07E5206491846FFF770
:10670000D3FC00BF03B05DF804FB00BFAD66100012
:106710007459FF3FC166100082B00190024B1B68A4
:10672000184602B0704700BFD059FF3F00B583B094
:106730000190092200210198FFF708FEA7220221FB
:106740000198FFF703FE0B2204210198FFF7FEFDDD
:10675000182207210198FFF7F9FD0F220B2101985C
:10676000FFF7F4FD302210210198FFF7EFFD14220E
:1067700011210198FFF7EAFD1E2212210198FFF76F
:10678000E5FD282213210198FFF7E0FD32221421B4
:106790000198FFF7DBFD3C2215210198FFF7D6FD9C
:1067A000462216210198FFF7D1FD542217210198A6
:1067B000FFF7CCFD572218210198FFF7C7FD5A2299
:1067C00019210198FFF7C2FD5F221A210198FFF7F6
:1067D000BDFD00BF03B05DF804FB00BF08B501229A
:1067E0000121034802F08AFB0346184608BD00BF9A
:1067F0000859FF3F08B5FFF7F1FF0346002B0CBF18
:1068000001230023DBB2002B05D0044B1B680121C0
:10681000184611F04FFE00BF08BD00BF0459FF3FEE
:1068200000B58BB005901748FFF76CFC6B464FF036
:10683000FF320121184611F04DFE07AB6A4607CA28
:1068400083E80700089B03F00103002B16D04FF0EC
:10685000FF310D4811F080FD0C4B1B6803211846D9
:1068600011F014FE0A4B1B689847084B1B68002167
:10687000184611F00BFE044811F07EFD142011F0B3
:1068800039FED3E7F56710007C45FF3F0459FF3F11
:106890007845FF3F10B586B00390029100238DF834
:1068A00017300398FFF798FC0398FFF765FC0398EF
:1068B000FFF7C2FC0398FFF777FC0398FFF736FF5A
:1068C0000DF117031A4600210398FFF7E7FC9DF826
:1068D0001730092B02D04FF0FF3329E0164B072267
:1068E0009A63039B1433154A15491846FFF7DCFBDE
:1068F000029B002B1AD0502016F0C0FF03461C4606
:10690000002301934FF400630093002300220D49FC
:10691000204611F04DFD0C4B1C600B4B1B68002BEF
:1069200004D00A4A029B1360002301E04FF0FF33BA
:10693000184606B010BD00BF00C00140CDCC4C3D94
:1069400079661000216810000459FF3F7845FF3F29
:1069500082B001900091019B009A1A60019B002275
:106960005A6100BF02B0704700B585B00390029134
:10697000039B012B20D1029B4FF6FF7293421BD148
:106980004FF4003300933623042208210C4802F010
:106990005FFA0C4A0C490A4816F081FF80210B4827
:1069A000FFF740FB4FF48041094816F085F8054A8F
:1069B0000849074816F073FF00BF05B05DF804FBF7
:1069C0000859FF3F0040FF3FB19110006C59FF3F55
:1069D0007459FF3F31CB110008B54FF6FF7101200C
:1069E000FFF7C2FF08BD00BF00B585B0039002915C
:1069F00001920093039B029A1A60019A039B5A60CA
:106A0000009A039B9A600A490A4802F045FA00235B
:106A100001220021074802F017FB01230122002177
:106A2000044802F0A9FA039B184605B05DF804FB80
:106A300040420F00D459FF3F82B00190019B18469D
:106A400002B0704710B586B0039002910192009396
:106A5000029A019B1A44039B5B689A4202D8009BEE
:106A6000002B01D100235BE04FF0FF312E4811F0E5
:106A700073FC0023012200212C4802F07DFA14202F
:106A800014F04AF9039B1B681B681B68039A126881
:106A9000032110469847039B1B681B681B68039AD9
:106AA0001068029A120C11469847039B1B681B68DA
:106AB0001B68039A1068029A120AD2B211469847CC
:106AC000039B1B681B681B68039A12680299C9B272
:106AD0001046984700230593059A019B9A4212D2CB
:106AE000009A059BD418039B1B681B681B68039ABC
:106AF00012680021104698470346DBB22370059BBD
:106B000001330593E8E7142014F006F9012301226C
:106B10000021064802F030FA034811F02DFC009BDA
:106B2000184606B010BD00BF7C45FF3FD459FF3F5B
:106B300000B589B00390029101920093029A019BE3
:106B40001A44039B5B689A4201D901233AE000236F
:106B50000793079A019B9A4233D2039B9968029A42
:106B6000079B1344039A9268B3FBF2F002FB00F216
:106B70009B1ACB1A0693069A079B1A44019B9A42CA
:106B800003D9019A079BD31A0693029A079BD1183F
:106B90000698009A079B13440246039800F016F8E3
:106BA00003468DF817309DF8173083F00103DBB2F0
:106BB000002B01D0002305E0069B079A134407939E
:106BC000C7E70123184609B05DF804FB00B587B09C
:106BD0000390029101920093039800F0B9F84FF0EE
:106BE000FF312F4811F0B8FB0023012200212D486E
:106BF00002F0C2F9142014F08FF8039B1B681B6885
:106C00001B68039A1268022110469847039B1B6871
:106C10001B681B68039A1068029A120C1146984769
:106C2000039B1B681B681B68039A1068029A120A70
:106C3000D2B211469847039B1B681B681B68039AD6
:106C400012680299C9B21046984700230593059A25
:106C5000019B9A420FD2039B1B681B681B68039A17
:106C600010680099059A0A44127811469847059BC6
:106C700001330593EBE7142014F04EF801230122B1
:106C80000021084802F078F9054811F075FB0398D7
:106C900000F044F80123184607B05DF804FB00BF7C
:106CA0007C45FF3FD459FF3F00B585B001904FF0C0
:106CB000FF31184811F050FB002301220021164833
:106CC00002F05AF9142014F027F8019B1B681B6886
:106CD0001B68019A1268052110469847019B1B68A2
:106CE0001B681B68019A12680021104698470390A0
:106CF000142014F011F8012301220021064802F0AB
:106D00003BF9044811F038FB039B184605B05DF8C9
:106D100004FB00BF7C45FF3FD459FF3F00B583B063
:106D200001900198FFF7C0FF034603F00103002B19
:106D30000CBF01230023DBB2002B03D10A2013F088
:106D4000EBFFEEE700BF00BF03B05DF804FB00BF40
:106D500000B583B001904FF0FF31124811F0FCFAFA
:106D6000002301220021104802F006F9142013F03C
:106D7000D3FF019B1B681B681B68019A12680621E0
:106D800010469847142013F0C7FF01230122002169
:106D9000054802F0F1F8034811F0EEFA00BF03B025
:106DA0005DF804FB7C45FF3FD459FF3F00B585B03B
:106DB00003900291039B012B12D1029B4FF6FF72AD
:106DC00093420DD14FF0FF3300932023042208217A
:106DD000054802F03DF8054A0549034816F05FFDF5
:106DE00000BF05B05DF804FBD459FF3F0040FF3FF2
:106DF000B191100008B54FF6FF710120FFF7D6FFE3
:106E000008BD00BF00B585B003900B460192ADF8F8
:106E10000A30BDF80A100623019A039800F0B2FB6D
:106E200000BF05B05DF804FB00B583B00190019B85
:106E3000184600F045FB019B002283F8D820019BF7
:106E4000184603B05DF804FB00B585B001900091D1
:106E5000019B01221A76009B002B02D14FF0FF33D9
:106E600022E0019800F05EF9034683F00103DBB2F3
:106E7000002B02D06FF0010316E000230393039B65
:106E8000052B0CDC039B009A13441978019A039B91
:106E900013440A461A70039B01330393EFE7019BE7
:106EA000184600F0F7FB0023184605B05DF804FB18
:106EB00000B585B00190019B1B7E002B0AD043F6E4
:106EC0009821019800F0C2F80390039B002B01DA8F
:106ED000039B0DE0019B184600F0CAFB034683F0BC
:106EE0000103DBB2002B02D04FF0FF3300E00023A0
:106EF000184605B05DF804FB10B588B00590059BF9
:106F00000F21184600F05CF90790059B03F18800FB
:106F1000079B1C0E079B1B0CDBB2079A120AD2B20E
:106F20000799C9B20291019200932346044A1421A1
:106F30001AF08AFB059B8833184608B010BD00BFC5
:106F4000F864120010B588B00590059B052118461D
:106F500000F036F90790059B03F19C00079B1C0E7F
:106F6000079B1B0CDBB2079A120AD2B20799C9B26F
:106F70000291019200932346044A14211AF064FB03
:106F8000059B9C33184608B010BD00BFF864120082
:106F900010B588B00590059B0121184600F010F946
:106FA0000790059B03F1B000079B1C0E079B1B0C71
:106FB000DBB2079A120AD2B20799C9B202910192C2
:106FC00000932346044A14211AF03EFB059BB0337C
:106FD000184608B010BD00BFF864120070B58AB042
:106FE0000790079B08AA09211846FFF70BFF079B8C
:106FF00003F1C4009DF820301E469DF821309DF815
:1070000022209DF823109DF824409DF825500495DA
:1070100003940291019200933346044A14211AF01A
:1070200013FB079BC43318460AB070BD04651200F9
:1070300000B583B00190019B2033184601F0C2FCDB
:10704000019B184603B05DF804FB00BF10B5ADF519
:10705000307D01AB18606B46196003AB184601F038
:10706000D1F86B4603AA1968104601F005F8AF90F5
:10707000AF9BB3F1FF3F02D14FF0FF3448E003ABC9
:107080009B791A0603ABDB791B041A4303AB1B7A0B
:107090001B02134303AA527A13431A4601AB1B681F
:1070A0009A6003AB9B7B1A0603ABDB7B1B041A4382
:1070B00003AB1B7C1B02134303AA527C13431A46E7
:1070C00001AB1B681A6103AB9B7C1A0603ABDB7C2C
:1070D0001B041A4303AB1B7D1B02134303AA527DFF
:1070E00013431A4601AB1B68DA6003AB9B7A1A069E
:1070F00003ABDB7A1B041A4303AB1B7B1B0213435A
:1071000003AA527B13431A4601AB1B685A61002441
:1071100003AB1846FFF78CFF234618460DF5307D6C
:1071200010BD00BF00B585B0019001238DF80F3070
:10713000019B4FF48061184600F07CF803468DF8FF
:107140000E309DF80E3003F02003002B0BD0019879
:107150009DF80E3023F02003DBB21A464FF4806115
:1071600000F0A2F80AE001989DF80E3043F02003E9
:10717000DBB21A464FF4806100F096F8019B4FF4A1
:107180008061184600F056F803468DF80D309DF8E2
:107190000D209DF80E309A4203D100238DF80F3058
:1071A00007E0019B9DF80E204FF48061184600F027
:1071B0007BF89DF80F30184605B05DF804FB00BF62
:1071C00000B587B001900B46ADF80230042303AA46
:1071D000BDF80210019800F0D5F9002305930222B2
:1071E000059B9A4220D903AA059B13441B788DF86E
:1071F0001330059BC3F10403013B06AA134413F8A3
:107200000C1C03AA059B13440A461A70059BC3F184
:107210000403013B06AA13449DF8132003F80C2C29
:10722000059B01330593DAE703AB1B68184607B0EB
:107230005DF804FB00B585B001900B46ADF8023057
:10724000012302AABDF80210019800F09BF9002367
:1072500003930022039B9A4220D902AA039B134462
:107260001B788DF80B30039BC3F10103013B04AA8B
:10727000134413F8081C02AA039B13440A461A700D
:10728000039BC3F10103013B04AA13449DF80B20A7
:1072900003F8082C039B01330393DAE79DF80830C9
:1072A000184605B05DF804FB00B585B001900B46AB
:1072B000ADF8023013468DF801309DF801308DF89D
:1072C0000830002303930022039B9A4220D902AA8C
:1072D000039B13441B788DF80B30039BC3F1010310
:1072E000013B04AA134413F8081C02AA039B13448D
:1072F0000A461A70039BC3F10103013B04AA13441D
:107300009DF80B2003F8082C039B01330393DAE765
:10731000012302AABDF80210019800F0FFF800BF97
:1073200005B05DF804FB00BF70B5044604260025D7
:10733000204617F0C9FC2E21054320461AF05AFAC0
:1073400028B1013E4FEA052500F10104F0D128469D
:1073500070BD000070B50446002500F12406072327
:1073600080F8215080F8203080F8235080F8225097
:107370000A49304601F090FD2B4694F9202094F8FC
:107380002110304601F060FE2B4694F9222094F83B
:1073900023103046BDE8704001F056BE40420F0059
:1073A00082B0002301930191019B23B100BF019B97
:1073B000013B0193F8E702B0704700002DE9F84364
:1073C0001C4C05468846274600264FF01209964277
:1073D0002DD2C4F8089014212846FFF7E1FF18F8D1
:1073E0000630132B0AD110231121A360A360A360E0
:1073F000A160A360A360A160A16001E00136A36069
:107400000A212846FFF7CCFF1623A3600521284652
:10741000FFF7C6FF3B68D906FCD405212846FFF7D5
:10742000BFFF3B685B07D2D50220BDE8F883002090
:10743000BDE8F8830070004013B590F8202090F864
:107440002210012303FA02F28B4023EA02033822BE
:107450008DF8042002228DF805208DF8063072B6D2
:10746000054C1523A360032201A9FFF7A7FF1423EE
:10747000A36062B602B010BD0070004013B590F872
:10748000222090F82010012303FA02F28B401343CC
:1074900038228DF8042002228DF805208DF8063060
:1074A00072B6064C1523A360032201A9FFF786FFDD
:1074B0001423A36062B602B010BD00BF007000408C
:1074C00073B54FF0FF360446382304220821009696
:1074D000243001F0BDFC142016F0D0F9054610232D
:1074E00000964022202115F0D3FE00222846E561B7
:1074F000082115F005FF0749E06915F019FF20463E
:10750000FFF728FF2046FFF7B9FF2046024B1C601B
:1075100002B070BD40420F00385AFF3F2DE9F843DA
:107520000446884616484FF0FF311746994610F03A
:1075300013FF002508EB05064D45B6B21BDA2046C1
:10754000FFF77AFFE069F02103681B689847E0695C
:10755000310A03681B689847E069F1B203681B6849
:107560009847E069795D036801351B6898472046B4
:10757000FFF784FFDEE70248BDE8F84310F0FCBEE9
:107580007C45FF3F2DE9F8430446884617484FF0F5
:10759000FF311746994610F0DFFE002508EB05067F
:1075A0004D45B6B21CDA2046FFF746FFE0690F21D1
:1075B00003681B689847E069310A03681B689847AD
:1075C000E069F1B203681B689847E069002103682D
:1075D0001B68984778552046FFF750FF0135DDE7D7
:1075E0000248BDE8F84310F0C7BE00BF7C45FF3F2E
:1075F00037B505460024210201F20341012301AA07
:1076000089B22846FFF7BEFF9DF804302BB1013444
:10761000042CF0D14FF0FF3000E0204603B030BD25
:1076200007B5090201F20341012301AA89B2FFF75C
:10763000A9FF9DF80400A0F117035842584103B078
:107640005DF804FB07B5130E8DF80430C2F3072371
:107650008DF807208DF80630C2F3074204238DF819
:1076600005200DEB0302FFF759FF03B05DF804FBA3
:1076700010B5044682680F21FFF7E4FF2269204617
:107680000121FFF7DFFF2046E2680521FFF7DAFF5F
:10769000012010BD70B5044600F1240590F92220A8
:1076A00090F823100023284601F066FC642013F0B4
:1076B00033FB022013F030FB012394F9222094F8CD
:1076C0002310284601F058FC642013F025FB962077
:1076D00013F012FB204680220021FFF7E5FD224631
:1076E0002046BDE8704006230921FFF717BF37B5D4
:1076F000090201F20144A4B221460546FFF7D4FD78
:10770000012301AA21462846FFF73CFF9DF80430DB
:10771000002BF5D103B030BD002908B508DB090204
:1077200001F5806101F47F41FFF7BEFD012008BD36
:10773000002008BD73B50E1E05461CDB3402104840
:10774000A4B2FCF793F804F20341012301AA89B221
:107750002846FFF717FF9DF8043073B131462846DD
:107760001022FFF7C4FF04F2024189B2FF2228462B
:10777000FFF79AFD01E0002000E0012002B070BD9B
:107780002F65120007B502EB0121022301AA89B27D
:10779000FFF7F8FE9DF804309DF805208DF80530C0
:1077A0008DF80420BDF8040003B05DF804FB2DE95A
:1077B000F0430E1E85B005469046994639DB684673
:1077C00015F026FF684615F0B5FF684615F03AFF3C
:1077D00040F2264231462846FFF7D4FF40F22642C7
:1077E00031462846FFF7CEFF074648B140F2264211
:1077F00031462846FFF7C6FF87420446EED100E037
:107800000446A14507DA684615F032FF684615F0D0
:1078100091FF20460FE0B8F1FF3FD9D0684615F040
:107820005FFF8045D4DA684615F022FF684615F000
:1078300081FF4FF0FF3005B0BDE8F0832DE9FF4137
:107840000F1E0646154698462EDB684615F0E0FEEC
:10785000684615F06FFF684615F0F4FE4FF4846239
:1078600039463046FFF78EFF4FF4846204463946AE
:107870003046FFF787FF8442F0D1444507DD684674
:1078800015F0F6FE684615F055FF20460EE06B1C1D
:10789000E4D0684615F024FF8542DFDA684615F02B
:1078A000E7FE684615F046FF4FF0FF3004B0BDE834
:1078B000F08107B5130A8DF804308DF805200223F6
:1078C00001AAFFF72BFE03B05DF804FB2DE9F84F8A
:1078D000B1F1000A064693461C4638DB40F22442CA
:1078E000FFF750FF0AF10805ED02ADB2C0F30A013F
:1078F000294489B205F500670B19BB4280460EDDAD
:107900007F1A1FFA87F94B465A463046FFF706FEA4
:10791000C9EB04039BB20BEB0702294601E05A4670
:10792000A3B23046FFF7FAFD4FEA0A2108EB040242
:1079300001F22441304689B292B2FFF7BAFF3046D5
:1079400020225146FFF7D3FE2046BDE8F88F4FF0C6
:10795000FF30BDE8F88F2DE9F84FB1F1000A064677
:1079600093463EDBB3F5806FA8BF4FF480634FF4BE
:1079700085621C46FFF706FF0AF10C05ED02ADB269
:10798000C0F30A01294489B205F500670B19BB420F
:1079900080460EDD7F1A1FFA87F94B465A4630465D
:1079A000FFF7F0FDC9EB04039BB20BEB070229467E
:1079B00001E05A46A3B23046FFF7E4FD4FEA0A2140
:1079C00008EB040201F58561304689B292B2FFF7F7
:1079D00070FF304640225146FFF789FE2046BDE841
:1079E000F88F4FF0FF30BDE8F88F00002DE9F04F21
:1079F000B1F1000885B0064617469A460E9D6ADB2F
:107A00004FEA0824A4B204F58061012201F47F4109
:107A1000FFF74AFC012241463046FFF768FE04F2B8
:107A20000C4B1FFA8BFB4FF00009384617F04CF94E
:107A30002E210DF80900384619F0DCFE30B109F1AD
:107A40000109B9F1040F00F10107EED104236A46E0
:107A500059463046FFF762FD04F5826189B21FFA8C
:107A60008AF23046FFF725FF19F0B2FC6FEA804238
:107A70006FEA924204F2044189B292B23046FFF7B3
:107A800018FF042241463046FFF731FE684615F0E4
:107A9000BFFD684615F04EFE684615F0D3FD414621
:107AA0003046FFF7BDFD0446684654B915F018FE90
:107AB000A842F4DD684615F0DBFD684615F03AFE95
:107AC0000AE015F0D5FD684615F034FE414604483D
:107AD000FBF7CCFE00E00024204605B0BDE8F08FA7
