:020000040010EA
:1020000000D8FF3F29B8120065B8120067B8120067
:1020100069B812006BB812006DB812000000000021
:10202000000000000000000000000000C985120050
:1020300071B8120000000000338612006986120099
:10204000FDA3120069A5120077B81200919E12003C
:1020500077B8120077B812009590120077B8120086
:1020600077B8120077B8120077B8120077B812006C
:1020700077B8120077B8120077B8120077B812005C
:1020800077B8120077B8120077B8120077B812004C
:1020900000D8FF3F29B8120065B8120067B81200D7
:1020A00069B812006BB812006DB812000000000091
:1020B000000000000000000000000000C9851200C0
:1020C00071B8120000000000338612006986120009
:1020D000FDA3120069A5120077B81200919E1200AC
:1020E00077B8120077B812009590120077B81200F6
:1020F00077B8120077B8120077B8120077B81200DC
:1021000077B8120077B8120077B8120077B81200CB
:1021100077B8120077B8120077B8120077B81200BB
:1021200010B5054C237833B9044B13B10448AFF311
:1021300000800123237010BD5443FF3F00000000C6
:10214000849D1300084B10B51BB108490848AFF334
:1021500000800848036803B910BD074B002BFBD073
:10216000BDE81040184700BF000000005843FF3F83
:10217000849D13005443FF3F0000000000B583B06E
:102180000190019801F0CAFF0346184603B05DF8BC
:1021900004FB00BF00B583B001F040FE0190019B3D
:1021A0001B68054A934201D0002300E00123184632
:1021B00003B05DF804FB00BFAFBEADDE00B585B077
:1021C0000190184802F02AFBFFF7E4FF0346002BBA
:1021D00021D001F023FE0390039B03F58073184682
:1021E0000AF02AFA0346002B15D0039B03F58073EF
:1021F0001B78002B0FD0039B03F5807319460A4808
:1022000002F00CFB039B03F580731946019809F05B
:10221000C7FA002301E04FF0FF33184605B05DF820
:1022200004FB00BF003913001839130000B5ADF5E9
:10223000057D01AB1860134802F0F0FA01F0EEFDE5
:10224000014603AB4FF4007218462BF094FB01AB30
:102250001B681A6903AB03F58073114618462DF00D
:10226000EBF903AB4FF40071184601F0E1FD8390E8
:102270008399054802F0D2FA00BF0DF5057D5DF89F
:1022800004FB00BF303913004439130000B585B09A
:1022900001901E4802F0C2FAFFF77CFF0346002BB4
:1022A0002DD001F0BBFD0390039B002B05D11848F6
:1022B00002F0B4FA4FF0FF3323E0039B03F5A07361
:1022C00018460AF0B9F90346002B05D0039B03F525
:1022D000A0731B78002B02D14FF0FF3311E0039B5A
:1022E00003F5A07319460B4802F098FA039B03F517
:1022F000A0731946019808F089FE002301E04FF011
:10230000FF33184605B05DF804FB00BF54391300D5
:10231000683913007C39130000B5ADF5037D01ABBE
:10232000186001F07BFD014602AB4FF400721846C5
:102330002BF021FB01AB1B68DA6802AB03F5A0733D
:10234000114618462DF078F902AB4FF4007118468B
:1023500001F06EFD00BF0DF5037D5DF804FB00BFCD
:1023600000B585B001900023039303AB1946019893
:1023700001F024FF0346002B01DA00231DE0039B3C
:10238000104A1360104B0F4A1A600F4B00225A601C
:102390000E4A019B13600D4B0D4A5A600B4B0222F3
:1023A0009A600A4B0422DA60084B074A1A61074B0D
:1023B0001B691B68054A5361044B184605B05DF85C
:1023C00004FB00BF7043FF3F7443FF3F7C43FF3F6C
:1023D0009443FF3F00B585B0039002910192019AAA
:1023E0000299039801F002FF0346184605B05DF814
:1023F00004FB00BF00B583B00190019801F068FFB5
:1024000000BF03B05DF804FB00B585B003900291F6
:1024100001920093019A0299039801F08BFF034601
:10242000184605B05DF804FB00B587B0059004912F
:1024300003920293099B0093089B039A04990598C1
:1024400001F0D0FF0346184607B05DF804FB00BF5B
:1024500000B585B00390029101920093019A029910
:10246000039801F093FF0346184605B05DF804FB9E
:1024700000B587B00590049103920293099B0093E5
:10248000089B039A0499059801F0FEFF034618463D
:1024900007B05DF804FB00BF00B585B00390029162
:1024A0000192019A0299039802F050F803461846E7
:1024B00005B05DF804FB00BF00B587B0059004913E
:1024C00003920293089B0093029B039A0499059838
:1024D00002F07CF80346184607B05DF804FB00BF25
:1024E00010B586B0019000910BF058FF0590009B4D
:1024F0000493019BDB6818460BF026FF03461A463F
:10250000204905980BF0ACFF049B1B68184629F086
:1025100053FD03460C46184621460BF025FF0346A3
:102520001A46194905980BF09BFF049B5B681846F7
:1025300029F054FD03460C46184621460BF014FFC3
:1025400003461A46114905980BF08AFF049B9B68C5
:10255000184629F031FD03460C46184621460BF07B
:1025600003FF03461A460A4905980BF079FF0598C0
:102570000BF002FE039005980BF02AFE039B184611
:1025800006B010BDA8391300B4391300BC391300CC
:10259000C439130000B583B00190074A019B1A604B
:1025A0000023002B02D0019829F06DF9019B1846F9
:1025B00003B05DF804FB00BF403D130000B583B0DD
:1025C00001900198FFF7E6FF019829F05CF9019B63
:1025D000184603B05DF804FB00B583B00190074ACC
:1025E000019B1A600023002B02D0019829F04BF9BF
:1025F000019B184603B05DF804FB00BF0494130070
:1026000000B583B001900198FFF7E6FF019829F02B
:102610003AF9019B184603B05DF804FB00B583B09E
:102620000190019B1433184608F0BCFB019B18462F
:10263000FFF7D2FF019B184603B05DF804FB00BF13
:1026400010B582B00190094A019B1A60019B1C1DC4
:102650000021204603F0B6FB04F184030121184653
:1026600003F0B0FB019B184602B010BD303D1300D3
:1026700000B585B001900B468DF803309DF803201E
:1026800013465B0113449B00019A1344043318461C
:1026900003F018FC0390039B002B06D003992448F9
:1026A00002F0BCF84FF0FF333DE0224802F0B6F8EC
:1026B0009DF8032013465B0113449B00019A1344C9
:1026C0000433184603F08AFF03460393039B012B50
:1026D00003D1194802F0A2F802E0184802F09EF86F
:1026E0009DF8032013465B0113449B00019A134499
:1026F00004330921184603F089FC0390039B002B47
:1027000006D003990E4802F089F84FF0FF330AE033
:102710000C4802F083F89DF8033003221946019813
:1027200000F062F80346184605B05DF804FB00BFF0
:10273000CC391300143A1300503A1300983A13009E
:10274000B83A1300143B130010B582B00190134A3D
:10275000019B1A600021019800F030F801210198D6
:1027600000F02CF8019B0433002B0CD0019B0433A8
:1027700003F58474019B04339C4204D0843C2046BE
:10278000FFF74CFFF6E70023002B02D0019829F059
:102790007AF8019B184602B010BD00BF303D13000F
:1027A00000B583B001900198FFF7CEFF019829F0A2
:1027B0006AF8019B184603B05DF804FB00B583B0CE
:1027C00001900B468DF803309DF8032013465B0102
:1027D00013449B00019A13440433184603F0B8FDD8
:1027E00000BF03B05DF804FB00B585B001900B4657
:1027F0008DF8033013468DF802309DF80320134600
:102800005B0113449B00019A134404339DF802209A
:102810001146184603F034FC0390039B002B06D0AE
:102820000399074801F0FAFF4FF0FF3303E0054832
:1028300001F0F4FF0023184605B05DF804FB00BF6B
:10284000643B1300B43B130010B586B003900B46F5
:1028500001928DF80B309DF80B2013465B01134459
:102860009B00039A13441C1D019829F0F7FF0346AF
:102870001946204603F004FD0590059B002B07D068
:10288000059A0199064801F0C9FF4FF0FF3304E0B3
:102890000199044801F0C2FF0023184606B010BD9C
:1028A0007C3C1300C03C130010B582B00190054C75
:1028B000054B9C4204D0183C204629F038F8F7E735
:1028C00002B010BD3045FF3FB043FF3FF0B589B0C7
:1028D00003900291039B012B40F08D80029B4FF6E9
:1028E000FF72934240F0878004AB184628F0E0FF67
:1028F00004AB1A464149424829F044F804AB184653
:1029000028F0D7FF3F4A40493D4828F0B7FF3F4BEA
:1029100007241E46B4F1FF3F0ED0334601251F4663
:10292000B5F1FF3F05D0384628F0FAFF1837013DD2
:10293000F6E73036013CEDE7324A3549002028F011
:102940009DFF05AB184628F0B3FF05AB1A462B498F
:10295000304829F017F805AB184628F0AAFF294A95
:1029600029492C4828F08AFF06AB184628F0A0FF1A
:1029700006AB1A462149284829F004F806AB184648
:1029800028F097FF1F4A2049234828F077FF07AB1C
:10299000184628F08DFF07AB1A4618491F4828F043
:1029A000F1FF07AB184628F084FF164A16491B486A
:1029B00028F064FF4FF0FF330093102340222021C2
:1029C000174828F063FC0F4A1649154828F056FFAF
:1029D000002302220121144828F0A2FB094A1349CE
:1029E000114828F04BFF124823F06EFB054A1149AD
:1029F0000F4828F043FF00BF09B0F0BD243D13008D
:102A00009843FF3F0040FF3F2FB91200B043FF3F04
:102A1000A92810003045FF3F4845FF3F6045FF3F74
:102A20007C45FF3FD92510009045FF3F392A100013
:102A3000E845FF3F5161120000B583B001900E4A96
:102A4000019B1A600D4A019B1A640D4A019B5A644E
:102A5000019B4033184628F0E3FC019B1846FFF722
:102A600099FD0023002B02D0019828F00CFF019B58
:102A7000184603B05DF804FBA8931300C09313003D
:102A8000F4931300A0F14000D6E700BFA0F144008A
:102A9000D2E700BF00B583B001900198FFF7CCFFEB
:102AA000019828F0F0FE019B184603B05DF804FB86
:102AB000A0F14000EEE700BFA0F14400EAE700BF4C
:102AC00008B54FF6FF710120FFF700FF08BD00BFFA
:102AD00000B583B00190019B184628F03BFE074AE1
:102AE000019B1A60019B18330021184600F00AF977
:102AF000019B184603B05DF804FB00BF649413000B
:102B000000B583B001900A4A019B1A60019828F031
:102B100039FD019B184628F051FE0023002B02D0FE
:102B2000019828F0B0FE019B184603B05DF804FB45
:102B30006494130000B583B001900198FFF7E0FFA3
:102B4000019828F0A0FE019B184603B05DF804FB35
:102B500000B585B0039003984FF0FF330093102326
:102B60004022202128F092FB039B14331846FFF7E4
:102B7000AFFF039B44331846FFF7AAFF039B184699
:102B800005B05DF804FB00BF00B583B000238DF8ED
:102B90000730174801F042FE0DF1070319461548AA
:102BA00004F07AFA9DF807301946134801F036FE12
:102BB00000238DF807300DF1070319460D4804F086
:102BC00079FA9DF8073019460C4801F027FE0023DA
:102BD0008DF80730074804F03DFC142026F0BAF8C1
:102BE000044804F027FC00BF03B05DF804FB00BFFD
:102BF000483D1300FC45FF3F643D1300743D130046
:102C000082B00190034A019B1A60019B184602B0F2
:102C1000704700BFB43D130000B583B00190074A70
:102C2000019B1A600023002B02D0019828F02BFE94
:102C3000019B184603B05DF804FB00BFB43D1300D0
:102C400000B583B001900198FFF7E6FF019828F0E6
:102C50001AFE019B184603B05DF804FB00B583B073
:102C600001900D490D4804F0D1FD0346002B14BF1F
:102C700001230023DBB2002B05D0094801F0CEFD73
:102C80004FF0FF3303E0054804F0E8FC002318464A
:102C900003B05DF804FB00BF892B1000FC45FF3F2B
:102CA000843D130000B585B00190009101210C48CE
:102CB00004F0E0FB009B1946094804F073FC084847
:102CC00004F0B8FB064804F0E3FC034603930399C1
:102CD000044801F0A3FD0023184605B05DF804FB8D
:102CE000FC45FF3F9C3D130000B583B001900448B4
:102CF00004F0B0FB0023184603B05DF804FB00BFEE
:102D0000FC45FF3F00B583B0019000910099019808
:102D100000F006F8019B184603B05DF804FB00BF05
:102D200082B001900091019B009A1A60019B0022E1
:102D30005A6100BF02B0704710B582B00190054CD7
:102D4000054B9C4204D0183C204628F0F0FDF7E7E4
:102D500002B010BD3045FF3FB043FF3F00B583B028
:102D60000190019B44331846FFF7CAFE019B1433C0
:102D70001846FFF7C5FE019B1846FFF72DFC019B87
:102D8000184603B05DF804FBF0B589B003900291DA
:102D9000039B012B40F09580029B4FF6FF729342FC
:102DA00040F08F8004AB184628F082FD04AB1A4631
:102DB0004549464828F0E6FD04AB184628F079FD61
:102DC000434A4449414828F059FD434B07241E46D5
:102DD000B4F1FF3F0ED0334601251F46B5F1FF3F4A
:102DE00005D0384628F09CFD1837013DF6E730360F
:102DF000013CEDE7364A3949002028F03FFD05AB9C
:102E0000184628F055FD05AB1A462F49344828F0DE
:102E1000B9FD05AB184628F04CFD2D4A2D49304828
:102E200028F02CFD06AB184628F042FD06AB1A46EA
:102E300025492C4828F0A6FD06AB184628F039FD98
:102E4000234A2449274828F019FD07AB184628F0E3
:102E50002FFD07AB1A461C49234828F093FD07AB0A
:102E6000184628F026FD1A4A1A491F4828F006FD80
:102E70004FF0FF3300931023402220211B4828F0FD
:102E800005FA134A1A49194828F0F8FC00230222CF
:102E90000121184828F044F90D4A1749154828F02F
:102EA000EDFC164823F010F9094A1549134828F09B
:102EB000E5FC1448FFF74CFE054A1349114828F079
:102EC000DDFC00BF09B0F0BDA83D13009843FF3FF3
:102ED0000040FF3F2FB91200B043FF3F392D1000D3
:102EE0003045FF3F4845FF3F6045FF3F7C45FF3F82
:102EF000D92510009045FF3F392A1000E845FF3FD3
:102F000051611200FC45FF3F5D2D100008B54FF6E2
:102F1000FF710120FFF738FF08BD00BF00B585B085
:102F2000039003984FF0FF33009310234022202199
:102F300028F0ACF9039B03F114004FF0FF3300932A
:102F40002A230422082107F07DFD039B184605B0C3
:102F50005DF804FB00B583B00190019B1433184663
:102F600007F020FF019B1846FFF736FB019B184630
:102F700003B05DF804FB00BF00B583B00190064AC2
:102F8000019B1A60019B04331846FFF7C7FF019BA2
:102F9000184603B05DF804FB3C43130000B583B052
:102FA00001900D4A019B1A600121019800F0CEF8B2
:102FB0000221019800F0CAF8019B04331846FFF77C
:102FC000C9FF0023002B02D0019828F05CFC019B74
:102FD000184603B05DF804FB3C43130000B583B012
:102FE00001900198FFF7DAFF019828F04CFC019B53
:102FF000184603B05DF804FB00B585B00190019B55
:10300000002283F87C20019B0433184601F032FE35
:103010000390039B002B06D003991B4801F0FEFB95
:103020004FF0FF332CE0194801F0F8FB019B04330B
:10303000174A1849184601F0B3FF0390039B002B71
:1030400006D00399144801F0E9FB4FF0FF3317E075
:10305000124801F0E3FB019B04330121184601F003
:10306000A5FE0390039B002B06D003990C4801F0AA
:10307000D5FB4FF0FF3303E00A4801F0CFFB0023FC
:10308000184605B05DF804FBBC3D1300F03D13008D
:103090000000C04000003442183E1300583E1300A8
:1030A0008C3E1300E03E130000B585B001900B4646
:1030B0008DF80330019B04339DF803201146184618
:1030C00002F00EFB0390039B002B06D003991B48D4
:1030D00001F0A4FB4FF0FF332CE0194801F09EFBF8
:1030E000019B93F87C30002B12D1019B04331846CE
:1030F00002F09AF80390039B002B06D00399114825
:1031000001F08CFB4FF0FF3314E00F4801F086FB19
:10311000019B93F87C305AB29DF80330012B01D10A
:10312000012300E0022313435BB2DAB2019B83F870
:103130007C200023184605B05DF804FBD84013003E
:10314000204113005C4113009441130000B585B089
:1031500001900B468DF80330019B04339DF803204A
:103160001146184602F02AFB0390039B002B06D061
:1031700003991C4801F052FB4FF0FF332EE01A4830
:1031800001F04CFB019B93F87C305AB29DF8033060
:10319000012B02D16FF0010301E06FF00203134035
:1031A0005BB2DAB2019B83F87C20019B93F87C3000
:1031B000002B12D1019B0433184602F069F80390EA
:1031C000039B002B06D00399084801F027FB4FF022
:1031D000FF3303E0064801F021FB0023184605B049
:1031E0005DF804FBC0411300084213004442130081
:1031F0007C42130000B587B003900B4601928DF816
:103200000B30039B0433019A92B29DF80B101846C1
:1032100001F072FE0590059B002B06D0059A0199DE
:10322000074801F0FBFA002305E00199054801F089
:10323000F5FA4FF0FF33184607B05DF804FB00BF06
:10324000A8421300F042130010B582B00190054C63
:10325000054B9C4204D0183C204628F068FBF7E759
:1032600002B010BD3045FF3FB043FF3FF0B589B01D
:1032700003900291039B012B40F08D80029B4FF63F
:10328000FF72934240F0878004AB184628F010FB91
:1032900004AB1A464149424828F074FB04AB184677
:1032A00028F007FB3F4A40493D4828F0E7FA3F4BEA
:1032B00007241E46B4F1FF3F0ED0334601251F46BA
:1032C000B5F1FF3F05D0384628F02AFB1837013DFD
:1032D000F6E73036013CEDE7324A3549002028F068
:1032E000CDFA05AB184628F0E3FA05AB1A462B4990
:1032F000304828F047FB05AB184628F0DAFA294A8F
:1033000029492C4828F0BAFA06AB184628F0D0FA1A
:1033100006AB1A462149284828F034FB06AB18466C
:1033200028F0C7FA1F4A2049234828F0A7FA07AB1C
:10333000184628F0BDFA07AB1A4618491F4828F06E
:1033400021FB07AB184628F0B4FA164A16491B4869
:1033500028F094FA4FF0FF330093102340222021ED
:10336000174827F093FF0F4A1649154828F086FAA8
:10337000002302220121144827F0D2FE094A1349F2
:10338000114828F07BFA124822F09EFE054A1149A6
:103390000F4828F073FA00BF09B0F0BD30431300A6
:1033A0009843FF3F0040FF3F2FB91200B043FF3F5B
:1033B000493210003045FF3F4845FF3F6045FF3F21
:1033C0007C45FF3FD92510009045FF3F392A10006A
:1033D000E845FF3F5161120008B54FF6FF7101202B
:1033E000FFF744FF08BD00BF00B583B00190009116
:1033F000019B1A460023136053609360D3601361EE
:103400005361019B0099184625F08CFB019B1846DF
:1034100003B05DF804FB00BF82B00190019B184629
:1034200002B0704700B585B0039003984FF0FF33AA
:10343000009310234022202127F028FF039B143300
:103440004FF0FF311846FFF7CFFF039B03F1340025
:103450004FF0FF33009320230422082107F0F2FAF3
:10346000039B184605B05DF804FB00BF0000000098
:1034700010B584B0019001992B4801F0CFF9019863
:103480000AF050FE0390294903980AF0D1FE0290F9
:10349000029B002B02D14FF0FF333AE0029BD3E9AD
:1034A00006014FF000024FF0000329F053F80346E5
:1034B000002B03D01E48FFF717FC26E0029BD3E940
:1034C000060115A3D3E9002329F04EF80346002B8B
:1034D0000AD1029BD3E9060111A3D3E9002329F005
:1034E00061F80346002B02D04FF0FF3311E0029B3E
:1034F00003F11804D4E900341846214629F05CF899
:10350000034619460A48FFF7CDFB03980AF060FE10
:103510000023184604B010BD000000000030B14088
:1035200000000000002CCA40444313005043130025
:10353000EC47FF3F10B586B001900199354801F086
:103540006DF901980AF0EEFD0590334905980AF0EF
:103550006FFE0490049B002B02D14FF0FF3356E026
:103560002E4905980AF064FE0390039B002B02D1BC
:103570004FF0FF334BE0039BD3E906014FF000020D
:10358000274B28F0F1FF0346002B0BD1039BD3E917
:1035900006014FF000024FF0804329F003F8034684
:1035A000002B02D04FF0FF3331E0039BD3E906013B
:1035B00001231C464FF00002194B28F0CBFF0346B5
:1035C000002B01D000231C46E3B28DF80B309DF890
:1035D0000B3019461348FFF74BF8049B03F118040E
:1035E000D4E900341846214628F0E6FF02469DF84B
:1035F0000B3019460B48FFF727F99DF80B30194699
:103600000848FFF7DBF805980AF0E2FD00231846AA
:1036100006B010BD44431300544313005C43130031
:103620000000F03FF047FF3F10B586B001900199D0
:103630003B4801F0F3F801980AF074FD0590394910
:1036400005980AF0F5FD0490049B002B02D14FF081
:10365000FF3361E0049BD3E906014FF00002324BD7
:1036600028F082FF0346002B0BD1049BD3E906010F
:103670004FF000024FF0804328F094FF0346002BE8
:1036800002D04FF0FF3347E0049BD3E906014FF02F
:103690000002254B28F05EFF0346002B01D00123DA
:1036A00000E002238DF80F30204905980AF0C0FD94
:1036B0000290029B002B02D14FF0FF332CE0029BC3
:1036C000D3E906014FF000024FF0000328F06AFF33
:1036D0000346002B16D09DF80F3019461448FFF70B
:1036E000E3FC029B03F11804D4E900341846214698
:1036F00028F062FF02469DF80F3019460C48FFF78C
:1037000079FD05E09DF80F3019460948FFF71EFDC9
:1037100005980AF05DFD0023184606B010BD00BFF5
:10372000444313005C4313000000F03F6443130064
:10373000FC48FF3F70B588B003900A23079300232D
:103740000693039B0593059B1946204803F0A8FAAE
:103750001F491E4803F0F0FA0246059B5A60059B7C
:103760009B6806931B4803F0D3FB0246059B9A60B7
:10377000059B9A68069B9A4206D1174B1B685A1CF8
:1037800015490A60092B01DD012300E00023002B0D
:1037900016D0114B00221A60059B9D68059B1E6880
:1037A000059B5B68184628F019FC03460C46CDE9DA
:1037B000003432462946094801F030F8002301E080
:1037C0004FF0FF33184608B070BD00BFE447FF3F1D
:1037D0006666F640E847FF3F7C49FF3F68431300B9
:1037E00030B589B0714804F0BDFA71496F4804F0F2
:1037F000F3FA4FF07E5025F097FA6E4801F00EF87C
:1038000098238DF814304F238DF81530EE238DF862
:10381000163000238DF81730A1238DF818300323BC
:103820008DF8193005AB1946634804F01DFD07906B
:10383000079B002B13D1604804F0E0FD03461946B6
:103840005E4800F0EBFF5E49584804F0C5FA5A485C
:1038500004F03EFD0790079B002B3BD10AE007993F
:10386000584800F0DBFF5849504804F0B5FA4FF0D3
:10387000FF3398E0504804F04FFD04464E4804F0F2
:1038800071FD05464C4804F093FD03462A46214647
:103890004E4800F0C3FF454804F092FA012301228C
:1038A0004B49424804F0AAFA434804F035FD01466A
:1038B000012302223D4804F0A1FA0221454803F009
:1038C000E7F80346002B14BF01230023DBB2002BD3
:1038D00012D00AE00799404800F0A0FF3F49334862
:1038E00004F07AFA4FF0FF335DE03D492F4804F0D1
:1038F00073FA4FF0FF3356E03A492C4804F06CFA63
:10390000384800F08BFF4FF07E5025F00DFA364816
:10391000FFF772FB3548FFF7A1F9002001F0D4F85A
:1039200003460493049B1946314800F077FF07F0E3
:1039300047FA002001F0C8F80346049304AB184688
:1039400029F02AFA034619462A4800F067FF2A4957
:10395000164804F041FA08F037F901AB1846FFF7B2
:10396000E9FE01AB184608F081F92449244807F024
:10397000E3FB2449244807F0DFFB2449244807F0EF
:10398000DBFB2449094804F027FA08F095F922499D
:10399000064804F021FA01AB1946204808F0C6F9A0
:1039A00008F018FA0023184609B030BD7046FF3FF2
:1039B00084431300944313000847FF3FA8431300B8
:1039C000C0431300C8431300E4431300FC43130037
:1039D00018441300E447FF3F204413004044130001
:1039E0005844130074441300FC48FF3FEC47FF3F6A
:1039F00094441300A4441300B04413003535100060
:103A0000D444130029361000DC4413007134100034
:103A1000E0441300E8441300FC4413003537100061
:103A200010B582B00190054C054B9C4204D0183C67
:103A3000204627F07CFFF7E702B010BD3045FF3F7E
:103A4000B043FF3F00B583B00190019B343318466B
:103A500007F0A8F9019B1846FEF7BEFD019B18462A
:103A600003B05DF804FB00BF00B583B00190019B7B
:103A70002433184607F096F9019B184603B05DF809
:103A800004FB00BF00B583B00190019B1846FFF70F
:103A9000EBFF019B184603B05DF804FBF0B589B05D
:103AA00003900291039B012B40F0B880029B4FF6DC
:103AB000FF72934240F0B28004AB184627F0F8FE44
:103AC00004AB1A465749584827F05CFF04AB184628
:103AD00027F0EFFE554A5649534827F0CFFE554B85
:103AE00007241E46B4F1FF3F0ED0334601251F4682
:103AF000B5F1FF3F05D0384627F012FF1837013DDA
:103B0000F6E73036013CEDE7484A4B49002027F004
:103B1000B5FE05AB184627F0CBFE05AB1A4641496A
:103B2000464827F02FFF05AB184627F0C2FE3F4A54
:103B30003F49424827F0A2FE06AB184627F0B8FEE0
:103B400006AB1A4637493E4827F01CFF06AB18461D
:103B500027F0AFFE354A3649394827F08FFE07ABCC
:103B6000184627F0A5FE07AB1A462E49354827F020
:103B700009FF07AB184627F09CFE2C4A2C49314818
:103B800027F07CFE4FF0FF330093102340222021CA
:103B90002D4827F07BFB254A2C492B4827F06EFE49
:103BA0000023022201212A4827F0BAFA1F4A294994
:103BB000274827F063FE284822F086FA1B4A274947
:103BC000254827F05BFE2648FFF72CFC174A2549BD
:103BD000234827F053FE244804F036FB134A2349B8
:103BE000214827F04BFE2248FFF716FC2148FFF73B
:103BF00007F80E4A20491F4827F040FE1F48FEF7ED
:103C00001FFD0A4A1E491D4827F038FE1D48FFF7D0
:103C1000B3F9064A1C491B4827F030FE00BF09B023
:103C2000F0BD00BF0C4513009843FF3F0040FF3F2D
:103C30002FB91200B043FF3F213A10003045FF3F3B
:103C40004845FF3F6045FF3F7C45FF3FD9251000B9
:103C50009045FF3F392A1000E845FF3F51611200AF
:103C60007046FF3F453A10000847FF3F853A100075
:103C7000E847FF3FEC47FF3F192C1000F047FF3F9C
:103C800049271000FC48FF3F9D2F100008B54FF654
:103C9000FF710120FFF702FF08BD00BF00B583B030
:103CA000019000910E4A019B1A60019B009A5A6094
:103CB000002208210B4827F021FB0B49094827F077
:103CC00035FB019B5B68184627F0F0FD03461A465A
:103CD000019B9A60019B184603B05DF804FB00BF8E
:103CE000444513008049FF3F40420F0000B583B0B8
:103CF00001900D4A019B1A60019B9B68002B08D024
:103D0000019B9B68002B04D0019B9B68184627F001
:103D1000B3FD0023002B02D0019827F0B4FD019BD6
:103D2000184603B05DF804FB4445130000B583B0AA
:103D300001900198FFF7DAFF019827F0A4FD019B9D
:103D4000184603B05DF804FB10B586B0019003A8D7
:103D50004FF480734FF48022094903F0F5FD019B75
:103D60005A68019B9B6803A8022103F01BFE0446CE
:103D700003AB184603F010FE2346184606B010BDEC
:103D80008049FF3F10B588B0039002910192029BD9
:103D9000002B02D14FF0FF3436E004A84FF48073BB
:103DA0004FF480221A4903F0CFFD039B9B68019AD0
:103DB0000299184629F0DFFD039B5968039B9B6815
:103DC00004AA144800F02AFD039B5A68039B9B68D1
:103DD00004A8022103F05CFE03468DF81F309DF815
:103DE0001F3019460C4800F019FD9DF81F3083F074
:103DF0000103DBB2002B02D04FF0FF3400E00024BF
:103E000004AB184603F0C8FD2346184608B010BDA1
:103E10008049FF3F104513002845130008B50348AB
:103E2000FFF792FF0346184608BD00BF9449FF3FC5
:103E300000B583B001900091009A01990348FFF703
:103E4000A1FF0346184603B05DF804FB9449FF3F09
:103E500010B582B00190054C054B9C4204D0183C33
:103E6000204627F064FDF7E702B010BD3045FF3F64
:103E7000B043FF3FF0B589B003900291039B012B43
:103E800040F0A580029B4FF6FF72934240F09F8066
:103E900004AB184627F00CFD04AB1A464D494E48BA
:103EA00027F070FD04AB184627F003FD4B4A4C4940
:103EB000494827F0E3FC4B4B07241E46B4F1FF3F73
:103EC0000ED0334601251F46B5F1FF3F05D03846D9
:103ED00027F026FD1837013DF6E73036013CEDE7C7
:103EE0003E4A4149002027F0C9FC05AB184627F09F
:103EF000DFFC05AB1A4637493C4827F043FD05ABCC
:103F0000184627F0D6FC354A3549384827F0B6FC24
:103F100006AB184627F0CCFC06AB1A462D493448B0
:103F200027F030FD06AB184627F0C3FC2B4A2C497E
:103F30002F4827F0A3FC07AB184627F0B9FC07ABC6
:103F40001A4624492B4827F01DFD07AB184627F0D9
:103F5000B0FC224A2249274827F090FC4FF0FF335B
:103F60000093102340222021234827F08FF91B4A79
:103F70002249214827F082FC002302220121204807
:103F800027F0CEF8154A1F491D4827F077FC1E4838
:103F900022F09AF8114A1D491B4827F06FFC4FF098
:103FA000FF330093102340222021194827F06EF997
:103FB0000A4A1249164827F061FC4FF480611548FF
:103FC000FFF76CFE054A1449124827F057FC00BF62
:103FD00009B0F0BD384513009843FF3F0040FF3F54
:103FE0002FB91200B043FF3F513E10003045FF3F54
:103FF0004845FF3F6045FF3F7C45FF3FD925100006
:104000009045FF3F392A1000E845FF3F51611200FB
:104010008049FF3F9449FF3FED3C100008B54FF643
:10402000FF710120FFF726FF08BD00BF84B001909B
:1040300000230393039B072B09DC074A039B1B0107
:10404000134400221A60039B01330393F2E7019BA0
:10405000184604B0704700BFA049FF3F82B000235C
:104060000193019B072B0CDC084A019B1B011344A5
:104070001B68002B01D1019B05E0019B01330193DB
:10408000EFE74FF0FF33184602B07047A049FF3FFB
:1040900000B587B003900291039B0593059B1B78A5
:1040A0001946059B01331B781846059B02331B7884
:1040B0001A46059B03331B780193009203460A4678
:1040C000044902982BF0FEF90023184607B05DF86A
:1040D00004FB00BF4C45130000B587B0039002916C
:1040E000029B0593059B591C059B0233059A0332DD
:1040F000019200930B46059A074903982BF006FAA4
:104100000490049B042B02D04FF0FF3300E0002307
:10411000184607B05DF804FB4C45130070B596B027
:10412000059000231493234804F068F902460DAB70
:10413000114618462BF080FA149B002B01DA149BD1
:1041400035E007AC043407AB083307AA0C3207A9E3
:10415000103107A8143007AE0DAD03900291019203
:10416000009323463246144928462BF0CFF9149089
:10417000149B062B02D04FF0FF3318E00023159359
:10418000159B052B0EDC159B059A1A44159B9B006D
:1041900016A90B4453F83C3CDBB21370159B01335A
:1041A0001593EDE7059B063300221A70002318468D
:1041B00016B070BD0847FF3F5845130000B589B0E1
:1041C0000190009103AB10220021184629F0F9FB61
:1041D000009A0199044804F009FC03460793079BE1
:1041E000184609B05DF804FB0847FF3F10B588B0DA
:1041F000039002910192039B022B02D04FF0FF33F8
:1042000060E0019B002B08D0019B062B05D0019B91
:10421000112B02D04FF0FF3354E04FF0FF330793E0
:10422000FFF71CFF0790079B002B01DA079B49E073
:10423000264A079B1B0113440C3300221A60029B81
:10424000012B24D0022B39D1102027F01EFB03466E
:104250001C46204606F09EFA06941C4A079B1B014A
:104260001344069A1A60194A079B1B01134408332A
:10427000029A1A60069806F099FA2AF0B9FF0346E6
:10428000C3F30E031946069806F0B6FA19E0282083
:1042900027F0FBFA03461C46204606F089F90594F0
:1042A0000A4A079B1B011344059A1A60074A079B99
:1042B0001B0113440833029A1A6002E04FF0FF33E7
:1042C00000E0079B184608B010BD00BFA049FF3FA3
:1042D00010B582B00190019B002B02DB019B082BE3
:1042E00002DD4FF0FF3320E0114A019B1B01134414
:1042F0001B68002B02D14FF0FF3316E00C4A019BE4
:104300001B0113441C68002C05D0204606F044F91C
:10431000204627F0B8FA019B1B01054A13441022DE
:104320000021184629F04DFB0023184602B010BDAD
:10433000A049FF3F00B587B0039002910192039B13
:10434000002B02DB039B082B02DD4FF0FF3316E04E
:104350000D4A039B1B0113441B68002B02D14FF035
:10436000FF330CE0084A039B1B0113441B680593B1
:10437000019B1A460299059806F084F903461846EF
:1043800007B05DF804FB00BFA049FF3F00B587B050
:10439000039002910192039B002B02DB039B082BED
:1043A00002DD4FF0FF3317E00D4A039B1B0113445E
:1043B0001B68002B02D14FF0FF330DE0084A039B2E
:1043C0001B0113441B680593019B1A46029905982B
:1043D00006F09CF90490049B184607B05DF804FBB6
:1043E000A049FF3F10B594B0039002910192009351
:1043F000039B002B02DB039B082B02DD4FF0FF34F5
:104400003BE0204A039B1B0113441B68002B02D195
:104410004FF0FF3431E0009B1393139B5B681293C2
:10442000129B1BBA0D9309AA0DAB11461846FFF754
:104430002FFE04AB184605F0F7FF139B5B880F9324
:104440000F9B5BBA0E930E9B1A4609A904AB184644
:1044500006F008F811900B4A039B1B0113441B68DC
:104460001093019B04A9029A109806F011FA11907A
:10447000119C04AB184605F0E3FF2346184614B020
:1044800010BD00BFA049FF3F10B58EB00390029150
:1044900001920093039B002B02DB039B082B02DDA0
:1044A0004FF0FF344AE0274A039B1B0113441B686B
:1044B000002B02D14FF0FF3440E0019A03992248CB
:1044C00000F0ACF906AB184605F0AEFF1D4A039BA1
:1044D0001B0113441B680D93019B06A9029A0D98BA
:1044E00006F006FA0C900C9A0399174800F096F91A
:1044F0000C9B002B02DA4FF0FF341BE0009B0B9368
:1045000006AB184605F0ECFF024605AB194610460F
:10451000FFF7E2FD0B9B043305A90422184629F09E
:104520002AFA06AB184605F0E1FF03469AB20B9B48
:104530005A800C9C06AB184605F082FF23461846AD
:104540000EB010BDA049FF3F7845130000B58FB0F5
:10455000039002910192039B002B02DB039B082B2B
:1045600002DD4FF0FF332BE0174A039B1B0113447E
:104570001B68002B02D14FF0FF3321E0029B0D930B
:104580000D9B5B680B930B9B1BBA08930E4A039B16
:104590001B0113441B680C9304AA08AB1146184670
:1045A000FFF776FD0D9B5B880A930A9B5BBA099324
:1045B000099B1A4604AB19460C9806F00FF80346FF
:1045C00018460FB05DF804FBA049FF3F00B587B067
:1045D0000390029101920093039B002B02DB039B4B
:1045E000082B02DD4FF0FF3339E0029B40F6FF72EB
:1045F000934232D1019BA3F58053053B012B29D86F
:10460000089B082B23D1009B002B1ED0009B0593F9
:10461000059B1B684FF47A7202FB03F2059B5B68F3
:10462000114981FB03018911DB17CB1A1344049351
:10463000049B002B09DD0D4A039B1B0113441B68DF
:10464000049A0021184605F07BFF002307E06FF075
:10465000020304E06FF0010301E04FF0FF3318465E
:1046600007B05DF804FB00BFD34D6210A049FF3FC7
:1046700010B582B00190054C054B9C4204D0183C0B
:10468000204627F054F9F7E702B010BD3045FF3F50
:10469000B043FF3FF0B589B003900291039B012B1B
:1046A00040F09080029B4FF6FF72934240F08A8068
:1046B00004AB184627F0FCF804AB1A4643494448BB
:1046C00027F060F904AB184627F0F3F8414A424955
:1046D0003F4827F0D3F8414B07241E46B4F1FF3F73
:1046E0000ED0334601251F46B5F1FF3F05D03846B1
:1046F00027F016F91837013DF6E73036013CEDE7B3
:10470000344A3749002027F0B9F805AB184627F09E
:10471000CFF805AB1A462D49324827F033F905ABDF
:10472000184627F0C6F82B4A2B492E4827F0A6F842
:1047300006AB184627F0BCF806AB1A4623492A48B0
:1047400027F020F906AB184627F0B3F8214A224992
:10475000254827F093F807AB184627F0A9F807ABD0
:104760001A461A49214827F00DF907AB184627F0D9
:10477000A0F8184A18491D4827F080F84FF0FF3379
:104780000093102340222021194826F07FFD114A72
:104790001849174827F072F8002302220121164811
:1047A00026F0BEFC0B4A1549134827F067F8144859
:1047B00021F08AFC074A1349114827F05FF8124894
:1047C000FFF734FC00BF09B0F0BD00BF8C451300FB
:1047D0009843FF3F0040FF3F2FB91200B043FF3F17
:1047E000714610003045FF3F4845FF3F6045FF3FA1
:1047F0007C45FF3FD92510009045FF3F392A100026
:10480000E845FF3F51611200204AFF3F08B54FF6CF
:10481000FF710120FFF73EFF08BD00BF0FB400B5D8
:1048200083B005AB01930F4B00221A70019B049AD1
:1048300076210C482CF0C2FC0A482AF005FF0346FA
:104840001A46084B1344084A1188927819809A70C6
:104850000449064826F07CFE00BF03B05DF804EB77
:1048600004B070477C4AFF3F90451300644AFF3F05
:1048700010B582B00190054C054B9C4204D0183C09
:10488000204627F054F8F7E702B010BD3045FF3F4F
:10489000B043FF3FF0B589B003900291039B012B19
:1048A00040F09A80029B4FF6FF72934240F0948052
:1048B00004AB184626F0FCFF04AB1A4648494948A9
:1048C00027F060F804AB184626F0F3FF464A474944
:1048D000444826F0D3FF464B07241E46B4F1FF3F61
:1048E0000ED0334601251F46B5F1FF3F05D03846AF
:1048F00027F016F81837013DF6E73036013CEDE7B2
:10490000394A3C49002026F0B9FF05AB184626F08D
:10491000CFFF05AB1A463249374827F033F805ABCD
:10492000184626F0C6FF304A3049334826F0A6FF25
:1049300006AB184626F0BCFF06AB1A4628492F489E
:1049400027F020F806AB184626F0B3FF264A274981
:104950002A4826F093FF07AB184626F0A9FF07ABBD
:104960001A461F49264827F00DF807AB184626F0CF
:10497000A0FF1D4A1D49224826F080FF4FF0FF335B
:1049800000931023402220211E4826F07FFC164A67
:104990001D491C4826F072FF0023022201211B48FA
:1049A00026F0BEFB104A1A49184826F067FF19483E
:1049B00021F08AFB0C4A1849164826F05FFF0023B5
:1049C0004FF400724FF48071144826F0A9FB064A98
:1049D0000F49124826F052FF00BF09B0F0BD00BFDA
:1049E000944513009843FF3F0040FF3F2FB912004A
:1049F000B043FF3F714810003045FF3F4845FF3F3F
:104A00006045FF3F7C45FF3FD92510009045FF3FA3
:104A1000392A1000E845FF3F51611200244AFF3F48
:104A200008B54FF6FF710120FFF734FF08BD00BF46
:104A300070B58CB00790002000F046F8034609934B
:104A400009AB184628F018FD0B90114826F046FED9
:104A50000A900B9B5B6903F26C750B9B1B695E1CD8
:104A60000B9BDB680B9A92680B9949680B9800685E
:104A70000A9C0494039002910192009333462A46C3
:104A8000044907982AF01EFD00BF0CB070BD00BF9E
:104A9000F44AFF3F9845130000B583B001900091A0
:104AA000002000F011F80246019B1A60054826F02C
:104AB000F1FD0246019B5A600023184603B05DF8E1
:104AC00004FB00BFF44AFF3F10B584B001900F4BC8
:104AD0001B68184627F0C2FE04460D4826F0E8FD84
:104AE00003461946204627F005FE0346184628F0DF
:104AF000CFF803460393019B002B02D0019B039A3E
:104B00001A60039B184604B010BD00BF044BFF3F62
:104B1000F44AFF3F00B583B00190019B1B68194622
:104B20000748FFF77BFE019B1B68064A1360064897
:104B300026F0FEFD0023184603B05DF804FB00BF1D
:104B4000BC451300044BFF3FF44AFF3F00B583B060
:104B50000190019824F0FEF80023184603B05DF898
:104B600004FB00BF00B583B001900091019B012BB5
:104B700007D1009B4FF6FF72934202D1034826F003
:104B800045FD00BF03B05DF804FB00BFF44AFF3FE2
:104B900008B54FF6FF710120FFF7E4FF08BD00BF25
:104BA00000B583B00A4A0B4BD31A0193019B1A46F6
:104BB0000021084828F005FF23F0BCFC28F004FD84
:104BC00024F032FE26F062FA0090009828F000F9F6
:104BD0005466FF3F5443FF3F00B583B00190019BF3
:104BE000022B01DC012303E0019826F0E5F90346DE
:104BF000184603B05DF804FB82B0EFF30583019320
:104C0000019B002B00D000BE00BF02B0704700BF68
:104C100000B583B00190FFF7EFFF019828F06CFE1C
:104C20000346184603B05DF804FB00BF00B583B02F
:104C300001900091FFF7E0FF009901982AF012FB24
:104C40000346184603B05DF804FB00BF00B583B00F
:104C50000190FFF7D1FF019828F056FE00BF03B086
:104C60005DF804FB08B5012028F0B2F808B5FFF79D
:104C7000F9FF00BF00B585B00190019800F08AFFF0
:104C8000019800F0E5FF019801F06EF80DF10A03BC
:104C90001A461821019800F00FFE0390039B13F1B0
:104CA000020F02D16FF001037AE00DF10A031A46F8
:104CB0001721019800F000FE0390039B13F1020FEF
:104CC00002D16FF001036BE0019801F023F803902B
:104CD000039B002B01D0039B62E00221019800F0AE
:104CE00019FC0390039B002B01D0039B58E0022189
:104CF000019800F04FFB039B002B01D0039B4FE07A
:104D00000021019800F086FB0390039B002B01D04B
:104D1000039B45E00021019800F0BCFB0390039B3E
:104D2000002B01D0039B3BE00321019800F072FCB3
:104D30000390039B002B01D0039B31E001210198DC
:104D400000F028FC0390039B002B01D0039B27E07D
:104D50001549019800F0D0FA0390039B002B01D075
:104D6000039B1DE04FF000020121019800F05CF868
:104D70000390039B002B01D0039B11E04FF0000236
:104D80000221019800F050F80390039B002B01D002
:104D9000039B05E05821019800F07CFC0390039BE5
:104DA000184605B05DF804FBECB1040000B585B011
:104DB00001900B468DF803300DF10A031A460821C5
:104DC000019800F065FD034613F1020F0CBF0123AB
:104DD0000023DBB2002B02D06FF001031FE0BDF80F
:104DE0000A3023F003039BB2ADF80A309DF803307C
:104DF0009AB2BDF80A3013439BB2ADF80A30BDF841
:104E00000A301A460821019800F024FE0390039B03
:104E100013F1020F02D16FF0010300E000231846E6
:104E200005B05DF804FB00BF00B58BB003900B46E6
:104E300001928DF80B300023ADF826302C4B0893EF
:104E40004FF0000307930899019827F017FF0346D6
:104E5000002B06D10799019827F0F2FE0346002B9C
:104E600002D06FF002033FE02249019827F04AFD8B
:104E700003461F49184627F0F9FD0346184627F058
:104E80002DFF0346ADF81A30BDF81A30ADF82630C4
:104E90009DF80B30012B02D0022B0FD01DE0BDF886
:104EA00026301A460921039800F0D4FD0590059B91
:104EB00013F1020F14D16FF0010315E0BDF8263095
:104EC0001A460A21039800F0C5FD0590059B13F1D1
:104ED000020F07D16FF0010306E06FF0020303E059
:104EE00000BF00E000BF002318460BB05DF804FBD4
:104EF0000000C84200C07F4400B587B001900B4657
:104F00008DF803301346ADF800300023ADF81630AD
:104F100040F2FF33ADF81430BDF80020BDF8143076
:104F20009A4202D96FF0020333E0BDF80030ADF8C9
:104F30001230BDF81230ADF816309DF80330012B59
:104F400002D0022B0FD01DE0BDF816301A46092101
:104F5000019800F07FFD0390039B13F1020F14D121
:104F60006FF0010315E0BDF816301A460A210198CA
:104F700000F070FD0390039B13F1020F07D16FF057
:104F8000010306E06FF0020303E000BF00E000BF92
:104F90000023184607B05DF804FB00BF00000000C6
:104FA00000B589B00390029101920199029827F00F
:104FB000A1FB03469649184627F060FE0346002BE6
:104FC00002D06FF0020306E1029827F007F884A3ED
:104FD000D3E9002327F0E6FA0346002B02D08D4BDD
:104FE000029308E08C49029827F02AFE0346002B22
:104FF00001D08A4B02938949029827F017FE034695
:10500000002B03D000238DF81F3014E08249029852
:1050100027F06EFB03468249184627F073FC0346CF
:105020008049184627F022FD0346184627F056FE11
:1050300003468DF81F300DF116031A46032103981D
:1050400000F026FC034613F1020F0CBF01230023DE
:10505000DBB2002B02D06FF00103BCE0BDF81630CC
:1050600023F07F039BB2ADF816309DF81F309AB243
:10507000BDF8163013439BB2ADF81630BDF81630AC
:105080001A460321039800F0E5FC0690019826F0EB
:10509000A5FF55A3D3E9002327F084FA0346002B8C
:1050A00003D007238DF81E3062E0019826F096FFAA
:1050B0004FA3D3E9002327F075FA0346002B03D052
:1050C00007238DF81E3053E0019826F087FF4AA38E
:1050D000D3E9002327F066FA0346002B03D006230A
:1050E0008DF81E3044E0019826F078FF44A3D3E900
:1050F000002327F057FA0346002B03D005238DF831
:105100001E3035E0019826F069FF3FA3D3E9002364
:1051100027F048FA0346002B03D004238DF81E30F5
:1051200026E04FF08041019827F0A8FD0346002BB0
:1051300003D003238DF81E301AE04FF07F51019801
:1051400027F09CFD0346002B03D002238DF81E3070
:105150000EE04FF07E51019827F090FD0346002BA2
:1051600003D001238DF81E3002E000238DF81E309D
:105170000DF116031A460221039800F089FB03463D
:1051800013F1020F0CBF01230023DBB2002B02D06E
:105190006FF001031FE0BDF8163023F007039BB248
:1051A000ADF816309DF81E309AB2BDF81630134394
:1051B0009BB2ADF81630BDF816301A46022103989E
:1051C00000F048FC0690069B13F1020F02D16FF02D
:1051D000010300E00023184609B05DF804FB00BF9E
:1051E00066666666660650403333333333331740A2
:1051F00066666666666613403333333333330F4077
:1052000033333333333307403333333333330340B0
:10521000000088423333804200007041000030417A
:105220000000FE426666444200B585B001900DF173
:105230000E031A460221019800F02AFB034613F1DF
:10524000020F0CBF01230023DBB2002B02D06FF052
:10525000010319E0BDF80E3043F020039BB2ADF816
:105260000E30BDF80E301A460221019800F0F2FB14
:105270000346002B0CBF01230023DBB2002B01D01F
:10528000002301E06FF00103184605B05DF804FB50
:1052900000B585B001900DF10E031A460221019868
:1052A00000F0F6FA034613F1020F0CBF01230023AE
:1052B000DBB2002B02D06FF0010319E0BDF80E3015
:1052C00023F020039BB2ADF80E30BDF80E301A4625
:1052D0000221019800F0BEFB0346002B0CBF012306
:1052E0000023DBB2002B01D0002301E06FF00103AB
:1052F000184605B05DF804FB00B587B00190009139
:10530000234A009BB2FBF3F30593059B072B02D9BD
:10531000059B262B02D96FF0020335E00DF10E0339
:105320001A460121019800F0B3FA034613F1020F67
:105330000CBF01230023DBB2002B02D06FF001036E
:1053400022E0BDF80E3023F0F8039BB2ADF80E302A
:10535000059B9BB2073B9BB2DB009AB2BDF80E30B7
:1053600013439BB2ADF80E30BDF80E301A46012142
:10537000019800F06FFB0490049B13F1020F02D11F
:105380006FF0010300E00023184607B05DF804FB4E
:1053900000127A0000B585B001900B468DF80330FD
:1053A0000DF10A031A460221019800F071FA034632
:1053B00013F1020F0CBF01230023DBB2002B02D03C
:1053C0006FF0010322E0BDF80A3023F018039BB20E
:1053D000ADF80A309DF80330DB009AB2BDF80A3010
:1053E0009BB213439BB29BB2ADF80A30BDF80A30B2
:1053F0001A460221019800F02DFB0390039B13F144
:10540000020F02D16FF0010300E00023184605B03F
:105410005DF804FB00B585B001900B468DF80330B4
:105420000DF10A031A460221019800F031FA0346F1
:1054300013F1020F0CBF01230023DBB2002B02D0BB
:105440006FF0010322E0BDF80A3023F4C0739BB271
:10545000ADF80A309DF80330DB009AB2BDF80A308F
:105460009BB213439BB29BB2ADF80A30BDF80A3031
:105470001A460221019800F0EDFA0390039B13F104
:10548000020F02D16FF0010300E00023184605B0BF
:105490005DF804FB00B585B001900B468DF8033034
:1054A0000DF10A031A460521019800F0F1F90346AF
:1054B00013F1020F0CBF01230023DBB2002B02D03B
:1054C0006FF0010322E0BDF80A3023F4C0739BB2F1
:1054D000ADF80A309DF803301B029AB2BDF80A30CD
:1054E0009BB213439BB29BB2ADF80A30BDF80A30B1
:1054F0001A460521019800F0ADFA0390039B13F1C1
:10550000020F02D16FF0010300E00023184605B03E
:105510005DF804FB00B585B001900B468DF80330B3
:105520000DF10A031A460121019800F0B1F9034672
:1055300013F1020F0CBF01230023DBB2002B02D0BA
:105540006FF0010322E0BDF80A3023F006039BB29E
:10555000ADF80A309DF803305B009AB2BDF80A300E
:105560009BB213439BB29BB2ADF80A30BDF80A3030
:105570001A460121019800F06DFA0390039B13F184
:10558000020F02D16FF0010300E00023184605B0BE
:105590005DF804FB00B585B001900B468DF8033033
:1055A0000DF10A031A460121019800F071F9034632
:1055B00013F1020F0CBF01230023DBB2002B02D03A
:1055C0006FF0010322E0BDF80A3023F440739BB270
:1055D000ADF80A309DF803301B029AB2BDF80A30CC
:1055E0009BB213439BB29BB2ADF80A30BDF80A30B0
:1055F0001A460121019800F02DFA0390039B13F144
:10560000020F02D16FF0010300E00023184605B03D
:105610005DF804FB00B585B001900B468DF80330B2
:105620000DF10A031A460321019800F031F90346EF
:1056300013F1020F0CBF01230023DBB2002B02D0B9
:105640006FF0010322E0BDF80A3023F4C0739BB26F
:10565000ADF80A309DF80330DB019AB2BDF80A308C
:105660009BB213439BB29BB2ADF80A30BDF80A302F
:105670001A460321019800F0EDF90390039B13F102
:10568000020F02D16FF0010300E00023184605B0BD
:105690005DF804FB00B585B001900B46ADF8023013
:1056A000BDF80230B3F5007F02D36FF0020313E0C0
:1056B000BDF80230ADF80E30BDF80E301A460D219F
:1056C000019800F0C7F90290029B13F1020F02D17A
:1056D0006FF0010300E00023184605B05DF804FBFD
:1056E00000B585B001900B468DF803309DF803306E
:1056F000012B02D0022B2AD053E00DF10A031A46E7
:105700000621019800F0C4F8034613F1020F0CBF04
:1057100001230023DBB2002B03D06FF001030393BE
:1057200043E0BDF80A3043F002039BB2ADF80A3003
:10573000BDF80A301A460621019800F08BF9039053
:10574000039B13F1020F30D16FF0010331E00DF133
:105750000A031A460621019800F09AF8034613F14D
:10576000020F0CBF01230023DBB2002B03D06FF02C
:10577000010303931BE0BDF80A3043F001039BB221
:10578000ADF80A30BDF80A301A460621019800F03B
:1057900061F90390039B13F1020F08D16FF001032D
:1057A00007E06FF00103039302E000BF00E000BFD9
:1057B0000023184605B05DF804FB00BF00B585B0B6
:1057C00001900B468DF803309DF80330012B02D079
:1057D000022B2AD056E00DF10A031A460621019841
:1057E00000F056F8034613F1020F0CBF012300230B
:1057F000DBB2002B03D06FF0010303933FE0BDF851
:105800000A3023F002039BB2ADF80A30BDF80A302B
:105810001A460621019800F01DF90390039B13F12D
:10582000020F2CD16FF001032DE00DF10A031A468F
:105830000621019800F02CF8034613F1020F0CBF6B
:1058400001230023DBB2002B03D06FF0010303938D
:1058500017E0BDF80A3023F001039BB2ADF80A301F
:10586000BDF80A301A460621019800F0F3F80390BB
:10587000039B13F1020F04D16FF0010303E000BF9B
:1058800000E000BF0023184605B05DF804FB00BF30
:1058900000B587B003900B4601928DF80B309DF850
:1058A0000B30019A1946039800F02EF80590059BDD
:1058B000184607B05DF804FB00B587B003900B46AF
:1058C00001928DF80B309DF80B30019A1946039820
:1058D00000F01AF80590059B184607B05DF804FB28
:1058E00000B587B003900B4601928DF80B309DF800
:1058F0000B30019A1946039800F006F80590059BB5
:10590000184607B05DF804FB00B587B003900B465E
:1059100001928DF80B300023ADF816300023ADF85E
:105920001430019B002B02D16FF002038BE04FF08B
:10593000FF31474820F0EEFB039800F015FA03987A
:1059400000F062F99DF80B309B029AB2BDF8163058
:1059500013439BB2ADF81630BDF81620BDF81430D5
:105960001343ADF81630BDF816301946039800F011
:1059700087F903468DF813309DF813305B029AB215
:10598000BDF8163013439BB2ADF81630039BBDF83B
:1059900016201146184625F0FFFC0346ADF81030DE
:1059A000019BBDF810201A80039800F051F903986C
:1059B00000F02AF90023ADF816300023ADF81430BA
:1059C000BDF8163043F4C043ADF81630BDF81620CC
:1059D000BDF814301343ADF81630BDF81630194633
:1059E000039800F04DF903468DF813309DF81330FD
:1059F0005B029AB2BDF8163013439BB2ADF8163075
:105A0000039BBDF816201146184625F0C5FC034639
:105A1000ADF81030039800F01BF9039800F0B8F9C6
:105A20000B4820F087FBBDF810301BB2002B02DAC8
:105A30006FF0010307E0019B1B88C3F309039AB2CF
:105A4000019B1A800023184607B05DF804FB00BFD5
:105A5000E845FF3F00B585B001900B468DF8033057
:105A60001346ADF800300023ADF80E304FF0FF3193
:105A7000474820F04FFB019800F076F9019800F0BC
:105A8000E7F8019800F0C0F8BDF80E306FEA434324
:105A90006FEA5343ADF80E309DF80330DB029AB243
:105AA000BDF80E3013439BB2ADF80E30BDF80E209A
:105AB000BDF800301343ADF80E30BDF80E30194676
:105AC000019800F0DDF803468DF80D309DF80D309B
:105AD0009B029AB2BDF80E3013439BB2ADF80E3064
:105AE000019BBDF80E201146184625F055FC0346D3
:105AF000ADF80A30019800F0ABF8019800F084F896
:105B00000023ADF800300023ADF80E30BDF80E30A4
:105B10006FEA43436FEA5343ADF80E30BDF80E20F1
:105B2000BDF800301343ADF80E30BDF80E30194605
:105B3000019800F0A5F803468DF80D309DF80D3062
:105B40005B029AB2BDF80E3013439BB2ADF80E3033
:105B5000019BBDF80E201146184625F01DFC03469A
:105B6000ADF80A30019800F073F8019800F010F9D0
:105B7000074820F0DFFABDF80A301BB2002B02DA2A
:105B80006FF0010300E00023184605B05DF804FB48
:105B9000E845FF3F00B583B00190019B14331949DC
:105BA000184604F073FF019B03F114000023002248
:105BB000012105F043F8019B03F1140000230122A9
:105BC000012105F03BF8019B03F1140000230222A0
:105BD000012105F033F8019B03F114000123012298
:105BE000012104F0C3FF019B03F1140001230222F1
:105BF000012104F0BBFF142023F0BCF800BF03B068
:105C00005DF804FB40420F0000B583B00190019B9A
:105C100003F1140001230022012104F0A7FF142046
:105C200023F0A8F8072023F0A5F8019B03F1140046
:105C300000230022012104F099FF142023F09AF898
:105C4000072023F097F800BF03B05DF804FB00BF06
:105C500000B583B00190072023F08CF8019B03F17D
:105C6000140001230022012104F080FF142023F0FE
:105C700081F8072023F07EF800BF03B05DF804FB35
:105C800086B001900B46ADF8023000238DF8153038
:105C900000230493BDF80230ADF8163000230493BE
:105CA000049B0F2BCCBF01230023DAB2BDF81630C2
:105CB000002B0CBF01230023DBB21343DBB2002B0C
:105CC00014D1BDF81630DBB203F00103DAB29DF84F
:105CD00015305340DBB28DF81530BDF816305B102F
:105CE000ADF81630049B01330493D9E79DF81530C5
:105CF000002B0CBF01230023DBB28DF80F309DF881
:105D00000F30002B01D0012300E00023184606B01D
:105D1000704700BF00B585B00190002303930DF1DB
:105D20000A031A461A210198FFF7DAFD034613F118
:105D3000020F0CBF01230023DBB2002B02D06FF057
:105D400001030DE0BDF80A30DBB29BB2ADF80A30BA
:105D5000BDF80A30582B02D04FF0FF330393039B5A
:105D6000184605B05DF804FB00B583B00190019BB7
:105D700000221021184625F0C1FA019B034918465C
:105D800025F0D4FA00BF03B05DF804FB400D03001A
:105D900000B587B001900823059300230493084BB6
:105DA0000393019B049A0599184625F0A7FA019BD5
:105DB0000399184625F0BAFA00BF07B05DF804FB56
:105DC00040420F0000B585B003900B468DF80B30B4
:105DD00003984FF0FF33009310234022202125F039
:105DE00055FA039B03F114004FF40033009328236A
:105DF0000422082104F026FE039B002283F8782069
:105E0000039B9DF80B2083F88320039B93F883303A
:105E1000012B28D1039B032283F87920039B0122C5
:105E200083F87A20039B042283F87B20039B0122C2
:105E300083F87C20039B062283F87D20039B0122AC
:105E400083F87E20039B052283F87F20039B012299
:105E500083F88020039B062283F88120039B002285
:105E600083F8822028E0039B072283F87920039B94
:105E7000002283F87A20039B002283F87B20039B77
:105E8000012283F87C20039B022283F87D20039B60
:105E9000012283F87E20039B012283F87F20039B4D
:105EA000012283F88020039B062283F88120039B34
:105EB000002283F8822000BF039B184605B05DF8DE
:105EC00004FB00BF00B587B00190019800F0D6FB3D
:105ED000019800F059FC019B14330321184604F08B
:105EE00039FF0590059A0021019800F09FFC0021E0
:105EF000019800F067FC019B03F11400019B93F8EB
:105F00008210019B93F88130DBB25AB2012304F076
:105F10002DFE019800F084FB0221019800F0D0FAD8
:105F200003468DF80F309DF80F3043F04003DBB28D
:105F30008DF80F309DF80F301A460221019800F0BD
:105F4000FDFA0490049B002B02D06FF0010359E08E
:105F50000221019800F0B4FA03468DF80F309DF845
:105F60000F3023F04003DBB28DF80F309DF80F3077
:105F70001A460221019800F0E1FA0490049B002BDC
:105F800002D06FF001033DE00DF10E030DF10F02A1
:105F90000521019800F004FA0490049B002B02D024
:105FA0006FF001032EE00DF10E030DF10F0206213B
:105FB000019800F0F5F90490049B002B02D06FF0DB
:105FC00001031FE0019800F009FB0321019800F094
:105FD00077FA03468DF80F309DF80F3063F07F039A
:105FE000DBB28DF80F309DF80F301A46032101986F
:105FF00000F0A4FA0490049B002B02D06FF0010380
:1060000000E00023184607B05DF804FB00B585B03A
:1060100001900B468DF803301F238DF80F309DF84B
:1060200003209DF80F309A4202D96FF0020322E05C
:106030000121019800F044FA03468DF80E309DF8D6
:106040000E3023F01F038DF80E309DF80E209DF8C2
:10605000033013438DF80E309DF80E301A4601219F
:10606000019800F06BFA0290029B002B02D06FF0B7
:10607000010300E00023184605B05DF804FB00BFF3
:1060800000B585B001900B468DF803309DF80330C4
:106090000B2B6FD801A252F823F000BFCD60100087
:1060A000DB601000E9601000F7601000056110006F
:1060B00013611000216110002F6110003D6110007C
:1060C0004B611000596110006761100000238DF8CA
:1060D0000F3000238DF80E3053E000238DF80F3081
:1060E00001238DF80E304CE000238DF80F30022391
:1060F0008DF80E3045E000238DF80F3003238DF826
:106100000E303EE000238DF80F3004238DF80E3062
:1061100037E000238DF80F3005238DF80E3030E086
:1061200000238DF80F3000238DF80E3029E0002376
:106130008DF80F3006238DF80E3022E001238DF804
:106140000F3000238DF80E301BE002238DF80F3046
:1061500000238DF80E3014E003238DF80F30002358
:106160008DF80E300DE004238DF80F3000238DF8EC
:106170000E3006E000238DF80F3000238DF80E302E
:1061800000BF0921019800F09BF903468DF80D30FE
:106190009DF80D3023F00703DAB29DF80F3013435A
:1061A000DBB28DF80D309DF80D301A4609210198AB
:1061B00000F0C4F90290029B002B02D06FF00103A3
:1061C00027E00121019800F07BF903468DF80D309E
:1061D0009DF80D3003F01F03DAB29DF80E305B011D
:1061E000DBB21343DBB28DF80D309DF80D301A464B
:1061F0000121019800F0A2F90290029B002B02D02D
:106200006FF0010305E0019B9DF8032083F87820DF
:106210000023184605B05DF804FB00BF00B585B04B
:1062200001900B468DF803300221019800F048F9E7
:1062300003468DF80F309DF80F3003F07F038DF883
:106240000F309DF80330DB01DAB29DF80F301343B5
:10625000DBB28DF80F309DF80F301A4602210198FD
:1062600000F06CF90290029B002B02D06FF001034A
:1062700000E00023184605B05DF804FB00000000B4
:1062800010B588B0019000914FF00001009826F001
:10629000EBFC0346002B01D0009B02E0009B83F047
:1062A00000430693019800F007FB0590059825F040
:1062B00073FE03460C461A46234623A1D1E900018A
:1062C00026F00AF803460C461846214626F0BCF98B
:1062D000034604930499069826F0B2FC0346002B6B
:1062E00002D06FF002032AE04FF00001009826F080
:1062F000C5FC0346002B05D000210198FFF78EFF57
:10630000079008E001210198FFF788FF0790009BA4
:1063100083F000430093079B002B01D0079B0EE006
:106320000499009826F0A2FB0346184626F0D6FCF6
:10633000034603930399019800F084FB0023184659
:1063400008B010BDAFF30080CDCCCCCCCCCCFC3FA2
:1063500000B585B001900321019800F0B1F8034623
:106360008DF80F309DF80F3003F07F038DF80F305C
:106370009DF80F301A460321019800F0DFF803461C
:10638000002B14BF01230023DBB2002B02D06FF0DF
:10639000010300E00023184605B05DF804FB00BFD0
:1063A00000B589B00390019200930B468DF80B3035
:1063B00000238DF81E30002306934FF0FF313F4835
:1063C0001FF0A8FE039800F02BF9039800F0DCF909
:1063D000039800F0A9F99DF80B308DF81730039B56
:1063E0009DF817201146184624F0D6FF04238DF897
:1063F0001730039B9DF817201146184624F0CCFF58
:106400000346DAB2019B1A70019B1B788DF81F308E
:10641000039B03F11400039B93F87C10039B93F8F8
:106420007B30DBB25BB21A4604F062FB0346002B02
:106430000CBF01230023DBB2002B03D0009B012201
:106440001A7002E0009B00221A70039800F09CF979
:10645000039800F0F9F89DF81F30002B15D0069B2B
:10646000072B12D09DF81F209DF81E305340DBB241
:1064700003F001038DF81E309DF81F305B108DF87E
:106480001F30069B01330693E5E7019B1B78DB0970
:106490008DF816309DF816209DF81E309A4204D1D2
:1064A00006481FF047FE002304E004481FF042FEA8
:1064B0006FF00103184609B05DF804FBE845FF3FA3
:1064C00000B585B001900B468DF803304FF0FF31D9
:1064D00019481FF01FFE019800F0A2F8019800F083
:1064E00053F9019800F020F99DF803308DF80F3032
:1064F000019B9DF80F201146184624F04DFF042300
:106500008DF80F30019B9DF80F201146184624F09E
:1065100043FF03468DF80E30019800F035F90198DD
:1065200000F092F804481FF005FE9DF80E30184662
:1065300005B05DF804FB00BFE845FF3F00B585B03E
:1065400001900B468DF8033013468DF802304FF062
:10655000FF3121481FF0DEFD019800F061F801983D
:1065600000F012F9019800F0DFF89DF8033063F0B5
:106570007F038DF80F30019B9DF80F2011461846C0
:1065800024F00AFF019B9DF802201146184624F0D2
:1065900003FF019800F0F8F8019800F055F89DF815
:1065A000033019460198FFF78BFF03468DF80E3034
:1065B0009DF80E209DF802309A4204D106481FF043
:1065C000B9FD002304E004481FF0B4FD6FF001039F
:1065D000184605B05DF804FBE845FF3F00B585B0FF
:1065E0000190019B03F11400019B93F87C10019B27
:1065F00093F87B30DBB25BB21A4604F079FA029072
:10660000029B012B03D100238DF80F3002E0012300
:106610008DF80F309DF80F30184605B05DF804FB7B
:1066200000B583B00190019B00220821184624F098
:1066300065FE019B0349184624F078FE00BF03B0B5
:106640005DF804FB20A1070000B587B00190082386
:10665000059300230493084B0393019B049A059927
:10666000184624F04BFE019B0399184624F05EFE69
:1066700000BF07B05DF804FB40420F0000B583B0D7
:106680000190019B14332749184604F0FFF9019B40
:1066900003F11400019B93F87A10019B93F8793071
:1066A000DBB25AB2002304F0C9FA019B03F11400D3
:1066B000019B93F88210019B93F88130DBB25AB2B0
:1066C000002304F0BBFA019B03F11400019B93F833
:1066D0007C10019B93F87B30DBB25AB2012304F0AB
:1066E000ADFA019B03F11400019B93F87E10019B0E
:1066F00093F87D30DBB25AB2002304F09FFA019B7D
:1067000003F11400019B93F88010019B93F87F30F4
:10671000DBB25AB2002304F091FA00BF03B05DF877
:1067200004FB00BF40420F0000B583B00190019B05
:1067300003F11400019B93F87A10019B93F87930D0
:10674000DBB25AB2012304F011FA142022F012FB3A
:10675000062022F00FFB019B03F11400019B93F82C
:106760007A10019B93F87930DBB25AB2002304F01F
:10677000FDF9142022F0FEFA022022F0FBFA00BFFD
:1067800003B05DF804FB00BF00B583B001900120A9
:1067900022F0F0FA019B03F11400019B93F87A10A8
:1067A000019B93F87930DBB25AB2012304F0DEF991
:1067B000142022F0DFFA062022F0DCFA00BF03B03A
:1067C0005DF804FB00B583B001900B468DF80330F3
:1067D000012022F0CFFA9DF80330002B0ED1019B4F
:1067E00003F11400019B93F88010019B93F87F3014
:1067F000DBB25AB2002304F0B9F90DE0019B03F1BA
:106800001400019B93F88010019B93F87F30DBB25A
:106810005AB2012304F0AAF9142022F0ABFA0120A5
:1068200022F0A8FA00BF03B05DF804FB00B587B002
:1068300003900B4601928DF80B3005AB00210A4600
:106840001A800A469A709DF80B30002B0CD0012B51
:1068500000D014E0039B93F87D301A460123934047
:10686000019A134301930AE0039B93F87D301A4683
:1068700001239340DB43019A1340019300BF282377
:106880008DF8143003238DF81530019BDBB28DF8A1
:106890001630084B15229A6005AB0322194603985F
:1068A00000F062F8034B14229A6000BF07B05DF855
:1068B00004FB00BF0070004084B00190019B93F87E
:1068C00078300B2B32D801A252F823F0FD6810006B
:1068D00003691000096910000F6910002169100098
:1068E0002169100027691000276910001569100040
:1068F0001B691000276910002769100020230393EB
:1069000015E01023039312E0082303930FE0042300
:1069100003930CE08023039309E04023039306E0F4
:106920000223039303E00123039300E000BF039BD2
:10693000184604B0704700BF84B001900091002356
:106940000393009B0393039B002B14BF012300239D
:10695000DBB2002B04D000BF039B013B0393F2E7A3
:1069600000BF04B0704700BF00B587B0039002912C
:10697000019200238DF8173000230493049A019BA1
:106980009A4256D22E4B12229A6014210398FFF796
:10699000D3FF029A049B13441B78132B18D1284B66
:1069A00010229A60264B10229A60254B10229A6082
:1069B000234B11229A60224B10229A60204B102206
:1069C0009A601F4B11229A601D4B11229A6007E0BA
:1069D0001B49049B5A1C0492029A13441B788B6037
:1069E0000A210398FFF7A8FF154B16229A6005218C
:1069F0000398FFF7A1FF124B1B6803F01003002B55
:106A000014BF01230023DBB2002B00D0F3E70521E4
:106A10000398FFF791FF0A4B1B6803F00403002B58
:106A200014BF01230023DBB2002BA7D002238DF873
:106A300017309DF81730184607B05DF804FB00BF0B
:106A40000070004000B585B001900091019B1433A7
:106A50000321184604F07EF9029072B600230393D6
:106A6000039A009B9A420DD2029A01210198FFF7E6
:106A7000DDFE029A00210198FFF7D8FE039B013347
:106A80000393EDE762B600BF05B05DF804FB00BFFD
:106A900000B587B003900B468DF80B304649474848
:106AA00023F0AEFF012022F055F908238DF81430B1
:106AB00005AA0023009301237221404823F0D0FF50
:106AC00005AA00230093022372213C4823F0EEFF25
:106AD00008238DF8143005AA0023009301237221A6
:106AE000364823F0BDFF0346002B14BF01230023CB
:106AF000DBB2002B02D06FF0010358E005AA00239F
:106B00000093022372212D4823F0D0FF0346002B6F
:106B100014BF01230023DBB2002B02D06FF001036E
:106B200045E09DF81430192B03D19DF81530052B45
:106B300002D04FF0FF333AE002238DF814309DF875
:106B40000B308DF8153005AA002300930223722123
:106B50001A4823F085FF0346002B14BF01230023AE
:106B6000DBB2002B02D06FF0010320E0002103987C
:106B700000F02EF8124822F0D7F80821039800F010
:106B800027F810490D4823F03BFF9DF80B300E4AC3
:106B900052F823300D49184625F0B4FE0346184636
:106BA00026F076F80346184622F0D4F8002318465B
:106BB00007B05DF804FB00BFA0860100084BFF3F53
:106BC0009A99193E40420F000440FF3F00004040A8
:106BD00000B587B003900B468DF80B3000238DF87D
:106BE00014309DF80B308DF8153072B629492A48BB
:106BF00023F006FF05AA00230093022372212648F2
:106C000023F02EFF0346002B14BF01230023DBB229
:106C1000002B02D06FF0010337E000238DF8143011
:106C200005AA00230093012372211B4823F018FFBB
:106C30000346002B14BF01230023DBB2002B02D03C
:106C40006FF0010321E005AA0023009301237221C4
:106C5000114823F02BFF0346002B14BF0123002310
:106C6000DBB2002B02D06FF001030EE00B490A48A3
:106C700023F0C6FE62B69DF814309DF80B209A42B0
:106C800001D1002301E04FF0FF33184607B05DF853
:106C900004FB00BFA0860100084BFF3F40420F00ED
:106CA00000B587B00390029106238DF8143072B6B8
:106CB0001D491E4823F0A4FE05AA002300930123CA
:106CC00072211A4823F0CCFE0346002B14BF012387
:106CD0000023DBB2002B02D06FF0010320E005AAF5
:106CE0000023009302237221104823F0DFFE0346A5
:106CF000002B14BF01230023DBB2002B02D06FF066
:106D000001030DE00A49094823F07AFE62B69DF8B6
:106D100015301B029DF814201A43029B1A600023B1
:106D2000184607B05DF804FBA0860100084BFF3F42
:106D300040420F0000000000F0B587B001900091C4
:106D40000023049302238DF8173000238DF80F30B1
:106D50000DF10F029DF817301946019800F054F814
:106D60000346002B0CBF01230023DBB2002B3DD0D8
:106D700004AB19460198FFF793FF0346002B0CBFA5
:106D800001230023DBB2002B2ED0049B184625F0F4
:106D900013F904460D469DF80F301A46184B53F868
:106DA0002230184625F01AF913A3D3E9002325F061
:106DB00069F902460B4616461F46009825F00EF963
:106DC00002460B463046394625F05CF902460B4632
:106DD0002046294625F080FA03460C4618462146EF
:106DE00025F032FC034602E0064B00E0054B184656
:106DF00007B0F0BDAFF30080FCA9F1D24D62503F67
:106E00000440FF3F000080BF00B589B005900B46ED
:106E100003928DF813309DF81330092B37D89DF865
:106E200013308DF81C3072B61C491D4823F0E8FD64
:106E300007AA0023009301237221194823F010FEB2
:106E40000346002B14BF01230023DBB2002B03D029
:106E500062B66FF001031DE0002300930123039A43
:106E600072210F4823F022FE0346002B14BF01239A
:106E70000023DBB2002B03D062B66FF0010309E000
:106E80000849074823F0BCFD62B6002302E062B661
:106E90006FF00203184609B05DF804FBA0860100FC
:106EA000084BFF3F40420F0000B585B003900291B0
:106EB000039B012B17D1029B4FF6FF72934212D115
:106EC000042208210A4823F07DFD4FF4003300938B
:106ED000222304220821074803F0B4FD064A07498B
:106EE000044824F0CBFC00BF05B05DF804FB00BFF4
:106EF000084BFF3F104BFF3F0040FF3FA5AD100088
:106F000008B54FF6FF710120FFF7CEFF08BD00BFA7
:106F100000B583B0019002220021094803F0E8FD8A
:106F20000346012B0CBF01230023DBB2002B01D051
:106F3000012300E00023184603B05DF804FB00BF06
:106F4000744BFF3F00B585B003900291039B012B6A
:106F500012D1029B4FF6FF7293420DD14FF40033D2
:106F60000093242304220821054803F06BFD054A01
:106F70000549034824F082FC00BF05B05DF804FB1E
:106F8000744BFF3F0040FF3FA5AD100008B54FF622
:106F9000FF710120FFF7D6FF08BD00BF00B583B029
:106FA00001900091019B0099184622F005FD019B7C
:106FB000184603B05DF804FB00B583B00190009162
:106FC000019B0099184622F01DFD00BF03B05DF83B
:106FD00004FB00BF00B583B00190019B184622F06E
:106FE00039FD0346184603B05DF804FB00B583B0D5
:106FF0000190009100990198FFF7DEFF019B184670
:1070000003B05DF804FB00BF00B583B001900198A8
:10701000FFF7E0FF0346184603B05DF804FB00BF2E
:1070200000B585B00390029101920949019825F0BD
:1070300069FC0346184625F051FE03461A4602999C
:10704000039800F007F800BF05B05DF804FB00BF2F
:107050000024744900B585B0039002910192039B0E
:10706000183302991846FBF75BFE0199039824F048
:107070009BFA00BF05B05DF804FB00BF00B583B00C
:107080000190019A0121034803F00EFD00BF03B0F7
:107090005DF804FBDC4BFF3F00B583B0019000912D
:1070A000009A3421019800F0B5F80346184603B061
:1070B0005DF804FB00B583B001900091009A352182
:1070C000019800F0A7F80346184603B05DF804FBEA
:1070D00000B583B0019000220021044803F008FDB0
:1070E0000346184603B05DF804FB00BFDC4BFF3FCE
:1070F00000B583B00190019B00221021184624F0B6
:10710000FDF8019B0549184624F010F9C82021F02C
:1071100031FE00BF03B05DF804FB00BF90D0030058
:1071200000B583B00190019B00220821184624F08D
:10713000E5F8019B0549184624F0F8F8C82021F02D
:1071400019FE00BF03B05DF804FB00BF40420F0012
:1071500000B583B001901449144803F097FC002354
:1071600007220021114803F069FD012307220021B5
:107170000E4803F0FBFC0023002200210B4803F023
:107180005DFD002300220021084803F0EFFC0123ED
:1071900001220121054803F051FDC82021F0EAFD3C
:1071A00000BF03B05DF804FB40420F00DC4BFF3F23
:1071B00000B583B00190642021F0DCFD012307229B
:1071C0000021054803F0D2FCC82021F0D3FD00BF08
:1071D00003B05DF804FB00BFDC4BFF3F00B583B09C
:1071E0000190012307220021094803F0BFFC64201D
:1071F00021F0C0FD002307220021054803F0B6FC62
:10720000C82021F0B7FD00BF03B05DF804FB00BF4C
:10721000DC4BFF3F00B587B003900B4601928DF821
:107220000B300023ADF8163000238DF815304FF0E9
:10723000FF3123481EF06EFF0398FFF759FF0398B4
:10724000FFF7CCFF9DF80B301B029AB2BDF8163049
:1072500013439BB2ADF816309DF815309AB2BDF8C5
:1072600016301343ADF81630039BBDF816201146B7
:10727000184624F091F80346ADF81230C82021F0EA
:1072800079FD0398FFF794FF0398FFF749FFBDF8D6
:10729000123003F40053002B05D009481EF04AFFBA
:1072A0004FF0FF3308E0BDF81230DAB2019B1A70DC
:1072B00003481EF03FFF0023184607B05DF804FBAB
:1072C000E845FF3F00B585B001900B468DF80330CF
:1072D00013468DF802300023ADF80E304FF0FF3129
:1072E00024481EF017FF0198FFF702FF0198FFF7EF
:1072F00075FFBDF80E306FEA43436FEA5343ADF8B4
:107300000E309DF803301B029AB2BDF80E301343C5
:107310009BB2ADF80E309DF802309AB2BDF80E3037
:107320001343ADF80E30019BBDF80E2011461846F0
:1073300024F032F80346ADF80C30C82021F01AFDD5
:107340000198FFF735FF0198FFF7EAFEBDF80C3012
:1073500003F40053002B05D006481EF0EBFE4FF05F
:10736000FF3303E003481EF0E5FE0023184605B096
:107370005DF804FBE845FF3F00B585B00190084685
:1073800011461A4603468DF803300B468DF802303D
:1073900013468DF8013000238DF80F309DF8013031
:1073A000072B02D96FF0010340E00DF10F031A46DD
:1073B00000210198FFF72EFF0346002B0CBF01238D
:1073C0000023DBB2002B02D04FF0FF332EE09DF8FC
:1073D000023083F00103DBB2002B10D09DF80130A6
:1073E000012202FA03F3DBB2DB43DAB29DF80F307D
:1073F000DBB21340DBB2DBB28DF80F300DE09DF84D
:107400000130012202FA03F3DAB29DF80F30DBB249
:107410001343DBB2DBB28DF80F309DF80F209DF8DF
:10742000033019460198FFF74DFF0346184605B093
:107430005DF804FB00B583B0019001230022002118
:10744000034803F093FB00BF03B05DF804FB00BFEB
:10745000DC4BFF3F00B583B00190002300220021E8
:10746000034803F083FB00BF03B05DF804FB00BFDB
:10747000DC4BFF3F00B585B001900B468DF8033023
:10748000002303930198FFF723FE0346002B0CBF54
:1074900001230023DBB2002B08D09DF80320072333
:1074A00000210198FFF768FF03460EE00198FFF7FF
:1074B000D1FF9DF80320072300210198FFF75CFF0F
:1074C00003900198FFF7B6FF039B184605B05DF8DF
:1074D00004FB00BF84B00190009100238DF80F30B1
:1074E000009BB3F5C87F10D3009B43F290329342C8
:1074F0000BD8009BA3F5C873284AA2FB03239B0962
:10750000DBB204338DF80F3043E0009B43F290323E
:10751000934211D9009B44F2C04293420CD8009B85
:10752000A3F54E53103B1D4AA2FB0323DB09DBB23C
:1075300044338DF80F302CE0009B44F2C04293425C
:1075400011D9009B45F6C05293420CD8009BA3F57D
:107550008943403B114AA2FB03231B0ADBB24F3392
:107560008DF80F3015E0009B45F6C052934210D9BC
:10757000009B49F6404293420BD8009BA3F5BB43C6
:10758000403B074AA2FB0323DB09DBB257338DF8EC
:107590000F309DF80F30184604B070471F85EB512F
:1075A000D34D621000B585B00190009100238DF895
:1075B0000F30009BB3F5C87F04D3009B49F64042CF
:1075C000934202D94FF0FF330EE000990198FFF784
:1075D00081FF03468DF80F309DF80F301A461621B3
:1075E0000198FFF76FFE0346184605B05DF804FBEF
:1075F00008B50B48FFF708FD03464FF00001184699
:1076000025F014FB0346002B02D04FF07E5301E01F
:107610004FF0000319460248FFF7E8FC00BF08BD21
:10762000404CFF3F034B1B680133024A136000BF0D
:10763000704700BFA04CFF3F064B1A6813461B0162
:107640009B1A9B001A46044B1A60024B00221A60D8
:1076500000BF7047A04CFF3FA44CFF3F00B583B074
:1076600001900849084823F0CFFA019B44334FF0BA
:107670007E5206491846FFF7D3FC00BF03B05DF801
:1076800004FB00BF25761000484CFF3F3976100000
:1076900082B00190024B1B68184602B0704700BFD1
:1076A000A44CFF3F00B583B001900922002101984E
:1076B000FFF708FEA72202210198FFF703FE0B2225
:1076C00004210198FFF7FEFD182207210198FFF71A
:1076D000F9FD0F220B210198FFF7F4FD3022102154
:1076E0000198FFF7EFFD142211210198FFF7EAFD41
:1076F0001E2212210198FFF7E5FD2822132101988F
:10770000FFF7E0FD322214210198FFF7DBFD3C2258
:1077100015210198FFF7D6FD462216210198FFF7A3
:10772000D1FD542217210198FFF7CCFD57221821D3
:107730000198FFF7C7FD5A2219210198FFF7C2FDF2
:107740005F221A210198FFF7BDFD00BF03B05DF86D
:1077500004FB00BF08B501220121034803F0C8F96A
:107760000346184608BD00BFDC4BFF3F08B5FFF7D6
:10777000F1FF0346002B0CBF01230023DBB2002BDB
:1077800005D0044B1B68012118461EF071FD00BF97
:1077900008BD00BFD84BFF3F00B58BB00590174820
:1077A000FFF76CFC6B464FF0FF32012118461EF0CC
:1077B0006FFD07AB6A4607CA83E80700089B03F022
:1077C0000103002B16D04FF0FF310D481EF0A2FC34
:1077D0000C4B1B68032118461EF036FD0A4B1B6834
:1077E0009847084B1B68002118461EF02DFD0448E1
:1077F0001EF0A0FC14201EF05BFDD3E76D77100097
:10780000E845FF3FD84BFF3F7845FF3F10B586B0B6
:107810000390029100238DF817300398FFF798FC2E
:107820000398FFF765FC0398FFF7C2FC0398FFF786
:1078300077FC0398FFF736FF0DF117031A46002176
:107840000398FFF7E7FC9DF81730092B02D04FF0A3
:10785000FF3329E0164B07229A63039B1433154A22
:1078600015491846FFF7DCFB029B002B1AD050206D
:1078700024F00BF803461C46002301934FF40063E9
:107880000093002300220D4920461EF06FFC0C4B94
:107890001C600B4B1B68002B04D00A4A029B136030
:1078A000002301E04FF0FF33184606B010BD00BFC3
:1078B00000C00140CDCC4C3DF1751000997710000F
:1078C000D84BFF3F7845FF3F00B585B0039002914C
:1078D000039B012B20D1029B4FF6FF7293421BD1D9
:1078E0004FF4003300933623042208210C4803F0A0
:1078F000A9F80C4A0C490A4823F0C0FF80210B4824
:10790000FFF74CFB4FF48041094823F0F5F8054A96
:107910000849074823F0B2FF00BF05B05DF804FB3B
:10792000DC4BFF3F0040FF3FA5AD1000404CFF3F48
:10793000484CFF3F71AB120008B54FF6FF710120B4
:10794000FFF7C2FF08BD00BF00B585B003900291EC
:1079500001920093039B029A1A60019A039B5A605A
:10796000009A039B9A600A490A4803F08FF80023A3
:1079700001220021074803F061F9012301220021BF
:10798000044803F0F3F8039B184605B05DF804FBC8
:1079900040420F00A84CFF3F82B00190019B184667
:1079A00002B0704710B586B0039002910192009327
:1079B000029A019B1A44039B5B689A4202D8009B7F
:1079C000002B01D100235BE04FF0FF312E481EF069
:1079D000A1FB0023012200212C4803F0C7F814204A
:1079E00021F0C8F9039B1B681B681B68039A126887
:1079F000032110469847039B1B681B681B68039A6A
:107A00001068029A120C11469847039B1B681B686A
:107A10001B68039A1068029A120AD2B2114698475C
:107A2000039B1B681B681B68039A12680299C9B202
:107A30001046984700230593059A019B9A4212D25B
:107A4000009A059BD418039B1B681B681B68039A4C
:107A500012680021104698470346DBB22370059B4D
:107A600001330593E8E7142021F084F90123012272
:107A70000021064803F07AF803481EF05BFB009BE8
:107A8000184606B010BD00BFE845FF3FA84CFF3FB9
:107A900000B589B00390029101920093029A019B74
:107AA0001A44039B5B689A4201D901233AE0002300
:107AB0000793079A019B9A4233D2039B9968029AD3
:107AC000079B1344039A9268B3FBF2F002FB00F2A7
:107AD0009B1ACB1A0693069A079B1A44019B9A425B
