:020000040010EA
:1020000000D8FF3FC9C9110005CA110007CA110055
:1020100009CA11000BCA11000DCA1100000000000E
:10202000000000000000000000000000A99911005D
:1020300011CA110000000000139A1100499A110002
:102040000DB6110079B7110017CA1100A1B0110027
:1020500017CA110017CA110015A4110017CA1100E0
:1020600017CA110017CA110017CA110017CA1100A8
:1020700017CA110017CA110017CA110017CA110098
:1020800017CA110017CA110017CA110017CA110088
:1020900000D8FF3FC9C9110005CA110007CA1100C5
:1020A00009CA11000BCA11000DCA1100000000007E
:1020B000000000000000000000000000A9991100CD
:1020C00011CA110000000000139A1100499A110072
:1020D0000DB6110079B7110017CA1100A1B0110097
:1020E00017CA110017CA110015A4110017CA110050
:1020F00017CA110017CA110017CA110017CA110018
:1021000017CA110017CA110017CA110017CA110007
:1021100017CA110017CA110017CA110017CA1100F7
:1021200010B5054C237833B9044B13B10448AFF311
:1021300000800123237010BD4043FF3F00000000DA
:1021400004A312000C4B43B10C4810B50C49AFF37B
:1021500000800C48036823B910BD0A48036833B9EE
:102160007047094B002BF7D0BDE810401847064BCD
:10217000002BF5D0184700BF0000000004A3120098
:102180004443FF3F4043FF3F0000000001F00AB915
:1021900008B5034801F03EFB4FF0FF3008BD00BF1B
:1021A0002C4D120030B50546ADF5017D114801F00A
:1021B00031FB00F0DFFF01460F4801F02BFB4FF42D
:1021C000007400F0D7FF2246014668461CF035FC3B
:1021D000296940A81EF0F4FB084B2146684600938D
:1021E00000F0E4FF0146064801F014FB0DF5017D07
:1021F00030BD00BF414D1200524D1200AFBEADDEEA
:102200005E4D120008B5034801F004FB4FF0FF30AB
:1022100008BD00BF184D120030B5ADF5017D054673
:102220004FF4007400F0A6FF2246014668461CF0F9
:1022300004FCE96850A81EF0C3FB2146684600F084
:10224000B5FF0DF5017D30BD37B5002402A941F879
:10225000044D054601F0D2F8A04211DB09480A49B5
:102260000A4B4160022181600421019A05601A60D5
:10227000074AC16082E818000261436103B030BDC3
:102280002046FBE76043FF3F5C43FF3F7843FF3F4F
:102290007C43FF3F01F0BCB801F000B970B50446C3
:1022A0000D4616460146054801F0B4FA3246294665
:1022B0002046BDE8704001F00BB900BF884D120008
:1022C00010B4029C019B019410BC01F027B90000DE
:1022D00070B504460D4616460146054801F09AFAC7
:1022E000324629462046BDE8704001F0FFB800BFE5
:1022F0007A4D120010B4029C019B019410BC01F0B5
:1023000049B9000070B504460D4616460146054819
:1023100001F080FA324629462046BDE8704001F0BF
:1023200085B900BF6D4D120001F0A8B970B50D461A
:10233000064608F06EFB0446F06808F055FB1649A7
:102340000246204608F08CFB28681AF09FFE08F031
:1023500054FB12490246204608F082FB68681AF0D6
:10236000A7FE08F04AFB0E490246204608F078FB1B
:10237000A8681AF08BFE08F040FB0A490246204686
:1023800008F06EFB204608F00BFB0546204608F0DF
:10239000A9FB284670BD00BF964D1200A24D120049
:1023A000A84D1200AE4D12007047000038B5054C24
:1023B000A4F5C075183C20461AF056FBAC42F9D182
:1023C00038BD00BF6445FF3F70B5044605460C4B61
:1023D00044F8043B204602F0D3FF05F1880002F0E8
:1023E000CFFF54B105F58670A04206D0A0F1840657
:1023F000703806F071FC3046F6E7284670BD00BF25
:102400005850120010B50446FFF7DEFF20461AF0C0
:1024100025FB204610BD000010B50446064B403099
:1024200003F1180240F8403C4C33026043601AF05C
:10243000E3F8204610BD00BF109B1200A0F1400041
:10244000EAE7A0F14400E7E710B50446054A083082
:10245000206011461AF019FB002322686360137094
:10246000204610BD7D67120010B504461AF0F6FA3A
:10247000204610BD10B50446064B002140F8043B31
:1024800002F0B8FC012104F1880002F0B3FC204600
:1024900010BD00BF58501200842303FB010004301C
:1024A00002F06EBF842303FB010010B51146043017
:1024B00002F0FEFD044638B10146054801F0AAF9D4
:1024C0004FF0FF34204610BD024801F0A3F9F9E7B0
:1024D000BB4F12000A50120070B5842404FB0104A3
:1024E0000434054620460E4602F004FD014628B19C
:1024F000114801F08FF94FF0FF3070BD0F4801F027
:1025000089F9204603F082F850B10D4801F082F9B4
:102510000921204602F092FD014618B10948E8E77A
:102520000948F3E7094801F075F931462846BDE846
:1025300070400322FFF7B6BFB44D1200F94D1200F0
:10254000334E1200994E1200794E1200F34E1200D3
:1025500070B5064610460C4615461BF0FFF984215F
:1025600001FB04640146201D02F0A2FE044640B1B6
:1025700002462946054801F04DF94FF0FF34204648
:1025800070BD2946024801F045F9F8E7424F1200B4
:10259000844F120010B50446FFF73EFF20461AF0A4
:1025A0005DFA204610BDA0F14000F3E7A0F1440021
:1025B000F0E7000007B52D48FFF746FF2C4A2D49EC
:1025C0002A481AF03AFA00222B4B03F5C07019463C
:1025D00043F8042C43F8083C01F8182B19615A61A0
:1025E0001A7630339842F2D1214A244900201AF059
:1025F00024FA2348FFF728FF1D4A1E4920481AF0F5
:102600001CFA2048FFF720FF194A1A491D481AF002
:1026100014FA1D48FFF718FF154A16491A481AF010
:102620000CFA4FF0FF33402200932021102317486B
:1026300019F018FF0E4A164914481AF0FEF9002343
:1026400002220121134819F057FE094A1249114884
:102650001AF0F3F9114815F09BFA054A10490F4892
:1026600003B05DF804EB1AF0E8B900BFCC43FF3FBC
:102670000040FF3F95CA1100EC43FF3FAD2310001F
:102680008443FF3FB443FF3F9C43FF3F6445FF3F0C
:10269000A92310008C45FF3F192410007845FF3F07
:1026A000197C110038B5054CA4F5C075183C2046BE
:1026B0001AF0DAF9AC42F9D138BD00BFC447FF3F88
:1026C00010B50446054A0830206011461AF0DDF9BD
:1026D0000023226863601370204610BD7D671200DE
:1026E00010B50446044B03601AF038F820461AF07F
:1026F00035F9204610BD00BFCC9B120010B5044632
:102700004430FFF7EDFF04F11400FFF7E9FF204626
:1027100010BD10B50446FFF7E3FF20461AF09EF9FE
:10272000204610BD73B500253948FFF7C9FF394968
:10273000394A37481AF081F9384B03F5C0711A4607
:1027400003E9280002F8185B1A615D611D763033D9
:102750009942F4D14FF0FF362F4A314900201AF048
:102760006CF93048FFF7ACFF2B4A2A492D481AF084
:1027700064F92D48FFF7A4FF274A26492A481AF092
:102780005CF92A48FFF79CFF234A224927481AF0A0
:1027900054F90096102340222021254819F062FEAA
:1027A0001D4A244922481AF048F900230222012137
:1027B000214819F0A1FD184A20491F48204C1AF061
:1027C0003CF9204815F0E4F9134A1F491D481AF056
:1027D00034F91023402220210096204619F042FEB1
:1027E0001A4E04F114001AF085F804F144006661F1
:1027F000E56225641AF07EF82046074A14496664AB
:10280000E565256702B0BDE870401AF016B900BF53
:102810002C46FF3F95CA11000040FF3F4C46FF3F4A
:10282000A5261000E445FF3F1446FF3FFC45FF3F4F
:102830003848FF3FA92310006048FF3F19241000CB
:10284000C447FF3F4C48FF3F197C1100CC9B12004E
:10285000FD26100038B5054CA4F5C075183C20467F
:102860001AF002F9AC42F9D138BD00BF984AFF3FD7
:1028700010B50446054A0830206011461AF005F9E3
:102880000023226863601370204610BD7D6712002C
:1028900037B54FF0FF350446094B402240F8043B62
:1028A00020210095102319F0DDFD00952A23042234
:1028B000082104F1180006F083F8204603B030BD6B
:1028C00014541200002310B5041D80F87C302046FB
:1028D00001F0EAF9014630B1114800F09BFF4FF0DA
:1028E000FF34204610BD0F4800F094FF0E490F4AF8
:1028F000204601F06DFB014608B10D48EDE70D489B
:1029000000F088FF2046012101F06AFA044610B168
:1029100001460948E1E7094800F07CFFE1E700BF14
:102920006050120093501200000034420000C0407A
:10293000BB501200F85012002A5112007B511200B5
:10294000F8B5061D054630460F4601F0E1FE044687
:1029500038B10146104800F05DFF4FF0FF342046CB
:10296000F8BD0E4800F056FF95F87C304BB9304664
:1029700001F072FC014608B10948ECE7094800F093
:1029800049FF012F0CBF0123022395F97C2013433B
:1029900085F87C30E3E700BF455212008B521200ED
:1029A000C6521200FB521200F8B5061D054630460D
:1029B0000F4601F01BFF044638B10146114800F0F4
:1029C00029FF4FF0FF342046F8BD0F4800F022FFEA
:1029D000012F0CBF6FF001036FF0020395F87C200C
:1029E000134085F87C30002BEDD1304601F068FCB7
:1029F000044610B101460548E1E7054800F00AFF2A
:102A0000E1E700BF255312006C531200A8531200D7
:102A1000DE53120010B50446074B01210360FFF797
:102A2000C3FF02212046FFF7BFFF04F1180006F0A4
:102A300053F9204610BD00BF1454120010B50446CF
:102A4000FFF7E8FF20461AF009F8204610BD000005
:102A500010B50430144692B201F068FA21460246DD
:102A600020B1054800F0D6FE002010BD034800F05C
:102A7000D1FE4FF0FF3010BDC151120008521200BC
:102A800007B52D48FFF7F4FE2C4A2D492A4819F0C6
:102A9000D4FF00222B4B03F5C070194643F8042CD9
:102AA00043F8083C01F8182B19615A611A76303343
:102AB0009842F2D1214A2449002019F0BEFF234850
:102AC000FFF7D6FE1D4A1E49204819F0B6FF2048E0
:102AD000FFF7CEFE194A1A491D4819F0AEFF1D48EE
:102AE000FFF7C6FE154A16491A4819F0A6FF4FF01F
:102AF000FF334022009320211023174819F0B2FC25
:102B00000E4A1649144819F098FF002302220121A9
:102B1000134819F0F1FB094A1249114819F08DFFC9
:102B2000114815F035F8054A10490F4803B05DF813
:102B300004EB19F082BF00BF0049FF3F0040FF3F98
:102B400095CA11002049FF3F55281000B848FF3FA3
:102B5000E848FF3FD048FF3F984AFF3FA9231000B5
:102B6000C04AFF3F19241000AC4AFF3F197C1100F6
:102B700038B5054CA4F5C075183C204619F074FF13
:102B8000AC42F9D138BD00BFF84CFF3F70B50446E8
:102B90000146284800F03EFE204608F0C5F82649C8
:102BA000064607F000FF10B94FF0FF3070BDD0E9C6
:102BB00006450022214B204629461AF03FFD0028F9
:102BC000F2D100224FF08043204629461AF054FDEE
:102BD0000028E9D1204629460022184B1AF024FD8E
:102BE00017490028304614BF0124022407F0DBFEF9
:102BF00005460028D8D000F11801D1E900010022D3
:102C000000231AF039FD214680B10E48FFF798FEE7
:102C1000D5E906011AF050FD214602460948FFF7A2
:102C200017FF304607F05EFF002070BD0548FFF734
:102C3000BBFEF6E73E541200485412000000F03F7D
:102C400050541200884EFF3F2DE9F84304460146D8
:102C5000254800F0DFFD204608F066F823490546C8
:102C600007F0A1FE804618B94FF0FF30BDE8F883A9
:102C70001F49284607F097FE0028F5D0D0E90667DF
:102C800000221C4B304639461AF0D8FC0028EBD104
:102C900000224FF08043304639461AF0EDFC814661
:102CA0000028E1D10022134B304639464FF0010491
:102CB0001AF0BAFC00B14C46E4B221460E48FFF7C8
:102CC0000BFCD8E906011AF0F7FC214602460A4837
:102CD000FFF73EFC21460848FFF7DEFB284607F0D9
:102CE00001FF0020BDE8F8833E5412001C5412007E
:102CF000485412000000F03F084FFF3F73B50446F0
:102D00000146144802F0E4FF1349124803F02CF87E
:102D100060601248A56803F013F985420646A0607A
:102D20000F4B08D11A68511C092A196003DC4FF0B7
:102D3000FF3002B070BD002560681D601AF0B8F960
:102D40002268CDE900010748314600F063FD2846BE
:102D5000EFE700BF104DFF3F6666F6401450FF3F9F
:102D6000F84CFF3F2254120010B50446343005F0F1
:102D7000B3FF204610BD10B50446243005F0ACFF6B
:102D8000204610BD10B50446054A083020601146A3
:102D900019F07BFE0023226863601370204610BD8B
:102DA0007D67120030B55F4887B003F077FB5E495E
:102DB0005C4803F0ADFB4FF07E5017F0A5F95B487F
:102DC00000F028FD98238DF804304F238DF805304E
:102DD000EE238DF8063000238DF80730A1238DF8FF
:102DE0000830032301A952488DF8093003F0D8FDBB
:102DF0000146A0B94E4803F09DFE01464D4800F043
:102E000009FD4D49474803F083FB494803F0FCFDA9
:102E1000014680B1494800F0FDFC494903E04948BA
:102E200000F0F8FC48493F4803F072FB4FF0FF34D4
:102E3000204607B030BD3E4803F00AFE04463C4839
:102E400003F02CFE05463A4803F04EFE21460346A9
:102E50002A463E4800F0DEFC324803F04DFB0123D9
:102E60003B491A462F4803F065FB314803F0F0FD5B
:102E70000123014602222B4803F05CFB0221354866
:102E800002F01EFE044608B13349CCE73349254819
:102E900003F03EFB314800F0BDFC4FF07E5017F0D0
:102EA00033F92F48FFF70EFD204600F051FE014692
:102EB00000902C4800F0AEFC05F058FF204600F0D2
:102EC00047FE06AB43F8180D18461AF0D4FF01462A
:102ED000254800F09FFC2549124803F019FB06F035
:102EE00099F803A8FFF70AFF0028FADB03A806F009
:102EF000EBF81F491F4805F0ADFF1F491F4805F0BB
:102F0000A9FF1F49074803F003FB06F0FFF81D491E
:102F1000044803F0FDFA03A91B4806F02FF906F058
:102F20007BF985E7F04DFF3F5354120062541200C5
:102F3000144DFF3F7354120088541200E1541200E4
:102F40000055120090541200AC541200C2541200EA
:102F5000DB541200104DFF3F17551200315512007F
:102F6000884EFF3F4F5512005C5512006655120007
:102F7000492C1000875512008D2B10002D55120082
:102F80008D551200A0551200FD2C100013B54748B6
:102F9000FFF7F8FE464A4749444819F04EFD002223
:102FA000454B03F5C070194643F8042C43F8083C20
:102FB00001F8182B19615A611A7630339842F2D110
:102FC0004FF0FF343A4A3D49002019F036FD3C48A5
:102FD000FFF7D8FE364A3749394819F02EFD3948EF
:102FE000FFF7D0FE324A3349364819F026FD3648FD
:102FF000FFF7C8FE2E4A2F49334819F01EFD102353
:10300000009440222021314819F02CFA284A3049F6
:103010002E4819F012FD0023022201212D4819F03B
:103020006BF9234A2C492B4819F007FD2B4814F063
:10303000AFFD1F4A2A49294819F0FFFC294803F02F
:103040009FFC1B4A2849274819F0F7FC10230094DD
:1030500040222021254819F005FA18220021244891
:103060001BF010FD2146224816F04CFF202300944F
:10307000042208211F4805F0A3FC0D4A1E491B48E5
:1030800019F0DBFC1D48FFF7F5F9094A1C491B48FC
:1030900019F0D3FC1B48FFF7FBFB054A1A491948F6
:1030A00002B0BDE8104019F0C8BC00BF604BFF3F44
:1030B0000040FF3F95CA1100804BFF3F712B10006D
:1030C000184BFF3F484BFF3F304BFF3FFC4CFF3F4F
:1030D000A92310002C50FF3F192410001850FF3F67
:1030E000197C1100144DFF3F772D1000F04DFF3F6C
:1030F000044EFF3F244EFF3F692D1000084FFF3F55
:10310000C9231000884EFF3F152A100038B5054C22
:10311000A4F5C075183C204619F0A6FCAC42F9D1C4
:1031200038BD00BF6452FF3F044B10B50446036036
:10313000806808B119F088FC204610BDB85512000F
:1031400010B50446FFF7F0FF204619F087FC204633
:1031500010BD000010B50446054A08302060114635
:1031600019F093FC0023226863601370204610BDA1
:103170007D6712001FB54FF480734FF48022094918
:1031800001A802F07DFF084B01A85A689B68110A4C
:1031900002F0A4FF044601A802F09AFF204604B002
:1031A00010BD00BF7052FF3F6452FF3F7FB50E4617
:1031B000054640B3154C4FF480734FF480221449F8
:1031C00001A802F05DFF32462946A0681BF035FCDD
:1031D000A368616801AA0F4800F01CFB6268A3683D
:1031E000110A01A802F0F0FF0446014684F0010430
:1031F000094800F00FFBE4B201A8644202F068FF46
:10320000204604B070BD4FF0FF34F9E76452FF3F31
:103210007052FF3FC0551200D555120013B53F48FC
:10322000FFF798FF3E4A3F493C4819F006FC002250
:103230003D4B03F5C070194643F8042C43F8083C95
:1032400001F8182B19615A611A7630339842F2D17D
:103250004FF0FF34324A3549002019F0EEFB344874
:10326000FFF778FF2E4A2F49314819F0E6FB314825
:10327000FFF770FF2A4A2B492E4819F0DEFB2E4833
:10328000FFF768FF264A27492B4819F0D6FB009420
:10329000102340222021294819F0E4F8204A284927
:1032A000264819F0CAFB002302220121254819F003
:1032B00023F81B4A2449234819F0BFFB234814F084
:1032C00067FC174A2249214819F0B7FB00941023E4
:1032D000402220211F4819F0C5F8114A18491D48FD
:1032E00019F0ABFB1C4C1D4B002223604FF4007304
:1032F00008211848636019F0EDF81949154819F0CC
:1033000001F9606819F09EFBA0602046044A154947
:1033100002B0BDE8104019F090BB00BFCC50FF3F99
:103320000040FF3F95CA1100EC50FF3F0D311000E7
:103330008450FF3FB450FF3F9C50FF3F8452FF3FFB
:10334000A9231000AC52FF3F192410009852FF3FF0
:10335000197C11007052FF3F6452FF3FB8551200B4
:1033600040420F002931100038B5054CA4F5C07556
:10337000183C204619F078FBAC42F9D138BD00BFAB
:10338000E454FF3F10B50446054A0830206011465A
:1033900019F07BFB0023226863601370204610BD88
:1033A0007D67120030B5054693B0124803F0C2FBAA
:1033B00001460BA81DF004FB0AAB039309AB029373
:1033C00008AB019305AC07AB0093224606AB0A4954
:1033D0000BA81DF05FFA062809D1002354F823201A
:1033E000EA540133062BF9D1002013B030BD4FF061
:1033F000FF30FAE7144DFF3FE255120008B50A46C8
:103400000146024804F026F908BD00BF144DFF3FF5
:1034100002282DE9F8430D460ED1112A0CD81D4C77
:10342000D440E44314F0010406D11B4E2701BB59DC
:1034300083B10134082CF9D14FF0FF3426E0282065
:1034400019F0EAFA814605F02DF946F80790C8F818
:1034500008501BE006EB0708012DC8F80C30EED031
:10346000022DE9D1102019F0D7FA814605F0B1F903
:1034700046F80790C8F80850484605F0B0F91DF026
:1034800075F8C0F30E01484605F068FA2046BDE81D
:10349000F88300BF41000200E454FF3F082838B51C
:1034A00011D80A4B00011C581D1864B1204605F0C4
:1034B000EDF8204619F0D2FA1022002128461BF020
:1034C000E1FA002038BD4FF0FF3038BDE454FF3F33
:1034D000082805D8044B0001185808B105F029B98F
:1034E0004FF0FF30704700BFE454FF3F082810B58D
:1034F0000CD8084B0001185840B105F044F90446B7
:103500000146054800F086F9204610BD4FF0FF3413
:10351000FAE700BFE454FF3F005612002DE9F041E6
:1035200008288CB00E46174698462BD8174D040134
:103530002B593BB3D8F80420154912BA130E019346
:10354000C2F307430292009303A8C2F30723D2B247
:103550001DF07CF907A804F0E1FFB8F8022052BA88
:1035600003A907A804F0F8FF28593B46324607A9EB
:1035700005F0D0F9044607A804F0DCFF20460CB0A3
:10358000BDE8F0814FF0FF34F8E700BFE454FF3F9F
:10359000215612002DE9F043082889B005468846D7
:1035A00091461E4638D81E4F04013B59002B33D09C
:1035B00001461C4800F02EF903A804F0AFFF4B466B
:1035C000424603A9385905F039F90446024629460E
:1035D000144800F01FF9002C1BDB03A804F0FAFFCD
:1035E0000DF10B0301930DF10A03009302AA0DF1F3
:1035F00009030D491DF04EF9029B03A8736004F006
:10360000EFFF708003A804F095FF204609B0BDE8E5
:10361000F0834FF0FF34F5E74FF0FF34F5E700BFDC
:10362000E454FF3F0F5612002156120030B508280F
:1036300089B00D461AD80F4B00011C58B4B14A6826
:1036400004A812BA130E0193C2F307430392009326
:103650000949C2F30723D2B21DF0F8F86A8852BABA
:1036600004A9204605F02BF809B030BD4FF0FF301B
:10367000FAE700BFE454FF3F21561200082810B5B6
:103680001ED840F6FF74A1421AD1A2F58052053A25
:10369000012A18D8029A082A18D17BB14FF47A71FE
:1036A0001A685B6893FBF1F301FB0232002A05DD27
:1036B000084B00010021185804F0BCFF002010BD89
:1036C0004FF0FF3010BD6FF0010010BD6FF0020031
:1036D00010BD00BFE454FF3F07B53048FFF752FE6E
:1036E0002F4A30492D4819F0A8F900222E4B03F536
:1036F000C070194643F8042C43F8083C01F8182B15
:1037000019615A611A7630338342F2D1244A27492B
:10371000002019F092F92648FFF734FE204A21498B
:10372000234819F08AF92348FFF72CFE1C4A1D494B
:10373000204819F082F92048FFF724FE184A194959
:103740001D4819F07AF94FF0FF33402200932021F1
:1037500010231A4818F086FE114A1949174819F023
:103760006CF9002302220121164818F0C5FD0C4A0D
:103770001549144819F061F9144814F009FA084A77
:103780001349124819F059F900231946114A995062
:103790001033802BFBD103B05DF804FB4C53FF3F8B
:1037A0000040FF3F95CA11006C53FF3F6933100082
:1037B0000453FF3F3453FF3F1C53FF3F6455FF3F0B
:1037C000A92310008C55FF3F192410007855FF3FA6
:1037D000197C1100E454FF3F38B5054CA4F5C075C1
:1037E000183C204619F040F9AC42F9D138BD00BF71
:1037F000C457FF3F10B50446054A08302060114603
:1038000019F043F90023226863601370204610BD4D
:103810007D6712000FB4F7B5114E08AD4FF0FF31C0
:10382000304655F8047B14F0D9F900230D4C3A4684
:10383000237075212B46204601951EF097FE0A49FC
:1038400020461DF096F82146084818F06DFF3046D6
:1038500014F0D4F903B0BDE8F04004B0704700BFE5
:10386000A858FF3F3058FF3F405C12000458FF3F0C
:1038700007B53748FFF7BEFF364A3749344819F0D5
:10388000DCF80022354B03F5C070194643F8042CD0
:1038900043F8083C01F8182B19615A611A76303345
:1038A0009842F2D12B4A2E49002019F0C6F82D4833
:1038B000FFF7A0FF274A28492A4819F0BEF82A48EE
:1038C000FFF798FF234A2449274819F0B6F82748FC
:1038D000FFF790FF1F4A2049244819F0AEF84FF037
:1038E000FF334022009320211023214818F0BAFD15
:1038F000184A20491E4819F0A0F80023022201218D
:103900001D4818F0F9FC134A1C491B4819F095F89A
:103910001B4814F03DF90F4A1A49194819F08DF85F
:1039200000234FF400724FF48071174818F0E4FC44
:10393000084A1249144819F080F8144814F028F97C
:10394000044A1049114803B05DF804EB19F075B84A
:103950002C56FF3F0040FF3F95CA11004C56FF3FD9
:10396000D9371000E455FF3F1456FF3FFC55FF3F89
:103970001C58FF3FA9231000D058FF3F1924100006
:10398000BC58FF3F197C1100C457FF3FA858FF3FA8
:1039900038B5141E0FDB094800230068FEF77EFCD3
:1039A0000546224601460648FFF734FF002D14BFA6
:1039B0002C466FF00104204638BD00BF2440FF3F75
:1039C0003E56120038B5141E0FDB0948002300686C
:1039D000FEF77EFC0546224601460648FFF71AFF21
:1039E000002D14BF2C466FF00104204638BD00BFE7
:1039F0002440FF3F2D56120038B501FB00F420464D
:103A000000F036F90546224600211BF03BF8284617
:103A100038BD000010B5044607F064FB1F4B21467B
:103A20001F481C60FFF7F6FE07F030FF1D4B1E4CD1
:103A3000186007F07BFB206010B91C48FFF7EAFE16
:103A400000222068114607F093FB2068184907F010
:103A500083F92068174907F081F9206807F093F986
:103A6000154C206010B91548FFF7D4FE0B492068AB
:103A700007F076F90949206807F074F9206807F023
:103A800097FB012805D00E48FFF7C4FE4FF0FF302A
:103A900010BD0C48FFF7BEFE002010BD2440FF3FC4
:103AA000645612002C59FF3F2859FF3F78561200E8
:103AB000C5391000913910003059FF3F8A56120065
:103AC0009C561200AD56120038B50D4614461146EC
:103AD0000548FFF79FFE054B224629461868BDE8BA
:103AE000384007F077B900BFBE5612003059FF3F8B
:103AF00038B50D46144611460548FFF78BFE054BB9
:103B0000224629461868BDE8384007F056B900BF7C
:103B1000C85612003059FF3F08B50948FFF77AFE32
:103B2000084B186807F045F9074B186807F027F9A4
:103B300007F002FC0548FFF76DFE002008BD00BF3E
:103B40004F5612003059FF3F2859FF3F5956120077
:103B500038B5094B0446186819F000FF05460748B8
:103B600018F076FE0146284619F044FE1AF010F9C6
:103B700004B1206038BD00BF4459FF3F3459FF3FB6
:103B800030B5054689B00020FFF7E2FF08AB43F8E7
:103B9000040D18461AF0D8FC04460B4818F06EFEC7
:103BA000236962690490216801330391616802F21C
:103BB0006C720291A16828460191E1680091034965
:103BC0001CF044FE09B030BD3459FF3FD2561200FC
:103BD00010B504460020FFF7BBFF2060024818F034
:103BE00029FE6060002010BD3459FF3F10B5044627
:103BF00001680548FFF70EFE2268044B04481A606E
:103C000018F066FE002010BDF65612004459FF3F22
:103C10003459FF3F08B516F08DFA002008BD0000AA
:103C2000014818F0C3BD00BF3459FF3FEFF30583CF
:103C300003B100BE704700000848094A08B5121ACF
:103C400000211AF01FFF15F065FE1AF027FD16F08F
:103C50002DFF18F007FB1AF029F900BF4043FF3F82
:103C60000878FF3F022801DD18F092BA0120704762
:103C700008B5FFF7DBFFBDE808401AF09FBE08B5A6
:103C8000FFF7D4FFBDE808401CF0AABC08B5FFF759
:103C9000CDFFBDE808401AF099BE08B501201AF022
:103CA00005F908B5FFF7F9FF00B585B00190019857
:103CB00000F088FF019800F0E3FF019801F06CF834
:103CC0000DF10A031A461821019800F00DFE039029
:103CD000039B13F1020F02D16FF001037AE00DF1A3
:103CE0000A031A461721019800F0FEFD0390039B7A
:103CF00013F1020F02D16FF001036BE0019801F0A4
:103D000021F80390039B002B01D0039B62E002216A
:103D1000019800F017FC0390039B002B01D0039B3C
:103D200058E00221019800F04DFB039B002B01D0CD
:103D3000039B4FE00021019800F084FB0390039B5C
:103D4000002B01D0039B45E00021019800F0BAFB55
:103D50000390039B002B01D0039B3BE003210198C0
:103D600000F070FC0390039B002B01D0039B31E01B
:103D70000121019800F026FC0390039B002B01D049
:103D8000039B27E01549019800F0CEFA0390039BAE
:103D9000002B01D0039B1DE04FF000020121019890
:103DA00000F05CF80390039B002B01D0039B11E013
:103DB0004FF000020221019800F050F80390039B9D
:103DC000002B01D0039B05E05821019800F07AFCFC
:103DD0000390039B184605B05DF804FBECB10400AA
:103DE00000B585B001900B468DF803300DF10A0344
:103DF0001A460821019800F063FD034613F1020FF3
:103E00000CBF01230023DBB2002B02D06FF00103B3
:103E10001FE0BDF80A3023F003039BB2ADF80A306F
:103E20009DF803309AB2BDF80A3013439BB2ADF847
:103E30000A30BDF80A301A460821019800F022FE27
:103E40000390039B13F1020F02D16FF0010300E016
:103E50000023184605B05DF804FB00BF00B58BB029
:103E600003900B4601928DF80B300023ADF82630FD
:103E70002C4B08934FF0000307930899019819F011
:103E80007DFF0346002B06D10799019819F058FFD2
:103E90000346002B02D06FF002033FE02249019855
:103EA00019F0B0FD03461F49184619F05FFE03469E
:103EB000184619F093FF0346ADF81A30BDF81A30D2
:103EC000ADF826309DF80B30012B02D0022B0FD01D
:103ED0001DE0BDF826301A460921039800F0D2FDF6
:103EE0000590059B13F1020F14D16FF0010315E04B
:103EF000BDF826301A460A21039800F0C3FD05904C
:103F0000059B13F1020F07D16FF0010306E06FF07C
:103F1000020303E000BF00E000BF002318460BB01F
:103F20005DF804FB0000C84200C07F4400B587B0C4
:103F300001900B468DF803301346ADF80030002396
:103F4000ADF8163040F2FF33ADF81430BDF8002064
:103F5000BDF814309A4202D96FF0020333E0BDF885
:103F60000030ADF81230BDF81230ADF816309DF8C3
:103F70000330012B02D0022B0FD01DE0BDF816300C
:103F80001A460921019800F07DFD0390039B13F16F
:103F9000020F14D16FF0010315E0BDF816301A4678
:103FA0000A21019800F06EFD0390039B13F1020FAC
:103FB00007D16FF0010306E06FF0020303E000BFDA
:103FC00000E000BF0023184607B05DF804FB00BF07
:103FD00000B589B00390029101920199029819F0FD
:103FE00009FC03469649184619F0C8FE0346002B03
:103FF00002D06FF0020306E1029819F059F884A389
:10400000D3E9002319F038FB0346002B02D08D4B77
:10401000029308E08C49029819F092FE0346002BA7
:1040200001D08A4B02938949029819F07FFE03461A
:10403000002B03D000238DF81F3014E08249029832
:1040400019F0D6FB03468249184619F0DBFC0346FB
:104050008049184619F08AFD0346184619F0BEFE3D
:1040600003468DF81F300DF116031A4603210398FD
:1040700000F026FC034613F1020F0CBF01230023BE
:10408000DBB2002B02D06FF00103BCE0BDF81630AC
:1040900023F07F039BB2ADF816309DF81F309AB223
:1040A000BDF8163013439BB2ADF81630BDF816308C
:1040B0001A460321039800F0E5FC0690019818F0D9
:1040C000F7FF55A3D3E9002319F0D6FA0346002BD6
:1040D00003D007238DF81E3062E0019818F0E8FF46
:1040E0004FA3D3E9002319F0C7FA0346002B03D0EE
:1040F00007238DF81E3053E0019818F0D9FF4AA32A
:10410000D3E9002319F0B8FA0346002B03D00623A5
:104110008DF81E3044E0019818F0CAFF44A3D3E99B
:10412000002319F0A9FA0346002B03D005238DF8CC
:104130001E3035E0019818F0BBFF3FA3D3E9002300
:1041400019F09AFA0346002B03D004238DF81E3091
:1041500026E04FF08041019819F010FE0346002B35
:1041600003D003238DF81E301AE04FF07F510198E1
:1041700019F004FE0346002B03D002238DF81E30F5
:104180000EE04FF07E51019819F0F8FD0346002B28
:1041900003D001238DF81E3002E000238DF81E307D
:1041A0000DF116031A460221039800F089FB03461D
:1041B00013F1020F0CBF01230023DBB2002B02D04E
:1041C0006FF001031FE0BDF8163023F007039BB228
:1041D000ADF816309DF81E309AB2BDF81630134374
:1041E0009BB2ADF81630BDF816301A46022103987E
:1041F00000F048FC0690069B13F1020F02D16FF00D
:10420000010300E00023184609B05DF804FB00BF7D
:104210006666666666065040333333333333174081
:1042200066666666666613403333333333330F4056
:104230003333333333330740333333333333034090
:10424000000088423333804200007041000030415A
:104250000000FE426666444200B585B001900DF153
:104260000E031A460221019800F02AFB034613F1BF
:10427000020F0CBF01230023DBB2002B02D06FF032
:10428000010319E0BDF80E3043F020039BB2ADF8F6
:104290000E30BDF80E301A460221019800F0F2FBF4
:1042A0000346002B0CBF01230023DBB2002B01D0FF
:1042B000002301E06FF00103184605B05DF804FB30
:1042C00000B585B001900DF10E031A460221019848
:1042D00000F0F6FA034613F1020F0CBF012300238E
:1042E000DBB2002B02D06FF0010319E0BDF80E30F5
:1042F00023F020039BB2ADF80E30BDF80E301A4605
:104300000221019800F0BEFB0346002B0CBF0123E5
:104310000023DBB2002B01D0002301E06FF001038A
:10432000184605B05DF804FB00B587B00190009118
:10433000234A009BB2FBF3F30593059B072B02D99D
:10434000059B262B02D96FF0020335E00DF10E0319
:104350001A460121019800F0B3FA034613F1020F47
:104360000CBF01230023DBB2002B02D06FF001034E
:1043700022E0BDF80E3023F0F8039BB2ADF80E300A
:10438000059B9BB2073B9BB2DB009AB2BDF80E3097
:1043900013439BB2ADF80E30BDF80E301A46012122
:1043A000019800F06FFB0490049B13F1020F02D1FF
:1043B0006FF0010300E00023184607B05DF804FB2E
:1043C00000127A0000B585B001900B468DF80330DD
:1043D0000DF10A031A460221019800F071FA034612
:1043E00013F1020F0CBF01230023DBB2002B02D01C
:1043F0006FF0010322E0BDF80A3023F018039BB2EE
:10440000ADF80A309DF80330DB009AB2BDF80A30EF
:104410009BB213439BB29BB2ADF80A30BDF80A3091
:104420001A460221019800F02DFB0390039B13F123
:10443000020F02D16FF0010300E00023184605B01F
:104440005DF804FB00B585B001900B468DF8033094
:104450000DF10A031A460221019800F031FA0346D1
:1044600013F1020F0CBF01230023DBB2002B02D09B
:104470006FF0010322E0BDF80A3023F4C0739BB251
:10448000ADF80A309DF80330DB009AB2BDF80A306F
:104490009BB213439BB29BB2ADF80A30BDF80A3011
:1044A0001A460221019800F0EDFA0390039B13F1E4
:1044B000020F02D16FF0010300E00023184605B09F
:1044C0005DF804FB00B585B001900B468DF8033014
:1044D0000DF10A031A460521019800F0F1F903468F
:1044E00013F1020F0CBF01230023DBB2002B02D01B
:1044F0006FF0010322E0BDF80A3023F4C0739BB2D1
:10450000ADF80A309DF803301B029AB2BDF80A30AC
:104510009BB213439BB29BB2ADF80A30BDF80A3090
:104520001A460521019800F0ADFA0390039B13F1A0
:10453000020F02D16FF0010300E00023184605B01E
:104540005DF804FB00B585B001900B468DF8033093
:104550000DF10A031A460121019800F0B1F9034652
:1045600013F1020F0CBF01230023DBB2002B02D09A
:104570006FF0010322E0BDF80A3023F006039BB27E
:10458000ADF80A309DF803305B009AB2BDF80A30EE
:104590009BB213439BB29BB2ADF80A30BDF80A3010
:1045A0001A460121019800F06DFA0390039B13F164
:1045B000020F02D16FF0010300E00023184605B09E
:1045C0005DF804FB00B585B001900B468DF8033013
:1045D0000DF10A031A460121019800F071F9034612
:1045E00013F1020F0CBF01230023DBB2002B02D01A
:1045F0006FF0010322E0BDF80A3023F440739BB250
:10460000ADF80A309DF803301B029AB2BDF80A30AB
:104610009BB213439BB29BB2ADF80A30BDF80A308F
:104620001A460121019800F02DFA0390039B13F123
:10463000020F02D16FF0010300E00023184605B01D
:104640005DF804FB00B585B001900B468DF8033092
:104650000DF10A031A460321019800F031F90346CF
:1046600013F1020F0CBF01230023DBB2002B02D099
:104670006FF0010322E0BDF80A3023F4C0739BB24F
:10468000ADF80A309DF80330DB019AB2BDF80A306C
:104690009BB213439BB29BB2ADF80A30BDF80A300F
:1046A0001A460321019800F0EDF90390039B13F1E2
:1046B000020F02D16FF0010300E00023184605B09D
:1046C0005DF804FB00B585B001900B46ADF80230F3
:1046D000BDF80230B3F5007F02D36FF0020313E0A0
:1046E000BDF80230ADF80E30BDF80E301A460D217F
:1046F000019800F0C7F90290029B13F1020F02D15A
:104700006FF0010300E00023184605B05DF804FBDC
:1047100000B585B001900B468DF803309DF803304D
:10472000012B02D0022B2AD053E00DF10A031A46C6
:104730000621019800F0C4F8034613F1020F0CBFE4
:1047400001230023DBB2002B03D06FF0010303939E
:1047500043E0BDF80A3043F002039BB2ADF80A30E3
:10476000BDF80A301A460621019800F08BF9039033
:10477000039B13F1020F30D16FF0010331E00DF113
:104780000A031A460621019800F09AF8034613F12D
:10479000020F0CBF01230023DBB2002B03D06FF00C
:1047A000010303931BE0BDF80A3043F001039BB201
:1047B000ADF80A30BDF80A301A460621019800F01B
:1047C00061F90390039B13F1020F08D16FF001030D
:1047D00007E06FF00103039302E000BF00E000BFB9
:1047E0000023184605B05DF804FB00BF00B585B096
:1047F00001900B468DF803309DF80330012B02D059
:10480000022B2AD056E00DF10A031A460621019820
:1048100000F056F8034613F1020F0CBF01230023EA
:10482000DBB2002B03D06FF0010303933FE0BDF830
:104830000A3023F002039BB2ADF80A30BDF80A300B
:104840001A460621019800F01DF90390039B13F10D
:10485000020F2CD16FF001032DE00DF10A031A466F
:104860000621019800F02CF8034613F1020F0CBF4B
:1048700001230023DBB2002B03D06FF0010303936D
:1048800017E0BDF80A3023F001039BB2ADF80A30FF
:10489000BDF80A301A460621019800F0F3F803909B
:1048A000039B13F1020F04D16FF0010303E000BF7B
:1048B00000E000BF0023184605B05DF804FB00BF10
:1048C00000B587B003900B4601928DF80B309DF830
:1048D0000B30019A1946039800F02EF80590059BBD
:1048E000184607B05DF804FB00B587B003900B468F
:1048F00001928DF80B309DF80B30019A1946039800
:1049000000F01AF80590059B184607B05DF804FB07
:1049100000B587B003900B4601928DF80B309DF8DF
:104920000B30019A1946039800F006F80590059B94
:10493000184607B05DF804FB00B587B003900B463E
:1049400001928DF80B300023ADF816300023ADF83E
:104950001430019B002B02D16FF002038BE04FF06B
:10496000FF31474813F03AF9039800F015FA03981D
:1049700000F062F99DF80B309B029AB2BDF8163038
:1049800013439BB2ADF81630BDF81620BDF81430B5
:104990001343ADF81630BDF816301946039800F0F1
:1049A00087F903468DF813309DF813305B029AB2F5
:1049B000BDF8163013439BB2ADF81630039BBDF81B
:1049C00016201146184617F0D3FD0346ADF81030F7
:1049D000019BBDF810201A80039800F051F903984C
:1049E00000F02AF90023ADF816300023ADF814309A
:1049F000BDF8163043F4C043ADF81630BDF81620AC
:104A0000BDF814301343ADF81630BDF81630194612
:104A1000039800F04DF903468DF813309DF81330DC
:104A20005B029AB2BDF8163013439BB2ADF8163054
:104A3000039BBDF816201146184617F099FD034652
:104A4000ADF81030039800F01BF9039800F0B8F9A6
:104A50000B4813F0D3F8BDF810301BB2002B02DA6C
:104A60006FF0010307E0019B1B88C3F309039AB2AF
:104A7000019B1A800023184607B05DF804FB00BFB5
:104A80007845FF3F00B585B001900B468DF80330A7
:104A90001346ADF800300023ADF80E304FF0FF3173
:104AA000474813F09BF8019800F076F9019800F060
:104AB000E7F8019800F0C0F8BDF80E306FEA434304
:104AC0006FEA5343ADF80E309DF80330DB029AB223
:104AD000BDF80E3013439BB2ADF80E30BDF80E207A
:104AE000BDF800301343ADF80E30BDF80E30194656
:104AF000019800F0DDF803468DF80D309DF80D307B
:104B00009B029AB2BDF80E3013439BB2ADF80E3043
:104B1000019BBDF80E201146184617F029FD0346EB
:104B2000ADF80A30019800F0ABF8019800F084F875
:104B30000023ADF800300023ADF80E30BDF80E3084
:104B40006FEA43436FEA5343ADF80E30BDF80E20D1
:104B5000BDF800301343ADF80E30BDF80E301946E5
:104B6000019800F0A5F803468DF80D309DF80D3042
:104B70005B029AB2BDF80E3013439BB2ADF80E3013
:104B8000019BBDF80E201146184617F0F1FC0346B4
:104B9000ADF80A30019800F073F8019800F010F9B0
:104BA000074813F02BF8BDF80A301BB2002B02DACD
:104BB0006FF0010300E00023184605B05DF804FB28
:104BC0007845FF3F00B583B00190019B143319492C
:104BD000184603F019FF019B03F114000023002283
:104BE000012103F0C5FF019B03F114000023012202
:104BF000012103F0BDFF019B03F1140000230222F9
:104C0000012103F0B5FF019B03F1140001230122F0
:104C1000012103F045FF019B03F11400012302224F
:104C2000012103F03DFF142015F094FA00BF03B0FA
:104C30005DF804FB40420F0000B583B00190019B7A
:104C400003F1140001230022012103F029FF1420A5
:104C500015F080FA072015F07DFA019B03F114008E
:104C600000230022012103F01BFF142015F072FA2B
:104C7000072015F06FFA00BF03B05DF804FB00BF1A
:104C800000B583B00190072015F064FA019B03F191
:104C9000140001230022012103F002FF142015F06B
:104CA00059FA072015F056FA00BF03B05DF804FB6F
:104CB00086B001900B46ADF8023000238DF8153018
:104CC00000230493BDF80230ADF81630002304939E
:104CD000049B0F2BCCBF01230023DAB2BDF81630A2
:104CE000002B0CBF01230023DBB21343DBB2002BEC
:104CF00014D1BDF81630DBB203F00103DAB29DF82F
:104D000015305340DBB28DF81530BDF816305B100E
:104D1000ADF81630049B01330493D9E79DF81530A4
:104D2000002B0CBF01230023DBB28DF80F309DF860
:104D30000F30002B01D0012300E00023184606B0FD
:104D4000704700BF00B585B00190002303930DF1BB
:104D50000A031A461A210198FFF7DAFD034613F1F8
:104D6000020F0CBF01230023DBB2002B02D06FF037
:104D700001030DE0BDF80A30DBB29BB2ADF80A309A
:104D8000BDF80A30582B02D04FF0FF330393039B3A
:104D9000184605B05DF804FB00B583B00190019B97
:104DA00000221021184617F095FB019B0349184675
:104DB00017F0A8FB00BF03B05DF804FB400D030033
:104DC00000B587B001900823059300230493084B96
:104DD0000393019B049A0599184617F07BFB019BEE
:104DE0000399184617F08EFB00BF07B05DF804FB6F
:104DF00040420F0000B585B003900B468DF80B3094
:104E000003984FF0FF33009310234022202117F026
:104E100029FB039B03F114004FF400330093282374
:104E20000422082103F0CCFD039B002283F87820A4
:104E3000039B9DF80B2083F88320039B93F883301A
:104E4000012B28D1039B032283F87920039B0122A5
:104E500083F87A20039B042283F87B20039B0122A2
:104E600083F87C20039B062283F87D20039B01228C
:104E700083F87E20039B052283F87F20039B012279
:104E800083F88020039B062283F88120039B002265
:104E900083F8822028E0039B072283F87920039B74
:104EA000002283F87A20039B002283F87B20039B57
:104EB000012283F87C20039B022283F87D20039B40
:104EC000012283F87E20039B012283F87F20039B2D
:104ED000012283F88020039B062283F88120039B14
:104EE000002283F8822000BF039B184605B05DF8BE
:104EF00004FB00BF00B587B00190019800F0D6FB1D
:104F0000019800F059FC019B14330321184603F06B
:104F1000BBFE0590059A0021019800F09FFC00213E
:104F2000019800F067FC019B03F11400019B93F8CA
:104F30008210019B93F88130DBB25AB2012303F057
:104F4000AFFD019800F084FB0221019800F0D0FA37
:104F500003468DF80F309DF80F3043F04003DBB26D
:104F60008DF80F309DF80F301A460221019800F09D
:104F7000FDFA0490049B002B02D06FF0010359E06E
:104F80000221019800F0B4FA03468DF80F309DF825
:104F90000F3023F04003DBB28DF80F309DF80F3057
:104FA0001A460221019800F0E1FA0490049B002BBC
:104FB00002D06FF001033DE00DF10E030DF10F0281
:104FC0000521019800F004FA0490049B002B02D004
:104FD0006FF001032EE00DF10E030DF10F0206211B
:104FE000019800F0F5F90490049B002B02D06FF0BB
:104FF00001031FE0019800F009FB0321019800F074
:1050000077FA03468DF80F309DF80F3063F07F0379
:10501000DBB28DF80F309DF80F301A46032101984E
:1050200000F0A4FA0490049B002B02D06FF001035F
:1050300000E00023184607B05DF804FB00B585B01A
:1050400001900B468DF803301F238DF80F309DF82B
:1050500003209DF80F309A4202D96FF0020322E03C
:105060000121019800F044FA03468DF80E309DF8B6
:105070000E3023F01F038DF80E309DF80E209DF8A2
:10508000033013438DF80E309DF80E301A4601217F
:10509000019800F06BFA0290029B002B02D06FF097
:1050A000010300E00023184605B05DF804FB00BFD3
:1050B00000B585B001900B468DF803309DF80330A4
:1050C0000B2B6FD801A252F823F000BFFD50100047
:1050D0000B511000195110002751100035511000CC
:1050E00043511000515110005F5110006D511000DC
:1050F0007B511000895110009751100000238DF84A
:105100000F3000238DF80E3053E000238DF80F3060
:1051100001238DF80E304CE000238DF80F30022370
:105120008DF80E3045E000238DF80F3003238DF805
:105130000E303EE000238DF80F3004238DF80E3042
:1051400037E000238DF80F3005238DF80E3030E066
:1051500000238DF80F3000238DF80E3029E0002356
:105160008DF80F3006238DF80E3022E001238DF8E4
:105170000F3000238DF80E301BE002238DF80F3026
:1051800000238DF80E3014E003238DF80F30002338
:105190008DF80E300DE004238DF80F3000238DF8CC
:1051A0000E3006E000238DF80F3000238DF80E300E
:1051B00000BF0921019800F09BF903468DF80D30DE
:1051C0009DF80D3023F00703DAB29DF80F3013433A
:1051D000DBB28DF80D309DF80D301A46092101988B
:1051E00000F0C4F90290029B002B02D06FF0010383
:1051F00027E00121019800F07BF903468DF80D307E
:105200009DF80D3003F01F03DAB29DF80E305B01FC
:10521000DBB21343DBB28DF80D309DF80D301A462A
:105220000121019800F0A2F90290029B002B02D00C
:105230006FF0010305E0019B9DF8032083F87820BF
:105240000023184605B05DF804FB00BF00B585B02B
:1052500001900B468DF803300221019800F048F9C7
:1052600003468DF80F309DF80F3003F07F038DF863
:105270000F309DF80330DB01DAB29DF80F30134395
:10528000DBB28DF80F309DF80F301A4602210198DD
:1052900000F06CF90290029B002B02D06FF001032A
:1052A00000E00023184605B05DF804FB0000000094
:1052B00010B588B0019000914FF00001009818F0EF
:1052C00053FD0346002B01D0009B02E0009B83F0BE
:1052D00000430693019800F007FB0590059817F02E
:1052E000C5FE03460C461A46234623A1D1E9000118
:1052F00018F05CF803460C461846214618F024FACC
:10530000034604930499069818F01AFD0346002BEF
:1053100002D06FF002032AE04FF00001009818F06D
:105320002DFD0346002B05D000210198FFF78EFFCD
:10533000079008E001210198FFF788FF0790009B84
:1053400083F000430093079B002B01D0079B0EE0E6
:105350000499009818F00AFC0346184618F03EFD20
:10536000034603930399019800F084FB0023184639
:1053700008B010BDAFF30080CDCCCCCCCCCCFC3F82
:1053800000B585B001900321019800F0B1F8034603
:105390008DF80F309DF80F3003F07F038DF80F303C
:1053A0009DF80F301A460321019800F0DFF80346FC
:1053B000002B14BF01230023DBB2002B02D06FF0BF
:1053C000010300E00023184605B05DF804FB00BFB0
:1053D00000B589B00390019200930B468DF80B3015
:1053E00000238DF81E30002306934FF0FF313F4815
:1053F00012F0F4FB039800F02BF9039800F0DCF9AD
:10540000039800F0A9F99DF80B308DF81730039B35
:105410009DF817201146184617F0AAF804238DF8B6
:105420001730039B9DF817201146184617F0A0F877
:105430000346DAB2019B1A70019B1B788DF81F306E
:10544000039B03F11400039B93F87C10039B93F8D8
:105450007B30DBB25BB21A4603F0E4FA0346002B62
:105460000CBF01230023DBB2002B03D0009B0122E1
:105470001A7002E0009B00221A70039800F09CF959
:10548000039800F0F9F89DF81F30002B15D0069B0B
:10549000072B12D09DF81F209DF81E305340DBB221
:1054A00003F001038DF81E309DF81F305B108DF85E
:1054B0001F30069B01330693E5E7019B1B78DB0950
:1054C0008DF816309DF816209DF81E309A4204D1B2
:1054D000064812F093FB002304E0044812F08EFB10
:1054E0006FF00103184609B05DF804FB7845FF3FF3
:1054F00000B585B001900B468DF803304FF0FF31B9
:10550000194812F06BFB019800F0A2F8019800F026
:1055100053F9019800F020F99DF803308DF80F3011
:10552000019B9DF80F201146184617F021F804231F
:105530008DF80F30019B9DF80F201146184617F08B
:1055400017F803468DF80E30019800F035F90198F0
:1055500000F092F8044812F051FB9DF80E30184606
:1055600005B05DF804FB00BF7845FF3F00B585B08E
:1055700001900B468DF8033013468DF802304FF042
:10558000FF31214812F02AFB019800F061F80198E0
:1055900000F012F9019800F0DFF89DF8033063F095
:1055A0007F038DF80F30019B9DF80F2011461846A0
:1055B00016F0DEFF019B9DF802201146184616F0FA
:1055C000D7FF019800F0F8F8019800F055F89DF821
:1055D000033019460198FFF78BFF03468DF80E3014
:1055E0009DF80E209DF802309A4204D1064812F030
:1055F00005FB002304E0044812F000FB6FF00103F8
:10560000184605B05DF804FB7845FF3F00B585B04E
:105610000190019B03F11400019B93F87C10019B06
:1056200093F87B30DBB25BB21A4603F0FBF90290D1
:10563000029B012B03D100238DF80F3002E00123E0
:105640008DF80F309DF80F30184605B05DF804FB5B
:1056500000B583B00190019B00220821184616F086
:1056600039FF019B0349184616F04CFF00BF03B0F9
:105670005DF804FB20A1070000B587B00190082366
:10568000059300230493084B0393019B049A059907
:10569000184616F01FFF019B0399184616F032FFBB
:1056A00000BF07B05DF804FB40420F0000B583B0B7
:1056B0000190019B14332749184603F0A5F9019B7B
:1056C00003F11400019B93F87A10019B93F8793051
:1056D000DBB25AB2002303F04BFA019B03F1140032
:1056E000019B93F88210019B93F88130DBB25AB290
:1056F000002303F03DFA019B03F11400019B93F892
:105700007C10019B93F87B30DBB25AB2012303F08B
:105710002FFA019B03F11400019B93F87E10019B6B
:1057200093F87D30DBB25AB2002303F021FA019BDB
:1057300003F11400019B93F88010019B93F87F30D4
:10574000DBB25AB2002303F013FA00BF03B05DF8D6
:1057500004FB00BF40420F0000B583B00190019BE5
:1057600003F11400019B93F87A10019B93F87930B0
:10577000DBB25AB2012303F093F9142014F0EAFCCF
:10578000062014F0E7FC019B03F11400019B93F841
:105790007A10019B93F87930DBB25AB2002303F000
:1057A0007FF9142014F0D6FC022014F0D3FC00BFC3
:1057B00003B05DF804FB00BF00B583B00190012089
:1057C00014F0C8FC019B03F11400019B93F87A10BC
:1057D000019B93F87930DBB25AB2012303F060F9F0
:1057E000142014F0B7FC062014F0B4FC00BF03B082
:1057F0005DF804FB00B583B001900B468DF80330D3
:10580000012014F0A7FC9DF80330002B0ED1019B62
:1058100003F11400019B93F88010019B93F87F30F3
:10582000DBB25AB2002303F03BF90DE0019B03F118
:105830001400019B93F88010019B93F87F30DBB23A
:105840005AB2012303F02CF9142014F083FC012038
:1058500014F080FC00BF03B05DF804FB00B587B016
:1058600003900B4601928DF80B3005AB00210A46E0
:105870001A800A469A709DF80B30002B0CD0012B31
:1058800000D014E0039B93F87D301A460123934027
:10589000019A134301930AE0039B93F87D301A4663
:1058A00001239340DB43019A1340019300BF282357
:1058B0008DF8143003238DF81530019BDBB28DF881
:1058C0001630084B15229A6005AB0322194603983F
:1058D00000F062F8034B14229A6000BF07B05DF835
:1058E00004FB00BF0070004084B00190019B93F85E
:1058F00078300B2B32D801A252F823F02D5910002A
:1059000033591000395910003F59100051591000F7
:10591000515910005759100057591000455910009F
:105920004B5910005759100057591000202303936A
:1059300015E01023039312E0082303930FE00423E0
:1059400003930CE08023039309E04023039306E0D4
:105950000223039303E00123039300E000BF039BB2
:10596000184604B0704700BF84B001900091002336
:105970000393009B0393039B002B14BF012300237D
:10598000DBB2002B04D000BF039B013B0393F2E783
:1059900000BF04B0704700BF00B587B0039002910C
:1059A000019200238DF8173000230493049A019B81
:1059B0009A4256D22E4B12229A6014210398FFF776
:1059C000D3FF029A049B13441B78132B18D1284B46
:1059D00010229A60264B10229A60254B10229A6062
:1059E000234B11229A60224B10229A60204B1022E6
:1059F0009A601F4B11229A601D4B11229A6007E09A
:105A00001B49049B5A1C0492029A13441B788B6016
:105A10000A210398FFF7A8FF154B16229A6005216B
:105A20000398FFF7A1FF124B1B6803F01003002B34
:105A300014BF01230023DBB2002B00D0F3E70521C4
:105A40000398FFF791FF0A4B1B6803F00403002B38
:105A500014BF01230023DBB2002BA7D002238DF853
:105A600017309DF81730184607B05DF804FB00BFEB
:105A70000070004000B585B001900091019B143387
:105A80000321184603F000F9029072B60023039335
:105A9000039A009B9A420DD2029A01210198FFF7C6
:105AA000DDFE029A00210198FFF7D8FE039B013327
:105AB0000393EDE762B600BF05B05DF804FB00BFDD
:105AC00000B587B003900B468DF80B304649474828
:105AD00016F0ACF8012014F02DFB08238DF81430DB
:105AE00005AA0023009301237221404816F0CEF846
:105AF00005AA00230093022372213C4816F0ECF81B
:105B000008238DF8143005AA002300930123722185
:105B1000364816F0BBF80346002B14BF01230023C0
:105B2000DBB2002B02D06FF0010358E005AA00237E
:105B30000093022372212D4816F0CEF80346002B65
:105B400014BF01230023DBB2002B02D06FF001034E
:105B500045E09DF81430192B03D19DF81530052B25
:105B600002D04FF0FF333AE002238DF814309DF855
:105B70000B308DF8153005AA002300930223722103
:105B80001A4816F083F80346002B14BF01230023A4
:105B9000DBB2002B02D06FF0010320E0002103985C
:105BA00000F02EF8124814F0AFFA0821039800F024
:105BB00027F810490D4816F039F89DF80B300E4AB9
:105BC00052F823300D49184617F01CFF03461846BB
:105BD00018F0DEF80346184614F0ACFA0023184615
:105BE00007B05DF804FB00BFA08601004859FF3FE5
:105BF0009A99193E40420F000440FF3F0000404088
:105C000000B587B003900B468DF80B3000238DF85C
:105C100014309DF80B308DF8153072B629492A489A
:105C200016F004F805AA00230093022372212648E7
:105C300016F02CF80346002B14BF01230023DBB21F
:105C4000002B02D06FF0010337E000238DF81430F1
:105C500005AA00230093012372211B4816F016F8B1
:105C60000346002B14BF01230023DBB2002B02D01C
:105C70006FF0010321E005AA0023009301237221A4
:105C8000114816F029F80346002B14BF0123002306
:105C9000DBB2002B02D06FF001030EE00B490A4883
:105CA00015F0C4FF62B69DF814309DF80B209A429F
:105CB00001D1002301E04FF0FF33184607B05DF833
:105CC00004FB00BFA08601004859FF3F40420F007F
:105CD00000B587B00390029106238DF8143072B698
:105CE0001D491E4815F0A2FF05AA002300930123B9
:105CF00072211A4815F0CAFF0346002B14BF012376
:105D00000023DBB2002B02D06FF0010320E005AAD4
:105D10000023009302237221104815F0DDFF034693
:105D2000002B14BF01230023DBB2002B02D06FF045
:105D300001030DE00A49094815F078FF62B69DF8A5
:105D400015301B029DF814201A43029B1A60002391
:105D5000184607B05DF804FBA08601004859FF3FD4
:105D600040420F0000000000F0B587B001900091A4
:105D70000023049302238DF8173000238DF80F3091
:105D80000DF10F029DF817301946019800F054F8F4
:105D90000346002B0CBF01230023DBB2002B3DD0B8
:105DA00004AB19460198FFF793FF0346002B0CBF85
:105DB00001230023DBB2002B2ED0049B184617F0E2
:105DC00065F904460D469DF80F301A46184B53F8F6
:105DD0002230184617F06CF913A3D3E9002317F00B
:105DE000BBF902460B4616461F46009817F060F9AD
:105DF00002460B463046394617F0AEF902460B46CE
:105E00002046294617F0D2FA03460C46184621468A
:105E100017F09AFC034602E0064B00E0054B1846DB
:105E200007B0F0BDAFF30080FCA9F1D24D62503F46
:105E30000440FF3F000080BF00B589B005900B46CD
:105E400003928DF813309DF81330092B37D89DF845
:105E500013308DF81C3072B61C491D4815F0E6FE53
:105E600007AA0023009301237221194815F00EFFA1
:105E70000346002B14BF01230023DBB2002B03D009
:105E800062B66FF001031DE0002300930123039A23
:105E900072210F4815F020FF0346002B14BF012389
:105EA0000023DBB2002B03D062B66FF0010309E0E0
:105EB0000849074815F0BAFE62B6002302E062B650
:105EC0006FF00203184609B05DF804FBA0860100DC
:105ED0004859FF3F40420F0000B585B00390029142
:105EE000039B012B17D1029B4FF6FF72934212D1F5
:105EF000042208210A4815F07BFE4FF4003300937A
:105F0000222304220821074802F05AFD064A0749C5
:105F1000044816F092FD00BF05B05DF804FB00BF19
:105F20004859FF3F5059FF3F0040FF3FD98C1000B8
:105F300008B54FF6FF710120FFF7CEFF08BD00BF87
:105F400000B583B0019002220021094802F06AFDE9
:105F50000346012B0CBF01230023DBB2002B01D031
:105F6000012300E00023184603B05DF804FB00BFE6
:105F7000B459FF3F00B585B003900291039B012BFC
:105F800012D1029B4FF6FF7293420DD14FF40033B2
:105F90000093242304220821054802F011FD054A3C
:105FA0000549034816F049FD00BF05B05DF804FB44
:105FB000B459FF3F0040FF3FD98C100008B54FF6A1
:105FC000FF710120FFF7D6FF08BD00BF00B583B009
:105FD00001900091019B0099184614F02FFE019B3F
:105FE000184603B05DF804FB82B001900091019B5C
:105FF000009A1A60019B00225A6100BF02B07047EC
:1060000000B585B003900291039B012B20D1029B28
:106010004FF6FF7293421BD14FF4003300933623A7
:10602000042208210C4802F0CBFC0C4A0C490A4817
:1060300016F003FD80210B48FFF7C8FF4FF48041A5
:10604000094815F06FFE054A0849074816F0F5FCA7
:1060500000BF05B05DF804FB185AFF3F0040FF3F4A
:10606000D98C10007C5AFF3F845AFF3F9DBD110020
:1060700008B54FF6FF710120FFF7C2FF08BD00BF52
:1060800000B585B00390029101920093039B029AA0
:106090001A60019A039B5A60009A039B9A600A490E
:1060A0000A4802F0B1FC002301220021074802F057
:1060B0005FFD012301220021044802F0F1FC039B53
:1060C000184605B05DF804FB40420F00DC5AFF3F64
:1060D00082B00190019B184602B0704710B586B09F
:1060E0000390029101920093029A019B1A44039B30
:1060F0005B689A4202D8009B002B01D100235BE031
:106100004FF0FF312E4811F069FD002301220021DC
:106110002C4802F0C5FC142014F01CF8039B1B68EB
:106120001B681B68039A1268032110469847039B5B
:106130001B681B681B68039A1068029A120C1146B0
:106140009847039B1B681B681B68039A1068029A98
:10615000120AD2B211469847039B1B681B681B6842
:10616000039A12680299C9B2104698470023059312
:10617000059A019B9A4212D2009A059BD418039B60
:106180001B681B681B68039A126800211046984719
:106190000346DBB22370059B01330593E8E7142027
:1061A00013F0D8FF012301220021064802F078FCF9
:1061B000034811F023FD009B184606B010BD00BF38
:1061C0007845FF3FDC5AFF3F00B589B0039002914C
:1061D00001920093029A019B1A44039B5B689A42C6
:1061E00001D901233AE000230793079A019B9A42C1
:1061F00033D2039B9968029A079B1344039A9268CF
:10620000B3FBF2F002FB00F29B1ACB1A0693069A3C
:10621000079B1A44019B9A4203D9019A079BD31A00
:106220000693029A079BD1180698009A079B13447D
:106230000246039800F016F803468DF817309DF8D3
:10624000173083F00103DBB2002B01D0002305E0FF
:10625000069B079A13440793C7E70123184609B022
:106260005DF804FB00B587B00390029101920093A2
:10627000039800F0B9F84FF0FF312F4811F0AEFC51
:106280000023012200212D4802F00AFC142013F003
:1062900061FF039B1B681B681B68039A126802213D
:1062A00010469847039B1B681B681B68039A10687D
:1062B000029A120C11469847039B1B681B681B68C7
:1062C000039A1068029A120AD2B211469847039BA9
:1062D0001B681B681B68039A12680299C9B21046B2
:1062E000984700230593059A019B9A420FD2039B7E
:1062F0001B681B681B68039A10680099059A0A447A
:10630000127811469847059B01330593EBE714205B
:1063100013F020FF012301220021084802F0C0FBF6
:10632000054811F06BFC039800F044F8012318466F
:1063300007B05DF804FB00BF7845FF3FDC5AFF3F24
:1063400000B585B001904FF0FF31184811F046FCC0
:10635000002301220021164802F0A2FB142013F0B2
:10636000F9FE019B1B681B681B68019A12680521D6
:1063700010469847019B1B681B681B68019A1268AE
:106380000021104698470390142013F0E3FE0123E8
:1063900001220021064802F083FB044811F02EFC84
:1063A000039B184605B05DF804FB00BF7845FF3F2E
:1063B000DC5AFF3F00B583B001900198FFF7C0FFA2
:1063C000034603F00103002B0CBF01230023DBB2C3
:1063D000002B03D10A2013F0BDFEEEE700BF00BF83
:1063E00003B05DF804FB00BF00B583B001904FF02F
:1063F000FF31124811F0F2FB002301220021104866
:1064000002F04EFB142013F0A5FE019B1B681B68D5
:106410001B68019A1268062110469847142013F051
:1064200099FE012301220021054802F039FB0348AF
:1064300011F0E4FB00BF03B05DF804FB7845FF3FBB
:10644000DC5AFF3F00B585B003900291039B012BFE
:1064500012D1029B4FF6FF7293420DD14FF0FF33E2
:106460000093202304220821054802F0A9FA054AD6
:106470000549034816F0E1FA00BF05B05DF804FBDA
:10648000DC5AFF3F0040FF3FD98C100008B54FF6A3
:10649000FF710120FFF7D6FF08BD00BF00B583B034
:1064A0000190019B34331349184602F0ADFA019B69
:1064B00003F1340000230222002102F059FB019B6A
:1064C00003F1340000230322002102F051FB019864
:1064D00000F0D2F9019800F013FA019800F092F858
:1064E00001220121019800F057F800BF03B05DF8C8
:1064F00004FB00BF40420F0000B583B001900121B2
:10650000019800F0E9F800BF03B05DF804FB00BF9C
:1065100000B583B0019000910198FFF7EDFF0123D2
:1065200001220099019800F005F800BF03B05DF862
:1065300004FB00BF00B589B0039002910192009363
:1065400000230693029B0793029B002B02D14FF07E
:10655000FF331CE0009A0199039800F01DF80590A4
:10656000059B002B02D04FF0FF3310E0079B1B78F8
:10657000002B06D0069B01330693079B013307933C
:10658000F4E7069A0299039800F0DCF80023184615
:1065900009B05DF804FB00BF00B587B0039002911D
:1065A000019200238DF817300DF11603019A02991C
:1065B000039800F061F8034683F00103DBB2002B7F
:1065C00002D04FF0FF3319E0039B029ADA62039B7B
:1065D000019A1A639DF816209DF8173013438DF821
:1065E00017309DF8173063F07F038DF817309DF852
:1065F00017301946039800F06FF80023184607B0CB
:106600005DF804FB00B583B001903021019800F0E3
:1066100063F8022013F08EFD3021019800F05CF841
:106620003021019800F058F83921019800F054F811
:106630001421019800F050F85621019800F04CF810
:106640006D21019800F048F87021019800F044F89D
:106650000C21019800F040F80621019800F03CF868
:106660000121019800F038F80A2013F063FD00BF03
:1066700003B05DF804FB00BF86B003900291019265
:10668000009301238DF81730029B002B08DD029B3D
:10669000022B05DC019B002B02DD019B102B01DD91
:1066A000002315E0029B012B02D0022B07D00DE046
:1066B000019BDBB2013BDAB2009B1A7006E0019B42
:1066C000DBB23F33DAB2009B1A7000BF9DF817307F
:1066D000184606B0704700BF00B583B001900B4666
:1066E0008DF803304FF0FF31154811F077FA01981B
:1066F00000F006F9019800F09BF80021019800F0E5
:10670000D1F8019B9DF803201146184615F030FF83
:10671000019800F0B1F89DF80330012B05D1019BE1
:106720000122DA62019B01221A63019800F0FCF851
:10673000034811F063FA00BF03B05DF804FB00BF2B
:106740007845FF3F00B587B0039002910192019B0D
:10675000002B02DD029B002B02D14FF0FF3361E0E2
:106760004FF0FF31314811F039FA039800F0C8F8C2
:10677000039800F05DF80121039800F093F80023DE
:106780000593059A019B9A4242DA059B029A1344AB
:106790001B788DF81330039B1B6B102B03DC9DF8CB
:1067A00013300A2B20D1039B01221A63039BDB6A5F
:1067B0005A1C039BDA62039BDB6A022B02DD039BFC
:1067C0000122DA62039BD96A039B1B6B1A4603986A
:1067D000FFF7E2FE039800F093F80121039800F020
:1067E00061F8039800F024F89DF813300A2B0BD0C1
:1067F000039B9DF813201146184615F0B9FE039B24
:106800001B6B5A1C039B1A63059B01330593B8E766
:10681000039800F031F8039800F086F8034811F06F
:10682000EDF90023184607B05DF804FB7845FF3FFB
:1068300000B583B00190019B03F1340001230222D3
:10684000002102F02DF9142013F084FC012013F034
:1068500081FC019B03F1340000230222002102F09D
:106860001FF9142013F076FC012013F073FC00BF15
:1068700003B05DF804FB00BF00B583B001900120B8
:1068800013F068FC019B03F1340001230222002174
:1068900002F006F9142013F05DFC00BF03B05DF8B0
:1068A00004FB00BF00B583B001900B468DF80330A8
:1068B0004FF4FA7013F04EFC9DF80330002B0AD011
:1068C000012B11D1019B03F134000123032200218C
:1068D00002F0E6F808E0019B03F1340000230322F4
:1068E000002102F0DDF800BF142013F033FC4FF458
:1068F000FA7013F02FFC00BF03B05DF804FB00BF7B
:1069000000B583B00190019B00220821184615F0C4
:10691000E1FD019B0349184615F0F4FD00BF03B0EB
:106920005DF804FB20A1070000B587B001900823A3
:10693000059300230493084B0393019B049A059944
:10694000184615F0C7FD019B0399184615F0DAFDAE
:1069500000BF07B05DF804FB40420F0000B585B0F2
:1069600003900B460192ADF80A30BDF80A100623D9
:10697000019A039800F0B2FB00BF05B05DF804FB7C
:1069800000B583B00190019B184600F045FB019BC8
:10699000002283F8D820019B184603B05DF804FB61
:1069A00000B585B001900091019B01221A76009BF1
:1069B000002B02D14FF0FF3322E0019800F05EF986
:1069C000034683F00103DBB2002B02D06FF001031A
:1069D00016E000230393039B052B0CDC039B009A1A
:1069E00013441978019A039B13440A461A70039BB7
:1069F00001330393EFE7019B184600F0F7FB0023F8
:106A0000184605B05DF804FB00B585B00190019B08
:106A10001B7E002B0AD043F69821019800F0C2F8A3
:106A20000390039B002B01DA039B0DE0019B1846AA
:106A300000F0CAFB034683F00103DBB2002B02D057
:106A40004FF0FF3300E00023184605B05DF804FB6B
:106A500010B588B00590059B0F21184600F05CF931
:106A60000790059B03F18800079B1C0E079B1B0CDE
:106A7000DBB2079A120AD2B20799C9B20291019207
:106A800000932346044A142119F0ACFE059B883379
:106A9000184608B010BD00BF0457120010B588B0EA
:106AA0000590059B0521184600F036F90790059BD7
:106AB00003F19C00079B1C0E079B1B0CDBB2079A83
:106AC000120AD2B20799C9B20291019200932346E9
:106AD000044A142119F086FE059B9C33184608B021
:106AE00010BD00BF0457120010B588B00590059B7B
:106AF0000121184600F010F90790059B03F1B00042
:106B0000079B1C0E079B1B0CDBB2079A120AD2B222
:106B10000799C9B20291019200932346044A1421B5
:106B200019F060FE059BB033184608B010BD00BFD9
:106B30000457120070B58AB00790079B08AA092174
:106B40001846FFF70BFF079B03F1C4009DF82030A8
:106B50001E469DF821309DF822209DF823109DF8B7
:106B600024409DF8255004950394029101920093CE
:106B70003346044A142119F035FE079BC4331846E6
:106B80000AB070BD1057120000B583B00190019B90
:106B90002033184601F0CEFC019B184603B05DF887
:106BA00004FB00BF10B5ADF5307D01AB18606B463E
:106BB000196003AB184601F0DDF86B4603AA1968AB
:106BC000104601F011F8AF90AF9BB3F1FF3F02D137
:106BD0004FF0FF3448E003AB9B791A0603ABDB7937
:106BE0001B041A4303AB1B7A1B02134303AA527AFA
:106BF00013431A4601AB1B689A6003AB9B7B1A06D2
:106C000003ABDB7B1B041A4303AB1B7C1B0213434C
:106C100003AA527C13431A4601AB1B681A6103ABEB
:106C20009B7C1A0603ABDB7C1B041A4303AB1B7D66
:106C30001B02134303AA527D13431A4601AB1B6880
:106C4000DA6003AB9B7A1A0603ABDB7A1B041A43A8
:106C500003AB1B7B1B02134303AA527B13431A464D
:106C600001AB1B685A61002403AB1846FFF78CFF89
:106C7000234618460DF5307D10BD00BF00B585B028
:106C8000019001238DF80F30019B4FF4806118466D
:106C900000F07CF803468DF80E309DF80E3003F0BE
:106CA0002003002B0BD001989DF80E3023F0200319
:106CB000DBB21A464FF4806100F0A2F80AE00198B6
:106CC0009DF80E3043F02003DBB21A464FF480618A
:106CD00000F096F8019B4FF48061184600F056F8DA
:106CE00003468DF80D309DF80D209DF80E309A4228
:106CF00003D100238DF80F3007E0019B9DF80E2093
:106D00004FF48061184600F07BF89DF80F3018466C
:106D100005B05DF804FB00BF00B587B001900B46DD
:106D2000ADF80230042303AABDF80210019800F068
:106D3000D5F9002305930222059B9A4220D903AA84
:106D4000059B13441B788DF81330059BC3F1040396
:106D5000013B06AA134413F80C1C03AA059B134419
:106D60000A461A70059BC3F10403013B06AA1344AB
:106D70009DF8132003F80C2C059B01330593DAE7EB
:106D800003AB1B68184607B05DF804FB00B585B07F
:106D900001900B46ADF80230012302AABDF80210A3
:106DA000019800F09BF9002303930022039B9A4271
:106DB00020D902AA039B13441B788DF80B30039B48
:106DC000C3F10103013B04AA134413F8081C02AAEF
:106DD000039B13440A461A70039BC3F10103013B52
:106DE00004AA13449DF80B2003F8082C039B0133DD
:106DF0000393DAE79DF80830184605B05DF804FB08
:106E000000B585B001900B46ADF8023013468DF801
:106E100001309DF801308DF80830002303930022E3
:106E2000039B9A4220D902AA039B13441B788DF836
:106E30000B30039BC3F10103013B04AA134413F875
:106E4000081C02AA039B13440A461A70039BC3F151
:106E50000103013B04AA13449DF80B2003F8082CFE
:106E6000039B01330393DAE7012302AABDF8021062
:106E7000019800F0FFF800BF05B05DF804FB00BF0B
:106E800070B5044604260025204616F0EBFF2E219F
:106E90000543204619F07CFD28B1013E4FEA052547
:106EA00000F10104F0D1284670BD000070B5044621
:106EB000002500F12406072380F8215080F82030B7
:106EC00080F8235080F822500A49304601F09CFD9A
:106ED0002B4694F9202094F82110304601F048FE0A
:106EE0002B4694F9222094F823103046BDE87040D8
:106EF00001F03EBE40420F0082B000230193019199
:106F0000019B23B100BF019B013B0193F8E702B055
:106F1000704700002DE9F8431C4C0546884627467B
:106F200000264FF0120996422DD2C4F80890142181
:106F30002846FFF7E1FF18F80630132B0AD110237B
:106F40001121A360A360A360A160A360A360A160FE
:106F5000A16001E00136A3600A212846FFF7CCFFBB
:106F60001623A36005212846FFF7C6FF3B68D90614
:106F7000FCD405212846FFF7BFFF3B685B07D2D54D
:106F80000220BDE8F8830020BDE8F88300700040CF
:106F900013B590F8202090F82210012303FA02F292
:106FA0008B4023EA020338228DF8042002228DF858
:106FB00005208DF8063072B6054C1523A360032218
:106FC00001A9FFF7A7FF1423A36062B602B010BDAA
:106FD0000070004013B590F8222090F82010012393
:106FE00003FA02F28B40134338228DF80420022268
:106FF0008DF805208DF8063072B6064C1523A36077
:10700000032201A9FFF786FF1423A36062B602B032
:1070100010BD00BF0070004073B54FF0FF3604464E
:107020003823042208210096243001F0C9FC1420E2
:1070300015F0F2FC0546102300964022202115F0A1
:1070400011FA00222846E561082115F043FA0749A4
:10705000E06915F057FA2046FFF728FF2046FFF7B2
:10706000B9FF2046024B1C6002B070BD40420F00C9
:10707000405BFF3F2DE9F8430446884616484FF031
:10708000FF311746994610F0A9FD002508EB0506CB
:107090004D45B6B21BDA2046FFF77AFFE069F021D2
:1070A00003681B689847E069310A03681B689847C2
:1070B000E069F1B203681B689847E069795D03688D
:1070C00001351B6898472046FFF784FFDEE702483A
:1070D000BDE8F84310F092BD7845FF3F2DE9F84335
:1070E0000446884617484FF0FF311746994610F07E
:1070F00075FD002508EB05064D45B6B21CDA2046A5
:10710000FFF746FFE0690F2103681B689847E069B5
:10711000310A03681B689847E069F1B203681B688D
:107120009847E069002103681B6898477855204616
:10713000FFF750FF0135DDE70248BDE8F84310F0E6
:107140005DBD00BF7845FF3F37B5054600242102ED
:1071500001F20341012301AA89B22846FFF7BEFFCD
:107160009DF804302BB10134042CF0D14FF0FF30E6
:1071700000E0204603B030BD07B5090201F203412B
:10718000012301AA89B2FFF7A9FF9DF80400A0F12D
:1071900017035842584103B05DF804FB07B5130EBE
:1071A0008DF80430C2F307238DF807208DF80630E0
:1071B000C2F3074204238DF805200DEB0302FFF70D
:1071C00059FF03B05DF804FB10B5044682680F2137
:1071D000FFF7E4FF226920460121FFF7DFFF204689
:1071E000E2680521FFF7DAFF012010BD70B5044603
:1071F00000F1240590F9222090F82310002328465E
:1072000001F04EFC642012F0A5FF022012F0A2FF54
:10721000012394F9222094F82310284601F040FC21
:10722000642012F097FF962012F084FF20468022FF
:107230000021FFF7E5FD22462046BDE87040062309
:107240000921FFF717BF37B5090201F20144A4B2C3
:1072500021460546FFF7D4FD012301AA2146284611
:10726000FFF73CFF9DF80430002BF5D103B030BD93
:10727000002908B508DB090201F5806101F47F41AE
:10728000FFF7BEFD012008BD002008BD73B50E1E2E
:1072900005461CDB34021048A4B2FCF7BBFA04F22A
:1072A0000341012301AA89B22846FFF717FF9DF881
:1072B000043073B1314628461022FFF7C4FF04F2B0
:1072C000024189B2FF222846FFF79AFD01E0002023
:1072D00000E0012002B070BD3B57120007B502EB81
:1072E0000121022301AA89B2FFF7F8FE9DF80430BC
:1072F0009DF805208DF805308DF80420BDF80400B8
:1073000003B05DF804FB00002DE9F0430F1E85B0CB
:1073100006461546994640DB684615F047FA68462A
:1073200015F0D6FA684615F05BFA29461D48FCF7B9
:1073300071FA40F2264239463046FFF7CFFF40F25D
:10734000264239463046FFF7C9FF804648B140F231
:10735000264239463046FFF7C1FF80450446EED14C
:1073600000E00446A1450BDA684615F04FFA68467E
:1073700015F0AEFA0C482146FCF74CFA20460EE018
:107380006B1CD6D0684615F079FA8542D1DA68468A
:1073900015F03CFA684615F09BFA4FF0FF3005B047
:1073A000BDE8F083545712005C5712002DE9FF41ED
:1073B0000F1E0646154698462EDB684615F0F6F970
:1073C000684615F085FA684615F00AFA4FF48462AB
:1073D00039463046FFF782FF4FF48462044639464F
:1073E0003046FFF77BFF8442F0D1444507DD684615
:1073F00015F00CFA684615F06BFA20460EE06B1C8F
:10740000E4D0684615F03AFA8542DFDA684615F0AE
:10741000FDF9684615F05CFA4FF0FF3004B0BDE8A6
:10742000F08107B5130A8DF804308DF8052002238A
:1074300001AAFFF71FFE03B05DF804FB2DE9F84F2A
:10744000B1F1000A064693461C4638DB40F224425E
:10745000FFF744FF0AF10805ED02ADB2C0F30A01DF
:10746000294489B205F500670B19BB4280460EDD41
:107470007F1A1FFA87F94B465A463046FFF7FAFD46
:10748000C9EB04039BB20BEB0702294601E05A4605
:10749000A3B23046FFF7EEFD4FEA0A2108EB0402E3
:1074A00001F22441304689B292B2FFF7BAFF30466A
:1074B00020225146FFF7C7FE2046BDE8F88F4FF067
:1074C000FF30BDE8F88F2DE9F84FB1F1000A06460C
:1074D00093463EDBB3F5806FA8BF4FF480634FF453
:1074E00085621C46FFF7FAFE0AF10C05ED02ADB20B
:1074F000C0F30A01294489B205F500670B19BB42A4
:1075000080460EDD7F1A1FFA87F94B465A463046F1
:10751000FFF7E4FDC9EB04039BB20BEB070229461E
:1075200001E05A46A3B23046FFF7D8FD4FEA0A21E0
:1075300008EB040201F58561304689B292B2FFF78B
:1075400070FF304640225146FFF77DFE2046BDE8E1
:10755000F88F4FF0FF30BDE8F88F00002DE9F04FB5
:10756000B1F1000885B0064617469A460E9D6ADBC3
:107570004FEA0824A4B204F58061012201F47F419E
:10758000FFF73EFC012241463046FFF75CFE04F265
:107590000C4B1FFA8BFB4FF00009384616F062FCCB
:1075A0002E210DF80900384619F0F2F930B109F131
:1075B0000109B9F1040F00F10107EED104236A4675
:1075C00059463046FFF756FD04F5826189B21FFA2D
:1075D0008AF23046FFF725FF18F0C8FF6FEA8042B5
:1075E0006FEA924204F2044189B292B23046FFF748
:1075F00018FF042241463046FFF725FE684615F085
:10760000D5F8684615F064F9684615F0E9F8414682
:107610003046FFF7B1FD0446684654B915F02EF91F
:10762000A842F4DD684615F0F1F8684615F050F907
:107630000AE015F0EBF8684615F04AF941460448AF
:10764000FCF7E8F800E00024204605B0BDE8F08F24
:107650006457120070B5084690B00D461646FFF705
:107660000FFC0446A8B1C3B20293C0F307230193F1
:10767000C0F3074300931121030E0F4A05A819F028
:10768000B1F8294605A819F091F910B93460012420
:107690000EE0002105A800F0CFFC294605A800F067
:1076A00019FF044608B1069B336005A800F0E2FC10
:1076B000204610B070BD00BF7F571200014B1B6801
:1076C00018467047405BFF3F10B588B00190019BA2
:1076D0000022C3F8A8222B4A06AB106818600422C7
:1076E00006AB1946019800F01BFA0020FCF730FAAF
:1076F000044618F03BFF034623440793079B1B0EE9
:10770000DAB2019B83F83420079B1B0CDAB2019B91
:1077100083F83520079B1B0ADAB2019B83F83620D9
:10772000079BDAB2019B83F83720019B3433042294
:107730001946019800F0F4F900221421019800F094
:107740000BFA019B06221946019800F0E9F9002284
:10775000CA21019800F000FA0B4A02AB14462068D7
:107760006168A26807C3A2891A800E2202AB19467B
:10777000019800F0D5F9019BD3F8A832184608B05B
:1077800010BD00BF8C5712009057120010B588B082
:107790000190019B0022C3F8A8222B4A07AB106876
:1077A0001860042207AB1946019800F0B9F9019B53
:1077B000343304221946019800F0B2F900220C215A
:1077C000019800F0C9F9019B16330422194601986B
:1077D00000F0A6F900220421019800F0BDF9019BF8
:1077E00006221946019800F09BF90022CA2101984F
:1077F00000F0B2F9154A03AB144620686168A2682C
:1078000007C3227B1A700D2203AB1946019800F0C2
:1078100087F9019B9A1D04233221019800F0B8F9E1
:10782000019B03F1160204233621019800F0B0F900
:1078300000230022FF21019800F0AAF9019BD3F850
:10784000A832184608B010BD8C571200A05712007D
:1078500000B589B0039002910192039B981D029B91
:1078600010330422194617F0E8F8039B03F11600C1
:10787000029B14330422194617F0DFF84FF0FF3350
:107880000693029BF0330793079B1B78FF2B00F0B6
:10789000B880019B029A1A44079B9A4240F2B18039
:1078A000079B5A1C07921B788DF817309DF81730EC
:1078B000002B00F0A480079B5A1C07921B780493AE
:1078C0009DF81730013B352B00F2948001A252F84D
:1078D00023F000BFB5791000F5791000C5791000CC
:1078E000F5791000F5791000D5791000F5791000C0
:1078F000F5791000F5791000F5791000F579100090
:10790000F5791000F5791000F5791000F57910007F
:10791000F5791000F5791000F5791000F57910006F
:10792000F5791000F5791000F5791000F57910005F
:10793000F5791000F5791000F5791000F57910004F
:10794000F5791000F5791000F5791000F57910003F
:10795000F5791000F5791000F5791000F57910002F
:10796000F5791000F5791000F5791000F57910001F
:10797000F5791000F5791000F5791000F57910000F
:10798000F5791000F5791000F5791000F5791000FF
:10799000F5791000F5791000F5791000F5791000EF
:1079A000F5791000AD791000E5791000079B1B7880
:1079B00006931FE0039B123304220799184617F021
:1079C0003CF817E0039B0E3304220799184617F082
:1079D00034F80FE0039B0A3304220799184617F086
:1079E0002CF807E0039B163304220799184617F07A
:1079F00024F800BF049B079A1344079344E700BF91
:107A000042E7069B184609B05DF804FB00B585B057
:107A1000039002910192019BEF2B01DC002313E004
:107A2000029B1B78022B01D000230DE0029B181D46
:107A3000039B34330422194616F0F0FF0346002B53
:107A400001D0002300E00123184605B05DF804FBD7
:107A500010B58AB0019002AB184600F05FFD019BA3
:107A6000D869019B03F150024FF4167302A900F08C
:107A7000E5FE0990099B002B01DA002431E0019B0F
:107A80005033099A19460198FFF7C0FF034683F067
:107A90000103DBB2002B01D0002422E0019B503314
:107AA000099A19460198FFF7D3FE0890089B022B0C
:107AB0000FD10198FFF76AFE0790019BD869019BDF
:107AC00003F12001019B03F15002079B00F022FF0C
:107AD00006E0089B052B03D1019B012283F8382087
