:020000040010EA
:1020000000D8FF3F994D1200D54D1200D74D120058
:10201000D94D1200DB4D1200DD4D12000000000012
:10202000000000000000000000000000391B12004A
:10203000E14D120000000000A31B1200D91B12008A
:102040006D391200D93A1200E74D12000134120026
:10205000E74D1200E74D120005261200E74D120071
:10206000E74D1200E74D1200E74D1200E74D120058
:10207000E74D1200E74D1200E74D1200E74D120048
:10208000E74D1200E74D1200E74D1200E74D120038
:1020900000D8FF3F994D1200D54D1200D74D1200C8
:1020A000D94D1200DB4D1200DD4D12000000000082
:1020B000000000000000000000000000391B1200BA
:1020C000E14D120000000000A31B1200D91B1200FA
:1020D0006D391200D93A1200E74D12000134120096
:1020E000E74D1200E74D120005261200E74D1200E1
:1020F000E74D1200E74D1200E74D1200E74D1200C8
:10210000E74D1200E74D1200E74D1200E74D1200B7
:10211000E74D1200E74D1200E74D1200E74D1200A7
:1021200010B5054C237833B9044B13B10448AFF311
:1021300000800123237010BD5443FF3F00000000C6
:102140007C061300084B10B51BB108490848AFF3D3
:1021500000800848036803B910BD074B002BFBD073
:10216000BDE81040184700BF000000005843FF3F83
:102170007C0613005443FF3F0000000000B583B00D
:102180000190019801F0B2FF0346184603B05DF8D4
:1021900004FB00BF00B583B001F028FE01900123CD
:1021A000184603B05DF804FB00B585B001901848EF
:1021B00002F01CFBFFF7EEFF0346002B21D001F0DD
:1021C00015FE0390039B03F58073184609F022FF68
:1021D0000346002B15D0039B03F580731B78002B5F
:1021E0000FD0039B03F5807319460A4802F0FEFAEC
:1021F000039B03F580731946019809F099FA0023AF
:1022000001E04FF0FF33184605B05DF804FB00BF56
:1022100070CE120088CE120000B5ADF5057D01AB81
:102220001860134802F0E2FA01F0E0FD014603AB4A
:102230004FF40072184624F056FE01AB1B681A6971
:1022400003AB03F580731146184626F0ADFC03ABD3
:102250004FF40071184601F0D3FD8390839905482F
:1022600002F0C4FA00BF0DF5057D5DF804FB00BF68
:10227000A0CE1200B4CE120000B585B001901E4869
:1022800002F0B4FAFFF786FF0346002B2DD001F0D1
:10229000ADFD0390039B002B05D1184802F0A6FA70
:1022A0004FF0FF3323E0039B03F5A073184609F0BA
:1022B000B1FE0346002B05D0039B03F5A0731B78EA
:1022C000002B02D14FF0FF3311E0039B03F5A07305
:1022D00019460B4802F08AFA039B03F5A0731946CE
:1022E000019808F067FE002301E04FF0FF33184625
:1022F00005B05DF804FB00BFC4CE1200D8CE1200BA
:10230000ECCE120000B5ADF5037D01AB186001F015
:102310006DFD014602AB4FF40072184624F0E3FD58
:1023200001AB1B68DA6802AB03F5A07311461846CF
:1023300026F03AFC02AB4FF40071184601F060FD44
:1023400000BF0DF5037D5DF804FB00BF00B585B04F
:1023500001900023039303AB1946019801F016FF87
:102360000346002B01DA00231DE0039B104A136093
:10237000104B0F4A1A600F4B00225A600E4A019B05
:1023800013600D4B0D4A5A600B4B02229A600A4BA8
:102390000422DA60084B074A1A61074B1B691B6865
:1023A000054A5361044B184605B05DF804FB00BFB5
:1023B0007043FF3F7443FF3F7C43FF3F9443FF3F25
:1023C00000B585B0039002910192019A0299039899
:1023D00001F0F4FE0346184605B05DF804FB00BFAB
:1023E00000B583B00190019801F05AFF00BF03B01F
:1023F0005DF804FB00B585B0039002910192009353
:10240000019A0299039801F07DFF0346184605B032
:102410005DF804FB00B587B0059004910392029328
:10242000099B0093089B039A0499059801F0C2FF49
:102430000346184607B05DF804FB00BF00B585B041
:102440000390029101920093019A0299039801F07E
:1024500085FF0346184605B05DF804FB00B587B05C
:102460000590049103920293099B0093089B039AA1
:102470000499059801F0F0FF0346184607B05DF88F
:1024800004FB00BF00B585B0039002910192019A50
:102490000299039802F042F80346184605B05DF829
:1024A00004FB00BF00B587B005900491039202932E
:1024B000089B0093029B039A0499059802F06EF81A
:1024C0000346184607B05DF804FB00BF10B586B0A0
:1024D000019000910BF04CFC0590009B0493019B34
:1024E000DB6818460BF01AFC03461A46204905988B
:1024F0000BF0A0FC049B1B68184623F015F803465C
:102500000C46184621460BF019FC03461A46194999
:1025100005980BF08FFC049B5B68184623F016F8B7
:1025200003460C46184621460BF008FC03461A46A3
:10253000114905980BF07EFC049B9B68184622F01D
:10254000F3FF03460C46184621460BF0F7FB034603
:102550001A460A4905980BF06DFC05980BF0F6FA3F
:10256000039005980BF01EFB039B184606B010BDA8
:1025700018CF120024CF12002CCF120034CF12003B
:1025800000B583B00190074A019B1A600023002B1D
:1025900002D0019822F02FFC019B184603B05DF891
:1025A00004FB00BFB0D2120000B583B001900198C7
:1025B000FFF7E6FF019822F01EFC019B184603B0CE
:1025C0005DF804FB00B583B00190074A019B1A60D7
:1025D0000023002B02D0019822F00DFC019B18462D
:1025E00003B05DF804FB00BFFCFC120000B583B033
:1025F00001900198FFF7E6FF019822F0FCFB019B98
:10260000184603B05DF804FB00B583B00190019B50
:102610001433184608F0AEFB019B1846FFF7D2FFB3
:10262000019B184603B05DF804FB00BF10B582B0F3
:102630000190094A019B1A60019B1C1D0021204644
:1026400003F0A8FB04F184030121184603F0A2FB68
:10265000019B184602B010BDA0D2120000B585B093
:1026600001900B468DF803309DF8032013465B0163
:1026700013449B00019A13440433184603F00AFCE8
:102680000390039B002B06D00399244802F0AEF878
:102690004FF0FF333DE0224802F0A8F89DF80320F8
:1026A00013465B0113449B00019A134404331846FC
:1026B00003F07CFF03460393039B012B03D11948CE
:1026C00002F094F802E0184802F090F89DF8032018
:1026D00013465B0113449B00019A13440433092100
:1026E000184603F07BFC0390039B002B06D0039954
:1026F0000E4802F07BF84FF0FF330AE00C4802F07E
:1027000075F89DF8033003221946019800F062F82D
:102710000346184605B05DF804FB00BF3CCF12002D
:1027200084CF1200C0CF120008D0120028D01200AF
:1027300084D0120010B582B00190134A019B1A6038
:102740000021019800F030F80121019800F02CF8E8
:10275000019B0433002B0CD0019B043303F58474DC
:10276000019B04339C4204D0843C2046FFF74CFF7D
:10277000F6E70023002B02D0019822F03CFB019BDE
:10278000184602B010BD00BFA0D2120000B583B041
:1027900001900198FFF7CEFF019822F02CFB019BDE
:1027A000184603B05DF804FB00B583B001900B46FA
:1027B0008DF803309DF8032013465B0113449B0002
:1027C000019A13440433184603F0AAFD00BF03B076
:1027D0005DF804FB00B585B001900B468DF8033021
:1027E00013468DF802309DF8032013465B01134415
:1027F0009B00019A134404339DF8022011461846A9
:1028000003F026FC0390039B002B06D00399074896
:1028100001F0ECFF4FF0FF3303E0054801F0E6FF65
:102820000023184605B05DF804FB00BFD4D01200A9
:1028300024D1120010B586B003900B4601928DF89A
:102840000B309DF80B2013465B0113449B00039A49
:1028500013441C1D019823F0B9FA0346194620467B
:1028600003F0F6FC0590059B002B07D0059A019913
:10287000064801F0BBFF4FF0FF3304E00199044824
:1028800001F0B4FF0023184606B010BDECD11200D1
:1028900030D2120010B582B00190054C054B9C421D
:1028A00004D0183C204622F0FAFAF7E702B010BD37
:1028B0003045FF3FB043FF3FF0B589B00390029130
:1028C000039B012B40F08D80029B4FF6FF729342D9
:1028D00040F0878004AB184622F0A2FA04AB1A46F7
:1028E0004149424822F006FB04AB184622F099FA0F
:1028F0003F4A40493D4822F079FA3F4B07241E46A3
:10290000B4F1FF3F0ED0334601251F46B5F1FF3F1E
:1029100005D0384622F0BCFA1837013DF6E73036CC
:10292000013CEDE7324A3549002022F05FFA05AB61
:10293000184622F075FA05AB1A462B49304822F0AA
:10294000D9FA05AB184622F06CFA294A29492C48D5
:1029500022F04CFA06AB184622F062FA06AB1A4691
:102960002149284822F0C6FA06AB184622F059FA47
:102970001F4A2049234822F039FA07AB184622F0B3
:102980004FFA07AB1A4618491F4822F0B3FA07ABB3
:10299000184622F046FA164A16491B4822F026FA33
:1029A0004FF0FF330093102340222021174821F0DD
:1029B00025FF0F4A1649154822F018FA0023022273
:1029C0000121144821F064FE094A1349114822F0FC
:1029D0000DFA12481CF030FE054A11490F4822F04A
:1029E00005FA00BF09B0F0BD94D212009843FF3F32
:1029F0000040FF3F9F4E1200B043FF3F952810005C
:102A00003045FF3F4845FF3F6045FF3F7C45FF3F66
:102A1000C52510009045FF3F252A1000E845FF3FDF
:102A2000C1F6110000B583B001900E4A019B1A60F7
:102A30000D4A019B1A640D4A019B5A64019B403365
:102A4000184621F0A5FF019B1846FFF799FD0023CA
:102A5000002B02D0019822F0CEF9019B184603B05A
:102A60005DF804FBA0FC1200B8FC1200ECFC1200A4
:102A7000A0F14000D6E700BFA0F14400D2E700BFBC
:102A800000B583B001900198FFF7CCFF019822F0C8
:102A9000B2F9019B184603B05DF804FBA0F14000B9
:102AA000EEE700BFA0F14400EAE700BF08B54FF62B
:102AB000FF710120FFF700FF08BD00BF00B583B024
:102AC0000190019B184622F0FDF8074A019B1A600D
:102AD000019B18330021184600F00AF9019B1846A3
:102AE00003B05DF804FB00BF5CFD120000B583B0CD
:102AF00001900A4A019B1A60019821F0FBFF019B9B
:102B0000184622F013F90023002B02D0019822F07E
:102B100072F9019B184603B05DF804FB5CFD1200DE
:102B200000B583B001900198FFF7E0FF019822F013
:102B300062F9019B184603B05DF804FB00B585B04F
:102B4000039003984FF0FF3300931023402220217D
:102B500021F054FE039B14331846FFF7AFFF039B8D
:102B600044331846FFF7AAFF039B184605B05DF8EB
:102B700004FB00BF00B583B000238DF80730174871
:102B800001F034FE0DF107031946154804F06CFA04
:102B90009DF807301946134801F028FE00238DF8F0
:102BA00007300DF1070319460D4804F06BFA9DF844
:102BB000073019460C4801F019FE00238DF8073044
:102BC000074804F02FFC14201FF07CFB044804F09D
:102BD00019FC00BF03B05DF804FB00BFB8D21200BF
:102BE000FC45FF3FD4D21200E4D2120082B0019023
:102BF000034A019B1A60019B184602B0704700BF50
:102C000024D3120000B583B00190074A019B1A60DB
:102C10000023002B02D0019822F0EDF8019B18460A
:102C200003B05DF804FB00BF24D3120000B583B0ED
:102C300001900198FFF7E6FF019822F0DCF8019B74
:102C4000184603B05DF804FB00B583B001900D4950
:102C50000D4804F0C3FD0346002B14BF01230023DD
:102C6000DBB2002B05D0094801F0C0FD4FF0FF3367
:102C700003E0054804F0DAFC0023184603B05DF8D1
:102C800004FB00BF752B1000FC45FF3FF4D212007F
:102C900000B585B00190009101210C4804F0D2FBF1
:102CA000009B1946094804F065FC084804F0AAFB9B
:102CB000064804F0D5FC034603930399044801F049
:102CC00095FD0023184605B05DF804FBFC45FF3F69
:102CD0000CD3120000B583B00190044804F0A2FBAD
:102CE0000023184603B05DF804FB00BFFC45FF3F1E
:102CF00000B583B0019000910099019800F006F8AA
:102D0000019B184603B05DF804FB00BF82B0019040
:102D10000091019B009A1A60019B00225A6100BF3A
:102D200002B0704710B582B00190054C054B9C4233
:102D300004D0183C204622F0B2F8F7E702B010BDEC
:102D40003045FF3FB043FF3F00B583B00190019B8A
:102D500044331846FFF7CAFE019B14331846FFF7A9
:102D6000C5FE019B1846FFF72DFC019B184603B0DA
:102D70005DF804FBF0B589B003900291039B012B31
:102D800040F09580029B4FF6FF72934240F08F8097
:102D900004AB184622F044F804AB1A4645494648AD
:102DA00022F0A8F804AB184622F03BF8434A444905
:102DB000414822F01BF8434B07241E46B4F1FF3F65
:102DC0000ED0334601251F46B5F1FF3F05D03846EA
:102DD00022F05EF81837013DF6E73036013CEDE7AA
:102DE000364A3949002022F001F805AB184622F096
:102DF00017F805AB1A462F49344822F07BF805AB8B
:102E0000184622F00EF82D4A2D49304821F0EEFFE9
:102E100006AB184622F004F806AB1A4625492C48A2
:102E200022F068F806AB184621F0FBFF234A24493C
:102E3000274821F0DBFF07AB184621F0F1FF07AB75
:102E40001A461C49234822F055F807AB184621F0D2
:102E5000E8FF1A4A1A491F4821F0C8FF4FF0FF3314
:102E600000931023402220211B4821F0C7FC134A65
:102E70001A49194821F0BAFF0023022201211848FB
:102E800021F006FC0D4A1749154821F0AFFF1648FE
:102E90001CF0D2FB094A1549134821F0A7FF14483A
:102EA000FFF74CFE054A1349114821F09FFF00BF70
:102EB00009B0F0BD18D312009843FF3F0040FF3F18
:102EC0009F4E1200B043FF3F252D10003045FF3FBD
:102ED0004845FF3F6045FF3F7C45FF3FC52510004B
:102EE0009045FF3F252A1000E845FF3FC1F611003D
:102EF000FC45FF3F492D100008B54FF6FF7101203A
:102F0000FFF738FF08BD00BF00B585B003900398F8
:102F10004FF0FF33009310234022202121F06EFC5C
:102F2000039B03F114004FF0FF3300932A23042284
:102F3000082107F06FFD039B184605B05DF804FB00
:102F400000B583B00190019B1433184607F012FFBF
:102F5000019B1846FFF736FB019B184603B05DF84E
:102F600004FB00BF00B583B00190064A019B1A60C4
:102F7000019B04331846FFF7C7FF019B184603B0B7
:102F80005DF804FBACD8120000B583B001900D4A87
:102F9000019B1A600121019800F0CEF802210198EE
:102FA00000F0CAF8019B04331846FFF7C9FF00235D
:102FB000002B02D0019821F01EFF019B184603B0A0
:102FC0005DF804FBACD8120000B583B00190019805
:102FD000FFF7DAFF019821F00EFF019B184603B0BE
:102FE0005DF804FB00B585B00190019B002283F8D9
:102FF0007C20019B0433184601F024FE0390039BC0
:10300000002B06D003991B4801F0F0FB4FF0FF3373
:103010002CE0194801F0EAFB019B0433174A1849D8
:10302000184601F0A5FF0390039B002B06D00399DF
:10303000144801F0DBFB4FF0FF3317E0124801F0BA
:10304000D5FB019B04330121184601F097FE039044
:10305000039B002B06D003990C4801F0C7FB4FF0EF
:10306000FF3303E00A4801F0C1FB0023184605B016
:103070005DF804FB2CD3120060D312000000C040A6
:103080000000344288D31200C8D31200FCD31200CF
:1030900050D4120000B585B001900B468DF8033076
:1030A000019B04339DF803201146184602F000FBF3
:1030B0000390039B002B06D003991B4801F096FB5D
:1030C0004FF0FF332CE0194801F090FB019B93F87F
:1030D0007C30002B12D1019B0433184602F08CF88F
:1030E0000390039B002B06D00399114801F07EFB4F
:1030F0004FF0FF3314E00F4801F078FB019B93F889
:103100007C305AB29DF80330012B01D1012300E03D
:10311000022313435BB2DAB2019B83F87C200023C5
:10312000184605B05DF804FB48D6120090D6120090
:10313000CCD6120004D7120000B585B001900B4622
:103140008DF80330019B04339DF803201146184687
:1031500002F01CFB0390039B002B06D003991C4834
:1031600001F044FB4FF0FF332EE01A4801F03EFB24
:10317000019B93F87C305AB29DF80330012B02D1A9
:103180006FF0010301E06FF0020313405BB2DAB2AB
:10319000019B83F87C20019B93F87C30002B12D19B
:1031A000019B0433184602F05BF80390039B002B4D
:1031B00006D00399084801F019FB4FF0FF3303E0F4
:1031C000064801F013FB0023184605B05DF804FB28
:1031D00030D7120078D71200B4D71200ECD7120003
:1031E00000B587B003900B4601928DF80B30039B1E
:1031F0000433019A92B29DF80B10184601F064FE58
:103200000590059B002B06D0059A0199074801F00F
:10321000EDFA002305E00199054801F0E7FA4FF0C7
:10322000FF33184607B05DF804FB00BF18D8120042
:1032300060D8120010B582B00190054C054B9C423D
:1032400004D0183C204621F02AFEF7E702B010BD5A
:103250003045FF3FB043FF3FF0B589B00390029186
:10326000039B012B40F08D80029B4FF6FF7293422F
:1032700040F0878004AB184621F0D2FD04AB1A461B
:103280004149424821F036FE04AB184621F0C9FD01
:103290003F4A40493D4821F0A9FD3F4B07241E46C7
:1032A000B4F1FF3F0ED0334601251F46B5F1FF3F75
:1032B00005D0384621F0ECFD1837013DF6E73036F1
:1032C000013CEDE7324A3549002021F08FFD05AB86
:1032D000184621F0A5FD05AB1A462B49304821F0D0
:1032E00009FE05AB184621F09CFD294A29492C48C6
:1032F00021F07CFD06AB184621F092FD06AB1A4684
:103300002149284821F0F6FD06AB184621F089FD39
:103310001F4A2049234821F069FD07AB184621F0D8
:103320007FFD07AB1A4618491F4821F0E3FD07ABA4
:10333000184621F076FD164A16491B4821F056FD25
:103340004FF0FF330093102340222021174821F033
:1033500055FA0F4A1649154821F048FD002302226C
:103360000121144821F094F9094A1349114821F028
:103370003DFD12481CF060F9054A11490F4821F043
:1033800035FD00BF09B0F0BDA0D812009843FF3F43
:103390000040FF3F9F4E1200B043FF3F3532100008
:1033A0003045FF3F4845FF3F6045FF3F7C45FF3FBD
:1033B000C52510009045FF3F252A1000E845FF3F36
:1033C000C1F6110008B54FF6FF710120FFF744FF69
:1033D00008BD00BF00B583B001900091019B1A4663
:1033E0000023136053609360D36013615361019BAA
:1033F000009918461EF04EFE019B184603B05DF87A
:1034000004FB00BF82B00190019B184602B07047D8
:1034100000B585B0039003984FF0FF33009310235D
:103420004022202121F0EAF9039B14334FF0FF31B1
:103430001846FFF7CFFF039B03F134004FF0FF3333
:10344000009320230422082107F0E4FA039B184686
:1034500005B05DF804FB00BF10B584B00190019980
:103460002B4801F0C3F901980AF046FB0390294963
:1034700003980AF0C7FB0290029B002B02D14FF089
:10348000FF333AE0029BD3E906014FF000024FF010
:10349000000322F017FB0346002B03D01E48FFF762
:1034A00019FC26E0029BD3E9060115A3D3E900230A
:1034B00022F012FB0346002B0AD1029BD3E906013E
:1034C00011A3D3E9002322F025FB0346002B02D0F1
:1034D0004FF0FF3311E0029B03F11804D4E90034EC
:1034E0001846214622F020FB034619460A48FFF7FA
:1034F000CFFB03980AF056FB0023184604B010BD1A
:10350000000000000030B14000000000002CCA4064
:10351000B4D81200C0D81200EC47FF3F10B586B0F7
:1035200001900199354801F061F901980AF0E4FA37
:103530000590334905980AF065FB0490049B002B25
:1035400002D14FF0FF3356E02E4905980AF05AFB9E
:103550000390039B002B02D14FF0FF334BE0039B02
:10356000D3E906014FF00002274B22F0B5FA0346DB
:10357000002B0BD1039BD3E906014FF000024FF063
:10358000804322F0C7FA0346002B02D04FF0FF33EE
:1035900031E0039BD3E9060101231C464FF00002F2
:1035A000194B22F08FFA0346002B01D000231C4652
:1035B000E3B28DF80B309DF80B3019461348FFF736
:1035C0004DF8049B03F11804D4E900341846214651
:1035D00022F0AAFA02469DF80B3019460B48FFF775
:1035E00029F99DF80B3019460848FFF7DDF80598D2
:1035F0000AF0D8FA0023184606B010BDB4D812005D
:10360000C4D81200CCD812000000F03FF047FF3FB2
:1036100010B586B0019001993B4801F0E7F8019898
:103620000AF06AFA0590394905980AF0EBFA049015
:10363000049B002B02D14FF0FF3361E0049BD3E9E0
:1036400006014FF00002324B22F046FA0346002BEF
:103650000BD1049BD3E906014FF000024FF08043E9
:1036600022F058FA0346002B02D04FF0FF3347E018
:10367000049BD3E906014FF00002254B22F022FA09
:103680000346002B01D0012300E002238DF80F3008
:10369000204905980AF0B6FA0290029B002B02D14D
:1036A0004FF0FF332CE0029BD3E906014FF00002FC
:1036B0004FF0000322F02EFA0346002B16D09DF89F
:1036C0000F3019461448FFF7E5FC029B03F118047C
:1036D000D4E900341846214622F026FA02469DF825
:1036E0000F3019460C48FFF77BFD05E09DF80F30C1
:1036F00019460948FFF720FD05980AF053FA002300
:10370000184606B010BD00BFB4D81200CCD81200C5
:103710000000F03FD4D81200FC48FF3F70B588B0DD
:1037200003900A23079300230693039B0593059BAD
:103730001946204803F09CFA1F491E4803F0E4FA9A
:103740000246059B5A60059B9B6806931B4803F045
:10375000C7FB0246059B9A60059B9A68069B9A42A6
:1037600006D1174B1B685A1C15490A60092B01DD4D
:10377000012300E00023002B16D0114B00221A6019
:10378000059B9D68059B1E68059B5B68184621F09C
:10379000DDFE03460C46CDE9003432462946094891
:1037A00001F024F8002301E04FF0FF33184608B081
:1037B00070BD00BFE447FF3F6666F640E847FF3F45
:1037C0007C49FF3FD8D8120030B589B06D4804F06D
:1037D000B1FA6D496B4804F0E7FA4FF07E501EF0E5
:1037E0005BFD6A4801F002F898238DF814304F23EE
:1037F0008DF81530EE238DF8163000238DF8173034
:10380000A1238DF8183003238DF8193005AB194624
:103810005F4804F011FD0790079B002B13D15C4813
:1038200004F0D4FD034619465A4800F0DFFF5A4918
:10383000544804F0B9FA564804F032FD0790079B4B
:10384000002B3BD10AE00799544800F0CFFF5449C0
:103850004C4804F0A9FA4FF0FF3390E04C4804F0D4
:1038600043FD04464A4804F065FD0546484804F017
:1038700087FD03462A4621464A4800F0B7FF4148E3
:1038800004F086FA0123012247493E4804F09EFADB
:103890003F4804F029FD014601230222394804F083
:1038A00095FA0221414803F0DBF80346002B14BFD0
:1038B00001230023DBB2002B12D00AE007993C4819
:1038C00000F094FF3B492F4804F06EFA4FF0FF33AD
:1038D00055E039492B4804F067FA4FF0FF334EE0CA
:1038E0003649284804F060FA344800F07FFF4FF072
:1038F0007E501EF0D1FC3248FFF774FB3148FFF7D1
:10390000A3F9002001F0C8F803460493049B19466C
:103910002D4800F06BFF07F03BFA002001F0BCF8E7
:103920000346049304AB184622F0EEFC0346194606
:10393000264800F05BFF2649124804F035FA12F0E1
:1039400021FE01AB1846FFF7E9FE01AB184612F065
:103950006BFE2049204807F0C3FB2049204807F0B0
:10396000BFFB2049204807F0BBFB12F083FE01ABF0
:1039700019461E4812F0B2FE12F0FEFE0023184651
:1039800009B030BD7046FF3FF4D8120004D91200D0
:103990000847FF3F18D9120030D9120038D9120059
:1039A00054D912006CD9120088D91200E447FF3FA5
:1039B00090D91200B0D91200C8D91200E4D912006F
:1039C000FC48FF3FEC47FF3F04DA120014DA120014
:1039D00020DA12001D35100044DA120011361000F2
:1039E0004CDA12005934100050DA12001D37100062
:1039F00010B582B00190054C054B9C4204D0183C98
:103A0000204621F04CFAF7E702B010BD3045FF3FE9
:103A1000B043FF3F00B583B00190019B343318469B
:103A200007F0A8F9019B1846FEF7CCFD019B18464C
:103A300003B05DF804FB00BF00B583B00190019BAB
:103A40002433184607F096F9019B184603B05DF839
:103A500004FB00BF00B583B00190019B1846FFF73F
:103A6000EBFF019B184603B05DF804FBF0B589B08D
:103A700003900291039B012B40F0B880029B4FF60C
:103A8000FF72934240F0B28004AB184621F0C8F9AF
:103A900004AB1A465749584821F02CFA04AB184693
:103AA00021F0BFF9554A5649534821F09FF9554B2B
:103AB00007241E46B4F1FF3F0ED0334601251F46B2
:103AC000B5F1FF3F05D0384621F0E2F91837013D46
:103AD000F6E73036013CEDE7484A4B49002021F03B
:103AE00085F905AB184621F09BF905AB1A4641490B
:103AF000464821F0FFF905AB184621F092F93F4AFC
:103B00003F49424821F072F906AB184621F088F986
:103B100006AB1A4637493E4821F0ECF906AB184689
:103B200021F07FF9354A3649394821F05FF907AB72
:103B3000184621F075F907AB1A462E49354821F091
:103B4000D9F907AB184621F06CF92C4A2C493148B9
:103B500021F04CF94FF0FF33009310234022202135
:103B60002D4820F04BFE254A2C492B4821F03EF9E8
:103B70000023022201212A4820F08AFD1F4A2949F8
:103B8000274821F033F928481BF056FD1B4A2749E6
:103B9000254821F02BF92648FFF73AFC174A25491A
:103BA000234821F023F9244804F036FB134A234923
:103BB000214821F01BF92248FFF724FC2148FFF798
:103BC00015F80E4A20491F4821F010F91F48FEF74A
:103BD0002DFD0A4A1E491D4821F008F91D48FFF72E
:103BE000C1F9064A1C491B4821F000F900BF09B081
:103BF000F0BD00BF58DA12009843FF3F0040FF3F7E
:103C00009F4E1200B043FF3FF13910003045FF3F97
:103C10004845FF3F6045FF3F7C45FF3FC5251000FD
:103C20009045FF3F252A1000E845FF3FC1F61100EF
:103C30007046FF3F153A10000847FF3F553A100005
:103C4000E847FF3FEC47FF3F052C1000F047FF3FE0
:103C500035271000FC48FF3F892F100008B54FF6AC
:103C6000FF710120FFF702FF08BD00BF00B583B060
:103C7000019000910E4A019B1A60019B009A5A60C4
:103C8000002208210B4820F0F1FD0B49094820F0E3
:103C900005FE019B5B68184621F0C0F803461A46F2
:103CA000019B9A60019B184603B05DF804FB00BFBE
:103CB00090DA12008049FF3F40420F0000B583B008
:103CC00001900D4A019B1A60019B9B68002B08D054
:103CD000019B9B68002B04D0019B9B68184621F038
:103CE00083F80023002B02D0019821F084F8019B77
:103CF000184603B05DF804FB90DA120000B583B0FB
:103D000001900198FFF7DAFF019821F074F8019B08
:103D1000184603B05DF804FB10B586B0019003A807
:103D20004FF480734FF48022094903F0F5FD019BA5
:103D30005A68019B9B6803A8022103F01BFE0446FE
:103D400003AB184603F010FE2346184606B010BD1C
:103D50008049FF3F10B588B0039002910192029B09
:103D6000002B02D14FF0FF3436E004A84FF48073EB
:103D70004FF480221A4903F0CFFD039B9B68019A00
:103D80000299184623F0AFF8039B5968039B9B6880
:103D900004AA144800F02AFD039B5A68039B9B6801
:103DA00004A8022103F05CFE03468DF81F309DF845
:103DB0001F3019460C4800F019FD9DF81F3083F0A4
:103DC0000103DBB2002B02D04FF0FF3400E00024EF
:103DD00004AB184603F0C8FD2346184608B010BDD2
:103DE0008049FF3F5CDA120074DA120008B503481C
:103DF000FFF792FF0346184608BD00BF9449FF3FF6
:103E000000B583B001900091009A01990348FFF733
:103E1000A1FF0346184603B05DF804FB9449FF3F39
:103E200010B582B00190054C054B9C4204D0183C63
:103E3000204621F034F8F7E702B010BD3045FF3FCF
:103E4000B043FF3FF0B589B003900291039B012B73
:103E500040F0A580029B4FF6FF72934240F09F8096
:103E600004AB184620F0DCFF04AB1A464D494E481F
:103E700021F040F804AB184620F0D3FF4B4A4C49E0
:103E8000494820F0B3FF4B4B07241E46B4F1FF3FD7
:103E90000ED0334601251F46B5F1FF3F05D0384609
:103EA00020F0F6FF1837013DF6E73036013CEDE72C
:103EB0003E4A4149002020F099FF05AB184620F00A
:103EC000AFFF05AB1A4637493C4821F013F805AB64
:103ED000184620F0A6FF354A3549384820F086FFBD
:103EE00006AB184620F09CFF06AB1A462D49344815
:103EF00021F000F806AB184620F093FF2B4A2C491E
:103F00002F4820F073FF07AB184620F089FF07AB5E
:103F10001A4624492B4820F0EDFF07AB184620F045
:103F200080FF224A2249274820F060FF4FF0FF33EC
:103F30000093102340222021234820F05FFC1B4ADD
:103F40002249214820F052FF00230222012120486B
:103F500020F09EFB154A1F491D4820F047FF1E48D0
:103F60001BF06AFB114A1D491B4820F03FFF4FF030
:103F7000FF330093102340222021194820F03EFCFB
:103F80000A4A1249164820F031FF4FF48061154863
:103F9000FFF76CFE054A1449124820F027FF00BFC6
:103FA00009B0F0BD84DA12009843FF3F0040FF3FA4
:103FB0009F4E1200B043FF3F213E10003045FF3FAF
:103FC0004845FF3F6045FF3F7C45FF3FC52510004A
:103FD0009045FF3F252A1000E845FF3FC1F611003C
:103FE0008049FF3F9449FF3FBD3C100008B54FF6A4
:103FF000FF710120FFF726FF08BD00BF84B00190CC
:1040000000230393039B072B09DC074A039B1B0137
:10401000134400221A60039B01330393F2E7019BD0
:10402000184604B0704700BFA049FF3F82B000238C
:104030000193019B072B0CDC084A019B1B011344D5
:104040001B68002B01D1019B05E0019B013301930B
:10405000EFE74FF0FF33184602B07047A049FF3F2B
:1040600000B587B003900291039B0593059B1B78D5
:104070001946059B01331B781846059B02331B78B4
:104080001A46059B03331B780193009203460A46A8
:104090000449029824F0CEFC0023184607B05DF8CE
:1040A00004FB00BF98DA120000B587B003900291BC
:1040B000029B0593059B591C059B0233059A03320D
:1040C000019200930B46059A0749039824F0D6FC09
:1040D0000490049B042B02D04FF0FF3300E0002338
:1040E000184607B05DF804FB98DA120070B596B078
:1040F000059000231493234804F068F902460DABA1
:104100001146184624F050FD149B002B01DA149B35
:1041100035E007AC043407AB083307AA0C3207A913
:10412000103107A8143007AE0DAD03900291019233
:104130000093234632461449284624F09FFC1490ED
:10414000149B062B02D04FF0FF3318E00023159389
:10415000159B052B0EDC159B059A1A44159B9B009D
:1041600016A90B4453F83C3CDBB21370159B01338A
:104170001593EDE7059B063300221A7000231846BD
:1041800016B070BD0847FF3FA4DA120000B589B031
:104190000190009103AB10220021184622F0C9FEC5
:1041A000009A0199044804F009FC03460793079B11
:1041B000184609B05DF804FB0847FF3F10B588B00A
:1041C000039002910192039B022B02D04FF0FF3328
:1041D00060E0019B002B08D0019B062B05D0019BC2
:1041E000112B02D04FF0FF3354E04FF0FF33079311
:1041F000FFF71CFF0790079B002B01DA079B49E0A4
:10420000264A079B1B0113440C3300221A60029BB1
:10421000012B24D0022B39D1102020F0EEFD0346D3
:104220001C46204606F09EFA06941C4A079B1B017A
:104230001344069A1A60194A079B1B01134408335A
:10424000029A1A60069806F099FA24F089FA034651
:10425000C3F30E031946069806F0B6FA19E02820B3
:1042600020F0CBFD03461C46204606F089F9059454
:104270000A4A079B1B011344059A1A60074A079BC9
:104280001B0113440833029A1A6002E04FF0FF3317
:1042900000E0079B184608B010BD00BFA049FF3FD3
:1042A00010B582B00190019B002B02DB019B082B13
:1042B00002DD4FF0FF3320E0114A019B1B01134444
:1042C0001B68002B02D14FF0FF3316E00C4A019B14
:1042D0001B0113441C68002C05D0204606F044F94D
:1042E000204620F088FD019B1B01054A1344102243
:1042F0000021184622F01DFE0023184602B010BD12
:10430000A049FF3F00B587B0039002910192039B43
:10431000002B02DB039B082B02DD4FF0FF3316E07E
:104320000D4A039B1B0113441B68002B02D14FF065
:10433000FF330CE0084A039B1B0113441B680593E1
:10434000019B1A460299059806F084F9034618461F
:1043500007B05DF804FB00BFA049FF3F00B587B080
:10436000039002910192039B002B02DB039B082B1D
:1043700002DD4FF0FF3317E00D4A039B1B0113448E
:104380001B68002B02D14FF0FF330DE0084A039B5E
:104390001B0113441B680593019B1A46029905985B
:1043A00006F09CF90490049B184607B05DF804FBE6
:1043B000A049FF3F10B594B0039002910192009381
:1043C000039B002B02DB039B082B02DD4FF0FF3425
:1043D0003BE0204A039B1B0113441B68002B02D1C6
:1043E0004FF0FF3431E0009B1393139B5B681293F3
:1043F000129B1BBA0D9309AA0DAB11461846FFF785
:104400002FFE04AB184605F0F7FF139B5B880F9354
:104410000F9B5BBA0E930E9B1A4609A904AB184674
:1044200006F008F811900B4A039B1B0113441B680C
:104430001093019B04A9029A109806F011FA1190AA
:10444000119C04AB184605F0E3FF2346184614B050
:1044500010BD00BFA049FF3F10B58EB00390029180
:1044600001920093039B002B02DB039B082B02DDD0
:104470004FF0FF344AE0274A039B1B0113441B689B
:10448000002B02D14FF0FF3440E0019A03992248FB
:1044900000F0ACF906AB184605F0AEFF1D4A039BD1
:1044A0001B0113441B680D93019B06A9029A0D98EA
:1044B00006F006FA0C900C9A0399174800F096F94A
:1044C0000C9B002B02DA4FF0FF341BE0009B0B9398
:1044D00006AB184605F0ECFF024605AB1946104640
:1044E000FFF7E2FD0B9B043305A90422184622F0D6
:1044F000FAFC06AB184605F0E1FF03469AB20B9BA7
:104500005A800C9C06AB184605F082FF23461846DD
:104510000EB010BDA049FF3FC4DA120000B58FB045
:10452000039002910192039B002B02DB039B082B5B
:1045300002DD4FF0FF332BE0174A039B1B011344AE
:104540001B68002B02D14FF0FF3321E0029B0D933B
:104550000D9B5B680B930B9B1BBA08930E4A039B46
:104560001B0113441B680C9304AA08AB11461846A0
:10457000FFF776FD0D9B5B880A930A9B5BBA099354
:10458000099B1A4604AB19460C9806F00FF803462F
:1045900018460FB05DF804FBA049FF3F00B587B097
:1045A0000390029101920093039B002B02DB039B7B
:1045B000082B02DD4FF0FF3339E0029B40F6FF721B
:1045C000934232D1019BA3F58053053B012B29D89F
:1045D000089B082B23D1009B002B1ED0009B05932A
:1045E000059B1B684FF47A7202FB03F2059B5B6824
:1045F000114981FB03018911DB17CB1A1344049382
:10460000049B002B09DD0D4A039B1B0113441B680F
:10461000049A0021184605F07BFF002307E06FF0A5
:10462000020304E06FF0010301E04FF0FF3318468E
:1046300007B05DF804FB00BFD34D6210A049FF3FF7
:1046400010B582B00190054C054B9C4204D0183C3B
:10465000204620F024FCF7E702B010BD3045FF3FB4
:10466000B043FF3FF0B589B003900291039B012B4B
:1046700040F09080029B4FF6FF72934240F08A8098
:1046800004AB184620F0CCFB04AB1A46434944481F
:1046900020F030FC04AB184620F0C3FB414A4249ED
:1046A0003F4820F0A3FB414B07241E46B4F1FF3FD7
:1046B0000ED0334601251F46B5F1FF3F05D03846E1
:1046C00020F0E6FB1837013DF6E73036013CEDE718
:1046D000344A3749002020F089FB05AB184620F00A
:1046E0009FFB05AB1A462D49324820F003FC05AB71
:1046F000184620F096FB2B4A2B492E4820F076FBDB
:1047000006AB184620F08CFB06AB1A4623492A4814
:1047100020F0F0FB06AB184620F083FB214A22492B
:10472000254820F063FB07AB184620F079FB07AB68
:104730001A461A49214820F0DDFB07AB184620F045
:1047400070FB184A18491D4820F050FB4FF0FF330A
:104750000093102340222021194820F04FF8114ADD
:104760001849174820F042FB002302220121164875
:104770001FF08EFF0B4A1549134820F037FB1448F1
:104780001AF05AFF074A1349114820F02FFB12482C
:10479000FFF734FC00BF09B0F0BD00BFD8DA12004B
:1047A0009843FF3F0040FF3F9F4E1200B043FF3F42
:1047B000414610003045FF3F4845FF3F6045FF3F01
:1047C0007C45FF3FC52510009045FF3F252A10007E
:1047D000E845FF3FC1F61100204AFF3F08B54FF6FC
:1047E000FF710120FFF73EFF08BD00BF0FB400B509
:1047F00083B005AB01930F4B00221A70019B049A02
:1048000076210C4825F092FF0A4824F0D5F903469A
:104810001A46084B1344084A1188927819809A70F6
:104820000449064820F04CF900BF03B05DF804EBE2
:1048300004B070477C4AFF3FDCDA1200644AFF3F55
:1048400010B582B00190054C054B9C4204D0183C39
:10485000204620F024FBF7E702B010BD3045FF3FB3
:10486000B043FF3FF0B589B003900291039B012B49
:1048700040F09A80029B4FF6FF72934240F0948082
:1048800004AB184620F0CCFA04AB1A464849494814
:1048900020F030FB04AB184620F0C3FA464A4749E3
:1048A000444820F0A3FA464B07241E46B4F1FF3FCC
:1048B0000ED0334601251F46B5F1FF3F05D03846DF
:1048C00020F0E6FA1837013DF6E73036013CEDE717
:1048D000394A3C49002020F089FA05AB184620F0FF
:1048E0009FFA05AB1A463249374820F003FB05AB67
:1048F000184620F096FA304A3049334820F076FACC
:1049000006AB184620F08CFA06AB1A4628492F4809
:1049100020F0F0FA06AB184620F083FA264A274921
:104920002A4820F063FA07AB184620F079FA07AB63
:104930001A461F49264820F0DDFA07AB184620F03A
:1049400070FA1D4A1D49224820F050FA4FF0FF33FB
:1049500000931023402220211E481FF04FFF164ACB
:104960001D491C4820F042FA0023022201211B4865
:104970001FF08EFE104A1A49184820F037FA1948DD
:104980001AF05AFE0C4A1849164820F02FFA002354
:104990004FF400724FF4807114481FF079FE064AFC
:1049A0000F49124820F022FA00BF09B0F0BD00BF45
:1049B000E0DA12009843FF3F0040FF3F9F4E120095
:1049C000B043FF3F414810003045FF3F4845FF3F9F
:1049D0006045FF3F7C45FF3FC52510009045FF3FE8
:1049E000252A1000E845FF3FC1F61100244AFF3F89
:1049F00008B54FF6FF710120FFF734FF08BD00BF77
:104A000070B58CB00790002000F046F8034609937B
:104A100009AB184621F0E8FF0B90114820F016F979
:104A20000A900B9B5B6903F26C750B9B1B695E1C08
:104A30000B9BDB680B9A92680B9949680B9800688E
:104A40000A9C0494039002910192009333462A46F3
:104A50000449079823F0EEFF00BF0CB070BD00BF03
:104A6000F44AFF3FE4DA120000B583B001900091F0
:104A7000002000F011F80246019B1A60054820F062
:104A8000C1F80246019B5A600023184603B05DF846
:104A900004FB00BFF44AFF3F10B584B001900F4BF8
:104AA0001B68184621F092F904460D4820F0B8F82A
:104AB00003461946204621F0D5F80346184621F052
:104AC0009FFB03460393019B002B02D0019B039A9B
:104AD0001A60039B184604B010BD00BF044BFF3F93
:104AE000F44AFF3F00B583B00190019B1B68194653
:104AF0000748FFF77BFE019B1B68064A13600648C8
:104B000020F0CEF80023184603B05DF804FB00BF88
:104B100008DB1200044BFF3FF44AFF3F00B583B0AF
:104B2000019001981DF0CEFB0023184603B05DF8FC
:104B300004FB00BF00B583B001900091019B012BE5
:104B400007D1009B4FF6FF72934202D1034820F039
:104B500015F800BF03B05DF804FB00BFF44AFF3F47
:104B600008B54FF6FF710120FFF7E4FF08BD00BF55
:104B700000B583B00A4A0B4BD31A0193019B1A4626
:104B80000021084822F0D5F91CF08CFF21F0D4FF59
:104B90001EF002F91FF032FD0090009821F0D0FBCA
:104BA0005066FF3F5443FF3F00B583B00190019B27
:104BB000022B01DC012303E001981FF0B5FC034642
:104BC000184603B05DF804FB82B0EFF30583019350
:104BD000019B002B00D000BE00BF02B0704700BF99
:104BE00000B583B00190FFF7EFFF019822F03CF988
:104BF0000346184603B05DF804FB00BF00B583B060
:104C000001900091FFF7E0FF0099019823F0E2FD89
:104C10000346184603B05DF804FB00BF00B583B03F
:104C20000190FFF7D1FF019822F026F900BF03B0F1
:104C30005DF804FB08B5012021F082FB08B5FFF701
:104C4000F9FF00BF00B585B00190019800F08AFF20
:104C5000019800F0E5FF019801F06EF80DF10A03EC
:104C60001A461821019800F00FFE0390039B13F1E0
:104C7000020F02D16FF001037AE00DF10A031A4628
:104C80001721019800F000FE0390039B13F1020F1F
:104C900002D16FF001036BE0019801F023F803905B
:104CA000039B002B01D0039B62E00221019800F0DE
:104CB00019FC0390039B002B01D0039B58E00221B9
:104CC000019800F04FFB039B002B01D0039B4FE0AA
:104CD0000021019800F086FB0390039B002B01D07C
:104CE000039B45E00021019800F0BCFB0390039B6F
:104CF000002B01D0039B3BE00321019800F072FCE4
:104D00000390039B002B01D0039B31E0012101980C
:104D100000F028FC0390039B002B01D0039B27E0AD
:104D20001549019800F0D0FA0390039B002B01D0A5
:104D3000039B1DE04FF000020121019800F05CF898
:104D40000390039B002B01D0039B11E04FF0000266
:104D50000221019800F050F80390039B002B01D032
:104D6000039B05E05821019800F07CFC0390039B15
:104D7000184605B05DF804FBECB1040000B585B041
:104D800001900B468DF803300DF10A031A460821F5
:104D9000019800F065FD034613F1020F0CBF0123DB
:104DA0000023DBB2002B02D06FF001031FE0BDF83F
:104DB0000A3023F003039BB2ADF80A309DF80330AC
:104DC0009AB2BDF80A3013439BB2ADF80A30BDF871
:104DD0000A301A460821019800F024FE0390039B34
:104DE00013F1020F02D16FF0010300E00023184617
:104DF00005B05DF804FB00BF00B58BB003900B4617
:104E000001928DF80B300023ADF826302C4B08931F
:104E10004FF0000307930899019821F0E7F9034642
:104E2000002B06D10799019821F0C2F90346002B07
:104E300002D06FF002033FE02249019821F01AF8F6
:104E400003461F49184621F0C9F80346184621F0C9
:104E5000FDF90346ADF81A30BDF81A30ADF826302A
:104E60009DF80B30012B02D0022B0FD01DE0BDF8B6
:104E700026301A460921039800F0D4FD0590059BC1
:104E800013F1020F14D16FF0010315E0BDF82630C5
:104E90001A460A21039800F0C5FD0590059B13F101
:104EA000020F07D16FF0010306E06FF0020303E089
:104EB00000BF00E000BF002318460BB05DF804FB04
:104EC0000000C84200C07F4400B587B001900B4687
:104ED0008DF803301346ADF800300023ADF81630DE
:104EE00040F2FF33ADF81430BDF80020BDF81430A7
:104EF0009A4202D96FF0020333E0BDF80030ADF8FA
:104F00001230BDF81230ADF816309DF80330012B89
:104F100002D0022B0FD01DE0BDF816301A46092131
:104F2000019800F07FFD0390039B13F1020F14D151
:104F30006FF0010315E0BDF816301A460A210198FA
:104F400000F070FD0390039B13F1020F07D16FF087
:104F5000010306E06FF0020303E000BF00E000BFC2
:104F60000023184607B05DF804FB00BF00000000F6
:104F700000B589B00390029101920199029820F046
:104F800071FE03469649184621F030F90346002B7E
:104F900002D06FF0020306E1029820F0D7FA84A352
:104FA000D3E9002320F0B6FD0346002B02D08D4B41
:104FB000029308E08C49029821F0FAF80346002B8E
:104FC00001D08A4B02938949029821F0E7F8034601
:104FD000002B03D000238DF81F3014E08249029883
:104FE00020F03EFE03468249184620F043FF034668
:104FF0008049184620F0F2FF0346184621F026F9B2
:1050000003468DF81F300DF116031A46032103984D
:1050100000F026FC034613F1020F0CBF012300230E
:10502000DBB2002B02D06FF00103BCE0BDF81630FC
:1050300023F07F039BB2ADF816309DF81F309AB273
:10504000BDF8163013439BB2ADF81630BDF81630DC
:105050001A460321039800F0E5FC0690019820F021
:1050600075FA55A3D3E9002320F054FD0346002B25
:1050700003D007238DF81E3062E0019820F066FA15
:105080004FA3D3E9002320F045FD0346002B03D0B6
:1050900007238DF81E3053E0019820F057FA4AA3F9
:1050A000D3E9002320F036FD0346002B03D006236E
:1050B0008DF81E3044E0019820F048FA44A3D3E96B
:1050C000002320F027FD0346002B03D005238DF895
:1050D0001E3035E0019820F039FA3FA3D3E90023D0
:1050E00020F018FD0346002B03D004238DF81E305A
:1050F00026E04FF08041019821F078F80346002B1C
:1051000003D003238DF81E301AE04FF07F51019831
:1051100021F06CF80346002B03D002238DF81E30DB
:105120000EE04FF07E51019821F060F80346002B0D
:1051300003D001238DF81E3002E000238DF81E30CD
:105140000DF116031A460221039800F089FB03466D
:1051500013F1020F0CBF01230023DBB2002B02D09E
:105160006FF001031FE0BDF8163023F007039BB278
:10517000ADF816309DF81E309AB2BDF816301343C4
:105180009BB2ADF81630BDF816301A4602210398CE
:1051900000F048FC0690069B13F1020F02D16FF05D
:1051A000010300E00023184609B05DF804FB00BFCE
:1051B00066666666660650403333333333331740D2
:1051C00066666666666613403333333333330F40A7
:1051D00033333333333307403333333333330340E1
:1051E00000008842333380420000704100003041AB
:1051F0000000FE426666444200B585B001900DF1A4
:105200000E031A460221019800F02AFB034613F10F
:10521000020F0CBF01230023DBB2002B02D06FF082
:10522000010319E0BDF80E3043F020039BB2ADF846
:105230000E30BDF80E301A460221019800F0F2FB44
:105240000346002B0CBF01230023DBB2002B01D04F
:10525000002301E06FF00103184605B05DF804FB80
:1052600000B585B001900DF10E031A460221019898
:1052700000F0F6FA034613F1020F0CBF01230023DE
:10528000DBB2002B02D06FF0010319E0BDF80E3045
:1052900023F020039BB2ADF80E30BDF80E301A4655
:1052A0000221019800F0BEFB0346002B0CBF012336
:1052B0000023DBB2002B01D0002301E06FF00103DB
:1052C000184605B05DF804FB00B587B00190009169
:1052D000234A009BB2FBF3F30593059B072B02D9EE
:1052E000059B262B02D96FF0020335E00DF10E036A
:1052F0001A460121019800F0B3FA034613F1020F98
:105300000CBF01230023DBB2002B02D06FF001039E
:1053100022E0BDF80E3023F0F8039BB2ADF80E305A
:10532000059B9BB2073B9BB2DB009AB2BDF80E30E7
:1053300013439BB2ADF80E30BDF80E301A46012172
:10534000019800F06FFB0490049B13F1020F02D14F
:105350006FF0010300E00023184607B05DF804FB7E
:1053600000127A0000B585B001900B468DF803302D
:105370000DF10A031A460221019800F071FA034662
:1053800013F1020F0CBF01230023DBB2002B02D06C
:105390006FF0010322E0BDF80A3023F018039BB23E
:1053A000ADF80A309DF80330DB009AB2BDF80A3040
:1053B0009BB213439BB29BB2ADF80A30BDF80A30E2
:1053C0001A460221019800F02DFB0390039B13F174
:1053D000020F02D16FF0010300E00023184605B070
:1053E0005DF804FB00B585B001900B468DF80330E5
:1053F0000DF10A031A460221019800F031FA034622
:1054000013F1020F0CBF01230023DBB2002B02D0EB
:105410006FF0010322E0BDF80A3023F4C0739BB2A1
:10542000ADF80A309DF80330DB009AB2BDF80A30BF
:105430009BB213439BB29BB2ADF80A30BDF80A3061
:105440001A460221019800F0EDFA0390039B13F134
:10545000020F02D16FF0010300E00023184605B0EF
:105460005DF804FB00B585B001900B468DF8033064
:105470000DF10A031A460521019800F0F1F90346DF
:1054800013F1020F0CBF01230023DBB2002B02D06B
:105490006FF0010322E0BDF80A3023F4C0739BB221
:1054A000ADF80A309DF803301B029AB2BDF80A30FD
:1054B0009BB213439BB29BB2ADF80A30BDF80A30E1
:1054C0001A460521019800F0ADFA0390039B13F1F1
:1054D000020F02D16FF0010300E00023184605B06F
:1054E0005DF804FB00B585B001900B468DF80330E4
:1054F0000DF10A031A460121019800F0B1F90346A3
:1055000013F1020F0CBF01230023DBB2002B02D0EA
:105510006FF0010322E0BDF80A3023F006039BB2CE
:10552000ADF80A309DF803305B009AB2BDF80A303E
:105530009BB213439BB29BB2ADF80A30BDF80A3060
:105540001A460121019800F06DFA0390039B13F1B4
:10555000020F02D16FF0010300E00023184605B0EE
:105560005DF804FB00B585B001900B468DF8033063
:105570000DF10A031A460121019800F071F9034662
:1055800013F1020F0CBF01230023DBB2002B02D06A
:105590006FF0010322E0BDF80A3023F440739BB2A0
:1055A000ADF80A309DF803301B029AB2BDF80A30FC
:1055B0009BB213439BB29BB2ADF80A30BDF80A30E0
:1055C0001A460121019800F02DFA0390039B13F174
:1055D000020F02D16FF0010300E00023184605B06E
:1055E0005DF804FB00B585B001900B468DF80330E3
:1055F0000DF10A031A460321019800F031F9034620
:1056000013F1020F0CBF01230023DBB2002B02D0E9
:105610006FF0010322E0BDF80A3023F4C0739BB29F
:10562000ADF80A309DF80330DB019AB2BDF80A30BC
:105630009BB213439BB29BB2ADF80A30BDF80A305F
:105640001A460321019800F0EDF90390039B13F132
:10565000020F02D16FF0010300E00023184605B0ED
:105660005DF804FB00B585B001900B46ADF8023043
:10567000BDF80230B3F5007F02D36FF0020313E0F0
:10568000BDF80230ADF80E30BDF80E301A460D21CF
:10569000019800F0C7F90290029B13F1020F02D1AA
:1056A0006FF0010300E00023184605B05DF804FB2D
:1056B00000B585B001900B468DF803309DF803309E
:1056C000012B02D0022B2AD053E00DF10A031A4617
:1056D0000621019800F0C4F8034613F1020F0CBF35
:1056E00001230023DBB2002B03D06FF001030393EF
:1056F00043E0BDF80A3043F002039BB2ADF80A3034
:10570000BDF80A301A460621019800F08BF9039083
:10571000039B13F1020F30D16FF0010331E00DF163
:105720000A031A460621019800F09AF8034613F17D
:10573000020F0CBF01230023DBB2002B03D06FF05C
:10574000010303931BE0BDF80A3043F001039BB251
:10575000ADF80A30BDF80A301A460621019800F06B
:1057600061F90390039B13F1020F08D16FF001035D
:1057700007E06FF00103039302E000BF00E000BF09
:105780000023184605B05DF804FB00BF00B585B0E6
:1057900001900B468DF803309DF80330012B02D0A9
:1057A000022B2AD056E00DF10A031A460621019871
:1057B00000F056F8034613F1020F0CBF012300233B
:1057C000DBB2002B03D06FF0010303933FE0BDF881
:1057D0000A3023F002039BB2ADF80A30BDF80A305C
:1057E0001A460621019800F01DF90390039B13F15E
:1057F000020F2CD16FF001032DE00DF10A031A46C0
:105800000621019800F02CF8034613F1020F0CBF9B
:1058100001230023DBB2002B03D06FF001030393BD
:1058200017E0BDF80A3023F001039BB2ADF80A304F
:10583000BDF80A301A460621019800F0F3F80390EB
:10584000039B13F1020F04D16FF0010303E000BFCB
:1058500000E000BF0023184605B05DF804FB00BF60
:1058600000B587B003900B4601928DF80B309DF880
:105870000B30019A1946039800F02EF80590059B0D
:10588000184607B05DF804FB00B587B003900B46DF
:1058900001928DF80B309DF80B30019A1946039850
:1058A00000F01AF80590059B184607B05DF804FB58
:1058B00000B587B003900B4601928DF80B309DF830
:1058C0000B30019A1946039800F006F80590059BE5
:1058D000184607B05DF804FB00B587B003900B468F
:1058E00001928DF80B300023ADF816300023ADF88F
:1058F0001430019B002B02D16FF002038BE04FF0BC
:10590000FF31474819F0BEFE039800F015FA0398DE
:1059100000F062F99DF80B309B029AB2BDF8163088
:1059200013439BB2ADF81630BDF81620BDF8143005
:105930001343ADF81630BDF816301946039800F041
:1059400087F903468DF813309DF813305B029AB245
:10595000BDF8163013439BB2ADF81630039BBDF86B
:105960001620114618461EF0CFFF0346ADF8103042
:10597000019BBDF810201A80039800F051F903989C
:1059800000F02AF90023ADF816300023ADF81430EA
:10599000BDF8163043F4C043ADF81630BDF81620FC
:1059A000BDF814301343ADF81630BDF81630194663
:1059B000039800F04DF903468DF813309DF813302D
:1059C0005B029AB2BDF8163013439BB2ADF81630A5
:1059D000039BBDF81620114618461EF095FF03469E
:1059E000ADF81030039800F01BF9039800F0B8F9F7
:1059F0000B4819F057FEBDF810301BB2002B02DA2D
:105A00006FF0010307E0019B1B88C3F309039AB2FF
:105A1000019B1A800023184607B05DF804FB00BF05
:105A2000E845FF3F00B585B001900B468DF8033087
:105A30001346ADF800300023ADF80E304FF0FF31C3
:105A4000474819F01FFE019800F076F9019800F020
:105A5000E7F8019800F0C0F8BDF80E306FEA434354
:105A60006FEA5343ADF80E309DF80330DB029AB273
:105A7000BDF80E3013439BB2ADF80E30BDF80E20CA
:105A8000BDF800301343ADF80E30BDF80E301946A6
:105A9000019800F0DDF803468DF80D309DF80D30CB
:105AA0009B029AB2BDF80E3013439BB2ADF80E3094
:105AB000019BBDF80E20114618461EF025FF034637
:105AC000ADF80A30019800F0ABF8019800F084F8C6
:105AD0000023ADF800300023ADF80E30BDF80E30D5
:105AE0006FEA43436FEA5343ADF80E30BDF80E2022
:105AF000BDF800301343ADF80E30BDF80E30194636
:105B0000019800F0A5F803468DF80D309DF80D3092
:105B10005B029AB2BDF80E3013439BB2ADF80E3063
:105B2000019BBDF80E20114618461EF0EDFE0346FF
:105B3000ADF80A30019800F073F8019800F010F900
:105B4000074819F0AFFDBDF80A301BB2002B02DA8E
:105B50006FF0010300E00023184605B05DF804FB78
:105B6000E845FF3F00B583B00190019B143319490C
:105B7000184604F073FF019B03F114000023002278
:105B8000012105F043F8019B03F1140000230122D9
:105B9000012105F03BF8019B03F1140000230222D0
:105BA000012105F033F8019B03F1140001230122C8
:105BB000012104F0C3FF019B03F114000123022221
:105BC000012104F0BBFF14201CF08CFB00BF03B0CC
:105BD0005DF804FB40420F0000B583B00190019BCB
:105BE00003F1140001230022012104F0A7FF142077
:105BF0001CF078FB07201CF075FB019B03F11400DF
:105C000000230022012104F099FF14201CF06AFBFC
:105C100007201CF067FB00BF03B05DF804FB00BF6A
:105C200000B583B0019007201CF05CFB019B03F1E1
:105C3000140001230022012104F080FF14201CF035
:105C400051FB07201CF04EFB00BF03B05DF804FBC6
:105C500086B001900B46ADF8023000238DF8153068
:105C600000230493BDF80230ADF8163000230493EE
:105C7000049B0F2BCCBF01230023DAB2BDF81630F2
:105C8000002B0CBF01230023DBB21343DBB2002B3C
:105C900014D1BDF81630DBB203F00103DAB29DF87F
:105CA00015305340DBB28DF81530BDF816305B105F
:105CB000ADF81630049B01330493D9E79DF81530F5
:105CC000002B0CBF01230023DBB28DF80F309DF8B1
:105CD0000F30002B01D0012300E00023184606B04E
:105CE000704700BF00B585B00190002303930DF10C
:105CF0000A031A461A210198FFF7DAFD034613F149
:105D0000020F0CBF01230023DBB2002B02D06FF087
:105D100001030DE0BDF80A30DBB29BB2ADF80A30EA
:105D2000BDF80A30582B02D04FF0FF330393039B8A
:105D3000184605B05DF804FB00B583B00190019BE7
:105D40000022102118461EF091FD019B03491846C0
:105D50001EF0A4FD00BF03B05DF804FB400D03007E
:105D600000B587B001900823059300230493084BE6
:105D70000393019B049A059918461EF077FD019B39
:105D8000039918461EF08AFD00BF07B05DF804FBBA
:105D900040420F0000B585B003900B468DF80B30E4
:105DA00003984FF0FF3300931023402220211EF070
:105DB00025FD039B03F114004FF4003300932823C7
:105DC0000422082104F026FE039B002283F8782099
:105DD000039B9DF80B2083F88320039B93F883306B
:105DE000012B28D1039B032283F87920039B0122F6
:105DF00083F87A20039B042283F87B20039B0122F3
:105E000083F87C20039B062283F87D20039B0122DC
:105E100083F87E20039B052283F87F20039B0122C9
:105E200083F88020039B062283F88120039B0022B5
:105E300083F8822028E0039B072283F87920039BC4
:105E4000002283F87A20039B002283F87B20039BA7
:105E5000012283F87C20039B022283F87D20039B90
:105E6000012283F87E20039B012283F87F20039B7D
:105E7000012283F88020039B062283F88120039B64
:105E8000002283F8822000BF039B184605B05DF80E
:105E900004FB00BF00B587B00190019800F0D6FB6D
:105EA000019800F059FC019B14330321184604F0BB
:105EB00039FF0590059A0021019800F09FFC002110
:105EC000019800F067FC019B03F11400019B93F81B
:105ED0008210019B93F88130DBB25AB2012304F0A7
:105EE0002DFE019800F084FB0221019800F0D0FA09
:105EF00003468DF80F309DF80F3043F04003DBB2BE
:105F00008DF80F309DF80F301A460221019800F0ED
:105F1000FDFA0490049B002B02D06FF0010359E0BE
:105F20000221019800F0B4FA03468DF80F309DF875
:105F30000F3023F04003DBB28DF80F309DF80F30A7
:105F40001A460221019800F0E1FA0490049B002B0C
:105F500002D06FF001033DE00DF10E030DF10F02D1
:105F60000521019800F004FA0490049B002B02D054
:105F70006FF001032EE00DF10E030DF10F0206216B
:105F8000019800F0F5F90490049B002B02D06FF00B
:105F900001031FE0019800F009FB0321019800F0C4
:105FA00077FA03468DF80F309DF80F3063F07F03CA
:105FB000DBB28DF80F309DF80F301A46032101989F
:105FC00000F0A4FA0490049B002B02D06FF00103B0
:105FD00000E00023184607B05DF804FB00B585B06B
:105FE00001900B468DF803301F238DF80F309DF87C
:105FF00003209DF80F309A4202D96FF0020322E08D
:106000000121019800F044FA03468DF80E309DF806
:106010000E3023F01F038DF80E309DF80E209DF8F2
:10602000033013438DF80E309DF80E301A460121CF
:10603000019800F06BFA0290029B002B02D06FF0E7
:10604000010300E00023184605B05DF804FB00BF23
:1060500000B585B001900B468DF803309DF80330F4
:106060000B2B6FD801A252F823F000BF9D601000E7
:10607000AB601000B9601000C7601000D560100060
:10608000E3601000F1601000FF6010000D6110006F
:106090001B611000296110003761100000238DF88A
:1060A0000F3000238DF80E3053E000238DF80F30B1
:1060B00001238DF80E304CE000238DF80F300223C1
:1060C0008DF80E3045E000238DF80F3003238DF856
:1060D0000E303EE000238DF80F3004238DF80E3093
:1060E00037E000238DF80F3005238DF80E3030E0B7
:1060F00000238DF80F3000238DF80E3029E00023A7
:106100008DF80F3006238DF80E3022E001238DF834
:106110000F3000238DF80E301BE002238DF80F3076
:1061200000238DF80E3014E003238DF80F30002388
:106130008DF80E300DE004238DF80F3000238DF81C
:106140000E3006E000238DF80F3000238DF80E305E
:1061500000BF0921019800F09BF903468DF80D302E
:106160009DF80D3023F00703DAB29DF80F3013438A
:10617000DBB28DF80D309DF80D301A4609210198DB
:1061800000F0C4F90290029B002B02D06FF00103D3
:1061900027E00121019800F07BF903468DF80D30CE
:1061A0009DF80D3003F01F03DAB29DF80E305B014D
:1061B000DBB21343DBB28DF80D309DF80D301A467B
:1061C0000121019800F0A2F90290029B002B02D05D
:1061D0006FF0010305E0019B9DF8032083F8782010
:1061E0000023184605B05DF804FB00BF00B585B07C
:1061F00001900B468DF803300221019800F048F918
:1062000003468DF80F309DF80F3003F07F038DF8B3
:106210000F309DF80330DB01DAB29DF80F301343E5
:10622000DBB28DF80F309DF80F301A46022101982D
:1062300000F06CF90290029B002B02D06FF001037A
:1062400000E00023184605B05DF804FB00000000E4
:1062500010B588B0019000914FF0000100981FF038
:10626000BBFF0346002B01D0009B02E0009B83F0A4
:1062700000430693019800F007FB059005981FF076
:1062800043F903460C461A46234623A1D1E90001EF
:106290001FF0DAFA03460C46184621461FF08CFC24
:1062A00003460493049906981FF082FF0346002BCF
:1062B00002D06FF002032AE04FF0000100981FF0B7
:1062C00095FF0346002B05D000210198FFF78EFFB4
:1062D000079008E001210198FFF788FF0790009BD5
:1062E00083F000430093079B002B01D0079B0EE037
:1062F000049900981FF072FE034618461FF0A6FF8F
:10630000034603930399019800F084FB0023184689
:1063100008B010BDAFF30080CDCCCCCCCCCCFC3FD2
:1063200000B585B001900321019800F0B1F8034653
:106330008DF80F309DF80F3003F07F038DF80F308C
:106340009DF80F301A460321019800F0DFF803464C
:10635000002B14BF01230023DBB2002B02D06FF00F
:10636000010300E00023184605B05DF804FB00BF00
:1063700000B589B00390019200930B468DF80B3065
:1063800000238DF81E30002306934FF0FF313F4865
:1063900019F078F9039800F02BF9039800F0DCF974
:1063A000039800F0A9F99DF80B308DF81730039B86
:1063B0009DF81720114618461EF0A6FA04238DF802
:1063C0001730039B9DF81720114618461EF09CFAC3
:1063D0000346DAB2019B1A70019B1B788DF81F30BF
:1063E000039B03F11400039B93F87C10039B93F829
:1063F0007B30DBB25BB21A4604F062FB0346002B33
:106400000CBF01230023DBB2002B03D0009B012231
:106410001A7002E0009B00221A70039800F09CF9A9
:10642000039800F0F9F89DF81F30002B15D0069B5B
:10643000072B12D09DF81F209DF81E305340DBB271
:1064400003F001038DF81E309DF81F305B108DF8AE
:106450001F30069B01330693E5E7019B1B78DB09A0
:106460008DF816309DF816209DF81E309A4204D102
:10647000064819F017F9002304E0044819F012F94E
:106480006FF00103184609B05DF804FBE845FF3FD3
:1064900000B585B001900B468DF803304FF0FF3109
:1064A000194819F0EFF8019800F0A2F8019800F0EF
:1064B00053F9019800F020F99DF803308DF80F3062
:1064C000019B9DF80F20114618461EF01DFA04236B
:1064D0008DF80F30019B9DF80F20114618461EF0D5
:1064E00013FA03468DF80E30019800F035F9019843
:1064F00000F092F8044819F0D5F89DF80E301846CF
:1065000005B05DF804FB00BFE845FF3F00B585B06E
:1065100001900B468DF8033013468DF802304FF092
:10652000FF31214819F0AEF8019800F061F80198A8
:1065300000F012F9019800F0DFF89DF8033063F0E5
:106540007F038DF80F30019B9DF80F2011461846F0
:106550001EF0DAF9019B9DF80220114618461EF044
:10656000D3F9019800F0F8F8019800F055F89DF87B
:10657000033019460198FFF78BFF03468DF80E3064
:106580009DF80E209DF802309A4204D1064819F079
:1065900089F8002304E0044819F084F86FF001033F
:1065A000184605B05DF804FBE845FF3F00B585B02F
:1065B0000190019B03F11400019B93F87C10019B57
:1065C00093F87B30DBB25BB21A4604F079FA0290A2
:1065D000029B012B03D100238DF80F3002E0012331
:1065E0008DF80F309DF80F30184605B05DF804FBAC
:1065F00000B583B00190019B0022082118461EF0CF
:1066000035F9019B034918461EF048F900BF03B055
:106610005DF804FB20A1070000B587B001900823B6
:10662000059300230493084B0393019B049A059957
:1066300018461EF01BF9019B039918461EF02EF90F
:1066400000BF07B05DF804FB40420F0000B583B007
:106650000190019B14332749184604F0FFF9019B70
:1066600003F11400019B93F87A10019B93F87930A1
:10667000DBB25AB2002304F0C9FA019B03F1140003
:10668000019B93F88210019B93F88130DBB25AB2E0
:10669000002304F0BBFA019B03F11400019B93F863
:1066A0007C10019B93F87B30DBB25AB2012304F0DB
:1066B000ADFA019B03F11400019B93F87E10019B3E
:1066C00093F87D30DBB25AB2002304F09FFA019BAD
:1066D00003F11400019B93F88010019B93F87F3025
:1066E000DBB25AB2002304F091FA00BF03B05DF8A8
:1066F00004FB00BF40420F0000B583B00190019B36
:1067000003F11400019B93F87A10019B93F8793000
:10671000DBB25AB2012304F011FA14201BF0E2FD9F
:1067200006201BF0DFFD019B03F11400019B93F891
:106730007A10019B93F87930DBB25AB2002304F04F
:10674000FDF914201BF0CEFD02201BF0CBFD00BF95
:1067500003B05DF804FB00BF00B583B001900120D9
:106760001BF0C0FD019B03F11400019B93F87A100C
:10677000019B93F87930DBB25AB2012304F0DEF9C1
:1067800014201BF0AFFD06201BF0ACFD00BF03B0D2
:106790005DF804FB00B583B001900B468DF8033023
:1067A00001201BF09FFD9DF80330002B0ED1019BB3
:1067B00003F11400019B93F88010019B93F87F3044
:1067C000DBB25AB2002304F0B9F90DE0019B03F1EA
:1067D0001400019B93F88010019B93F87F30DBB28B
:1067E0005AB2012304F0AAF914201BF07BFD01200A
:1067F0001BF078FD00BF03B05DF804FB00B587B067
:1068000003900B4601928DF80B3005AB00210A4630
:106810001A800A469A709DF80B30002B0CD0012B81
:1068200000D014E0039B93F87D301A460123934077
:10683000019A134301930AE0039B93F87D301A46B3
:1068400001239340DB43019A1340019300BF2823A7
:106850008DF8143003238DF81530019BDBB28DF8D1
:106860001630084B15229A6005AB0322194603988F
:1068700000F062F8034B14229A6000BF07B05DF885
:1068800004FB00BF0070004084B00190019B93F8AE
:1068900078300B2B32D801A252F823F0CD681000CB
:1068A000D3681000D9681000DF681000F16810008C
:1068B000F1681000F7681000F7681000E568100034
:1068C000EB681000F7681000F768100020230393AE
:1068D00015E01023039312E0082303930FE0042331
:1068E00003930CE08023039309E04023039306E025
:1068F0000223039303E00123039300E000BF039B03
:10690000184604B0704700BF84B001900091002386
:106910000393009B0393039B002B14BF01230023CD
:10692000DBB2002B04D000BF039B013B0393F2E7D3
:1069300000BF04B0704700BF00B587B0039002915C
:10694000019200238DF8173000230493049A019BD1
:106950009A4256D22E4B12229A6014210398FFF7C6
:10696000D3FF029A049B13441B78132B18D1284B96
:1069700010229A60264B10229A60254B10229A60B2
:10698000234B11229A60224B10229A60204B102236
:106990009A601F4B11229A601D4B11229A6007E0EA
:1069A0001B49049B5A1C0492029A13441B788B6067
:1069B0000A210398FFF7A8FF154B16229A600521BC
:1069C0000398FFF7A1FF124B1B6803F01003002B85
:1069D00014BF01230023DBB2002B00D0F3E7052115
:1069E0000398FFF791FF0A4B1B6803F00403002B89
:1069F00014BF01230023DBB2002BA7D002238DF8A4
:106A000017309DF81730184607B05DF804FB00BF3B
:106A10000070004000B585B001900091019B1433D7
:106A20000321184604F07EF9029072B60023039306
:106A3000039A009B9A420DD2029A01210198FFF716
:106A4000DDFE029A00210198FFF7D8FE039B013377
:106A50000393EDE762B600BF05B05DF804FB00BF2D
:106A600000B587B003900B468DF80B304649474878
:106A70001DF07EFA01201BF025FC08238DF8143050
:106A800005AA002300930123722140481DF0A0FABB
:106A900005AA00230093022372213C481DF0BEFA90
:106AA00008238DF8143005AA0023009301237221D6
:106AB00036481DF08DFA0346002B14BF0123002336
:106AC000DBB2002B02D06FF0010358E005AA0023CF
:106AD0000093022372212D481DF0A0FA0346002BDB
:106AE00014BF01230023DBB2002B02D06FF001039F
:106AF00045E09DF81430192B03D19DF81530052B76
:106B000002D04FF0FF333AE002238DF814309DF8A5
:106B10000B308DF8153005AA002300930223722153
:106B20001A481DF055FA0346002B14BF0123002319
:106B3000DBB2002B02D06FF0010320E000210398AC
:106B400000F02EF812481BF0A7FB0821039800F074
:106B500027F810490D481DF00BFA9DF80B300E4A2E
:106B600052F823300D4918461FF084F903461846A1
:106B70001FF046FB034618461BF0A4FB00231846F3
:106B800007B05DF804FB00BFA0860100084BFF3F83
:106B90009A99193E40420F000440FF3F00004040D8
:106BA00000B587B003900B468DF80B3000238DF8AD
:106BB00014309DF80B308DF8153072B629492A48EB
:106BC0001DF0D6F905AA002300930223722126485E
:106BD0001DF0FEF90346002B14BF01230023DBB296
:106BE000002B02D06FF0010337E000238DF8143042
:106BF00005AA00230093012372211B481DF0E8F928
:106C00000346002B14BF01230023DBB2002B02D06C
:106C10006FF0010321E005AA0023009301237221F4
:106C200011481DF0FBF90346002B14BF012300237C
:106C3000DBB2002B02D06FF001030EE00B490A48D3
:106C40001DF096F962B69DF814309DF80B209A421B
:106C500001D1002301E04FF0FF33184607B05DF883
:106C600004FB00BFA0860100084BFF3F40420F001D
:106C700000B587B00390029106238DF8143072B6E8
:106C80001D491E481DF074F905AA00230093012335
:106C900072211A481DF09CF90346002B14BF0123F2
:106CA0000023DBB2002B02D06FF0010320E005AA25
:106CB000002300930223722110481DF0AFF9034610
:106CC000002B14BF01230023DBB2002B02D06FF096
:106CD00001030DE00A4909481DF04AF962B69DF822
:106CE00015301B029DF814201A43029B1A600023E2
:106CF000184607B05DF804FBA0860100084BFF3F73
:106D000040420F0000000000F0B587B001900091F4
:106D10000023049302238DF8173000238DF80F30E1
:106D20000DF10F029DF817301946019800F054F844
:106D30000346002B0CBF01230023DBB2002B3DD008
:106D400004AB19460198FFF793FF0346002B0CBFD5
:106D500001230023DBB2002B2ED0049B18461EF02B
:106D6000E3FB04460D469DF80F301A46184B53F8C6
:106D7000223018461EF0EAFB13A3D3E900231EF0CD
:106D800039FC02460B4616461F4600981EF0DEFBF5
:106D900002460B46304639461EF02CFC02460B4696
:106DA000204629461EF050FD03460C461846214653
:106DB0001EF002FF034602E0064B00E0054B1846BA
:106DC00007B0F0BDAFF30080FCA9F1D24D62503F97
:106DD0000440FF3F000080BF00B589B005900B461E
:106DE00003928DF813309DF81330092B37D89DF896
:106DF00013308DF81C3072B61C491D481DF0B8F8D0
:106E000007AA002300930123722119481DF0E0F81E
:106E10000346002B14BF01230023DBB2002B03D059
:106E200062B66FF001031DE0002300930123039A73
:106E300072210F481DF0F2F80346002B14BF012306
:106E40000023DBB2002B03D062B66FF0010309E030
:106E5000084907481DF08CF862B6002302E062B6CC
:106E60006FF00203184609B05DF804FBA08601002C
:106E7000084BFF3F40420F0000B585B003900291E0
:106E8000039B012B17D1029B4FF6FF72934212D145
:106E9000042208210A481DF04DF84FF400330093F6
:106EA000222304220821074803F0B4FD064A0749BB
:106EB00004481DF09BFF00BF05B05DF804FB00BF58
:106EC000084BFF3F104BFF3F0040FF3F75AD1000E8
:106ED00008B54FF6FF710120FFF7CEFF08BD00BFD8
:106EE00000B583B0019002220021094803F0E8FDBB
:106EF0000346012B0CBF01230023DBB2002B01D082
:106F0000012300E00023184603B05DF804FB00BF36
:106F1000744BFF3F00B585B003900291039B012B9A
:106F200012D1029B4FF6FF7293420DD14FF4003302
:106F30000093242304220821054803F06BFD054A31
:106F4000054903481DF052FF00BF05B05DF804FB82
:106F5000744BFF3F0040FF3F75AD100008B54FF682
:106F6000FF710120FFF7D6FF08BD00BF00B583B059
:106F700001900091019B009918461BF0D5FF019BE1
:106F8000184603B05DF804FB00B583B00190009192
:106F9000019B009918461BF0EDFF00BF03B05DF8A0
:106FA00004FB00BF00B583B00190019B18461CF0A4
:106FB00009F80346184603B05DF804FB00B583B03A
:106FC0000190009100990198FFF7DEFF019B1846A0
:106FD00003B05DF804FB00BF00B583B001900198D9
:106FE000FFF7E0FF0346184603B05DF804FB00BF5F
:106FF00000B585B0039002910192094901981EF0F5
:1070000039FF034618461FF021F903461A46029934
:10701000039800F007F800BF05B05DF804FB00BF5F
:107020000024744900B585B0039002910192039B3E
:10703000183302991846FBF769FE019903981DF071
:107040006BFD00BF05B05DF804FB00BF00B583B069
:107050000190019A0121034803F00EFD00BF03B027
:107060005DF804FBDC4BFF3F00B583B0019000915D
:10707000009A3421019800F0B5F80346184603B091
:107080005DF804FB00B583B001900091009A3521B2
:10709000019800F0A7F80346184603B05DF804FB1A
:1070A00000B583B0019000220021044803F008FDE0
:1070B0000346184603B05DF804FB00BFDC4BFF3FFE
:1070C00000B583B00190019B0022102118461DF0ED
:1070D000CDFB019B054918461DF0E0FBC8201BF0C5
:1070E00001F900BF03B05DF804FB00BF90D00300BE
:1070F00000B583B00190019B0022082118461DF0C5
:10710000B5FB019B054918461DF0C8FBC8201BF0C4
:10711000E9F800BF03B05DF804FB00BF40420F0078
:1071200000B583B001901449144803F097FC002384
:1071300007220021114803F069FD012307220021E5
:107140000E4803F0FBFC0023002200210B4803F053
:107150005DFD002300220021084803F0EFFC01231D
:1071600001220121054803F051FDC8201BF0BAF8A7
:1071700000BF03B05DF804FB40420F00DC4BFF3F53
:1071800000B583B0019064201BF0ACF80123072206
:107190000021054803F0D2FCC8201BF0A3F800BF73
:1071A00003B05DF804FB00BFDC4BFF3F00B583B0CC
:1071B0000190012307220021094803F0BFFC64204D
:1071C0001BF090F8002307220021054803F0B6FCCD
:1071D000C8201BF087F800BF03B05DF804FB00BFB8
:1071E000DC4BFF3F00B587B003900B4601928DF852
:1071F0000B300023ADF8163000238DF815304FF01A
:10720000FF31234818F03EFA0398FFF759FF03981F
:10721000FFF7CCFF9DF80B301B029AB2BDF8163079
:1072200013439BB2ADF816309DF815309AB2BDF8F5
:1072300016301343ADF81630039BBDF816201146E7
:1072400018461DF061FB0346ADF81230C8201BF054
:1072500049F80398FFF794FF0398FFF749FFBDF83B
:10726000123003F40053002B05D0094818F01AFA25
:107270004FF0FF3308E0BDF81230DAB2019B1A700C
:10728000034818F00FFA0023184607B05DF804FB16
:10729000E845FF3F00B585B001900B468DF80330FF
:1072A00013468DF802300023ADF80E304FF0FF3159
:1072B000244818F0E7F90198FFF702FF0198FFF75B
:1072C00075FFBDF80E306FEA43436FEA5343ADF8E4
:1072D0000E309DF803301B029AB2BDF80E301343F6
:1072E0009BB2ADF80E309DF802309AB2BDF80E3068
:1072F0001343ADF80E30019BBDF80E201146184621
:107300001DF002FB0346ADF80C30C8201AF0EAFF6E
:107310000198FFF735FF0198FFF7EAFEBDF80C3042
:1073200003F40053002B05D0064818F0BBF94FF0CA
:10733000FF3303E0034818F0B5F90023184605B001
:107340005DF804FBE845FF3F00B585B001900846B5
:1073500011461A4603468DF803300B468DF802306D
:1073600013468DF8013000238DF80F309DF8013061
:10737000072B02D96FF0010340E00DF10F031A460D
:1073800000210198FFF72EFF0346002B0CBF0123BD
:107390000023DBB2002B02D04FF0FF332EE09DF82C
:1073A000023083F00103DBB2002B10D09DF80130D6
:1073B000012202FA03F3DBB2DB43DAB29DF80F30AD
:1073C000DBB21340DBB2DBB28DF80F300DE09DF87D
:1073D0000130012202FA03F3DAB29DF80F30DBB27A
:1073E0001343DBB2DBB28DF80F309DF80F209DF810
:1073F000033019460198FFF74DFF0346184605B0C4
:107400005DF804FB00B583B0019001230022002148
:10741000034803F093FB00BF03B05DF804FB00BF1B
:10742000DC4BFF3F00B583B0019000230022002118
:10743000034803F083FB00BF03B05DF804FB00BF0B
:10744000DC4BFF3F00B585B001900B468DF8033053
:10745000002303930198FFF723FE0346002B0CBF84
:1074600001230023DBB2002B08D09DF80320072363
:1074700000210198FFF768FF03460EE00198FFF72F
:10748000D1FF9DF80320072300210198FFF75CFF3F
:1074900003900198FFF7B6FF039B184605B05DF80F
:1074A00004FB00BF84B00190009100238DF80F30E1
:1074B000009BB3F5C87F10D3009B43F290329342F8
:1074C0000BD8009BA3F5C873284AA2FB03239B0992
:1074D000DBB204338DF80F3043E0009B43F290326F
:1074E000934211D9009B44F2C04293420CD8009BB6
:1074F000A3F54E53103B1D4AA2FB0323DB09DBB26D
:1075000044338DF80F302CE0009B44F2C04293428C
:1075100011D9009B45F6C05293420CD8009BA3F5AD
:107520008943403B114AA2FB03231B0ADBB24F33C2
:107530008DF80F3015E0009B45F6C052934210D9EC
:10754000009B49F6404293420BD8009BA3F5BB43F6
:10755000403B074AA2FB0323DB09DBB257338DF81C
:107560000F309DF80F30184604B070471F85EB515F
:10757000D34D621000B585B00190009100238DF8C5
:107580000F30009BB3F5C87F04D3009B49F64042FF
:10759000934202D94FF0FF330EE000990198FFF7B4
:1075A00081FF03468DF80F309DF80F301A461621E3
:1075B0000198FFF76FFE0346184605B05DF804FB1F
:1075C00008B50B48FFF708FD03464FF000011846C9
:1075D0001EF0E4FD0346002B02D04FF07E5301E085
:1075E0004FF0000319460248FFF7E8FC00BF08BD52
:1075F000404CFF3F034B1B680133024A136000BF3E
:10760000704700BFA04CFF3F064B1A6813461B0192
:107610009B1A9B001A46044B1A60024B00221A6008
:1076200000BF7047A04CFF3FA44CFF3F00B583B0A4
:107630000190084908481CF09FFD019B44334FF01E
:107640007E5206491846FFF7D3FC00BF03B05DF831
:1076500004FB00BFF5751000484CFF3F0976100091
:1076600082B00190024B1B68184602B0704700BF01
:10767000A44CFF3F00B583B001900922002101987E
:10768000FFF708FEA72202210198FFF703FE0B2255
:1076900004210198FFF7FEFD182207210198FFF74A
:1076A000F9FD0F220B210198FFF7F4FD3022102184
:1076B0000198FFF7EFFD142211210198FFF7EAFD71
:1076C0001E2212210198FFF7E5FD282213210198BF
:1076D000FFF7E0FD322214210198FFF7DBFD3C2289
:1076E00015210198FFF7D6FD462216210198FFF7D4
:1076F000D1FD542217210198FFF7CCFD5722182104
:107700000198FFF7C7FD5A2219210198FFF7C2FD22
:107710005F221A210198FFF7BDFD00BF03B05DF89D
:1077200004FB00BF08B501220121034803F0C8F99A
:107730000346184608BD00BFDC4BFF3F08B5FFF706
:10774000F1FF0346002B0CBF01230023DBB2002B0B
:1077500005D0044B1B680121184618F041F800BF02
:1077600008BD00BFD84BFF3F00B58BB00590174850
:10777000FFF76CFC6B464FF0FF320121184618F002
:107780003FF807AB6A4607CA83E80700089B03F087
:107790000103002B16D04FF0FF310D4817F072FF98
:1077A0000C4B1B680321184618F006F80A4B1B689F
:1077B0009847084B1B680021184617F0FDFF044846
:1077C00017F070FF142018F02BF8D3E73D77100066
:1077D000E845FF3FD84BFF3F7845FF3F10B586B0E7
:1077E0000390029100238DF817300398FFF798FC5F
:1077F0000398FFF765FC0398FFF7C2FC0398FFF7B7
:1078000077FC0398FFF736FF0DF117031A460021A6
:107810000398FFF7E7FC9DF81730092B02D04FF0D3
:10782000FF3329E0164B07229A63039B1433154A52
:1078300015491846FFF7DCFB029B002B1AD050209D
:107840001DF0DBFA03461C46002301934FF400634E
:107850000093002300220D49204617F03FFF0C4BF8
:107860001C600B4B1B68002B04D00A4A029B136060
:10787000002301E04FF0FF33184606B010BD00BFF3
:1078800000C00140CDCC4C3DC1751000697710009F
:10789000D84BFF3F7845FF3F00B585B0039002917C
:1078A000039B012B20D1029B4FF6FF7293421BD109
:1078B0004FF4003300933623042208210C4803F0D0
:1078C000A9F80C4A0C490A481DF090FA80210B488F
:1078D000FFF74CFB4FF4804109481CF0C5FB054AFB
:1078E000084907481DF082FA00BF05B05DF804FBA7
:1078F000DC4BFF3F0040FF3F75AD1000404CFF3FA9
:10790000484CFF3FE140120008B54FF6FF710120DF
:10791000FFF7C2FF08BD00BF00B585B0039002911C
:1079200001920093039B029A1A60019A039B5A608A
:10793000009A039B9A600A490A4803F08FF80023D3
:1079400001220021074803F061F9012301220021EF
:10795000044803F0F3F8039B184605B05DF804FBF8
:1079600040420F00A84CFF3F82B00190019B184697
:1079700002B0704710B586B0039002910192009357
:10798000029A019B1A44039B5B689A4202D8009BAF
:10799000002B01D100235BE04FF0FF312E4817F0A0
:1079A00071FE0023012200212C4803F0C7F81420A7
:1079B0001AF098FC039B1B681B681B68039A1268EB
:1079C000032110469847039B1B681B681B68039A9A
:1079D0001068029A120C11469847039B1B681B689B
:1079E0001B68039A1068029A120AD2B2114698478D
:1079F000039B1B681B681B68039A12680299C9B233
:107A00001046984700230593059A019B9A4212D28B
:107A1000009A059BD418039B1B681B681B68039A7C
:107A200012680021104698470346DBB22370059B7D
:107A300001330593E8E714201AF054FC01230122D6
:107A40000021064803F07AF8034817F02BFE009B4C
:107A5000184606B010BD00BFE845FF3FA84CFF3FE9
:107A600000B589B00390029101920093029A019BA4
:107A70001A44039B5B689A4201D901233AE0002330
:107A80000793079A019B9A4233D2039B9968029A03
:107A9000079B1344039A9268B3FBF2F002FB00F2D7
:107AA0009B1ACB1A0693069A079B1A44019B9A428B
:107AB00003D9019A079BD31A0693029A079BD11800
:107AC0000698009A079B13440246039800F016F8A4
:107AD00003468DF817309DF8173083F00103DBB2B1
