:020000040010EA
:1020000000D8FF3F714B1200AD4B1200AF4B1200D6
:10201000B14B1200B34B1200B54B12000000000090
:102020000000000000000000000000001119120074
:10203000B94B1200000000007B191200B119120008
:1020400045371200B1381200BF4B1200D9311200CF
:10205000BF4B1200BF4B1200DD231200BF4B12001A
:10206000BF4B1200BF4B1200BF4B1200BF4B120000
:10207000BF4B1200BF4B1200BF4B1200BF4B1200F0
:10208000BF4B1200BF4B1200BF4B1200BF4B1200E0
:1020900000D8FF3F714B1200AD4B1200AF4B120046
:1020A000B14B1200B34B1200B54B12000000000000
:1020B00000000000000000000000000011191200E4
:1020C000B94B1200000000007B191200B119120078
:1020D00045371200B1381200BF4B1200D93112003F
:1020E000BF4B1200BF4B1200DD231200BF4B12008A
:1020F000BF4B1200BF4B1200BF4B1200BF4B120070
:10210000BF4B1200BF4B1200BF4B1200BF4B12005F
:10211000BF4B1200BF4B1200BF4B1200BF4B12004F
:1021200010B5054C237833B9044B13B10448AFF311
:1021300000800123237010BD5443FF3F00000000C6
:1021400084041300084B10B51BB108490848AFF3CD
:1021500000800848036803B910BD074B002BFBD073
:10216000BDE81040184700BF000000005843FF3F83
:10217000840413005443FF3F0000000000B583B007
:102180000190019802F02EF80346184603B05DF85E
:1021900004FB00BF00B583B001F0A4FE0190012351
:1021A000184603B05DF804FB00B585B001901848EF
:1021B00002F090FBFFF7EEFF0346002B21D001F069
:1021C00091FE0390039B03F5807318460AF02AFCE6
:1021D0000346002B15D0039B03F580731B78002B5F
:1021E0000FD0039B03F5807319460A4802F072FB77
:1021F000039B03F580731946019809F099FE0023AB
:1022000001E04FF0FF33184605B05DF804FB00BF56
:1022100048CC120060CC120000B5ADF5057D01ABD5
:102220001860134802F056FB01F05CFE014603AB58
:102230004FF40072184624F042FD01AB1B681A6986
:1022400003AB03F580731146184626F099FB03ABE8
:102250004FF40071184601F04FFE839083990548B2
:1022600002F038FB00BF0DF5057D5DF804FB00BFF3
:1022700078CC12008CCC120000B585B001901E48BD
:1022800002F028FBFFF786FF0346002B2DD001F05C
:1022900029FE0390039B002B05D1184802F01AFB7E
:1022A0004FF0FF3323E0039B03F5A07318460AF0B9
:1022B000B9FB0346002B05D0039B03F5A0731B78E5
:1022C000002B02D14FF0FF3311E0039B03F5A07305
:1022D00019460B4802F0FEFA039B03F5A07319465A
:1022E000019809F073FA002301E04FF0FF3318461C
:1022F00005B05DF804FB00BF9CCC1200B0CC12000E
:10230000C4CC120000B5ADF5037D01AB186001F03F
:10231000E9FD014602AB4FF40072184624F0CFFCF1
:1023200001AB1B68DA6802AB03F5A07311461846CF
:1023300026F026FB02AB4FF40071184601F0DCFDDD
:1023400000BF0DF5037D5DF804FB00BF00B585B04F
:1023500001900023039303AB1946019801F092FF0B
:102360000346002B01DA00231DE0039B104A136093
:10237000104B0F4A1A600F4B00225A600E4A019B05
:1023800013600D4B0D4A5A600B4B02229A600A4BA8
:102390000422DA60084B074A1A61074B1B691B6865
:1023A000054A5361044B184605B05DF804FB00BFB5
:1023B0007043FF3F7443FF3F7C43FF3F9443FF3F25
:1023C00000B585B0039002910192019A0299039899
:1023D00001F070FF0346184605B05DF804FB00BF2E
:1023E00000B583B00190019801F0D6FF00BF03B0A3
:1023F0005DF804FB00B585B0039002910192009353
:10240000019A0299039801F0F9FF0346184605B0B6
:102410005DF804FB00B587B0059004910392029328
:10242000099B0093089B039A0499059802F03EF8D3
:102430000346184607B05DF804FB00BF00B585B041
:102440000390029101920093019A0299039802F07D
:1024500001F80346184605B05DF804FB00B587B0E7
:102460000590049103920293099B0093089B039AA1
:102470000499059802F06CF80346184607B05DF819
:1024800004FB00BF00B585B0039002910192019A50
:102490000299039802F0B6F80346184605B05DF8B5
:1024A00004FB00BF00B587B005900491039202932E
:1024B000089B0093029B039A0499059802F0E2F8A6
:1024C0000346184607B05DF804FB00BF10B586B0A0
:1024D000019000910CF06EF90590009B0493019B14
:1024E000DB6818460CF03CF903461A462249059869
:1024F0000CF0C2F9049B1B68184622F001FF03464A
:102500000C46184621460CF03BF903461A461B4977
:1025100005980CF0B1F9049B5B68184622F002FFA5
:1025200003460C46184621460CF02AF903461A4683
:10253000134905980CF0A0F9049B9B68184622F0FB
:10254000DFFE03460C46184621460CF019F90346F7
:102550001A460C4905980CF08FF905980CF018F8FC
:1025600003900399084802F0B5F905980CF03CF87F
:10257000039B184606B010BDD8CC1200E4CC120064
:10258000ECCC1200F4CC1200FCCC120000B583B0ED
:102590000190074A019B1A600023002B02D001988A
:1025A00022F015FB019B184603B05DF804FB00BF49
:1025B00080D0120000B583B001900198FFF7E6FFCC
:1025C000019822F004FB019B184603B05DF804FB60
:1025D00000B583B00190074A019B1A600023002BCD
:1025E00002D0019822F0F3FA019B184603B05DF87F
:1025F00004FB00BF08FB120000B583B001900198F6
:10260000FFF7E6FF019822F0E2FA019B184603B0BB
:102610005DF804FB00B583B00190019B14331846AC
:1026200008F028FC019B1846FFF7D2FF019B1846D3
:1026300003B05DF804FB00BF10B582B00190094AF9
:10264000019B1A60019B1C1D0021204603F016FC13
:1026500004F184030121184603F010FC019B184685
:1026600002B010BD70D0120000B585B001900B46CD
:102670008DF803309DF8032013465B0113449B0043
:10268000019A13440433184603F078FC0390039B2B
:10269000002B06D00399244802F01CF94FF0FF33B9
:1026A0003DE0224802F016F99DF8032013465B0135
:1026B00013449B00019A13440433184603F0EAFFC5
:1026C00003460393039B012B03D1194802F002F93F
:1026D00002E0184802F0FEF89DF8032013465B0163
:1026E00013449B00019A134404330921184603F054
:1026F000E9FC0390039B002B06D003990E4802F0DF
:10270000E9F84FF0FF330AE00C4802F0E3F89DF8D7
:10271000033003221946019800F062F80346184678
:1027200005B05DF804FB00BF0CCD120054CD1200C3
:1027300090CD1200D8CD1200F8CD120054CE120068
:1027400010B582B00190134A019B1A6000210198D4
:1027500000F030F80121019800F02CF8019B0433BF
:10276000002B0CD0019B043303F58474019B0433CC
:102770009C4204D0843C2046FFF74CFFF6E7002340
:10278000002B02D0019822F022FA019B184602B0D9
:1027900010BD00BF70D0120000B583B00190019849
:1027A000FFF7CEFF019822F012FA019B184603B002
:1027B0005DF804FB00B583B001900B468DF8033043
:1027C0009DF8032013465B0113449B00019A1344B8
:1027D0000433184603F018FE00BF03B05DF804FB95
:1027E00000B585B001900B468DF8033013468DF887
:1027F00002309DF8032013465B0113449B00019AAD
:10280000134404339DF802201146184603F094FC4B
:102810000390039B002B06D00399074802F05AF857
:102820004FF0FF3303E0054802F054F80023184648
:1028300005B05DF804FB00BFA4CE1200F4CE120078
:1028400010B586B003900B4601928DF80B309DF8C1
:102850000B2013465B0113449B00039A13441C1D79
:10286000019823F09FF903461946204603F064FDC2
:102870000590059B002B07D0059A0199064802F0A8
:1028800029F84FF0FF3304E00199044802F022F8E0
:102890000023184606B010BDBCCF120000D01200B5
:1028A00010B582B00190054C054B9C4204D0183CF9
:1028B000204622F0E0F9F7E702B010BD3045FF3FB7
:1028C000B043FF3FF0B589B003900291039B012B09
:1028D00040F08D80029B4FF6FF72934240F087805C
:1028E00004AB184622F088F904AB1A464149424825
:1028F00022F0ECF904AB184622F07FF93F4A404938
:102900003D4822F05FF93F4B07241E46B4F1FF3FDC
:102910000ED0334601251F46B5F1FF3F05D038469E
:1029200022F0A2F91837013DF6E73036013CEDE719
:10293000324A3549002022F045F905AB184622F00D
:102940005BF905AB1A462B49304822F0BFF905ABBD
:10295000184622F052F9294A29492C4822F032F926
:1029600006AB184622F048F906AB1A46214928481A
:1029700022F0ACF906AB184622F03FF91F4A204975
:10298000234822F01FF907AB184622F035F907ABB0
:102990001A4618491F4822F099F907AB184622F049
:1029A0002CF9164A16491B4822F00CF94FF0FF3358
:1029B0000093102340222021174821F00BFE0F4ADC
:1029C0001649154822F0FEF800230222012114487E
:1029D00021F04AFD094A1349114822F0F3F8124840
:1029E0001CF016FD054A11490F4822F0EBF800BF14
:1029F00009B0F0BD64D012009843FF3F0040FF3F94
:102A0000774C1200B043FF3FA12810003045FF3F34
:102A10004845FF3F6045FF3F7C45FF3FD125100003
:102A20009045FF3F312A1000E845FF3F99F411001F
:102A300000B583B001900E4A019B1A600D4A019BBC
:102A40001A640D4A019B5A64019B4033184621F0D9
:102A50008BFE019B1846FFF799FD0023002B02D047
:102A6000019822F0B4F8019B184603B05DF804FB0E
:102A7000ACFA1200C4FA1200F8FA1200A0F14000F9
:102A8000D6E700BFA0F14400D2E700BF00B583B095
:102A900001900198FFF7CCFF019822F098F8019B74
:102AA000184603B05DF804FBA0F14000EEE700BF5C
:102AB000A0F14400EAE700BF08B54FF6FF7101201E
:102AC000FFF700FF08BD00BF00B583B00190019B78
:102AD000184621F0E3FF074A019B1A60019B183357
:102AE0000021184600F00AF9019B184603B05DF872
:102AF00004FB00BF68FB120000B583B001900A4AD6
:102B0000019B1A60019821F0E1FE019B184621F01B
:102B1000F9FF0023002B02D0019822F058F8019B06
:102B2000184603B05DF804FB68FB120000B583B0E3
:102B300001900198FFF7E0FF019822F048F8019B0F
:102B4000184603B05DF804FB00B585B00390039808
:102B50004FF0FF33009310234022202121F03AFD53
:102B6000039B14331846FFF7AFFF039B443318460B
:102B7000FFF7AAFF039B184605B05DF804FB00BFF2
:102B800000B583B000238DF80730174801F0A2FE8E
:102B90000DF107031946154804F0DAFA9DF80730DD
:102BA0001946134801F096FE00238DF807300DF109
:102BB000070319460D4804F0D9FA9DF80730194665
:102BC0000C4801F087FE00238DF80730074804F019
:102BD0009DFC14201FF062FA044804F087FC00BF3B
:102BE00003B05DF804FB00BF88D01200FC45FF3F36
:102BF000A4D01200B4D0120082B00190034A019B0D
:102C00001A60019B184602B0704700BFF4D0120052
:102C100000B583B00190074A019B1A600023002B86
:102C200002D0019821F0D3FF019B184603B05DF854
:102C300004FB00BFF4D0120000B583B001900198EE
:102C4000FFF7E6FF019821F0C2FF019B184603B091
:102C50005DF804FB00B583B001900D490D4804F008
:102C600031FE0346002B14BF01230023DBB2002BEF
:102C700005D0094801F02EFE4FF0FF3303E0054870
:102C800004F048FD0023184603B05DF804FB00BFC4
:102C9000812B1000FC45FF3FC4D0120000B585B069
:102CA0000190009101210C4804F040FC009B194662
:102CB000094804F0D3FC084804F018FC064804F066
:102CC00043FD034603930399044801F003FE0023E8
:102CD000184605B05DF804FBFC45FF3FDCD0120050
:102CE00000B583B00190044804F010FC002318469E
:102CF00003B05DF804FB00BFFC45FF3F00B583B0A7
:102D0000019000910099019800F006F8019B184687
:102D100003B05DF804FB00BF82B001900091019BFD
:102D2000009A1A60019B00225A6100BF02B07047EE
:102D300010B582B00190054C054B9C4204D0183C64
:102D4000204621F098FFF7E702B010BD3045FF3F65
:102D5000B043FF3F00B583B00190019B4433184658
:102D6000FFF7CAFE019B14331846FFF7C5FE019B0F
:102D70001846FFF72DFC019B184603B05DF804FBD5
:102D8000F0B589B003900291039B012B40F0958030
:102D9000029B4FF6FF72934240F08F8004AB1846BF
:102DA00021F02AFF04AB1A464549464821F08EFF20
:102DB00004AB184621F021FF434A4449414821F021
:102DC00001FF434B07241E46B4F1FF3F0ED03346AC
:102DD00001251F46B5F1FF3F05D0384621F044FFDD
:102DE0001837013DF6E73036013CEDE7364A394900
:102DF000002021F0E7FE05AB184621F0FDFE05ABF3
:102E00001A462F49344821F061FF05AB184621F0DE
:102E1000F4FE2D4A2D49304821F0D4FE06AB184669
:102E200021F0EAFE06AB1A4625492C4821F04EFF58
:102E300006AB184621F0E1FE234A2449274821F039
:102E4000C1FE07AB184621F0D7FE07AB1A461C4956
:102E5000234821F03BFF07AB184621F0CEFE1A4A6B
:102E60001A491F4821F0AEFE4FF0FF3300931023A4
:102E7000402220211B4821F0ADFB134A1A49194872
:102E800021F0A0FE002302220121184821F0ECFAD3
:102E90000D4A1749154821F095FE16481CF0B8FA5E
:102EA000094A1549134821F08DFE1448FFF74CFEDE
:102EB000054A1349114821F085FE00BF09B0F0BD55
:102EC000E8D012009843FF3F0040FF3F774C1200CC
:102ED000B043FF3F312D10003045FF3F4845FF3FD5
:102EE0006045FF3F7C45FF3FD12510009045FF3FE7
:102EF000312A1000E845FF3F99F41100FC45FF3FDF
:102F0000552D100008B54FF6FF710120FFF738FF6F
:102F100008BD00BF00B585B0039003984FF0FF33A4
:102F2000009310234022202121F054FB039B03F146
:102F300014004FF0FF3300932A230422082107F0E6
:102F4000E9FD039B184605B05DF804FB00B583B0AE
:102F50000190019B1433184607F08CFF019B184623
:102F6000FFF736FB019B184603B05DF804FB00BF7A
:102F700000B583B00190064A019B1A60019B04339F
:102F80001846FFF7C7FF019B184603B05DF804FB26
:102F90007CD6120000B583B001900D4A019B1A60E7
:102FA0000121019800F0CEF80221019800F0CAF842
:102FB000019B04331846FFF7C9FF0023002B02D002
:102FC000019821F004FE019B184603B05DF804FB54
:102FD0007CD6120000B583B001900198FFF7DAFFAC
:102FE000019821F0F4FD019B184603B05DF804FB45
:102FF00000B585B00190019B002283F87C20019BE5
:103000000433184601F092FE0390039B002B06D078
:1030100003991B4801F05EFC4FF0FF332CE0194888
:1030200001F058FC019B0433174A1849184602F076
:1030300013F80390039B002B06D00399144801F06A
:1030400049FC4FF0FF3317E0124801F043FC019BAD
:1030500004330121184601F005FF0390039B002B68
:1030600006D003990C4801F035FC4FF0FF3303E024
:103070000A4801F02FFC0023184605B05DF804FB58
:10308000FCD0120030D112000000C04000003442D9
:1030900058D1120098D11200CCD1120020D21200C7
:1030A00000B585B001900B468DF80330019B0433C9
:1030B0009DF803201146184602F06EFB0390039B17
:1030C000002B06D003991B4801F004FC4FF0FF339E
:1030D0002CE0194801F0FEFB019B93F87C30002B9B
:1030E00012D1019B0433184602F0FAF80390039BB7
:1030F000002B06D00399114801F0ECFB4FF0FF3391
:1031000014E00F4801F0E6FB019B93F87C305AB2C3
:103110009DF80330012B01D1012300E0022313436A
:103120005BB2DAB2019B83F87C200023184605B01D
:103130005DF804FB18D4120060D412009CD4120075
:10314000D4D4120000B585B001900B468DF8033041
:10315000019B04339DF803201146184602F08AFBB8
:103160000390039B002B06D003991C4801F0B2FB8F
:103170004FF0FF332EE01A4801F0ACFB019B93F8AF
:103180007C305AB29DF80330012B02D16FF001035D
:1031900001E06FF0020313405BB2DAB2019B83F8E7
:1031A0007C20019B93F87C30002B12D1019B0433CF
:1031B000184602F0C9F80390039B002B06D0039930
:1031C000084801F087FB4FF0FF3303E0064801F0A9
:1031D00081FB0023184605B05DF804FB00D5120002
:1031E00048D5120084D51200BCD5120000B587B0B6
:1031F00003900B4601928DF80B30039B0433019A28
:1032000092B29DF80B10184601F0D2FE0590059B76
:10321000002B06D0059A0199074801F05BFB0023BB
:1032200005E00199054801F055FB4FF0FF331846C2
:1032300007B05DF804FB00BFE8D5120030D61200DD
:1032400010B582B00190054C054B9C4204D0183C4F
:10325000204621F010FDF7E702B010BD3045FF3FDA
:10326000B043FF3FF0B589B003900291039B012B5F
:1032700040F08D80029B4FF6FF72934240F08780B2
:1032800004AB184621F0B8FC04AB1A464149424849
:1032900021F01CFD04AB184621F0AFFC3F4A404929
:1032A0003D4821F08FFC3F4B07241E46B4F1FF3F01
:1032B0000ED0334601251F46B5F1FF3F05D03846F5
:1032C00021F0D2FC1837013DF6E73036013CEDE73E
:1032D000324A3549002021F075FC05AB184621F033
:1032E0008BFC05AB1A462B49304821F0EFFC05ABAF
:1032F000184621F082FC294A29492C4821F062FC19
:1033000006AB184621F078FC06AB1A46214928483E
:1033100021F0DCFC06AB184621F06FFC1F4A204967
:10332000234821F04FFC07AB184621F065FC07ABA2
:103330001A4618491F4821F0C9FC07AB184621F06E
:103340005CFC164A16491B4821F03CFC4FF0FF3349
:103350000093102340222021174821F03BF90F4A07
:103360001649154821F02EFC0023022201211448A1
:1033700021F07AF8094A1349114821F023FC124838
:103380001CF046F8054A11490F4821F01BFC00BF0C
:1033900009B0F0BD70D612009843FF3F0040FF3FD8
:1033A000774C1200B043FF3F413210003045FF3FE1
:1033B0004845FF3F6045FF3F7C45FF3FD12510005A
:1033C0009045FF3F312A1000E845FF3F99F4110076
:1033D00008B54FF6FF710120FFF744FF08BD00BF9D
:1033E00000B583B001900091019B1A460023136041
:1033F00053609360D36013615361019B0099184639
:103400001EF034FD019B184603B05DF804FB00BFBD
:1034100082B00190019B184602B0704700B585B09C
:10342000039003984FF0FF33009310234022202194
:1034300021F0D0F8039B14334FF0FF311846FFF70B
:10344000CFFF039B03F134004FF0FF3300932023A1
:103450000422082107F05EFB039B184605B05DF8C7
:1034600004FB00BF0000000010B584B0019001997A
:103470002B4801F02FFA01980BF060F803902949CE
:1034800003980BF0E1F80290029B002B02D14FF061
:10349000FF333AE0029BD3E906014FF000024FF000
:1034A000000322F0FBF90346002B03D01E48FFF770
:1034B00017FC26E0029BD3E9060115A3D3E90023FC
:1034C00022F0F6F90346002B0AD1029BD3E906014C
:1034D00011A3D3E9002322F009FA0346002B02D0FE
:1034E0004FF0FF3311E0029B03F11804D4E90034DC
:1034F0001846214622F004FA034619460A48FFF707
:10350000CDFB03980BF070F80023184604B010BDF3
:10351000000000000030B14000000000002CCA4054
:1035200084D6120090D61200EC47FF3F10B586B04B
:1035300001900199354801F0CDF901980AF0FEFF9C
:103540000590334905980BF07FF80490049B002BFD
:1035500002D14FF0FF3356E02E4905980BF074F876
:103560000390039B002B02D14FF0FF334BE0039BF2
:10357000D3E906014FF00002274B22F099F90346E8
:10358000002B0BD1039BD3E906014FF000024FF053
:10359000804322F0ABF90346002B02D04FF0FF33FB
:1035A00031E0039BD3E9060101231C464FF00002E2
:1035B000194B22F073F90346002B01D000231C465F
:1035C000E3B28DF80B309DF80B3019461348FFF726
:1035D0004BF8049B03F11804D4E900341846214643
:1035E00022F08EF902469DF80B3019460B48FFF782
:1035F00027F99DF80B3019460848FFF7DBF80598C6
:103600000AF0F2FF0023184606B010BD84D612005F
:1036100094D612009CD612000000F03FF047FF3F06
:1036200010B586B0019001993B4801F053F901981B
:103630000AF084FF0590394905980BF005F80490CD
:10364000049B002B02D14FF0FF3361E0049BD3E9D0
:1036500006014FF00002324B22F02AF90346002BFC
:103660000BD1049BD3E906014FF000024FF08043D9
:1036700022F03CF90346002B02D04FF0FF3347E025
:10368000049BD3E906014FF00002254B22F006F916
:103690000346002B01D0012300E002238DF80F30F8
:1036A000204905980AF0D0FF0290029B002B02D11E
:1036B0004FF0FF332CE0029BD3E906014FF00002EC
:1036C0004FF0000322F012F90346002B16D09DF8AC
:1036D0000F3019461448FFF7E3FC029B03F118046E
:1036E000D4E900341846214622F00AF902469DF832
:1036F0000F3019460C48FFF779FD05E09DF80F30B3
:1037000019460948FFF71EFD05980AF06DFF0023D2
:10371000184606B010BD00BF84D612009CD6120019
:103720000000F03FA4D61200FC48FF3F30B599B02E
:10373000AE4804F073FBAE49AC4804F0A9FB4FF06F
:103740007E501EF095FCAB4801F0C4F898238DF82C
:1037500048304F238DF84930EE238DF84A3000234E
:103760008DF84B30A1238DF84C3003238DF84D306C
:1037700012AB1946A04804F0D3FD1590159B002B01
:1037800013D19D4804F096FE034619469B4801F06C
:10379000A1F89B49954804F07BFB974804F0F4FDA1
:1037A0001590159B002B3BD10AE01599954801F027
:1037B00091F895498D4804F06BFB4FF0FF338DE194
:1037C0008D4804F005FE04468B4804F027FE0546AC
:1037D000894804F049FE03462A4621468B4801F0F9
:1037E00079F8824804F048FB0123012288497F4888
:1037F00004F060FB804804F0EBFD01460123022247
:103800007A4804F057FB0221824803F09DF90346F1
:10381000002B14BF01230023DBB2002B12D00AE0DF
:1038200015997D4801F056F87C49704804F030FB4A
:103830004FF0FF3352E17A496C4804F029FB4FF016
:10384000FF334BE17749694804F022FB754801F0EA
:1038500041F84FF07E501EF00BFC7348FFF7C8FB99
:103860007248FFF7F7F9002001F08AF90346119337
:10387000119B19466E4801F02DF807F009FB002056
:1038800001F07EF90346119311AB184622F028FC93
:1038900003461946674801F01DF86749534804F08C
:1038A000F7FA09AB184607F0C1FE0346DB0FDBB29F
:1038B000002B07D0614801F00DF84FF47A701EF02C
:1038C000EDFBEEE75E49494804F0E2FA08AA09ABCD
:1038D0001146184607F082FD0346DB0FDBB2002BD2
:1038E00007D0584800F0F6FF4FF47A701EF0D6FB70
:1038F000ECE7554800F0EEFF54493C4804F0C8FAA4
:1039000003AA09AB1146184607F0BCFE0346DB0FBD
:10391000DBB2002B07D04E4800F0DCFF4FF47A708A
:103920001EF0BCFBECE76B4619463A4803F014FA6C
:103930004849384803F05CFA0346019346492B484E
:1039400004F0A6FA6A4603AB1146184607F024FEB7
:103950000346DB0FDBB2002B03D0404800F0BAFF78
:10396000F0E708AA03A909AB184608F0CBFC034608
:10397000DB0FDBB2002B07D0394800F0ABFF4FF470
:103980007A701EF08BFBECE73649374807F0A8FF4A
:103990003649374807F0A4FF3649374807F0A0FFFB
:1039A00008F0CCFC002317930A231493334803F048
:1039B0000BFB16906B461946164803F0CDF92549C6
:1039C000144803F015FA034601932C4803F0FCFA5F
:1039D00003460293029A169B9A4204D1179B5A1CE3
:1039E0001792092B4CDD01234BE000BF7046FF3FCF
:1039F000A8D61200B8D612000847FF3FCCD6120056
:103A0000E4D61200ECD6120008D7120020D712001C
:103A10003CD71200E447FF3F44D7120064D712009E
:103A20007CD7120098D71200FC48FF3FEC47FF3FBD
:103A3000B8D71200C8D71200D4D71200E8D71200A6
:103A400008D8120020D812003CD812004CD812001E
:103A50005CD812006666F6407CD8120090D812003E
:103A6000A4D812002D351000B8D81200213610004D
:103A7000C0D8120069341000C4D81200E847FF3FD4
:103A80000023002B25D000231793029B16936A4630
:103A900003AB1146184608F07FFC0346DB0FDBB290
:103AA000002B16D00F4800F015FF08F039FC08AACB
:103AB00003A909AB184608F025FC0346DB0FDBB26F
:103AC000002B04D04FF47A701EF0E8FAEFE708F00C
:103AD00035FC4FF4FA7008F051FC6BE7184619B04A
:103AE00030BD00BFCCD8120010B582B00190054C9B
:103AF000054B9C4204D0183C204621F0BCF8F7E767
:103B000002B010BD3045FF3FB043FF3F00B583B06A
:103B10000190019B3433184607F0ACF9019B18461D
:103B2000FEF756FD019B184603B05DF804FB00BF8D
:103B300000B583B00190019B2433184607F09AF931
:103B4000019B184603B05DF804FB00BF00B583B0CD
:103B50000190019B1846FFF7EBFF019B184603B04D
:103B60005DF804FBF0B589B003900291039B012B33
:103B700040F0B880029B4FF6FF72934240F0B28053
:103B800004AB184621F038F804AB1A465749584898
:103B900021F09CF804AB184621F02FF8554A5649FD
:103BA000534821F00FF8554B07241E46B4F1FF3F50
:103BB0000ED0334601251F46B5F1FF3F05D03846EC
:103BC00021F052F81837013DF6E73036013CEDE7B9
:103BD000484A4B49002020F0F5FF05AB184621F07C
:103BE0000BF805AB1A464149464821F06FF805AB82
:103BF000184621F002F83F4A3F49424820F0E2FFD0
:103C000006AB184620F0F8FF06AB1A4637493E4887
:103C100021F05CF806AB184620F0EFFF354A364934
:103C2000394820F0CFFF07AB184620F0E5FF07AB7F
:103C30001A462E49354821F049F807AB184620F0BE
:103C4000DCFF2C4A2C49314820F0BCFF4FF0FF33F9
:103C500000931023402220212D4820F0BBFC254A50
:103C60002C492B4820F0AEFF0023022201212A48D4
:103C700020F0FAFB1F4A2949274820F0A3FF2848D3
:103C80001BF0C6FB1B4A2749254820F09BFF26480E
:103C9000FFF7C4FB174A2549234820F093FF244827
:103CA00004F02EFB134A2349214820F08BFF2248C1
:103CB000FFF7AEFB2148FEF79FFF0E4A20491F4841
:103CC00020F080FF1F48FEF7B7FC0A4A1E491D4836
:103CD00020F078FF1D48FFF74BF9064A1C491B48A6
:103CE00020F070FF00BF09B0F0BD00BFE4D81200A3
:103CF0009843FF3F0040FF3F774C1200B043FF3F27
:103D0000E93A10003045FF3F4845FF3F6045FF3F1F
:103D10007C45FF3FD12510009045FF3F312A100020
:103D2000E845FF3F99F411007046FF3F0D3B10003E
:103D30000847FF3F4D3B1000E847FF3FEC47FF3F80
:103D4000112C1000F047FF3F41271000FC48FF3FB7
:103D5000952F100008B54FF6FF710120FFF702FF05
:103D600008BD00BF00B583B0019000910E4A019BD1
:103D70001A60019B009A5A60002208210B4820F02B
:103D800061FC0B49094820F075FC019B5B681846F3
:103D900020F030FF03461A46019B9A60019B1846AB
:103DA00003B05DF804FB00BF1CD912007C49FF3F43
:103DB00040420F0000B583B001900D4A019B1A608C
:103DC000019B9B68002B08D0019B9B68002B04D0B3
:103DD000019B9B68184620F0F3FE0023002B02D0C5
:103DE000019820F0F4FE019B184603B05DF804FB37
:103DF0001CD9120000B583B001900198FFF7DAFFDB
:103E0000019820F0E4FE019B184603B05DF804FB26
:103E100010B586B0019003A84FF480734FF4802250
:103E2000094903F0EDFD019B5A68019B9B6803A8BB
:103E3000022103F013FE044603AB184603F008FE0C
:103E40002346184606B010BD7C49FF3F10B588B028
:103E5000039002910192029B002B02D14FF0FF349C
:103E600036E004A84FF480734FF480221A4903F01F
:103E7000C7FD039B9B68019A0299184622F01FFF19
:103E8000039B5968039B9B6804AA144800F022FD19
:103E9000039B5A68039B9B6804A8022103F054FE0D
:103EA00003468DF81F309DF81F3019460C4800F06E
:103EB00011FD9DF81F3083F00103DBB2002B02D00F
:103EC0004FF0FF3400E0002404AB184603F0C0FDBF
:103ED0002346184608B010BD7C49FF3FE8D81200C1
:103EE00000D9120008B50348FFF792FF03461846B1
:103EF00008BD00BF9049FF3F00B583B0019000911D
:103F0000009A01990348FFF7A1FF0346184603B042
:103F10005DF804FB9049FF3F10B582B00190054C5D
:103F2000054B9C4204D0183C204620F0A4FEF7E745
:103F300002B010BD3045FF3FB043FF3FF0B589B040
:103F400003900291039B012B40F0A580029B4FF64A
:103F5000FF72934240F09F8004AB184620F04CFE65
:103F600004AB1A464D494E4820F0B0FE04AB18464B
:103F700020F043FE4B4A4C49494820F023FE4B4B6E
:103F800007241E46B4F1FF3F0ED0334601251F46DD
:103F9000B5F1FF3F05D0384620F066FE1837013DE9
:103FA000F6E73036013CEDE73E4A4149002020F07B
:103FB00009FE05AB184620F01FFE05AB1A4637492F
:103FC0003C4820F083FE05AB184620F016FE354A2B
:103FD0003549384820F0F6FD06AB184620F00CFEB7
:103FE00006AB1A462D49344820F070FE06AB184641
:103FF00020F003FE2B4A2C492F4820F0E3FD07ABAD
:10400000184620F0F9FD07AB1A4624492B4820F04A
:104010005DFE07AB184620F0F0FD224A22492748F2
:1040200020F0D0FD4FF0FF330093102340222021D9
:10403000234820F0CFFA1B4A2249214820F0C2FD34
:10404000002302220121204820F00EFA154A1F49C0
:104050001D4820F0B7FD1E481BF0DAF9114A1D4932
:104060001B4820F0AFFD4FF0FF3300931023402298
:104070002021194820F0AEFA0A4A1249164820F0C9
:10408000A1FD4FF480611548FFF76CFE054A144905
:10409000124820F097FD00BF09B0F0BD10D9120002
:1040A0009843FF3F0040FF3F774C1200B043FF3F73
:1040B000193F10003045FF3F4845FF3F6045FF3F37
:1040C0007C45FF3FD12510009045FF3F312A10006D
:1040D000E845FF3F99F411007C49FF3F9049FF3FBD
:1040E000B53D100008B54FF6FF710120FFF726FF20
:1040F00008BD00BF84B0019000230393039B072BEE
:1041000009DC074A039B1B01134400221A60039B2E
:1041100001330393F2E7019B184604B0704700BFD8
:104120009C49FF3F82B000230193019B072B0CDCCD
:10413000084A019B1B0113441B68002B01D1019B02
:1041400005E0019B01330193EFE74FF0FF33184681
:1041500002B070479C49FF3F00B587B003900291C1
:10416000039B0593059B1B781946059B01331B7820
:104170001846059B02331B781A46059B03331B78B0
:104180000193009203460A460449029824F03EFB3C
:104190000023184607B05DF804FB00BF24D91200C5
:1041A00000B587B003900291029B0593059B591CB3
:1041B000059B0233059A0332019200930B46059A40
:1041C0000749039824F046FB0490049B042B02D07B
:1041D0004FF0FF3300E00023184607B05DF804FB02
:1041E00024D9120070B596B005900023149323488B
:1041F00004F060F902460DAB1146184624F0C0FBEE
:10420000149B002B01DA149B35E007AC043407AB98
:10421000083307AA0C3207A9103107A8143007AEDB
:104220000DAD03900291019200932346324614494A
:10423000284624F00FFB1490149B062B02D04FF05D
:10424000FF3318E000231593159B052B0EDC159BFF
:10425000059A1A44159B9B0016A90B4453F83C3C45
:10426000DBB21370159B01331593EDE7059B063305
:1042700000221A700023184616B070BD0847FF3F91
:1042800030D9120000B589B00190009103AB102223
:104290000021184622F039FD009A0199044804F0E3
:1042A00001FC03460793079B184609B05DF804FB21
:1042B0000847FF3F10B588B0039002910192039B1D
:1042C000022B02D04FF0FF3360E0019B002B08D09F
:1042D000019B062B05D0019B112B02D04FF0FF3321
:1042E00054E04FF0FF330793FFF71CFF0790079B45
:1042F000002B01DA079B49E0264A079B1B01134468
:104300000C3300221A60029B012B24D0022B39D1DE
:10431000102020F05EFC03461C46204606F0A2FA60
:1043200006941C4A079B1B011344069A1A60194AFB
:10433000079B1B0113440833029A1A60069806F083
:104340009DFA24F0F9F80346C3F30E0319460698C4
:1043500006F0BAFA19E0282020F03BFC03461C4680
:10436000204606F08DF905940A4A079B1B01134469
:10437000059A1A60074A079B1B0113440833029AE7
:104380001A6002E04FF0FF3300E0079B184608B0C8
:1043900010BD00BF9C49FF3F10B582B00190019B4A
:1043A000002B02DB019B082B02DD4FF0FF3320E0E6
:1043B000114A019B1B0113441B68002B02D14FF0D3
:1043C000FF3316E00C4A019B1B0113441C68002CB0
:1043D00005D0204606F048F9204620F0F8FB019B66
:1043E0001B01054A134410220021184622F08DFCBF
:1043F0000023184602B010BD9C49FF3F00B587B0AE
:10440000039002910192039B002B02DB039B082B7C
:1044100002DD4FF0FF3316E00D4A039B1B011344EE
:104420001B68002B02D14FF0FF330CE0084A039BBE
:104430001B0113441B680593019B1A4602990598BA
:1044400006F088F90346184607B05DF804FB00BF84
:104450009C49FF3F00B587B0039002910192039BF6
:10446000002B02DB039B082B02DD4FF0FF3317E02C
:104470000D4A039B1B0113441B68002B02D14FF014
:10448000FF330DE0084A039B1B0113441B6805938F
:10449000019B1A460299059806F0A0F90490049B26
:1044A000184607B05DF804FB9C49FF3F10B594B077
:1044B0000390029101920093039B002B02DB039B6C
:1044C000082B02DD4FF0FF343BE0204A039B1B0129
:1044D00013441B68002B02D14FF0FF3431E0009BE6
:1044E0001393139B5B681293129B1BBA0D9309AA3B
:1044F0000DAB11461846FFF72FFE04AB184605F02A
:10450000FBFF139B5B880F930F9B5BBA0E930E9B75
:104510001A4609A904AB184606F00CF811900B4A8C
:10452000039B1B0113441B681093019B04A9029A6F
:10453000109806F015FA1190119C04AB184605F07E
:10454000E7FF2346184614B010BD00BF9C49FF3F4B
:1045500010B592B00390029101920093039B002B3F
:1045600002DB039B082B02DD4FF0FF3442E0234ABD
:10457000039B1B0113441B68002B02D14FF0FF3437
:1045800038E0019A03991E4800F0A4F905AB1846DB
:1045900005F0B2FF194A039B1B0113441B681193DA
:1045A000019B05A9029A119806F00AFA1090109A38
:1045B0000399134800F08EF9109B002B02DA4FF09C
:1045C000FF3413E0009B0F9304AA0AAB1146184670
:1045D000FFF7E6FD0F9B043304A90422184622F0DE
:1045E0006EFB0E9B9AB20F9B5A80109C05AB18462F
:1045F00005F08EFF2346184612B010BD9C49FF3FC0
:1046000050D9120000B58FB0039002910192039B24
:10461000002B02DB039B082B02DD4FF0FF332BE066
:10462000174A039B1B0113441B68002B02D14FF058
:10463000FF3321E0029B0D930D9B5B680B930B9B5B
:104640001BBA08930E4A039B1B0113441B680C936F
:1046500004AA08AB11461846FFF77EFD0D9B5B8848
:104660000A930A9B5BBA0993099B1A4604AB194645
:104670000C9806F01BF8034618460FB05DF804FBD3
:104680009C49FF3F00B587B00390029101920093CF
:10469000039B002B02DB039B082B02DD4FF0FF3353
:1046A00039E0029B40F6FF72934232D1019BA3F5A1
:1046B0008053053B012B29D8089B082B23D1009B55
:1046C000002B1ED0009B0593059B1B684FF47A724C
:1046D00002FB03F2059B5B68114981FB0301891111
:1046E000DB17CB1A13440493049B002B09DD0D4AFE
:1046F000039B1B0113441B68049A0021184605F014
:1047000087FF002307E06FF0020304E06FF001036E
:1047100001E04FF0FF33184607B05DF804FB00BF1F
:10472000D34D62109C49FF3F10B582B00190054CFB
:10473000054B9C4204D0183C204620F09CFAF7E739
:1047400002B010BD3045FF3FB043FF3FF0B589B028
:1047500003900291039B012B40F09080029B4FF647
:10476000FF72934240F08A8004AB184620F044FA6E
:1047700004AB1A464349444820F0A8FA04AB184653
:1047800020F03BFA414A42493F4820F01BFA414B96
:1047900007241E46B4F1FF3F0ED0334601251F46C5
:1047A000B5F1FF3F05D0384620F05EFA1837013DDD
:1047B000F6E73036013CEDE7344A3749002020F077
:1047C00001FA05AB184620F017FA05AB1A462D4939
:1047D000324820F07BFA05AB184620F00EFA2B4A3F
:1047E0002B492E4820F0EEF906AB184620F004FACB
:1047F00006AB1A4623492A4820F068FA06AB184649
:1048000020F0FBF9214A2249254820F0DBF907ABCB
:10481000184620F0F1F907AB1A461A49214820F052
:1048200055FA07AB184620F0E8F9184A18491D4810
:1048300020F0C8F94FF0FF330093102340222021CD
:1048400019481FF0C7FE114A1849174820F0BAF955
:1048500000230222012116481FF006FE0B4A1549CB
:10486000134820F0AFF914481AF0D2FD074A134953
:10487000114820F0A7F91248FFF73CFC00BF09B02F
:10488000F0BD00BF64D912009843FF3F0040FF3FD6
:10489000774C1200B043FF3F294710003045FF3FDF
:1048A0004845FF3F6045FF3F7C45FF3FD125100055
:1048B0009045FF3F312A1000E845FF3F99F4110071
:1048C0001C4AFF3F08B54FF6FF710120FFF73EFF7E
:1048D00008BD00BF0FB400B583B005AB01930F4B0B
:1048E00000221A70019B049A76210C4825F00AFEDA
:1048F0000A4824F04DF803461A46084B1344084A68
:104900001188927819809A70044906481FF0C4FFF4
:1049100000BF03B05DF804EB04B07047784AFF3F76
:1049200068D91200604AFF3F10B582B00190054C73
:10493000054B9C4204D0183C204620F09CF9F7E738
:1049400002B010BD3045FF3FB043FF3FF0B589B026
:1049500003900291039B012B40F09A80029B4FF63B
:10496000FF72934240F0948004AB184620F044F963
:1049700004AB1A464849494820F0A8F904AB184648
:1049800020F03BF9464A4749444820F01BF9464B82
:1049900007241E46B4F1FF3F0ED0334601251F46C3
:1049A000B5F1FF3F05D0384620F05EF91837013DDC
:1049B000F6E73036013CEDE7394A3C49002020F06B
:1049C00001F905AB184620F017F905AB1A46324934
:1049D000374820F07BF905AB184620F00EF9304A35
:1049E0003049334820F0EEF806AB184620F004F9C1
:1049F00006AB1A4628492F4820F068F906AB18463E
:104A000020F0FBF8264A27492A4820F0DBF807ABBC
:104A1000184620F0F1F807AB1A461F49264820F047
:104A200055F907AB184620F0E8F81D4A1D49224801
:104A300020F0C8F84FF0FF330093102340222021CC
:104A40001E481FF0C7FD164A1D491C4820F0BAF841
:104A50000023022201211B481FF006FD104A1A49BB
:104A6000184820F0AFF819481AF0D2FC0C4A18493F
:104A7000164820F0A7F800234FF400724FF480711D
:104A800014481FF0F1FC064A0F49124820F09AF82A
:104A900000BF09B0F0BD00BF6CD912009843FF3FC2
:104AA0000040FF3F774C1200B043FF3F2949100000
:104AB0003045FF3F4845FF3F6045FF3F7C45FF3F96
:104AC000D12510009045FF3F312A1000E845FF3FF7
:104AD00099F41100204AFF3F08B54FF6FF710120FD
:104AE000FFF734FF08BD00BF70B58CB00790002001
:104AF00000F046F80346099309AB184621F060FE22
:104B00000B9011481FF08EFF0A900B9B5B6903F21C
:104B10006C750B9B1B695E1C0B9BDB680B9A926888
:104B20000B9949680B9800680A9C049403900291C1
:104B30000192009333462A460449079823F066FE03
:104B400000BF0CB070BD00BFF04AFF3F70D912002B
:104B500000B583B001900091002000F011F80246EA
:104B6000019B1A6005481FF039FF0246019B5A60FD
:104B70000023184603B05DF804FB00BFF04AFF3F76
:104B800010B584B001900F4B1B68184621F00AF84D
:104B900004460D481FF030FF03461946204620F01A
:104BA0004DFF0346184621F017FA03460393019B75
:104BB000002B02D0019B039A1A60039B184604B095
:104BC00010BD00BF004BFF3FF04AFF3F00B583B070
:104BD0000190019B1B6819460748FFF77BFE019B6C
:104BE0001B68064A136006481FF046FF002318465C
:104BF00003B05DF804FB00BF94D91200004BFF3FE7
:104C0000F04AFF3F00B583B0019001981DF046FACD
:104C10000023184603B05DF804FB00BF00B583B065
:104C200001900091019B012B07D1009B4FF6FF7271
:104C3000934202D103481FF08DFE00BF03B05DF820
:104C400004FB00BFF04AFF3F08B54FF6FF7101209B
:104C5000FFF7E4FF08BD00BF00B583B00A4A0B4B65
:104C6000D31A0193019B1A460021084822F04DF8FF
:104C70001CF004FE21F04CFE1DF07AFF1FF0AAFB91
:104C80000090009821F048FA0C66FF3F5443FF3F24
:104C900000B583B00190019B022B01DC012303E0EE
:104CA00001981FF02DFB0346184603B05DF804FB86
:104CB00082B0EFF305830193019B002B00D000BE6F
:104CC00000BF02B0704700BF00B583B00190FFF78E
:104CD000EFFF019821F0B4FF0346184603B05DF8DA
:104CE00004FB00BF00B583B001900091FFF7E0FF27
:104CF0000099019823F05AFC0346184603B05DF86A
:104D000004FB00BF00B583B00190FFF7D1FF01980D
:104D100021F09EFF00BF03B05DF804FB08B5012041
:104D200021F0FAF908B5FFF7F9FF00BF00B585B02B
:104D30000190019800F08AFF019800F0E5FF0198CA
:104D400001F06EF80DF10A031A461821019800F0DF
:104D50000FFE0390039B13F1020F02D16FF00103CA
:104D60007AE00DF10A031A461721019800F000FEBF
:104D70000390039B13F1020F02D16FF001036BE06C
:104D8000019801F023F80390039B002B01D0039BB3
:104D900062E00221019800F019FC0390039B002BB4
:104DA00001D0039B58E00221019800F04FFB039BC8
:104DB000002B01D0039B4FE00021019800F086FBFF
:104DC0000390039B002B01D0039B45E00021019839
:104DD00000F0BCFB0390039B002B01D0039B3BE046
:104DE0000321019800F072FC0390039B002B01D07B
:104DF000039B31E00121019800F028FC0390039B04
:104E0000002B01D0039B27E01549019800F0D0FA50
:104E10000390039B002B01D0039B1DE04FF0000289
:104E20000121019800F05CF80390039B002B01D056
:104E3000039B11E04FF000020221019800F050F8AE
:104E40000390039B002B01D0039B05E058210198A0
:104E500000F07CFC0390039B184605B05DF804FB52
:104E6000ECB1040000B585B001900B468DF803301D
:104E70000DF10A031A460821019800F065FD03466A
:104E800013F1020F0CBF01230023DBB2002B02D071
:104E90006FF001031FE0BDF80A3023F003039BB25B
:104EA000ADF80A309DF803309AB2BDF80A301343CA
:104EB0009BB2ADF80A30BDF80A301A4608210198B5
:104EC00000F024FE0390039B13F1020F02D16FF058
:104ED000010300E00023184605B05DF804FB00BFA5
:104EE00000B58BB003900B4601928DF80B30002378
:104EF000ADF826302C4B08934FF000030793089928
:104F0000019821F05FF80346002B06D1079901981C
:104F100021F03AF80346002B02D06FF002033FE085
:104F20002249019820F092FE03461F49184620F0BE
:104F300041FF0346184621F075F80346ADF81A30D4
:104F4000BDF81A30ADF826309DF80B30012B02D099
:104F5000022B0FD01DE0BDF826301A460921039818
:104F600000F0D4FD0590059B13F1020F14D16FF0F2
:104F7000010315E0BDF826301A460A21039800F017
:104F8000C5FD0590059B13F1020F07D16FF00103DA
:104F900006E06FF0020303E000BF00E000BF002363
:104FA00018460BB05DF804FB0000C84200C07F4407
:104FB00000B587B001900B468DF803301346ADF86D
:104FC00000300023ADF8163040F2FF33ADF8143056
:104FD000BDF80020BDF814309A4202D96FF00203E8
:104FE00033E0BDF80030ADF81230BDF81230ADF846
:104FF00016309DF80330012B02D0022B0FD01DE09C
:10500000BDF816301A460921019800F07FFD039083
:10501000039B13F1020F14D16FF0010315E0BDF8EB
:1050200016301A460A21019800F070FD0390039B88
:1050300013F1020F07D16FF0010306E06FF00203D6
:1050400003E000BF00E000BF0023184607B05DF892
:1050500004FB00BF0000000000B589B0039002917E
:1050600001920199029820F0E9FC034696491846FE
:1050700020F0A8FF0346002B02D06FF0020306E1E8
:10508000029820F04FF984A3D3E9002320F02EFCEE
:105090000346002B02D08D4B029308E08C49029806
:1050A00020F072FF0346002B01D08A4B02938949FE
:1050B000029820F05FFF0346002B03D000238DF8F9
:1050C0001F3014E08249029820F0B6FC0346824962
:1050D000184620F0BBFD03468049184620F06AFEC2
:1050E0000346184620F09EFF03468DF81F300DF151
:1050F00016031A460321039800F026FC034613F119
:10510000020F0CBF01230023DBB2002B02D06FF093
:105110000103BCE0BDF8163023F07F039BB2ADF86D
:1051200016309DF81F309AB2BDF8163013439BB26B
:10513000ADF81630BDF816301A460321039800F07A
:10514000E5FC0690019820F0EDF855A3D3E9002383
:1051500020F0CCFB0346002B03D007238DF81E3034
:1051600062E0019820F0DEF84FA3D3E9002320F09D
:10517000BDFB0346002B03D007238DF81E3053E000
:10518000019820F0CFF84AA3D3E9002320F0AEFB2A
:105190000346002B03D006238DF81E3044E001980F
:1051A00020F0C0F844A3D3E9002320F09FFB03467E
:1051B000002B03D005238DF81E3035E0019820F038
:1051C000B1F83FA3D3E9002320F090FB0346002B66
:1051D00003D004238DF81E3026E04FF08041019863
:1051E00020F0F0FE0346002B03D003238DF81E3081
:1051F0001AE04FF07F51019820F0E4FE0346002BA7
:1052000003D002238DF81E300EE04FF07E5101983E
:1052100020F0D8FE0346002B03D001238DF81E306A
:1052200002E000238DF81E300DF116031A4602210C
:10523000039800F089FB034613F1020F0CBF012312
:105240000023DBB2002B02D06FF001031FE0BDF89A
:10525000163023F007039BB2ADF816309DF81E30D0
:105260009AB2BDF8163013439BB2ADF81630BDF8B4
:1052700016301A460221039800F048FC0690069B5F
:1052800013F1020F02D16FF0010300E00023184672
:1052900009B05DF804FB00BF6666666666065040AE
:1052A00033333333333317406666666666661340BE
:1052B0003333333333330F403333333333330740F4
:1052C0003333333333330340000088423333804277
:1052D00000007041000030410000FE42666644421A
:1052E00000B585B001900DF10E031A460221019818
:1052F00000F02AFB034613F1020F0CBF0123002329
:10530000DBB2002B02D06FF0010319E0BDF80E30C4
:1053100043F020039BB2ADF80E30BDF80E301A46B4
:105320000221019800F0F2FB0346002B0CBF012381
:105330000023DBB2002B01D0002301E06FF001035A
:10534000184605B05DF804FB00B585B001900DF17D
:105350000E031A460221019800F0F6FA034613F1F3
:10536000020F0CBF01230023DBB2002B02D06FF031
:10537000010319E0BDF80E3023F020039BB2ADF815
:105380000E30BDF80E301A460221019800F0BEFB27
:105390000346002B0CBF01230023DBB2002B01D0FE
:1053A000002301E06FF00103184605B05DF804FB2F
:1053B00000B587B001900091234A009BB2FBF3F344
:1053C0000593059B072B02D9059B262B02D96FF06D
:1053D000020335E00DF10E031A460121019800F099
:1053E000B3FA034613F1020F0CBF01230023DBB213
:1053F000002B02D06FF0010322E0BDF80E3023F045
:10540000F8039BB2ADF80E30059B9BB2073B9BB2F5
:10541000DB009AB2BDF80E3013439BB2ADF80E30EC
:10542000BDF80E301A460121019800F06FFB049080
:10543000049B13F1020F02D16FF0010300E000237F
:10544000184607B05DF804FB00127A0000B585B07D
:1054500001900B468DF803300DF10A031A46022124
:10546000019800F071FA034613F1020F0CBF0123FB
:105470000023DBB2002B02D06FF0010322E0BDF865
:105480000A3023F018039BB2ADF80A309DF80330C0
:10549000DB009AB2BDF80A309BB213439BB29BB2B9
:1054A000ADF80A30BDF80A301A460221019800F022
:1054B0002DFB0390039B13F1020F02D16FF0010348
:1054C00000E00023184605B05DF804FB00B585B088
:1054D00001900B468DF803300DF10A031A460221A4
:1054E000019800F031FA034613F1020F0CBF0123BB
:1054F0000023DBB2002B02D06FF0010322E0BDF8E5
:105500000A3023F4C0739BB2ADF80A309DF8033023
:10551000DB009AB2BDF80A309BB213439BB29BB238
:10552000ADF80A30BDF80A301A460221019800F0A1
:10553000EDFA0390039B13F1020F02D16FF0010308
:1055400000E00023184605B05DF804FB00B585B007
:1055500001900B468DF803300DF10A031A46052120
:10556000019800F0F1F9034613F1020F0CBF01237B
:105570000023DBB2002B02D06FF0010322E0BDF864
:105580000A3023F4C0739BB2ADF80A309DF80330A3
:105590001B029AB2BDF80A309BB213439BB29BB276
:1055A000ADF80A30BDF80A301A460521019800F01E
:1055B000ADFA0390039B13F1020F02D16FF00103C8
:1055C00000E00023184605B05DF804FB00B585B087
:1055D00001900B468DF803300DF10A031A460121A4
:1055E000019800F0B1F9034613F1020F0CBF01233B
:1055F0000023DBB2002B02D06FF0010322E0BDF8E4
:105600000A3023F006039BB2ADF80A309DF8033050
:105610005B009AB2BDF80A309BB213439BB29BB2B7
:10562000ADF80A30BDF80A301A460121019800F0A1
:105630006DFA0390039B13F1020F02D16FF0010387
:1056400000E00023184605B05DF804FB00B585B006
:1056500001900B468DF803300DF10A031A46012123
:10566000019800F071F9034613F1020F0CBF0123FA
:105670000023DBB2002B02D06FF0010322E0BDF863
:105680000A3023F440739BB2ADF80A309DF8033022
:105690001B029AB2BDF80A309BB213439BB29BB275
:1056A000ADF80A30BDF80A301A460121019800F021
:1056B0002DFA0390039B13F1020F02D16FF0010347
:1056C00000E00023184605B05DF804FB00B585B086
:1056D00001900B468DF803300DF10A031A460321A1
:1056E000019800F031F9034613F1020F0CBF0123BA
:1056F0000023DBB2002B02D06FF0010322E0BDF8E3
:105700000A3023F4C0739BB2ADF80A309DF8033021
:10571000DB019AB2BDF80A309BB213439BB29BB235
:10572000ADF80A30BDF80A301A460321019800F09E
:10573000EDF90390039B13F1020F02D16FF0010307
:1057400000E00023184605B05DF804FB00B585B005
:1057500001900B46ADF80230BDF80230B3F5007F82
:1057600002D36FF0020313E0BDF80230ADF80E3043
:10577000BDF80E301A460D21019800F0C7F90290CD
:10578000029B13F1020F02D16FF0010300E000232E
:10579000184605B05DF804FB00B585B001900B46D6
:1057A0008DF803309DF80330012B02D0022B2AD054
:1057B00053E00DF10A031A460621019800F0C4F8DF
:1057C000034613F1020F0CBF01230023DBB2002BB1
:1057D00003D06FF00103039343E0BDF80A3043F0B8
:1057E00002039BB2ADF80A30BDF80A301A46062112
:1057F000019800F08BF90390039B13F1020F30D155
:105800006FF0010331E00DF10A031A4606210198F9
:1058100000F09AF8034613F1020F0CBF0123002396
:10582000DBB2002B03D06FF0010303931BE0BDF844
:105830000A3043F001039BB2ADF80A30BDF80A30DC
:105840001A460621019800F061F90390039B13F1B9
:10585000020F08D16FF0010307E06FF0010303931B
:1058600002E000BF00E000BF0023184605B05DF86D
:1058700004FB00BF00B585B001900B468DF80330E6
:105880009DF80330012B02D0022B2AD056E00DF1F7
:105890000A031A460621019800F056F8034613F150
:1058A000020F0CBF01230023DBB2002B03D06FF0EB
:1058B000010303933FE0BDF80A3023F002039BB2DB
:1058C000ADF80A30BDF80A301A460621019800F0FA
:1058D0001DF90390039B13F1020F2CD16FF001030C
:1058E0002DE00DF10A031A460621019800F02CF86C
:1058F000034613F1020F0CBF01230023DBB2002B80
:1059000003D06FF00103039317E0BDF80A3023F0D2
:1059100001039BB2ADF80A30BDF80A301A460621E1
:10592000019800F0F3F80390039B13F1020F04D1E8
:105930006FF0010303E000BF00E000BF0023184642
:1059400005B05DF804FB00BF00B587B003900B46BF
:1059500001928DF80B309DF80B30019A194603988F
:1059600000F02EF80590059B184607B05DF804FB83
:1059700000B587B003900B4601928DF80B309DF86F
:105980000B30019A1946039800F01AF80590059B10
:10599000184607B05DF804FB00B587B003900B46CE
:1059A00001928DF80B309DF80B30019A194603983F
:1059B00000F006F80590059B184607B05DF804FB5B
:1059C00000B587B003900B4601928DF80B30002391
:1059D000ADF816300023ADF81430019B002B02D136
:1059E0006FF002038BE04FF0FF31474819F036FDAE
:1059F000039800F015FA039800F062F99DF80B3057
:105A00009B029AB2BDF8163013439BB2ADF8163024
:105A1000BDF81620BDF814301343ADF81630BDF8AC
:105A200016301946039800F087F903468DF81330B5
:105A30009DF813305B029AB2BDF8163013439BB247
:105A4000ADF81630039BBDF81620114618461EF01F
:105A500047FE0346ADF81030019BBDF810201A80B8
:105A6000039800F051F9039800F02AF90023ADF8EB
:105A700016300023ADF81430BDF8163043F4C0439F
:105A8000ADF81630BDF81620BDF814301343ADF84C
:105A90001630BDF816301946039800F04DF903464C
:105AA0008DF813309DF813305B029AB2BDF81630B2
:105AB00013439BB2ADF81630039BBDF81620114678
:105AC00018461EF00DFE0346ADF81030039800F0A6
:105AD0001BF9039800F0B8F90B4819F0CFFCBDF89A
:105AE00010301BB2002B02DA6FF0010307E0019BBC
:105AF0001B88C3F309039AB2019B1A80002318463E
:105B000007B05DF804FB00BFE845FF3F00B585B076
:105B100001900B468DF803301346ADF8003000239A
:105B2000ADF80E304FF0FF31474819F097FC01985F
:105B300000F076F9019800F0E7F8019800F0C0F85D
:105B4000BDF80E306FEA43436FEA5343ADF80E30B1
:105B50009DF80330DB029AB2BDF80E3013439BB2BE
:105B6000ADF80E30BDF80E20BDF800301343ADF88F
:105B70000E30BDF80E301946019800F0DDF80346EE
:105B80008DF80D309DF80D309B029AB2BDF80E30A5
:105B900013439BB2ADF80E30019BBDF80E201146A9
:105BA00018461EF09DFD0346ADF80A30019800F03E
:105BB000ABF8019800F084F80023ADF80030002322
:105BC000ADF80E30BDF80E306FEA43436FEA534331
:105BD000ADF80E30BDF80E20BDF800301343ADF81F
:105BE0000E30BDF80E301946019800F0A5F80346B6
:105BF0008DF80D309DF80D305B029AB2BDF80E3075
:105C000013439BB2ADF80E30019BBDF80E20114638
:105C100018461EF065FD0346ADF80A30019800F005
:105C200073F8019800F010F9074819F027FCBDF847
:105C30000A301BB2002B02DA6FF0010300E00023F0
:105C4000184605B05DF804FBE845FF3F00B583B09A
:105C50000190019B14331949184604F07FFF019B02
:105C600003F1140000230022012105F04FF8019BED
:105C700003F1140000230122012105F047F8019BE4
:105C800003F1140000230222012105F03FF8019BDB
:105C900003F1140001230122012104F0CFFF019B35
:105CA00003F1140001230222012104F0C7FF142094
:105CB0001CF004FA00BF03B05DF804FB40420F0083
:105CC00000B583B00190019B03F114000123002271
:105CD000012104F0B3FF14201CF0F0F907201CF0A0
:105CE000EDF9019B03F1140000230022012104F0CF
:105CF000A5FF14201CF0E2F907201CF0DFF900BF1B
:105D000003B05DF804FB00BF00B583B0019007202D
:105D10001CF0D4F9019B03F114000123002201219E
:105D200004F08CFF14201CF0C9F907201CF0C6F900
:105D300000BF03B05DF804FB86B001900B46ADF8E0
:105D4000023000238DF8153000230493BDF8023093
:105D5000ADF8163000230493049B0F2BCCBF012316
:105D60000023DAB2BDF81630002B0CBF012300234C
:105D7000DBB21343DBB2002B14D1BDF81630DBB21B
:105D800003F00103DAB29DF815305340DBB28DF811
:105D90001530BDF816305B10ADF81630049B01339A
:105DA0000493D9E79DF81530002B0CBF0123002385
:105DB000DBB28DF80F309DF80F30002B01D001239E
:105DC00000E00023184606B0704700BF00B585B05C
:105DD0000190002303930DF10A031A461A2101983A
:105DE000FFF7DAFD034613F1020F0CBF0123002376
:105DF000DBB2002B02D06FF001030DE0BDF80A30DA
:105E0000DBB29BB2ADF80A30BDF80A30582B02D095
:105E10004FF0FF330393039B184605B05DF804FB76
:105E200000B583B00190019B0022102118461EF09E
:105E300009FC019B034918461EF01CFC00BF03B07F
:105E40005DF804FB400D030000B587B00190082306
:105E5000059300230493084B0393019B049A05992F
:105E600018461EF0EFFB019B039918461EF002FC3A
:105E700000BF07B05DF804FB40420F0000B585B0DD
:105E800003900B468DF80B3003984FF0FF330093CF
:105E90001023402220211EF09DFB039B03F11400E0
:105EA0004FF40033009328230422082104F032FE2B
:105EB000039B002283F87820039B9DF80B2083F836
:105EC0008320039B93F88330012B28D1039B03226B
:105ED00083F87920039B012283F87A20039B042214
:105EE00083F87B20039B012283F87C20039B0622FE
:105EF00083F87D20039B012283F87E20039B0522EB
:105F000083F87F20039B012283F88020039B0622D5
:105F100083F88120039B002283F8822028E0039BE2
:105F2000072283F87920039B002283F87A20039BC1
:105F3000002283F87B20039B012283F87C20039BB3
:105F4000022283F87D20039B012283F87E20039B9D
:105F5000012283F87F20039B012283F88020039B8A
:105F6000062283F88120039B002283F8822000BF51
:105F7000039B184605B05DF804FB00BF00B587B071
:105F80000190019800F0D6FB019800F059FC019BAC
:105F900014330321184604F045FF0590059A0021AB
:105FA000019800F09FFC0021019800F067FC019B24
:105FB00003F11400019B93F88210019B93F8813048
:105FC000DBB25AB2012304F039FE019800F084FBE1
:105FD0000221019800F0D0FA03468DF80F309DF8A9
:105FE0000F3043F04003DBB28DF80F309DF80F30D7
:105FF0001A460221019800F0FDFA0490049B002B40
:1060000002D06FF0010359E00221019800F0B4FAC8
:1060100003468DF80F309DF80F3023F04003DBB2BC
:106020008DF80F309DF80F301A460221019800F0CC
:10603000E1FA0490049B002B02D06FF001033DE0D5
:106040000DF10E030DF10F020521019800F004FA85
:106050000490049B002B02D06FF001032EE00DF1A1
:106060000E030DF10F020621019800F0F5F90490DE
:10607000049B002B02D06FF001031FE0019800F099
:1060800009FB0321019800F077FA03468DF80F30E1
:106090009DF80F3063F07F03DBB28DF80F309DF871
:1060A0000F301A460321019800F0A4FA0490049BD3
:1060B000002B02D06FF0010300E00023184607B068
:1060C0005DF804FB00B585B001900B468DF80330F8
:1060D0001F238DF80F309DF803209DF80F309A4252
:1060E00002D96FF0020322E00121019800F044FA86
:1060F00003468DF80E309DF80E3023F01F038DF807
:106100000E309DF80E209DF8033013438DF80E30AD
:106110009DF80E301A460121019800F06BFA0290AA
:10612000029B002B02D06FF0010300E00023184611
:1061300005B05DF804FB00BF00B585B001900B46CB
:106140008DF803309DF803300B2B6FD801A252F865
:1061500023F000BF8561100093611000A161100061
:10616000AF611000BD611000CB611000D96110005B
:10617000E7611000F5611000036210001162100069
:106180001F62100000238DF80F3000238DF80E30B1
:1061900053E000238DF80F3001238DF80E304CE0D2
:1061A00000238DF80F3002238DF80E3045E00023D8
:1061B0008DF80F3003238DF80E303EE000238DF86C
:1061C0000F3004238DF80E3037E000238DF80F30A8
:1061D00005238DF80E3030E000238DF80F300023BA
:1061E0008DF80E3029E000238DF80F3006238DF84E
:1061F0000E3022E001238DF80F3000238DF80E3091
:106200001BE002238DF80F3000238DF80E3014E0D0
:1062100003238DF80F3000238DF80E300DE004239A
:106220008DF80F3000238DF80E3006E000238DF836
:106230000F3000238DF80E3000BF0921019800F0C7
:106240009BF903468DF80D309DF80D3023F00703C0
:10625000DAB29DF80F301343DBB28DF80D309DF8A4
:106260000D301A460921019800F0C4F90290029BF2
:10627000002B02D06FF0010327E00121019800F00C
:106280007BF903468DF80D309DF80D3003F01F03A8
:10629000DAB29DF80E305B01DBB21343DBB28DF84E
:1062A0000D309DF80D301A460121019800F0A2F939
:1062B0000290029B002B02D06FF0010305E0019BCE
:1062C0009DF8032083F878200023184605B05DF878
:1062D00004FB00BF00B585B001900B468DF803307C
:1062E0000221019800F048F903468DF80F309DF81F
:1062F0000F3003F07F038DF80F309DF80330DB0182
:10630000DAB29DF80F301343DBB28DF80F309DF8F1
:106310000F301A460221019800F06CF90290029B9E
:10632000002B02D06FF0010300E00023184605B0F7
:106330005DF804FB0000000010B588B001900091EA
:106340004FF0000100981FF033FE0346002B01D0F0
:10635000009B02E0009B83F000430693019800F04D
:1063600007FB059005981EF0BBFF03460C461A4636
:10637000234623A1D1E900011FF052F903460C4640
:10638000184621461FF004FB03460493049906981F
:106390001FF0FAFD0346002B02D06FF002032AE043
:1063A0004FF0000100981FF00DFE0346002B05D0B2
:1063B00000210198FFF78EFF079008E00121019866
:1063C000FFF788FF0790009B83F000430093079B33
:1063D000002B01D0079B0EE0049900981FF0EAFC07
:1063E000034618461FF01EFE0346039303990198C7
:1063F00000F084FB0023184608B010BDAFF3008006
:10640000CDCCCCCCCCCCFC3F00B585B001900321E9
:10641000019800F0B1F803468DF80F309DF80F3069
:1064200003F07F038DF80F309DF80F301A460321DB
:10643000019800F0DFF80346002B14BF012300236E
:10644000DBB2002B02D06FF0010300E000231846FE
:1064500005B05DF804FB00BF00B589B00390019260
:1064600000930B468DF80B3000238DF81E3000236F
:1064700006934FF0FF313F4818F0F0FF039800F00B
:106480002BF9039800F0DCF9039800F0A9F99DF8C6
:106490000B308DF81730039B9DF8172011461846D6
:1064A0001EF01EF904238DF81730039B9DF817206A
:1064B000114618461EF014F90346DAB2019B1A7011
:1064C000019B1B788DF81F30039B03F11400039B85
:1064D00093F87C10039B93F87B30DBB25BB21A46D7
:1064E00004F06EFB0346002B0CBF01230023DBB23C
:1064F000002B03D0009B01221A7002E0009B0022B7
:106500001A70039800F09CF9039800F0F9F89DF8D0
:106510001F30002B15D0069B072B12D09DF81F2093
:106520009DF81E305340DBB203F001038DF81E309E
:106530009DF81F305B108DF81F30069B01330693CA
:10654000E5E7019B1B78DB098DF816309DF81620D6
:106550009DF81E309A4204D1064818F08FFF0023A0
:1065600004E0044818F08AFF6FF00103184609B0F0
:106570005DF804FBE845FF3F00B585B001900B4690
:106580008DF803304FF0FF31194818F067FF01987C
:1065900000F0A2F8019800F053F9019800F020F9FA
:1065A0009DF803308DF80F30019B9DF80F201146A8
:1065B00018461EF095F804238DF80F30019B9DF8C6
:1065C0000F20114618461EF08BF803468DF80E304A
:1065D000019800F035F9019800F092F8044818F09D
:1065E0004DFF9DF80E30184605B05DF804FB00BF66
:1065F000E845FF3F00B585B001900B468DF80330AC
:1066000013468DF802304FF0FF31214818F026FF75
:10661000019800F061F8019800F012F9019800F07B
:10662000DFF89DF8033063F07F038DF80F30019B96
:106630009DF80F20114618461EF052F8019B9DF858
:106640000220114618461EF04BF8019800F0F8F8A9
:10665000019800F055F89DF8033019460198FFF7AE
:106660008BFF03468DF80E309DF80E209DF802300A
:106670009A4204D1064818F001FF002304E00448C0
:1066800018F0FCFE6FF00103184605B05DF804FB3E
:10669000E845FF3F00B585B00190019B03F1140070
:1066A000019B93F87C10019B93F87B30DBB25BB2CB
:1066B0001A4604F085FA0290029B012B03D10023B5
:1066C0008DF80F3002E001238DF80F309DF80F3068
:1066D000184605B05DF804FB00B583B00190019B3E
:1066E0000022082118461DF0ADFF019B0349184602
:1066F0001DF0C0FF00BF03B05DF804FB20A1070040
:1067000000B587B001900823059300230493084B3C
:106710000393019B049A059918461DF093FF019B72
:10672000039918461DF0A6FF00BF07B05DF804FBF3
:1067300040420F0000B583B00190019B14332749FC
:10674000184604F00BFA019B03F11400019B93F827
:106750007A10019B93F87930DBB25AB2002304F02F
:10676000D5FA019B03F11400019B93F88210019B61
:1067700093F88130DBB25AB2002304F0C7FA019BD0
:1067800003F11400019B93F87C10019B93F87B307C
:10679000DBB25AB2012304F0B9FA019B03F11400F1
:1067A000019B93F87E10019B93F87D30DBB25AB2C7
:1067B000002304F0ABFA019B03F11400019B93F852
:1067C0008010019B93F87F30DBB25AB2002304F0B3
:1067D0009DFA00BF03B05DF804FB00BF40420F000C
:1067E00000B583B00190019B03F11400019B93F865
:1067F0007A10019B93F87930DBB25AB2012304F08E
:106800001DFA14201BF05AFC06201BF057FC019BBC
:1068100003F11400019B93F87A10019B93F87930EF
:10682000DBB25AB2002304F009FA14201BF046FC34
:1068300002201BF043FC00BF03B05DF804FB00BF67
:1068400000B583B0019001201BF038FC019B03F1DF
:106850001400019B93F87A10019B93F87930DBB216
:106860005AB2012304F0EAF914201BF027FC062099
:106870001BF024FC00BF03B05DF804FB00B583B03F
:1068800001900B468DF8033001201BF017FC9DF89A
:106890000330002B0ED1019B03F11400019B93F8F0
:1068A0008010019B93F87F30DBB25AB2002304F0D2
:1068B000C5F90DE0019B03F11400019B93F88010D2
:1068C000019B93F87F30DBB25AB2012304F0B6F992
:1068D00014201BF0F3FB01201BF0F0FB00BF03B002
:1068E0005DF804FB00B587B003900B4601928DF86C
:1068F0000B3005AB00210A461A800A469A709DF8B3
:106900000B30002B0CD0012B00D014E0039B93F82C
:106910007D301A4601239340019A134301930AE004
:10692000039B93F87D301A4601239340DB43019A81
:106930001340019300BF28238DF8143003238DF8F2
:106940001530019BDBB28DF81630084B15229A608A
:1069500005AB03221946039800F062F8034B14229A
:106960009A6000BF07B05DF804FB00BF00700040F4
:1069700084B00190019B93F878300B2B32D801A2A0
:1069800052F823F0B5691000BB691000C16910000E
:10699000C7691000D9691000D9691000DF691000BB
:1069A000DF691000CD691000D3691000DF691000A5
:1069B000DF6910002023039315E01023039312E0F6
:1069C000082303930FE0042303930CE08023039335
:1069D00009E04023039306E00223039303E001232D
:1069E000039300E000BF039B184604B0704700BF4C
:1069F00084B00190009100230393009B0393039BB9
:106A0000002B14BF01230023DBB2002B04D000BFF6
:106A1000039B013B0393F2E700BF04B0704700BF44
:106A200000B587B003900291019200238DF81730D2
:106A300000230493049A019B9A4256D22E4B1222B1
:106A40009A6014210398FFF7D3FF029A049B134422
:106A50001B78132B18D1284B10229A60264B10223A
:106A60009A60254B10229A60234B11229A60224B88
:106A700010229A60204B10229A601F4B11229A60BC
:106A80001D4B11229A6007E01B49049B5A1C04927B
:106A9000029A13441B788B600A210398FFF7A8FF22
:106AA000154B16229A6005210398FFF7A1FF124BA0
:106AB0001B6803F01003002B14BF01230023DBB27B
:106AC000002B00D0F3E705210398FFF791FF0A4B55
:106AD0001B6803F00403002B14BF01230023DBB267
:106AE000002BA7D002238DF817309DF817301846D9
:106AF00007B05DF804FB00BF0070004000B585B032
:106B000001900091019B14330321184604F08AF987
:106B1000029072B600230393039A009B9A420DD20F
:106B2000029A01210198FFF7DDFE029A00210198E7
:106B3000FFF7D8FE039B01330393EDE762B600BF76
:106B400005B05DF804FB00BF00B587B003900B46AD
:106B50008DF80B30464947481DF0F6F801201BF030
:106B60009DFA08238DF8143005AA00230093012311
:106B7000722140481DF018F905AA00230093022352
:106B800072213C481DF036F908238DF8143005AA0F
:106B9000002300930123722136481DF005F90346B6
:106BA000002B14BF01230023DBB2002B02D06FF0B7
:106BB000010358E005AA00230093022372212D4807
:106BC0001DF018F90346002B14BF01230023DBB28C
:106BD000002B02D06FF0010345E09DF81430192B13
:106BE00003D19DF81530052B02D04FF0FF333AE06A
:106BF00002238DF814309DF80B308DF8153005AA5E
:106C000000230093022372211A481DF0CDF8034699
:106C1000002B14BF01230023DBB2002B02D06FF046
:106C2000010320E00021039800F02EF812481BF029
:106C30001FFA0821039800F027F810490D481DF0AD
:106C400083F89DF80B300E4A52F823300D49184650
:106C50001EF0FCFF034618461FF0BEF90346184617
:106C60001BF01CFA0023184607B05DF804FB00BFB8
:106C7000A0860100044BFF3F9A99193E40420F0045
:106C80000440FF3F0000404000B587B003900B4632
:106C90008DF80B3000238DF814309DF80B308DF8F3
:106CA000153072B629492A481DF04EF805AA00236E
:106CB00000930223722126481DF076F80346002B2C
:106CC00014BF01230023DBB2002B02D06FF00103BD
:106CD00037E000238DF8143005AA00230093012328
:106CE00072211B481DF060F80346002B14BF0123DE
:106CF0000023DBB2002B02D06FF0010321E005AAD4
:106D0000002300930123722111481DF073F80346FC
:106D1000002B14BF01230023DBB2002B02D06FF045
:106D200001030EE00B490A481DF00EF862B69DF80B
:106D300014309DF80B209A4201D1002301E04FF05E
:106D4000FF33184607B05DF804FB00BFA0860100C2
:106D5000044BFF3F40420F0000B587B00390029103
:106D600006238DF8143072B61D491E481CF0ECFF46
:106D700005AA00230093012372211A481DF014F87C
:106D80000346002B14BF01230023DBB2002B02D0EB
:106D90006FF0010320E005AA002300930223722173
:106DA00010481DF027F80346002B14BF01230023D1
:106DB000DBB2002B02D06FF001030DE00A49094855
:106DC0001CF0C2FF62B69DF815301B029DF814201E
:106DD0001A43029B1A600023184607B05DF804FBB3
:106DE000A0860100044BFF3F40420F00000000005E
:106DF000F0B587B0019000910023049302238DF831
:106E0000173000238DF80F300DF10F029DF8173069
:106E10001946019800F054F80346002B0CBF0123DB
:106E20000023DBB2002B3DD004AB19460198FFF7DD
:106E300093FF0346002B0CBF01230023DBB2002B82
:106E40002ED0049B18461EF05BFA04460D469DF8B2
:106E50000F301A46184B53F8223018461EF062FACB
:106E600013A3D3E900231EF0B1FA02460B461646DF
:106E70001F4600981EF056FA02460B463046394629
:106E80001EF0A4FA02460B46204629461EF0C8FB17
:106E900003460C46184621461EF07AFD034602E0E2
:106EA000064B00E0054B184607B0F0BDAFF300807D
:106EB000FCA9F1D24D62503F0440FF3F000080BF6B
:106EC00000B589B005900B4603928DF813309DF8FC
:106ED0001330092B37D89DF813308DF81C3072B65B
:106EE0001C491D481CF030FF07AA00230093012312
:106EF000722119481CF058FF0346002B14BF0123D0
:106F00000023DBB2002B03D062B66FF001031DE05B
:106F1000002300930123039A72210F481CF06AFF9B
:106F20000346002B14BF01230023DBB2002B03D048
:106F300062B66FF0010309E0084907481CF004FF3E
:106F400062B6002302E062B66FF00203184609B091
:106F50005DF804FBA0860100044BFF3F40420F0098
:106F600000B585B003900291039B012B17D1029BC2
:106F70004FF6FF72934212D1042208210A481CF0F6
:106F8000C5FE4FF400330093222304220821074852
:106F900003F0C0FD064A074904481DF013FE00BF78
:106FA00005B05DF804FB00BF044BFF3F0C4BFF3FF7
:106FB0000040FF3F75AE100008B54FF6FF7101208D
:106FC000FFF7CEFF08BD00BF00B583B001900222DD
:106FD0000021094803F0F4FD0346012B0CBF0123F7
:106FE0000023DBB2002B01D0012300E00023184670
:106FF00003B05DF804FB00BF704BFF3F00B585B0E8
:1070000003900291039B012B12D1029B4FF6FF725A
:1070100093420DD14FF4003300932423042208211E
:10702000054803F077FD054A054903481DF0CAFDF0
:1070300000BF05B05DF804FB704BFF3F0040FF3F11
:1070400075AE100008B54FF6FF710120FFF7D6FFAF
:1070500008BD00BF00B583B001900091019B00996D
:1070600018461BF04DFE019B184603B05DF804FB6B
:1070700000B583B001900091019B009918461BF068
:1070800065FE00BF03B05DF804FB00BF00B583B030
:107090000190019B18461BF081FE0346184603B081
:1070A0005DF804FB00B583B0019000910099019850
:1070B000FFF7DEFF019B184603B05DF804FB00BF3D
:1070C00000B583B001900198FFF7E0FF0346184632
:1070D00003B05DF804FB00BF00B585B003900291DA
:1070E0000192094901981EF0B1FD034618461EF0B1
:1070F00099FF03461A460299039800F007F800BF6B
:1071000005B05DF804FB00BF0024744900B585B0EC
:10711000039002910192039B183302991846FBF7E2
:10712000FBFD019903981DF0E3FB00BF05B05DF87E
:1071300004FB00BF00B583B00190019A0121034810
:1071400003F01AFD00BF03B05DF804FBD84BFF3F0E
:1071500000B583B001900091009A3421019800F0AD
:10716000B5F80346184603B05DF804FB00B583B0DC
:1071700001900091009A3521019800F0A7F803468C
:10718000184603B05DF804FB00B583B001900022FF
:107190000021044803F014FD0346184603B05DF8CF
:1071A00004FB00BFD84BFF3F00B583B00190019BAB
:1071B0000022102118461DF045FA019B054918468A
:1071C0001DF058FAC8201AF079FF00BF03B05DF82F
:1071D00004FB00BF90D0030000B583B00190019B79
:1071E0000022082118461DF02DFA019B054918467A
:1071F0001DF040FAC8201AF061FF00BF03B05DF82F
:1072000004FB00BF40420F0000B583B00190144959
:10721000144803F0A3FC002307220021114803F0C7
:1072200075FD0123072200210E4803F007FD00230E
:10723000002200210B4803F069FD002300220021F9
:10724000084803F0FBFC012301220121054803F05B
:107250005DFDC8201AF032FF00BF03B05DF804FBEB
:1072600040420F00D84BFF3F00B583B0019064202F
:107270001AF024FF012307220021054803F0DEFC59
:10728000C8201AF01BFF00BF03B05DF804FB00BF6D
:10729000D84BFF3F00B583B00190012307220021A6
:1072A000094803F0CBFC64201AF008FF00230722F2
:1072B0000021054803F0C2FCC8201AF0FFFE00BF01
:1072C00003B05DF804FB00BFD84BFF3F00B587B0AB
:1072D00003900B4601928DF80B300023ADF8163069
:1072E00000238DF815304FF0FF31234818F0B6F821
:1072F0000398FFF759FF0398FFF7CCFF9DF80B3079
:107300001B029AB2BDF8163013439BB2ADF816308B
:107310009DF815309AB2BDF816301343ADF816300B
:10732000039BBDF81620114618461DF0D9F90346F7
:10733000ADF81230C8201AF0C1FE0398FFF794FF91
:107340000398FFF749FFBDF8123003F40053002BF8
:1073500005D0094818F092F84FF0FF3308E0BDF867
:107360001230DAB2019B1A70034818F087F8002334
:10737000184607B05DF804FBE845FF3F00B585B04F
:1073800001900B468DF8033013468DF80230002330
:10739000ADF80E304FF0FF31244818F05FF8019837
:1073A000FFF702FF0198FFF775FFBDF80E306FEA97
:1073B00043436FEA5343ADF80E309DF803301B0290
:1073C0009AB2BDF80E3013439BB2ADF80E309DF863
:1073D00002309AB2BDF80E301343ADF80E30019B67
:1073E000BDF80E20114618461DF07AF90346ADF897
:1073F0000C30C8201AF062FE0198FFF735FF0198A3
:10740000FFF7EAFEBDF80C3003F40053002B05D063
:10741000064818F033F84FF0FF3303E0034818F044
:107420002DF80023184605B05DF804FBE845FF3F42
:1074300000B585B00190084611461A4603468DF8FE
:1074400003300B468DF8023013468DF801300023CF
:107450008DF80F309DF80130072B02D96FF0010332
:1074600040E00DF10F031A4600210198FFF72EFFAF
:107470000346002B0CBF01230023DBB2002B02D0FC
:107480004FF0FF332EE09DF8023083F00103DBB2B2
:10749000002B10D09DF80130012202FA03F3DBB279
:1074A000DB43DAB29DF80F30DBB21340DBB2DBB264
:1074B0008DF80F300DE09DF80130012202FA03F340
:1074C000DAB29DF80F30DBB21343DBB2DBB28DF8DA
:1074D0000F309DF80F209DF8033019460198FFF7F3
:1074E0004DFF0346184605B05DF804FB00B583B0B8
:1074F0000190012300220021034803F09FFB00BFFD
:1075000003B05DF804FB00BFD84BFF3F00B583B06C
:107510000190002300220021034803F08FFB00BFED
:1075200003B05DF804FB00BFD84BFF3F00B585B04A
:1075300001900B468DF80330002303930198FFF769
:1075400023FE0346002B0CBF01230023DBB2002BDC
:1075500008D09DF80320072300210198FFF768FF5A
:1075600003460EE00198FFF7D1FF9DF803200723A3
:1075700000210198FFF75CFF03900198FFF7B6FF29
:10758000039B184605B05DF804FB00BF84B0019072
:10759000009100238DF80F30009BB3F5C87F10D306
:1075A000009B43F2903293420BD8009BA3F5C87323
:1075B000284AA2FB03239B09DBB204338DF80F306A
:1075C00043E0009B43F29032934211D9009B44F276
:1075D000C04293420CD8009BA3F54E53103B1D4A6A
:1075E000A2FB0323DB09DBB244338DF80F302CE020
:1075F000009B44F2C042934211D9009B45F6C05211
:1076000093420CD8009BA3F58943403B114AA2FB4F
:1076100003231B0ADBB24F338DF80F3015E0009BBC
:1076200045F6C052934210D9009B49F6404293421E
:107630000BD8009BA3F5BB43403B074AA2FB0323A7
:10764000DB09DBB257338DF80F309DF80F30184649
:1076500004B070471F85EB51D34D621000B585B063
:107660000190009100238DF80F30009BB3F5C87F87
:1076700004D3009B49F64042934202D94FF0FF33B6
:107680000EE000990198FFF781FF03468DF80F3057
:107690009DF80F301A4616210198FFF76FFE03463A
:1076A000184605B05DF804FB08B50B48FFF708FD68
:1076B00003464FF0000118461EF05CFC0346002B09
:1076C00002D04FF07E5301E04FF00003194602480C
:1076D000FFF7E8FC00BF08BD3C4CFF3F034B1B68B5
:1076E0000133024A136000BF704700BF9C4CFF3F4C
:1076F000064B1A6813461B019B1A9B001A46044B43
:107700001A60024B00221A6000BF70479C4CFF3F7A
:10771000A04CFF3F00B583B00190084908481CF019
:1077200017FC019B44334FF07E5206491846FFF781
:10773000D3FC00BF03B05DF804FB00BFDD76100092
:10774000444CFF3FF176100082B00190024B1B6861
:10775000184602B0704700BFA04CFF3F00B583B091
:107760000190092200210198FFF708FEA7220221BB
:107770000198FFF703FE0B2204210198FFF7FEFD9D
:10778000182207210198FFF7F9FD0F220B2101981C
:10779000FFF7F4FD302210210198FFF7EFFD1422CE
:1077A00011210198FFF7EAFD1E2212210198FFF72F
:1077B000E5FD282213210198FFF7E0FD3222142174
:1077C0000198FFF7DBFD3C2215210198FFF7D6FD5C
:1077D000462216210198FFF7D1FD54221721019866
:1077E000FFF7CCFD572218210198FFF7C7FD5A2259
:1077F00019210198FFF7C2FD5F221A210198FFF7B6
:10780000BDFD00BF03B05DF804FB00BF08B5012259
:107810000121034803F0D4F90346184608BD00BF10
:10782000D84BFF3F08B5FFF7F1FF0346002B0CBF15
:1078300001230023DBB2002B05D0044B1B68012180
:10784000184617F0B9FE00BF08BD00BFD44BFF3F7C
:1078500000B58BB005901748FFF76CFC6B464FF0F6
:10786000FF320121184617F0B7FE07AB6A4607CA78
:1078700083E80700089B03F00103002B16D04FF0AC
:10788000FF310D4817F0EAFD0C4B1B680321184629
:1078900017F07EFE0A4B1B689847084B1B680021B7
:1078A000184617F075FE044817F0E8FD142017F08D
:1078B000A3FED3E725781000E845FF3FD44BFF3FF8
:1078C0007845FF3F10B586B00390029100238DF8F4
:1078D00017300398FFF798FC0398FFF765FC0398AF
:1078E000FFF7C2FC0398FFF777FC0398FFF736FF1A
:1078F0000DF117031A4600210398FFF7E7FC9DF8E6
:107900001730092B02D04FF0FF3329E0164B072226
:107910009A63039B1433154A15491846FFF7DCFB9D
:10792000029B002B1AD050201DF053F903461C4631
:10793000002301934FF400630093002300220D49BC
:10794000204617F0B7FD0C4B1C600B4B1B68002B3F
:1079500004D00A4A029B1360002301E04FF0FF337A
:10796000184606B010BD00BF00C00140CDCC4C3D54
:10797000A976100051781000D44BFF3F7845FF3FA7
:1079800000B585B003900291039B012B20D1029B8F
:107990004FF6FF7293421BD14FF40033009336230E
:1079A000042208210C4803F0B5F80C4A0C490A4897
:1079B0001DF008F980210B48FFF74CFB4FF4804184
:1079C00009481CF03DFA054A084907481DF0FAF835
:1079D00000BF05B05DF804FBD84BFF3F0040FF3F00
:1079E00075AE10003C4CFF3F444CFF3FB93E1200C7
:1079F00008B54FF6FF710120FFF7C2FF08BD00BFB9
:107A000000B585B00390029101920093039B029A06
:107A10001A60019A039B5A60009A039B9A600A4974
:107A20000A4803F09BF8002301220021074803F0D5
:107A30006DF9012301220021044803F0FFF8039BA4
:107A4000184605B05DF804FB40420F00A44CFF3F10
:107A500082B00190019B184602B0704710B586B005
:107A60000390029101920093029A019B1A44039B96
:107A70005B689A4202D8009B002B01D100235BE097
:107A80004FF0FF312E4817F0E9FC002301220021BE
:107A90002C4803F0D3F814201AF010FB039B1B684A
:107AA0001B681B68039A1268032110469847039BC2
:107AB0001B681B681B68039A1068029A120C114617
:107AC0009847039B1B681B681B68039A1068029AFF
:107AD000120AD2B211469847039B1B681B681B68A9
