:020000040010EA
:1020000000D8FF3F4DBF110089BF11008BBF1100E9
:102010008DBF11008FBF110091BF110000000000A3
:1020200000000000000000000000000011921100FC
:1020300095BF1100000000007B921100B1921100C9
:10204000D5AB110041AD11009BBF110069A6110075
:102050009BBF11009BBF1100DD9911009BBF1100B8
:102060009BBF11009BBF11009BBF11009BBF1100C4
:102070009BBF11009BBF11009BBF11009BBF1100B4
:102080009BBF11009BBF11009BBF11009BBF1100A4
:1020900000D8FF3F4DBF110089BF11008BBF110059
:1020A0008DBF11008FBF110091BF11000000000013
:1020B000000000000000000000000000119211006C
:1020C00095BF1100000000007B921100B192110039
:1020D000D5AB110041AD11009BBF110069A61100E5
:1020E0009BBF11009BBF1100DD9911009BBF110028
:1020F0009BBF11009BBF11009BBF11009BBF110034
:102100009BBF11009BBF11009BBF11009BBF110023
:102110009BBF11009BBF11009BBF11009BBF110013
:1021200010B5054C237833B9044B13B10448AFF311
:1021300000800123237010BD4043FF3F00000000DA
:102140001CA11200084B10B51BB108490848AFF399
:1021500000800848036803B910BD074B002BFBD073
:10216000BDE81040184700BF000000004443FF3F97
:102170001CA112004043FF3F0000000001F078B8AE
:1021800008B5034801F0B4FA4FF0FF3008BD00BFB6
:102190009842120030B50546ADF5017D114801F0B9
:1021A000A7FA00F04BFF01460F4801F0A1FA00F03A
:1021B00045FF4FF400742246014668461BF0FDFEC1
:1021C000696940A81DF0BEFE084B21466846009391
:1021D00000F050FF0146064801F08AFA0DF5017D36
:1021E00030BD00BFAD421200BE421200AFBEADDE38
:1021F000CA42120008B5034801F07AFA4FF0FF30E6
:1022000008BD00BFD942120030B5ADF5017D0546CD
:1022100000F014FF4FF400742246014668461BF09C
:10222000CCFEE96850A81DF08DFE2146684600F0FE
:1022300021FF0DF5017D30BD37B5002402A941F81D
:10224000044D054601F04CF8A04210DB09480A4B4A
:10225000019A0A491A604160094A022181600421F9
:1022600082E818000560C1600261436100E0204619
:1022700003B030BD6C43FF3F5C43FF3F6843FF3F0B
:102280006043FF3F01F036B801F07EB801F096B828
:1022900010B4029C019B019410BC01F0ABB801F09A
:1022A0009BB810B4029C019B019410BC01F0DEB8F5
:1022B00001F026B901F04CB970B50D46064607F09D
:1022C00001FC0446F06807F0E8FB16490246204688
:1022D00007F020FC28681AF09BF907F0E7FB124989
:1022E0000246204607F016FC68681AF0A3F907F0CA
:1022F000DDFB0E490246204607F00CFCA8681AF0E8
:1023000087F907F0D3FB0A490246204607F002FC92
:10231000204607F09FFB0546204607F03DFC284677
:1023200070BD00BF034312000F431200154312009B
:102330001B4312007047704738B5064D002404F562
:10234000B4702844183C19F049FE14F5C07FF6D14A
:1023500038BD00BF8443FF3F10B5044619F025FE89
:10236000204610BD70B5044605460B4B44F8043BAF
:10237000204602F075FF05F1880002F071FF4CB1B4
:1023800005F58676A64205D0843E06F1140006F0D7
:102390007DF8F7E7284670BD2C43120010B50446BF
:1023A000FFF7E0FF204619F000FE204610BD0000B8
:1023B00010B50446064B403003F1180240F8403C8B
:1023C0004C330260436019F0D9FB204610BD00BFBA
:1023D00024991200A0F14000EAE7A0F14400E7E7E9
:1023E00010B50446054A08302060114619F007FE72
:1023F0002268002363601370204610BD6D641200D4
:1024000010B5044619F0D1FD204610BD10B50446A4
:10241000064B002140F8043B02F05CFC012104F172
:10242000880002F057FC204610BD00BF2C4312006C
:10243000842303FB0100043002F012BF842303FB5A
:10244000010010B51146043002F0A2FD044630B17F
:102450000146054801F04CF94FF0FF3010BD03482C
:1024600001F046F9204610BD3443120083431200A8
:1024700070B5842404FB01040434054620460E464E
:1024800002F0A8FC014608B1114812E0114801F021
:102490002FF9204603F02AF808B10F4800E00F4852
:1024A00001F026F90921204602F038FD014628B145
:1024B0000B4801F01DF94FF0FF3070BD094801F0E5
:1024C00017F931462846BDE870400322FFF7B6BF32
:1024D000C74312000C441200464412008C44120000
:1024E000AC4412000645120070B50C460646104674
:1024F00015461AF0F5FC842101FB04640146201DF9
:1025000002F046FE044638B102462946054801F06D
:10251000EFF84FF0FF3070BD2946034801F0E8F8AE
:10252000204670BDD64512001846120010B504466C
:10253000FFF73EFF204619F038FD204610BDA0F100
:102540004000F3E7A0F14400F0E7000007B52D4894
:10255000FFF746FF2C4A2D492A4819F021FD2C4B44
:10256000002203F5C070194643F8042C43F8083CD8
:1025700001F8182B19615A611A7630338342F2D16F
:10258000214A2449002019F00BFD2348FFF728FFBA
:102590001D4A1E49204819F003FD2048FFF720FF7F
:1025A000194A1A491D4819F0FBFC1D48FFF718FF8E
:1025B000154A16491A4819F0F3FC4FF0FF330093FF
:1025C000402210232021174819F00EFA0E4A16490E
:1025D000144819F0E5FC002302220121134819F0E8
:1025E0004DF9094A1249114819F0DAFC114814F062
:1025F00003FF054A10490F4803B05DF804EB19F0DA
:10260000CFBC00BF0445FF3F0040FF3F09C01100A1
:102610008C43FF3F392310003445FF3F1C45FF3FEB
:10262000B845FF3FD045FF3F372310004C45FF3FE3
:10263000B1231000A445FF3F8174110038B5064D49
:10264000002404F5B4702844183C19F0C7FC14F5B4
:10265000C07FF6D138BD00BFE445FF3F10B504464A
:10266000054A08302060114619F0C9FC2268002391
:1026700063601370204610BD6D64120010B50446EF
:10268000044B036019F02CFB204619F029FC20466E
:1026900010BD00BFE099120010B504464430FFF7AA
:1026A000EDFF04F11400FFF7E9FF204610BD10B55F
:1026B0000446FFF7E3FF204619F077FC204610BDE3
:1026C00073B53C48FFF7CAFF3B4A3C49394819F00B
:1026D00067FC3B4B002203F5C070194643F8042CFD
:1026E00043F8083C01F8182B19615A611A76303307
:1026F00083424FF00005F0D12F4A3249284619F0A5
:102700004FFC3148FFF7AAFF2B4A2C492E4819F0FD
:1027100047FC2E48FFF7A2FF274A28492B4819F00B
:102720003FFC2B48FFF79AFF4FF0FF36224A234920
:10273000274819F035FC0096102340222021254817
:1027400019F052F91C4A2449224819F029FC2B4659
:1027500002220121214819F091F8174A20491F4807
:10276000204C19F01DFC204814F046FE124A1F4967
:102770001D4819F015FC1023402220210096204608
:1027800019F032F91A4E04F1140019F075FB04F136
:1027900044006661E562256419F06EFB2046064A36
:1027A00014496664E565256702B0BDE8704019F01C
:1027B000F7BB00BF6447FF3F0040FF3F09C0110067
:1027C000EC45FF3F3D2610009447FF3F7C47FF3F0D
:1027D0001848FF3FA448FF3F37231000AC47FF3F96
:1027E000B12310003048FF3F0448FF3F81741100BF
:1027F000E09912009926100038B5064D002404F522
:10280000B4702844183C19F0E9FB14F5C07FF6D1E8
:1028100038BD00BFB848FF3F10B50446054A083030
:102820002060114619F0EBFB2268002363601370EF
:10283000204610BD6D64120037B504460A4B4FF0B8
:10284000FF3540F8043B402200951023202119F069
:10285000CBF800952A230422082104F1180005F082
:1028600089FC204603B030BD2C4C120010B500236B
:10287000041D80F87C30204601F084F9014608B13F
:1028800011480AE0114800F033FF1149114A20466F
:1028900001F00EFB014628B10F4800F029FF4FF070
:1028A000FF3010BD0D4800F023FF2046012101F04C
:1028B00005FA044610B101460948EEE7094800F060
:1028C00017FF204610BD00BFD0461200034712007C
:1028D000000034420000C0402B471200684712003D
:1028E0009A471200EB47120070B5051D04462846B2
:1028F0000E4601F07DFE014608B110480BE010487D
:1029000000F0F6FE94F87C306BB9284601F014FC18
:10291000014628B10B4800F0EBFE4FF0FF3070BDD0
:10292000094800F0E5FE94F97C30012E0CBF01222D
:102930000222134384F87C30002070BDDB49120072
:10294000214A12005C4A1200914A1200F8B5061D95
:10295000054630460F4601F0B9FE044610B1014667
:10296000104815E0104800F0C3FE012F95F87C30A8
:102970000CBF6FF001026FF00202134085F87C304B
:1029800073B9304601F00CFC044630B101460748EB
:1029900000F0AEFE4FF0FF30F8BD054800F0A8FE95
:1029A0002046F8BDBB4A1200024B12003E4B1200FB
:1029B000744B120010B50446074B01210360FFF76A
:1029C000C5FF02212046FFF7C1FF04F1180005F002
:1029D0005DFD204610BD00BF2C4C120010B5044612
:1029E000FFF7E8FF204619F0E0FA204610BD00008E
:1029F00010B50430144692B201F006FA21460246A0
:102A000020B1054800F074FE002010BD034800F01E
:102A10006FFE4FF0FF3010BD9F4B1200E64B1200CF
:102A200007B52D48FFF7F8FE2C4A2D492A4819F022
:102A3000B7FA2C4B002203F5C070194643F8042C5A
:102A400043F8083C01F8182B19615A611A763033A3
:102A50008342F2D1214A2449002019F0A1FA2348E7
:102A6000FFF7DAFE1D4A1E49204819F099FA20485E
:102A7000FFF7D2FE194A1A491D4819F091FA1D486C
:102A8000FFF7CAFE154A16491A4819F089FA4FF09D
:102A9000FF330093402210232021174818F0A4FF91
:102AA0000E4A1649144819F07BFA0023022201212C
:102AB000134818F0E3FE094A1249114819F070FA58
:102AC000114814F099FC054A10490F4803B05DF80D
:102AD00004EB19F065BA00BF384AFF3F0040FF3FE2
:102AE00009C01100C048FF3FF9271000C04AFF3F4E
:102AF000504AFF3FEC4AFF3F044BFF3F3723100093
:102B0000684AFF3FB1231000D84AFF3F817411008B
:102B100038B5064D002404F5B4702844183C19F06B
:102B20005DFA14F5C07FF6D138BD00BF184BFF3FEA
:102B300070B504460146284800F0DAFD204607F04B
:102B400057F92649064606F088FF10B94FF0FF30C6
:102B500070BDD0E906450022214B204629461AF0D7
:102B60002FF80028F2D100224FF08043204629465A
:102B70001AF044F80028E9D1204629460022184BD3
:102B80001AF014F817490028304614BF0124022413
:102B900006F063FF05460028D8D000F11801D1E9FE
:102BA0000001002200231AF029F8214660B10E48E6
:102BB000FFF79AFED5E906011AF040F821460246D1
:102BC0000948FFF715FF02E00748FFF7BFFE304650
:102BD00006F0E2FF002070BD344C12003E4C1200A3
:102BE0000000F03F464C12006C4FFF3F2DE9F843C8
:102BF00004460146254800F07BFD204607F0F8F822
:102C00002349054606F029FF804618B94FF0FF30EA
:102C1000BDE8F8831F49284606F01FFF0028F5D0BD
:102C2000D0E9066700221C4B3046394619F0C8FF30
:102C30000028EBD100224FF080433046394619F08E
:102C4000DDFF81460028E1D10022134B3046394692
:102C50004FF0010419F0AAFF00B14C46E4B221463E
:102C60000E48FFF705FCD8E9060119F0E7FF2146F9
:102C700002460A48FFF738FC21460848FFF7D8FB10
:102C8000284606F089FF0020BDE8F883344C120086
:102C9000494C12003E4C12000000F03FCC4CFF3F6C
:102CA00073B504460146144802F082FF13491248E6
:102CB00002F0CAFF60601248A56803F0B1F88542CF
:102CC0000646A0600F4B07D11A68511C092A1960EB
:102CD00002DC4FF0FF300CE000251D60606819F049
:102CE000A9FC2268CDE900010748314600F000FD4B
:102CF000284602B070BD00BFC84CFF3F6666F64074
:102D0000E44EFF3FF04DFF3F4F4C120010B504461C
:102D1000243005F0BBFB204610BD000010B5044672
:102D2000054A08302060114619F069F9226800232D
:102D300063601370204610BD6D64120030B54FF013
:102D40007E5087B016F0C4FC434800F0D1FC9823B5
:102D50008DF804304F238DF80530EE238DF80630C2
:102D600000238DF80730A1238DF8083001A9032333
:102D70003A488DF8093003F0C8FB014660B937487E
:102D800003F006FB0146364800F0B2FC334803F07E
:102D900077FB014610B145E0324844E02F4803F08C
:102DA000EBFB04462D4803F001FC05462B4803F0DD
:102DB00017FC214603462A462B4800F099FC0221C5
:102DC0002A4802F0EDFD0446002840D1284800F0D2
:102DD0008FFC4FF07E5016F07BFC2649264805F00C
:102DE0001DFC2648FFF742FD2549264805F016FC44
:102DF000204600F01BFE01460090234800F078FCBE
:102E000005F08EFB204600F011FE06AB43F8180DCE
:102E100018461AF0F2FA01461C4800F069FC05F069
:102E2000DDFC03E01A4800F063FC10E003A8FFF7A4
:102E300037FF0028FADB03A805F024FD05F042FD6A
:102E400003A9144805F074FD05F0B8FD01E04FF04A
:102E5000FF34204607B030BD6B4C1200F44DFF3FED
:102E60007A4C12008F4C1200AB4C1200C84CFF3F42
:102E7000E34C1200ED2B1000014D12006C4FFF3F90
:102E8000312B1000C2461200074D1200144D1200E3
:102E9000C44C1200A12C100007B53948FFF73EFFC3
:102EA000384A3949364819F07BF8384B002203F587
:102EB000C070194643F8042C43F8083C01F8182B5D
:102EC00019615A611A7630338342F2D12D4A304962
:102ED000002019F065F82F48FFF720FF294A2A49FA
:102EE0002C4819F05DF82C48FFF718FF254A2649B1
:102EF000294819F055F82948FFF710FF214A2249BF
:102F0000264819F04DF84FF0FF330093402210236C
:102F10002021234818F068FD1A4A2249204819F058
:102F20003FF80023022201211F4818F0A7FC154A90
:102F30001E491D4819F034F81D4814F05DFA114A75
:102F40001C491B4819F02CF81B4803F017FA0D4ACE
:102F50001A49194819F024F81948FFF757FA094A8D
:102F60001849174819F01CF81748FFF765FC054A7F
:102F70001649154803B05DF804EB19F011B800BF0D
:102F8000984CFF3F0040FF3F09C01100204BFF3F1E
:102F9000112B1000D84DFF3FB04CFF3FE84EFF3FD4
:102FA000584FFF3F37231000004FFF3FB123100061
:102FB000D04EFF3F81741100F44DFF3F0D2D1000E6
:102FC000CC4CFF3F652310006C4FFF3FB52910002C
:102FD00038B5064D002404F5B4702844183C18F0A8
:102FE000FDFF14F5C07FF6D138BD00BFEC4FFF3FA9
:102FF000044B10B504460360806808B118F0CEFF9A
:10300000204610BD284D120010B50446FFF7F0FF12
:10301000204618F0CAFF204610BD000010B5044637
:10302000054A08302060114618F0E9FF22680023A5
:1030300063601370204610BD6D6412001FB54FF41D
:1030400080734FF48022094901A802F089FF084BE0
:1030500001A85A689B68110A02F0B0FF044601A853
:1030600002F0A6FF204604B010BD00BF1852FF3F7B
:103070000C52FF3F7FB50E46054630B3154C4FF45A
:1030800080734FF48022144901A802F069FF324690
:103090002946A0681AF091FFA36801AA61680F4849
:1030A00000F026FB6268A368110A01A802F0FCFF89
:1030B0000446014684F00104094800F019FBE4B21B
:1030C00001A8644202F074FF01E04FF0FF34204693
:1030D00004B070BD0C52FF3F1852FF3F304D12003C
:1030E000454D120013B53F48FFF798FF3E4A3F4950
:1030F0003C4818F055FF3E4B002203F5C0701946BE
:1031000043F8042C43F8083C01F8182B19615A6164
:103110001A7630338342F2D1334A3649002018F010
:103120003FFF3548FFF77AFF2F4A3049324818F001
:1031300037FF3248FFF772FF2B4A2C492F4818F00F
:103140002FFF2F48FFF76AFF4FF0FF34264A274929
:103150002B4818F025FF00941023402220212948F5
:1031600018F042FC204A2849264818F019FF00238D
:1031700002220121254818F081FB1B4A24492348DB
:1031800018F00EFF234814F037F9174A2249214856
:1031900018F006FF00941023402220211F4818F049
:1031A00023FC114A18491D4818F0FAFE1C4C1D4B0F
:1031B0000022236008214FF400731848636018F060
:1031C0004BFC1949154818F05FFC606818F000FFC7
:1031D000A0602046044A154902B0BDE8104018F02E
:1031E000DFBE00BF6C51FF3F0040FF3F09C0110030
:1031F000F44FFF3FD12F1000F451FF3F8451FF3FA8
:103200004052FF3F5852FF3F372310009C51FF3F71
:10321000B12310002C52FF3F817411001852FF3F60
:103220000C52FF3F284D120040420F00F12F1000BA
:1032300038B5064D002404F5B4702844183C18F045
:10324000CDFE14F5C07FF6D138BD00BF6C52FF3FF4
:1032500010B50446054A08302060114618F0CFFE2C
:103260002268002363601370204610BD6D64120055
:1032700070B5054690B0184803F08AF8142201464C
:103280000DEB02001CF0B0FE6C1E6E1D14F8010F59
:103290001EF0C4F9A6422070F8D10FAB03930EAB19
:1032A00002930DAB01930AAC0CAB009322460BAB1F
:1032B0000A4905A81CF0B0FD062808D1002354F8DF
:1032C0002320EA540133062BF9D1002001E04FF00E
:1032D000FF3010B070BD00BFF44DFF3F524D1200E3
:1032E00008B50A460146024803F07CFD08BD00BF50
:1032F000F44DFF3F02282DE9F8430D4612D1112A63
:1033000010D81F4B23FA02F202F0010282F00100F2
:1033100042B104461B4A2601B3581A4F33B1013457
:10332000082CF8D14FF0FF30BDE8F88307EB060812
:10333000012DC8F80C300CD1282018F038FE814639
:1033400004F08AFD47F80690C8F808502046BDE80A
:10335000F883022DE6D1102018F029FE814604F0F2
:1033600012FE47F80690C8F80850484604F011FECF
:103370001CF0C4FBC0F30E01484604F0C9FEE5E7AB
:10338000410002001C54FF3F082838B511D80A4BF1
:1033900000011C581D1864B1204604F051FD204660
:1033A00018F003FE1022002128461AF02CFE0020FF
:1033B00038BD4FF0FF3038BD1C54FF3F082805D8FA
:1033C000044B0001185808B104F08DBD4FF0FF30D8
:1033D000704700BF1C54FF3F082805D8044B00016C
:1033E000185808B104F0A9BD4FF0FF30704700BF76
:1033F0001C54FF3F2DE9F04108288CB00E461746BB
:10340000984629D8174D04012B592BB3D8F804201E
:10341000154912BA130E0193C2F3074302920093A7
:1034200003A8C2F30723D2B21CF0D2FC07A804F011
:103430004FFCB8F8022052BA03A907A804F066FCB2
:103440003B46324607A9285904F03EFE044607A829
:1034500004F04AFC204601E04FF0FF300CB0BDE81C
:10346000F08100BF1C54FF3F644D12002DE9F04372
:10347000082889B00546884691461E4634D81D4F17
:1034800004013B5983B301461B4800F031F903A8FE
:1034900004F01EFC4B46424603A9385904F0A8FD2F
:1034A000044602462946144800F022F9002C15DB98
:1034B00003A804F069FC0DF10B0301930DF10A035D
:1034C000009302AA0DF109030C491CF0A5FC029817
:1034D000706003A804F05EFC708001E04FF0FF34E0
:1034E00003A804F001FC01E04FF0FF34204609B0CE
:1034F000BDE8F0831C54FF3F704D1200644D120074
:1035000030B5082889B00D4619D80F4B00011C585A
:10351000ACB14A6804A812BA130E0193C2F3074370
:10352000039200930949C2F30723D2B21CF050FC66
:103530006A8852BA04A9204604F09BFC01E04FF0CF
:10354000FF3009B030BD00BF1C54FF3F644D120076
:10355000082810B51DD840F6FF74A14219D1A2F574
:103560008052053A012A17D8029A082A17D1CBB1FE
:103570005A684FF47A7492FBF4F2196804FB012242
:10358000002A11DD094B00010021185804F02CFC21
:103590000AE04FF0FF3010BD6FF0010010BD6FF07A
:1035A000020010BD184610BD002010BD1C54FF3F86
:1035B00007B53048FFF74CFE2F4A30492D4818F028
:1035C000EFFC2F4B002203F5C070194643F8042C82
:1035D00043F8083C01F8182B19615A611A76303308
:1035E0008342F2D1244A2749002018F0D9FC26480A
:1035F000FFF72EFE204A2149234818F0D1FC23482A
:10360000FFF726FE1C4A1D49204818F0C9FC204837
:10361000FFF71EFE184A19491D4818F0C1FC4FF06B
:10362000FF3300934022102320211A4818F0DCF9C0
:10363000114A1949174818F0B3FC0023022201214E
:10364000164818F01BF90C4A1549144818F0A8FC44
:10365000144813F0D1FE084A1349124818F0A0FC90
:1036600000231946114A99501033802BFBD103B027
:103670005DF804FBEC53FF3F0040FF3F09C0110021
:103680007452FF3F313210009C54FF3F0454FF3FFF
:10369000C854FF3F3855FF3F37231000E054FF3F29
:1036A000B1231000B454FF3F817411001C54FF3F3C
:1036B00038B5064D002404F5B4702844183C18F0C1
:1036C0008DFC14F5C07FF6D138BD00BF4C55FF3FCF
:1036D00010B50446054A08302060114618F08FFCEA
:1036E0002268002363601370204610BD6D641200D1
:1036F0000FB4F7B5114E08AD55F8047B104C4FF0E0
:10370000FF31304613F09EFE00233A4623707521A8
:103710002B46204601951EF023FA0A4920461CF04C
:10372000EAFB2146084818F0C1FA304613F09AFE29
:1037300003B0BDE8F04004B0704700BFFC56FF3F47
:103740008057FF3F496612007858FF3F07B537485A
:10375000FFF7BEFF364A3749344818F021FC364B94
:10376000002203F5C070194643F8042C43F8083CC6
:1037700001F8182B19615A611A7630338342F2D15D
:103780002B4A2E49002018F00BFC2D48FFF7A0FF14
:10379000274A28492A4818F003FC2A48FFF798FFCF
:1037A000234A2449274818F0FBFB2748FFF790FFDE
:1037B0001F4A2049244818F0F3FB4FF0FF330093D1
:1037C000402210232021214818F00EF9184A2049E0
:1037D0001E4818F0E5FB0023022201211D4818F0C5
:1037E0004DF8134A1C491B4818F0DAFB1B4813F02C
:1037F00003FE0F4A1A49194818F0D2FB00234FF470
:1038000000724FF48071174818F038F8084A1249CE
:10381000144818F0C5FB144813F0EEFD044A104993
:10382000114803B05DF804EB18F0BABBCC56FF3F6B
:103830000040FF3F09C011005455FF3FB136100052
:103840001057FF3FE456FF3F0C58FF3F2458FF3FFF
:10385000372310002857FF3FB1231000F857FF3FD0
:10386000817411003858FF3FFC56FF3F38B5151ED4
:103870000FDB094800230068FEF708FD04460146F7
:103880002A460648FFF734FF002C08BF6FF00104FA
:1038900000E02C46204638BD2440FF3F824D1200F8
:1038A00038B5151E0FDB094800230068FEF7F7FC4A
:1038B000044601462A460648FFF71AFF002C08BFB7
:1038C0006FF0010400E02C46204638BD2440FF3F45
:1038D000934D120038B501FB00F4204600F036F994
:1038E0000546224600211AF08EFB284638BD00000E
:1038F00010B5044606F058FC1F4B21461F481C60BB
:10390000FFF7F6FE07F032F81D4B1E4C186006F06C
:103910006FFC206010B91C48FFF7EAFE0022114638
:10392000206806F087FC2068184906F079FA2068BC
:10393000174906F077FA206806F089FA154C2060DE
:1039400010B91548FFF7D4FE0B49206806F06CFA51
:103950000949206806F06AFA206806F089FC012807
:1039600005D00E48FFF7C4FE4FF0FF3010BD0C48E5
:10397000FFF7BEFE002010BD2440FF3FA44D120003
:103980009858FF3F9058FF3FB84D1200A1381000E3
:103990006D3810009458FF3FCA4D1200DC4D1200E4
:1039A000ED4D120038B50D46144611460548FFF797
:1039B0009FFE054B224629461868BDE8384006F0B0
:1039C0006EBA00BFFE4D12009458FF3F38B50D4649
:1039D000144611460548FFF78BFE054B2246294643
:1039E0001868BDE8384006F04ABA00BF084E120019
:1039F0009458FF3F08B50948FFF77AFE084B18684E
:103A000006F039FA074B186806F01DFA06F0F8FCC4
:103A10000548FFF76DFE002008BD00BF124E1200E2
:103A20009458FF3F9058FF3F1C4E120038B5094B89
:103A30000446186819F054FA0546074818F0CAF900
:103A40000146284619F098F919F064FC04B1206089
:103A500038BD00BF9C58FF3FA058FF3F30B505461A
:103A600089B00020FFF7E2FF08AB43F8040D1846C9
:103A70001AF024F804460B4818F0C2F92369626969
:103A80000490216801330391616802F26C72029123
:103A9000A16828460191E168009103491CF098F95A
:103AA00009B030BDA058FF3F274E120010B50446A4
:103AB0000020FFF7BBFF2060024818F07DF960602E
:103AC000002010BDA058FF3F10B50446016805480E
:103AD000FFF70EFE2268044B04481A6018F0BAF98A
:103AE000002010BD4B4E12009C58FF3FA058FF3FD6
:103AF00008B515F003FE002008BD0000014818F0CD
:103B000017B900BFA058FF3FEFF3058303B100BE14
:103B1000704700000848094A08B5121A00211AF037
:103B200072FA15F02BFB1AF071F816F0A3FA17F0E1
:103B30005BFE19F07DFC00BF4043FF3F7077FF3F05
:103B4000022801DD17F0E6BD0120704708B5FFF738
:103B5000DBFFBDE808401AF0F1B908B5FFF7D4FF64
:103B6000BDE808401CF004B808B5FFF7CDFFBDE87C
:103B700008401AF0EBB908B5012019F059FC08B556
:103B8000FFF7F9FF00B585B00190019800F08AFFBA
:103B9000019800F0E5FF019801F06EF80DF10A03BD
:103BA0001A461821019800F00FFE0390039B13F1B1
:103BB000020F02D16FF001037AE00DF10A031A46F9
:103BC0001721019800F000FE0390039B13F1020FF0
:103BD00002D16FF001036BE0019801F023F803902C
:103BE000039B002B01D0039B62E00221019800F0AF
:103BF00019FC0390039B002B01D0039B58E002218A
:103C0000019800F04FFB039B002B01D0039B4FE07A
:103C10000021019800F086FB0390039B002B01D04C
:103C2000039B45E00021019800F0BCFB0390039B3F
:103C3000002B01D0039B3BE00321019800F072FCB4
:103C40000390039B002B01D0039B31E001210198DD
:103C500000F028FC0390039B002B01D0039B27E07E
:103C60001549019800F0D0FA0390039B002B01D076
:103C7000039B1DE04FF000020121019800F05CF869
:103C80000390039B002B01D0039B11E04FF0000237
:103C90000221019800F050F80390039B002B01D003
:103CA000039B05E05821019800F07CFC0390039BE6
:103CB000184605B05DF804FBECB1040000B585B012
:103CC00001900B468DF803300DF10A031A460821C6
:103CD000019800F065FD034613F1020F0CBF0123AC
:103CE0000023DBB2002B02D06FF001031FE0BDF810
:103CF0000A3023F003039BB2ADF80A309DF803307D
:103D00009AB2BDF80A3013439BB2ADF80A30BDF841
:103D10000A301A460821019800F024FE0390039B04
:103D200013F1020F02D16FF0010300E000231846E7
:103D300005B05DF804FB00BF00B58BB003900B46E7
:103D400001928DF80B300023ADF826302C4B0893F0
:103D50004FF0000307930899019819F0D1FA034630
:103D6000002B06D10799019819F0ACFA0346002BF5
:103D700002D06FF002033FE02249019819F004F9E4
:103D800003461F49184619F0B3F90346184619F0BF
:103D9000E7FA0346ADF81A30BDF81A30ADF8263010
:103DA0009DF80B30012B02D0022B0FD01DE0BDF887
:103DB00026301A460921039800F0D4FD0590059B92
:103DC00013F1020F14D16FF0010315E0BDF8263096
:103DD0001A460A21039800F0C5FD0590059B13F1D2
:103DE000020F07D16FF0010306E06FF0020303E05A
:103DF00000BF00E000BF002318460BB05DF804FBD5
:103E00000000C84200C07F4400B587B001900B4657
:103E10008DF803301346ADF800300023ADF81630AE
:103E200040F2FF33ADF81430BDF80020BDF8143077
:103E30009A4202D96FF0020333E0BDF80030ADF8CA
:103E40001230BDF81230ADF816309DF80330012B5A
:103E500002D0022B0FD01DE0BDF816301A46092102
:103E6000019800F07FFD0390039B13F1020F14D122
:103E70006FF0010315E0BDF816301A460A210198CB
:103E800000F070FD0390039B13F1020F07D16FF058
:103E9000010306E06FF0020303E000BF00E000BF93
:103EA0000023184607B05DF804FB00BF00000000C7
:103EB00000B589B00390029101920199029818F01F
:103EC0005BFF03469649184619F01AFA0346002B81
:103ED00002D06FF0020306E1029818F0ABFB84A356
:103EE000D3E9002318F08AFE0346002B02D08D4B45
:103EF000029308E08C49029819F0E4F90346002B7C
:103F000001D08A4B02938949029819F0D1F90346EE
:103F1000002B03D000238DF81F3014E08249029853
:103F200018F028FF03468249184619F02DF8034679
:103F30008049184619F0DCF80346184619F010FAC3
:103F400003468DF81F300DF116031A46032103981E
:103F500000F026FC034613F1020F0CBF01230023DF
:103F6000DBB2002B02D06FF00103BCE0BDF81630CD
:103F700023F07F039BB2ADF816309DF81F309AB244
:103F8000BDF8163013439BB2ADF81630BDF81630AD
:103F90001A460321039800F0E5FC0690019818F0FA
:103FA00049FB55A3D3E9002318F028FE0346002B54
:103FB00003D007238DF81E3062E0019818F03AFB19
:103FC0004FA3D3E9002318F019FE0346002B03D0BA
:103FD00007238DF81E3053E0019818F02BFB4AA3FD
:103FE000D3E9002318F00AFE0346002B03D0062372
:103FF0008DF81E3044E0019818F01CFB44A3D3E96F
:10400000002318F0FBFD0346002B03D005238DF899
:104010001E3035E0019818F00DFB3FA3D3E90023D3
:1040200018F0ECFD0346002B03D004238DF81E305E
:1040300026E04FF08041019819F062F90346002B09
:1040400003D003238DF81E301AE04FF07F51019802
:1040500019F056F90346002B03D002238DF81E30C9
:104060000EE04FF07E51019819F04AF90346002BFB
:1040700003D001238DF81E3002E000238DF81E309E
:104080000DF116031A460221039800F089FB03463E
:1040900013F1020F0CBF01230023DBB2002B02D06F
:1040A0006FF001031FE0BDF8163023F007039BB249
:1040B000ADF816309DF81E309AB2BDF81630134395
:1040C0009BB2ADF81630BDF816301A46022103989F
:1040D00000F048FC0690069B13F1020F02D16FF02E
:1040E000010300E00023184609B05DF804FB00BF9F
:1040F00066666666660650403333333333331740A3
:1041000066666666666613403333333333330F4077
:1041100033333333333307403333333333330340B1
:10412000000088423333804200007041000030417B
:104130000000FE426666444200B585B001900DF174
:104140000E031A460221019800F02AFB034613F1E0
:10415000020F0CBF01230023DBB2002B02D06FF053
:10416000010319E0BDF80E3043F020039BB2ADF817
:104170000E30BDF80E301A460221019800F0F2FB15
:104180000346002B0CBF01230023DBB2002B01D020
:10419000002301E06FF00103184605B05DF804FB51
:1041A00000B585B001900DF10E031A460221019869
:1041B00000F0F6FA034613F1020F0CBF01230023AF
:1041C000DBB2002B02D06FF0010319E0BDF80E3016
:1041D00023F020039BB2ADF80E30BDF80E301A4626
:1041E0000221019800F0BEFB0346002B0CBF012307
:1041F0000023DBB2002B01D0002301E06FF00103AC
:10420000184605B05DF804FB00B587B00190009139
:10421000234A009BB2FBF3F30593059B072B02D9BE
:10422000059B262B02D96FF0020335E00DF10E033A
:104230001A460121019800F0B3FA034613F1020F68
:104240000CBF01230023DBB2002B02D06FF001036F
:1042500022E0BDF80E3023F0F8039BB2ADF80E302B
:10426000059B9BB2073B9BB2DB009AB2BDF80E30B8
:1042700013439BB2ADF80E30BDF80E301A46012143
:10428000019800F06FFB0490049B13F1020F02D120
:104290006FF0010300E00023184607B05DF804FB4F
:1042A00000127A0000B585B001900B468DF80330FE
:1042B0000DF10A031A460221019800F071FA034633
:1042C00013F1020F0CBF01230023DBB2002B02D03D
:1042D0006FF0010322E0BDF80A3023F018039BB20F
:1042E000ADF80A309DF80330DB009AB2BDF80A3011
:1042F0009BB213439BB29BB2ADF80A30BDF80A30B3
:104300001A460221019800F02DFB0390039B13F144
:10431000020F02D16FF0010300E00023184605B040
:104320005DF804FB00B585B001900B468DF80330B5
:104330000DF10A031A460221019800F031FA0346F2
:1043400013F1020F0CBF01230023DBB2002B02D0BC
:104350006FF0010322E0BDF80A3023F4C0739BB272
:10436000ADF80A309DF80330DB009AB2BDF80A3090
:104370009BB213439BB29BB2ADF80A30BDF80A3032
:104380001A460221019800F0EDFA0390039B13F105
:10439000020F02D16FF0010300E00023184605B0C0
:1043A0005DF804FB00B585B001900B468DF8033035
:1043B0000DF10A031A460521019800F0F1F90346B0
:1043C00013F1020F0CBF01230023DBB2002B02D03C
:1043D0006FF0010322E0BDF80A3023F4C0739BB2F2
:1043E000ADF80A309DF803301B029AB2BDF80A30CE
:1043F0009BB213439BB29BB2ADF80A30BDF80A30B2
:104400001A460521019800F0ADFA0390039B13F1C1
:10441000020F02D16FF0010300E00023184605B03F
:104420005DF804FB00B585B001900B468DF80330B4
:104430000DF10A031A460121019800F0B1F9034673
:1044400013F1020F0CBF01230023DBB2002B02D0BB
:104450006FF0010322E0BDF80A3023F006039BB29F
:10446000ADF80A309DF803305B009AB2BDF80A300F
:104470009BB213439BB29BB2ADF80A30BDF80A3031
:104480001A460121019800F06DFA0390039B13F185
:10449000020F02D16FF0010300E00023184605B0BF
:1044A0005DF804FB00B585B001900B468DF8033034
:1044B0000DF10A031A460121019800F071F9034633
:1044C00013F1020F0CBF01230023DBB2002B02D03B
:1044D0006FF0010322E0BDF80A3023F440739BB271
:1044E000ADF80A309DF803301B029AB2BDF80A30CD
:1044F0009BB213439BB29BB2ADF80A30BDF80A30B1
:104500001A460121019800F02DFA0390039B13F144
:10451000020F02D16FF0010300E00023184605B03E
:104520005DF804FB00B585B001900B468DF80330B3
:104530000DF10A031A460321019800F031F90346F0
:1045400013F1020F0CBF01230023DBB2002B02D0BA
:104550006FF0010322E0BDF80A3023F4C0739BB270
:10456000ADF80A309DF80330DB019AB2BDF80A308D
:104570009BB213439BB29BB2ADF80A30BDF80A3030
:104580001A460321019800F0EDF90390039B13F103
:10459000020F02D16FF0010300E00023184605B0BE
:1045A0005DF804FB00B585B001900B46ADF8023014
:1045B000BDF80230B3F5007F02D36FF0020313E0C1
:1045C000BDF80230ADF80E30BDF80E301A460D21A0
:1045D000019800F0C7F90290029B13F1020F02D17B
:1045E0006FF0010300E00023184605B05DF804FBFE
:1045F00000B585B001900B468DF803309DF803306F
:10460000012B02D0022B2AD053E00DF10A031A46E7
:104610000621019800F0C4F8034613F1020F0CBF05
:1046200001230023DBB2002B03D06FF001030393BF
:1046300043E0BDF80A3043F002039BB2ADF80A3004
:10464000BDF80A301A460621019800F08BF9039054
:10465000039B13F1020F30D16FF0010331E00DF134
:104660000A031A460621019800F09AF8034613F14E
:10467000020F0CBF01230023DBB2002B03D06FF02D
:10468000010303931BE0BDF80A3043F001039BB222
:10469000ADF80A30BDF80A301A460621019800F03C
:1046A00061F90390039B13F1020F08D16FF001032E
:1046B00007E06FF00103039302E000BF00E000BFDA
:1046C0000023184605B05DF804FB00BF00B585B0B7
:1046D00001900B468DF803309DF80330012B02D07A
:1046E000022B2AD056E00DF10A031A460621019842
:1046F00000F056F8034613F1020F0CBF012300230C
:10470000DBB2002B03D06FF0010303933FE0BDF851
:104710000A3023F002039BB2ADF80A30BDF80A302C
:104720001A460621019800F01DF90390039B13F12E
:10473000020F2CD16FF001032DE00DF10A031A4690
:104740000621019800F02CF8034613F1020F0CBF6C
:1047500001230023DBB2002B03D06FF0010303938E
:1047600017E0BDF80A3023F001039BB2ADF80A3020
:10477000BDF80A301A460621019800F0F3F80390BC
:10478000039B13F1020F04D16FF0010303E000BF9C
:1047900000E000BF0023184605B05DF804FB00BF31
:1047A00000B587B003900B4601928DF80B309DF851
:1047B0000B30019A1946039800F02EF80590059BDE
:1047C000184607B05DF804FB00B587B003900B46B0
:1047D00001928DF80B309DF80B30019A1946039821
:1047E00000F01AF80590059B184607B05DF804FB29
:1047F00000B587B003900B4601928DF80B309DF801
:104800000B30019A1946039800F006F80590059BB5
:10481000184607B05DF804FB00B587B003900B465F
:1048200001928DF80B300023ADF816300023ADF85F
:104830001430019B002B02D16FF002038BE04FF08C
:10484000FF31474812F0FEFD039800F015FA039877
:1048500000F062F99DF80B309B029AB2BDF8163059
:1048600013439BB2ADF81630BDF81620BDF81430D6
:104870001343ADF81630BDF816301946039800F012
:1048800087F903468DF813309DF813305B029AB216
:10489000BDF8163013439BB2ADF81630039BBDF83C
:1048A00016201146184617F025F90346ADF81030CA
:1048B000019BBDF810201A80039800F051F903986D
:1048C00000F02AF90023ADF816300023ADF81430BB
:1048D000BDF8163043F4C043ADF81630BDF81620CD
:1048E000BDF814301343ADF81630BDF81630194634
:1048F000039800F04DF903468DF813309DF81330FE
:104900005B029AB2BDF8163013439BB2ADF8163075
:10491000039BBDF816201146184617F0EBF8034626
:10492000ADF81030039800F01BF9039800F0B8F9C7
:104930000B4812F097FDBDF810301BB2002B02DAC5
:104940006FF0010307E0019B1B88C3F309039AB2D0
:10495000019B1A800023184607B05DF804FB00BFD6
:10496000A445FF3F00B585B001900B468DF803309C
:104970001346ADF800300023ADF80E304FF0FF3194
:10498000474812F05FFD019800F076F9019800F0B9
:10499000E7F8019800F0C0F8BDF80E306FEA434325
:1049A0006FEA5343ADF80E309DF80330DB029AB244
:1049B000BDF80E3013439BB2ADF80E30BDF80E209B
:1049C000BDF800301343ADF80E30BDF80E30194677
:1049D000019800F0DDF803468DF80D309DF80D309C
:1049E0009B029AB2BDF80E3013439BB2ADF80E3065
:1049F000019BBDF80E201146184617F07BF80346C0
:104A0000ADF80A30019800F0ABF8019800F084F896
:104A10000023ADF800300023ADF80E30BDF80E30A5
:104A20006FEA43436FEA5343ADF80E30BDF80E20F2
:104A3000BDF800301343ADF80E30BDF80E30194606
:104A4000019800F0A5F803468DF80D309DF80D3063
:104A50005B029AB2BDF80E3013439BB2ADF80E3034
:104A6000019BBDF80E201146184617F043F8034687
:104A7000ADF80A30019800F073F8019800F010F9D1
:104A8000074812F0EFFCBDF80A301BB2002B02DA27
:104A90006FF0010300E00023184605B05DF804FB49
:104AA000A445FF3F00B583B00190019B1433194921
:104AB000184603F083FB019B03F11400002300223E
:104AC000012103F02FFC019B03F1140000230122BC
:104AD000012103F027FC019B03F1140000230222B3
:104AE000012103F01FFC019B03F1140001230122AB
:104AF000012103F0AFFB019B03F11400012302220B
:104B0000012103F0A7FB142014F008FE00BF03B03E
:104B10005DF804FB40420F0000B583B00190019B9B
:104B200003F1140001230022012103F093FB142060
:104B300014F0F4FD072014F0F1FD019B03F11400C3
:104B400000230022012103F085FB142014F0E6FD70
:104B5000072014F0E3FD00BF03B05DF804FB00BFC5
:104B600000B583B00190072014F0D8FD019B03F13C
:104B7000140001230022012103F06CFB142014F027
:104B8000CDFD072014F0CAFD00BF03B05DF804FBA3
:104B900086B001900B46ADF8023000238DF8153039
:104BA00000230493BDF80230ADF8163000230493BF
:104BB000049B0F2BCCBF01230023DAB2BDF81630C3
:104BC000002B0CBF01230023DBB21343DBB2002B0D
:104BD00014D1BDF81630DBB203F00103DAB29DF850
:104BE00015305340DBB28DF81530BDF816305B1030
:104BF000ADF81630049B01330493D9E79DF81530C6
:104C0000002B0CBF01230023DBB28DF80F309DF881
:104C10000F30002B01D0012300E00023184606B01E
:104C2000704700BF00B585B00190002303930DF1DC
:104C30000A031A461A210198FFF7DAFD034613F119
:104C4000020F0CBF01230023DBB2002B02D06FF058
:104C500001030DE0BDF80A30DBB29BB2ADF80A30BB
:104C6000BDF80A30582B02D04FF0FF330393039B5B
:104C7000184605B05DF804FB00B583B00190019BB8
:104C800000221021184616F0E7FE019B0349184642
:104C900016F0FAFE00BF03B05DF804FB400D030000
:104CA00000B587B001900823059300230493084BB7
:104CB0000393019B049A0599184616F0CDFE019BBB
:104CC0000399184616F0E0FE00BF07B05DF804FB3C
:104CD00040420F0000B585B003900B468DF80B30B5
:104CE00003984FF0FF33009310234022202116F049
:104CF0007BFE039B03F114004FF400330093282341
:104D00000422082103F036FA039B002283F878205E
:104D1000039B9DF80B2083F88320039B93F883303B
:104D2000012B28D1039B032283F87920039B0122C6
:104D300083F87A20039B042283F87B20039B0122C3
:104D400083F87C20039B062283F87D20039B0122AD
:104D500083F87E20039B052283F87F20039B01229A
:104D600083F88020039B062283F88120039B002286
:104D700083F8822028E0039B072283F87920039B95
:104D8000002283F87A20039B002283F87B20039B78
:104D9000012283F87C20039B022283F87D20039B61
:104DA000012283F87E20039B012283F87F20039B4E
:104DB000012283F88020039B062283F88120039B35
:104DC000002283F8822000BF039B184605B05DF8DF
:104DD00004FB00BF00B587B00190019800F0D6FB3E
:104DE000019800F059FC019B14330321184603F08D
:104DF00025FB0590059A0021019800F09FFC0021F9
:104E0000019800F067FC019B03F11400019B93F8EB
:104E10008210019B93F88130DBB25AB2012303F078
:104E200019FA019800F084FB0221019800F0D0FAF1
:104E300003468DF80F309DF80F3043F04003DBB28E
:104E40008DF80F309DF80F301A460221019800F0BE
:104E5000FDFA0490049B002B02D06FF0010359E08F
:104E60000221019800F0B4FA03468DF80F309DF846
:104E70000F3023F04003DBB28DF80F309DF80F3078
:104E80001A460221019800F0E1FA0490049B002BDD
:104E900002D06FF001033DE00DF10E030DF10F02A2
:104EA0000521019800F004FA0490049B002B02D025
:104EB0006FF001032EE00DF10E030DF10F0206213C
:104EC000019800F0F5F90490049B002B02D06FF0DC
:104ED00001031FE0019800F009FB0321019800F095
:104EE00077FA03468DF80F309DF80F3063F07F039B
:104EF000DBB28DF80F309DF80F301A460321019870
:104F000000F0A4FA0490049B002B02D06FF0010380
:104F100000E00023184607B05DF804FB00B585B03B
:104F200001900B468DF803301F238DF80F309DF84C
:104F300003209DF80F309A4202D96FF0020322E05D
:104F40000121019800F044FA03468DF80E309DF8D7
:104F50000E3023F01F038DF80E309DF80E209DF8C3
:104F6000033013438DF80E309DF80E301A460121A0
:104F7000019800F06BFA0290029B002B02D06FF0B8
:104F8000010300E00023184605B05DF804FB00BFF4
:104F900000B585B001900B468DF803309DF80330C5
:104FA0000B2B6FD801A252F823F000BFDD4F100089
:104FB000EB4F1000F94F1000075010001550100073
:104FC00023501000315010003F5010004D50100081
:104FD0005B501000695010007750100000238DF8CE
:104FE0000F3000238DF80E3053E000238DF80F3082
:104FF00001238DF80E304CE000238DF80F30022392
:105000008DF80E3045E000238DF80F3003238DF826
:105010000E303EE000238DF80F3004238DF80E3063
:1050200037E000238DF80F3005238DF80E3030E087
:1050300000238DF80F3000238DF80E3029E0002377
:105040008DF80F3006238DF80E3022E001238DF805
:105050000F3000238DF80E301BE002238DF80F3047
:1050600000238DF80E3014E003238DF80F30002359
:105070008DF80E300DE004238DF80F3000238DF8ED
:105080000E3006E000238DF80F3000238DF80E302F
:1050900000BF0921019800F09BF903468DF80D30FF
:1050A0009DF80D3023F00703DAB29DF80F3013435B
:1050B000DBB28DF80D309DF80D301A4609210198AC
:1050C00000F0C4F90290029B002B02D06FF00103A4
:1050D00027E00121019800F07BF903468DF80D309F
:1050E0009DF80D3003F01F03DAB29DF80E305B011E
:1050F000DBB21343DBB28DF80D309DF80D301A464C
:105100000121019800F0A2F90290029B002B02D02D
:105110006FF0010305E0019B9DF8032083F87820E0
:105120000023184605B05DF804FB00BF00B585B04C
:1051300001900B468DF803300221019800F048F9E8
:1051400003468DF80F309DF80F3003F07F038DF884
:105150000F309DF80330DB01DAB29DF80F301343B6
:10516000DBB28DF80F309DF80F301A4602210198FE
:1051700000F06CF90290029B002B02D06FF001034B
:1051800000E00023184605B05DF804FB00000000B5
:1051900010B588B0019000914FF00001009818F010
:1051A000A5F80346002B01D0009B02E0009B83F092
:1051B00000430693019800F007FB0590059817F04F
:1051C00017FA03460C461A46234623A1D1E90001EB
:1051D00017F0AEFB03460C461846214617F076FD45
:1051E000034604930499069818F06CF80346002BC4
:1051F00002D06FF002032AE04FF00001009818F08F
:105200007FF80346002B05D000210198FFF78EFFA1
:10521000079008E001210198FFF788FF0790009BA5
:1052200083F000430093079B002B01D0079B0EE007
:105230000499009817F05CFF0346184618F090F8A0
:10524000034603930399019800F084FB002318465A
:1052500008B010BDAFF30080CDCCCCCCCCCCFC3FA3
:1052600000B585B001900321019800F0B1F8034624
:105270008DF80F309DF80F3003F07F038DF80F305D
:105280009DF80F301A460321019800F0DFF803461D
:10529000002B14BF01230023DBB2002B02D06FF0E0
:1052A000010300E00023184605B05DF804FB00BFD1
:1052B00000B589B00390019200930B468DF80B3036
:1052C00000238DF81E30002306934FF0FF313F4836
:1052D00012F0B8F8039800F02BF9039800F0DCF90D
:1052E000039800F0A9F99DF80B308DF81730039B57
:1052F0009DF817201146184616F0FCFB04238DF884
:105300001730039B9DF817201146184616F0F2FB44
:105310000346DAB2019B1A70019B1B788DF81F308F
:10532000039B03F11400039B93F87C10039B93F8F9
:105330007B30DBB25BB21A4602F04EFF0346002B15
:105340000CBF01230023DBB2002B03D0009B012202
:105350001A7002E0009B00221A70039800F09CF97A
:10536000039800F0F9F89DF81F30002B15D0069B2C
:10537000072B12D09DF81F209DF81E305340DBB242
:1053800003F001038DF81E309DF81F305B108DF87F
:105390001F30069B01330693E5E7019B1B78DB0971
:1053A0008DF816309DF816209DF81E309A4204D1D3
:1053B000064812F057F8002304E0044812F052F8AF
:1053C0006FF00103184609B05DF804FBA445FF3FE8
:1053D00000B585B001900B468DF803304FF0FF31DA
:1053E000194812F02FF8019800F0A2F8019800F087
:1053F00053F9019800F020F99DF803308DF80F3033
:10540000019B9DF80F201146184616F073FB0423EC
:105410008DF80F30019B9DF80F201146184616F0AD
:1054200069FB03468DF80E30019800F035F90198BC
:1054300000F092F8044812F015F89DF80E30184666
:1054400005B05DF804FB00BFA445FF3F00B585B083
:1054500001900B468DF8033013468DF802304FF063
:10546000FF31214811F0EEFF019800F061F801983A
:1054700000F012F9019800F0DFF89DF8033063F0B6
:105480007F038DF80F30019B9DF80F2011461846C1
:1054900016F030FB019B9DF802201146184616F0CD
:1054A00029FB019800F0F8F8019800F055F89DF8F4
:1054B000033019460198FFF78BFF03468DF80E3035
:1054C0009DF80E209DF802309A4204D1064811F052
:1054D000C9FF002304E0044811F0C4FF6FF001038A
:1054E000184605B05DF804FBA445FF3F00B585B044
:1054F0000190019B03F11400019B93F87C10019B28
:1055000093F87B30DBB25BB21A4602F065FE029084
:10551000029B012B03D100238DF80F3002E0012301
:105520008DF80F309DF80F30184605B05DF804FB7C
:1055300000B583B00190019B00220821184616F0A7
:105540008BFA019B0349184616F09EFA00BF03B080
:105550005DF804FB20A1070000B587B00190082387
:10556000059300230493084B0393019B049A059928
:10557000184616F071FA019B0399184616F084FA42
:1055800000BF07B05DF804FB40420F0000B583B0D8
:105590000190019B14332749184602F00FFE019B2E
:1055A00003F11400019B93F87A10019B93F8793072
:1055B000DBB25AB2002302F0B5FE019B03F11400E6
:1055C000019B93F88210019B93F88130DBB25AB2B1
:1055D000002302F0A7FE019B03F11400019B93F846
:1055E0007C10019B93F87B30DBB25AB2012302F0AE
:1055F00099FE019B03F11400019B93F87E10019B1F
:1056000093F87D30DBB25AB2002302F08BFE019B8F
:1056100003F11400019B93F88010019B93F87F30F5
:10562000DBB25AB2002302F07DFE00BF03B05DF88A
:1056300004FB00BF40420F0000B583B00190019B06
:1056400003F11400019B93F87A10019B93F87930D1
:10565000DBB25AB2012302F0FDFD142014F05EF813
:10566000062014F05BF8019B03F11400019B93F8F2
:105670007A10019B93F87930DBB25AB2002302F022
:10568000E9FD142014F04AF8022014F047F800BF96
:1056900003B05DF804FB00BF00B583B001900120AA
:1056A00014F03CF8019B03F11400019B93F87A106D
:1056B000019B93F87930DBB25AB2012302F0CAFDA4
:1056C000142014F02BF8062014F028F800BF03B0C3
:1056D0005DF804FB00B583B001900B468DF80330F4
:1056E000012014F01BF89DF80330002B0ED1019B14
:1056F00003F11400019B93F88010019B93F87F3015
:10570000DBB25AB2002302F0A5FD0DE0019B03F1CC
:105710001400019B93F88010019B93F87F30DBB25B
:105720005AB2012302F096FD142013F0F7FF012076
:1057300013F0F4FF00BF03B05DF804FB00B587B0C1
:1057400003900B4601928DF80B3005AB00210A4601
:105750001A800A469A709DF80B30002B0CD0012B52
:1057600000D014E0039B93F87D301A460123934048
:10577000019A134301930AE0039B93F87D301A4684
:1057800001239340DB43019A1340019300BF282378
:105790008DF8143003238DF81530019BDBB28DF8A2
:1057A0001630084B15229A6005AB03221946039860
:1057B00000F062F8034B14229A6000BF07B05DF856
:1057C00004FB00BF0070004084B00190019B93F87F
:1057D00078300B2B32D801A252F823F00D5810006C
:1057E00013581000195810001F581000315810009D
:1057F0003158100037581000375810002558100045
:105800002B581000375810003758100020230393EE
:1058100015E01023039312E0082303930FE0042301
:1058200003930CE08023039309E04023039306E0F5
:105830000223039303E00123039300E000BF039BD3
:10584000184604B0704700BF84B001900091002357
:105850000393009B0393039B002B14BF012300239E
:10586000DBB2002B04D000BF039B013B0393F2E7A4
:1058700000BF04B0704700BF00B587B0039002912D
:10588000019200238DF8173000230493049A019BA2
:105890009A4256D22E4B12229A6014210398FFF797
:1058A000D3FF029A049B13441B78132B18D1284B67
:1058B00010229A60264B10229A60254B10229A6083
:1058C000234B11229A60224B10229A60204B102207
:1058D0009A601F4B11229A601D4B11229A6007E0BB
:1058E0001B49049B5A1C0492029A13441B788B6038
:1058F0000A210398FFF7A8FF154B16229A6005218D
:105900000398FFF7A1FF124B1B6803F01003002B55
:1059100014BF01230023DBB2002B00D0F3E70521E5
:105920000398FFF791FF0A4B1B6803F00403002B59
:1059300014BF01230023DBB2002BA7D002238DF874
:1059400017309DF81730184607B05DF804FB00BF0C
:105950000070004000B585B001900091019B1433A8
:105960000321184602F06AFD029072B600230393E9
:10597000039A009B9A420DD2029A01210198FFF7E7
:10598000DDFE029A00210198FFF7D8FE039B013348
:105990000393EDE762B600BF05B05DF804FB00BFFE
:1059A00000B587B003900B468DF80B304649474849
:1059B00015F020FC012013F0A1FE08238DF814300F
:1059C00005AA0023009301237221404815F042FCF0
:1059D00005AA00230093022372213C4815F060FCC5
:1059E00008238DF8143005AA0023009301237221A7
:1059F000364815F02FFC0346002B14BF012300236B
:105A0000DBB2002B02D06FF0010358E005AA00239F
:105A10000093022372212D4815F042FC0346002B0F
:105A200014BF01230023DBB2002B02D06FF001036F
:105A300045E09DF81430192B03D19DF81530052B46
:105A400002D04FF0FF333AE002238DF814309DF876
:105A50000B308DF8153005AA002300930223722124
:105A60001A4815F0F7FB0346002B14BF012300234F
:105A7000DBB2002B02D06FF0010320E0002103987D
:105A800000F02EF8124813F023FE0821039800F0CE
:105A900027F810490D4815F0ADFB9DF80B300E4A64
:105AA00052F823300D49184617F06EFA034618468F
:105AB00017F030FC0346184613F020FE002318466A
:105AC00007B05DF804FB00BFA0860100B058FF3F9F
:105AD0009A99193E40420F000440FF3F00004040A9
:105AE00000B587B003900B468DF80B3000238DF87E
:105AF00014309DF80B308DF8153072B629492A48BC
:105B000015F078FB05AA0023009302237221264892
:105B100015F0A0FB0346002B14BF01230023DBB2CA
:105B2000002B02D06FF0010337E000238DF8143012
:105B300005AA00230093012372211B4815F08AFB5C
:105B40000346002B14BF01230023DBB2002B02D03D
:105B50006FF0010321E005AA0023009301237221C5
:105B6000114815F09DFB0346002B14BF01230023B1
:105B7000DBB2002B02D06FF001030EE00B490A48A4
:105B800015F038FB62B69DF814309DF80B209A4250
:105B900001D1002301E04FF0FF33184607B05DF854
:105BA00004FB00BFA0860100B058FF3F40420F0039
:105BB00000B587B00390029106238DF8143072B6B9
:105BC0001D491E4815F016FB05AA0023009301236A
:105BD00072211A4815F03EFB0346002B14BF012327
:105BE0000023DBB2002B02D06FF0010320E005AAF6
:105BF0000023009302237221104815F051FB034645
:105C0000002B14BF01230023DBB2002B02D06FF066
:105C100001030DE00A49094815F0ECFA62B69DF857
:105C200015301B029DF814201A43029B1A600023B2
:105C3000184607B05DF804FBA0860100B058FF3F8E
:105C400040420F0000000000F0B587B001900091C5
:105C50000023049302238DF8173000238DF80F30B2
:105C60000DF10F029DF817301946019800F054F815
:105C70000346002B0CBF01230023DBB2002B3DD0D9
:105C800004AB19460198FFF793FF0346002B0CBFA6
:105C900001230023DBB2002B2ED0049B184616F004
:105CA000B7FC04460D469DF80F301A46184B53F8C2
:105CB0002230184616F0BEFC13A3D3E9002316F0D9
:105CC0000DFD02460B4616461F46009816F0B2FC24
:105CD00002460B463046394616F000FD02460B469A
:105CE0002046294616F024FE03460C461846214657
:105CF00016F0ECFF034602E0064B00E0054B1846A9
:105D000007B0F0BDAFF30080FCA9F1D24D62503F67
:105D10000440FF3F000080BF00B589B005900B46EE
:105D200003928DF813309DF81330092B37D89DF866
:105D300013308DF81C3072B61C491D4815F05AFA04
:105D400007AA0023009301237221194815F082FA53
:105D50000346002B14BF01230023DBB2002B03D02A
:105D600062B66FF001031DE0002300930123039A44
:105D700072210F4815F094FA0346002B14BF01233B
:105D80000023DBB2002B03D062B66FF0010309E001
:105D90000849074815F02EFA62B6002302E062B601
:105DA0006FF00203184609B05DF804FBA0860100FD
:105DB000B058FF3F40420F0000B585B003900291FC
:105DC000039B012B17D1029B4FF6FF72934212D116
:105DD000042208210A4815F0EFF94FF4003300932C
:105DE000222304220821074802F0C4F9064A074981
:105DF000044816F0D5F800BF05B05DF804FB00BFFD
:105E0000B058FF3FB858FF3F0040FF3F8D8410005F
:105E100008B54FF6FF710120FFF7CEFF08BD00BFA8
:105E200000B583B0019002220021094802F0D4F9A4
:105E30000346012B0CBF01230023DBB2002B01D052
:105E4000012300E00023184603B05DF804FB00BF07
:105E50001C59FF3F00B585B003900291039B012BB5
:105E600012D1029B4FF6FF7293420DD14FF40033D3
:105E70000093242304220821054802F07BF9054AF7
:105E80000549034816F08CF800BF05B05DF804FB27
:105E90001C59FF3F0040FF3F8D84100008B54FF6AE
:105EA000FF710120FFF7D6FF08BD00BF00B583B02A
:105EB00001900091019B0099184614F0A3F9019BF1
:105EC000184603B05DF804FB82B001900091019B7D
:105ED000009A1A60019B00225A6100BF02B070470D
:105EE00000B585B003900291039B012B20D1029B4A
:105EF0004FF6FF7293421BD14FF4003300933623C9
:105F0000042208210C4802F035F90C4A0C490A48D1
:105F100016F046F880210B48FFF7C8FF4FF4804188
:105F2000094815F0E3F9054A0849074816F038F81A
:105F300000BF05B05DF804FB8059FF3F0040FF3F04
:105F40008D841000E459FF3FEC59FF3F65B3110009
:105F500008B54FF6FF710120FFF7C2FF08BD00BF73
:105F600000B585B00390029101920093039B029AC1
:105F70001A60019A039B5A60009A039B9A600A492F
:105F80000A4802F01BF9002301220021074802F011
:105F9000C9F9012301220021044802F05BF9039BA7
:105FA000184605B05DF804FB40420F00445AFF3F1D
:105FB00082B00190019B184602B0704710B586B0C0
:105FC0000390029101920093029A019B1A44039B51
:105FD0005B689A4202D8009B002B01D100235BE052
:105FE0004FF0FF312E4811F02DFA0023012200213D
:105FF0002C4802F02FF9142013F090FB039B1B6830
:106000001B681B68039A1268032110469847039B7C
:106010001B681B681B68039A1068029A120C1146D1
:106020009847039B1B681B681B68039A1068029AB9
:10603000120AD2B211469847039B1B681B681B6863
:10604000039A12680299C9B2104698470023059333
:10605000059A019B9A4212D2009A059BD418039B81
:106060001B681B681B68039A12680021104698473A
:106070000346DBB22370059B01330593E8E7142048
:1060800013F04CFB012301220021064802F0E2F844
:10609000034811F0E7F9009B184606B010BD00BF99
:1060A000A445FF3F445AFF3F00B589B003900291D9
:1060B00001920093029A019B1A44039B5B689A42E7
:1060C00001D901233AE000230793079A019B9A42E2
:1060D00033D2039B9968029A079B1344039A9268F0
:1060E000B3FBF2F002FB00F29B1ACB1A0693069A5E
:1060F000079B1A44019B9A4203D9019A079BD31A22
:106100000693029A079BD1180698009A079B13449E
:106110000246039800F016F803468DF817309DF8F4
:10612000173083F00103DBB2002B01D0002305E020
:10613000069B079A13440793C7E70123184609B043
:106140005DF804FB00B587B00390029101920093C3
:10615000039800F0B9F84FF0FF312F4811F072F9B1
:106160000023012200212D4802F074F8142013F0BE
:10617000D5FA039B1B681B681B68039A12680221EF
:1061800010469847039B1B681B681B68039A10689E
:10619000029A120C11469847039B1B681B681B68E8
:1061A000039A1068029A120AD2B211469847039BCA
:1061B0001B681B681B68039A12680299C9B21046D3
:1061C000984700230593059A019B9A420FD2039B9F
:1061D0001B681B681B68039A10680099059A0A449B
:1061E000127811469847059B01330593EBE714207D
:1061F00013F094FA012301220021084802F02AF842
:10620000054811F02FF9039800F044F801231846CF
:1062100007B05DF804FB00BFA445FF3F445AFF3FB1
:1062200000B585B001904FF0FF31184811F00AF920
:10623000002301220021164802F00CF8142013F06C
:106240006DFA019B1B681B681B68019A1268052187
:1062500010469847019B1B681B681B68019A1268CF
:106260000021104698470390142013F057FA012399
:1062700001220021064801F0EDFF044811F0F2F878
:10628000039B184605B05DF804FB00BFA445FF3F23
:10629000445AFF3F00B583B001900198FFF7C0FF5B
:1062A000034603F00103002B0CBF01230023DBB2E4
:1062B000002B03D10A2013F031FAEEE700BF00BF34
:1062C00003B05DF804FB00BF00B583B001904FF050
:1062D000FF31124811F0B6F80023012200211048C6
:1062E00001F0B8FF142013F019FA019B1B681B681A
:1062F0001B68019A1268062110469847142013F073
:106300000DFA012301220021054801F0A3FF0348F3
:1063100011F0A8F800BF03B05DF804FBA445FF3FEF
:10632000445AFF3F00B585B003900291039B012BB7
:1063300012D1029B4FF6FF7293420DD14FF0FF3303
:106340000093202304220821054801F013FF054A89
:106350000549034815F024FE00BF05B05DF804FBB5
:10636000445AFF3F0040FF3F8D84100008B54FF6B0
:10637000FF710120FFF7D6FF08BD00BF10B504462E
:1063800000F014FA002384F8D830204610BD000035
:1063900010B5044688B006AA0623092100F068FA61
:1063A0009DF81D20C43404929DF81C209DF81830DF
:1063B00003929DF81B20142102929DF81A2020467A
:1063C00001929DF819200092024A19F0CFFC204654
:1063D00008B010BD574E120030B50D46ADF52D7DFD
:1063E0000446684601F0A0F82946684600F0D6FF4A
:1063F000431C3DD09DF807309DF806201B0443EA5E
:1064000002639DF8092013439DF8082043EA022304
:10641000A3609DF80F309DF80E201B0443EA026331
:106420009DF8112013439DF8102043EA02232361B5
:106430009DF813309DF812201B0443EA02639DF877
:10644000152013439DF8142043EA0223E3609DF8CE
:106450000B309DF80A201B0443EA02639DF80D20CF
:1064600013439DF80C2043EA02236361002400E0FB
:10647000044608A801F038FC20460DF52D7D30BDFE
:10648000037E10B504463BB9204600F067FA80F061
:106490000100C0B2404210BD43F69821FFF79CFFB7
:1064A0000028F1DA10BD37B5012301AA4FF480614D
:1064B000054600F0DDF99DF8044001AAA3064CBF93
:1064C00024F0200344F020038DF804304FF4806161
:1064D0000123284600F098F9012301AA4FF48061B6
:1064E000284600F0C5F99DF80430A3420AD028469A
:1064F000012301AA4FF480618DF8044000F084F973
:10650000012000E0002003B030BD38B5012305466E
:1065100003760C4681B1FFF7C6FF80B1631E6A1E89
:10652000053413F8011FA34202F8011FF9D12846D0
:1065300000F030FA002038BD4FF0FF3038BD6FF06A
:10654000010038BD07B504230DEB030200F090F9FC
:106550009DF804309DF807208DF807308DF8042051
:106560009DF805309DF806208DF806308DF8052041
:10657000019803B05DF804FB1FB50F210446FFF737
:10658000E1FFC3B20293C0F3072388340193C0F341
:1065900007430093044A030E1421204619F0E6FB3A
:1065A000204604B010BD00BF754E12001FB5052176
:1065B0000446FFF7C7FFC3B20293C0F307239C341E
:1065C0000193C0F307430093044A030E14212046AD
:1065D00019F0CCFB204604B010BD00BF754E120070
:1065E0001FB501210446FFF7ADFFC3B20293C0F30C
:1065F0000723B0340193C0F307430093044A030E0A
:106600001421204619F0B2FB204604B010BD00BF93
:10661000754E120070B5044604260025204616F07B
:10662000E3FE2E210543204619F074FC28B1013EFB
:106630004FEA052500F10104F0D1284670BD0000A5
:1066400070B50446002500F12406072380F8215088
:1066500080F8203080F8235080F822500A493046D4
:1066600001F0ACFD2B4694F9202094F8211030461F
:1066700001F058FE2B4694F9222094F8231030465E
:10668000BDE8704001F04EBE40420F0082B00023D2
:1066900001930191019B23B100BF019B013B019339
:1066A000F8E702B0704700002DE9F8431C4C05469E
:1066B0008846274600264FF0120996422DD2C4F88C
:1066C000089014212846FFF7E1FF18F80630132B35
:1066D0000AD110231121A360A360A360A160A3606D
:1066E000A360A160A16001E00136A3600A212846F1
:1066F000FFF7CCFF1623A36005212846FFF7C6FF4E
:106700003B68D906FCD405212846FFF7BFFF3B684C
:106710005B07D2D50220BDE8F8830020BDE8F883EE
:106720000070004013B590F8202090F8221001234B
:1067300003FA02F28B4023EA020338228DF8042088
:1067400002228DF805208DF8063072B6054C15230F
:10675000A360032201A9FFF7A7FF1423A36062B679
:1067600002B010BD0070004013B590F8222090F8E0
:106770002010012303FA02F28B40134338228DF8D4
:10678000042002228DF805208DF8063072B6064CE2
:106790001523A360032201A9FFF786FF1423A3603A
:1067A00062B602B010BD00BF0070004073B54FF07C
:1067B000FF3604463823042208210096243001F0D5
:1067C000D9FC142015F0F3FB054610230096402257
:1067D000202115F009F900222846E561082115F06D
:1067E0003BF90749E06915F04FF92046FFF728FF0C
:1067F0002046FFF7B9FF2046024B1C6002B070BD77
:1068000040420F00A85AFF3F2DE9F843044688464E
:1068100016484FF0FF311746994610F013FE002539
:1068200008EB05064D45B6B21BDA2046FFF77AFFA6
:10683000E069F02103681B689847E069310A036842
:106840001B689847E069F1B203681B689847E069E4
:10685000795D036801351B6898472046FFF784FF80
:10686000DEE70248BDE8F84310F0FCBDA445FF3F59
:106870002DE9F8430446884617484FF0FF31174684
:10688000994610F0DFFD002508EB05064D45B6B230
:106890001CDA2046FFF746FFE0690F2103681B68FA
:1068A0009847E069310A03681B689847E069F1B2CC
:1068B00003681B689847E069002103681B689847D4
:1068C00078552046FFF750FF0135DDE70248BDE867
:1068D000F84310F0C7BD00BFA445FF3F37B50546DC
:1068E0000024210201F20341012301AA89B22846B2
:1068F000FFF7BEFF9DF804302BB10134042CF0D11A
:106900004FF0FF3000E0204603B030BD07B509026C
:1069100001F20341012301AA89B2FFF7A9FF9DF803
:106920000400A0F117035842584103B05DF804FB7E
:1069300007B5130E8DF80430C2F307238DF8072036
:106940008DF80630C2F3074204238DF805200DEBC5
:106950000302FFF759FF03B05DF804FB10B50446CE
:1069600082680F21FFF7E4FF226920460121FFF72B
:10697000DFFF2046E2680521FFF7DAFF012010BDA6
:1069800013B502AC04F8042D01232246FFF73CFFA7
:1069900002B010BD70B5044600F1240590F9222024
:1069A00090F823100023284601F054FC642012F0D4
:1069B000B5FE022012F0B2FE012394F9222094F8D1
:1069C0002310284601F046FC642012F0A7FE962012
:1069D00012F094FE204680220021FFF7D1FF2246CC
:1069E0002046BDE8704006230921FFF70DBF37B5EB
:1069F000090201F20144A4B221460546FFF7C0FF97
:106A0000012301AA21462846FFF732FF9DF80430F2
:106A1000002BF5D103B030BD002908B508DB090211
:106A200001F5806101F47F41FFF7AAFF012008BD55
:106A3000002008BD73B50E1E05461CDB340210484D
:106A4000A4B2FCF755FE04F20341012301AA89B266
:106A50002846FFF70DFF9DF8043073B131462846F4
:106A60001022FFF7C4FF04F2024189B2FF22284638
:106A7000FFF786FF01E0002000E0012002B070BDBA
:106A80008E4E120007B502EB0121022301AA89B242
:106A9000FFF7EEFE9DF804309DF805208DF80530D7
:106AA0008DF80420BDF8040003B05DF804FB2DE967
:106AB000F0430E1E85B005469046994639DB684680
:106AC00015F036F9684615F0C5F9684615F04AF92B
:106AD00040F2264231462846FFF7D4FF40F22642D4
:106AE00031462846FFF7CEFF074648B140F226421E
:106AF00031462846FFF7C6FF87420446EED100E044
:106B00000446A14507DA684615F042F9684615F0D3
:106B1000A1F920460FE0B8F1FF3FD9D0684615F043
:106B20006FF98045D4DA684615F032F9684615F0F9
:106B300091F94FF0FF3005B0BDE8F0832DE9FF413A
:106B40000F1E0646154698462EDB684615F0F0F8EF
:106B5000684615F07FF9684615F004F94FF4846231
:106B600039463046FFF78EFF4FF4846204463946BB
:106B70003046FFF787FF8442F0D1444507DD684681
:106B800015F006F9684615F065F920460EE06B1C15
:106B9000E4D0684615F034F98542DFDA684615F02E
:106BA000F7F8684615F056F94FF0FF3004B0BDE82D
:106BB000F08107B5130A8DF804308DF80520022303
:106BC00001AAFFF721FE03B05DF804FB2DE9F84FA1
:106BD000B1F1000A064693461C4638DB40F22442D7
:106BE000FFF750FF0AF10805ED02ADB2C0F30A014C
:106BF000294489B205F500670B19BB4280460EDDBA
:106C00007F1A1FFA87F94B465A463046FFF7FCFDBC
:106C1000C9EB04039BB20BEB0702294601E05A467D
:106C2000A3B23046FFF7F0FD4FEA0A2108EB040259
:106C300001F22441304689B292B2FFF7BAFF3046E2
:106C400020225146FFF7D3FE2046BDE8F88F4FF0D3
:106C5000FF30BDE8F88F2DE9F84FB1F1000A064684
:106C600093463EDBB3F5806FA8BF4FF480634FF4CB
:106C700085621C46FFF706FF0AF10C05ED02ADB276
:106C8000C0F30A01294489B205F500670B19BB421C
:106C900080460EDD7F1A1FFA87F94B465A4630466A
:106CA000FFF7E6FDC9EB04039BB20BEB0702294695
:106CB00001E05A46A3B23046FFF7DAFD4FEA0A2157
:106CC00008EB040201F58561304689B292B2FFF704
:106CD00070FF304640225146FFF789FE2046BDE84E
:106CE000F88F4FF0FF30BDE8F88F00002DE9F04F2E
:106CF000B1F1000885B0064617469A460E9D6ADB3C
:106D00004FEA0824A4B204F58061012201F47F4116
:106D1000FFF736FE012241463046FFF768FE04F2D7
:106D20000C4B1FFA8BFB4FF00009384616F05CFB4A
:106D30002E210DF80900384619F0ECF830B109F1B0
:106D40000109B9F1040F00F10107EED104236A46ED
:106D500059463046FFF758FD04F5826189B21FFAA3
:106D60008AF23046FFF725FF18F0C8FE6FEA80422E
:106D70006FEA924204F2044189B292B23046FFF7C0
:106D800018FF042241463046FFF731FE684614F0F2
:106D9000CFFF684615F05EF8684614F0E3FF414601
:106DA0003046FFF7B3FD0446684654B915F028F89D
:106DB000A842F4DD684614F0EBFF684615F04AF887
:106DC0000AE014F0E5FF684615F044F8414604482F
:106DD000FCF78EFC00E00024204605B0BDE8F08FF3
:106DE000A74E120070B5084690B00D461646FFF744
:106DF00011FC0446A8B1C3B20293C0F30723019368
:106E0000C0F3074300931121030E0F4A05A818F0A1
:106E1000ADFF294605A819F08BF810B9346001249C
:106E20000EE0002105A800F0E1FC294605A800F0CD
:106E30002BFF044608B1069B336005A800F0F4FC64
:106E4000204610B070BD00BF754E1200014B1B688C
:106E500018467047A85AFF3F00B585B003900B460F
:106E60000192ADF80A30BDF80A100623019A039882
:106E7000FFF7FEFC00BF05B05DF804FB10B588B05D
:106E80000190019B0022C3F8A8222B4A06AB106890
:106E90001860042206AB1946019800F01BFA002086
:106EA000FCF7C4FD044618F029FE0346234407936B
:106EB000079B1B0EDAB2019B83F83420079B1B0C47
:106EC000DAB2019B83F83520079B1B0ADAB2019BDB
:106ED00083F83620079BDAB2019B83F83720019BA9
:106EE000343304221946019800F0F4F900221421E9
:106EF000019800F00BFA019B06221946019800F058
:106F0000E9F90022CA21019800F000FA0B4A02AB0D
:106F1000144620686168A26807C3A2891A800E22FD
:106F200002AB1946019800F0D5F9019BD3F8A832BD
:106F3000184608B010BD00BFC44E1200C84E120063
:106F400010B588B00190019B0022C3F8A8222B4AFB
:106F500007AB10681860042207AB1946019800F0CF
:106F6000B9F9019B343304221946019800F0B2F9B3
:106F700000220C21019800F0C9F9019B163304226C
:106F80001946019800F0A6F900220421019800F0AA
:106F9000BDF9019B06221946019800F09BF90022D9
:106FA000CA21019800F0B2F9154A03AB14462068D3
:106FB0006168A26807C3227B1A700D2203AB1946D1
:106FC000019800F087F9019B9A1D04233221019852
:106FD00000F0B8F9019B03F1160204233621019851
:106FE00000F0B0F900230022FF21019800F0AAF977
:106FF000019BD3F8A832184608B010BDC44E120049
:10700000D84E120000B589B0039002910192039B03
:10701000981D029B10330422194616F0CEFF039BE5
:1070200003F11600029B14330422194616F0C5FF23
:107030004FF0FF330693029BF0330793079B1B78B7
:10704000FF2B00F0B880019B029A1A44079B9A42DA
:1070500040F2B180079B5A1C07921B788DF81730BD
:107060009DF81730002B00F0A480079B5A1C079254
:107070001B7804939DF81730013B352B00F2948068
:1070800001A252F823F000BF69711000A97110002D
:1070900079711000A9711000A97110008971100098
:1070A000A9711000A9711000A9711000A971100038
:1070B000A9711000A9711000A9711000A971100028
:1070C000A9711000A9711000A9711000A971100018
:1070D000A9711000A9711000A9711000A971100008
:1070E000A9711000A9711000A9711000A9711000F8
:1070F000A9711000A9711000A9711000A9711000E8
:10710000A9711000A9711000A9711000A9711000D7
:10711000A9711000A9711000A9711000A9711000C7
:10712000A9711000A9711000A9711000A9711000B7
:10713000A9711000A9711000A9711000A9711000A7
:10714000A9711000A9711000A9711000A971100097
:10715000A9711000A97110006171100099711000DF
:10716000079B1B7806931FE0039B123304220799A9
:10717000184616F022FF17E0039B0E3304220799EE
:10718000184616F01AFF0FE0039B0A3304220799F2
:10719000184616F012FF07E0039B163304220799E6
:1071A000184616F00AFF00BF049B079A1344079382
:1071B00044E700BF42E7069B184609B05DF804FBB0
:1071C00000B585B0039002910192019BEF2B01DC89
:1071D000002313E0029B1B78022B01D000230DE05B
:1071E000029B181D039B34330422194616F0D6FE69
:1071F0000346002B01D0002300E00123184605B010
:107200005DF804FB10B58AB0019002AB184600F09F
:107210005FFD019BD869019B03F150024FF4167387
:1072200002A900F0E5FE0990099B002B01DA002479
:1072300031E0019B5033099A19460198FFF7C0FFCE
:10724000034683F00103DBB2002B01D0002422E0CF
:10725000019B5033099A19460198FFF7D3FE089015
:10726000089B022B0FD10198FFF76AFE0790019B44
:10727000D869019B03F12001019B03F15002079B98
:1072800000F022FF06E0089B052B03D1019B0122A1
:1072900083F83820012402AB184600F025FD012CAC
:1072A00000BF0AB010BD00BF82B001900B468DF840
:1072B0000330019BD3F8A832591C019AC2F8A812D6
:1072C000019A13449DF8032083F8502000BF02B0B8
:1072D000704700BF00B587B0039002910192002370
:1072E0000593059A019B9A420BDA059B029A134477
:1072F0001B7819460398FFF7D7FF059B01330593C9
:10730000EFE700BF07B05DF804FB00BF00B585B034
:107310000390029113468DF80730029B5A1E029289
:10732000002BCCBF01230023DBB2002B06D09DF83D
:10733000073019460398FFF7B7FFEEE700BF05B027
:107340005DF804FB00B585B00390019200930B46F5
:107350008DF80B309DF80B3019460398FFF7A4FF0A
:10736000009B002B0ADD009BDBB219460398FFF758
:107370009BFF009A01990398FFF7ACFF00BF05B08F
:107380005DF804FB00B583B00190019B184600F046
:1073900057FD019B184603B05DF804FB10B586B09D
:1073A00001900091FFF752FD0246019BC3F8AC2209
:1073B000019BD3F8AC32002B02D14FF0FF33AEE08B
:1073C000019BD3F8AC32019A09211846FFF744FD1E
:1073D00041F288330593009A059B9A4201DA009B9B
:1073E0000593102014F0E3FD03461C46204600F0F0
:1073F000CAFD019BDC61019BDB69184600F0C9FDF9
:10740000019BDB6940F2DC520021184600F0ECFCE5
:10741000019BD3F8AC3200220F211846FFF788FAFF
:10742000019BDB694421184600F072FE019B20336A
:1074300043223C49184600F069FC019B002283F876
:1074400038200023049300230393019B93F83830E2
:10745000002B59D1039B012B0AD0022B25D0002BE6
:1074600051D1019B0022DA64039B013303934AE06C
:107470000198FFF703FD0290019BD869019B03F17E
:107480002001019B03F15002029B00F01DFE019BB5
:107490003C33184614F0DEFC019B3C33184614F0D4
:1074A00061FC039B013303932DE00198FFF7AAFED3
:1074B000019B3C33184614F0A3FC0246059B9A42FC
:1074C000CCBF01230023DBB2002B1BD0019BDB6C64
:1074D0005A1C019BDA64019BDA6C0099059B91FBB5
:1074E000F3F39A42ACBF01230023DBB2002B06D09A
:1074F0004FF0FF330493019B012283F83820039B54
:10750000013B039300BFA0E7019BDC69002C05D081
:107510002046FFF737FF204614F047FD049B18462E
:1075200006B010BDE84E120000B583B00190019B7B
:107530002033184600F0CCFB019B3C33184614F076
:10754000F7FB019B184603B05DF804FB00B583B060
:10755000019000910099019818F0DCFC0346184650
:1075600003B05DF804FB00BF00B583B00190019B40
:1075700000225A600120FCF7E9FA03461A46019BF3
:107580001A60019B1B68002B03D0019B1B68002223
:107590001A70019B184603B05DF804FB00B583B078
:1075A0000190019B1B68002B04D0019B1B681846AF
:1075B000FCF7DAFA019B184603B05DF804FB00BF44
:1075C00082B00190019B5B68002B0CBF012300235C
:1075D000DBB2184602B0704700B587B00390029145
:1075E0000192039B1B68002B30D0039B5A68019BC0
:1075F000134401331846FCF7A9FA03460593059B8B
:10760000002B25D0039B1968039B5B681A460598DD
:1076100016F0D3FC039B5B681A46059B1344019A42
:107620000299184616F0C9FC039B5A68019B134443
:107630001A46059B134400221A70039B1B681846C8
:10764000FCF792FA039B059A1A6002E000BF00E083
:1076500000BF07B05DF804FB00B583B00190009156
:10766000009818F092FC03461A4600990198FFF71B
:10767000B3FF00BF03B05DF804FB00BF00B583B0EB
:1076800001900091019B04331846FFF76DFF019BA9
:10769000009A1A60019B184603B05DF804FB00BF16
:1076A00000B585B001900091019B1A68009B591CA0
:1076B000009113441B780393039B002B36D0039B4C
:1076C00003F0C003C02B11D1039B1B0203F47C53B6
:1076D000019A1168009A0A4412781343029302999E
:1076E0000198FFF7DDFF009B013321E0019B04338C
:1076F0001846FFF765FF034683F00103DBB2002B5A
:1077000005D0019B04330C491846FFF7A5FF019BE8
:10771000181D019B1A68009B1344039A1946FFF732
:107720005BFF009A039B13440093BDE700BF009BDF
:10773000184605B05DF804FBF84E120000B589B09C
:10774000039002910192019B1B78002B41D02E21C6
:107750000198FFF7FBFE0790079B002B1BD10198B8
:1077600018F013FC03460593039B1A68029B591CEF
:1077700002911344059AD2B21A70039B1A68029BB5
:107780001344059A0199184616F017FC029A059BB6
:10779000134402931DE0079A019BD31A0693039B9F
:1077A0001A68029B591C02911344069AD2B21A70AD
:1077B000039B1A68029B1344069A0199184616F017
:1077C000FCFB079B01330193029A069B134402932F
:1077D000B9E7039B1A68029B591C029113440022CB
:1077E0001A70029B184609B05DF804FB00B583B01F
:1077F000019000910B4A019B1A60019B0C331846C3
:1078000014F096FA019B002283F82420019B0022A9
:107810009A62019B009A1A62019B184603B05DF8B8
:1078200004FB00BF104F120010B582B001900D4A4A
:10783000019B1A60019B9B6A002B09D0019B9C6AEB
:10784000002C05D02046FFF79DFD204614F0ADFB2F
:107850000023002B02D0019814F0A7FB019B1846CF
:1078600002B010BD104F120000B583B00190019816
:10787000FFF7DAFF019814F098FB019B184603B05C
:107880005DF804FB10B5ADF50A7D01AB186003ABE4
:10789000184600F01DFA01AB1B68986A4FF400739C
:1078A00008AA03A900F0A4FB8990899B002B01DAA8
:1078B000002423E001AB1B6803F1080108AB02229E
:1078C000184616F06BFB0346002B01D0002415E090
:1078D00008A901AB899A186800F028F88890889B5D
:1078E000002B05D101AB1B68042283F8242004E09F
:1078F00001AB1B68022283F82420012403AB184645
:1079000000F0F2F9012C00BF0DF50A7D10BD00BF9B
:1079100000B583B00190019B04331846FFF73EFE8B
:10792000019B184603B05DF804FB00BF00B593B09F
:10793000039002910192029B03331B7803F00F0323
:107940000E930E9B002B01D00E9B8EE0029B043306
:107950001B781B02029A0532127813431193029B83
:1079600006331B781B02029A0732127813431093D6
:107970000C230F93119B5A1E1192002BCCBF012395
:107980000023DBB2002B12D008AB02991846FFF798
:1079900075FE08AB0F991846FFF782FE0F900F9BFC
:1079A00004330F9308AB1846FFF7B2FFE2E7109BD2
:1079B0005A1E1092002BCCBF01230023DBB2002BF8
:1079C00052D005AB02991846FFF758FE05AB0F9948
:1079D0001846FFF765FE0F900F9B029A13441B7821
:1079E0001B020F9A013202990A44127813430D9335
:1079F0000F9B08330F930F9B029A13441B781B02B3
:107A00000F9A013202990A44127813430C930F9B88
:107A100002330F930F9B0B930F9A0C9B13440F93FE
:107A20000D9B012B1BD10B9B029A13441B781A064A
:107A30000B9B013302990B441B781B041A430B9BCD
:107A4000023302990B441B781B0213430B9A033237
:107A500002990A44127813431A46039B5A6005ABF5
:107A60001846FFF755FFA2E70E9B184613B05DF8C6
:107A700004FB00BF10B58EB00390029101920093F9
:107A800009AB00221A605A609A6001238DF82630F3
:107A900001238DF829301E4A08AB10681860029B3C
:107AA0001C4609AB07CB20606160A26018F026F885
:107AB0000D900D9B1B12DAB2039B1A720D9BDAB26A
:107AC000039B5A72039B083302221946029816F050
:107AD00074FA05AB02991846FFF7D0FD0C2105ABEF
