:020000040010EA
:1020000000D8FF3FADDC1100E9DC1100EBDC110072
:10201000EDDC1100EFDC1100F1DC1100000000002C
:10202000000000000000000000000000D1AC110022
:10203000F5DC1100000000003BAD110071AD110096
:1020400065C81100D1C91100FBDC1100F9C21100F3
:10205000FBDC1100FBDC1100FDB41100FBDC110006
:10206000FBDC1100FBDC1100FBDC1100FBDC1100D0
:10207000FBDC1100FBDC1100FBDC1100FBDC1100C0
:10208000FBDC1100FBDC1100FBDC1100FBDC1100B0
:1020900000D8FF3FADDC1100E9DC1100EBDC1100E2
:1020A000EDDC1100EFDC1100F1DC1100000000009C
:1020B000000000000000000000000000D1AC110092
:1020C000F5DC1100000000003BAD110071AD110006
:1020D00065C81100D1C91100FBDC1100F9C2110063
:1020E000FBDC1100FBDC1100FDB41100FBDC110076
:1020F000FBDC1100FBDC1100FBDC1100FBDC110040
:10210000FBDC1100FBDC1100FBDC1100FBDC11002F
:10211000FBDC1100FBDC1100FBDC1100FBDC11001F
:1021200010B5054C237833B9044B13B10448AFF311
:1021300000800123237010BD4043FF3F00000000DA
:1021400074BF1200084B10B51BB108490848AFF323
:1021500000800848036803B910BD074B002BFBD073
:10216000BDE81040184700BF000000004443FF3F97
:1021700074BF12004043FF3F0000000001F070B93F
:1021800073B5064601F052F8134B02689A4202D02A
:102190004FF0FF301DE001F049F800F5807405466E
:1021A000204607F0D3FA0028F2D095F80031002B32
:1021B000EED02146094801F093FB02238DF804304C
:1021C000009402AB06F1140013E9060007F060F872
:1021D000002002B070BD00BFAFBEADDE0C601200CB
:1021E00030B5ADF5017D054601F020F801460E48F9
:1021F00001F076FB01F01AF84FF400742246014614
:1022000068461DF094FD696940A81FF063FD074B07
:1022100021466846009301F025F80146044801F084
:102220005FFB0DF5017D30BD23601200AFBEADDE5A
:102230002F60120073B5064600F0F8FF154B0268D8
:102240009A4206D100F0F2FF044628B9124801F084
:1022500047FB4FF0FF301AE004F5A075284607F061
:1022600075FA0028F5D094F84031002BF1D02946BA
:102270000A4801F035FB02238DF80430009502ABCB
:1022800006F11C0013E9060007F002F8002002B076
:1022900070BD00BFAFBEADDE3E60120051601200E7
:1022A00030B5ADF5017D054600F0C0FF4FF4007478
:1022B0002246014668461DF03AFDE96950A81FF024
:1022C00009FD2146684600F0CDFF0DF5017D30BDCA
:1022D00037B5002402A941F8044D054601F0F8F88D
:1022E000A04210DB09480A4B019A0A491A60416072
:1022F000094A02218160042182E818000560C1605A
:102300000261436100E0204603B030BD6C43FF3FF3
:102310005C43FF3F6843FF3F6043FF3F01F0E2B88B
:1023200001F02AB901F042B910B4029C019B01945A
:1023300010BC01F057B901F047B910B4029C019BE1
:10234000019410BC01F08AB901F0D2B901F0F8B9DA
:1023500070B50D46064608F045F90446F06908F0E8
:102360002CF916490246204608F064F928681BF04B
:10237000FFFF08F02BF912490246204608F05AF9EF
:1023800068681CF007F808F021F90E49024620465B
:1023900008F050F9A8681BF0EBFF08F017F90A499C
:1023A0000246204608F046F9204608F0E3F80546C4
:1023B000204608F081F9284670BD00BF7A601200FF
:1023C000866012008C6012009260120070477047A5
:1023D00038B5064D002404F5B4702844183C1BF0B1
:1023E000ADFC14F5C07FF6D138BD00BF8443FF3F7C
:1023F00010B504461BF089FC204610BD70B504469C
:1024000005460B4B44F8043B204602F0E1FF05F182
:10241000880002F0DDFF4CB105F58676A64205D0B6
:10242000843E06F1140006F07BFDF7E7284670BDF8
:10243000A060120010B50446FFF7E0FF20461BF035
:1024400064FC204610BD000010B50446064B403029
:1024500003F1180240F8403C4C33026043601BF02B
:1024600021FA204610BD00BF7CB71200A0F1400049
:10247000EAE7A0F14400E7E710B50446054A083052
:10248000206011461BF06BFC226800236360137010
:10249000204610BDE581120010B504461BF035FC46
:1024A000204610BD10B50446064B002140F8043B01
:1024B00002F0C8FC012104F1880002F0C3FC2046B0
:1024C00010BD00BFA0601200842303FB0100043094
:1024D00002F07EBF842303FB010010B511460430D7
:1024E00002F00EFE044630B10146054801F0F8F94D
:1024F0004FF0FF3010BD034801F0F2F9204610BD47
:10250000A8601200F760120070B5842404FB010477
:102510000434054620460E4602F014FD014608B17B
:10252000114812E0114801F0DBF9204603F096F85B
:1025300008B10F4800E00F4801F0D2F90921204608
:1025400002F0A4FD014628B10B4801F0C9F94FF093
:10255000FF3070BD094801F0C3F931462846BDE897
:1025600070400322FFF7B6BF3B611200806112008A
:10257000BA61120000621200206212007A62120038
:1025800070B50C460646104615461CF059FB8421D2
:1025900001FB04640146201D02F0B2FE044638B17E
:1025A00002462946054801F09BF94FF0FF3070BD07
:1025B0002946034801F094F9204670BD4A63120091
:1025C0008C63120010B50446FFF73EFF20461BF057
:1025D0009CFB204610BDA0F14000F3E7A0F14400B1
:1025E000F0E7000007B52D48FFF746FF2C4A2D49BC
:1025F0002A481BF085FB2C4B002203F5C0701946BE
:1026000043F8042C43F8083C01F8182B19615A616F
:102610001A7630338342F2D1214A244900201BF03C
:102620006FFB2348FFF728FF1D4A1E4920481BF077
:1026300067FB2048FFF720FF194A1A491D481BF085
:102640005FFB1D48FFF718FF154A16491A481BF093
:1026500057FB4FF0FF3300934022102320211748EF
:102660001BF056F80E4A164914481BF049FB00238C
:102670000222012113481AF095FF094A1249114814
:102680001BF03EFB114816F0A3F8054A10490F480D
:1026900003B05DF804EB1BF033BB00BF0445FF3F04
:1026A0000040FF3F69DD11008C43FF3FD123100044
:1026B0003845FF3F1C45FF3FBC45FF3FD445FF3F2A
:1026C000CF2310005045FF3F49241000A845FF3F8D
:1026D000598811007047000038B5064D002404F5F4
:1026E000B4702844183C1BF029FB14F5C07FF6D1C8
:1026F00038BD00BFE845FF3F10B504461BF005FBA1
:10270000204610BD10B50446054A08302060114629
:102710001BF025FB2268002363601370204610BD68
:10272000E581120010B50446044B03601BF06CF900
:1027300020461BF085FA204610BD00BF38B81200B5
:1027400010B504464430FFF7EDFF04F11400FFF725
:10275000E9FF204610BD10B50446FFF7E3FF204611
:102760001BF0D3FA204610BD014B0360704700BF39
:10277000F863120010B50021074804F06BF8044616
:1027800028B1064801F0ACF84FF0FF3402E00248EF
:1027900003F088FF204610BD3448FF3F3364120029
:1027A00038B50D460A4C0121204603F087FE294624
:1027B000204603F01BFF204603F060FE204603F096
:1027C0008BFF0146034801F08BF8002038BD00BFA5
:1027D0003448FF3F4B64120008B5024803F05EFE28
:1027E000002008BD3448FF3F73B53C48FFF78AFF1F
:1027F0003B4A3C4939481BF083FA3B4B002203F526
:10280000C070194643F8042C43F8083C01F8182B13
:1028100019615A611A76303383424FF00005F0D1C6
:102820002F4A324928461BF06BFA3148FFF76AFFFE
:102830002B4A2C492E481BF063FA2E48FFF762FF03
:10284000274A28492B481BF05BFA2B48FFF75AFF11
:102850004FF0FF36224A234927481BF051FA0096D1
:1028600010234022202125481AF052FF1C4A2449F7
:1028700022481BF045FA2B460222012121481AF07A
:1028800091FE174A20491F48204C1BF039FA204876
:1028900015F09EFF124A1F491D481BF031FA102304
:1028A00040222021009620461AF032FF1A4E04F1F1
:1028B00014001BF091F904F144006661E56225649F
:1028C0001BF08AF92046064A14496664E5652567C7
:1028D00002B0BDE870401BF013BA00BF6847FF3F6D
:1028E0000040FF3F69DD1100F045FF3FD926100091
:1028F0009847FF3F8047FF3F1C48FF3FA848FF3FE6
:10290000CF231000B047FF3F492410003448FF3F59
:102910000848FF3F5988110038B8120041271000BD
:1029200038B5064D002404F5B4702844183C1BF05B
:1029300005FA14F5C07FF6D138BD00BFBC48FF3F93
:1029400010B50446054A0830206011461BF007FA0E
:102950002268002363601370204610BDE5811200D9
:1029600037B504460A4B4FF0FF3540F8043B402290
:102970000095102320211AF0CBFE00952A23042273
:10298000082104F1180006F01BF9204603B030BD01
:10299000B069120010B50023041D80F87C30204679
:1029A00001F0AAF9014608B111480AE0114800F007
:1029B00097FF1149114A204601F032FB014628B128
:1029C0000F4800F08DFF4FF0FF3010BD0D4800F0B4
:1029D00087FF2046012101F02BFA044610B1014681
:1029E0000948EEE7094800F07BFF204610BD00BF14
:1029F0005564120088641200000034420000C04098
:102A0000B0641200ED6412001F65120070651200C0
:102A100070B5051D044628460E4601F0A1FE01468C
:102A200008B110480BE0104800F05AFF94F87C30D1
:102A30006BB9284601F038FC014628B10B4800F07C
:102A40004FFF4FF0FF3070BD094800F049FF94F987
:102A50007C30012E0CBF01220222134384F87C300B
:102A6000002070BD60671200A6671200E1671200C7
:102A700016681200F8B5061D054630460F4601F0EF
:102A8000DDFE044610B10146104815E0104800F084
:102A900027FF012F95F87C300CBF6FF001026FF01B
:102AA0000202134085F87C3073B9304601F030FCE7
:102AB000044630B10146074800F012FF4FF0FF30E6
:102AC000F8BD054800F00CFF2046F8BD4068120034
:102AD00087681200C3681200F968120010B5044636
:102AE000074B01210360FFF7C5FF02212046FFF7D6
:102AF000C1FF04F1180006F013FA204610BD00BF14
:102B0000B069120010B50446FFF7E8FF20461BF03D
:102B1000FCF8204610BD000010B50430144692B2F7
:102B200001F02CFA2146024620B1054800F0D8FEFB
:102B3000002010BD034800F0D3FE4FF0FF3010BD61
:102B4000246912006B69120007B52D48FFF7F8FEE3
:102B50002C4A2D492A481BF0D3F82C4B002203F5B0
:102B6000C070194643F8042C43F8083C01F8182BB0
:102B700019615A611A7630338342F2D1214A2449CD
:102B800000201BF0BDF82348FFF7DAFE1D4A1E495E
:102B900020481BF0B5F82048FFF7D2FE194A1A4921
:102BA0001D481BF0ADF81D48FFF7CAFE154A16492F
:102BB0001A481BF0A5F84FF0FF3300934022102372
:102BC000202117481AF0A4FD0E4A164914481BF09C
:102BD00097F800230222012113481AF0E3FC094A66
:102BE000124911481BF08CF8114815F0F1FD054A07
:102BF00010490F4803B05DF804EB1BF081B800BF2B
:102C00003C4AFF3F0040FF3F69DD1100C448FF3FE1
:102C100021291000C44AFF3F544AFF3FF04AFF3FBA
:102C2000084BFF3FCF2310006C4AFF3F49241000A0
:102C3000DC4AFF3F5988110038B5064D002404F5E1
:102C4000B4702844183C1BF079F814F5C07FF6D115
:102C500038BD00BF1C4BFF3F70B5044601462048FD
:102C600000F03EFE204607F053FE1E49064607F0E0
:102C700084FC48B3D0E906450022002320462946BB
:102C80001BF044FE18B11848FFF7A6FD17E010A38B
:102C9000D3E90023204629461BF042FEA0B90EA32B
:102CA000D3E90023204629461BF058FE60B9294687
:102CB00020461BF073FE01460B48FFF771FD3046BE
:102CC00007F0FAFC002070BD4FF0FF3070BD00BF70
:102CD000000000000030B14000000000002CCA409D
:102CE000B8691200C2691200F84DFF3F70B5044682
:102CF0000146284800F0F4FD204607F009FE264969
:102D0000064607F03AFC10B94FF0FF3070BDD0E92D
:102D100006450022214B204629461BF001FE0028D3
:102D2000F2D100224FF08043204629461BF016FEC8
:102D30000028E9D1204629460022184B1BF0E6FD69
:102D400017490028304614BF0124022407F015FC5F
:102D500005460028D8D000F11801D1E90001002271
:102D600000231BF0FBFD214660B10E48FFF750FE2B
:102D7000D5E906011BF012FE214602460948FFF77D
:102D8000CBFE02E00748FFF775FE304607F094FCE3
:102D9000002070BDB8691200C66912000000F03F43
:102DA000CE691200744FFF3F2DE9F84304460146F7
:102DB000254800F095FD204607F0AAFD2349054669
:102DC00007F0DBFB804618B94FF0FF30BDE8F88311
:102DD0001F49284607F0D1FB0028F5D0D0E9066747
:102DE00000221C4B304639461BF09AFD0028EBD1DF
:102DF00000224FF08043304639461BF0AFFD81463C
:102E00000028E1D10022134B304639464FF001042F
:102E10001BF07CFD00B14C46E4B221460E48FFF7A2
:102E200073FBD8E906011BF0B9FD214602460A48AA
:102E3000FFF7A6FB21460848FFF746FB284607F0A8
:102E40003BFC0020BDE8F883B8691200D16912008C
:102E5000C66912000000F03FD04CFF3F73B5044636
:102E60000146144802F05CFF1349124802F0A4FF27
:102E700060601248A56803F08BF885420646A060A2
:102E80000F4B07D11A68511C092A196002DC4FF058
:102E9000FF300CE000251D6060681BF07BFA2268A3
:102EA000CDE900010748314600F01AFD284602B07E
:102EB00070BD00BFCC4CFF3F6666F640EC4EFF3F56
:102EC000F44DFF3FD769120010B50446243006F0D8
:102ED00027F8204610BD000010B50446054A08300A
:102EE000206011461AF03BFF2268002363601370D4
:102EF000204610BDE581120030B54FF07E5087B0FE
:102F000018F046F9474800F0EBFC98238DF80430A0
:102F10004F238DF80530EE238DF8063000238DF811
:102F20000730A1238DF8083001A903233E488DF80E
:102F3000093004F00EF8014660B93B4803F04CFF3D
:102F400001463A4800F0CCFC374803F0BDFF01468B
:102F500010B14CE036484BE0334804F031F80446F9
:102F6000314804F047F805462F4804F05DF8214643
:102F700003462A462F4800F0B3FC02212E4802F0F7
:102F8000C7FD0446002847D12C4800F0A9FC4FF0AB
:102F90007E5018F0FDF82A492A4806F089F82A4898
:102FA000FFF7F8FC29492A4806F082F82948FFF77C
:102FB000E1FB2949294806F07BF8204600F0F0FDA6
:102FC00001460090264800F08BFC05F0F3FF2046F8
:102FD00000F0E6FD06AB43F8180D18461CF0C6F8E5
:102FE0000146204800F07CFC06F07CF903E01E4816
:102FF00000F076FC10E003A8FFF730FF0028FADBB2
:1030000003A806F0C3F906F0E1F903A9174806F092
:1030100013FA06F057FA01E04FF0FF34204607B0EC
:1030200030BD00BFF3691200FC4DFF3F026A120081
:10303000176A1200336A1200CC4CFF3F6B6A120011
:10304000A92D1000896A1200744FFF3FED2C10006B
:1030500047641200F84DFF3F592C10008F6A120090
:10306000956A1200A26A12004C6A12005D2E1000CE
:1030700007B53D48FFF730FF3C4A3D493A481AF052
:103080003FFE3C4B002203F5C070194643F8042C68
:1030900043F8083C01F8182B19615A611A7630334D
:1030A0008342F2D1314A344900201AF029FE3348D4
:1030B000FFF712FF2D4A2E4930481AF021FE304802
:1030C000FFF70AFF294A2A492D481AF019FE2D4810
:1030D000FFF702FF254A26492A481AF011FE4FF051
:1030E000FF33009340221023202127481AF010FBC1
:1030F0001E4A264924481AF003FE00230222012119
:1031000023481AF04FFA194A224921481AF0F8FDCB
:10311000214815F05DFB154A20491F481AF0F0FDC3
:103120001F4803F04FFE114A1E491D481AF0E8FDE2
:103130001D48FFF719FB0D4A1C491B481AF0E0FD1A
:103140001B48FFF7AFF9094A1A4919481AF0D8FD88
:103150001948FFF705FC054A1849174803B05DF800
:1031600004EB1AF0CDBD00BF9C4CFF3F0040FF3F79
:1031700069DD1100244BFF3F392C1000DC4DFF3F6F
:10318000B44CFF3FF04EFF3F604FFF3FCF23100096
:10319000084FFF3F49241000D84EFF3F59881100C7
:1031A000FC4DFF3FC92E1000F84DFF3FD526100003
:1031B000D04CFF3FFD231000744FFF3FDD2A10006D
:1031C00038B5064D002404F5B4702844183C1AF0B4
:1031D000B5FD14F5C07FF6D138BD00BFF44FFF3FF9
:1031E000044B10B504460360806808B11AF086FDF0
:1031F000204610BDB46A120010B50446FFF7F0FF78
:1032000020461AF082FD204610BD000010B504468D
:10321000054A0830206011461AF0A1FD22680023FB
:1032200063601370204610BDE58112001FB54FF496
:1032300080734FF48022094901A803F0B5FB084BC5
:1032400001A85A689B68110A03F0DCFB044601A838
:1032500003F0D2FB204604B010BD00BF2052FF3F58
:103260001452FF3F7FB50E46054630B3154C4FF460
:1032700080734FF48022144901A803F095FB324675
:103280002946A0681CF053FDA36801AA61680F4895
:1032900000F026FB6268A368110A01A803F028FC6D
:1032A0000446014684F00104094800F019FBE4B229
:1032B00001A8644203F0A0FB01E04FF0FF34204678
:1032C00004B070BD1452FF3F2052FF3FBC6A120091
:1032D000D16A120013B53F48FFF798FF3E4A3F49B5
:1032E0003C481AF00DFD3E4B002203F5C070194614
:1032F00043F8042C43F8083C01F8182B19615A6173
:103300001A7630338342F2D1334A364900201AF01C
:10331000F7FC3548FFF77AFF2F4A304932481AF058
:10332000EFFC3248FFF772FF2B4A2C492F481AF066
:10333000E7FC2F48FFF76AFF4FF0FF34264A274982
:103340002B481AF0DDFC009410234022202129484C
:103350001AF0DEF9204A284926481AF0D1FC002349
:103360000222012125481AF01DF91B4A244923484D
:103370001AF0C6FC234815F02BFA174A22492148B7
:103380001AF0BEFC00941023402220211F481AF09E
:10339000BFF9114A18491D481AF0B2FC1C4C1D4BCC
:1033A0000022236008214FF40073184863601AF06C
:1033B000E7F9194915481AF0FBF960681AF0B8FCEA
:1033C000A0602046044A154902B0BDE810401AF03A
:1033D00097BC00BF7451FF3F0040FF3F69DD110003
:1033E000FC4FFF3FC1311000FC51FF3F8C51FF3FAC
:1033F0004852FF3F6052FF3FCF231000A451FF3FD0
:10340000492410003452FF3F598811002052FF3FD9
:103410001452FF3FB46A120040420F00E131100025
:1034200038B5064D002404F5B4702844183C1AF051
:1034300085FC14F5C07FF6D138BD00BF7452FF3F44
:1034400010B50446054A0830206011461AF087FC82
:103450002268002363601370204610BDE5811200CE
:1034600070B5054690B0184803F0B6FC142201462A
:103470000DEB02001EF080FC6C1E6E1D14F8010F97
:103480001FF094FFA6422070F8D10FAB03930EAB50
:1034900002930DAB01930AAC0CAB009322460BAB2D
:1034A0000A4905A81EF080FB062808D1002354F81D
:1034B0002320EA540133062BF9D1002001E04FF01C
:1034C000FF3010B070BD00BFFC4DFF3FDE6A120040
:1034D00008B50A460146024804F0A8F908BD00BF35
:1034E000FC4DFF3F02282DE9F8430D4612D1112A69
:1034F00010D81F4B23FA02F202F0010282F0010001
:1035000042B104461B4A2601B3581A4F33B1013465
:10351000082CF8D14FF0FF30BDE8F88307EB060820
:10352000012DC8F80C300CD128201AF0F0FB814690
:1035300005F0B6F947F80690C8F808502046BDE8EF
:10354000F883022DE6D110201AF0E1FB814605F048
:103550003FFA47F80690C8F80850484605F03EFA8A
:103560001EF094F9C0F30E01484605F0F7FAE5E7BE
:10357000410002002454FF3F082838B511D80A4BF7
:1035800000011C581D1864B1204605F07DF9204645
:103590001AF0BBFB1022002128461CF0EEFB002095
:1035A00038BD4FF0FF3038BD2454FF3F082805D800
:1035B000044B0001185808B105F0B9B94FF0FF30BD
:1035C000704700BF2454FF3F082805D8044B000172
:1035D000185808B105F0D5B94FF0FF30704700BF5B
:1035E0002454FF3F2DE9F04108288CB00E461746C1
:1035F000984629D8174D04012B592BB3D8F804202D
:10360000154912BA130E0193C2F3074302920093B5
:1036100003A8C2F30723D2B21EF0A2FA07A805F04E
:103620007BF8B8F8022052BA03A907A805F092F86F
:103630003B46324607A9285905F06CFA044607A80C
:1036400005F076F8204601E04FF0FF300CB0BDE801
:10365000F08100BF2454FF3FF06A12002DE9F043CF
:10366000082889B00546884691461E4634D81D4F25
:1036700004013B5983B301461B4800F031F903A80C
:1036800005F04AF84B46424603A9385905F0D6F9E9
:10369000044602462946144800F022F9002C15DBA6
:1036A00003A805F095F80DF10B0301930DF10A0342
:1036B000009302AA0DF109030C491EF075FA029855
:1036C000706003A805F08AF8708001E04FF0FF34C5
:1036D00003A805F02DF801E04FF0FF34204609B0B3
:1036E000BDE8F0832454FF3FFC6A1200F06A120028
:1036F00030B5082889B00D4619D80F4B00011C5869
:10370000ACB14A6804A812BA130E0193C2F307437E
:10371000039200930949C2F30723D2B21EF020FAA4
:103720006A8852BA04A9204605F0C7F801E04FF0B4
:10373000FF3009B030BD00BF2454FF3FF06A1200D3
:10374000082810B51DD840F6FF74A14219D1A2F582
:103750008052053A012A17D8029A082A17D1CBB10C
:103760005A684FF47A7492FBF4F2196804FB012250
:10377000002A11DD094B00010021185805F058F806
:103780000AE04FF0FF3010BD6FF0010010BD6FF088
:10379000020010BD184610BD002010BD2454FF3F8C
:1037A00007B53048FFF74CFE2F4A30492D481AF034
:1037B000A7FA2F4B002203F5C070194643F8042CDA
:1037C00043F8083C01F8182B19615A611A76303316
:1037D0008342F2D1244A274900201AF091FA264860
:1037E000FFF72EFE204A214923481AF089FA234880
:1037F000FFF726FE1C4A1D4920481AF081FA20488E
:10380000FFF71EFE184A19491D481AF079FA4FF0C1
:10381000FF3300934022102320211A4819F078FF2B
:10382000114A194917481AF06BFA002302220121A4
:10383000164819F0B7FE0C4A154914481AF060FAF8
:10384000144814F0C5FF084A134912481AF058FAF0
:1038500000231946114A99501033802BFBD103B035
:103860005DF804FBF453FF3F0040FF3F69DD1100AA
:103870007C52FF3F21341000A454FF3F0C54FF3F03
:10388000D054FF3F4055FF3FCF231000E854FF3F87
:1038900049241000BC54FF3F598811002454FF3FB5
:1038A00038B5064D002404F5B4702844183C1AF0CD
:1038B00045FA14F5C07FF6D138BD00BF5455FF3F1F
:1038C00010B50446054A0830206011461AF047FA40
:1038D0002268002363601370204610BDE58112004A
:1038E0000FB4F7B5114E08AD55F8047B104C4FF0EE
:1038F000FF31304614F092FF00233A4623707521C1
:103900002B46204601951FF0F3FF0A4920461EF082
:10391000BAF9214608481AF05DF8304614F08EFFD7
:1039200003B0BDE8F04004B0704700BF0457FF3F4C
:103930008857FF3FC18312008058FF3F07B53748C3
:10394000FFF7BEFF364A374934481AF0D9F9364BEB
:10395000002203F5C070194643F8042C43F8083CD4
:1039600001F8182B19615A611A7630338342F2D16B
:103970002B4A2E4900201AF0C3F92D48FFF7A0FF6B
:10398000274A28492A481AF0BBF92A48FFF798FF26
:10399000234A244927481AF0B3F92748FFF790FF34
:1039A0001F4A204924481AF0ABF94FF0FF33009327
:1039B000402210232021214819F0AAFE184A20494C
:1039C0001E481AF09DF90023022201211D4819F01A
:1039D000E9FD134A1C491B481AF092F91B4814F0E0
:1039E000F7FE0F4A1A4919481AF08AF900234FF4D2
:1039F00000724FF48071174819F0D4FD084A12493B
:103A000014481AF07DF9144814F0E2FE044A1049F3
:103A1000114803B05DF804EB1AF072B9D456FF3FB9
:103A20000040FF3F69DD11005C55FF3FA1381000E9
:103A30001857FF3FEC56FF3F1458FF3F2C58FF3FED
:103A4000CF2310003057FF3F492410000058FF3F9C
:103A5000598811004058FF3F0457FF3F101E08B51A
:103A600008DB054800230068FEF75CFC002808BF5F
:103A70006FF0010008BD00BF2440FF3F101E08B5D5
:103A800008DB054800230068FEF755FC002808BF46
:103A90006FF0010008BD00BF2440FF3F10B5044691
:103AA00007F012F91F4B21461F481C60FFF718FF53
:103AB00007F0EFFC1D4B1E4C186007F029F9206041
:103AC00010B91C48FFF70CFF00221146206807F0D0
:103AD00041F92068184906F033FF2068174906F0BD
:103AE00031FF206806F043FF154C206010B91548DF
:103AF000FFF7F6FE0B49206806F026FF094920680B
:103B000006F024FF206807F043F9012805D00E488D
:103B1000FFF7E6FE4FF0FF3010BD0C48FFF7E0FE68
:103B2000002010BD2440FF3F0E6B1200A058FF3F45
:103B30009858FF3F226B12007D3A10005D3A10004A
:103B40009C58FF3F346B1200466B1200576B1200FB
:103B5000014B186806F033BF9C58FF3F014B1868B3
:103B600006F01DBF9C58FF3F08B50948FFF7B8FE97
:103B7000084B186806F00FFF074B186806F0F3FEB5
:103B800007F0CEF90548FFF7ABFE002008BD00BFE7
:103B9000686B12009C58FF3F9858FF3F726B1200F1
:103BA00038B5094B044618681BF04AF80546074823
:103BB00019F0C0FF014628461AF08EFF1BF05AFA92
:103BC00004B1206038BD00BFA458FF3FA858FF3F94
:103BD00030B5054689B00020FFF7E2FF08AB43F897
:103BE000040D18461BF024FE04460B4819F0B8FFDC
:103BF000236962690490216801330391616802F2CC
:103C00006C720291A16828460191E1680091034914
:103C10001DF0A6FF09B030BDA858FF3F7D6B120014
:103C200010B504460020FFF7BBFF2060024819F0E2
:103C300073FF6060002010BDA858FF3F10B5044618
:103C400001680548FFF74CFE2268044B04481A60DF
:103C500019F0B0FF002010BDA16B1200A458FF3F67
:103C6000A858FF3F08B517F0A9FA002008BD0000CA
:103C7000014819F00DBF00BFA858FF3FEFF30583BF
:103C800003B100BE704700000848094A08B5121A7F
:103C900000211CF072F816F0D1FF1BF071FE17F036
:103CA000F7FF19F035FC1BF07DFA00BF4043FF3FE2
:103CB0009477FF3F022801DD19F0C0BB0120704757
:103CC00008B5FFF7DBFFBDE808401BF0F1BF08B502
:103CD000FFF7D4FFBDE808401DF012BE08B5FFF79E
:103CE000CDFFBDE808401BF0EBBF08B501201BF07D
:103CF00059FA08B5FFF7F9FF00B585B001900198B2
:103D000000F088FF019800F0E3FF019801F06CF8E3
:103D10000DF10A031A461821019800F00DFE0390D8
:103D2000039B13F1020F02D16FF001037AE00DF152
:103D30000A031A461721019800F0FEFD0390039B29
:103D400013F1020F02D16FF001036BE0019801F053
:103D500021F80390039B002B01D0039B62E002211A
:103D6000019800F017FC0390039B002B01D0039BEC
:103D700058E00221019800F04DFB039B002B01D07D
:103D8000039B4FE00021019800F084FB0390039B0C
:103D9000002B01D0039B45E00021019800F0BAFB05
:103DA0000390039B002B01D0039B3BE00321019870
:103DB00000F070FC0390039B002B01D0039B31E0CB
:103DC0000121019800F026FC0390039B002B01D0F9
:103DD000039B27E01549019800F0CEFA0390039B5E
:103DE000002B01D0039B1DE04FF000020121019840
:103DF00000F05CF80390039B002B01D0039B11E0C3
:103E00004FF000020221019800F050F80390039B4C
:103E1000002B01D0039B05E05821019800F07AFCAB
:103E20000390039B184605B05DF804FBECB1040059
:103E300000B585B001900B468DF803300DF10A03F3
:103E40001A460821019800F063FD034613F1020FA2
:103E50000CBF01230023DBB2002B02D06FF0010363
:103E60001FE0BDF80A3023F003039BB2ADF80A301F
:103E70009DF803309AB2BDF80A3013439BB2ADF8F7
:103E80000A30BDF80A301A460821019800F022FED7
:103E90000390039B13F1020F02D16FF0010300E0C6
:103EA0000023184605B05DF804FB00BF00B58BB0D9
:103EB00003900B4601928DF80B300023ADF82630AD
:103EC0002C4B08934FF000030793089901981BF0BF
:103ED000C7F80346002B06D1079901981BF0A2F8FA
:103EE0000346002B02D06FF002033FE02249019805
:103EF0001AF0FAFE03461F4918461AF0A9FF0346B6
:103F000018461BF0DDF80346ADF81A30BDF81A303C
:103F1000ADF826309DF80B30012B02D0022B0FD0CC
:103F20001DE0BDF826301A460921039800F0D2FDA5
:103F30000590059B13F1020F14D16FF0010315E0FA
:103F4000BDF826301A460A21039800F0C3FD0590FB
:103F5000059B13F1020F07D16FF0010306E06FF02C
:103F6000020303E000BF00E000BF002318460BB0CF
:103F70005DF804FB0000C84200C07F4400B587B074
:103F800001900B468DF803301346ADF80030002346
:103F9000ADF8163040F2FF33ADF81430BDF8002014
:103FA000BDF814309A4202D96FF0020333E0BDF835
:103FB0000030ADF81230BDF81230ADF816309DF873
:103FC0000330012B02D0022B0FD01DE0BDF81630BC
:103FD0001A460921019800F07DFD0390039B13F11F
:103FE000020F14D16FF0010315E0BDF816301A4628
:103FF0000A21019800F06EFD0390039B13F1020F5C
:1040000007D16FF0010306E06FF0020303E000BF89
:1040100000E000BF0023184607B05DF804FB00BFB6
:1040200000B589B0039002910192019902981AF0AB
:1040300053FD0346964918461BF012F80346002B21
:1040400002D06FF0020306E102981AF0A3F984A3EC
:10405000D3E900231AF082FC0346002B02D08D4BDB
:10406000029308E08C4902981AF0DCFF0346002B0B
:1040700001D08A4B0293894902981AF0C9FF03467E
:10408000002B03D000238DF81F3014E082490298E2
:104090001AF020FD0346824918461AF025FE034611
:1040A000804918461AF0D4FE034618461BF008F85B
:1040B00003468DF81F300DF116031A4603210398AD
:1040C00000F026FC034613F1020F0CBF012300236E
:1040D000DBB2002B02D06FF00103BCE0BDF816305C
:1040E00023F07F039BB2ADF816309DF81F309AB2D3
:1040F000BDF8163013439BB2ADF81630BDF816303C
:104100001A460321039800F0E5FC069001981AF086
:1041100041F955A3D3E900231AF020FC0346002BF4
:1041200003D007238DF81E3062E001981AF032F9AF
:104130004FA3D3E900231AF011FC0346002B03D050
:1041400007238DF81E3053E001981AF023F94AA393
:10415000D3E900231AF002FC0346002B03D0062308
:104160008DF81E3044E001981AF014F944A3D3E905
:1041700000231AF0F3FB0346002B03D005238DF830
:104180001E3035E001981AF005F93FA3D3E900236A
:104190001AF0E4FB0346002B03D004238DF81E30F5
:1041A00026E04FF0804101981AF05AFF0346002B99
:1041B00003D003238DF81E301AE04FF07F51019891
:1041C0001AF04EFF0346002B03D002238DF81E3059
:1041D0000EE04FF07E5101981AF042FF0346002B8B
:1041E00003D001238DF81E3002E000238DF81E302D
:1041F0000DF116031A460221039800F089FB0346CD
:1042000013F1020F0CBF01230023DBB2002B02D0FD
:104210006FF001031FE0BDF8163023F007039BB2D7
:10422000ADF816309DF81E309AB2BDF81630134323
:104230009BB2ADF81630BDF816301A46022103982D
:1042400000F048FC0690069B13F1020F02D16FF0BC
:10425000010300E00023184609B05DF804FB00BF2D
:104260006666666666065040333333333333174031
:1042700066666666666613403333333333330F4006
:104280003333333333330740333333333333034040
:10429000000088423333804200007041000030410A
:1042A0000000FE426666444200B585B001900DF103
:1042B0000E031A460221019800F02AFB034613F16F
:1042C000020F0CBF01230023DBB2002B02D06FF0E2
:1042D000010319E0BDF80E3043F020039BB2ADF8A6
:1042E0000E30BDF80E301A460221019800F0F2FBA4
:1042F0000346002B0CBF01230023DBB2002B01D0AF
:10430000002301E06FF00103184605B05DF804FBDF
:1043100000B585B001900DF10E031A4602210198F7
:1043200000F0F6FA034613F1020F0CBF012300233D
:10433000DBB2002B02D06FF0010319E0BDF80E30A4
:1043400023F020039BB2ADF80E30BDF80E301A46B4
:104350000221019800F0BEFB0346002B0CBF012395
:104360000023DBB2002B01D0002301E06FF001033A
:10437000184605B05DF804FB00B587B001900091C8
:10438000234A009BB2FBF3F30593059B072B02D94D
:10439000059B262B02D96FF0020335E00DF10E03C9
:1043A0001A460121019800F0B3FA034613F1020FF7
:1043B0000CBF01230023DBB2002B02D06FF00103FE
:1043C00022E0BDF80E3023F0F8039BB2ADF80E30BA
:1043D000059B9BB2073B9BB2DB009AB2BDF80E3047
:1043E00013439BB2ADF80E30BDF80E301A460121D2
:1043F000019800F06FFB0490049B13F1020F02D1AF
:104400006FF0010300E00023184607B05DF804FBDD
:1044100000127A0000B585B001900B468DF803308C
:104420000DF10A031A460221019800F071FA0346C1
:1044300013F1020F0CBF01230023DBB2002B02D0CB
:104440006FF0010322E0BDF80A3023F018039BB29D
:10445000ADF80A309DF80330DB009AB2BDF80A309F
:104460009BB213439BB29BB2ADF80A30BDF80A3041
:104470001A460221019800F02DFB0390039B13F1D3
:10448000020F02D16FF0010300E00023184605B0CF
:104490005DF804FB00B585B001900B468DF8033044
:1044A0000DF10A031A460221019800F031FA034681
:1044B00013F1020F0CBF01230023DBB2002B02D04B
:1044C0006FF0010322E0BDF80A3023F4C0739BB201
:1044D000ADF80A309DF80330DB009AB2BDF80A301F
:1044E0009BB213439BB29BB2ADF80A30BDF80A30C1
:1044F0001A460221019800F0EDFA0390039B13F194
:10450000020F02D16FF0010300E00023184605B04E
:104510005DF804FB00B585B001900B468DF80330C3
:104520000DF10A031A460521019800F0F1F903463E
:1045300013F1020F0CBF01230023DBB2002B02D0CA
:104540006FF0010322E0BDF80A3023F4C0739BB280
:10455000ADF80A309DF803301B029AB2BDF80A305C
:104560009BB213439BB29BB2ADF80A30BDF80A3040
:104570001A460521019800F0ADFA0390039B13F150
:10458000020F02D16FF0010300E00023184605B0CE
:104590005DF804FB00B585B001900B468DF8033043
:1045A0000DF10A031A460121019800F0B1F9034602
:1045B00013F1020F0CBF01230023DBB2002B02D04A
:1045C0006FF0010322E0BDF80A3023F006039BB22E
:1045D000ADF80A309DF803305B009AB2BDF80A309E
:1045E0009BB213439BB29BB2ADF80A30BDF80A30C0
:1045F0001A460121019800F06DFA0390039B13F114
:10460000020F02D16FF0010300E00023184605B04D
:104610005DF804FB00B585B001900B468DF80330C2
:104620000DF10A031A460121019800F071F90346C1
:1046300013F1020F0CBF01230023DBB2002B02D0C9
:104640006FF0010322E0BDF80A3023F440739BB2FF
:10465000ADF80A309DF803301B029AB2BDF80A305B
:104660009BB213439BB29BB2ADF80A30BDF80A303F
:104670001A460121019800F02DFA0390039B13F1D3
:10468000020F02D16FF0010300E00023184605B0CD
:104690005DF804FB00B585B001900B468DF8033042
:1046A0000DF10A031A460321019800F031F903467F
:1046B00013F1020F0CBF01230023DBB2002B02D049
:1046C0006FF0010322E0BDF80A3023F4C0739BB2FF
:1046D000ADF80A309DF80330DB019AB2BDF80A301C
:1046E0009BB213439BB29BB2ADF80A30BDF80A30BF
:1046F0001A460321019800F0EDF90390039B13F192
:10470000020F02D16FF0010300E00023184605B04C
:104710005DF804FB00B585B001900B46ADF80230A2
:10472000BDF80230B3F5007F02D36FF0020313E04F
:10473000BDF80230ADF80E30BDF80E301A460D212E
:10474000019800F0C7F90290029B13F1020F02D109
:104750006FF0010300E00023184605B05DF804FB8C
:1047600000B585B001900B468DF803309DF80330FD
:10477000012B02D0022B2AD053E00DF10A031A4676
:104780000621019800F0C4F8034613F1020F0CBF94
:1047900001230023DBB2002B03D06FF0010303934E
:1047A00043E0BDF80A3043F002039BB2ADF80A3093
:1047B000BDF80A301A460621019800F08BF90390E3
:1047C000039B13F1020F30D16FF0010331E00DF1C3
:1047D0000A031A460621019800F09AF8034613F1DD
:1047E000020F0CBF01230023DBB2002B03D06FF0BC
:1047F000010303931BE0BDF80A3043F001039BB2B1
:10480000ADF80A30BDF80A301A460621019800F0CA
:1048100061F90390039B13F1020F08D16FF00103BC
:1048200007E06FF00103039302E000BF00E000BF68
:104830000023184605B05DF804FB00BF00B585B045
:1048400001900B468DF803309DF80330012B02D008
:10485000022B2AD056E00DF10A031A4606210198D0
:1048600000F056F8034613F1020F0CBF012300239A
:10487000DBB2002B03D06FF0010303933FE0BDF8E0
:104880000A3023F002039BB2ADF80A30BDF80A30BB
:104890001A460621019800F01DF90390039B13F1BD
:1048A000020F2CD16FF001032DE00DF10A031A461F
:1048B0000621019800F02CF8034613F1020F0CBFFB
:1048C00001230023DBB2002B03D06FF0010303931D
:1048D00017E0BDF80A3023F001039BB2ADF80A30AF
:1048E000BDF80A301A460621019800F0F3F803904B
:1048F000039B13F1020F04D16FF0010303E000BF2B
:1049000000E000BF0023184605B05DF804FB00BFBF
:1049100000B587B003900B4601928DF80B309DF8DF
:104920000B30019A1946039800F02EF80590059B6C
:10493000184607B05DF804FB00B587B003900B463E
:1049400001928DF80B309DF80B30019A19460398AF
:1049500000F01AF80590059B184607B05DF804FBB7
:1049600000B587B003900B4601928DF80B309DF88F
:104970000B30019A1946039800F006F80590059B44
:10498000184607B05DF804FB00B587B003900B46EE
:1049900001928DF80B300023ADF816300023ADF8EE
:1049A0001430019B002B02D16FF002038BE04FF01B
:1049B000FF31474813F032FF039800F015FA0398CF
:1049C00000F062F99DF80B309B029AB2BDF81630E8
:1049D00013439BB2ADF81630BDF81620BDF8143065
:1049E0001343ADF81630BDF816301946039800F0A1
:1049F00087F903468DF813309DF813305B029AB2A5
:104A0000BDF8163013439BB2ADF81630039BBDF8CA
:104A100016201146184618F001FF0346ADF8103075
:104A2000019BBDF810201A80039800F051F90398FB
:104A300000F02AF90023ADF816300023ADF8143049
:104A4000BDF8163043F4C043ADF81630BDF816205B
:104A5000BDF814301343ADF81630BDF816301946C2
:104A6000039800F04DF903468DF813309DF813308C
:104A70005B029AB2BDF8163013439BB2ADF8163004
:104A8000039BBDF816201146184618F0C7FE0346D2
:104A9000ADF81030039800F01BF9039800F0B8F956
:104AA0000B4813F0CBFEBDF810301BB2002B02DA1E
:104AB0006FF0010307E0019B1B88C3F309039AB25F
:104AC000019B1A800023184607B05DF804FB00BF65
:104AD000A845FF3F00B585B001900B468DF8033027
:104AE0001346ADF800300023ADF80E304FF0FF3123
:104AF000474813F093FE019800F076F9019800F012
:104B0000E7F8019800F0C0F8BDF80E306FEA4343B3
:104B10006FEA5343ADF80E309DF80330DB029AB2D2
:104B2000BDF80E3013439BB2ADF80E30BDF80E2029
:104B3000BDF800301343ADF80E30BDF80E30194605
:104B4000019800F0DDF803468DF80D309DF80D302A
:104B50009B029AB2BDF80E3013439BB2ADF80E30F3
:104B6000019BBDF80E201146184618F057FE03466B
:104B7000ADF80A30019800F0ABF8019800F084F825
:104B80000023ADF800300023ADF80E30BDF80E3034
:104B90006FEA43436FEA5343ADF80E30BDF80E2081
:104BA000BDF800301343ADF80E30BDF80E30194695
:104BB000019800F0A5F803468DF80D309DF80D30F2
:104BC0005B029AB2BDF80E3013439BB2ADF80E30C3
:104BD000019BBDF80E201146184618F01FFE034633
:104BE000ADF80A30019800F073F8019800F010F960
:104BF000074813F023FEBDF80A301BB2002B02DA7F
:104C00006FF0010300E00023184605B05DF804FBD7
:104C1000A845FF3F00B583B00190019B14331949AB
:104C2000184603F0F1FF019B03F11400002300225A
:104C3000012104F0C1F8019B03F1140000230122BB
:104C4000012104F0B9F8019B03F1140000230222B2
:104C5000012104F0B1F8019B03F1140001230122AA
:104C6000012104F041F8019B03F114000123022209
:104C7000012104F039F8142016F0B0FA00BF03B097
:104C80005DF804FB40420F0000B583B00190019B2A
:104C900003F1140001230022012104F025F814205F
:104CA00016F09CFA072016F099FA019B03F1140004
:104CB00000230022012104F017F8142016F08EFAC8
:104CC000072016F08BFA00BF03B05DF804FB00BFAD
:104CD00000B583B00190072016F080FA019B03F124
:104CE000140001230022012103F0FEFF142016F01E
:104CF00075FA072016F072FA00BF03B05DF804FBE6
:104D000086B001900B46ADF8023000238DF81530C7
:104D100000230493BDF80230ADF81630002304934D
:104D2000049B0F2BCCBF01230023DAB2BDF8163051
:104D3000002B0CBF01230023DBB21343DBB2002B9B
:104D400014D1BDF81630DBB203F00103DAB29DF8DE
:104D500015305340DBB28DF81530BDF816305B10BE
:104D6000ADF81630049B01330493D9E79DF8153054
:104D7000002B0CBF01230023DBB28DF80F309DF810
:104D80000F30002B01D0012300E00023184606B0AD
:104D9000704700BF00B585B00190002303930DF16B
:104DA0000A031A461A210198FFF7DAFD034613F1A8
:104DB000020F0CBF01230023DBB2002B02D06FF0E7
:104DC00001030DE0BDF80A30DBB29BB2ADF80A304A
:104DD000BDF80A30582B02D04FF0FF330393039BEA
:104DE000184605B05DF804FB00B583B00190019B47
:104DF00000221021184618F0C3FC019B03491846F5
:104E000018F0D6FC00BF03B05DF804FB400D0300B2
:104E100000B587B001900823059300230493084B45
:104E20000393019B049A0599184618F0A9FC019B6D
:104E30000399184618F0BCFC00BF07B05DF804FBEE
:104E400040420F0000B585B003900B468DF80B3043
:104E500003984FF0FF33009310234022202118F0D5
:104E600057FC039B03F114004FF4003300932823F5
:104E70000422082103F0A4FE039B002283F878207B
:104E8000039B9DF80B2083F88320039B93F88330CA
:104E9000012B28D1039B032283F87920039B012255
:104EA00083F87A20039B042283F87B20039B012252
:104EB00083F87C20039B062283F87D20039B01223C
:104EC00083F87E20039B052283F87F20039B012229
:104ED00083F88020039B062283F88120039B002215
:104EE00083F8822028E0039B072283F87920039B24
:104EF000002283F87A20039B002283F87B20039B07
:104F0000012283F87C20039B022283F87D20039BEF
:104F1000012283F87E20039B012283F87F20039BDC
:104F2000012283F88020039B062283F88120039BC3
:104F3000002283F8822000BF039B184605B05DF86D
:104F400004FB00BF00B587B00190019800F0D6FBCC
:104F5000019800F059FC019B14330321184603F01B
:104F6000B7FF0590059A0021019800F09FFC0021F1
:104F7000019800F067FC019B03F11400019B93F87A
:104F80008210019B93F88130DBB25AB2012303F007
:104F9000ABFE019800F084FB0221019800F0D0FAEA
:104FA00003468DF80F309DF80F3043F04003DBB21D
:104FB0008DF80F309DF80F301A460221019800F04D
:104FC000FDFA0490049B002B02D06FF0010359E01E
:104FD0000221019800F0B4FA03468DF80F309DF8D5
:104FE0000F3023F04003DBB28DF80F309DF80F3007
:104FF0001A460221019800F0E1FA0490049B002B6C
:1050000002D06FF001033DE00DF10E030DF10F0230
:105010000521019800F004FA0490049B002B02D0B3
:105020006FF001032EE00DF10E030DF10F020621CA
:10503000019800F0F5F90490049B002B02D06FF06A
:1050400001031FE0019800F009FB0321019800F023
:1050500077FA03468DF80F309DF80F3063F07F0329
:10506000DBB28DF80F309DF80F301A4603210198FE
:1050700000F0A4FA0490049B002B02D06FF001030F
:1050800000E00023184607B05DF804FB00B585B0CA
:1050900001900B468DF803301F238DF80F309DF8DB
:1050A00003209DF80F309A4202D96FF0020322E0EC
:1050B0000121019800F044FA03468DF80E309DF866
:1050C0000E3023F01F038DF80E309DF80E209DF852
:1050D000033013438DF80E309DF80E301A4601212F
:1050E000019800F06BFA0290029B002B02D06FF047
:1050F000010300E00023184605B05DF804FB00BF83
:1051000000B585B001900B468DF803309DF8033053
:105110000B2B6FD801A252F823F000BF4D511000A5
:105120005B5110006951100077511000855110003B
:1051300093511000A1511000AF511000BD5110004B
:10514000CB511000D9511000E751100000238DF809
:105150000F3000238DF80E3053E000238DF80F3010
:1051600001238DF80E304CE000238DF80F30022320
:105170008DF80E3045E000238DF80F3003238DF8B5
:105180000E303EE000238DF80F3004238DF80E30F2
:1051900037E000238DF80F3005238DF80E3030E016
:1051A00000238DF80F3000238DF80E3029E0002306
:1051B0008DF80F3006238DF80E3022E001238DF894
:1051C0000F3000238DF80E301BE002238DF80F30D6
:1051D00000238DF80E3014E003238DF80F300023E8
:1051E0008DF80E300DE004238DF80F3000238DF87C
:1051F0000E3006E000238DF80F3000238DF80E30BE
:1052000000BF0921019800F09BF903468DF80D308D
:105210009DF80D3023F00703DAB29DF80F301343E9
:10522000DBB28DF80D309DF80D301A46092101983A
:1052300000F0C4F90290029B002B02D06FF0010332
:1052400027E00121019800F07BF903468DF80D302D
:105250009DF80D3003F01F03DAB29DF80E305B01AC
:10526000DBB21343DBB28DF80D309DF80D301A46DA
:105270000121019800F0A2F90290029B002B02D0BC
:105280006FF0010305E0019B9DF8032083F878206F
:105290000023184605B05DF804FB00BF00B585B0DB
:1052A00001900B468DF803300221019800F048F977
:1052B00003468DF80F309DF80F3003F07F038DF813
:1052C0000F309DF80330DB01DAB29DF80F30134345
:1052D000DBB28DF80F309DF80F301A46022101988D
:1052E00000F06CF90290029B002B02D06FF00103DA
:1052F00000E00023184605B05DF804FB0000000044
:1053000010B588B0019000914FF00001009819F09D
:105310009DFE0346002B01D0009B02E0009B83F022
:1053200000430693019800F007FB0590059819F0DB
:105330000FF803460C461A46234623A1D1E9000183
:1053400019F0A6F903460C461846214619F06EFBE3
:10535000034604930499069819F064FE0346002B53
:1053600002D06FF002032AE04FF00001009819F01C
:1053700077FE0346002B05D000210198FFF78EFF32
:10538000079008E001210198FFF788FF0790009B34
:1053900083F000430093079B002B01D0079B0EE096
:1053A0000499009819F054FD0346184619F088FE38
:1053B000034603930399019800F084FB00231846E9
:1053C00008B010BDAFF30080CDCCCCCCCCCCFC3F32
:1053D00000B585B001900321019800F0B1F80346B3
:1053E0008DF80F309DF80F3003F07F038DF80F30EC
:1053F0009DF80F301A460321019800F0DFF80346AC
:10540000002B14BF01230023DBB2002B02D06FF06E
:10541000010300E00023184605B05DF804FB00BF5F
:1054200000B589B00390019200930B468DF80B30C4
:1054300000238DF81E30002306934FF0FF313F48C4
:1054400013F0ECF9039800F02BF9039800F0DCF965
:10545000039800F0A9F99DF80B308DF81730039BE5
:105460009DF817201146184618F0D8F904238DF836
:105470001730039B9DF817201146184618F0CEF9F7
:105480000346DAB2019B1A70019B1B788DF81F301E
:10549000039B03F11400039B93F87C10039B93F888
:1054A0007B30DBB25BB21A4603F0E0FB0346002B15
:1054B0000CBF01230023DBB2002B03D0009B012291
:1054C0001A7002E0009B00221A70039800F09CF909
:1054D000039800F0F9F89DF81F30002B15D0069BBB
:1054E000072B12D09DF81F209DF81E305340DBB2D1
:1054F00003F001038DF81E309DF81F305B108DF80E
:105500001F30069B01330693E5E7019B1B78DB09FF
:105510008DF816309DF816209DF81E309A4204D161
:10552000064813F08BF9002304E0044813F086F9D1
:105530006FF00103184609B05DF804FBA845FF3F72
:1055400000B585B001900B468DF803304FF0FF3168
:10555000194813F063F9019800F0A2F8019800F0DF
:1055600053F9019800F020F99DF803308DF80F30C1
:10557000019B9DF80F201146184618F04FF904239F
:105580008DF80F30019B9DF80F201146184618F03A
:1055900045F903468DF80E30019800F035F9019871
:1055A00000F092F8044813F049F99DF80E301846BF
:1055B00005B05DF804FB00BFA845FF3F00B585B00E
:1055C00001900B468DF8033013468DF802304FF0F2
:1055D000FF31214813F022F9019800F061F8019899
:1055E00000F012F9019800F0DFF89DF8033063F045
:1055F0007F038DF80F30019B9DF80F201146184650
:1056000018F00CF9019B9DF802201146184618F07D
:1056100005F9019800F0F8F8019800F055F89DF8A8
:10562000033019460198FFF78BFF03468DF80E30C3
:105630009DF80E209DF802309A4204D1064813F0DE
:10564000FDF8002304E0044813F0F8F86FF00103BC
:10565000184605B05DF804FBA845FF3F00B585B0CE
:105660000190019B03F11400019B93F87C10019BB6
:1056700093F87B30DBB25BB21A4603F0F7FA029084
:10568000029B012B03D100238DF80F3002E0012390
:105690008DF80F309DF80F30184605B05DF804FB0B
:1056A00000B583B00190019B00220821184618F034
:1056B00067F8019B0349184618F07AF800BF03B059
:1056C0005DF804FB20A1070000B587B00190082316
:1056D000059300230493084B0393019B049A0599B7
:1056E000184618F04DF8019B0399184618F060F819
:1056F00000BF07B05DF804FB40420F0000B583B067
:105700000190019B14332749184603F07DFA019B51
:1057100003F11400019B93F87A10019B93F8793000
:10572000DBB25AB2002303F047FB019B03F11400E4
:10573000019B93F88210019B93F88130DBB25AB23F
:10574000002303F039FB019B03F11400019B93F844
:105750007C10019B93F87B30DBB25AB2012303F03B
:105760002BFB019B03F11400019B93F87E10019B1E
:1057700093F87D30DBB25AB2002303F01DFB019B8E
:1057800003F11400019B93F88010019B93F87F3084
:10579000DBB25AB2002303F00FFB00BF03B05DF889
:1057A00004FB00BF40420F0000B583B00190019B95
:1057B00003F11400019B93F87A10019B93F8793060
:1057C000DBB25AB2012303F08FFA142015F006FD64
:1057D000062015F003FD019B03F11400019B93F8D3
:1057E0007A10019B93F87930DBB25AB2002303F0B0
:1057F0007BFA142015F0F2FC022015F0EFFC00BF3C
:1058000003B05DF804FB00BF00B583B00190012038
:1058100015F0E4FC019B03F11400019B93F87A104E
:10582000019B93F87930DBB25AB2012303F05CFAA2
:10583000142015F0D3FC062015F0D0FC00BF03B0F7
:105840005DF804FB00B583B001900B468DF8033082
:10585000012015F0C3FC9DF80330002B0ED1019BF5
:1058600003F11400019B93F88010019B93F87F30A3
:10587000DBB25AB2002303F037FA0DE0019B03F1CB
:105880001400019B93F88010019B93F87F30DBB2EA
:105890005AB2012303F028FA142015F09FFC0120CE
:1058A00015F09CFC00BF03B05DF804FB00B587B0A9
:1058B00003900B4601928DF80B3005AB00210A4690
:1058C0001A800A469A709DF80B30002B0CD0012BE1
:1058D00000D014E0039B93F87D301A4601239340D7
:1058E000019A134301930AE0039B93F87D301A4613
:1058F00001239340DB43019A1340019300BF282307
:105900008DF8143003238DF81530019BDBB28DF830
:105910001630084B15229A6005AB032219460398EE
:1059200000F062F8034B14229A6000BF07B05DF8E4
:1059300004FB00BF0070004084B00190019B93F80D
:1059400078300B2B32D801A252F823F07D59100089
:1059500083591000895910008F591000A159100067
:10596000A1591000A7591000A7591000955910000F
:105970009B591000A7591000A7591000202303932A
:1059800015E01023039312E0082303930FE0042390
:1059900003930CE08023039309E04023039306E084
:1059A0000223039303E00123039300E000BF039B62
:1059B000184604B0704700BF84B0019000910023E6
:1059C0000393009B0393039B002B14BF012300232D
:1059D000DBB2002B04D000BF039B013B0393F2E733
:1059E00000BF04B0704700BF00B587B003900291BC
:1059F000019200238DF8173000230493049A019B31
:105A00009A4256D22E4B12229A6014210398FFF725
:105A1000D3FF029A049B13441B78132B18D1284BF5
:105A200010229A60264B10229A60254B10229A6011
:105A3000234B11229A60224B10229A60204B102295
:105A40009A601F4B11229A601D4B11229A6007E049
:105A50001B49049B5A1C0492029A13441B788B60C6
:105A60000A210398FFF7A8FF154B16229A6005211B
:105A70000398FFF7A1FF124B1B6803F01003002BE4
:105A800014BF01230023DBB2002B00D0F3E7052174
:105A90000398FFF791FF0A4B1B6803F00403002BE8
:105AA00014BF01230023DBB2002BA7D002238DF803
:105AB00017309DF81730184607B05DF804FB00BF9B
:105AC0000070004000B585B001900091019B143337
:105AD0000321184603F0FCF9029072B600230393E9
:105AE000039A009B9A420DD2029A01210198FFF776
:105AF000DDFE029A00210198FFF7D8FE039B0133D7
:105B00000393EDE762B600BF05B05DF804FB00BF8C
:105B100000B587B003900B468DF80B3046494748D7
:105B200017F0B0F9012015F049FB08238DF8143067
:105B300005AA0023009301237221404817F0D2F9EF
:105B400005AA00230093022372213C4817F0F0F9C4
:105B500008238DF8143005AA002300930123722135
:105B6000364817F0BFF90346002B14BF012300236A
:105B7000DBB2002B02D06FF0010358E005AA00232E
:105B80000093022372212D4817F0D2F90346002B0F
:105B900014BF01230023DBB2002B02D06FF00103FE
:105BA00045E09DF81430192B03D19DF81530052BD5
:105BB00002D04FF0FF333AE002238DF814309DF805
:105BC0000B308DF8153005AA0023009302237221B3
:105BD0001A4817F087F90346002B14BF012300234E
:105BE000DBB2002B02D06FF0010320E0002103980C
:105BF00000F02EF8124815F0CBFA0821039800F0B7
:105C000027F810490D4817F03DF99DF80B300E4A62
:105C100052F823300D49184619F066F80346184625
:105C200019F028FA0346184615F0C8FA002318465A
:105C300007B05DF804FB00BFA0860100B858FF3F25
:105C40009A99193E40420F000440FF3F0000404037
:105C500000B587B003900B468DF80B3000238DF80C
:105C600014309DF80B308DF8153072B629492A484A
:105C700017F008F905AA0023009302237221264891
:105C800017F030F90346002B14BF01230023DBB2C9
:105C9000002B02D06FF0010337E000238DF81430A1
:105CA00005AA00230093012372211B4817F01AF95B
:105CB0000346002B14BF01230023DBB2002B02D0CC
:105CC0006FF0010321E005AA002300930123722154
:105CD000114817F02DF90346002B14BF01230023B0
:105CE000DBB2002B02D06FF001030EE00B490A4833
:105CF00017F0C8F862B69DF814309DF80B209A4250
:105D000001D1002301E04FF0FF33184607B05DF8E2
:105D100004FB00BFA0860100B858FF3F40420F00BF
:105D200000B587B00390029106238DF8143072B647
:105D30001D491E4817F0A6F805AA00230093012369
:105D400072211A4817F0CEF80346002B14BF012326
:105D50000023DBB2002B02D06FF0010320E005AA84
:105D60000023009302237221104817F0E1F8034644
:105D7000002B14BF01230023DBB2002B02D06FF0F5
:105D800001030DE00A49094817F07CF862B69DF856
:105D900015301B029DF814201A43029B1A60002341
:105DA000184607B05DF804FBA0860100B858FF3F15
:105DB00040420F0000000000F0B587B00190009154
:105DC0000023049302238DF8173000238DF80F3041
:105DD0000DF10F029DF817301946019800F054F8A4
:105DE0000346002B0CBF01230023DBB2002B3DD068
:105DF00004AB19460198FFF793FF0346002B0CBF35
:105E000001230023DBB2002B2ED0049B184618F090
:105E1000AFFA04460D469DF80F301A46184B53F85A
:105E20002230184618F0B6FA13A3D3E9002318F06D
:105E300005FB02460B4616461F46009818F0AAFAC4
:105E400002460B463046394618F0F8FA02460B4631
:105E50002046294618F01CFC03460C4618462146ED
:105E600018F0E4FD034602E0064B00E0054B18463F
:105E700007B0F0BDAFF30080FCA9F1D24D62503FF6
:105E80000440FF3F000080BF00B589B005900B467D
:105E900003928DF813309DF81330092B37D89DF8F5
:105EA00013308DF81C3072B61C491D4816F0EAFFFD
:105EB00007AA0023009301237221194817F012F852
:105EC0000346002B14BF01230023DBB2002B03D0B9
:105ED00062B66FF001031DE0002300930123039AD3
:105EE00072210F4817F024F80346002B14BF01233A
:105EF0000023DBB2002B03D062B66FF0010309E090
:105F00000849074816F0BEFF62B6002302E062B6F9
:105F10006FF00203184609B05DF804FBA08601008B
:105F2000B858FF3F40420F0000B585B00390029182
:105F3000039B012B17D1029B4FF6FF72934212D1A4
:105F4000042208210A4816F07FFF4FF40033009323
:105F5000222304220821074802F032FE064A07499C
:105F6000044817F0CDFE00BF05B05DF804FB00BF8C
:105F7000B858FF3FC058FF3F0040FF3F218F10003F
:105F800008B54FF6FF710120FFF7CEFF08BD00BF37
:105F900000B583B0019002220021094802F066FE9C
:105FA0000346012B0CBF01230023DBB2002B01D0E1
:105FB000012300E00023184603B05DF804FB00BF96
:105FC0002459FF3F00B585B003900291039B012B3C
:105FD00012D1029B4FF6FF7293420DD14FF4003362
:105FE0000093242304220821054802F0E9FD054A14
:105FF0000549034817F084FE00BF05B05DF804FBB7
:106000002459FF3F0040FF3F218F100008B54FF695
:10601000FF710120FFF7D6FF08BD00BF00B583B0B8
:1060200001900091019B0099184615F0F9FE019B23
:10603000184603B05DF804FB00B583B001900091F1
:10604000019B0099184615F011FF00BF03B05DF8E1
:1060500004FB00BF00B583B00190019B184615F00A
:106060002DFF0346184603B05DF804FB00B583B06E
:106070000190009100990198FFF7DEFF019B1846FF
:1060800003B05DF804FB00BF00B583B00190019838
:10609000FFF7E0FF0346184603B05DF804FB00BFBE
:1060A00000B585B00390029101920949019818F05A
:1060B0001BFE0346184619F003F803461A460299D8
:1060C000039800F007F800BF05B05DF804FB00BFBF
:1060D0000024744900B585B0039002910192039B9E
:1060E00018330299184600F013FC0199039817F031
:1060F0009DFC00BF05B05DF804FB00BF00B583B098
:106100000190019A0121034802F08CFD00BF03B009
:106110005DF804FB8C59FF3F00B583B0019000226D
:106120000021044802F0A2FD0346184603B05DF8C2
:1061300004FB00BF8C59FF3F00B583B00190019B69
:1061400000221021184617F01BFB019B0549184639
:1061500017F02EFBC82015F041F800BF03B05DF822
:1061600004FB00BF90D0030000B583B00190019BF9
:1061700000220821184617F003FB019B0549184629
:1061800017F016FBC82015F029F800BF03B05DF822
:1061900004FB00BF40420F0000B583B001901449DA
:1061A000144802F031FD002307220021114802F0BB
:1061B00003FE0123072200210E4802F095FD002373
:1061C000002200210B4802F0F7FD002300220021ED
:1061D000084802F089FD012301220121054802F04F
:1061E000EBFDC82014F0FAFF00BF03B05DF804FB1C
:1061F00040420F008C59FF3F00B583B001906420EE
:1062000014F0ECFF012307220021054802F06CFD89
:10621000C82014F0E3FF00BF03B05DF804FB00BF2B
:106220008C59FF3F00B583B0019001230722002164
:10623000094802F059FD642014F0D0FF0023072222
:106240000021054802F050FDC82014F0C7FF00BF30
:1062500003B05DF804FB00BF8C59FF3F00B587B069
:1062600003900B4601928DF80B300023ADF81630E9
:1062700000238DF815304FF0FF31234812F0CEFA8D
:106280000398FFF759FF0398FFF7CCFF9DF80B30F9
:106290001B029AB2BDF8163013439BB2ADF816300C
:1062A0009DF815309AB2BDF816301343ADF816308C
:1062B000039BBDF816201146184617F0AFFA0346A7
:1062C000ADF81230C82014F089FF0398FFF794FF4F
:1062D0000398FFF749FFBDF8123003F40053002B79
:1062E00005D0094812F0AAFA4FF0FF3308E0BDF8D4
:1062F0001230DAB2019B1A70034812F09FFA0023A1
:10630000184607B05DF804FBA845FF3F00B585B00F
:1063100001900B468DF8033013468DF802300023B0
:10632000ADF80E304FF0FF31244812F077FA0198A3
:10633000FFF702FF0198FFF775FFBDF80E306FEA17
:1063400043436FEA5343ADF80E309DF803301B0210
:106350009AB2BDF80E3013439BB2ADF80E309DF8E3
:1063600002309AB2BDF80E301343ADF80E30019BE7
:10637000BDF80E201146184617F050FA0346ADF846
:106380000C30C82014F02AFF0198FFF735FF019860
:10639000FFF7EAFEBDF80C3003F40053002B05D0E4
:1063A000064812F04BFA4FF0FF3303E0034812F0B7
:1063B00045FA0023184605B05DF804FBA845FF3FE9
:1063C00000B585B00190084611461A4603468DF87F
:1063D00003300B468DF8023013468DF80130002350
:1063E0008DF80F309DF80130072B02D96FF00103B3
:1063F00040E00DF10F031A4600210198FFF72EFF30
:106400000346002B0CBF01230023DBB2002B02D07C
:106410004FF0FF332EE09DF8023083F00103DBB232
:10642000002B10D09DF80130012202FA03F3DBB2F9
:10643000DB43DAB29DF80F30DBB21340DBB2DBB2E4
:106440008DF80F300DE09DF80130012202FA03F3C0
:10645000DAB29DF80F30DBB21343DBB2DBB28DF85A
:106460000F309DF80F209DF8033019460198FFF773
:106470004DFF0346184605B05DF804FB00B583B038
:106480000190012300220021034802F02DFC00BFEF
:1064900003B05DF804FB00BF8C59FF3F00B583B02B
:1064A0000190002300220021034802F01DFC00BFE0
:1064B00003B05DF804FB00BF8C59FF3F00B585B009
:1064C00001900B468DF80330002303930198FFF7EA
:1064D00023FE0346002B0CBF01230023DBB2002B5D
:1064E00008D09DF80320072300210198FFF768FFDB
:1064F00003460EE00198FFF7D1FF9DF80320072324
:1065000000210198FFF75CFF03900198FFF7B6FFA9
:10651000039B184605B05DF804FB00BF84B00190F2
:10652000009100238DF80F30009BB3F5C87F10D386
:10653000009B43F2903293420BD8009BA3F5C873A3
:10654000284AA2FB03239B09DBB204338DF80F30EA
:1065500043E0009B43F29032934211D9009B44F2F6
:10656000C04293420CD8009BA3F54E53103B1D4AEA
:10657000A2FB0323DB09DBB244338DF80F302CE0A0
:10658000009B44F2C042934211D9009B45F6C05291
:1065900093420CD8009BA3F58943403B114AA2FBD0
:1065A00003231B0ADBB24F338DF80F3015E0009B3D
:1065B00045F6C052934210D9009B49F6404293429F
:1065C0000BD8009BA3F5BB43403B074AA2FB032328
:1065D000DB09DBB257338DF80F309DF80F301846CA
:1065E00004B070471F85EB51D34D621000B585B0E4
:1065F0000190009100238DF80F30009BB3F5C87F08
:1066000004D3009B49F64042934202D94FF0FF3336
:106610000EE000990198FFF781FF03468DF80F30D7
:106620009DF80F301A4616210198FFF76FFE0346BA
:10663000184605B05DF804FB08B50B48FFF724FDCC
:1066400003464FF00001184618F0E2FC0346002B09
:1066500002D04FF07E5301E04FF00003194602488C
:10666000FFF704FD00BF08BDF059FF3F034B1B6857
:106670000133024A136000BF704700BF505AFF3F0A
:10668000064B1A6813461B019B1A9B001A46044BC3
:106690001A60024B00221A6000BF7047505AFF3F39
:1066A000545AFF3F00B583B001900849084816F0DE
:1066B000EDFC019B44334FF07E5206491846FFF72C
:1066C000EFFC00BF03B05DF804FB00BF6D66100077
:1066D000F859FF3F8166100082B00190024B1B68A1
:1066E000184602B0704700BF545AFF3F00B583B050
:1066F0000190092200210198FFF708FEA72202213C
:106700000198FFF703FE0B2204210198FFF7FEFD1D
:10671000182207210198FFF7F9FD0F220B2101989C
:10672000FFF7F4FD302210210198FFF7EFFD14224E
:1067300011210198FFF7EAFD1E2212210198FFF7AF
:10674000E5FD282213210198FFF7E0FD32221421F4
:106750000198FFF7DBFD3C2215210198FFF7D6FDDC
:10676000462216210198FFF7D1FD542217210198E6
:10677000FFF7CCFD572218210198FFF7C7FD5A22D9
:1067800019210198FFF7C2FD5F221A210198FFF736
:10679000BDFD00BF03B05DF804FB00BF08B50122DA
:1067A0000121034802F062FA0346184608BD00BF03
:1067B0008C59FF3F08B5FFF7F1FF0346002B0CBFD4
:1067C00001230023DBB2002B05D0044B1B68012101
:1067D000184612F0D1F800BF08BD00BF8859FF3F2E
:1067E00000B58BB005901748FFF788FC6B464FF05B
:1067F000FF320121184612F0CFF807AB6A4607CAEC
:1068000083E80700089B03F00103002B16D04FF02C
:10681000FF310D4812F002F80C4B1B68032118469B
:1068200012F096F80A4B1B689847084B1B6800212A
:10683000184612F08DF8044812F000F8142012F0F7
:10684000BBF8D3E7B5671000A845FF3F8859FF3F65
:106850003445FF3F10B586B00390029100238DF8B8
:1068600017300398FFF798FC0398FFF765FC03982F
:10687000FFF7C2FC0398FFF777FC0398FFF736FF9A
:106880000DF117031A4600210398FFF7E7FC9DF866
:106890001730092B02D04FF0FF3329E0164B0722A7
:1068A0009A63039B1433154A15491846FFF7F8FB02
:1068B000029B002B1AD0502017F029FA03461C46E1
:1068C000002301934FF400630093002300220D493D
:1068D000204611F0CFFF0C4B1C600B4B1B68002BAC
:1068E00004D00A4A029B1360002301E04FF0FF33FB
:1068F000184606B010BD00BF00C00140CDCC4C3DD5
:1069000039661000E16710008859FF3F3445FF3FAA
:1069100082B001900091019B009A1A60019B0022B5
:106920005A6100BF02B0704700B585B00390029174
:10693000039B012B20D1029B4FF6FF7293421BD188
:106940004FF4003300933623042208210C4802F050
:1069500037F90C4A0C490A4817F0D2F980210B4844
:10696000FFF75CFB4FF48041094816F007FB054A2E
:106970000849074817F0C4F900BF05B05DF804FBEB
:106980008C59FF3F0040FF3F218F1000F059FF3F1F
:10699000F859FF3FF5CF110008B54FF6FF71012000
:1069A000FFF7C2FF08BD00BF00B585B0039002919C
:1069B00001920093039B029A1A60019A039B5A600A
:1069C000009A039B9A600A490A4802F01DF90023C5
:1069D00001220021074802F0EFF9012301220021E2
:1069E000044802F081F9039B184605B05DF804FBEA
:1069F00040420F00585AFF3F82B00190019B184659
:106A000002B0704710B586B00390029101920093D6
:106A1000029A019B1A44039B5B689A4202D8009B2E
:106A2000002B01D100235BE04FF0FF312E4811F025
:106A3000F5FE0023012200212C4802F055F9142014
:106A400014F0CCFB039B1B681B681B68039A12683D
:106A5000032110469847039B1B681B681B68039A19
:106A60001068029A120C11469847039B1B681B681A
:106A70001B68039A1068029A120AD2B2114698470C
:106A8000039B1B681B681B68039A12680299C9B2B2
:106A90001046984700230593059A019B9A4212D20B
:106AA000009A059BD418039B1B681B681B68039AFC
:106AB00012680021104698470346DBB22370059BFD
:106AC00001330593E8E7142014F088FB0123012229
:106AD0000021064802F008F9034811F0AFFE009BC0
:106AE000184606B010BD00BFA845FF3F585AFF3FEB
:106AF00000B589B00390029101920093029A019B24
:106B00001A44039B5B689A4201D901233AE00023AF
:106B10000793079A019B9A4233D2039B9968029A82
:106B2000079B1344039A9268B3FBF2F002FB00F256
:106B30009B1ACB1A0693069A079B1A44019B9A420A
:106B400003D9019A079BD31A0693029A079BD1187F
:106B50000698009A079B13440246039800F016F823
:106B600003468DF817309DF8173083F00103DBB230
:106B7000002B01D0002305E0069B079A13440793DE
:106B8000C7E70123184609B05DF804FB00B587B0DC
:106B90000390029101920093039800F0B9F84FF02E
:106BA000FF312F4811F03AFE0023012200212D4829
:106BB00002F09AF8142014F011FB039B1B681B6869
:106BC0001B68039A1268022110469847039B1B68B2
:106BD0001B681B68039A1068029A120C11469847AA
:106BE000039B1B681B681B68039A1068029A120AB1
:106BF000D2B211469847039B1B681B681B68039A17
:106C000012680299C9B21046984700230593059A65
:106C1000019B9A420FD2039B1B681B681B68039A57
:106C200010680099059A0A44127811469847059B06
:106C300001330593EBE7142014F0D0FA012301226D
:106C40000021084802F050F8054811F0F7FD0398BC
:106C500000F044F80123184607B05DF804FB00BFBC
:106C6000A845FF3F585AFF3F00B585B001904FF04F
:106C7000FF31184811F0D2FD0023012200211648EF
:106C800002F032F8142014F0A9FA019B1B681B686B
:106C90001B68019A1268052110469847019B1B68E2
:106CA0001B681B68019A12680021104698470390E0
:106CB000142014F093FA012301220021064802F067
:106CC00013F8044811F0BAFD039B184605B05DF8AF
:106CD00004FB00BFA845FF3F585AFF3F00B583B0F3
:106CE00001900198FFF7C0FF034603F00103002B5A
:106CF0000CBF01230023DBB2002B03D10A2014F0C8
:106D00006DFAEEE700BF00BF03B05DF804FB00BF03
:106D100000B583B001904FF0FF31124811F07EFDB5
:106D2000002301220021104801F0DEFF142014F09E
:106D300055FA019B1B681B681B68019A12680621A3
:106D400010469847142014F049FA0123012200212B
:106D5000054801F0C9FF034811F070FD00BF03B002
:106D60005DF804FBA845FF3F585AFF3F00B585B0CA
:106D700003900291039B012B12D1029B4FF6FF72ED
:106D800093420DD14FF0FF330093202304220821BA
:106D9000054801F015FF054A0549034816F0B0FF04
:106DA00000BF05B05DF804FB585AFF3F0040FF3FAD
:106DB000218F100008B54FF6FF710120FFF7D6FFB5
:106DC00008BD00BF10B5044600F014FA002384F893
:106DD000D830204610BD000010B5044688B006AA81
:106DE0000623092100F068FA9DF81D20C43404929E
:106DF0009DF81C209DF8183003929DF81B2014214B
:106E000002929DF81A20204601929DF819200092C6
:106E1000024A1AF073FE204608B010BDAD6B120096
:106E200030B50D46ADF52D7D0446684601F0A0F85D
:106E30002946684600F0D6FF431C3DD09DF8073038
:106E40009DF806201B0443EA02639DF809201343C2
:106E50009DF8082043EA0223A3609DF80F309DF8B7
:106E60000E201B0443EA02639DF8112013439DF892
:106E7000102043EA022323619DF813309DF812206D
:106E80001B0443EA02639DF8152013439DF8142068
:106E900043EA0223E3609DF80B309DF80A201B04AF
:106EA00043EA02639DF80D2013439DF80C2043EA4A
:106EB00002236361002400E0044608A801F038FCC6
:106EC00020460DF52D7D30BD037E10B504463BB93F
:106ED000204600F067FA80F00100C0B2404210BDC9
:106EE00043F69821FFF79CFF0028F1DA10BD37B573
:106EF000012301AA4FF48061054600F0DDF99DF8F9
:106F0000044001AAA3064CBF24F0200344F0200350
:106F10008DF804304FF480610123284600F098F981
:106F2000012301AA4FF48061284600F0C5F99DF8BD
:106F30000430A3420AD02846012301AA4FF48061FD
:106F40008DF8044000F084F9012000E0002003B037
:106F500030BD38B50123054603760C4681B1FFF7F5
:106F6000C6FF80B1631E6A1E053413F8011FA342D9
:106F700002F8011FF9D1284600F030FA002038BD90
:106F80004FF0FF3038BD6FF0010038BD07B5042366
:106F90000DEB030200F090F99DF804309DF80720F6
:106FA0008DF807308DF804209DF805309DF80620F7
:106FB0008DF806308DF80520019803B05DF804FBCC
:106FC0001FB50F210446FFF7E1FFC3B20293C0F3E0
:106FD000072388340193C0F307430093044A030E48
:106FE000142120461AF08AFD204604B010BD00BFCF
:106FF000CB6B12001FB505210446FFF7C7FFC3B2D4
:107000000293C0F307239C340193C0F3074300931A
:10701000044A030E142120461AF070FD204604B0E5
:1070200010BD00BFCB6B12001FB501210446FFF756
:10703000ADFFC3B20293C0F30723B0340193C0F392
:1070400007430093044A030E142120461AF056FD0C
:10705000204604B010BD00BFCB6B120070B50446D3
:1070600004260025204618F06FF82E2105432046FF
:107070001AF018FE28B1013E4FEA052500F101047F
:10708000F0D1284670BD000070B50446002500F11F
:107090002406072380F8215080F8203080F8235000
:1070A00080F822500A49304601F0AEFD2B4694F993
:1070B000202094F82110304601F07EFE2B4694F9F2
:1070C000222094F823103046BDE8704001F074BED1
:1070D00040420F0082B0002301930191019B23B134
:1070E00000BF019B013B0193F8E702B0704700002D
:1070F0002DE9F8431C4C05468846274600264FF0EC
:10710000120996422DD2C4F8089014212846FFF7A0
:10711000E1FF18F80630132B0AD110231121A360C8
:10712000A360A360A160A360A360A160A16001E06F
:107130000136A3600A212846FFF7CCFF1623A3607F
:1071400005212846FFF7C6FF3B68D906FCD4052178
:107150002846FFF7BFFF3B685B07D2D50220BDE89A
:10716000F8830020BDE8F8830070004013B590F864
:10717000202090F82210012303FA02F28B4023EA28
:10718000020338228DF8042002228DF805208DF8A4
:10719000063072B6054C1523A360032201A9FFF740
:1071A000A7FF1423A36062B602B010BD00700040B8
:1071B00013B590F8222090F82010012303FA02F270
:1071C0008B40134338228DF8042002228DF80520CD
:1071D0008DF8063072B6064C1523A360032201A970
:1071E000FFF786FF1423A36062B602B010BD00BF94
:1071F0000070004073B54FF0FF3604463823042278
:1072000008210096243001F0DBFC142016F07FFDED
:107210000546102300964022202116F079FA00221C
:107220002846E561082116F0ABFA0749E06916F037
:10723000BFFA2046FFF728FF2046FFF7B9FF204698
:10724000024B1C6002B070BD40420F00BC5AFF3FB1
:107250002DE9F8430446884616484FF0FF3117469B
:10726000994611F0DBFA002508EB05064D45B6B24C
:107270001BDA2046FFF77AFFE069F02103681B68FC
:107280009847E069310A03681B689847E069F1B2E2
:1072900003681B689847E069795D036801351B68DE
:1072A00098472046FFF784FFDEE70248BDE8F84331
:1072B00011F0C4BAA845FF3F2DE9F84304468846BB
:1072C00017484FF0FF311746994611F0A7FA0025ED
:1072D00008EB05064D45B6B21CDA2046FFF746FF1F
:1072E000E0690F2103681B689847E069310A036869
:1072F0001B689847E069F1B203681B689847E0692A
:10730000002103681B68984778552046FFF750FF17
:107310000135DDE70248BDE8F84311F08FBA00BF40
:10732000A845FF3F37B505460024210201F203417D
:10733000012301AA89B22846FFF7BEFF9DF8043059
:107340002BB10134042CF0D14FF0FF3000E0204687
:1073500003B030BD07B5090201F20341012301AAC0
:1073600089B2FFF7A9FF9DF80400A0F11703584266
:10737000584103B05DF804FB07B5130E8DF80430D7
:10738000C2F307238DF807208DF80630C2F30742B9
:1073900004238DF805200DEB0302FFF759FF03B01E
:1073A0005DF804FB10B5044682680F21FFF7E4FF87
:1073B000226920460121FFF7DFFF2046E268052110
:1073C000FFF7DAFF012010BD13B502AC04F8042D5D
:1073D00001232246FFF73CFF02B010BD70B5044602
:1073E00000F1240590F9222090F82310002328466C
:1073F00001F07AFC642013F0F1FE022013F0EEFE9F
:10740000012394F9222094F82310284601F06CFC03
:10741000642013F0E3FE962013F0D0FE2046802275
:107420000021FFF7D1FF22462046BDE87040062329
:107430000921FFF70DBF37B5090201F20144A4B2DB
:1074400021460546FFF7C0FF012301AA2146284631
:10745000FFF732FF9DF80430002BF5D103B030BDAB
:10746000002908B508DB090201F5806101F47F41BC
:10747000FFF7AAFF012008BD002008BD73B50E1E4E
:1074800005461CDB34021048A4B2FCF729FA04F2CA
:107490000341012301AA89B22846FFF70DFF9DF899
:1074A000043073B1314628461022FFF7C4FF04F2BE
:1074B000024189B2FF222846FFF786FF01E0002043
:1074C00000E0012002B070BDE46B120007B502EBD2
:1074D0000121022301AA89B2FFF7EEFE9DF80430D4
:1074E0009DF805208DF805308DF80420BDF80400C6
:1074F00003B05DF804FB2DE9F0430E1E85B0054690
:107500009046994639DB684616F0C2FA684616F08E
:1075100051FB684616F0D6FA40F22642314628461C
:10752000FFF7D4FF40F2264231462846FFF7CEFF50
:10753000074648B140F2264231462846FFF7C6FFCB
:1075400087420446EED100E00446A14507DA6846CA
:1075500016F0CEFA684616F02DFB20460FE0B8F183
:10756000FF3FD9D0684616F0FBFA8045D4DA68466A
:1075700016F0BEFA684616F01DFB4FF0FF3005B05E
:10758000BDE8F0832DE9FF410F1E064615469846DB
:107590002EDB684616F07CFA684616F00BFB684650
:1075A00016F090FA4FF4846239463046FFF78EFFAA
:1075B0004FF48462044639463046FFF787FF844221
:1075C000F0D1444507DD684616F092FA684616F099
:1075D000F1FA20460EE06B1CE4D0684616F0C0FAC3
:1075E0008542DFDA684616F083FA684616F0E2FA5A
:1075F0004FF0FF3004B0BDE8F08107B5130A8DF8F5
:1076000004308DF80520022301AAFFF721FE03B004
:107610005DF804FB2DE9F84FB1F1000A06469346E8
:107620001C4638DB40F22442FFF750FF0AF1080500
:10763000ED02ADB2C0F30A01294489B205F5006735
:107640000B19BB4280460EDD7F1A1FFA87F94B46A5
:107650005A463046FFF7FCFDC9EB04039BB20BEB27
:107660000702294601E05A46A3B23046FFF7F0FD73
:107670004FEA0A2108EB040201F22441304689B2A4
:1076800092B2FFF7BAFF304620225146FFF7D3FEF1
:107690002046BDE8F88F4FF0FF30BDE8F88F2DE9A8
:1076A000F84FB1F1000A064693463EDBB3F5806F12
:1076B000A8BF4FF480634FF485621C46FFF706FFB6
:1076C0000AF10C05ED02ADB2C0F30A01294489B2FA
:1076D00005F500670B19BB4280460EDD7F1A1FFAC5
:1076E00087F94B465A463046FFF7E6FDC9EB0403DF
:1076F0009BB20BEB0702294601E05A46A3B2304683
:10770000FFF7DAFD4FEA0A2108EB040201F5856173
:10771000304689B292B2FFF770FF304640225146A0
:10772000FFF789FE2046BDE8F88F4FF0FF30BDE837
:10773000F88F00002DE9F04FB1F1000885B0064642
:1077400017469A460E9D6ADB4FEA0824A4B204F558
:107750008061012201F47F41FFF736FE012241469C
:107760003046FFF768FE04F20C4B1FFA8BFB4FF01C
:107770000009384617F0E8FC2E210DF809003846BC
:107780001AF090FA30B109F10109B9F1040F00F1D2
:107790000107EED104236A4659463046FFF758FDEB
:1077A00004F5826189B21FFA8AF23046FFF725FF9D
:1077B0001AF06CF86FEA80426FEA924204F20441D8
:1077C00089B292B23046FFF718FF04224146304694
:1077D000FFF731FE684616F05BF9684616F0EAF9E5
:1077E000684616F06FF941463046FFF7B3FD044690
:1077F000684654B916F0B4F9A842F4DD684616F0AC
:1078000077F9684616F0D6F90AE016F071F968467D
:1078100016F0D0F941460448FCF762F800E0002475
:10782000204605B0BDE8F08FFD6B120070B508462C
:1078300090B00D461646FFF711FC0446A8B1C3B23E
:107840000293C0F307230193C0F307430093112170
:10785000030E0F4A05A81AF051F9294605A81AF097
:107860002FFA10B9346001240EE0002105A800F0C1
:10787000E1FC294605A800F02BFF044608B1069B51
:10788000336005A800F0F4FC204610B070BD00BFC6
:10789000CB6B1200014B1B6818467047BC5AFF3F68
:1078A00000B585B003900B460192ADF80A30BDF8E3
:1078B0000A100623019A0398FFF7FEFC00BF05B0EB
:1078C0005DF804FB10B588B00190019B0022C3F85D
:1078D000A8222B4A06AB10681860042206AB194692
:1078E000019800F01BFA0020FCF75AF9044619F041
:1078F000CDFF034623440793079B1B0EDAB2019B7F
:1079000083F83420079B1B0CDAB2019B83F83520E7
:10791000079B1B0ADAB2019B83F83620079BDAB279
:10792000019B83F83720019B3433042219460198C8
:1079300000F0F4F900221421019800F00BFA019BE9
:1079400006221946019800F0E9F90022CA2101989F
:1079500000F000FA0B4A02AB144620686168A26886
:1079600007C3A2891A800E2202AB1946019800F0C3
:10797000D5F9019BD3F8A832184608B010BD00BF56
:10798000186C12001C6C120010B588B00190019B9D
:107990000022C3F8A8222B4A07AB10681860042203
:1079A00007AB1946019800F0B9F9019B3433042262
:1079B0001946019800F0B2F900220C21019800F05C
:1079C000C9F9019B163304221946019800F0A6F963
:1079D00000220421019800F0BDF9019B06221946FE
:1079E000019800F09BF90022CA21019800F0B2F939
:1079F000154A03AB144620686168A26807C3227B5E
:107A00001A700D2203AB1946019800F087F9019B0B
:107A10009A1D04233221019800F0B8F9019B03F16B
:107A2000160204233621019800F0B0F90023002249
:107A3000FF21019800F0AAF9019BD3F8A83218465B
:107A400008B010BD186C12002C6C120000B589B083
:107A5000039002910192039B981D029B1033042214
:107A6000194618F064F9039B03F11600029B1433C6
:107A70000422194618F05BF94FF0FF330693029B7E
:107A8000F0330793079B1B78FF2B00F0B880019B16
:107A9000029A1A44079B9A4240F2B180079B5A1CF3
:107AA00007921B788DF817309DF81730002B00F0E7
:107AB000A480079B5A1C07921B7804939DF81730EB
:107AC000013B352B00F2948001A252F823F000BF55
:107AD000B17B1000F17B1000C17B1000F17B100026
