:020000040010EA
:1020000000D8FF3F39DC110075DC110077DC1100CE
:1020100079DC11007BDC11007DDC11000000000088
:102020000000000000000000000000005DAC110096
:1020300081DC110000000000C7AC1100FDAC1100F4
:10204000F1C711005DC9110087DC110085C21100C4
:1020500087DC110087DC110089B4110087DC1100D6
:1020600087DC110087DC110087DC110087DC1100A0
:1020700087DC110087DC110087DC110087DC110090
:1020800087DC110087DC110087DC110087DC110080
:1020900000D8FF3F39DC110075DC110077DC11003E
:1020A00079DC11007BDC11007DDC110000000000F8
:1020B0000000000000000000000000005DAC110006
:1020C00081DC110000000000C7AC1100FDAC110064
:1020D000F1C711005DC9110087DC110085C2110034
:1020E00087DC110087DC110089B4110087DC110046
:1020F00087DC110087DC110087DC110087DC110010
:1021000087DC110087DC110087DC110087DC1100FF
:1021100087DC110087DC110087DC110087DC1100EF
:10212000044B05481B1A062B02D9044B03B1184770
:10213000704700BF1342FF3F1042FF3F0000000006
:1021400005490648091A891001EBD171491002D0DE
:10215000034B03B1184770471042FF3F1042FF3F47
:102160000000000010B5064C237843B9FFF7D8FFF4
:10217000044B13B10448AFF300800123237010BD5A
:102180001042FF3F00000000D8BC120008B5084B09
:102190001BB108490848AFF300800848036813B929
:1021A000BDE80840CCE7064B002BF9D09847F7E78D
:1021B000000000001442FF3FD8BC12001042FF3F55
:1021C0000000000001F070B908B501F053F8034BAE
:1021D0000068C31A5842584108BD00BFAFBEADDE0B
:1021E00073B50646FFF7F0FF10B94FF0FF301DE062
:1021F00001F040F800F580740546204607F02AFA01
:102200000028F2D095F80031002BEED02146084886
:1022100001F08AFB02238DF80430009402AB06F132
:10222000140013E9060006F0B7FF002002B070BDED
:10223000785D120030B5ADF5017D054601F01AF864
:1022400001460E4801F070FB01F014F84FF40074E1
:102250002246014668461DF002FD696940A81FF04C
:10226000B5FC074B21466846009301F01FF8014674
:10227000044801F059FB0DF5017D30BD8F5D120062
:10228000AFBEADDE9B5D120073B50646FFF79CFF47
:1022900030B100F0EFFF054628B9114801F044FBCA
:1022A0004FF0FF301AE000F5A074204607F0D2F995
:1022B0000028F5D095F84031002BF1D0214609488F
:1022C00001F032FB02238DF80430009402AB06F1DA
:1022D0001C0013E9060006F05FFF002002B070BD8D
:1022E000AA5D1200BD5D120030B5ADF5017D054659
:1022F00000F0C0FF4FF400742246014668461DF00E
:10230000AEFCE96950A81FF061FC2146684600F068
:10231000CDFF0DF5017D30BD37B5002402A941F890
:10232000044D054601F0F8F8A04210DB09480A4BBD
:10233000019A0A491A604160094A02218160042118
:1023400082E818000560C1600261436100E0204638
:1023500003B030BD3042FF3F4842FF3F2C42FF3FB9
:102360004C42FF3F01F0E2B801F02AB901F042B956
:1023700010B4029C019B019410BC01F057B901F00C
:1023800047B910B4029C019B019410BC01F08AB9BA
:1023900001F0D2B901F0F8B970B50D46064608F063
:1023A000B7F80446F06908F09EF816490246204640
:1023B00008F0D6F828681BF0A1FF08F09DF8124934
:1023C0000246204608F0CCF868681BF0A9FF08F028
:1023D00093F80E490246204608F0C2F8A8681BF0A0
:1023E0008DFF08F089F80A490246204608F0B8F83F
:1023F000204608F055F80546204608F0F3F8284630
:1024000070BD00BFD05D1200DC5D1200E25D120005
:10241000E85D12007047704738B5064D002404F59A
:10242000B4702844183C1BF04FFC14F5C07FF6D163
:1024300038BD00BF5442FF3F10B504461BF02BFCD3
:10244000204610BD70B5044605460B4B44F8043BCE
:10245000204602F041FF05F1880002F03DFF4CB13B
:1024600005F58676A64205D0843E06F1140006F0F6
:10247000DBFCF7E7284670BDF85D120010B5044696
:10248000FFF7E0FF20461BF006FC204610BD0000D1
:1024900010B50446064B403003F1180240F8403CAA
:1024A0004C33026043601BF0C3F9204610BD00BFEF
:1024B000E0B41200A0F14000EAE7A0F14400E7E731
:1024C00010B50446054A0830206011461BF00DFC8B
:1024D0002268002363601370204610BD61791200EA
:1024E00010B504461BF0D7FB204610BD10B50446BE
:1024F000064B002140F8043B02F028FC012104F1C6
:10250000880002F023FC204610BD00BFF85D1200D9
:10251000842303FB0100043002F0DEBE842303FBAE
:10252000010010B51146043002F06EFD044630B1D2
:102530000146054801F0F8F94FF0FF3010BD03489F
:1025400001F0F2F9204610BD005E12004F5E12004D
:1025500070B5842404FB01040434054620460E466D
:1025600002F074FC014608B1114812E0114801F074
:10257000DBF9204602F0F6FF08B10F4800E00F48F3
:1025800001F0D2F90921204602F004FD014628B1EC
:102590000B4801F0C9F94FF0FF3070BD094801F058
:1025A000C3F931462846BDE870400322FFF7B6BFA5
:1025B000935E1200D85E1200125F1200585F120084
:1025C000785F1200D25F120070B50C4606461046C6
:1025D00015461CF0FBFA842101FB04640146201D12
:1025E00002F012FE044638B102462946054801F0C1
:1025F0009BF94FF0FF3070BD2946034801F094F974
:10260000204670BDA2601200E460120010B50446BE
:10261000FFF73EFF20461BF03EFB204610BDA0F119
:102620004000F3E7A0F14400F0E7000007B52D48B3
:10263000FFF746FF2C4A2D492A481BF027FB2C4B5D
:10264000002203F5C070194643F8042C43F8083CF7
:1026500001F8182B19615A611A7630338342F2D18E
:10266000214A244900201BF011FB2348FFF728FFD3
:102670001D4A1E4920481BF009FB2048FFF720FF98
:10268000194A1A491D481BF001FB1D48FFF718FFA6
:10269000154A16491A481BF0F9FA4FF0FF33009318
:1026A00040221023202117481AF0F8FF0E4A16493D
:1026B00014481BF0EBFA00230222012113481AF000
:1026C00037FF094A124911481BF0E0FA114816F089
:1026D00045F8054A10490F4803B05DF804EB1BF0BC
:1026E000D5BA00BFD443FF3F0040FF3FF5DC1100E7
:1026F0005C42FF3F192410000844FF3FEC43FF3FBA
:102700008C44FF3FA444FF3F172410002044FF3FA8
:10271000912410007844FF3FE587110070470000C6
:1027200038B5064D002404F5B4702844183C1BF05D
:10273000CBFA14F5C07FF6D138BD00BFB844FF3FD7
:1027400010B504461BF0A7FA204610BD10B504468C
:10275000054A0830206011461BF0C7FA22680023A2
:1027600063601370204610BD6179120010B50446F5
:10277000044B03601BF00EF920461BF027FA20469D
:1027800010BD00BF9CB5120010B504464430FFF7E1
:10279000EDFF04F11400FFF7E9FF204610BD10B56E
:1027A0000446FFF7E3FF20461BF075FA204610BDF4
:1027B000014B0360704700BF5061120010B500214B
:1027C000074803F0CBFF044628B1064801F0ACF8F7
:1027D0004FF0FF3402E0024803F0E8FE204610BD4F
:1027E0000447FF3F8B61120038B50D460A4C0121AA
:1027F000204603F0E7FD2946204603F07BFE2046F5
:1028000003F0C0FD204603F0EBFE0146034801F053
:102810008BF8002038BD00BF0447FF3FA3611200C2
:1028200008B5024803F0BEFD002008BD0447FF3F85
:1028300073B53C48FFF78AFF3B4A3C4939481BF0D7
:1028400025FA3B4B002203F5C070194643F8042CCF
:1028500043F8083C01F8182B19615A611A76303395
:1028600083424FF00005F0D12F4A324928461BF031
:102870000DFA3148FFF76AFF2B4A2C492E481BF00E
:1028800005FA2E48FFF762FF274A28492B481BF01C
:10289000FDF92B48FFF75AFF4FF0FF36224A234934
:1028A00027481BF0F3F900961023402220212548E9
:1028B0001AF0F4FE1C4A244922481BF0E7F92B4683
:1028C0000222012121481AF033FE174A20491F48ED
:1028D000204C1BF0DBF9204815F040FF124A1F493D
:1028E0001D481BF0D3F910234022202100962046DA
:1028F0001AF0D4FE1A4E04F114001BF033F904F15F
:1029000044006661E56225641BF02CF92046064A06
:1029100014496664E565256702B0BDE870401BF0A8
:10292000B5B900BF3846FF3F0040FF3FF5DC11005E
:10293000C044FF3F212710006846FF3F5046FF3F3D
:10294000EC46FF3F7847FF3F172410008046FF3FCB
:10295000912410000447FF3FD846FF3FE587110050
:102960009CB512008927100038B5064D002404F5E7
:10297000B4702844183C1BF0A7F914F5C07FF6D1B9
:1029800038BD00BF8C47FF3F10B50446054A0830EC
:10299000206011461BF0A9F92268002363601370C0
:1029A000204610BD6179120037B504460A4B4FF03E
:1029B000FF3540F8043B40220095102320211AF0F7
:1029C0006DFE00952A230422082104F1180006F068
:1029D0007BF8204603B030BD0867120010B5002315
:1029E000041D80F87C30204601F008F9014608B14A
:1029F00011480AE0114800F097FF1149114A20469A
:102A000001F092FA014628B10F4800F08DFF4FF017
:102A1000FF3010BD0D4800F087FF2046012101F076
:102A200089F9044610B101460948EEE7094800F06B
:102A30007BFF204610BD00BFAD611200E0611200B7
:102A4000000034420000C0400862120045621200DB
:102A500077621200C862120070B5051D0446284650
:102A60000E4601F001FE014608B110480BE0104887
:102A700000F05AFF94F87C306BB9284601F098FBBF
:102A8000014628B10B4800F04FFF4FF0FF3070BDFA
:102A9000094800F049FF94F87C30012E0CBF012258
:102AA0000222134384F87C30002070BDB864120009
:102AB000FE641200396512006E651200F8B5061D3D
:102AC000054630460F4601F03DFE044610B1014672
:102AD0000F4813E00F4800F027FF95F87C30012FD6
:102AE0000CBFFE22FD22134085F87C3073B93046BE
:102AF00001F092FB044630B10146074800F014FF94
:102B00004FF0FF30F8BD054800F00EFF2046F8BD3D
:102B100098651200DF6512001B66120051661200F4
:102B200010B50446074B01210360FFF7C7FF0221E0
:102B30002046FFF7C3FF04F1180006F075F92046A0
:102B400010BD00BF0867120010B50446FFF7E8FF8C
:102B500020461BF0A0F8204610BD000010B5043040
:102B6000144692B201F08CF92146024620B1054884
:102B700000F0DAFE002010BD034800F0D5FE4FF053
:102B8000FF3010BD7C661200C366120007B52D48E9
:102B9000FFF7FAFE2C4A2D492A481BF077F82C4BF8
:102BA000002203F5C070194643F8042C43F8083C92
:102BB00001F8182B19615A611A7630338342F2D129
:102BC000214A244900201BF061F82348FFF7DCFE6E
:102BD0001D4A1E4920481BF059F82048FFF7D4FE33
:102BE000194A1A491D481BF051F81D48FFF7CCFE41
:102BF000154A16491A481BF049F84FF0FF33009365
:102C000040221023202117481AF048FD0E4A164989
:102C100014481BF03BF800230222012113481AF04C
:102C200087FC094A124911481BF030F8114815F089
:102C300095FD054A10490F4803B05DF804EB1BF001
:102C400025B800BF0C49FF3F0040FF3FF5DC1100F5
:102C50009447FF3F692910009449FF3F2449FF3FF3
:102C6000C049FF3FD849FF3F172410003C49FF3FB0
:102C700091241000AC49FF3FE587110038B5064D9F
:102C8000002404F5B4702844183C1BF01DF814F51A
:102C9000C07FF6D138BD00BFEC49FF3F0000000007
:102CA00070B504460146204800F03EFE204607F07D
:102CB000C5FD1E49064607F0F6FB48B3D0E90645B8
:102CC00000220023204629461BF0E6FD18B11848D3
:102CD000FFF7A6FD17E010A3D3E9002320462946FD
:102CE0001BF0E4FDA0B90EA3D3E90023204629463A
:102CF0001BF0FAFD60B9294620461BF015FE01467F
:102D00000B48FFF771FD304607F06CFC002070BDEA
:102D10004FF0FF3070BD00BF000000000030B14038
:102D200000000000002CCA40106712001A67120051
:102D3000C84CFF3F70B504460146284800F0F4FD3A
:102D4000204607F07BFD2649064607F0ACFB10B98C
:102D50004FF0FF3070BDD0E906450022214B2046E0
:102D600029461BF0A3FD0028F2D100224FF080433A
:102D7000204629461BF0B8FD0028E9D12046294607
:102D80000022184B1BF088FD17490028304614BF5D
:102D90000124022407F087FB05460028D8D000F163
:102DA0001801D1E90001002200231BF09DFD2146FE
:102DB00060B10E48FFF750FED5E906011BF0B4FDE7
:102DC000214602460948FFF7C9FE02E00748FFF71F
:102DD00075FE304607F006FC002070BD106712003B
:102DE0001E6712000000F03F26671200444EFF3FAE
:102DF0002DE9F84304460146254800F095FD20469C
:102E000007F01CFD2349054607F04DFB804618B925
:102E10004FF0FF30BDE8F8831F49284607F043FB19
:102E20000028F5D0D0E9066700221C4B3046394611
:102E30001BF03CFD0028EBD100224FF080433046D0
:102E400039461BF051FD81460028E1D10022134B89
:102E5000304639464FF001041BF01EFD00B14C46D0
:102E6000E4B221460E48FFF773FBD8E906011BF0D8
:102E70005BFD214602460A48FFF7A6FB21460848AB
:102E8000FFF746FB284607F0ADFB0020BDE8F883BE
:102E900010671200296712001E6712000000F03F41
:102EA000A04BFF3F73B504460146144802F0BCFE38
:102EB0001349124802F004FF60601248A56802F04E
:102EC000EBFF85420646A0600F4B07D11A68511CE4
:102ED000092A196002DC4FF0FF300CE000251D606C
:102EE00060681BF01DFA2268CDE9000107483146F1
:102EF00000F01AFD284602B070BD00BF9C4BFF3F9A
:102F00006666F640BC4DFF3FC44CFF3F2F67120082
:102F100010B50446243005F087FF204610BD0000A0
:102F200010B50446054A0830206011461AF0DDFE4F
:102F30002268002363601370204610BD617912007F
:102F400030B54FF07E5087B018F0E8F8474800F0F1
:102F5000EBFC98238DF804304F238DF80530EE23D9
:102F60008DF8063000238DF80730A1238DF8083046
:102F700001A903233E488DF8093003F06EFF014696
:102F800060B93B4803F0ACFE01463A4800F0CCFC87
:102F9000374803F01DFF014610B14CE036484BE0C6
:102FA000334803F091FF0446314803F0A7FF05467C
:102FB0002F4803F0BDFF214603462A462F4800F064
:102FC000B3FC02212E4802F027FD0446002847D119
:102FD0002C4800F0A9FC4FF07E5018F09FF82A49C9
:102FE0002A4805F0E9FF2A48FFF7F8FC29492A4852
:102FF00005F0E2FF2948FFF7E1FB2949294805F0E0
:10300000DBFF204600F04EFD01460090264800F010
:103010008BFC05F053FF204600F044FD06AB43F85F
:10302000180D18461CF068F80146204800F07CFC9A
:1030300006F0DCF803E01E4800F076FC10E003A880
:10304000FFF730FF0028FADB03A806F023F906F0AB
:1030500041F903A9174806F073F906F0B7F901E042
:103060004FF0FF34204607B030BD00BF4B67120061
:10307000CC4CFF3F5A6712006F6712008B6712003B
:103080009C4BFF3FC3671200F12D1000E167120057
:10309000444EFF3F352D10009F611200C84CFF3F8A
:1030A000A12C1000E7671200ED671200FA6712000A
:1030B000A4671200A52E100007B53D48FFF730FFAA
:1030C0003C4A3D493A481AF0E1FD3C4B002203F5E9
:1030D000C070194643F8042C43F8083C01F8182B3B
:1030E00019615A611A7630338342F2D1314A344938
:1030F00000201AF0CBFD3348FFF712FF2D4A2E496E
:1031000030481AF0C3FD3048FFF70AFF294A2A4920
:103110002D481AF0BBFD2D48FFF702FF254A26492E
:103120002A481AF0B3FD4FF0FF33009340221023DA
:10313000202127481AF0B2FA1E4A264924481AF0DC
:10314000A5FD00230222012123481AF0F1F9194AB2
:10315000224921481AF09AFD214815F0FFFA154A34
:1031600020491F481AF092FD1F4803F0AFFD114A95
:103170001E491D481AF08AFD1D48FFF719FB0D4A2C
:103180001C491B481AF082FD1B48FFF7AFF9094A9A
:103190001A4919481AF07AFD1948FFF705FC054A43
:1031A0001849174803B05DF804EB1AF06FBD00BF73
:1031B0006C4BFF3F0040FF3FF5DC1100F449FF3F3F
:1031C0007D2C1000AC4CFF3F844BFF3FC04DFF3FB8
:1031D000304EFF3F17241000D84DFF3F91241000C0
:1031E000A84DFF3FE5871100CC4CFF3F112F100089
:1031F000C84CFF3F1D271000A04BFF3F4524100087
:10320000444EFF3F212B100038B5064D002404F535
:10321000B4702844183C1AF057FD14F5C07FF6D15D
:1032200038BD00BFC44EFF3F044B10B504460360D9
:10323000806808B11AF028FD204610BD0C68120005
:1032400010B50446FFF7F0FF20461AF024FD204693
:1032500010BD000010B50446054A08302060114634
:103260001AF043FD2268002363601370204610BDEE
:10327000617912001FB54FF480734FF48022094921
:1032800001A803F015FB084B01A85A689B68110AB6
:1032900003F03CFB044601A803F032FB204604B0D7
:1032A00010BD00BFF050FF3FE450FF3F7FB50E461A
:1032B000054630B3154C4FF480734FF48022144907
:1032C00001A803F0F5FA32462946A0681CF0C7FCB5
:1032D000A36801AA61680F4800F026FB6268A36832
:1032E000110A01A803F088FB0446014684F001049A
:1032F000094800F019FBE4B201A8644203F000FBA6
:1033000001E04FF0FF34204604B070BDE450FF3FB1
:10331000F050FF3F146812002968120013B53F48AF
:10332000FFF798FF3E4A3F493C481AF0AFFC3E4B3E
:10333000002203F5C070194643F8042C43F8083CFA
:1033400001F8182B19615A611A7630338342F2D191
:10335000334A364900201AF099FC3548FFF77AFFC6
:103360002F4A304932481AF091FC3248FFF772FF79
:103370002B4A2C492F481AF089FC2F48FFF76AFF87
:103380004FF0FF34264A27492B481AF07FFC00945F
:1033900010234022202129481AF080F9204A284988
:1033A00026481AF073FC00230222012125481AF056
:1033B000BFF81B4A244923481AF068FC234815F03B
:1033C000CDF9174A224921481AF060FC00941023D5
:1033D000402220211F481AF061F9114A18491D485E
:1033E0001AF054FC1C4C1D4B0022236008214FF4A2
:1033F0000073184863601AF089F9194915481AF0E2
:103400009DF960681AF05AFCA0602046044A1549EC
:1034100002B0BDE810401AF039BC00BF4450FF3F75
:103420000040FF3FF5DC1100CC4EFF3F0932100099
:10343000CC50FF3F5C50FF3F1851FF3F3051FF3FE2
:10344000172410007450FF3F912410000451FF3FD7
:10345000E5871100F050FF3FE450FF3F0C68120079
:1034600040420F002932100038B5064D002404F503
:10347000B4702844183C1AF027FC14F5C07FF6D12C
:1034800038BD00BF4451FF3F10B50446054A08301F
:10349000206011461AF029FC226800236360137033
:1034A000204610BD6179120070B5054690B01848ED
:1034B00003F016FC142201460DEB02001EF0D8FBAF
:1034C0006C1E6E1D14F8010F1FF066FEA6422070E0
:1034D000F8D10FAB03930EAB02930DAB01930AAC83
:1034E0000CAB009322460BAB0A4905A81EF0D8FA94
:1034F000062808D1002354F82320EA540133062B70
:10350000F9D1002001E04FF0FF3010B070BD00BFD6
:10351000CC4CFF3F3668120008B50A460146024807
:1035200004F008F908BD00BFCC4CFF3F02282DE98C
:10353000F8430D4612D1112A10D81F4B23FA02F27C
:1035400002F0010282F0010042B104461B4A26014A
:10355000B3581A4F33B10134082CF8D14FF0FF3073
:10356000BDE8F88307EB0608012DC8F80C300CD134
:1035700028201AF092FB814605F016F947F80690CC
:10358000C8F808502046BDE8F883022DE6D1102087
:103590001AF083FB814605F09FF947F80690C8F8BA
:1035A0000850484605F09EF91EF0E6F8C0F30E01FB
:1035B000484605F057FAE5E741000200F452FF3FA4
:1035C000082838B511D80A4B00011C581D1864B1E1
:1035D000204605F0DDF820461AF05DFB10220021A0
:1035E00028461CF062FB002038BD4FF0FF3038BD8C
:1035F000F452FF3F082805D8044B0001185808B1C1
:1036000005F019B94FF0FF30704700BFF452FF3F8B
:10361000082805D8044B0001185808B105F035B941
:103620004FF0FF30704700BFF452FF3F2DE9F041EB
:1036300008288CB00E461746984629D8174D040125
:103640002B592BB3D8F80420154912BA130E019345
:10365000C2F307430292009303A8C2F30723D2B236
:103660001EF0FAF907A804F0DBFFB8F8022052BAFE
:1036700003A907A804F0F2FF3B46324607A92859E0
:1036800005F0CCF9044607A804F0D6FF204601E077
:103690004FF0FF300CB0BDE8F08100BFF452FF3FA7
:1036A000486812002DE9F043082889B0054688468D
:1036B00091461E4634D81D4F04013B5983B3014641
:1036C0001B4800F031F903A804F0AAFF4B4642461C
:1036D00003A9385905F036F904460246294614482C
:1036E00000F022F9002C15DB03A804F0F5FF0DF122
:1036F0000B0301930DF10A03009302AA0DF10903D4
:103700000C491EF0CDF90298706003A804F0EAFF9E
:10371000708001E04FF0FF3403A804F08DFF01E05A
:103720004FF0FF34204609B0BDE8F083F452FF3F6C
:10373000546812004868120030B5082889B00D4658
:1037400019D80F4B00011C58ACB14A6804A812BA32
:10375000130E0193C2F30743039200930949C2F386
:103760000723D2B21EF078F96A8852BA04A920461B
:1037700005F027F801E04FF0FF3009B030BD00BF81
:10378000F452FF3F48681200082810B51DD840F6D3
:10379000FF74A14219D1A2F58052053A012A17D827
:1037A000029A082A17D1CBB15A684FF47A7492FB67
:1037B000F4F2196804FB0122002A11DD094B000113
:1037C0000021185804F0B8FF0AE04FF0FF3010BD98
:1037D0006FF0010010BD6FF0020010BD184610BD63
:1037E000002010BDF452FF3F07B53048FFF74CFEF4
:1037F0002F4A30492D481AF049FA2F4B002203F581
:10380000C070194643F8042C43F8083C01F8182B03
:1038100019615A611A7630338342F2D1244A27491A
:1038200000201AF033FA2648FFF72EFE204A2149DD
:1038300023481AF02BFA2348FFF726FE1C4A1D499D
:1038400020481AF023FA2048FFF71EFE184A1949AB
:103850001D481AF01BFA4FF0FF330093402210234B
:1038600020211A4819F01AFF114A194917481AF06D
:103870000DFA002302220121164819F059FE0C4AC4
:10388000154914481AF002FA144814F067FF084A60
:10389000134912481AF0FAF900231946114A9950AF
:1038A0001033802BFBD103B05DF804FBC452FF3F03
:1038B0000040FF3FF5DC11004C51FF3F6934100020
:1038C0007453FF3FDC52FF3FA053FF3F1054FF3FB4
:1038D00017241000B853FF3F912410008C53FF3F72
:1038E000E5871100F452FF3F38B5064D002404F57A
:1038F000B4702844183C1AF0E7F914F5C07FF6D1EB
:1039000038BD00BF2454FF3F10B50446054A0830B7
:10391000206011461AF0E9F92268002363601370F1
:10392000204610BD617912000FB4F7B5114E08ADF5
:1039300055F8047B104C4FF0FF31304614F034FF43
:1039400000233A46237075212B46204601951FF02F
:10395000C3FE0A4920461EF012F92146084819F014
:10396000FFFF304614F030FF03B0BDE8F04004B074
:10397000704700BFD455FF3F5856FF3F5A7B120097
:103980005057FF3F07B53748FFF7BEFF364A374964
:1039900034481AF07BF9364B002203F5C070194603
:1039A00043F8042C43F8083C01F8182B19615A61BC
:1039B0001A7630338342F2D12B4A2E4900201AF076
:1039C00065F92D48FFF7A0FF274A28492A481AF031
:1039D0005DF92A48FFF798FF234A244927481AF03F
:1039E00055F92748FFF790FF1F4A204924481AF04D
:1039F0004DF94FF0FF33009340221023202121483E
:103A000019F04CFE184A20491E481AF03FF90023CD
:103A1000022201211D4819F08BFD134A1C491B4845
:103A20001AF034F91B4814F099FE0F4A1A49194844
:103A30001AF02CF900234FF400724FF480711748EC
:103A400019F076FD084A124914481AF01FF9144873
:103A500014F084FE044A1049114803B05DF804EBE9
:103A60001AF014B9A455FF3F0040FF3FF5DC1100E8
:103A70002C54FF3FE9381000E855FF3FBC55FF3F8D
:103A8000E456FF3FFC56FF3F172410000056FF3F4F
:103A900091241000D056FF3FE58711001057FF3FDB
:103AA000D455FF3F38B5094B044618681BF08EF813
:103AB000054607481AF004F8014628461AF0D2FFD6
:103AC0001BF09EFA04B1206038BD00BF6857FF3F6D
:103AD0006C57FF3F30B5054689B00020FFF7E2FF85
:103AE00008AB43F8040D18461BF076FE04460B485D
:103AF00019F0FCFF23696269049021680133039186
:103B0000616802F26C720291A16828460191E16835
:103B1000009103491DF0A0FF09B030BD6C57FF3F75
:103B20006668120010B504460020FFF7BBFF206056
:103B3000024819F0B7FF6060002010BD6C57FF3FCE
:103B400010B5044601680548FFF7EEFE2268044BF5
:103B500004481A6019F0F4FF002010BD8A681200B2
:103B60006857FF3F6C57FF3F08B517F0EDFA00208C
:103B700008BD0000014819F051BF00BF6C57FF3F5E
:103B8000EFF3058303B100BE704700000848094AFF
:103B900008B5121A00211CF088F817F015F81BF070
:103BA000C3FE18F03BF819F079FC1BF0C1FA00BF16
:103BB0001042FF3F5C73FF3F022801DD19F004BC97
:103BC0000120704708B5FFF7DBFFBDE808401CF097
:103BD00019B808B5FFF7D4FFBDE808401DF006BED0
:103BE00008B5FFF7CDFFBDE808401CF013B808B5D5
:103BF00001201BF09DFA08B5FFF7F9FF00B585B06D
:103C00000190019800F08AFF019800F0E5FF01980B
:103C100001F06EF80DF10A031A461821019800F020
:103C20000FFE0390039B13F1020F02D16FF001030B
:103C30007AE00DF10A031A461721019800F000FE00
:103C40000390039B13F1020F02D16FF001036BE0AD
:103C5000019801F023F80390039B002B01D0039BF4
:103C600062E00221019800F019FC0390039B002BF5
:103C700001D0039B58E00221019800F04FFB039B09
:103C8000002B01D0039B4FE00021019800F086FB40
:103C90000390039B002B01D0039B45E0002101987A
:103CA00000F0BCFB0390039B002B01D0039B3BE087
:103CB0000321019800F072FC0390039B002B01D0BC
:103CC000039B31E00121019800F028FC0390039B45
:103CD000002B01D0039B27E01549019800F0D0FA92
:103CE0000390039B002B01D0039B1DE04FF00002CB
:103CF0000121019800F05CF80390039B002B01D098
:103D0000039B11E04FF000020221019800F050F8EF
:103D10000390039B002B01D0039B05E058210198E1
:103D200000F07CFC0390039B184605B05DF804FB93
:103D3000ECB1040000B585B001900B468DF803305E
:103D40000DF10A031A460821019800F065FD0346AB
:103D500013F1020F0CBF01230023DBB2002B02D0B2
:103D60006FF001031FE0BDF80A3023F003039BB29C
:103D7000ADF80A309DF803309AB2BDF80A3013430B
:103D80009BB2ADF80A30BDF80A301A4608210198F6
:103D900000F024FE0390039B13F1020F02D16FF099
:103DA000010300E00023184605B05DF804FB00BFE6
:103DB00000B58BB003900B4601928DF80B300023B9
:103DC000ADF826302C4B08934FF000030793089969
:103DD00001981BF00BF90346002B06D107990198B7
:103DE0001BF0E6F80346002B02D06FF002033FE021
:103DF000224901981AF03EFF03461F4918461AF05F
:103E0000EDFF034618461BF021F90346ADF81A30C2
:103E1000BDF81A30ADF826309DF80B30012B02D0DA
:103E2000022B0FD01DE0BDF826301A460921039859
:103E300000F0D4FD0590059B13F1020F14D16FF033
:103E4000010315E0BDF826301A460A21039800F058
:103E5000C5FD0590059B13F1020F07D16FF001031B
:103E600006E06FF0020303E000BF00E000BF0023A4
:103E700018460BB05DF804FB0000C84200C07F4448
:103E800000B587B001900B468DF803301346ADF8AE
:103E900000300023ADF8163040F2FF33ADF8143097
:103EA000BDF80020BDF814309A4202D96FF0020329
:103EB00033E0BDF80030ADF81230BDF81230ADF887
:103EC00016309DF80330012B02D0022B0FD01DE0DD
:103ED000BDF816301A460921019800F07FFD0390C5
:103EE000039B13F1020F14D16FF0010315E0BDF82D
:103EF00016301A460A21019800F070FD0390039BCA
:103F000013F1020F07D16FF0010306E06FF0020317
:103F100003E000BF00E000BF0023184607B05DF8D3
:103F200004FB00BF0000000000B589B003900291BF
:103F30000192019902981AF095FD03469649184698
:103F40001BF054F80346002B02D06FF0020306E189
:103F500002981AF0E5F984A3D3E900231AF0C4FC0F
:103F60000346002B02D08D4B029308E08C49029847
:103F70001BF01EF80346002B01D08A4B029389499F
:103F800002981BF00BF80346002B03D000238DF89A
:103F90001F3014E0824902981AF062FD03468249FC
:103FA00018461AF067FE0346804918461AF016FFB5
:103FB000034618461BF04AF803468DF81F300DF1F2
:103FC00016031A460321039800F026FC034613F15A
:103FD000020F0CBF01230023DBB2002B02D06FF0D5
:103FE0000103BCE0BDF8163023F07F039BB2ADF8AF
:103FF00016309DF81F309AB2BDF8163013439BB2AD
:10400000ADF81630BDF816301A460321039800F0BB
:10401000E5FC069001981AF083F955A3D3E9002333
:104020001AF062FC0346002B03D007238DF81E30E4
:1040300062E001981AF074F94FA3D3E900231AF053
:1040400053FC0346002B03D007238DF81E3053E0AA
:1040500001981AF065F94AA3D3E900231AF044FC49
:104060000346002B03D006238DF81E3044E0019850
:104070001AF056F944A3D3E900231AF035FC03469D
:10408000002B03D005238DF81E3035E001981AF07F
:1040900047F93FA3D3E900231AF026FC0346002B7F
:1040A00003D004238DF81E3026E04FF080410198A4
:1040B0001AF09CFF0346002B03D003238DF81E301B
:1040C0001AE04FF07F5101981AF090FF0346002B41
:1040D00003D002238DF81E300EE04FF07E51019880
:1040E0001AF084FF0346002B03D001238DF81E3005
:1040F00002E000238DF81E300DF116031A4602214E
:10410000039800F089FB034613F1020F0CBF012353
:104110000023DBB2002B02D06FF001031FE0BDF8DB
:10412000163023F007039BB2ADF816309DF81E3011
:104130009AB2BDF8163013439BB2ADF81630BDF8F5
:1041400016301A460221039800F048FC0690069BA0
:1041500013F1020F02D16FF0010300E000231846B3
:1041600009B05DF804FB00BF6666666666065040EF
:1041700033333333333317406666666666661340FF
:104180003333333333330F40333333333333074035
:1041900033333333333303400000884233338042B8
:1041A00000007041000030410000FE42666644425B
:1041B00000B585B001900DF10E031A460221019859
:1041C00000F02AFB034613F1020F0CBF012300236A
:1041D000DBB2002B02D06FF0010319E0BDF80E3006
:1041E00043F020039BB2ADF80E30BDF80E301A46F6
:1041F0000221019800F0F2FB0346002B0CBF0123C3
:104200000023DBB2002B01D0002301E06FF001039B
:10421000184605B05DF804FB00B585B001900DF1BE
:104220000E031A460221019800F0F6FA034613F134
:10423000020F0CBF01230023DBB2002B02D06FF072
:10424000010319E0BDF80E3023F020039BB2ADF856
:104250000E30BDF80E301A460221019800F0BEFB68
:104260000346002B0CBF01230023DBB2002B01D03F
:10427000002301E06FF00103184605B05DF804FB70
:1042800000B587B001900091234A009BB2FBF3F385
:104290000593059B072B02D9059B262B02D96FF0AE
:1042A000020335E00DF10E031A460121019800F0DA
:1042B000B3FA034613F1020F0CBF01230023DBB254
:1042C000002B02D06FF0010322E0BDF80E3023F086
:1042D000F8039BB2ADF80E30059B9BB2073B9BB237
:1042E000DB009AB2BDF80E3013439BB2ADF80E302E
:1042F000BDF80E301A460121019800F06FFB0490C2
:10430000049B13F1020F02D16FF0010300E00023C0
:10431000184607B05DF804FB00127A0000B585B0BE
:1043200001900B468DF803300DF10A031A46022165
:10433000019800F071FA034613F1020F0CBF01233C
:104340000023DBB2002B02D06FF0010322E0BDF8A6
:104350000A3023F018039BB2ADF80A309DF8033001
:10436000DB009AB2BDF80A309BB213439BB29BB2FA
:10437000ADF80A30BDF80A301A460221019800F063
:104380002DFB0390039B13F1020F02D16FF0010389
:1043900000E00023184605B05DF804FB00B585B0C9
:1043A00001900B468DF803300DF10A031A460221E5
:1043B000019800F031FA034613F1020F0CBF0123FC
:1043C0000023DBB2002B02D06FF0010322E0BDF826
:1043D0000A3023F4C0739BB2ADF80A309DF8033065
:1043E000DB009AB2BDF80A309BB213439BB29BB27A
:1043F000ADF80A30BDF80A301A460221019800F0E3
:10440000EDFA0390039B13F1020F02D16FF0010349
:1044100000E00023184605B05DF804FB00B585B048
:1044200001900B468DF803300DF10A031A46052161
:10443000019800F0F1F9034613F1020F0CBF0123BC
:104440000023DBB2002B02D06FF0010322E0BDF8A5
:104450000A3023F4C0739BB2ADF80A309DF80330E4
:104460001B029AB2BDF80A309BB213439BB29BB2B7
:10447000ADF80A30BDF80A301A460521019800F05F
:10448000ADFA0390039B13F1020F02D16FF0010309
:1044900000E00023184605B05DF804FB00B585B0C8
:1044A00001900B468DF803300DF10A031A460121E5
:1044B000019800F0B1F9034613F1020F0CBF01237C
:1044C0000023DBB2002B02D06FF0010322E0BDF825
:1044D0000A3023F006039BB2ADF80A309DF8033092
:1044E0005B009AB2BDF80A309BB213439BB29BB2F9
:1044F000ADF80A30BDF80A301A460121019800F0E3
:104500006DFA0390039B13F1020F02D16FF00103C8
:1045100000E00023184605B05DF804FB00B585B047
:1045200001900B468DF803300DF10A031A46012164
:10453000019800F071F9034613F1020F0CBF01233B
:104540000023DBB2002B02D06FF0010322E0BDF8A4
:104550000A3023F440739BB2ADF80A309DF8033063
:104560001B029AB2BDF80A309BB213439BB29BB2B6
:10457000ADF80A30BDF80A301A460121019800F062
:104580002DFA0390039B13F1020F02D16FF0010388
:1045900000E00023184605B05DF804FB00B585B0C7
:1045A00001900B468DF803300DF10A031A460321E2
:1045B000019800F031F9034613F1020F0CBF0123FB
:1045C0000023DBB2002B02D06FF0010322E0BDF824
:1045D0000A3023F4C0739BB2ADF80A309DF8033063
:1045E000DB019AB2BDF80A309BB213439BB29BB277
:1045F000ADF80A30BDF80A301A460321019800F0E0
:10460000EDF90390039B13F1020F02D16FF0010348
:1046100000E00023184605B05DF804FB00B585B046
:1046200001900B46ADF80230BDF80230B3F5007FC3
:1046300002D36FF0020313E0BDF80230ADF80E3084
:10464000BDF80E301A460D21019800F0C7F902900E
:10465000029B13F1020F02D16FF0010300E000236F
:10466000184605B05DF804FB00B585B001900B4617
:104670008DF803309DF80330012B02D0022B2AD095
:1046800053E00DF10A031A460621019800F0C4F820
:10469000034613F1020F0CBF01230023DBB2002BF2
:1046A00003D06FF00103039343E0BDF80A3043F0F9
:1046B00002039BB2ADF80A30BDF80A301A46062153
:1046C000019800F08BF90390039B13F1020F30D196
:1046D0006FF0010331E00DF10A031A46062101983B
:1046E00000F09AF8034613F1020F0CBF01230023D8
:1046F000DBB2002B03D06FF0010303931BE0BDF886
:104700000A3043F001039BB2ADF80A30BDF80A301D
:104710001A460621019800F061F90390039B13F1FA
:10472000020F08D16FF0010307E06FF0010303935C
:1047300002E000BF00E000BF0023184605B05DF8AE
:1047400004FB00BF00B585B001900B468DF8033027
:104750009DF80330012B02D0022B2AD056E00DF138
:104760000A031A460621019800F056F8034613F191
:10477000020F0CBF01230023DBB2002B03D06FF02C
:10478000010303933FE0BDF80A3023F002039BB21C
:10479000ADF80A30BDF80A301A460621019800F03B
:1047A0001DF90390039B13F1020F2CD16FF001034D
:1047B0002DE00DF10A031A460621019800F02CF8AD
:1047C000034613F1020F0CBF01230023DBB2002BC1
:1047D00003D06FF00103039317E0BDF80A3023F014
:1047E00001039BB2ADF80A30BDF80A301A46062123
:1047F000019800F0F3F80390039B13F1020F04D12A
:104800006FF0010303E000BF00E000BF0023184683
:1048100005B05DF804FB00BF00B587B003900B4600
:1048200001928DF80B309DF80B30019A19460398D0
:1048300000F02EF80590059B184607B05DF804FBC4
:1048400000B587B003900B4601928DF80B309DF8B0
:104850000B30019A1946039800F01AF80590059B51
:10486000184607B05DF804FB00B587B003900B460F
:1048700001928DF80B309DF80B30019A1946039880
:1048800000F006F80590059B184607B05DF804FB9C
:1048900000B587B003900B4601928DF80B300023D2
:1048A000ADF816300023ADF81430019B002B02D177
:1048B0006FF002038BE04FF0FF31474813F074FFB5
:1048C000039800F015FA039800F062F99DF80B3098
:1048D0009B029AB2BDF8163013439BB2ADF8163066
:1048E000BDF81620BDF814301343ADF81630BDF8EE
:1048F00016301946039800F087F903468DF81330F7
:104900009DF813305B029AB2BDF8163013439BB288
:10491000ADF81630039BBDF816201146184618F066
:1049200043FF0346ADF81030019BBDF810201A80FC
:10493000039800F051F9039800F02AF90023ADF82C
:1049400016300023ADF81430BDF8163043F4C043E0
:10495000ADF81630BDF81620BDF814301343ADF88D
:104960001630BDF816301946039800F04DF903468D
:104970008DF813309DF813305B029AB2BDF81630F3
:1049800013439BB2ADF81630039BBDF816201146B9
:10499000184618F009FF0346ADF81030039800F0F0
:1049A0001BF9039800F0B8F90B4813F00DFFBDF8A0
:1049B00010301BB2002B02DA6FF0010307E0019BFD
:1049C0001B88C3F309039AB2019B1A80002318467F
:1049D00007B05DF804FB00BF7844FF3F00B585B029
:1049E00001900B468DF803301346ADF800300023DC
:1049F000ADF80E304FF0FF31474813F0D5FE019867
:104A000000F076F9019800F0E7F8019800F0C0F89E
:104A1000BDF80E306FEA43436FEA5343ADF80E30F2
:104A20009DF80330DB029AB2BDF80E3013439BB2FF
:104A3000ADF80E30BDF80E20BDF800301343ADF8D0
:104A40000E30BDF80E301946019800F0DDF803462F
:104A50008DF80D309DF80D309B029AB2BDF80E30E6
:104A600013439BB2ADF80E30019BBDF80E201146EA
:104A7000184618F099FE0346ADF80A30019800F088
:104A8000ABF8019800F084F80023ADF80030002363
:104A9000ADF80E30BDF80E306FEA43436FEA534372
:104AA000ADF80E30BDF80E20BDF800301343ADF860
:104AB0000E30BDF80E301946019800F0A5F80346F7
:104AC0008DF80D309DF80D305B029AB2BDF80E30B6
:104AD00013439BB2ADF80E30019BBDF80E2011467A
:104AE000184618F061FE0346ADF80A30019800F050
:104AF00073F8019800F010F9074813F065FEBDF84F
:104B00000A301BB2002B02DA6FF0010300E0002331
:104B1000184605B05DF804FB7844FF3F00B583B04C
:104B20000190019B14331949184603F0F1FF019BD2
:104B300003F1140000230022012104F0C1F8019BBD
:104B400003F1140000230122012104F0B9F8019BB4
:104B500003F1140000230222012104F0B1F8019BAB
:104B600003F1140001230122012104F041F8019B0B
:104B700003F1140001230222012104F039F814206A
:104B800016F0F2FA00BF03B05DF804FB40420F00DC
:104B900000B583B00190019B03F1140001230022B2
:104BA000012104F025F8142016F0DEFA072016F093
:104BB000DBFA019B03F1140000230022012104F021
:104BC00017F8142016F0D0FA072016F0CDFA00BF1F
:104BD00003B05DF804FB00BF00B583B0019007206F
:104BE00016F0C2FA019B03F11400012300220121F7
:104BF00003F0FEFF142016F0B7FA072016F0B4FAFF
:104C000000BF03B05DF804FB86B001900B46ADF821
:104C1000023000238DF8153000230493BDF80230D4
:104C2000ADF8163000230493049B0F2BCCBF012357
:104C30000023DAB2BDF81630002B0CBF012300238D
:104C4000DBB21343DBB2002B14D1BDF81630DBB25C
:104C500003F00103DAB29DF815305340DBB28DF852
:104C60001530BDF816305B10ADF81630049B0133DB
:104C70000493D9E79DF81530002B0CBF01230023C6
:104C8000DBB28DF80F309DF80F30002B01D00123DF
:104C900000E00023184606B0704700BF00B585B09D
:104CA0000190002303930DF10A031A461A2101987B
:104CB000FFF7DAFD034613F1020F0CBF01230023B7
:104CC000DBB2002B02D06FF001030DE0BDF80A301B
:104CD000DBB29BB2ADF80A30BDF80A30582B02D0D7
:104CE0004FF0FF330393039B184605B05DF804FBB8
:104CF00000B583B00190019B00221021184618F0E6
:104D000005FD019B0349184618F018FD00BF03B0CC
:104D10005DF804FB400D030000B587B00190082347
:104D2000059300230493084B0393019B049A059970
:104D3000184618F0EBFC019B0399184618F0FEFC8E
:104D400000BF07B05DF804FB40420F0000B585B01E
:104D500003900B468DF80B3003984FF0FF33009310
:104D600010234022202118F099FC039B03F114002A
:104D70004FF40033009328230422082103F0A4FEFB
:104D8000039B002283F87820039B9DF80B2083F877
:104D90008320039B93F88330012B28D1039B0322AC
:104DA00083F87920039B012283F87A20039B042255
:104DB00083F87B20039B012283F87C20039B06223F
:104DC00083F87D20039B012283F87E20039B05222C
:104DD00083F87F20039B012283F88020039B062217
:104DE00083F88120039B002283F8822028E0039B24
:104DF000072283F87920039B002283F87A20039B03
:104E0000002283F87B20039B012283F87C20039BF4
:104E1000022283F87D20039B012283F87E20039BDE
:104E2000012283F87F20039B012283F88020039BCB
:104E3000062283F88120039B002283F8822000BF92
:104E4000039B184605B05DF804FB00BF00B587B0B2
:104E50000190019800F0D6FB019800F059FC019BED
:104E600014330321184603F0B7FF0590059A00217B
:104E7000019800F09FFC0021019800F067FC019B65
:104E800003F11400019B93F88210019B93F8813089
:104E9000DBB25AB2012303F0ABFE019800F084FBB1
:104EA0000221019800F0D0FA03468DF80F309DF8EA
:104EB0000F3043F04003DBB28DF80F309DF80F3018
:104EC0001A460221019800F0FDFA0490049B002B81
:104ED00002D06FF0010359E00221019800F0B4FA0A
:104EE00003468DF80F309DF80F3023F04003DBB2FE
:104EF0008DF80F309DF80F301A460221019800F00E
:104F0000E1FA0490049B002B02D06FF001033DE016
:104F10000DF10E030DF10F020521019800F004FAC6
:104F20000490049B002B02D06FF001032EE00DF1E2
:104F30000E030DF10F020621019800F0F5F904901F
:104F4000049B002B02D06FF001031FE0019800F0DA
:104F500009FB0321019800F077FA03468DF80F3022
:104F60009DF80F3063F07F03DBB28DF80F309DF8B2
:104F70000F301A460321019800F0A4FA0490049B14
:104F8000002B02D06FF0010300E00023184607B0A9
:104F90005DF804FB00B585B001900B468DF8033039
:104FA0001F238DF80F309DF803209DF80F309A4293
:104FB00002D96FF0020322E00121019800F044FAC7
:104FC00003468DF80E309DF80E3023F01F038DF848
:104FD0000E309DF80E209DF8033013438DF80E30EF
:104FE0009DF80E301A460121019800F06BFA0290EC
:104FF000029B002B02D06FF0010300E00023184653
:1050000005B05DF804FB00BF00B585B001900B460C
:105010008DF803309DF803300B2B6FD801A252F8A6
:1050200023F000BF55501000635010007150100065
:105030007F5010008D5010009B501000A9501000A0
:10504000B7501000C5501000D3501000E1501000B0
:10505000EF50100000238DF80F3000238DF80E3034
:1050600053E000238DF80F3001238DF80E304CE013
:1050700000238DF80F3002238DF80E3045E0002319
:105080008DF80F3003238DF80E303EE000238DF8AD
:105090000F3004238DF80E3037E000238DF80F30E9
:1050A00005238DF80E3030E000238DF80F300023FB
:1050B0008DF80E3029E000238DF80F3006238DF88F
:1050C0000E3022E001238DF80F3000238DF80E30D2
:1050D0001BE002238DF80F3000238DF80E3014E012
:1050E00003238DF80F3000238DF80E300DE00423DC
:1050F0008DF80F3000238DF80E3006E000238DF878
:105100000F3000238DF80E3000BF0921019800F008
:105110009BF903468DF80D309DF80D3023F0070301
:10512000DAB29DF80F301343DBB28DF80D309DF8E5
:105130000D301A460921019800F0C4F90290029B33
:10514000002B02D06FF0010327E00121019800F04D
:105150007BF903468DF80D309DF80D3003F01F03E9
:10516000DAB29DF80E305B01DBB21343DBB28DF88F
:105170000D309DF80D301A460121019800F0A2F97A
:105180000290029B002B02D06FF0010305E0019B0F
:105190009DF8032083F878200023184605B05DF8B9
:1051A00004FB00BF00B585B001900B468DF80330BD
:1051B0000221019800F048F903468DF80F309DF860
:1051C0000F3003F07F038DF80F309DF80330DB01C3
:1051D000DAB29DF80F301343DBB28DF80F309DF833
:1051E0000F301A460221019800F06CF90290029BE0
:1051F000002B02D06FF0010300E00023184605B039
:105200005DF804FB0000000010B588B0019000912B
:105210004FF00001009819F0DFFE0346002B01D08B
:10522000009B02E0009B83F000430693019800F08E
:1052300007FB0590059819F051F803460C461A46ED
:10524000234623A1D1E9000119F0E8F903460C46F1
:105250001846214619F0B0FB0346049304990698BA
:1052600019F0A6FE0346002B02D06FF002032AE0DD
:105270004FF00001009819F0B9FE0346002B05D04D
:1052800000210198FFF78EFF079008E001210198A7
:10529000FFF788FF0790009B83F000430093079B74
:1052A000002B01D0079B0EE00499009819F096FDA1
:1052B0000346184619F0CAFE034603930399019862
:1052C00000F084FB0023184608B010BDAFF3008047
:1052D000CDCCCCCCCCCCFC3F00B585B0019003212B
:1052E000019800F0B1F803468DF80F309DF80F30AB
:1052F00003F07F038DF80F309DF80F301A4603211D
:10530000019800F0DFF80346002B14BF01230023AF
:10531000DBB2002B02D06FF0010300E0002318463F
:1053200005B05DF804FB00BF00B589B003900192A1
:1053300000930B468DF80B3000238DF81E300023B0
:1053400006934FF0FF313F4813F02EFA039800F018
:105350002BF9039800F0DCF9039800F0A9F99DF807
:105360000B308DF81730039B9DF817201146184617
:1053700018F01AFA04238DF81730039B9DF81720B4
:105380001146184618F010FA0346DAB2019B1A705B
:10539000019B1B788DF81F30039B03F11400039BC6
:1053A00093F87C10039B93F87B30DBB25BB21A4618
:1053B00003F0E0FB0346002B0CBF01230023DBB20C
:1053C000002B03D0009B01221A7002E0009B0022F8
:1053D0001A70039800F09CF9039800F0F9F89DF812
:1053E0001F30002B15D0069B072B12D09DF81F20D5
:1053F0009DF81E305340DBB203F001038DF81E30E0
:105400009DF81F305B108DF81F30069B013306930B
:10541000E5E7019B1B78DB098DF816309DF8162017
:105420009DF81E309A4204D1064813F0CDF90023AE
:1054300004E0044813F0C8F96FF00103184609B0FE
:105440005DF804FB7844FF3F00B585B001900B4642
:105450008DF803304FF0FF31194813F0A5F901988A
:1054600000F0A2F8019800F053F9019800F020F93B
:105470009DF803308DF80F30019B9DF80F201146E9
:10548000184618F091F904238DF80F30019B9DF810
:105490000F201146184618F087F903468DF80E3094
:1054A000019800F035F9019800F092F8044813F0E3
:1054B0008BF99DF80E30184605B05DF804FB00BF6F
:1054C0007844FF3F00B585B001900B468DF803305E
:1054D00013468DF802304FF0FF31214813F064F984
:1054E000019800F061F8019800F012F9019800F0BD
:1054F000DFF89DF8033063F07F038DF80F30019BD8
:105500009DF80F201146184618F04EF9019B9DF8A2
:1055100002201146184618F047F9019800F0F8F8F3
:10552000019800F055F89DF8033019460198FFF7EF
:105530008BFF03468DF80E309DF80E209DF802304B
:105540009A4204D1064813F03FF9002304E00448CE
:1055500013F03AF96FF00103184605B05DF804FB4B
:105560007844FF3F00B585B00190019B03F1140022
:10557000019B93F87C10019B93F87B30DBB25BB20C
:105580001A4603F0F7FA0290029B012B03D1002385
:105590008DF80F3002E001238DF80F309DF80F30A9
:1055A000184605B05DF804FB00B583B00190019B7F
:1055B00000220821184618F0A9F8019B0349184653
:1055C00018F0BCF800BF03B05DF804FB20A1070091
:1055D00000B587B001900823059300230493084B7E
:1055E0000393019B049A0599184618F08FF8019BC4
:1055F0000399184618F0A2F800BF07B05DF804FB45
:1056000040420F0000B583B00190019B143327493D
:10561000184603F07DFA019B03F11400019B93F8F7
:105620007A10019B93F87930DBB25AB2002303F071
:1056300047FB019B03F11400019B93F88210019B2F
:1056400093F88130DBB25AB2002303F039FB019B9F
:1056500003F11400019B93F87C10019B93F87B30BD
:10566000DBB25AB2012303F02BFB019B03F11400C0
:10567000019B93F87E10019B93F87D30DBB25AB208
:10568000002303F01DFB019B03F11400019B93F821
:105690008010019B93F87F30DBB25AB2002303F0F5
:1056A0000FFB00BF03B05DF804FB00BF40420F00DA
:1056B00000B583B00190019B03F11400019B93F8A6
:1056C0007A10019B93F87930DBB25AB2012303F0D0
:1056D0008FFA142015F048FD062015F045FD019BBA
:1056E00003F11400019B93F87A10019B93F8793031
:1056F000DBB25AB2002303F07BFA142015F034FD1C
:10570000022015F031FD00BF03B05DF804FB00BFBF
:1057100000B583B00190012015F026FD019B03F137
:105720001400019B93F87A10019B93F87930DBB257
:105730005AB2012303F05CFA142015F015FD06207F
:1057400015F012FD00BF03B05DF804FB00B583B097
:1057500001900B468DF80330012015F005FD9DF8F2
:105760000330002B0ED1019B03F11400019B93F831
:105770008010019B93F87F30DBB25AB2002303F014
:1057800037FA0DE0019B03F11400019B93F88010A0
:10579000019B93F87F30DBB25AB2012303F028FA61
:1057A000142015F0E1FC012015F0DEFC00BF03B071
:1057B0005DF804FB00B587B003900B4601928DF8AD
:1057C0000B3005AB00210A461A800A469A709DF8F4
:1057D0000B30002B0CD0012B00D014E0039B93F86E
:1057E0007D301A4601239340019A134301930AE046
:1057F000039B93F87D301A4601239340DB43019AC3
:105800001340019300BF28238DF8143003238DF833
:105810001530019BDBB28DF81630084B15229A60CB
:1058200005AB03221946039800F062F8034B1422DB
:105830009A6000BF07B05DF804FB00BF0070004035
:1058400084B00190019B93F878300B2B32D801A2E1
:1058500052F823F0855810008B5810009158100012
:1058600097581000A9581000A9581000AF58100000
:10587000AF5810009D581000A3581000AF581000EA
:10588000AF5810002023039315E01023039312E078
:10589000082303930FE0042303930CE08023039376
:1058A00009E04023039306E00223039303E001236E
:1058B000039300E000BF039B184604B0704700BF8D
:1058C00084B00190009100230393009B0393039BFA
:1058D000002B14BF01230023DBB2002B04D000BF38
:1058E000039B013B0393F2E700BF04B0704700BF86
:1058F00000B587B003900291019200238DF8173014
:1059000000230493049A019B9A4256D22E4B1222F2
:105910009A6014210398FFF7D3FF029A049B134463
:105920001B78132B18D1284B10229A60264B10227B
:105930009A60254B10229A60234B11229A60224BC9
:1059400010229A60204B10229A601F4B11229A60FD
:105950001D4B11229A6007E01B49049B5A1C0492BC
:10596000029A13441B788B600A210398FFF7A8FF63
:10597000154B16229A6005210398FFF7A1FF124BE1
:105980001B6803F01003002B14BF01230023DBB2BC
:10599000002B00D0F3E705210398FFF791FF0A4B96
:1059A0001B6803F00403002B14BF01230023DBB2A8
:1059B000002BA7D002238DF817309DF8173018461A
:1059C00007B05DF804FB00BF0070004000B585B073
:1059D00001900091019B14330321184603F0FCF958
:1059E000029072B600230393039A009B9A420DD251
:1059F000029A01210198FFF7DDFE029A0021019829
:105A0000FFF7D8FE039B01330393EDE762B600BFB7
:105A100005B05DF804FB00BF00B587B003900B46EE
:105A20008DF80B304649474817F0F2F9012015F080
:105A30008BFB08238DF8143005AA00230093012363
:105A40007221404817F014FA05AA0023009302239C
:105A500072213C4817F032FA08238DF8143005AA59
:105A60000023009301237221364817F001FA034600
:105A7000002B14BF01230023DBB2002B02D06FF0F8
:105A8000010358E005AA00230093022372212D4848
:105A900017F014FA0346002B14BF01230023DBB2D6
:105AA000002B02D06FF0010345E09DF81430192B54
:105AB00003D19DF81530052B02D04FF0FF333AE0AB
:105AC00002238DF814309DF80B308DF8153005AA9F
:105AD00000230093022372211A4817F0C9F90346E4
:105AE000002B14BF01230023DBB2002B02D06FF088
:105AF000010320E00021039800F02EF8124815F071
:105B00000DFB0821039800F027F810490D4817F005
:105B10007FF99DF80B300E4A52F823300D49184694
:105B200019F0A8F80346184619F06AFA0346184611
:105B300015F00AFB0023184607B05DF804FB00BF10
:105B4000A08601007C57FF3F9A99193E40420F0002
:105B50000440FF3F0000404000B587B003900B4673
:105B60008DF80B3000238DF814309DF80B308DF834
:105B7000153072B629492A4817F04AF905AA0023B8
:105B8000009302237221264817F072F90346002B76
:105B900014BF01230023DBB2002B02D06FF00103FE
:105BA00037E000238DF8143005AA00230093012369
:105BB00072211B4817F05CF90346002B14BF012328
:105BC0000023DBB2002B02D06FF0010321E005AA15
:105BD0000023009301237221114817F06FF9034647
:105BE000002B14BF01230023DBB2002B02D06FF087
:105BF00001030EE00B490A4817F00AF962B69DF856
:105C000014309DF80B209A4201D1002301E04FF09F
:105C1000FF33184607B05DF804FB00BFA086010003
:105C20007C57FF3F40420F0000B587B003900291C0
:105C300006238DF8143072B61D491E4817F0E8F897
:105C400005AA00230093012372211A4817F010F9C6
:105C50000346002B14BF01230023DBB2002B02D02C
:105C60006FF0010320E005AA0023009302237221B4
:105C7000104817F023F90346002B14BF012300231B
:105C8000DBB2002B02D06FF001030DE00A49094896
:105C900017F0BEF862B69DF815301B029DF814206F
:105CA0001A43029B1A600023184607B05DF804FBF4
:105CB000A08601007C57FF3F40420F00000000001B
:105CC000F0B587B0019000910023049302238DF872
:105CD000173000238DF80F300DF10F029DF81730AB
:105CE0001946019800F054F80346002B0CBF01231D
:105CF0000023DBB2002B3DD004AB19460198FFF71F
:105D000093FF0346002B0CBF01230023DBB2002BC3
:105D10002ED0049B184618F0F1FA04460D469DF863
:105D20000F301A46184B53F82230184618F0F8FA7C
:105D300013A3D3E9002318F047FB02460B4616468F
:105D40001F46009818F0ECFA02460B4630463946DA
:105D500018F03AFB02460B462046294618F05EFC36
:105D600003460C461846214618F026FE034602E07C
:105D7000064B00E0054B184607B0F0BDAFF30080BE
:105D8000FCA9F1D24D62503F0440FF3F000080BFAC
:105D900000B589B005900B4603928DF813309DF83D
:105DA0001330092B37D89DF813308DF81C3072B69C
:105DB0001C491D4817F02CF807AA00230093012363
:105DC0007221194817F054F80346002B14BF012321
:105DD0000023DBB2002B03D062B66FF001031DE09D
:105DE000002300930123039A72210F4817F066F8ED
:105DF0000346002B14BF01230023DBB2002B03D08A
:105E000062B66FF0010309E00849074817F000F88F
:105E100062B6002302E062B66FF00203184609B0D2
:105E20005DF804FBA08601007C57FF3F40420F0055
:105E300000B585B003900291039B012B17D1029B03
:105E40004FF6FF72934212D1042208210A4816F03D
:105E5000C1FF4FF400330093222304220821074896
:105E600002F032FE064A0749044817F00FFF00BF50
:105E700005B05DF804FB00BF7C57FF3F8457FF3F30
:105E80000040FF3F298E100008B54FF6FF7101203A
:105E9000FFF7CEFF08BD00BF00B583B0019002221E
:105EA0000021094802F066FE0346012B0CBF0123C6
:105EB0000023DBB2002B01D0012300E000231846B1
:105EC00003B05DF804FB00BFE857FF3F00B585B0A5
:105ED00003900291039B012B12D1029B4FF6FF729C
:105EE00093420DD14FF40033009324230422082160
:105EF000054802F0E9FD054A0549034817F0C6FECA
:105F000000BF05B05DF804FBE857FF3F0040FF3FCE
:105F1000298E100008B54FF6FF710120FFF7D6FF5C
:105F200008BD00BF00B583B001900091019B0099AE
:105F3000184615F03BFF019B184603B05DF804FBC3
:105F400000B583B001900091019B0099184615F0AF
:105F500053FF00BF03B05DF804FB00BF00B583B082
:105F60000190019B184615F06FFF0346184603B0D9
:105F70005DF804FB00B583B0019000910099019891
:105F8000FFF7DEFF019B184603B05DF804FB00BF7E
:105F900000B583B001900198FFF7E0FF0346184673
:105FA00003B05DF804FB00BF00B585B0039002911B
:105FB00001920949019818F05DFE0346184619F050
:105FC00045F803461A460299039800F007F800BF07
:105FD00005B05DF804FB00BF0024744900B585B02E
:105FE000039002910192039B18330299184600F026
:105FF00013FC0199039817F0DFFC00BF05B05DF8B2
:1060000004FB00BF00B583B00190019A0121034851
:1060100002F08CFD00BF03B05DF804FB5058FF3F59
:1060200000B583B0019000220021044802F0A2FDD7
:106030000346184603B05DF804FB00BF5058FF3F0D
:1060400000B583B00190019B00221021184617F083
:106050005DFB019B0549184617F070FBC82015F041
:1060600083F800BF03B05DF804FB00BF90D00300CD
:1060700000B583B00190019B00220821184617F05B
:1060800045FB019B0549184617F058FBC82015F041
:106090006BF800BF03B05DF804FB00BF40420F0087
:1060A00000B583B001901449144802F031FD00237B
:1060B00007220021114802F003FE012307220021DC
:1060C0000E4802F095FD0023002200210B4802F04B
:1060D000F7FD002300220021084802F089FD01237A
:1060E00001220121054802F0EBFDC82015F03CF823
:1060F00000BF03B05DF804FB40420F005058FF3F63
:1061000000B583B00190642015F02EF8012307221A
:106110000021054802F06CFDC82015F025F800BFED
:1061200003B05DF804FB00BF5058FF3F00B583B0DB
:106130000190012307220021094802F059FD642043
:1061400015F012F8002307220021054802F050FD47
:10615000C82015F009F800BF03B05DF804FB00BFCC
:106160005058FF3F00B587B003900B4601928DF861
:106170000B300023ADF8163000238DF815304FF0AA
:10618000FF31234812F010FB0398FFF759FF0398E3
:10619000FFF7CCFF9DF80B301B029AB2BDF816300A
:1061A00013439BB2ADF816309DF815309AB2BDF886
:1061B00016301343ADF81630039BBDF81620114678
:1061C000184617F0F1FA0346ADF81230C82014F063
:1061D000CBFF0398FFF794FF0398FFF749FFBDF843
:1061E000123003F40053002B05D0094812F0ECFAEA
:1061F0004FF0FF3308E0BDF81230DAB2019B1A709D
:10620000034812F0E1FA0023184607B05DF804FBDA
:106210007844FF3F00B585B001900B468DF8033000
:1062200013468DF802300023ADF80E304FF0FF31E9
:10623000244812F0B9FA0198FFF702FF0198FFF71E
:1062400075FFBDF80E306FEA43436FEA5343ADF874
:106250000E309DF803301B029AB2BDF80E30134386
:106260009BB2ADF80E309DF802309AB2BDF80E30F8
:106270001343ADF80E30019BBDF80E2011461846B1
:1062800017F092FA0346ADF80C30C82014F06CFFFA
:106290000198FFF735FF0198FFF7EAFEBDF80C30D3
:1062A00003F40053002B05D0064812F08DFA4FF08E
:1062B000FF3303E0034812F087FA0023184605B0C5
:1062C0005DF804FB7844FF3F00B585B001900846B7
:1062D00011461A4603468DF803300B468DF80230FE
:1062E00013468DF8013000238DF80F309DF80130F2
:1062F000072B02D96FF0010340E00DF10F031A469E
:1063000000210198FFF72EFF0346002B0CBF01234D
:106310000023DBB2002B02D04FF0FF332EE09DF8BC
:10632000023083F00103DBB2002B10D09DF8013066
:10633000012202FA03F3DBB2DB43DAB29DF80F303D
:10634000DBB21340DBB2DBB28DF80F300DE09DF80D
:106350000130012202FA03F3DAB29DF80F30DBB20A
:106360001343DBB2DBB28DF80F309DF80F209DF8A0
:10637000033019460198FFF74DFF0346184605B054
:106380005DF804FB00B583B00190012300220021D9
:10639000034802F02DFC00BF03B05DF804FB00BF12
:1063A0005058FF3F00B583B0019000230022002128
:1063B000034802F01DFC00BF03B05DF804FB00BF02
:1063C0005058FF3F00B585B001900B468DF8033063
:1063D000002303930198FFF723FE0346002B0CBF15
:1063E00001230023DBB2002B08D09DF803200723F4
:1063F00000210198FFF768FF03460EE00198FFF7C0
:10640000D1FF9DF80320072300210198FFF75CFFCF
:1064100003900198FFF7B6FF039B184605B05DF89F
:1064200004FB00BF84B00190009100238DF80F3071
:10643000009BB3F5C87F10D3009B43F29032934288
:106440000BD8009BA3F5C873284AA2FB03239B0922
:10645000DBB204338DF80F3043E0009B43F29032FF
:10646000934211D9009B44F2C04293420CD8009B46
:10647000A3F54E53103B1D4AA2FB0323DB09DBB2FD
:1064800044338DF80F302CE0009B44F2C04293421D
:1064900011D9009B45F6C05293420CD8009BA3F53E
:1064A0008943403B114AA2FB03231B0ADBB24F3353
:1064B0008DF80F3015E0009B45F6C052934210D97D
:1064C000009B49F6404293420BD8009BA3F5BB4387
:1064D000403B074AA2FB0323DB09DBB257338DF8AD
:1064E0000F309DF80F30184604B070471F85EB51F0
:1064F000D34D621000B585B00190009100238DF856
:106500000F30009BB3F5C87F04D3009B49F640428F
:10651000934202D94FF0FF330EE000990198FFF744
:1065200081FF03468DF80F309DF80F301A46162173
:106530000198FFF76FFE0346184605B05DF804FBAF
:1065400008B50B48FFF724FD03464FF0000118463D
:1065500018F024FD0346002B02D04FF07E5301E0DB
:106560004FF0000319460248FFF704FD00BF08BDC5
:10657000B458FF3F034B1B680133024A136000BF4E
:10658000704700BF1459FF3F064B1A6813461B01A2
:106590009B1A9B001A46044B1A60024B00221A6099
:1065A00000BF70471459FF3F1859FF3F00B583B033
:1065B00001900849084816F02FFD019B44334FF025
:1065C0007E5206491846FFF7EFFC00BF03B05DF8A6
:1065D00004FB00BF75651000BC58FF3F89651000C3
:1065E00082B00190024B1B68184602B0704700BF92
:1065F0001859FF3F00B583B001900922002101988E
:10660000FFF708FEA72202210198FFF703FE0B22E5
:1066100004210198FFF7FEFD182207210198FFF7DA
:10662000F9FD0F220B210198FFF7F4FD3022102114
:106630000198FFF7EFFD142211210198FFF7EAFD01
:106640001E2212210198FFF7E5FD2822132101984F
:10665000FFF7E0FD322214210198FFF7DBFD3C2219
:1066600015210198FFF7D6FD462216210198FFF764
:10667000D1FD542217210198FFF7CCFD5722182194
:106680000198FFF7C7FD5A2219210198FFF7C2FDB3
:106690005F221A210198FFF7BDFD00BF03B05DF82E
:1066A00004FB00BF08B501220121034802F062FA91
:1066B0000346184608BD00BF5058FF3F08B5FFF716
:1066C000F1FF0346002B0CBF01230023DBB2002B9C
:1066D00005D0044B1B680121184612F013F900BFC6
:1066E00008BD00BF4C58FF3F00B58BB00590174860
:1066F000FFF788FC6B464FF0FF320121184612F07D
:1067000011F907AB6A4607CA83E80700089B03F044
:106710000103002B16D04FF0FF310D4812F044F862
:106720000C4B1B680321184612F0D8F80A4B1B6863
:106730009847084B1B680021184612F0CFF8044810
:1067400012F042F8142012F0FDF8D3E7BD661000F5
:106750007844FF3F4C58FF3F0444FF3F10B586B0DC
:106760000390029100238DF817300398FFF798FCEF
:106770000398FFF765FC0398FFF7C2FC0398FFF747
:1067800077FC0398FFF736FF0DF117031A46002137
:106790000398FFF7E7FC9DF81730092B02D04FF064
:1067A000FF3329E0164B07229A63039B1433154AE3
:1067B00015491846FFF7F8FB029B002B1AD0502012
:1067C00017F06BFA03461C46002301934FF4006355
:1067D0000093002300220D49204612F011F80C4BC3
:1067E0001C600B4B1B68002B04D00A4A029B1360F1
:1067F000002301E04FF0FF33184606B010BD00BF84
:1068000000C00140CDCC4C3D41651000E966100050
:106810004C58FF3F0444FF3F82B001900091019B20
:10682000009A1A60019B00225A6100BF02B07047B3
:1068300000B585B003900291039B012B20D1029BF0
:106840004FF6FF7293421BD14FF40033009336236F
:10685000042208210C4802F037F90C4A0C490A4876
:1068600017F014FA80210B48FFF75CFB4FF48041CE
:10687000094816F049FB054A0849074817F006FA87
:1068800000BF05B05DF804FB5058FF3F0040FF3FDC
:10689000298E1000B458FF3FBC58FF3F81CF110034
:1068A00008B54FF6FF710120FFF7C2FF08BD00BF1A
:1068B00000B585B00390029101920093039B029A68
:1068C0001A60019A039B5A60009A039B9A600A49D6
:1068D0000A4802F01DF9002301220021074802F0B6
:1068E000EFF9012301220021044802F081F9039B02
:1068F000184605B05DF804FB40420F001C59FF3FED
:1069000082B00190019B184602B0704710B586B066
:106910000390029101920093029A019B1A44039BF7
:106920005B689A4202D8009B002B01D100235BE0F8
:106930004FF0FF312E4811F037FF002301220021D4
:106940002C4802F055F9142014F00EFC039B1B6830
:106950001B681B68039A1268032110469847039B23
:106960001B681B681B68039A1068029A120C114678
:106970009847039B1B681B681B68039A1068029A60
:10698000120AD2B211469847039B1B681B681B680A
:10699000039A12680299C9B21046984700230593DA
:1069A000059A019B9A4212D2009A059BD418039B28
:1069B0001B681B681B68039A1268002110469847E1
:1069C0000346DBB22370059B01330593E8E71420EF
:1069D00014F0CAFB012301220021064802F008F945
:1069E000034811F0F1FE009B184606B010BD00BF31
:1069F0007844FF3F1C59FF3F00B589B003900291D6
:106A000001920093029A019B1A44039B5B689A428D
:106A100001D901233AE000230793079A019B9A4288
:106A200033D2039B9968029A079B1344039A926896
:106A3000B3FBF2F002FB00F29B1ACB1A0693069A04
:106A4000079B1A44019B9A4203D9019A079BD31AC8
:106A50000693029A079BD1180698009A079B134445
:106A60000246039800F016F803468DF817309DF89B
:106A7000173083F00103DBB2002B01D0002305E0C7
:106A8000069B079A13440793C7E70123184609B0EA
:106A90005DF804FB00B587B003900291019200936A
:106AA000039800F0B9F84FF0FF312F4811F07CFE49
:106AB0000023012200212D4802F09AF8142014F03E
:106AC00053FB039B1B681B681B68039A1268022117
:106AD00010469847039B1B681B681B68039A106845
:106AE000029A120C11469847039B1B681B681B688F
:106AF000039A1068029A120AD2B211469847039B71
:106B00001B681B681B68039A12680299C9B2104679
:106B1000984700230593059A019B9A420FD2039B45
:106B20001B681B681B68039A10680099059A0A4441
:106B3000127811469847059B01330593EBE7142023
:106B400014F012FB012301220021084802F050F842
:106B5000054811F039FE039800F044F80123184667
:106B600007B05DF804FB00BF7844FF3F1C59FF3FAE
:106B700000B585B001904FF0FF31184811F014FEB8
:106B8000002301220021164802F032F8142014F0EC
:106B9000EBFA019B1B681B681B68019A12680521B0
:106BA00010469847019B1B681B681B68019A126876
:106BB0000021104698470390142014F0D5FA0123C1
:106BC00001220021064802F013F8044811F0FCFDF0
:106BD000039B184605B05DF804FB00BF7844FF3FF7
:106BE0001C59FF3F00B583B001900198FFF7C0FF2B
:106BF000034603F00103002B0CBF01230023DBB28B
:106C0000002B03D10A2014F0AFFAEEE700BF00BF5B
:106C100003B05DF804FB00BF00B583B001904FF0F6
:106C2000FF31124811F0C0FD00230122002110485D
:106C300001F0DEFF142014F097FA019B1B681B681B
:106C40001B68019A1268062110469847142014F018
:106C50008BFA012301220021054801F0C9FF0348F6
:106C600011F0B2FD00BF03B05DF804FB7844FF3FB4
:106C70001C59FF3F00B585B003900291039B012B87
:106C800012D1029B4FF6FF7293420DD14FF0FF33AA
:106C90000093202304220821054801F015FF054A2E
:106CA0000549034816F0F2FF00BF05B05DF804FB8C
:106CB0001C59FF3F0040FF3F298E100008B54FF6DA
:106CC000FF710120FFF7D6FF08BD00BF10B50446D5
:106CD00000F014FA002384F8D830204610BD0000DC
:106CE00010B5044688B006AA0623092100F068FA08
:106CF0009DF81D20C43404929DF81C209DF8183086
:106D000003929DF81B20142102929DF81A20204620
:106D100001929DF819200092024A1AF06BFE20465B
:106D200008B010BD9668120030B50D46ADF52D7D4A
:106D30000446684601F0A0F82946684600F0D6FFF0
:106D4000431C3DD09DF807309DF806201B0443EA04
:106D500002639DF8092013439DF8082043EA0223AB
:106D6000A3609DF80F309DF80E201B0443EA0263D8
:106D70009DF8112013439DF8102043EA022323615C
:106D80009DF813309DF812201B0443EA02639DF81E
:106D9000152013439DF8142043EA0223E3609DF875
:106DA0000B309DF80A201B0443EA02639DF80D2076
:106DB00013439DF80C2043EA02236361002400E0A2
:106DC000044608A801F038FC20460DF52D7D30BDA5
:106DD000037E10B504463BB9204600F067FA80F008
:106DE0000100C0B2404210BD43F69821FFF79CFF5E
:106DF0000028F1DA10BD37B5012301AA4FF48061F4
:106E0000054600F0DDF99DF8044001AAA3064CBF39
:106E100024F0200344F020038DF804304FF4806107
:106E20000123284600F098F9012301AA4FF480615C
:106E3000284600F0C5F99DF80430A3420AD0284640
:106E4000012301AA4FF480618DF8044000F084F919
:106E5000012000E0002003B030BD38B50123054615
:106E600003760C4681B1FFF7C6FF80B1631E6A1E30
:106E7000053413F8011FA34202F8011FF9D1284677
:106E800000F030FA002038BD4FF0FF3038BD6FF011
:106E9000010038BD07B504230DEB030200F090F9A3
:106EA0009DF804309DF807208DF807308DF80420F8
:106EB0009DF805309DF806208DF806308DF80520E8
:106EC000019803B05DF804FB1FB50F210446FFF7DE
:106ED000E1FFC3B20293C0F3072388340193C0F3E8
:106EE00007430093044A030E142120461AF082FD42
:106EF000204604B010BD00BFB46812001FB50521C4
:106F00000446FFF7C7FFC3B20293C0F307239C34C4
:106F10000193C0F307430093044A030E1421204653
:106F20001AF068FD204604B010BD00BFB46812001E
:106F30001FB501210446FFF7ADFFC3B20293C0F3B2
:106F40000723B0340193C0F307430093044A030EB0
:106F5000142120461AF04EFD204604B010BD00BF9B
:106F6000B468120070B5044604260025204618F0C7
:106F7000B1F82E21054320461AF010FE28B1013E3B
:106F80004FEA052500F10104F0D1284670BD00004C
:106F900070B50446002500F12406072380F821502F
:106FA00080F8203080F8235080F822500A4930467B
:106FB00001F0AEFD2B4694F9202094F821103046C4
:106FC00001F07EFE2B4694F9222094F823103046DF
:106FD000BDE8704001F074BE40420F0082B0002353
:106FE00001930191019B23B100BF019B013B0193E0
:106FF000F8E702B0704700002DE9F8431C4C054645
:107000008846274600264FF0120996422DD2C4F832
:10701000089014212846FFF7E1FF18F80630132BDB
:107020000AD110231121A360A360A360A160A36013
:10703000A360A160A16001E00136A3600A21284697
:10704000FFF7CCFF1623A36005212846FFF7C6FFF4
:107050003B68D906FCD405212846FFF7BFFF3B68F3
:107060005B07D2D50220BDE8F8830020BDE8F88395
:107070000070004013B590F8202090F822100123F2
:1070800003FA02F28B4023EA020338228DF804202F
:1070900002228DF805208DF8063072B6054C1523B6
:1070A000A360032201A9FFF7A7FF1423A36062B620
:1070B00002B010BD0070004013B590F8222090F887
:1070C0002010012303FA02F28B40134338228DF87B
:1070D000042002228DF805208DF8063072B6064C89
:1070E0001523A360032201A9FFF786FF1423A360E1
:1070F00062B602B010BD00BF0070004073B54FF023
:10710000FF3604463823042208210096243001F07B
:10711000DBFC142016F0C1FD05461023009640222A
:10712000202116F0BBFA00222846E561082116F05E
:10713000EDFA0749E06916F001FB2046FFF728FF4A
:107140002046FFF7B9FF2046024B1C6002B070BD1D
:1071500040420F008059FF3F2DE9F843044688461E
:1071600016484FF0FF311746994611F01DFB0025D8
:1071700008EB05064D45B6B21BDA2046FFF77AFF4D
:10718000E069F02103681B689847E069310A0368E9
:107190001B689847E069F1B203681B689847E0698B
:1071A000795D036801351B6898472046FFF784FF27
:1071B000DEE70248BDE8F84311F006BB7844FF3F24
:1071C0002DE9F8430446884617484FF0FF3117462B
:1071D000994611F0E9FA002508EB05064D45B6B2CF
:1071E0001CDA2046FFF746FFE0690F2103681B68A1
:1071F0009847E069310A03681B689847E069F1B273
:1072000003681B689847E069002103681B6898477A
:1072100078552046FFF750FF0135DDE70248BDE80D
:10722000F84311F0D1BA00BF7844FF3F37B50546A7
:107230000024210201F20341012301AA89B2284658
:10724000FFF7BEFF9DF804302BB10134042CF0D1C0
:107250004FF0FF3000E0204603B030BD07B5090213
:1072600001F20341012301AA89B2FFF7A9FF9DF8AA
:107270000400A0F117035842584103B05DF804FB25
:1072800007B5130E8DF80430C2F307238DF80720DD
:107290008DF80630C2F3074204238DF805200DEB6C
:1072A0000302FFF759FF03B05DF804FB10B5044675
:1072B00082680F21FFF7E4FF226920460121FFF7D2
:1072C000DFFF2046E2680521FFF7DAFF012010BD4D
:1072D00013B502AC04F8042D01232246FFF73CFF4E
:1072E00002B010BD70B5044600F1240590F92220CB
:1072F00090F823100023284601F07AFC642013F054
:1073000033FF022013F030FF012394F9222094F878
:107310002310284601F06CFC642013F025FF962012
:1073200013F012FF204680220021FFF7D1FF2246F2
:107330002046BDE8704006230921FFF70DBF37B591
:10734000090201F20144A4B221460546FFF7C0FF3D
:10735000012301AA21462846FFF732FF9DF8043099
:10736000002BF5D103B030BD002908B508DB0902B8
:1073700001F5806101F47F41FFF7AAFF012008BDFC
:10738000002008BD73B50E1E05461CDB34021048F4
:10739000A4B2FCF7C9FA04F20341012301AA89B29D
:1073A0002846FFF70DFF9DF8043073B1314628469B
:1073B0001022FFF7C4FF04F2024189B2FF222846DF
:1073C000FFF786FF01E0002000E0012002B070BD61
:1073D000CD68120007B502EB0121022301AA89B290
:1073E000FFF7EEFE9DF804309DF805208DF805307E
:1073F0008DF80420BDF8040003B05DF804FB2DE90E
:10740000F0430E1E85B005469046994639DB684626
:1074100016F004FB684616F093FB684616F018FB5E
:1074200040F2264231462846FFF7D4FF40F226427A
:1074300031462846FFF7CEFF074648B140F22642C4
:1074400031462846FFF7C6FF87420446EED100E0EA
:107450000446A14507DA684616F010FB684616F0A8
:107460006FFB20460FE0B8F1FF3FD9D0684616F019
:107470003DFB8045D4DA684616F000FB684616F0FE
:107480005FFB4FF0FF3005B0BDE8F0832DE9FF4111
:107490000F1E0646154698462EDB684616F0BEFAC5
:1074A000684616F04DFB684616F0D2FA4FF4846237
:1074B00039463046FFF78EFF4FF484620446394662
:1074C0003046FFF787FF8442F0D1444507DD684628
:1074D00016F0D4FA684616F033FB20460EE06B1C1B
:1074E000E4D0684616F002FB8542DFDA684616F003
:1074F000C5FA684616F024FB4FF0FF3004B0BDE833
:10750000F08107B5130A8DF804308DF805200223A9
:1075100001AAFFF721FE03B05DF804FB2DE9F84F47
:10752000B1F1000A064693461C4638DB40F224427D
:10753000FFF750FF0AF10805ED02ADB2C0F30A01F2
:10754000294489B205F500670B19BB4280460EDD60
:107550007F1A1FFA87F94B465A463046FFF7FCFD63
:10756000C9EB04039BB20BEB0702294601E05A4624
:10757000A3B23046FFF7F0FD4FEA0A2108EB040200
:1075800001F22441304689B292B2FFF7BAFF304689
:1075900020225146FFF7D3FE2046BDE8F88F4FF07A
:1075A000FF30BDE8F88F2DE9F84FB1F1000A06462B
:1075B00093463EDBB3F5806FA8BF4FF480634FF472
:1075C00085621C46FFF706FF0AF10C05ED02ADB21D
:1075D000C0F30A01294489B205F500670B19BB42C3
:1075E00080460EDD7F1A1FFA87F94B465A46304611
:1075F000FFF7E6FDC9EB04039BB20BEB070229463C
:1076000001E05A46A3B23046FFF7DAFD4FEA0A21FD
:1076100008EB040201F58561304689B292B2FFF7AA
:1076200070FF304640225146FFF789FE2046BDE8F4
:10763000F88F4FF0FF30BDE8F88F00002DE9F04FD4
:10764000B1F1000885B0064617469A460E9D6ADBE2
:107650004FEA0824A4B204F58061012201F47F41BD
:10766000FFF736FE012241463046FFF768FE04F27E
:107670000C4B1FFA8BFB4FF00009384617F02AFD20
:107680002E210DF8090038461AF088FA30B109F1B8
:107690000109B9F1040F00F10107EED104236A4694
:1076A00059463046FFF758FD04F5826189B21FFA4A
:1076B0008AF23046FFF725FF1AF05EF86FEA804243
:1076C0006FEA924204F2044189B292B23046FFF767
:1076D00018FF042241463046FFF731FE684616F097
:1076E0009DF9684616F02CFA684616F0B1F9414645
:1076F0003046FFF7B3FD0446684654B916F0F6F974
:10770000A842F4DD684616F0B9F9684616F018FA92
:107710000AE016F0B3F9684616F012FA414604483A
:10772000FCF702F900E00024204605B0BDE8F08F28
:10773000E668120070B5084690B00D461646FFF791
:1077400011FC0446A8B1C3B20293C0F3072301930E
:10775000C0F3074300931121030E0F4A05A81AF046
:1077600049F9294605A81AF027FA10B9346001240E
:107770000EE0002105A800F0E1FC294605A800F074
:107780002BFF044608B1069B336005A800F0F4FC0B
:10779000204610B070BD00BFB4681200014B1B68DA
:1077A000184670478059FF3F00B585B003900B46DF
:1077B0000192ADF80A30BDF80A100623019A039829
:1077C000FFF7FEFC00BF05B05DF804FB10B588B004
:1077D0000190019B0022C3F8A8222B4A06AB106837
:1077E0001860042206AB1946019800F01BFA00202D
:1077F000FCF758F9044619F0BFFF034623440793EA
:10780000079B1B0EDAB2019B83F83420079B1B0CED
:10781000DAB2019B83F83520079B1B0ADAB2019B81
:1078200083F83620079BDAB2019B83F83720019B4F
:10783000343304221946019800F0F4F9002214218F
:10784000019800F00BFA019B06221946019800F0FE
:10785000E9F90022CA21019800F000FA0B4A02ABB4
:10786000144620686168A26807C3A2891A800E22A4
:1078700002AB1946019800F0D5F9019BD3F8A83264
:10788000184608B010BD00BF046912000869120054
:1078900010B588B00190019B0022C3F8A8222B4AA2
:1078A00007AB10681860042207AB1946019800F076
:1078B000B9F9019B343304221946019800F0B2F95A
:1078C00000220C21019800F0C9F9019B1633042213
:1078D0001946019800F0A6F900220421019800F051
:1078E000BDF9019B06221946019800F09BF9002280
:1078F000CA21019800F0B2F9154A03AB144620687A
:107900006168A26807C3227B1A700D2203AB194677
:10791000019800F087F9019B9A1D042332210198F8
:1079200000F0B8F9019B03F11602042336210198F7
:1079300000F0B0F900230022FF21019800F0AAF91D
:10794000019BD3F8A832184608B010BD0469120094
:107950001869120000B589B0039002910192039B4F
:10796000981D029B10330422194618F078F9039BE6
:1079700003F11600029B14330422194618F06FF924
:107980004FF0FF330693029BF0330793079B1B785E
:10799000FF2B00F0B880019B029A1A44079B9A4281
:1079A00040F2B180079B5A1C07921B788DF8173064
:1079B0009DF81730002B00F0A480079B5A1C0792FB
:1079C0001B7804939DF81730013B352B00F294800F
:1079D00001A252F823F000BFB97A1000F97A100022
:1079E000C97A1000F97A1000F97A1000D97A1000DB
:1079F000F97A1000F97A1000F97A1000F97A10007B
:107A0000F97A1000F97A1000F97A1000F97A10006A
:107A1000F97A1000F97A1000F97A1000F97A10005A
:107A2000F97A1000F97A1000F97A1000F97A10004A
:107A3000F97A1000F97A1000F97A1000F97A10003A
:107A4000F97A1000F97A1000F97A1000F97A10002A
:107A5000F97A1000F97A1000F97A1000F97A10001A
:107A6000F97A1000F97A1000F97A1000F97A10000A
:107A7000F97A1000F97A1000F97A1000F97A1000FA
:107A8000F97A1000F97A1000F97A1000F97A1000EA
:107A9000F97A1000F97A1000F97A1000F97A1000DA
:107AA000F97A1000F97A1000B17A1000E97A100022
:107AB000079B1B7806931FE0039B12330422079950
:107AC000184618F0CCF817E0039B0E3304220799F0
:107AD000184618F0C4F80FE0039B0A3304220799F4
