S00C0000626F6F742E7372656364
S21420000080A10220556820008963200051682000C6
S2142000105168200051682000516820000000000030
S21420002000000000000000000000000051682000D2
S2142000305168200000000000793620004937200053
S214200040516820005168200029502000CD50200003
S214200050B908200059082000000000000000000019
S214200060000000000000000000000000000000006B
S214200070000000000000000000000000000000005B
S214200080000000000000000000000000000000004B
S214200090000000000000000000000000000000003B
S214200400FFFFFFFFFFFDFFFFFFFFFFFFFFFFFFFFD9
S214200410FFFFFFFFFFFFFFFFFFFFFFFFFFFFFFFFC7
S214200420FFFFFFFFFFFFFFFFFFFFFFFFFFFFFFFFB7
S214200430FFFFFFFFFFFFFFFFFFFFFFFFFFFFFFFFA7
S214200440FFFFFFFFFFFFFFFFFFFFFFFFFFFFFFFF97
S214200450FFFFFFFFFFFFFFFFFFFFFFFFFFFFFFFF87
S214200460FFFFFFFFFFFFFFFFFFFFFFFFFFFFFFFF77
S214200470FFFFFFFFFFFFFFFFFFFFFFFFFFFFFFFF67
S214200480FFFFFFFFFFFFFFFFFFFFFFFFFFFFFFFF57
S214200490FFFFFFFFFFFFFFFFFFFFFFFFFFFFFFFF47
S2142004A0FFFFFFFFFFFFFFFFFFFFFFFFFFFFFFFF37
S2142004B0FFFFFFFFFFFFFFFFFFFFFFFFFFFFFFFF27
S2142004C0FFFFFFFFFFFFFFFFFFFFFFFFFFFFFFFF17
S2142004D0FFFFFFFFFFFFFFFFFFFFFFFFFFFFFFFF07
S2142004E0FFFFFFFFFFFFFFFFFFFFFFFFFFFFFFFFF7
S2142004F0FFFFFFFFFFFFFFFFFFFFFFFFFFFFFFFFE7
S21420050010B5054C237833B9044B13B10448AFF328
S21420051000800123237010BDA05900200000000099
S21420052088CA2000084B10B51BB108480849AFF30D
S21420053000800848036803B910BD074B002BFBD08A
S214200540BDE81040184700BF0000000088CA200001
S214200550A4590020D849002000000000B0FA80F0FE
S2142005604009704738B1022201230270827043701E
S214200570C370002070470120704700BF014B1B68E6
S214200580D8667047BC590020024B1B680022DA66EA
S214200590704700BFBC59002050B349B30B683BB32B
S2142005A070B51C68046088B024B3254E2368B34217
S2142005B01BD0002213464FF4803104F1780002F05D
S2142005C0D1FD204B204900932F20022200230190AA
S2142005D00291039204931D481D4A67215D2302F071
S2142005E06BFB48B1642008B070BD002008B070BD19
S2142005F0012070470120F6E706AA0092154A164DFC
S21420060006920346154916480795012201F03EFF3B
S21420061005460028E6D1134800F080FF1249012243
S2142006203423201D04F052F9342304F138000F49F6
S214200630012204F04BF90E4B28461C602660D2E7B8
S2142006404D435855CC400020C84000206040002034
S214200650004000207D05200089052000E170200054
S21420066018410020000009407CC0200090C02000D7
S214200670BC59002000286BD0002969D02DE9F04F06
S2142006801C46013383B005461746894602D003F040
S214200690F9FF04442E68F36E23B10DE003F058FEF4
S2142006A0F26E4AB903F0EEFF84424FF00100F5D80F
S2142006B0142003B0BDE8F08F356FADBB3D467DB34B
S2142006C006F5803808F1780807F03F0BBBF1000FDD
S2142006D04FF00003019341460CBF3A464FF4FA729E
S2142006E0F06E01AB06F04AFD82464146781BBAF111
S2142006F0000F17D1019C484422469CB1AC420BD92E
S214200700641B781B4844346775672A4602F068FEE7
S214200710504603B0BDE8F08F02F062FE2D1BD5D107
S2142007200020C6E76420C4E7716FBD4201F5803122
S21420073028BF3D4678312A463144484602F050FECE
S214200740326F736F521B2B44326773677D1BB6E77D
S2142007500120704750B349B3F0B51C46013383B02F
S214200760054617460E4602D003F08CFF04442D683B
S214200770E86E20B10CE003F0EBFDE86E40B903F024
S21420078081FF84424FF00100F5D8142003B0F0BD5D
S21420079002AC002344F8043D3A462346314606F090
S2142007A04BFD024620B1642003B0F0BD0120704707
S2142007B0E86E3146234606F03FFD0028F3D1E5E7F4
S2142007C080B138B50468134B2068984201D00820C1
S2142007D038BD154641B102290ED00139012911D95B
S2142007E0002038BD01207047201D114604F0DCF89B
S2142007F008B1142038BD38BD201D114604F0D4F8A9
S2142008000028F6D104F13800294604F0CDF8002857
S214200810EFD138BD4D43585598B138B504680D4BC7
S21420082022689A4201D0082038BD11F0FD0F0D46EF
S21420083002D1201D04F0E4F8691E012903D9002006
S21420084038BD0120704704F1380004F0D9F80020A4
S21420085038BD00BF4D43585510B5012003F06CF845
S214200860052005F08BFE124B1B685C698CB11B695A
S2142008701049D3F894208A4218BF002004D10FE0F4
S214200880D3F894208A420CD00130A04203F1AC0366
S214200890F6D100F079FF0120BDE8104003F04AB8F9
S2142008A0002001F019FB0120BDE8104003F042B8FB
S2142008B0845B00200000064010B5012003F03CF8C1
S2142008C0042005F05BFE124B1B685C698CB11B692B
S2142008D01049D3F894208A4218BF002004D10FE094
S2142008E0D3F894208A420CD00130A04203F1AC0306
S2142008F0F6D100F049FF0120BDE8104003F01AB8F9
S214200900002001F0E9FA0120BDE8104003F012B8FB
S214200910845B002000000940F8B50F4630210446CD
S214200920154601F09FF830214FF4C0620646204657
S21420093001F090F820463A2101F094F8012DBB688A
S2142009400FD001229A4020EA0202204692B23A2193
S21420095001F092F82046B2B23021BDE8F84001F00E
S2142009608BB89D4040EA0502EFE700BFF8B50F467A
S21420097030210446154601F075F830214FF4E06228
S2142009800646204601F066F82046382101F06AF82F
S214200990012DBB680FD001229A4020EA0202204691
S2142009A092B2382101F068F82046B2B23021BDE874
S2142009B0F84001F061B89D4040EA0502EFE700BF2D
S2142009C038B505460C4600F07DFA831E032B03D867
S2142009D0DFE803F0150E0E0D28462146002200F013
S2142009E015F8284621460022FFF796FFFF2038BD3F
S2142009F028462146002200F009F8002038BD284667
S214200A002146012200F002F8002038BDF8B50F4636
S214200A1030210446154601F025F830214FF4E062D7
S214200A200646204601F016F82046362101F01AF830
S214200A30012DBB680FD001229A4020EA02022046F0
S214200A4092B2362101F018F82046B2B23021BDE825
S214200A50F84001F011B89D4040EA0502EFE700BFDC
S214200A6038B5CB68012B0C46054629D9022B08D170
S214200A7000F064FB831E032B03D8DFE803F01A0E76
S214200A800E0D284621460022FFF7C0FF28462146A5
S214200A900022FFF741FFFF2038BD284621460022CE
S214200AA0FFF7B4FF284621460122FFF735FF002036
S214200AB038BD284621460122FFF7A8FF002038BD72
S214200AC000F002FCD6E700BFCB68012B70B50C46C1
S214200AD0054631D01ED3022B0BD0042400212846F5
S214200AE000F0C0FF2846042100F0BCFF013CF5D1F1
S214200AF070BD2021164600F0B5FFA26820F44260A3
S214200B0020F00F003243024392B22846202100F004
S214200B10B3FFE2E7282100F0A5FFD5F8EC3183B13A
S214200B2020F4E05020F00F00A268024392B228463C
S214200B30282100F0A1FFD0E70A892C2100F096FF9B
S214200B40CBE720F4406020F00F00EDE738B58B6847
S214200B500C463BB95C2100F085FFC30510D54FF449
S214200B60807038BD054664210F2200F073FF2846AA
S214200B706421228900F080FF28465C2100F072FF65
S214200B80A36AD86938BD00BF2DE9F0474D692C23EC
S214200B9025F0800503FB05035A68D40702D51420E8
S214200BA0BDE8F0870F46194642F0010241F8042FAF
S214200BB0B960DF62BA6902F00302022A044671D0E5
S214200BC0032A05D0002A00F09D80FF20BDE8F0878C
S214200BD000F5E8794FF006080426204664211FFA1F
S214200BE088F200F049FF2046682159F804AF00F04B
S214200BF039FFC0F3813050EA0A0300F096800136B0
S214200C00072E08F10108E8D14FF000082C2303FB3B
S214200C10054300229A625E624FF400422C2303FBB7
S214200C2005430833C3F80480D4F8EC11002900F0FB
S214200C308180002196B299602C2303FB0545083558
S214200C4069687B69383113F0800F4FF000024FEA55
S214200C504101204614BF4FF01009914600F006FFD0
S214200C60EFF3108872B66421AA88204600F004FFAD
S214200C707B6903F00F0242F08002324349EA020207
S214200C802046682100F0F8FE2046BA8B6C2100F042
S214200C90F3FE88F310882046394600F0A7F8002097
S214200CA0BDE8F087164600F5DE794FF001082046AD
S214200CB064211FFA88F200F0DFFE2046682159F8EA
S214200CC004AF00F0CFFEC0F3813050EA0A0313D100
S214200CD0C9F80050D4F8E4112C2303FB054301F196
S214200CE0080208207F2A59629862C4F8E4213FF659
S214200CF06CAF4FF4804291E7062E13D0013608F1F0
S214200D000108D4E703F120004260F9690833890915
S214200D1081605A6002229A6020465E21BA8B00F0DB
S214200D20ABFEB8E74FF00008D4E704EB8803C3F81F
S214200D30BC516BE7022196B299607DE7F8B58C68C6
S214200D4064212289054600F097FEA16800293ED03E
S214200D5001F16E0305EB83030026373149005E6000
S214200D603246284600F082FEA368012707FA03F2DF
S214200D7092B228464A2100F06DFEA36807FA03F2D5
S214200D8092B22846462100F065FEA36807FA03F2D1
S214200D9092B22846482100F05DFE2846214632467B
S214200DA0FFF734FE284621463246FFF7B5FD284693
S214200DB021463246FFF7DAFD284622214FF48042AC
S214200DC000F05AFE28466821228900F055FE0020B1
S214200DD02060F8BD896821B137314900032200F030
S214200DE039BE6021032200F035BE00BF38B58C68BE
S214200DF0A1680546F1B137314900032200F02AFEEA
S214200E00A1683731490028464FF4807200F02EFE44
S214200E10284622214FF4804200F02EFE284622212A
S214200E204FF4804200F016FE236823F0040323606C
S214200E30002038BD6021032200F00CFE28466021E9
S214200E404FF4807200F012FEEEE700BF10B58C68FB
S214200E50A16851B137314900022200F007FE23680D
S214200E6043F004032360002010BD6021022200F01E
S214200E70FDFDF4E72C2303FB01014868C3074CBFA4
S214200E80C0F38000FF20704738B50C460546FFF7B4
S214200E901BFEE368012B0FD009D3022B05D1284671
S214200EA0222100F0DFFD830400D4FF2038BD284631
S214200EB02A2100F0D7FDF6E728462E2100F0D2FDA5
S214200EC0F1E700BF2DE9F04FCB68012B83B08A46AF
S214200ED006467AD071D3022B0AD0304651460022DD
S214200EE0FFF7D2FFFF2812D1FF2003B0BDE8F08F16
S214200EF0D0F8E051514630460022FFF7C5FFFF28C4
S214200F004FF0220B05F114054FF02009ECD0DAF84B
S214200F102830C0F30B04DF69CAF818403046514623
S214200F20FFF758FFDAF810309C4256D8002C60D0D5
S214200F30B4FBF7F307FB1347002F234614BF4FF0ED
S214200F4004084FF00208D6F8EC21DAF81C401AB153
S214200F50DAF80C20012A4FD9774AD6F8E0119142C8
S214200F6000F08D805F084FEA470B304649464FF425
S214200F708062CBEB030A00F079FD37B123462A883E
S214200F8023F8022B013FFAD15C44304649464FF401
S214200F90406200F05FFD30464946002200F066FDC4
S214200FA0BAF1000F05D0A2442B7804F8013B544533
S214200FB0FAD1404603B0BDE8F08FD0F8E0514FF0AC
S214200FC02A0B18354FF0280987E7D0F8E0514FF064
S214200FD02E0B1C354FF02C097FE74FF00708002B0F
S214200FE0B1D1304659464FF4804200F03FFD40468E
S214200FF07BE74FF00408F4E7D6F8F421D6F8E0E1D2
S2142010009178D0784C4F4FF0020A6AF383016FF341
S21420101083006FF30411BE45D070917044D0D17810
S214201020012023FA00FB60F305111FFA8BF0D17024
S214201030D081A3EB4B03304649464FF480620093A1
S21420104000F014FDBBF1000F43D1304649464FF463
S214201050406200F0FFFC30464946002200F006FDC4
S214201060009B0BFB0A44002BA3D0009B23441F4667
S2142010702B7804F8013BBC42FAD140469AE79F08F9
S2142010804FEA870B304649464FF40062CBEB030A03
S21420109000F0ECFC002F3FF478AF23462A6843F894
S2142010A0042B013FFAD16FE723FA0AFBC1B26AF399
S2142010B005111FFA8BF0D170D081A3EB8B0330463D
S2142010C049464FF4006200934FF0040A00F0CEFC2D
S2142010D0B8E7D6F8EC319A681868136806F5FA71FE
S2142010E0984700287FF400AFD6F8EC3101909A6834
S2142010F01868536829461F4622460123B847D6F863
S214201100EC31DDF804C09A68186813696146984780
S214201110009F96F81C32002BFBD0D6F8EC310097B7
S2142011209A681868D369002286F81C2298470028F7
S2142011307FF4DAAE89E700BF000006402DE9F047CD
S2142011408B6882B00C4607463BB92022FFF79CFEF0
S214201150FF2807D102B0BDE8F0870022FFF794FEF3
S214201160FF28F7D038462146FFF7F0FCA36A266909
S214201170DB69B342864645D24FF00208D7F8E03105
S2142011804E4AC4F814E09342E46962D04FEA5E0502
S2142011904FEA450A384620214FF4806203F11409AD
S2142011A0CAEB0E0600F062FC3DB1234633F8022B54
S2142011B0A9F80020013DF9D15444D7F8E0513F4B1F
S2142011C09D4234D01435384620214FF4406200F03A
S2142011D041FC38462021002200F048FC2EB126444F
S2142011E014F8013B2B70B442FAD1B8F1020F05D0A7
S2142011F03846222100F036FC030410D5404602B0C3
S214201200BDE8F087AEB1B6FBF3F203FB1263002B0A
S214201210B64614BF4FF004084FF00308AEE7384632
S21420122022214FF4004200F027FC4046E7E7244DF9
S214201230C9E7D7F8E031214A66619342E4691FD0B6
S214201240384620214FF480624FF0040800F00EFC50
S214201250B3E74FEA9E054FEA8509384620214FF42A
S2142012600062C9EB0E0600F001FC002DA5D0154942
S214201270234653F8042B0A60013DFAD14C449CE7E0
S214201280384620214FF40062019300F0EFFBD7F898
S214201290E051019B9D4202D04FF0040892E7384669
S2142012A020214FF4406200F0D5FB384632462021FC
S2142012B000F0DCFB4FF004089AE700BF0000064071
S2142012C017000640140006402DE9F04F002285B096
S2142012D005468846FFF7D8FDFF2803D1FF2005B036
S2142012E0BDE8F08F28464146FFF730FCD8F8282086
S2142012F0D8F81030D2699A42044667D20227D8F826
S2142013000C30D5F8E011002B6BD101F118034FF00B
S214201310280A01934FF02A0BD5F8EC31C8F8144070
S214201320D8F81C80002B00F0B180D5F8F431DFF817
S21420133080E19A78D8784FF0020C02F0F3026CF332
S214201340830042F010027145D8709A7000F08680B3
S2142013500121DA78CDF808C024FA01F961F30512E4
S2142013601FFA89F1DA70D981284651464FF48062F7
S214201370A4EB490400F07AFBB9F1000F3CD14C4BAA
S214201380D5F8E0219A427DD0284651464FF4406257
S21420139000F060FB28465146002200F067FB029BC7
S2142013A009FB038834B1019E444418F8013B33708E
S2142013B0A045FAD1022F05D02846594600F052FB08
S2142013C003046DD5384605B0BDE8F08F8BB1B3FB6E
S2142013D0F2F102FB1132002A1C4614BF0427032711
S2142013E08DE701F11C034FF02C0A01934FF02E0BD2
S2142013F092E71C46042782E7D5F8EC319A681868ED
S214201400136805F5FA71984700287FF467AFD5F87A
S214201410EC3103909A6818685368019A1E46414634
S2142014200123B047D5F8EC31DDF80CC09A6818686F
S214201430136961469847019E95F81C32002BFBD015
S214201440D5F8EC3101969A681868D369002285F899
S2142014501C22984700287FF441AF90E724FA0CF925
S214201460C2B26CF305121FFA89F1DA70D9812846C8
S214201470042351464FF40062A4EB8904029300F043
S214201480F5FA79E7019B033301937DE7002C91D091
S214201490019E444418F8013B3370A045FAD189E7F1
S2142014A0284659464FF4004200F0E0FA384616E740
S2142014B00000064010B50C464C2100F0D3FA00F090
S2142014C07F002060002010BD036A0BB955207047AE
S2142014D0A1F10A03C06B0B2B1ED8DFE803F00E1D0C
S2142014E0111D14171A061D060B08002070471146FA
S2142014F0FFF7C0BC1146FFF7A9BC1146FFF7DABFBD
S214201500114600F035BC1146FFF73EBB1146FFF7EB
S21420151015BC1146FFF76ABC542070472DE9F041F0
S2142015200446012005F0D2F86C4B9C4205D06C4B4B
S2142015309C425AD03220BDE8F0816A4A136823F4D0
S21420154080531360012005F09DF8674A674B1668A4
S2142015504FF010082027C3F8008000201F6080234B
S214201560C6F8F43001464FF4087201F0AFFE054687
S214201570002840D05A4ADFF878E1C6F80C01082146
S21420158006F1D0039442C6F80041C0F8E04103605B
S214201590C6F808E1C0F8E4114FF000017ED0012221
S2142015A000F058FA28460021402200F053FA4B4B10
S2142015B09C4223D042462846002100F057FA28466F
S2142015C03A46002100F046FA28460021012200F083
S2142015D04DFA284630214FF41F4200F047FA0123E7
S2142015E0C6F8F0300020BDE8F0813E4A136823F4A8
S2142015F000631360A6E71220BDE8F081284602218A
S2142016000F2200F039FA28463E214FF4004200F01F
S21420161021FA284642463E2100F028FA28463A4635
S2142016203E2100F023FA06242846042100F01AFA68
S214201630013CF9D128463E21012200F00BFA41F266
S21420164070742846042100F00DFA013CF9D1284692
S2142016503E21022200F0FEF928464FF481714FF415
S214201660804200F003FA2846062100F0FBF9002805
S214201670F9D028460021802200F0F8F928460021DB
S214201680102200F0F3F928460021202200F0E2F98B
S21420169028460221052200F0EFF995E74FF48062F4
S2142016A000F0E4F92846002100F0DCF94305F9D5DE
S2142016B028460021012200F0CDF9284600214022AC
S2142016C000F0C8F928460021102200F0CFF928465D
S2142016D00021082200F0BEF976E700BF0000064091
S2142016E00000094000700440805B002000E100E01C
S2142016F0C9142000F8B5224D22492C68D4F864334A
S214201700D4F80C61012B07BFD4F82003D4F8243377
S214201710D4F82803D4F82C33C4F81803C4F81C33A0
S2142017200E2204F5067301F09DFD4FF47A72D4F86C
S2142017303032D4F88C12C4F8C82204F1D00704F54D
S2142017401472C4F89012C4F88822C4F86C32C4F814
S21420175094320E21D4F80831384698472B68D3F8AF
S2142017608433002008210222C4F85402C6F8E4116B
S214201770C4F8A4220BB1012098470020F8BD00BF72
S214201780805B0020304100202DE9F84FDFF8C08232
S214201790D8F80090D9F80C414021204600F062F994
S2142017A0430407460CD5D8F80030D3F884330BB161
S2142017B005209847204640214BF6FF7200F05CF942
S2142017C03E0400F1D580FD0400F1A980780576D48A
S2142017D0F90545D4BA0514D43B0501D4BDE8F88FE5
S2142017E0E16A07F00703303120464FF4006200F02C
S2142017F047F9204640214FF2FF72BDE8F84F00F02F
S2142018003BB94821204600F02DF938218146204654
S21420181000F028F904F5DE76824604F5F2780125F4
S2142018204FF02C0B04E0043646454FEA4505D3D04E
S21420183015EA090FF7D015EA0A0FF4D0EA43204636
S21420184092B2482100F018F933680BFB0343204678
S214201850D96A4FF400723031002300F011F9E2E724
S2142018604621204600F0FEF836218146204600F02C
S214201870F9F804F5DE76824604F5F27801254FF075
S2142018802C0B04E0043646454FEA4505A2D015EA5F
S214201890090FF7D015EA0A0FF4D0EA43204692B291
S2142018A0462100F0E9F833680BFB03432046D96A4B
S2142018B04FF480723031002300F0E2F8E2E74A214C
S2142018C0204600F0CFF83A218146204600F0CAF89C
S2142018D004F5DE76824604F5F27801254FF02C0BCF
S2142018E005E0043646454FEA45053FF471AF15EA54
S2142018F0090FF6D015EA0A0FF3D0EA43204692B233
S2142019004A2100F0B9F833680BFB03432046D96A16
S2142019104FF480623031002300F0B2F8E1E7204631
S21420192040214EF6FF7200F0A7F807F07003402B18
S2142019305FD057D8202B4ED0302B69D0102B7FF479
S21420194045AF2046082100F08DF800F00700022859
S21420195062D0032874D0012804D1D8F800300022A1
S214201960C3F86423FFF7C6FE0123C9F814322DE717
S2142019702046402147F6FF7200F07EF840212046A0
S21420198000F070F8402100F08006204600F06AF84B
S21420199005464021204605F0800500F063F8AE425B
S2142019A0ECD100F080008642E8D1284BD9F80021FF
S2142019B03EB19A4236D020460021102200F056F83A
S2142019C001E79A4235D020460021102200F042F846
S2142019D001F0D0F8F7E62046502100F043F8C9F889
S2142019E00401F3E6602B04D0702B02D0502B7FF43A
S2142019F0EDAED8F80030D3F884330BB104209847E6
S214201A00D9F81432002B3FF4E1AE01F0B3F8DDE64E
S214201A100323C4F8E831D9E6D8F800300122C3F809
S214201A2064239FE7204600214FF4807200F01EF8C2
S214201A30C1E7314620464FF4807200F00BF8C2E72B
S214201A40D8F800300222C3F864238BE70000064053
S214201A50805B0020D0F8E0010B5A23EA02020A52EB
S214201A60704700BFD0F8E031C85A7047D0F8E00180
S214201A700B5A1A430A527047D0F8E031CA527047C0
S214201A802DE9F0478F68B2F5006F0C46BD68064614
S214201A9027D0B2F5807F05D0B2F5806F02D0002027
S214201AA0BDE8F087636A022B00F0CB80E269002A4B
S214201AB040F0A080E76C012F00F0168122623046AD
S214201AC02946FEF729FFAB68002B40F021816A6883
S214201AD0012A00F04181A36A002BE0D020469847D7
S214201AE0DDE7062BDBD04FF6F7724021FFF7C4FF69
S214201AF054213046FFF7B6FF81B204F1500001F0C2
S214201B0039FD56213046FFF7ADFF81B204F1520071
S214201B1001F030FD58213046FFF7A4FF81B204F1D2
S214201B20540001F027FD5A213046FFF79BFF04F1B1
S214201B30560981B2484601F01DFD94F95030002721
S214201B404FF00108BB42A7612762C4F80480C0F2A8
S214201B509080B4F85630002B00F08B804FF0020AAD
S214201B604846C4F824A001F0FFFCE36860612361C6
S214201B70304660210322A761FFF76CFFAB6808FAA6
S214201B8003F292B230464A21FFF764FFAB6808FAA8
S214201B9003F292B230464621FFF75CFF3046222100
S214201BA04FF48042FFF768FF30462A214FF48042E8
S214201BB0FFF762FF304629463A46FEF785FF304655
S214201BC029464246FEF722FF304642466021FFF76E
S214201BD04DFFC5F804A094F95030002BC0F2958034
S214201BE0B4F85630002B00F09A8002236B60002059
S214201BF0BDE8F087FB692169E961934228BF134657
S214201C006B61294630469846FEF72AFF2F692169E0
S214201C10E369A269C8EB07074144C8EB03034244C3
S214201C20FF282F612161E361A2613FF438AFA968E4
S214201C30002953D03731490030460122FFF716FFDE
S214201C402DE76369FA692B619342236988BF2A616D
S214201C50EB6130462946FEF7B3FE70B1AB68002B29
S214201C603FF41DAF2046232340F82C3B01F07AFC9E
S214201C7015E7204600F080FDADE7A969E269A36973
S214201C802069521AE26162690B440844934220613B
S214201C90A36102D0FB698B4253D0002222623046D9
S214201CA02946FEF7B3FEAB6893BB6B68022B7FF426
S214201CB0F6AE204600F060FDA36A03226A600BB1F0
S214201CC02046984700220323E26162616362304621
S214201CD060216B600522FFF7C9FEE0E630466021F2
S214201CE00122FFF7C3FEDAE62A6130462946FEF7D0
S214201CF0B7FEFF2806D0A968E1B930463A466021EB
S214201D00FFF7B4FE0023E364C9E601236B60C6E652
S214201D102046022340F82C3B01F024FCBFE6032299
S214201D206262E361636130466A6060210522FFF7E4
S214201D309DFEB4E63731490030463A46FFF796FE18
S214201D40E0E7AB68002BC9D003F1370149003046E5
S214201D500122FFF78BFEA2E603226262E361636143
S214201D6030466A6060210522FFF780FEB3E600BF9A
S214201D702DE9F0478F68D7F808800D46D8F8081068
S214201D800446002940D160210322FFF763FED8F8DD
S214201D900830012606FA03F292B220464A21FFF7BF
S214201DA059FED8F8083006FA03F292B220464621A9
S214201DB0FFF750FE6B6A032B3ED02046414600229A
S214201DC0FEF782FE204622214FF48042FFF754FE83
S214201DD020462A214FF48042FFF74EFE41462046F9
S214201DE03246FEF713FED8F80810002961D03731A6
S214201DF0490020463246FFF739FED8F80830002B37
S214201E0060D10020BDE8F08737314900FFF72AFE71
S214201E10420408D5D8F80810373149002046FFF785
S214201E2021FE4304F6D4D8F808103731490020465E
S214201E300322FFF70FFEAAE7EB68D5F81490D7F831
S214201E401CA0C8F81090C8F81C3020464146202216
S214201E50FEF73AFE204622214FF48042FFF70CFE82
S214201E6020462A214FF48042FFF706FEEB68FF69E2
S214201E70C8F81C3020464146FEF7F2FDFF28BCD0AD
S214201E80D14528BFD146D8F810302869AA69D8F895
S214201E9008104F4528BF4F46C7EB030EEB69C8F81E
S214201EA010E038443A44DF1B2861AA61EF6100291C
S214201EB09DD1204632466021FFF7D8FDD8F808305D
S214201EC0002B9ED005F12C004FF0FF3101F048FB8F
S214201ED000B9286ABDE8F0872DE9F047D04E336870
S214201EE01B69AC2404FB0034636B53B9D4F8A850A8
S214201EF0226BD5F8C430012A03F10103C5F8C4309B
S214201F0001D0BDE8F0873021284600F091F9322133
S214201F108046284600F08CF940210746284600F0E7
S214201F2087F900EA0800C5F8C8004221284600F0D4
S214201F307FF9D5F8C8303840C5F8CC00980424D4AA
S214201F40590500F12581DA0500F1F5809B0500F1A1
S214201F50C780D5F8CC30DF0400F1B480180500F136
S214201F608480590454D4DA0639D49B0620D42846D3
S214201F70422100F05DF92846422100F059F9284612
S214201F804221BDE8F04700F053B9284640214FF4DF
S214201F90005200F047F9D4F88C3030680133C4F88A
S214201FA08C3000F51B7001F0DDFAD5F8C830C7E795
S214201FB0284642214FF6DF7200F044F9D5F8D820A3
S214201FC0D4F88C30306842F020020133C5F8D8208F
S214201FD000F51B70C4F88C3001F0C4FAC7E7284619
S214201FE042214FF6EF7200F02DF9D5F8D820D4F81C
S214201FF08C303068013342F04002C5F8D82000F516
S2142020001B70C4F88C3001F0ADFAD5F8CC30ACE7B4
S214202010284642214FF4804200F004F9D5F8D070CB
S21420202007BB2B69012B1DD0284632214FF4804256
S21420203000F0F8F8284632214FF4805200F0FCF8E1
S214202040636C01210B4463642846C5F8D0103A46D9
S2142020505E2100F0F1F830684FF0FF33E430AB61DA
S21420206001F080FAD5F8CC307DE7284642214FF49F
S214202070006200F0D7F8D5F8D07007BB2B69012B8B
S2142020801DD0284632214FF4006200F0CBF82846B7
S21420209032214FF4805200F0CFF8636C01210B44BC
S2142020A063642846C5F8D0103A465E2100F0C4F88E
S2142020B030684FF0FF33E430AB6101F053FAD5F8C7
S2142020C0CC304EE7284642214FF4805200F0AAF842
S2142020D0D5F8D030012B00F08880D5F8CC303DE7FD
S2142020E02846482100F0A4F805F1D807824605F5D1
S2142020F080794FF0010818EA0A0F1FFA88F228465E
S2142021004FEA48084FF0480107D0BB6A1BB13B682E
S21420211043F002033B6000F085F804374F45EAD1D0
S214202120D4F88C3030680133C4F88C3000F51B703E
S21420213001F018FA0DE72846462100F079F805F157
S214202140D807824605F580794FF0010818EA0A0F6D
S2142021501FFA88F228464FEA48084FF0460107D073
S214202160BB6A1BB13B6843F001033B6000F05AF8A2
S21420217004374F45EAD1D4F88C3030680133C4F8A0
S2142021808C3000F51B7001F0EDF9D5F8C830DDE68F
S21420219028464A2100F04CF805F1D807824605F576
S2142021A080794FF0010818EA0A0F1FFA88F22846AD
S2142021B04FEA48084FF04A0107D0BB6A1BB13B687C
S2142021C043F004033B6000F02DF804374F45EAD176
S2142021D0D4F88C3030680133C4F88C3000F51B708E
S2142021E001F0C0F9D5F8C830ADE62B69012B7FF495
S2142021F074AF284632214FF4805200F013F8284658
S21420220032214FF4006200F017F8636C3068013317
S21420221000226364E430C5F8D02001F0A3F95CE71F
S214202220845B002040680B5A23EA02020A52704759
S2142022304368C85A704700BF40680B5A1A430A5270
S214202240704700BF4368CA52704700BF154B10B591
S2142022501C68D4F81432032B04F1D00107D0D4F82C
S21420226008310846002214219847FF2010BDD4F8D4
S21420227000331BB9F3E71B6B002BF0D05A69824260
S214202280F9D1D4F88C229B69137001210323C4F85A
S2142022909412C4F8A43204F520700A46BDE8104013
S2142022A000F008BF805B00202DE9F04FDFF8D891C2
S2142022B0D9F800B0DBF80073DBF81843DBF81C63B2
S2142022C09FB05FB17B69834280468A4603D10CE08B
S2142022D07B69434509D03F6B002FF9D1522000F08F
S2142022E0B7FF52201FB0BDE8F08FBB69534538D0EA
S2142022F00BF1D00301931EB915E0761B2C4412D0A7
S21420230063782578022BF8D108220DEB02032046AD
S2142023105A4900F0A7FF069ADBF8DC329A421BD017
S214202320761B2C44ECD1DBF80831019814210022CE
S2142023309847FF201FB0BDE8F08F0AAB20465049D3
S214202340092200F08FFF0C9B434502D10D9B53457D
S2142023500BD0761B2C4404D063782578042BF8D138
S214202360EBE700201FB0BDE8F08F7D6B4FF0000834
S214202370BDB1DBF8083101982A460F21984705F1B0
S2142023805C0001F0EBF86B6AC5F80080C5F80480A5
S214202390C5F82880C5F82C80C5F824801D46002B5B
S2142023A0E7D100237B632378F61A1C4418BF012547
S2142023B00CD0637894F80080042B07D0052B22D00D
S2142023C0022B03D0B6EB08064444F2D10AA907F143
S2142023D00C00242201F004F87A69D9F80030159709
S2142023E003EB82030621D3F854331B931A6A139106
S2142023F0012A18BF57207FF475AFC3F8F07013A8D2
S2142024005B6A98476EE7DBF81033DBF80CA323B93A
S2142024102EE0013B0AF18C0A2AD0DAF80020002AA6
S214202420F7D17A6BCAF800500AB923E01A46536AE5
S214202430002BFBD1C2F824A02046124906220AF11E
S2142024400C0300F00FFF4FF0FF320BF50573CAF8B0
S2142024507820CAF82C30CAF838A0CAF82870524615
S214202460DBF8083101980E2198470028AAD039E7D2
S214202470122037E7C7F834A0DEE700BF104100205F
S21420248004410020FC400020805B00202DE9F04124
S2142024901B4C2468D4F84873D4F850438CB057B1FA
S2142024A0256A65B1002501E0266A46B10135BD42A0
S2142024B004F1F404F8D112200CB0BDE8F0811F46D8
S2142024C016460D46804601F059F8414602462046FB
S2142024D000F086FF129B6562C4F8E430129AC4F8B6
S2142024E0EC600523C4F8E87001A80A9209940193C9
S2142024F0A8470028E0D1012323620CB0BDE8F08174
S214202500805B002038B5154B196810F0030001F1E8
S214202510D00514D0022817D1D1F80003A0B1446BFF
S21420252014B90EE0646A64B163699342FAD1D1F8B3
S2142025300831284610212246984700236360002051
S21420254038BD006B0028EAD1D1F8083101F51472A5
S214202550284614219847002038BD00BF805B002005
S214202560074B1868D0F88C32D0F8DC221A7001217C
S2142025700323C0F8A4320A4600F5207000F09ABD66
S214202580805B00202DE9F04FDFF8E88197B0064603
S214202590D8F800A048B9DAF81452CAF8DC02032D9D
S2142025A061D0002017B0BDE8F08FDAF8DC32834225
S2142025B0F7D003220AF1D00BCAF814225846DAF8CC
S2142025C00831DAF81C53DAF8184313219847CAF86A
S2142025D0DC62074625B932E0B5EB09054C442ED01F
S2142025E0637894F80090022BF6D103AB20465F491F
S2142025F0082200F037FE079BB342EDD14FF0000BC8
S2142026000AF5387320465949082200F02BFEDA4690
S214202610CDF800B0CDF804B005E0042B35D0B5EBEE
S21420262009054C4466D0637894F800900B2BF4D1BF
S214202630A378009394F803B04FF0010AEFE7012443
S214202640DAF80831CAF814420AF5147258461421EA
S21420265098472246DAF80831584613219847FF2033
S21420266017B0BDE8F08FDAF8004354B10D946368D4
S21420267013930B950BA80BB15B6A9847246B002C21
S214202680F4D10123CAF814328BE70BAB2046384925
S214202690092200F0E7FD0E9B002BC0D1BAF1010FF6
S2142026A02DD0D8F80010D1F84803D1F850230028B0
S2142026B059D00D9F8E4603E0834202F1F4021BD0D0
S2142026C0116A012903F10103F6D1D2F8E8108F42EE
S2142026D0F2D1D2F8EC10B142EED10EEB87074FF0D4
S2142026E0000AC7F8542320462946002200F0CAFBD9
S2142026F0074694E7384655E74FF0000AF3E70D996A
S214202700009A91420ED0D8F80030019A03EB81034C
S214202710C3F85423BBF1010B14BF4FF0010A4FF04E
S214202720000AE0E7D8F80070D7F84803D7F8502317
S2142027300028EFD0BE4603E0834202F1F402E9D03F
S214202740176A012F03F10103F6D1D2F8E870B942D7
S214202750F2D1D2F8EC70B742EED10EEB810701929F
S214202760C7F85423D6E78246BDE700BF10410020B5
S21420277004410020805B00202DE9F04F036A5E4D67
S2142027808FB02E681BB1FF200FB0BDE8F08F044637
S214202790523094F8517094F850B000F0E5FE81461F
S2142027A004F1540000F0E0FE804604F1560000F0EC
S2142027B0DBFEBB1F012B824654D90BF06003402B57
S2142027C032D0202B1ED00C2F26D801A353F827F06A
S2142027D0D1282000C528200019282000B92820004C
S2142027E019282000A52820009928200087272000C7
S2142027F0932820008B28200083282000792820007A
S214202800872720002B6803EB88080422D8F8543347
S21420281003921A6A012A61D006F5147000F0DEF9D8
S214202820FF200FB0BDE8F08F2B68D3F88823BA427C
S214202830E9D1E268009203AA0192D3F88C43384685
S214202840494642465346A047044600284DD1032316
S214202850C6F8A432514606F52070039A00F02AFCEA
S214202860204691E74FEA192313F0600F1CBF2BF088
S214202870600B4BF0200BA0E740464946FFF714FDBF
S21420288082E74046FFF7E2FC7EE74846FFF77AFEFF
S2142028907AE7FFF765FE77E748464146524600F05E
S2142028A02DF871E7C6F804914A46D6F8083106F1A5
S2142028B0D0001121984767E758464946424600F01F
S2142028C091FB61E7584649464246FFF71BFE5BE709
S2142028D058464146524600F091F955E70B935B6AFD
S2142028E003A89847002897D14EE706F5147000F005
S2142028F075F9002048E700BF805B00202DE9F04FE7
S214202900DFF86CB2DBF800A08BB0C0F307230327F8
S2142029101646013B0AF52072CAF8A472C5B20AF11F
S214202920D0080AF514770192082B06D8DFE803F0C2
S2142029302A3D5305059ABB050F00DAF808314046B4
S2142029403A4614219847FF200BB0BDE8F08FDAF8FE
S2142029501C23DAF81813002AF5D048780B780928B3
S2142029600BD09A4202D8E8E79342E6D2D21A19440C
S214202970E9D048780B780928F6D1052E344628BFAA
S21420298005248CE0122E3446DAF88C02DAF8181376
S21420299028BF1224224600F023FD01982146324605
S2142029A000F088FB0BB0BDE8F08FDAF81C23DAF8CD
S2142029B01843002AC7D0002004E093421C44BCD20F
S2142029C0D21AC0D0617823780229F6D1A84200F026
S2142029D099800130F1E7002D7DD0DAF83493DAF8CB
S2142029E030B30C46B9F1000F09D1A6E79BF80320B7
S2142029F09B1A19EB030902F1040293449DD0584612
S214202A0000F0B2FDA0426FF00303EFD19BF8022046
S214202A10AA42EBD1DAF88C32002B00F0A5809BF886
S214202A2003200132032152001A7059709BF80310BC
S214202A3071B1002214460BF1030010F8011F9970A3
S214202A40DC709BF803100132914203F10203F4D8A4
S214202A5001314900B14228BF31460198324600F084
S214202A6029FB71E7DAF81C23DAF81813002A3FF45A
S214202A706AAF48780B7806280DD09A4203D85CE7D0
S214202A809342BFF45AAFD21A19443FF45CAF487849
S214202A900B780628F4D10A2E344628BF0A24DAF802
S214202AA08C02224677E7DAF82423DAF82043002A35
S214202AB03FF449AF002006E093421C44BFF43DAFEC
S214202AC0D21A3FF440AF617823780229F4D1A84285
S214202AD02FD00130F0E7DAF83C33DAF88C020233F4
S214202AE0032203704270DBF800300230D3F838132C
S214202AF0D3F83C2300F074FCDBF80030D3F83C130A
S214202B000231A7E708220DEB02032046174900F002
S214202B10A9FB049DDAF88C02B54228BF354621462B
S214202B202A4600F05DFC01982946324600F0C2FA9B
S214202B300AE708220DEB020320460C4900F092FB20
S214202B40049DDAF88C02B54228BF354621462A462F
S214202B5000F046FCDAF88C320198072429463246E3
S214202B605C7000F0A7FAEFE61220EDE61041002098
S214202B70805B0020184BF0B51F68D7F81462032E30
S214202B808DB00AD0012E18BFFF201CD00023C7F816
S214202B90DC32C7F814320DB0F0BDD7F800430CB9BC
S214202BA00EE02C466368019601A8039409930BB1A6
S214202BB05B6A9847256B204600F02EF9002DF0D151
S214202BC00123C7F81432D7F8083107F1D0000F21B7
S214202BD007F514729847D9E7805B002038B5064B76
S214202BE01B680446D3F8085103F1D000224614216E
S214202BF0A8470223636038BD805B00202C4AF8B5C6
S214202C001468D4F88C5200232B70D4F88C526B7036
S214202C1010F0030504F1D00604F514771FD0022D1A
S214202C2015D121F08002D4F8083130461521984776
S214202C30FF280CD0012835D002210323C4F8A43263
S214202C4004F520700A46BDE8F84000F033BAD4F800
S214202C50083130463A46142198470020F8BDB1F591
S214202C60704F16D01368D3F8681302290BD0D3F808
S214202C706C33012BE0D1D4F88C22137843F0020376
S214202C8013700221D9E7D4F88C3201211970136809
S214202C90EDE7084AD4F88C321268D2F8E8201A7089
S214202CA00121CAE7D4F88C3229461870C5E700BF40
S214202CB0805B0020785B00202DE9F041544C069F75
S214202CC0D4F80080079EC8F82433099BC8F8280348
S214202CD0089DC8F82C1300200321C8F83C330A9B13
S214202CE0C8F82023C8F84813C8F88433C8F83073C7
S214202CF0C8F83463C8F8385301464FF4377200F0EA
S214202D00E5FA0346002864D022680020C2F8503333
S214202D1001214FF4807200F0D9FAC8F88C020028FE
S214202D2057D02368D3F82443D3F8203354B3002154
S214202D300D460F460E468E460AE0042805D1D87862
S214202D40002849D10D4419790136A41A134411D00C
S214202D5058781A780228F0D10D44AF4238BF2F4653
S214202D60B6454FF0000138BFB646A41A0D460E46AB
S214202D701344EDD12944764538BF76468F4238BF76
S214202D800F4676BB422000F063FA4220BDE8F08171
S214202D908C2202FB07F22046214600F097FAC0B1AB
S214202DA0C8F80C0300F15C0404E000F0CDFB60BB27
S214202DB0013F27D001214FF48052002000F086FAF0
S214202DC0034644F8200C1349204600228C34002B5E
S214202DD0EBD11220BDE8F0811879814238BF014638
S214202DE0B3E7C6EBC602C8F80863D200C8F810736B
S214202DF02046214600F06AFA0028EAD0C8F80403E4
S214202E00002FC5D10020BDE8F0811520BDE8F08157
S214202E10805B0020A4C020002DE9F843DFF86090F6
S214202E20446BD9F8008007469CB14046002502E056
S214202E30D9F800003446666AD0F808310F21D03021
S214202E4022469847256065606562A562E562002E89
S214202E50EED1D8F80023BA4201D10DE01A46136B02
S214202E60BB42FBD13B6B136300207860B8603863AD
S214202E7078633860BDE8F8833B6BC8F80033F3E727
S214202E80805B00203B4B2DE9F0471F68D7F80833BE
S214202E90D7F8044323B933E0013B04F138042FD09C
S214202EA02268002AF8D12346012243F80C2B8846B4
S214202EB009223149064600F0D5F9D7F800230AB989
S214202EC052E01A46136B002BFBD114633378B8EB11
S214202ED003081E4418BF4FF001090CD0737896F8EB
S214202EE000A0042B07D0052B0DD0022B03D0B8EB67
S214202EF00A085644F2D12046BDE8F04700F040B814
S214202F001220BDE8F087D7F81033D7F80C5323B932
S214202F10F6E7013B05F18C05F2D02A68002AF8D1A5
S214202F20626BC5F800900AB921E01A46536A002B56
S214202F30FBD1556230461149062205F10C0300F0FC
S214202F4091F94FF0FF3207F50573AA67EB62AD6380
S214202F50AC622A46D7F8083107F1D0000E219847F0
S214202F600028C4D0BDE8F087C7F80043AEE7656305
S214202F70E0E700BF805B002004410020FC400020EA
S214202F80174B416A1B68F0B54769D3F83462D3F80B
S214202F903852046A03EB87038DB0D3F85473079135
S214202FA03B6A816A03900122934205960495069413
S214202FB00891019202D057200DB0F0BD0446C7F804
S214202FC0F0007B6A01A898470028F4D102230193D9
S214202FD0099701A87B6A98470028EDD16760EBE740
S214202FE0805B002038B51F4B1C6810F0030004F1EE
S214202FF0D00520D00228114614D1D4F8000388B179
S214203000426B12B90BE0526A4AB153698B42FAD12D
S214203010D4F80831284614219847002038BD006B84
S2142030200028EDD12846D4F8083104F5147214216E
S2142030309847002038BD04290AD00329F9D10A4B25
S2142030401A68D2F8EC3043F00303C2F8EC30F0E70D
S214203050054B1A68D2F8EC3043F00403C2F8EC3083
S214203060E7E700BF805B0020785B00200D4A0368FE
S2142030701168012B4FF02602026201D00020704713
S21420308010B50446D1F80831224601F1D0000D21B2
S21420309098472046042340F82C3B00F063FA002093
S2142030A010BD00BF805B002008B53030FFF7DEFF84
S2142030B0002008BD836D012B4FD02DE9F047284B0B
S2142030C08568D3F80080AB6913F0030317460E46D5
S2142030D0044608F1D00917D1426AC364032A1ED0D9
S2142030E056B3E068D8F808316661002101222061D5
S2142030F0A1612260E661484622460C21BDE8F047E1
S21420310018470A2000F046FA6B68022BF9D06B6944
S21420311013F080031DD0032200236262E364B742CB
S214203120DED0EA69B6FBF2F302FB1363002BD7D19D
S2142031300123E364002ED4D10122D8F80831666139
S2142031402260E661E664484622460C21BDE8F04748
S21420315018470222E3646262C2E70020704700BF7D
S214203160805B00202DE9F843334FDFF8D4803860A9
S21420317004460D46164600217022994600F0C8F9EE
S21420318004F17003DFF8BCE0184600214FF42372E8
S214203190CEF8003000F0BCF904F53F73DFF8A8E065
S2142031A0184600214FF46472CEF8003000F0B0F9D3
S2142031B004F28C63DFF894E018460021FC22CEF857
S2142031C0003000F0A5F9621904F297703B6820F0F1
S2142031D00F00A2F28C62121A5A609A6018600021C0
S2142031E000F096F939684A680B68A2F1100083E867
S2142031F00101DEB106F10F00A9F10F0220F00F0049
S2142032000A61C860002100F083F939680B69CA6832
S214203210103B82E8080101F11800084900F080F907
S214203220002814BF17200020BDE8F88388680A61AC
S214203230CB604861EFE700BF7C5B0020C4C0200065
S21420324078563412845B0020805B0020785B002058
S214203250034B1B689A6D586501329A65704700BF0C
S2142032607C5B00202AB3F8B507460E461D4614465A
S2142032700AE0042A17D0012A02D117F8013B2B6056
S214203280013C05F104050DD016F8012B022AF0D1D9
S214203290384600F069F9013C286007F1020705F17D
S2142032A00405F1D1F8BD384600F004F8043728604C
S2142032B0E6E77047827843780178C078120442EABD
S2142032C003230B4343EA0060704700BF2DE9F84F05
S2142032D0DFF80881D8F80030054603F118000F46BD
S2142032E0164600F02DF9A5F11003123306F10F064D
S2142032F094BF0135002526F00F0605EB060909F1D7
S214203300200B5946384600F0D7F809F1100A044633
S214203310002854D003689B450DD200EB0A02CAEB66
S214203320030183682B489360D46044F80A10C4F8DD
S21420333000905060A260284A62600F2D04F11009A8
S2142033401FD96B1E4B446D421D40A5F11000A042B4
S21420335017D0D4F808E045F808ECA36845F8044CE4
S214203360591BCEF80C0045F8101C2368DFF864E0E3
S214203370A060103B5B1A2360A94645F80C2CC4F8C5
S21420338004E048463246002100F0C2F8D8F8000093
S2142033905FB1012F03D14369CAEB030343611830A1
S2142033A000F0CCF84846BDE8F88F8368CAEB0303E4
S2142033B08360183000F0C2F84846BDE8F88FD8F889
S2142033C00000183000F0BAF81220FFF741FF204620
S2142033D0BDE8F88F78563412214365877C5B002041
S2142033E03AB101380A4411F8013B00F8013F9142F6
S2142033F0F9D17047F8B52D4D2B68044603F1180017
S21420340000F09EF854F80C2C294B54F8107C9A4265
S2142034103BD1284844F80C0CA4F1100203E059686C
S214203420814203D11A46D368002BF8D193688BB11A
S2142034301F4E5968B14231D0106802E05968B14237
S2142034402CD019689C68946010319B6808441060E2
S214203450002BF3D128680368C168994221D09A428C
S21420346007D243691F4447611830BDE8F84000F092
S21420347065B841680B449A42F3D883681F44876036
S2142034801830BDE8F84000F059B82868183000F029
S21420349055F81920BDE8F840FFF7DABE9360DA60E9
S2142034A0D8E783683B448360DEE700BF7C5B002070
S2142034B02143658778563412E8B1012819D1124B7A
S2142034C01B68DB68EBB130B40020104C01E09B6831
S2142034D06BB15A68A242FAD11A688A42F7D970B1FB
S2142034E00568AA4238BF18469B68002BF1D130BC2D
S2142034F0704700207047044B1B681B68E2E718469D
S214203500E5E71846704700BF7C5B002078563412EB
S21420351022B1024400F8011B9042FBD1704700BF45
S21420352010B50022342301F0D1F9044608B1FFF784
S2142035308FFE204610BD00BF01F020BA01F060BA11
S2142035404FF0FF3101F030BA10B51C2301F074FAA9
S214203550044608B1FFF77CFE204610BD01F0C0BA35
S21420356001F0D4BA01F0E8BA4278007840EA0220A6
S214203570704700BF0B0A01704370704703783BB159
S2142035800346002013F8012F0130002AFAD1704795
S2142035901846704700F0DCBE10B472B6154A164BBB
S2142035A016491468164A1A600A681648164B0460AC
S2142035B042F001020A6015481B68A0FB03239B0902
S2142035C0013BB3F1807F09D2114A12485360F024A0
S2142035D00021072380F82340916013600D4BF022D2
S2142035E00021DA7783F8222083F823105DF8044B35
S2142035F0704700BF00002000A05B0020001000E005
S214203600F4B80220505C0020545D0020D34D621098
S21420361010E000E000ED00E0114B124C1248134978
S214203620002222609A809A821A801A829860D96034
S2142036309861D961EFF3088282F309880C48B0F8C4
S214203640202192B2012142F48052A0F820219980B4
S214203650998262B6074B4FF080525A60FEE700BF51
S214203660000D0040545C002080610220F0B802204B
S2142036700060004000ED00E02E4B1A68002A56D06D
S214203680EFF3098CACF1200C8CF309880CF1200C9C
S2142036902CE9F00F1EF0100F07D1ACF1400C8CF384
S2142036A009880CF1400C2CED108A7146C2F8901057
S2142036B0614621489160016811B10024916104603F
S2142036C072B61E490A68002A27D01A6062B61A689F
S2142036D01B4954689569056001340020546088822F
S2142036E0D0688861106940F00300C861D2F8902045
S2142036F096461B689B689C461EF0100F01D1BCECBA
S214203700108ABCE8F00F8CF3098801238B8270475F
S214203710FEE762B630BFBFF36F8F72B60A681246F6
S2142037201A60002AF5D0074A1B215160CEE70248CE
S214203730C6E700BF585C0020EC5C00205C5C0020E4
S214203740000D004000ED00E000F024B80269A2F170
S214203750400222F007024FF000031360536093608C
S214203760D36013615361C36893614FF00003D36144
S214203770136253629362D36213634FF0FF33536333
S21420378091634FF08073D36382606FF00203C0F8BA
S2142037909030704729492A480A680368013210B5D4
S2142037A00A601BB1013B0360002B2AD0254B264C18
S2142037B01A682168106800282ED0244B01221A602F
S2142037C000F06AFF2368CBB9214B1B685BB1214A06
S2142037D01268934207D0204B1B6823B91F4B4FF02B
S2142037E080525A6010BD10BD1D48006804328242C7
S2142037F01A601ED0154B1B68002BE1D100F0F2FE9C
S214203800E2E7104B104C1A6810680121216000284E
S214203810EAD00E4B1960D3E7114800680432824282
S2142038201A6006D00029E5D1084B1B68002BCBD0A8
S214203830C6E70C4A12681A60F4E700BF085D00204D
S214203840EC5C0020645C0020045D0020E85C002026
S2142038505C5C0020585C0020545C002000ED00E0FA
S214203860F05C0020F85C00202DE9F04700F018FD01
S214203870144BDFF870A0DFF87090DFF87080124FDE
S214203880124E134D134C01221A6000F08FFFDFF802
S21420389060C0DFF860E010481049114A0023CAF8DB
S2142038A00030C9F80030C8F80030CCF80030CEF828
S2142038B000303B6033602B60236003600B60136036
S2142038C0BDE8F087545C0020AC5B0020B05B002095
S2142038D0A45B00209C5B0020B85B0020905B00204F
S2142038E08C5B0020985B0020A85B0020B45B002047
S2142038F0945B0020885B002010B50C4C236813F1E5
S2142039000F3F06D04FF0F0332360FFF745FEFFF75A
S214203910ABFF074A4FF0F0331068236003F048FAF5
S21420392000232360BDE81040FFF776BE404100200C
S214203930A05B0020704700BF704700BF38B5EFF38C
S214203940108272B6C36E2BB1816E19B114491C68F1
S2142039508C4202D082F3108838BDD9690029F9D06C
S214203960013900248466D961C1B19D69016F446F15
S2142039704C678542216711D0036B0D2BEAD109498C
S2142039800B681D2401330B60C0F8844082F3108836
S21420399000F02AFDEFF3108272B6DBE79961EBE7C1
S2142039A04554554D545C002070B50446EFF3108303
S2142039B072B60D4ED0F8A80032680132326001256A
S2142039C058B1856083F3108800F0C8F9EFF31083B0
S2142039D072B6D4F8A8000028F2D13268013A3260D4
S2142039E083F3108870BD00BF545C002070B5044679
S2142039F00E4615460021342204F006F9666025613D
S214203A00EFF3108072B60C4A0C4913680C4E0D4D1D
S214203A1026600D600C495BB109684D6A4C622C62C9
S214203A20656221620133136080F31088002070BD28
S214203A30246264620C60F5E78C5B00203C5C00200E
S214203A404554554DA9392000905B00202DE9F843B8
S214203A50EFF3108272B62A490B680024013B0460FB
S214203A600B60002B42D127490B60DFF89C80C16891
S214203A70D8F800308469C56900260133C8F80030BC
S214203A808661C66141B10123836082F3108800F00D
S214203A9065F9EFF3108272B682F31088BDB1002765
S214203AA00126013DEFF3108372B6D8F80020A766F2
S214203AB00132C4F88460C8F80020D4F8709083F3EC
S214203AC01088204600F090FC4C46002DE9D1EFF3FC
S214203AD0108372B6D8F80020013AC8F8002083F385
S214203AE0108800F063FC0020BDE8F883054C036ACC
S214203AF02568416A596285420B6208BF2360B4E795
S214203B008C5B0020905B0020545C0020F8B5EFF31F
S214203B10108572B6334A83681468C3B90123C4601B
S214203B20836084B10369012B3ED0D4F8A830002BE3
S214203B3046D01A6B1863D0620263C362D4F8A430EE
S214203B400133C4F8A43085F310880020F8BDC2687D
S214203B50A24204D031B985F310881D20F8BD013368
S214203B608360F0E7C369204EE066A6660BBB8461DF
S214203B70246764671D4F3E68013301364FF00D0CF5
S214203B804FF0010EC3613E60E164C4F830C0C4F853
S214203B9038E085F310880369734516D0204600F078
S214203BA099FCD4F88400F8BDE36A4361202383623D
S214203BB0BBE786692667776F67673C677467D9E7D0
S214203BC0C4F8A800C0620063B8E7E16A836A8B4243
S214203BD0D36A88BF81629942E0D2104600F05CF832
S214203BE0DCE700BF585C00203D392000545C0020F4
S214203BF0F8B5EFF3108472B6C769012F43D9022FA8
S214203C003AD0DFF890E08269DEF80030116F013399
S214203C10CEF80030154605E0C769196F1A46994256
S214203C2012D01D46D36ACE6A9E4238BF0A4684F317
S214203C301088EFF3108472B68369AB42ECD1C56965
S214203C40BD4224D02F46E8E7DEF80030914203F14B
S214203C50FF33CEF8003009D0166F556F75674B6F5F
S214203C602E67536711671A674A67826184F3108844
S214203C7000F09CFB0020F8BD83691A6FDB6AD16ACE
S214203C80994238BF826184F310880020F8BD096FFE
S214203C90C5E700BF545C00202DE9F843EFF31086FB
S214203CA072B6026BC0F8A01052B1D0F89C20C16248
S214203CB0914228BF1146C16386F31088BDE8F88379
S214203CC00D462349DFF890900B68C26402334FF00C
S214203CD0030E012204460B60D9F80070C0F830E0CD
S214203CE08263D0F82C8086F3108800F0F3FBEFF385
S214203CF0108372B6D4F89C20E562AA4228BF2A46D2
S214203D00E26383F31088204600F06EFBEFF3108208
S214203D1072B6D9F800309C4207D0216B29B9D96AEF
S214203D20E36A8B4205D8BC4208D082F31088BDE8EF
S214203D30F883E06B8342F8D98142F6D3454588BFA5
S214203D400449C9F8004088BF41F82340EDE700BF8A
S214203D50545C0020BC5B00205C5C0020EFF31082EB
S214203D6072B6816819B982F310881E2070472DE933
S214203D70F0417C4CC3682468A34282B0164603D028
S214203D80794C2468002C49D00139816000294BD118
S214203D90002B49D0D3F8A4100139C3F8A410002969
S214203DA046D1C3F8A81081690469002971D0012C76
S214203DB0D3F898106C4C00F08F80C369012B054611
S214203DC04ED90269012A3CD08769002F00F0A980CD
S214203DD04FF00008D7F8A420002A4FD1C7F8A850E3
S214203DE0ED622D630132013B0120C7F8A420EB6170
S214203DF0EF60A860002B3BD1AB6123680022013323
S214203E002360BA66C7F8842086F310882B69012BB6
S214203E1046D0384600F0E8FA002002E082F3108808
S214203E201E2002B0BDE8F08182F310880020F8E75B
S214203E30D3F8A850C16A046B0C638542E162B2D104
S214203E40AFE7236801910133236086F31088FFF7DC
S214203E50CFFEEFF3108672B623680199013B2360EC
S214203E60AF69002F5DD02B69012B52D0EB69AFE7ED
S214203E703B6F7A6FAB615A671367BEE7D7F8A80027
S214203E80D0F830E00563CEF82C50C5F830E0E86274
S214203E90A8E7002C8BD1C46082F310882046C0E7A8
S214203EA0EB6953B9B8F1000FB3D0D8F82C308B4259
S214203EB0AFD04046FFF7F0FEABE728460191FFF76C
S214203EC097FEEFF3108272B6AB6901990BB1DB6AED
S214203ED0AB6282F31088E5E725680135256082F31A
S214203EE01088D3F8A8506DB12B4603E0DB6A9D42BC
S214203EF008D03BB11A69012AF8D19A6A914228BFA4
S214203F001146F3E7EFF3108672B62368013B236071
S214203F1053E7FB6A6B612023AB62D5F80C80EB6914
S214203F2058E723680133236086F310882B69012B1A
S214203F300ED0EFF3108172B62368AA68013B236087
S214203F4002B9EA6081F3108800F030FA002068E7B2
S214203F50E868C36A20228B42AA62EAD0FFF79CFE5A
S214203F60E7E700BF585C0020545C002038B5EFF32C
S214203F70108272B6C36E2BB1816E19B114491C68BB
S214203F808C4202D082F3108838BD19690029F9D0F6
S214203F900139002484661961C1B1DD68016F446F60
S214203FA04C678542216711D0036B062BEAD109495D
S214203FB00B680D2401330B60C0F8844082F3108810
S214203FC000F012FAEFF3108272B6DBE7D960EBE767
S214203FD0414D4553545C002070B504460E461546A8
S214203FE000211C2203F010FE6660A560EFF310800F
S214203FF072B60B4A0B49136821600B495BB10968FE
S2142040008D698C616C61A56161610133136080F3F9
S2142040101088002070BD6461A4610C60F5E700BFC5
S214204020A85B0020414D4553985B00202DE9F041C8
S2142040300346EFF3108672B620490A680020013A3C
S21420404018600A60002A2ED11D490A601D4FD868C4
S2142040503A681C69002501323A60DD601D6186F3EE
S21420406010889CB10126013CEFF3108372B63A68A3
S21420407085660132C0F884603A60D0F8708083F399
S214204080108800F0B1F94046002CECD1EFF31083F5
S21420409072B63A68013A3A6083F3108800F086F9DF
S2142040A00020BDE8F08106485A6904689969916144
S2142040B09C424A6108BF0260C8E700BFA85B002098
S2142040C0985B0020545C0020F8B5EFF3108272B69F
S2142040D0836833BB19B982F310880D20F8BD164CBF
S2142040E003692468154DE066A56603B3C568256791
S2142040F06E6F666734676C67114E3568013301351D
S2142041004FF0060E012703613560E164C4F830E005
S214204110A76382F31088204600F0DCF9D4F88400E8
S214204120F8BD013B836082F310880020F8BDC46090
S21420413024676467E0E700BF585C00206D3F2000DE
S214204140545C002038B5EFF3108472B60369D3B1FF
S2142041505A1EC16815D00B6F4D6FC3605D672B6705
S21420416003460C481A6103680022013303608A66FE
S214204170C1F8842084F31088084600F035F9002022
S21420418038BDC260ECE783680133836084F310880F
S214204190002038BD545C00202DE9F84FDDF828803B
S2142041A00B9D0C9C0E9F06468B469246EF212A4678
S2142041B04046994603F028FD0021B022304603F001
S2142041C023FD0D9BC6F828B06A1E424420219C423F
S2142041D0C6F844A0C6F84890C6F80C8075613261CF
S2142041E0F462C6F89840B761F761C6F8A0103ED0D2
S2142041F00023F363C6F89C300322234BB665326354
S214204200736530462149FFF7A1FAEFF3108472B6A2
S2142042101F48204A036832601F4AE3B9C6F8886000
S214204220C6F88C6016601D4A0133116803600F9B28
S2142042300131012B11601ED084F31088EFF3108318
S21420424072B611680139116083F3108800F0AEF859
S2142042500020BDE8F88F1268D2F88C10C2F88C6067
S214204260C1F88860C6F88C10C6F88820DBE7F463AF
S214204270C6F89C40C0E784F31088304600F0B4F8B7
S2142042800020BDE8F88F00BF5946200009432000D3
S2142042904C5C002044524854445C0020545C00206F
S2142042A0F8B500240E4BDFF85CE00E4E0E4F0F489C
S2142042B034602146202580221D60CEF800403C60D8
S2142042C003F0A2FC0A4A0B4E13680B4D0B480C4910
S2142042D0346043F0C5732C6004600C601360F8BD36
S2142042E0605C0020405C00205C5C0020BC5B002002
S2142042F0485C0020445C00204C5C0020545C00207D
S2142043003C5C0020585C002038B50E4B1C68636C63
S214204310A06C98470C4B1B680BB120469847EFF3D0
S214204320108372B609480268012100250132E5642F
S21420433002602163A16383F310882046BDE83840DD
S21420434000F0C8B8585C00203C5C0020545C00207C
S21420435038B5EFF3108172B6114B1C682CB1EFF311
S2142043600583104A1268134303D081F31088132064
S21420437038BD10B981F3108838BD0B4AC4F8843094
S2142043801368E06401330425012013602563A063CD
S21420439081F31088204600F09DF8D4F8840038BDBC
S2142043A0585C002040410020545C00200A4B1B68CB
S2142043B08BB90A4A0A4B12681B689A420BD0094BE3
S2142043C04FF080525A60EFF3058323B9EFF3108342
S2142043D062B683F310887047545C0020585C002037
S2142043E05C5C002000ED00E0F8B5436E0446002B30
S2142043F041D04C3000F04CFAEFF3108172B62E4AC2
S214204400A06B1368013B1360236BB8B9FBB92B4D27
S2142044102B4B186881F310882B6898420DD01368B0
S2142044205BB9284B4FF080525A60EFF3058323B9CF
S214204430EFF3108362B683F31088F8BD013B012B9F
S214204440E5D9636B93B91D4DA3632363E0E7636BE4
S21420445063B9E06A1C4D236355F820306BB1586A67
S214204460164D04625C6260622362D1E7002003235B
S21420447060632363CBE7C364BEE7144F45F8204050
S2142044803B68134E2462012585402B433B603368EE
S21420449064629842094DBBD22B6830604BB1DB6B0F
S2142044A09842B5D22C6081F310881368002BB8D0C0
S2142044B0C3E72C60ACE700BF545C00205C5C0020A7
S2142044C0585C002000ED00E0BC5B0020405C002033
S2142044D0605C0020F8B53B4B04461D68EFF3108067
S2142044E072B6AC423BD0384AA16B1368012903F15F
S2142044F0FF33136014D0354B80F310881B689D4221
S2142045000DD013685BB9324B4FF080525A60EFF3F0
S214204510058323B9EFF3108362B683F31088F8BDC2
S214204520236AE66A4FF0000EA342C4F838E027D08C
S214204530284F616A57F826E05962A6450B6234D0A8
S214204540224B19688C42D7D12349096857F8211085
S214204550196080F310881368002BD4D0DFE7E36C53
S214204560013B033308D880F3108804F14C0000F098
S21420457055F9EFF3108072B6184BE2691A60B2E76D
S214204580174B144FB14047F826E01E6826EA010173
S214204590196069B9104C0D4B20252560196080F3F1
S2142045A010881368002BAED0B9E747F82630C7E747
S2142045B04B42094E0B40B3FA83F3C3F11F0333601B
S2142045C0BEE700BF585C0020545C00205C5C0020E6
S2142045D000ED00E0BC5B0020605C0020EC5C00206E
S2142045E0405C0020164B1B68EFF3108272B615490C
S2142045F00020086093B1196B81B9186AD96910B484
S214204600114C99619842216003D0D96ADB6B99429C
S21420461007D082F310885DF8044B704782F3108829
S21420462070470A4B0A4C43F821002068094953F882
S21420463020300B6082F310885DF8044B704700BF73
S214204640585C0020045D0020EC5C0020BC5B002051
S214204650605C00205C5C0020EFF3108172B6026B79
S214204660042A05D0836E81F3108803B1184770475B
S214204670034A13680133136081F31088FFF7B4BE32
S214204680545C0020EFF3108372B6024A106883F35E
S21420469010887047085D00202DE9F04F83B0002376
S2142046A00193EFF3108072B6DFF8F490D9F800404B
S2142046B0002C56D1384B1B68002B52D00123374E86
S2142046C0DFF8E080DFF8E0B0C9F8003033681B6818
S2142046D000930BB1C3F818D0336800221A603368F1
S2142046E0D8F800200433934233604FD02A4B00255D
S2142046F01D6080F31088EFF3108072B612E0203A27
S2142047000DF1040A3A603F61C7F818A0002280F332
S21420471010880AB120469047EFF3108072B6BA6927
S214204720524529D0009FB7B13A69974222D079697D
S214204730516100920A61C2F818D03A68202ADED861
S21420474079683960BA68FC6881B10DF1040A3F6166
S214204750C7F818A0DBE7104B1B68002BB6D1C9F8AA
S214204760003080F3108803B0BDE8F08FB9610DF1FA
S214204770040ACCE70095E0E7BD6180F31088384650
S21420478000F04CF8EFF3108072B6CBE7034ADBF864
S21420479000301360AAE700BFE85C0020645C0020BD
S2142047A0F45C0020F05C0020F85C0020F8B5104D8A
S2142047B0104E114BDFF860E0104F00242146802277
S2142047C0346028460E4E3C601C60CEF800400D4FEC
S2142047D003F01AFA0C480D490D4A0E4B356005F1C8
S2142047E080063D6006600C6014601C60F8BD00BF4B
S2142047F0685C0020045D0020E85C0020EC5C002063
S214204800F85C0020645C0020F05C0020F45C002053
S214204810FC5C0020005D0020085D0020EFF3108186
S21420482072B60268531E13F1030F07D810B48469BA
S2142048303CB181F310885DF8044B704781F31088F3
S2142048407047104C202A104A2468126894BF9B0098
S2142048507C232344934203D30C4C24689B1A234482
S2142048601A6852B1546920615061446102618361C3
S21420487081F310885DF8044B704700614061186032
S214204880F5E700BF645C0020F05C0020F85C0020A8
S21420489010B4EFF3108472B6826962B1036998424D
S2142048A00ED0416959610B611168814204BF9A613B
S2142048B013600023836184F310885DF8044B7047EF
S2142048C013688342F5D100231360F2E708B1342B36
S2142048D001D01C207047F8B5EFF3108372B6DFF8CE
S2142048E098E0DEF800400134CEF8004083F31088CC
S2142048F01E4C1F4B25681C6855B1A04218BF0023CC
S21420490002D105E0A04203D00133AB42246AF9D19C
S214204910054617460E46EFF3108372B6DEF80020E3
S214204920013ACEF8002083F31088FFF73FFDA5421A
S21420493019D0012F0ED8EFF305830E4A11680B43CA
S2142049400AD0EFF3058312681343B3F1F03F03D286
S2142049501320F8BD1F20F8BD284631463A46BDE84C
S214204960F840FFF743B81C20F8BD00BF8C5B002042
S214204970905B002040410020545C002018B1026863
S214204980074B9A4201D01C207047EFF30583054A57
S2142049901268134301D013207047FFF757B800BFA3
S2142049A04554554D4041002018B1134B02689A4299
S2142049B001D01C20704710B489B9104AEFF3058344
S2142049C014680E4A234312D0EFF30583126813436C
S2142049D0B3F1F03F0BD213205DF8044B7047EFF392
S2142049E00583064A14682343E8D00420F4E75DF8DC
S2142049F0044BFFF78BB800BF4554554D404100206F
S214204A0018B10B4B02689A4201D01C207047EFF376
S214204A100583084A11680B4308D0EFF30583126814
S214204A201343B3F1F03F01D213207047FFF796B936
S214204A304554554D4041002008B11C2B01D00C2078
S214204A407047F8B5EFF3108372B6DFF890E0DEF823
S214204A5000400134CEF8004083F310881C4C1D4BD8
S214204A6025681C6855B1A04218BF002302D105E076
S214204A70A04203D00133AB426469F9D105461746FC
S214204A800E46EFF3108372B6DEF80020013ACEF819
S214204A90002083F31088FFF789FCA54215D0EFF39A
S214204AA005830D4A11680B4308D0EFF3058312687F
S214204AB01343B3F1F03F01D21320F8BD2846314608
S214204AC03A46BDE8F840FFF787BA0C20F8BD00BF8D
S214204AD0A85B0020985B002040410020545C00200A
S214204AE018B10268074B9A4201D00C207047EFF3AA
S214204AF00583054A1268134301D013207047FFF739
S214204B0095BA00BF414D45534041002018B1084B8F
S214204B1002689A4201D00C20704739B1EFF3058322
S214204B20044A1268134301D004207047FFF7CCBA1A
S214204B30414D45534041002018B10268034B9A422C
S214204B4001D00C207047FFF7FDBA00BF414D4553FA
S214204B502DE9F04F85B00EAD129C0194139C009465
S214204B6095E82007149C08B1B02C03D00E2005B081
S214204B70BDE8F08FEFF3108472B6DFF814E1DEF8AC
S214204B8000600136CEF8006084F310883D4E3E4C1F
S214204B9036680296246836B3A04224D008F1FF3641
S214204BA02E4400278B460393E1688D423ED323692B
S214204BB09D423BD24FF0010C00258E4207F10107A3
S214204BC005D321698E423CBF4FF0010C0025029987
S214204BD0D4F888408F4204D0A04202D0BCF1010F06
S214204BE0E2D1039B59460746029316468B46EFF3BF
S214204BF0108372B6DEF80020013ACEF8002083F348
S214204C001088FFF7D3FBA742B0D06DB166B1B8F1DC
S214204C10C70F0ED9B9F11F0F0DD8D1450DD3009B64
S214204C20012B0CD91020A2E70320A0E74FF0000CA0
S214204C30C3E705209BE70F2099E7182097E7EFF3B7
S214204C400583124A11680B4308D0EFF305831268D8
S214204C501343B3F1F03F01D2132088E7019B129350
S214204C60009B1393029B0E95384659463246CDF844
S214204C703C80CDF84090CDF844A005B0BDE8F04F7C
S214204C80FFF78ABA4C5C0020445C0020404100209C
S214204C90545C00200123022202704370C37083708C
S214204CA00020704740F60733984201D9032070470A
S214204CB071B1030AC0B200EB03139B0003F18043DB
S214204CC003F5812300201B68C3F340030B70704755
S214204CD001207047B0F5306F01D90320704749B1E5
S214204CE0030A5B0103F1804303F1041300201B68D1
S214204CF00B807047012070470AB903207047B0F533
S214204D00306FFAD8000A10B4400122EA0104044B9E
S214204D100A4042EA0442C2505DF8044B0020704725
S214204D2008000440012901D90320704740F60733C4
S214204D309842F9D8030AC0B200EB03139B0003F194
S214204D40804303F5812301291A680F480F4930B4A0
S214204D500CBF42F0010222F0010240240025C5705B
S214204D60C470D403186801EA020105D5084C20F463
S214204D708030144018601C60034A1960002080238D
S214204D80D070D37030BC7047000D0440D5FC011F96
S214204D90D5FC001F0AB903207047B0F5306FFAD84B
S214204DA0000A400100F1804000F5802030B40568FC
S214204DB0036802EA01042C43A4B261EA02021B0C37
S214204DC022401B041A43026030BC0020704700BFFC
S214204DD0B0F5306F01D90320704751B1030A5B014B
S214204DE003F1804303F1041300201B681B0C0B8087
S214204DF070470120704700BF40F60733984201D91C
S214204E0003207047B9B1030A5B0103F1804303F125
S214204E100413C0B210B401241A6804FA00F39BB23B
S214204E2003EA1242934213BF00200C700020087041
S214204E305DF8044B70470120704700BFB0F5306F17
S214204E4001D903207047002AFBD0000A054B4001F9
S214204E50034422EA0100114041EA00415960002043
S214204E60704700BF0800044040F60733984201D937
S214204E70032070470129FBD810B400F47F44C0B249
S214204E800DD04FF4803303FA00F200230649E008E1
S214204E900144134300204B605DF8044B704781406B
S214204EA08BB20022F2E700BF08000440202801D978
S214204EB0032070470129FBD8064A137813BF1843EE
S214204EC003F0300323EA000000F0300010700020CA
S214204ED0704700BF000D044090B3F8B5064601F0B9
S214204EE025FC338853B30021164C08464FF0400E5D
S214204EF08027736803EBC10253F831509288E07024
S214204F00130AD2B202EB03139B0003F1804303F58E
S214204F108123013184F803E015F4803F89B21A68B2
S214204F2006D022F4803225F4803C1A60C3F800C0F4
S214204F301D60E070E77033888B42DAD80020F8BD19
S214204F4001207047000D044010B540F60733984204
S214204F5086B0044602D9032006B010BD012204AB59
S214204F6002A8ADF8144004910191ADF808200393EF
S214204F7001F0DCFB0F4A230AE4B204EB03134020C3
S214204F800024D4709B00D07003F18043019903F570
S214204F908123C8031A6805D522F4803221F4803094
S214204FA01A601860034A196000208023D070D370DE
S214204FB006B010BD000D0440012901D9032070471A
S214204FC040F607339842F9D8030AC0B200EB031321
S214204FD09B0003F1804303F5812330B41A68D1B1D6
S214204FE042F004020D480E4940240025C570C470C6
S214204FF0D403186801EA020105D50A4C20F4803053
S214205000144018601C60054A196000208023D07068
S214205010D37030BC704722F00402E3E7000D044052
S214205020D5FC011FD5FC001F10B5012082B0FEF76D
S21420503083FC224B1A7CD4061ED407F001F806F017
S214205040EFFF1F4B1F4C1A680B21082311740320F7
S214205050C4F8803101F092FA0423C4F8803102208B
S21420506001F08CFA184B1B680BB168469847012054
S214205070FEF760FC02B010BD1A7C10071AD41B7C09
S214205080DB091CBF05238DF800300C4BB3F8C0207D
S21420509091070BD5D3F88020D20403D4D3F88030E0
S2142050A09B0403D507238DF80030C6E706238DF82A
S2142050B00030C2E704238DF80030E6E700E07F40AA
S2142050C0DC59002000E100E0005A0020F0B5012065
S2142050D08BB0534CFEF730FC032001F04FFA2168CA
S2142050E00B7C082B14D0092B47D00A2B64D007231F
S2142050F08DF8003006F09CFF06F092FF494B1B68A7
S2142051000BB1684698470120FEF714FC0BB0F0BDA3
S2142051108B68002B5AD044484A68444B02631A686E
S214205120E82414701A688C7C1470CD684A8A1F682C
S214205130AA4261D90E6801354FF4876336F8022BF0
S214205140CD603A80D0F88020540507D5002B45D076
S214205150D0F88020520503F1FF33F7D44C688A68D4
S214205160B1F812E00E60013A023475458A604C6050
S21420517005F1010240D21546E0E7CB688A68013384
S2142051809342CB6026D2284AB2F884309BB2802B3A
S2142051902ED0B2F884309BB2012B35D04A682249F3
S2142051A0224B0A631A68202111701B68D0221A70BD
S2142051B00120FEF7BFFBA9E71B4B93F8D430012B49
S2142051C00CBF032302238DF8003093E701238DF8CC
S2142051D000308FE700238DF800308BE706F030FF95
S2142051E0072301208DF80030FEF7A4FB0BB0F0BD9E
S2142051F04A6840324A60D2E70022D023CA600120A3
S2142052003B70FEF797FB81E7486802A906F020FF6F
S2142052100028E3D02168039A4B681A444A60BEE708
S214205220DC590020145A002000E07F404441002032
S21420523020B1034B1B680360002070470120704795
S21420524068C12000024B23F820100020704700BFC2
S21420525010100440024A002342F8203018467047B7
S21420526010100440034A137863F07F031370002065
S214205270704700BF00100440034A137803F07F03F2
S21420528013700020704700BF0010044020B1034B6D
S2142052901B6803600020704701207047FCC1200077
S2142052A058B1012807D1084B00204021412218710F
S2142052B019711A71704701207047034B4021412213
S2142052C0987099709A70704700100440E8B130B416
S2142052D00F4A536823F48043536045685DB1836862
S2142052E003EB85055C8813F8041B0A4A89000A44E8
S2142052F0AB421480F6D1007828B1074A137863F0C1
S2142053007F031370002030BC70470120704700BF19
S214205310007004401010044000100440084B094A56
S214205320094810B40021094C1A604FF400425C6012
S214205330D86059619A601A615DF8044B704700BFC7
S21420534088590020002D310100366E0100127A00A7
S21420535019491A4A0B8D03F0030332F8132052B36F
S21420536010B40C8D16480B8D14F0100F14BF0021AE
S214205370032107EE902A50F821205DF8044B07EE13
S214205380102AF8EE676AB8EE477AC3F3052387EE4D
S214205390267A07EE903AF8EE677AF7EE006A77EE0E
S2142053A0A67AF6EE006A67EEA67A67EE277AFCEE15
S2142053B0E77AC0ED057A704700E0014000C2200081
S2142053C0885900200E4AB2F8FE339BB243F4254398
S2142053D043F00103A2F8FE3392F81334000100F0E4
S2142053E0300003F0CF03034382F81334B2F8FE33C1
S2142053F045F6FE210B4043F42543A2F8FE337047C2
S21420540000E001400E4AB2F8FE339BB243F4254337
S21420541043F00103A2F8FE3392F88134400000F0F6
S214205420020003F0FD03034382F88134B2F8FE3312
S21420543045F6FE210B4043F42543A2F8FE33704781
S21420544000E00140264AB2F8FE339BB243F42543DF
S21420545043F00103A2F8FE3305280BD8DFE800F05E
S2142054602028300338181E4A92F8323023F00103E1
S21420547082F832301A4AB2F8FE3323F4145323F05B
S21420548001035B045B0C43F42543A2F8FE3370470C
S214205490134A92F82A3023F0010382F82A30E9E7EB
S2142054A00F4A92F8363023F0010382F83630E1E7CF
S2142054B00B4A92F8383023F0010382F83830D9E7C7
S2142054C0074A92F8903423F0010382F89034D1E70B
S2142054D0034A92F8803423F0010382F88034C9E727
S2142054E000E00140264AB2F8FE339BB243F425433F
S2142054F043F00103A2F8FE3305280BD8DFE800F0BE
S2142055002028300338181E4A92F8323043F0010320
S21420551082F832301A4AB2F8FE3323F4145323F0BA
S21420552001035B045B0C43F42543A2F8FE3370476B
S214205530134A92F82A3043F0010382F82A30E9E72A
S2142055400F4A92F8363043F0010382F83630E1E70E
S2142055500B4A92F8383043F0010382F83830D9E706
S214205560074A92F8903443F0010382F89034D1E74A
S214205570034A92F8803443F0010382F88034C9E766
S21420558000E00140032810D0052808D008B10020EC
S2142055907047094B93F83C0000F001007047064B1B
S2142055A093F83C00C0F340107047034B93F83C0040
S2142055B0C0F3C000704700BF00E00140052834D883
S2142055C0DFE800F00B131B232B03194B93F82A005C
S2142055D000F0010080F001007047154B93F836006C
S2142055E000F0010080F001007047114B93F838005E
S2142055F000F0010080F0010070470D4B93F89004F6
S21420560000F0010080F001007047094B93F832004B
S21420561000F0010080F001007047054B93F88004ED
S21420562000F0010080F0010070470020704700BFA6
S21420563000E00140024B1A6A93F82630704700BFFC
S21420564000E001400E4AB2F8FE339BB243F42543F5
S21420565043F00103A2F8FE3392F8133400F0010061
S21420566023F0400343EA801382F81334B2F8FE3363
S21420567045F6FE210B4043F42543A2F8FE3370473F
S21420568000E001400E4AB2F8FE339BB243F42543B5
S21420569043F00103A2F8FE3392F8A23001F00F0186
S2142056A023F00F03194382F8A210B2F8FE3345F612
S2142056B0FE210B4043F42543A2F8FE33704700BF7B
S2142056C000E0014005288CBF00200120704700BF65
S2142056D006288CBF00200120704700BF024B93F89D
S2142056E0260000F00700704700E001400E4AB2F89E
S2142056F0FE339BB243F4254343F00103A2F8FE3366
S21420570092F8263000F0070023F00703184382F8AB
S2142057102600B2F8FE3345F6FE210B4043F425431F
S214205720A2F8FE33704700BF00E00140034B1B8DFC
S21420573013F0100F0CBF03200020704700E001403C
S2142057400F4A1049B2F8FE3311F810109BB243F4FA
S214205750254343F00103A2F8FE33138D01F0010127
S21420576023F0100343EA01131385B2F8FE3345F6FF
S214205770FE210B4043F42543A2F8FE33704700BFBA
S21420578000E0014010C22000114AB2F8FE3330EE8D
S214205790000A9BB243F42543FCEEC07A43F0010393
S2142057A0A2F8FE3317EE903A118D013B21F47C517E
S2142057B003F03F0341EA03231385B2F8FE3345F690
S2142057C0FE210B4043F42543A2F8FE33704700BF6A
S2142057D000E001400E4A0F49B2F8FE3331F81010AF
S2142057E09BB243F4254343F00103A2F8FE33138D06
S2142057F001F0030123F003030B431385B2F8FE33B5
S21420580045F6FE210B4043F42543A2F8FE337047AD
S21420581000E0014008C22000F0B51E4AB2F8FE3370
S2142058209BB243F4254343F00103A2F8FE330678E7
S21420583085780479417990F801C090F803E087795B
S21420584006F00706002305F0070566F30E3304F07E
S214205850070065F3061301F0070160F3124361F3B6
S2142058601E7366F30E3365F3061360F3124361F37B
S2142058701E736CF30A236EF3020367F31A63136234
S214205880B2F8FE3345F6FE210B4043F42543A2F83A
S214205890FE33F0BD00E001400E4B1A6AC2F302321E
S2142058A002701A6AC2F3022242701A6AC2F3021205
S2142058B082701A6A02F00702C2701A6AC2F30242A3
S2142058C002711A6AC2F3027242711B6AC3F3026340
S2142058D08371704700E001404378022B16D8D0ED44
S2142058E0017AB3EE0E7AF4EEC77AF1EE10FA0DDCFA
S2142058F0B2EE047AF4EEC77AF1EE10FA06D4007807
S214205900032805D0B0FA80F0400970470020704781
S21420591001207047062828D8DFE800F0090E131863
S2142059201D220400124B186AC0F302607047104B09
S214205930186AC0F3023070470D4B186AC0F3022075
S21420594070470B4B186AC0F302107047084B186A52
S21420595000F007007047064B186AC0F302407047F5
S214205960034B186AC0F3027070470020704700BFD0
S21420597000E0014008B5FFF7CDFF054B054A93F838
S214205980263003F0070352F8233023FA00F008BD30
S21420599000E0014088590020024B53F82000C84000
S2142059A0704700BF885900200F4BB3F8FE2392B2F1
S2142059B042F4254242F00102A3F8FE2393F8402049
S2142059C062F07F0283F8402093F8402042F00102E4
S2142059D083F84020B3F8FE2345F6FE210A4042F421
S2142059E02542A3F8FE23704700E001400F4BB3F892
S2142059F0FE2392B242F4254242F00102A3F8FE238F
S214205A0093F8402022F0010283F8402093F84020AB
S214205A1002F07F0283F84020B3F8FE2345F6FE21ED
S214205A200A4042F42542A3F8FE23704700E00140D6
S214205A30024B93F84000C009704700BF00E00140C9
S214205A40024B93F8410000F00100704700E001404F
S214205A50114A92F8410010F0010001D10020704751
S214205A60B2F8FE339BB243F4254343F00103A2F879
S214205A70FE3392F8413023F0010382F84130B2F829
S214205A80FE3323F4145323F001035B045B0C43F42E
S214205A902543A2F8FE33704700E001400E4AB2F8D4
S214205AA0FE339BB243F4254343F00103A2F8FE33B2
S214205AB092F8303000F0010023F00103184382F8FA
S214205AC03000B2F8FE3345F6FE210B4043F4254362
S214205AD0A2F8FE33704700BF00E001400C4AB2F83F
S214205AE0FE339BB243F4254343F00103A2F8FE3372
S214205AF092F8523043F0010382F85230B2F8FE3367
S214205B0045F6FE210B4043F42543A2F8FE337047AA
S214205B1000E001400C4AB2F8FE339BB243F4254322
S214205B2043F00103A2F8FE3392F8523023F001032B
S214205B3082F85230B2F8FE3345F6FE210B4043F48D
S214205B402543A2F8FE33704700E00140164BB3F819
S214205B50FE2392B242F4254242F00102A3F8FE232D
S214205B6093F83E2002F07F0283F83E2093F83E20F2
S214205B7001F0070122F0700242EA011283F83E206B
S214205B8093F83E2000F0070022F00702104383F827
S214205B903E00B3F8FE2345F6FE210A4042F4254295
S214205BA0A3F8FE23704700BF00E001400C4AB2F87D
S214205BB0FE339BB243F4254343F00103A2F8FE33A1
S214205BC092F83E3063F07F0382F83E30B2F8FE3320
S214205BD045F6FE210B4043F42543A2F8FE337047DA
S214205BE000E001400C4AB2F8FE339BB243F4254352
S214205BF043F00103A2F8FE3392F83E3003F07F0311
S214205C0082F83E30B2F8FE3345F6FE210B4043F4D0
S214205C102543A2F8FE33704700E001400C4AB2F854
S214205C20FE339BB243F4254343F00103A2F8FE3330
