S00F0000737461727475702E7372656302
S11300000840FF1F0105000087050000850500006A
S1130010850500008505000085050000000000003E
S113002000000000000000000000000000000000CC
S113003000000000000000000000000000000000BC
S113004000000000000000000000000000000000AC
S1130050000000000000000000000000000000009C
S1130500184B194A1B6810B5136072B6BFF35F8F9E
S1130510002316491C4603F1C0000133602B41F847
S11305202040F8D11368124A013B9342114B09D879
S11305304FF400121A60104A82F3088802F5B2528E
S1130540183203E04FF480421A600C4A82F309889F
S11305500B4A1B6893600CCBBFF34F8F82F3088860
S11305609847FEE7000010400400FE1F00600040B2
S1130570FE7F0F000000FE1F18A10220D030FE1FD6
S10B058000ED00E0FEE7FEE7D8
S1070588004000002B
S9030501F6
